{
  "contractName": "KingdomBank",
  "abi": [
    {
      "inputs": [
        {
          "internalType": "contract KingdomSeedCoin",
          "name": "_kgdsc",
          "type": "address"
        },
        {
          "internalType": "contract KingdomAttackCoin",
          "name": "_kgdat",
          "type": "address"
        },
        {
          "internalType": "contract KingdomDefenseCoin",
          "name": "_kgddf",
          "type": "address"
        }
      ],
      "stateMutability": "nonpayable",
      "type": "constructor"
    },
    {
      "anonymous": false,
      "inputs": [
        {
          "indexed": true,
          "internalType": "address",
          "name": "_to",
          "type": "address"
        },
        {
          "indexed": false,
          "internalType": "uint256",
          "name": "_amount",
          "type": "uint256"
        }
      ],
      "name": "HarvestAttackPoints",
      "type": "event"
    },
    {
      "anonymous": false,
      "inputs": [
        {
          "indexed": true,
          "internalType": "address",
          "name": "_to",
          "type": "address"
        },
        {
          "indexed": false,
          "internalType": "uint256",
          "name": "_amount",
          "type": "uint256"
        }
      ],
      "name": "HarvestDefensePoints",
      "type": "event"
    },
    {
      "anonymous": false,
      "inputs": [
        {
          "indexed": true,
          "internalType": "address",
          "name": "_to",
          "type": "address"
        },
        {
          "indexed": false,
          "internalType": "uint256",
          "name": "_amount",
          "type": "uint256"
        },
        {
          "indexed": false,
          "internalType": "uint256",
          "name": "_beforeBurn",
          "type": "uint256"
        }
      ],
      "name": "HarvestRemainingSeedCoins",
      "type": "event"
    },
    {
      "anonymous": false,
      "inputs": [
        {
          "indexed": true,
          "internalType": "address",
          "name": "previousOwner",
          "type": "address"
        },
        {
          "indexed": true,
          "internalType": "address",
          "name": "newOwner",
          "type": "address"
        }
      ],
      "name": "OwnershipTransferred",
      "type": "event"
    },
    {
      "anonymous": false,
      "inputs": [
        {
          "indexed": true,
          "internalType": "address",
          "name": "_from",
          "type": "address"
        },
        {
          "indexed": false,
          "internalType": "uint256",
          "name": "_amount",
          "type": "uint256"
        }
      ],
      "name": "enterStakingAttackPoints",
      "type": "event"
    },
    {
      "anonymous": false,
      "inputs": [
        {
          "indexed": true,
          "internalType": "address",
          "name": "_from",
          "type": "address"
        },
        {
          "indexed": false,
          "internalType": "uint256",
          "name": "_amount",
          "type": "uint256"
        }
      ],
      "name": "enterStakingDefensePoints",
      "type": "event"
    },
    {
      "inputs": [],
      "name": "balanceLastMonth_kgdat",
      "outputs": [
        {
          "internalType": "uint256",
          "name": "",
          "type": "uint256"
        }
      ],
      "stateMutability": "view",
      "type": "function"
    },
    {
      "inputs": [],
      "name": "balanceLastMonth_kgddf",
      "outputs": [
        {
          "internalType": "uint256",
          "name": "",
          "type": "uint256"
        }
      ],
      "stateMutability": "view",
      "type": "function"
    },
    {
      "inputs": [],
      "name": "balanceLastMonth_kgdsc",
      "outputs": [
        {
          "internalType": "uint256",
          "name": "",
          "type": "uint256"
        }
      ],
      "stateMutability": "view",
      "type": "function"
    },
    {
      "inputs": [],
      "name": "exchangeRate",
      "outputs": [
        {
          "internalType": "uint8",
          "name": "",
          "type": "uint8"
        }
      ],
      "stateMutability": "view",
      "type": "function"
    },
    {
      "inputs": [],
      "name": "exchangeRate_Attackpoints",
      "outputs": [
        {
          "internalType": "uint8",
          "name": "",
          "type": "uint8"
        }
      ],
      "stateMutability": "view",
      "type": "function"
    },
    {
      "inputs": [],
      "name": "exchangeRate_Burnpct",
      "outputs": [
        {
          "internalType": "uint8",
          "name": "",
          "type": "uint8"
        }
      ],
      "stateMutability": "view",
      "type": "function"
    },
    {
      "inputs": [],
      "name": "exchangeRate_Defensepoints",
      "outputs": [
        {
          "internalType": "uint8",
          "name": "",
          "type": "uint8"
        }
      ],
      "stateMutability": "view",
      "type": "function"
    },
    {
      "inputs": [],
      "name": "kgdat",
      "outputs": [
        {
          "internalType": "contract KingdomAttackCoin",
          "name": "",
          "type": "address"
        }
      ],
      "stateMutability": "view",
      "type": "function"
    },
    {
      "inputs": [],
      "name": "kgddf",
      "outputs": [
        {
          "internalType": "contract KingdomDefenseCoin",
          "name": "",
          "type": "address"
        }
      ],
      "stateMutability": "view",
      "type": "function"
    },
    {
      "inputs": [],
      "name": "kgdsc",
      "outputs": [
        {
          "internalType": "contract KingdomSeedCoin",
          "name": "",
          "type": "address"
        }
      ],
      "stateMutability": "view",
      "type": "function"
    },
    {
      "inputs": [],
      "name": "owner",
      "outputs": [
        {
          "internalType": "address",
          "name": "",
          "type": "address"
        }
      ],
      "stateMutability": "view",
      "type": "function"
    },
    {
      "inputs": [],
      "name": "renounceOwnership",
      "outputs": [],
      "stateMutability": "nonpayable",
      "type": "function"
    },
    {
      "inputs": [],
      "name": "stakingPeriod",
      "outputs": [
        {
          "internalType": "uint256",
          "name": "",
          "type": "uint256"
        }
      ],
      "stateMutability": "view",
      "type": "function"
    },
    {
      "inputs": [
        {
          "internalType": "address",
          "name": "newOwner",
          "type": "address"
        }
      ],
      "name": "transferOwnership",
      "outputs": [],
      "stateMutability": "nonpayable",
      "type": "function"
    },
    {
      "inputs": [],
      "name": "buyForETH",
      "outputs": [],
      "stateMutability": "payable",
      "type": "function"
    },
    {
      "inputs": [],
      "name": "justSendETH",
      "outputs": [
        {
          "internalType": "uint256",
          "name": "",
          "type": "uint256"
        }
      ],
      "stateMutability": "payable",
      "type": "function"
    },
    {
      "inputs": [
        {
          "internalType": "uint256",
          "name": "nrSeedCoins",
          "type": "uint256"
        },
        {
          "internalType": "uint8",
          "name": "targetCoin",
          "type": "uint8"
        }
      ],
      "name": "plantSeeds",
      "outputs": [],
      "stateMutability": "nonpayable",
      "type": "function"
    },
    {
      "inputs": [],
      "name": "getCurrentStakes",
      "outputs": [
        {
          "internalType": "uint256[3]",
          "name": "",
          "type": "uint256[3]"
        }
      ],
      "stateMutability": "view",
      "type": "function"
    },
    {
      "inputs": [],
      "name": "getTimeUntilStakingDone",
      "outputs": [
        {
          "internalType": "uint256[3]",
          "name": "timeuntildone",
          "type": "uint256[3]"
        }
      ],
      "stateMutability": "view",
      "type": "function"
    },
    {
      "inputs": [],
      "name": "harvestAll",
      "outputs": [
        {
          "internalType": "bool",
          "name": "success",
          "type": "bool"
        }
      ],
      "stateMutability": "nonpayable",
      "type": "function"
    }
  ],
  "bytecode": "0x60806040526000805463ffffffff60a01b1916630504050560a11b178155603c600155600281905560038190556004553480156200003c57600080fd5b506040516200152d3803806200152d8339810160408190526200005f9162000116565b6200006a33620000ad565b600580546001600160a01b039485166001600160a01b0319918216179091556006805493851693821693909317909255600780549190931691161790556200016a565b600080546001600160a01b038381166001600160a01b0319831681178455604051919092169283917f8be0079c531659141344cd1fd0a4f28419497f9722a3daafe3b4186f6b6457e09190a35050565b6001600160a01b03811681146200011357600080fd5b50565b6000806000606084860312156200012c57600080fd5b83516200013981620000fd565b60208501519093506200014c81620000fd565b60408501519092506200015f81620000fd565b809150509250925092565b6113b3806200017a6000396000f3fe60806040526004361061011e5760003560e01c80638da5cb5b116100a0578063d4637ddb11610064578063d4637ddb14610309578063e046670b1461032a578063eb8fd9a314610330578063f2fde38b14610346578063fa4facdb1461036657600080fd5b80638da5cb5b1461026f5780638ed955b91461028d578063900294be146102b2578063c03d5b47146102d2578063c669b710146102e857600080fd5b80636a7a2fa3116100e75780636a7a2fa3146101e1578063715018a6146102025780637c62539a14610217578063839b92051461023757806384505e6a1461024d57600080fd5b80620a51801461012357806310f7e4ed1461014c5780633ba0b9a914610156578063411ee0d014610189578063429c3edf146101c1575b600080fd5b34801561012f57600080fd5b5061013960035481565b6040519081526020015b60405180910390f35b61015461037b565b005b34801561016257600080fd5b5060005461017790600160a01b900460ff1681565b60405160ff9091168152602001610143565b34801561019557600080fd5b506007546101a9906001600160a01b031681565b6040516001600160a01b039091168152602001610143565b3480156101cd57600080fd5b506101546101dc3660046111f4565b6105f1565b3480156101ed57600080fd5b5060005461017790600160b81b900460ff1681565b34801561020e57600080fd5b50610154610a11565b34801561022357600080fd5b506006546101a9906001600160a01b031681565b34801561024357600080fd5b5061013960045481565b34801561025957600080fd5b50610262610a77565b604051610143919061122a565b34801561027b57600080fd5b506000546001600160a01b03166101a9565b34801561029957600080fd5b506102a2610bec565b6040519015158152602001610143565b3480156102be57600080fd5b506005546101a9906001600160a01b031681565b3480156102de57600080fd5b5061013960015481565b3480156102f457600080fd5b5060005461017790600160a81b900460ff1681565b34801561031557600080fd5b5060005461017790600160b01b900460ff1681565b47610139565b34801561033c57600080fd5b5061013960025481565b34801561035257600080fd5b5061015461036136600461125b565b610eb6565b34801561037257600080fd5b50610262610f81565b6005546040516370a0823160e01b81523060048201526000916001600160a01b0316906370a082319060240160206040518083038186803b1580156103bf57600080fd5b505afa1580156103d3573d6000803e3d6000fd5b505050506040513d601f19601f820116820180604052508101906103f7919061128b565b1161040157600080fd5b6000341161046f5760405162461bcd60e51b815260206004820152603060248201527f796f75206861766520746f2073656e6420736f6d652045544820746f2067657460448201526f1025b4b733b237b6a9b2b2b231b7b4b760811b60648201526084015b60405180910390fd5b6005546040516370a0823160e01b81523060048201526000916001600160a01b0316906370a082319060240160206040518083038186803b1580156104b357600080fd5b505afa1580156104c7573d6000803e3d6000fd5b505050506040513d601f19601f820116820180604052508101906104eb919061128b565b116105505760405162461bcd60e51b815260206004820152602f60248201527f75686f682c2073727920692063616e27742073656e6420616e79206d6f72652060448201526e25b4b733b237b6a9b2b2b231b7b4b760891b6064820152608401610466565b6000805461056890600160a01b900460ff16346112ba565b60055460405163a9059cbb60e01b8152336004820152602481018390529192506001600160a01b03169063a9059cbb90604401602060405180830381600087803b1580156105b557600080fd5b505af11580156105c9573d6000803e3d6000fd5b505050506040513d601f19601f820116820180604052508101906105ed91906112d9565b5050565b6006546040516370a0823160e01b81523060048201526000916001600160a01b0316906370a082319060240160206040518083038186803b15801561063557600080fd5b505afa158015610649573d6000803e3d6000fd5b505050506040513d601f19601f8201168201806040525081019061066d919061128b565b1161067757600080fd5b6007546040516370a0823160e01b81523060048201526000916001600160a01b0316906370a082319060240160206040518083038186803b1580156106bb57600080fd5b505afa1580156106cf573d6000803e3d6000fd5b505050506040513d601f19601f820116820180604052508101906106f3919061128b565b116106fd57600080fd5b6005546040516370a0823160e01b81523360048201526000916001600160a01b0316906370a082319060240160206040518083038186803b15801561074157600080fd5b505afa158015610755573d6000803e3d6000fd5b505050506040513d601f19601f82011682018060405250810190610779919061128b565b905082811015801561078b5750600083115b6107f25760405162461bcd60e51b815260206004820152603260248201527f796f7520646f6e2774206861766520656e6f7567682073656564636f696e732160448201527120627579206f7220747261646520736f6d6560701b6064820152608401610466565b60ff8216158061080557508160ff166001145b61086c5760405162461bcd60e51b815260206004820152603260248201527f746172676574436f696e2068617320746f20626520303d61747461636b636f69604482015271371037b910189eb232b332b739b2b1b7b4b760711b6064820152608401610466565b60ff82166108ae5760405183815233907f44d00596aedd88fca0607c9a84113fd638c9a070d5ef8d77c072080b688d8e349060200160405180910390a26108f0565b8160ff16600114156108f05760405183815233907f049b4d6e22c9904766197183f9dc1f362cefb04f39e3850a8b7d83ff2c26216f9060200160405180910390a25b6005546040516323b872dd60e01b8152336004820152306024820152604481018590526001600160a01b03909116906323b872dd90606401602060405180830381600087803b15801561094257600080fd5b505af1158015610956573d6000803e3d6000fd5b505050506040513d601f19601f8201168201806040525081019061097a91906112d9565b5060086000336001600160a01b03166001600160a01b0316815260200190815260200160002060405180606001604052808581526020018460ff168152602001600154426109c891906112fb565b90528154600180820184556000938452602093849020835160039093020191825592820151928101805460ff191660ff9094169390931790925560400151600290910155505050565b6000546001600160a01b03163314610a6b5760405162461bcd60e51b815260206004820181905260248201527f4f776e61626c653a2063616c6c6572206973206e6f7420746865206f776e65726044820152606401610466565b610a756000611092565b565b610a7f6111d6565b60405180606001604052806298967f81526020016298967f81526020016000815250905060005b33600090815260086020526040902054811015610be857336000908152600860205260408120805483908110610ade57610ade611313565b600091825260209182902060408051606081018252600390930290910180548352600181015460ff16938301939093526002909201549181018290529150610b265750610bd6565b60408301805190610b3682611329565b905250602081015160ff16610b89574281604001511115610b80576000428260400151610b639190611344565b8451909150811015610b7a57808460005b60200201525b50610bd4565b60008352610bd4565b806020015160ff1660011415610bd4574281604001511115610bcc576000428260400151610bb79190611344565b8451909150811015610b7a5780846001610b74565b600060208401525b505b80610be081611329565b915050610aa6565b5090565b6000805b33600090815260086020526040902054811015610be857336000908152600860205260408120805483908110610c2857610c28611313565b600091825260209182902060408051606081018252600390930290910180548352600181015460ff16938301939093526002909201549181018290529150421115610ea357602081015160ff16610d6257600080548251610c9391600160a81b900460ff169061135b565b9050610ca282600001516110e2565b60065460405163a9059cbb60e01b8152336004820152602481018390526001600160a01b039091169063a9059cbb90604401602060405180830381600087803b158015610cee57600080fd5b505af1158015610d02573d6000803e3d6000fd5b505050506040513d601f19601f82011682018060405250810190610d2691906112d9565b5060405181815233907f9fd4a9248425079a398923cd20daa8e0c103907fb89db4707cb4f2cc343f95469060200160405180910390a250610e57565b806020015160ff1660011415610e5757600080548251610d8c91600160b01b900460ff169061135b565b9050610d9b82600001516110e2565b60075460405163a9059cbb60e01b8152336004820152602481018390526001600160a01b039091169063a9059cbb90604401602060405180830381600087803b158015610de757600080fd5b505af1158015610dfb573d6000803e3d6000fd5b505050506040513d601f19601f82011682018060405250810190610e1f91906112d9565b5060405181815233907fd62aeb2df4f1c7a0c59e15c0dca22ccbcbe42ad0d0dbf99a22c0ad2551c5a1559060200160405180910390a2505b336000908152600860205260409020805483908110610e7857610e78611313565b6000918252602082206003909102018181556001808201805460ff1916905560029091019190915592505b5080610eae81611329565b915050610bf0565b6000546001600160a01b03163314610f105760405162461bcd60e51b815260206004820181905260248201527f4f776e61626c653a2063616c6c6572206973206e6f7420746865206f776e65726044820152606401610466565b6001600160a01b038116610f755760405162461bcd60e51b815260206004820152602660248201527f4f776e61626c653a206e6577206f776e657220697320746865207a65726f206160448201526564647265737360d01b6064820152608401610466565b610f7e81611092565b50565b610f896111d6565b6000806000805b3360009081526008602052604090205481101561107357336000908152600860205260408120805483908110610fc857610fc8611313565b600091825260209182902060408051606081018252600390930290910180548352600181015460ff169383019390935260029092015491810182905291506110105750611061565b8261101a81611329565b935050806020015160ff166000141561104057805161103990866112fb565b945061105f565b806020015160ff166001141561105f57805161105c90856112fb565b93505b505b8061106b81611329565b915050610f90565b5060408051606081018252938452602084019290925290820152919050565b600080546001600160a01b038381166001600160a01b0319831681178455604051919092169283917f8be0079c531659141344cd1fd0a4f28419497f9722a3daafe3b4186f6b6457e09190a35050565b600080546064906110fd90600160b81b900460ff16846112ba565b611107919061135b565b6111119083611344565b60055460405163a9059cbb60e01b8152336004820152602481018390529192506001600160a01b03169063a9059cbb90604401602060405180830381600087803b15801561115e57600080fd5b505af1158015611172573d6000803e3d6000fd5b505050506040513d601f19601f8201168201806040525081019061119691906112d9565b50604080518281526020810184905233917f11acec8ea502f5c875e157dd1a17389990a9350450464db61ef112521c0d8751910160405180910390a25050565b60405180606001604052806003906020820280368337509192915050565b6000806040838503121561120757600080fd5b82359150602083013560ff8116811461121f57600080fd5b809150509250929050565b60608101818360005b6003811015611252578151835260209283019290910190600101611233565b50505092915050565b60006020828403121561126d57600080fd5b81356001600160a01b038116811461128457600080fd5b9392505050565b60006020828403121561129d57600080fd5b5051919050565b634e487b7160e01b600052601160045260246000fd5b60008160001904831182151516156112d4576112d46112a4565b500290565b6000602082840312156112eb57600080fd5b8151801515811461128457600080fd5b6000821982111561130e5761130e6112a4565b500190565b634e487b7160e01b600052603260045260246000fd5b600060001982141561133d5761133d6112a4565b5060010190565b600082821015611356576113566112a4565b500390565b60008261137857634e487b7160e01b600052601260045260246000fd5b50049056fea26469706673582212204f28485b088506118f9e61ffe879cbb4fa209dffa48af0bfd6ba529bdfdaed1d64736f6c63430008090033",
  "immutableReferences": {},
  "source": "pragma solidity ^0.8;\r\n\r\nimport \"./KingdomSeedCoin.sol\";\r\nimport \"./KingdomAttackCoin.sol\";\r\nimport \"./KingdomDefenseCoin.sol\";\r\nimport \"@openzeppelin/contracts/access/Ownable.sol\";\r\n\r\n\r\ncontract KingdomBank is Ownable {\r\n\r\n    uint8 public exchangeRate = 10;\r\n    // return more defensepoints as attackpoints\r\n    uint8 public exchangeRate_Attackpoints = 10;\r\n    uint8 public exchangeRate_Defensepoints = 8;\r\n    uint8 public exchangeRate_Burnpct = 10;\r\n    uint public stakingPeriod = 60 seconds;\r\n    // needed for dividend payments\r\n    uint public balanceLastMonth_kgdsc = 0;\r\n    uint public balanceLastMonth_kgdat = 0;\r\n    uint public balanceLastMonth_kgddf = 0;\r\n    \r\n    KingdomSeedCoin public kgdsc;\r\n    KingdomAttackCoin public kgdat;\r\n    KingdomDefenseCoin public kgddf;\r\n\r\n    event enterStakingAttackPoints(address indexed _from, uint _amount);\r\n    event enterStakingDefensePoints(address indexed _from, uint _amount);\r\n\r\n    event HarvestAttackPoints(address indexed _to, uint _amount);\r\n    event HarvestDefensePoints(address indexed _to, uint _amount);\r\n    event HarvestRemainingSeedCoins(address indexed _to, uint _amount, uint _beforeBurn);\r\n    \r\n    struct Staking {\r\n        uint seedCoinAmount;\r\n        uint8 targetCoinType; // 0 = attackCoin, 1 = defenseCoin\r\n        uint readyTime;\r\n    }\r\n\r\n    struct PayOutSoon {\r\n        address to;\r\n        uint amount;\r\n        uint8 targetCoinType; // 0 = attackCoin, 1 = defenseCoin, 2 = seedCoin\r\n    }\r\n\r\n    mapping (address => Staking[]) private _Staking;\r\n\r\n    constructor(KingdomSeedCoin _kgdsc, KingdomAttackCoin _kgdat, KingdomDefenseCoin _kgddf) {\r\n        kgdsc = _kgdsc;\r\n        kgdat = _kgdat;\r\n        kgddf = _kgddf;\r\n        // after that the coins need to be transferred to KingdomBank\r\n        // owner = msg.sender;\r\n    }\r\n\r\n    modifier contractHasSeedcoins {\r\n        require (kgdsc.balanceOf(address(this)) > 0);\r\n        _;\r\n    }\r\n\r\n    modifier contractHasAttackcoins {\r\n        require (kgdat.balanceOf(address(this)) > 0);\r\n        _;\r\n    }\r\n\r\n    modifier contractHasDefensecoins {\r\n        require (kgddf.balanceOf(address(this)) > 0);\r\n        _;\r\n    }\r\n    \r\n    // you can only buy the seed coins \r\n    function buyForETH() external payable contractHasSeedcoins {\r\n        require(msg.value > 0, \"you have to send some ETH to get KingdomSeedcoin\");\r\n        require(kgdsc.balanceOf(address(this)) > 0, \"uhoh, sry i can't send any more KingdomSeedcoin\");\r\n        \r\n        uint rewardTokens = msg.value * exchangeRate;\r\n        kgdsc.transfer(msg.sender, rewardTokens);\r\n    }\r\n    \r\n    function justSendETH() public payable  returns(uint){\r\n        return address(this).balance;\r\n    }\r\n    \r\n    function plantSeeds(uint nrSeedCoins, uint8 targetCoin) public contractHasAttackcoins contractHasDefensecoins {\r\n        // aka staking\r\n        uint kgdsc_balance = kgdsc.balanceOf(msg.sender);\r\n        require(kgdsc_balance >= nrSeedCoins && nrSeedCoins > 0, \"you don't have enough seedcoins! buy or trade some\");\r\n        require(targetCoin == 0 || targetCoin == 1, \"targetCoin has to be 0=attackcoin or 1=defensecoin\");\r\n        // enter staking\r\n        // first transact the kgdsc\r\n        // first approve built in \r\n\r\n        if (targetCoin == 0) {\r\n            emit enterStakingAttackPoints(msg.sender, nrSeedCoins);\r\n        }\r\n        else if (targetCoin == 1) {\r\n            emit enterStakingDefensePoints(msg.sender, nrSeedCoins);\r\n        }\r\n        // kgdsc.approve(address(this), nrSeedCoins);\r\n        kgdsc.transferFrom(msg.sender, address(this), nrSeedCoins);\r\n        \r\n\r\n\r\n        // then store in array\r\n        _Staking[msg.sender].push(Staking(\r\n            nrSeedCoins,\r\n            targetCoin,\r\n            block.timestamp + stakingPeriod\r\n            ));\r\n    }\r\n    \r\n    function getCurrentStakes() public view returns(uint[3] memory){\r\n        uint attackPoints = 0;\r\n        uint defensePoints = 0;\r\n        uint activeStakes = 0;\r\n        for (uint i = 0; i < _Staking[msg.sender].length; i++) {\r\n            Staking memory stakeobj = _Staking[msg.sender][i];\r\n            // first check if it is an empty hull\r\n            if (stakeobj.readyTime == 0) {\r\n                continue; // skip this if empty (has been previously deleted)\r\n            }\r\n            activeStakes++;\r\n            if (stakeobj.targetCoinType == 0) {\r\n                attackPoints += stakeobj.seedCoinAmount;\r\n            }\r\n            else if (stakeobj.targetCoinType == 1) {\r\n                defensePoints += stakeobj.seedCoinAmount;\r\n            }\r\n        }\r\n        // , attackStakeTimeRemaining, defenseStakeTimeRemaining\r\n        uint[3] memory res = [attackPoints, defensePoints, activeStakes];\r\n        return res;\r\n    }\r\n\r\n    function getTimeUntilStakingDone() public view returns(uint[3] memory timeuntildone){\r\n        // somehow we need to seperate this functionality from the other, as this causes\r\n        // a buffer overflow error if not\r\n        // returns 9999999 for a coin if it is not staking\r\n        timeuntildone = [uint(9999999),uint(9999999), 0];\r\n        // save the value for the shortest stake\r\n        for (uint i = 0; i < _Staking[msg.sender].length; i++) {\r\n            Staking memory stakeobj = _Staking[msg.sender][i];\r\n            // first check if it is an empty hull\r\n            if (stakeobj.readyTime == 0) {\r\n                continue; // skip this if empty (has been previously deleted)\r\n            }\r\n            // for every active stake, add plus one\r\n            timeuntildone[2]++;\r\n            if (stakeobj.targetCoinType == 0) {\r\n                if (uint(stakeobj.readyTime) > uint(block.timestamp)) {\r\n                    // still kind of faulty, because there can be multiple staking objects\r\n                    uint remaining = uint(stakeobj.readyTime - block.timestamp);\r\n                    if (remaining < timeuntildone[0]) {\r\n                        // if shorter, then this is our next stake done time\r\n                        timeuntildone[0] = remaining;\r\n                    }\r\n                }\r\n                else {\r\n                    // if the readytime is in the past, then we can harvest\r\n                    timeuntildone[0] = uint(0);\r\n                }\r\n            }\r\n            else if (stakeobj.targetCoinType == 1) {\r\n                if (uint(stakeobj.readyTime) > uint(block.timestamp)) {\r\n                    uint remaining = uint(stakeobj.readyTime - block.timestamp);\r\n                    if (remaining < timeuntildone[0]) {\r\n                        timeuntildone[1] = remaining;\r\n                    }\r\n                }\r\n                else {\r\n                    timeuntildone[1] = uint(0);\r\n                }\r\n            }\r\n        }\r\n        return timeuntildone;\r\n    }\r\n\r\n    function _burnReturnSeedcoins(uint nrSeedCoins) internal {\r\n        uint remainingSeedcoins = nrSeedCoins - (nrSeedCoins * exchangeRate_Burnpct / 100);\r\n        kgdsc.transfer(msg.sender, remainingSeedcoins);\r\n        emit HarvestRemainingSeedCoins(msg.sender, remainingSeedcoins, nrSeedCoins);\r\n    }\r\n\r\n    function harvestAll() public returns (bool success) {\r\n        // harvesting all ready coins\r\n        success = false;\r\n        for (uint i = 0; i < _Staking[msg.sender].length; i++) {\r\n            Staking memory stakeobj = _Staking[msg.sender][i];\r\n            if (stakeobj.readyTime < block.timestamp) {\r\n                // ready for harvest\r\n                if (stakeobj.targetCoinType == 0) {\r\n                    uint attackPoints = stakeobj.seedCoinAmount / exchangeRate_Attackpoints;\r\n                    _burnReturnSeedcoins(stakeobj.seedCoinAmount);\r\n                    kgdat.transfer(msg.sender, attackPoints);\r\n                    emit HarvestAttackPoints(msg.sender, attackPoints);\r\n                }\r\n                else if (stakeobj.targetCoinType == 1) {\r\n                    uint defensePoints = stakeobj.seedCoinAmount / exchangeRate_Defensepoints;\r\n                    _burnReturnSeedcoins(stakeobj.seedCoinAmount);\r\n                    kgddf.transfer(msg.sender, defensePoints);\r\n                    emit HarvestDefensePoints(msg.sender, defensePoints);\r\n                }\r\n                // finally remove from array\r\n                delete _Staking[msg.sender][i];\r\n                // be careful, this is not a delete, but leaves an empty field in there...\r\n                success = true;\r\n            }\r\n        }\r\n        return success;\r\n    } \r\n}",
  "sourcePath": "D:\\Github Code\\truffle-gaanche-demo\\contracts\\KingdomBank.sol",
  "compiler": {
    "name": "solc",
    "version": "0.8.9+commit.e5eed63a.Emscripten.clang"
  },
  "schemaVersion": "3.4.4",
  "updatedAt": "2022-05-27T11:54:36.505Z",
  "devdoc": {
    "kind": "dev",
    "methods": {
      "owner()": {
        "details": "Returns the address of the current owner."
      },
      "renounceOwnership()": {
        "details": "Leaves the contract without owner. It will not be possible to call `onlyOwner` functions anymore. Can only be called by the current owner. NOTE: Renouncing ownership will leave the contract without an owner, thereby removing any functionality that is only available to the owner."
      },
      "transferOwnership(address)": {
        "details": "Transfers ownership of the contract to a new account (`newOwner`). Can only be called by the current owner."
      }
    },
    "version": 1
  },
  "userdoc": {
    "kind": "user",
    "methods": {},
    "version": 1
  }
}