{
  "contractName": "KingdomGameMechanic",
  "abi": [
    {
      "inputs": [
        {
          "internalType": "contract KingdomSeedCoin",
          "name": "_kgdsc",
          "type": "address"
        },
        {
          "internalType": "contract KingdomAttackCoin",
          "name": "_kgdat",
          "type": "address"
        },
        {
          "internalType": "contract KingdomDefenseCoin",
          "name": "_kgddf",
          "type": "address"
        }
      ],
      "stateMutability": "nonpayable",
      "type": "constructor"
    },
    {
      "anonymous": false,
      "inputs": [
        {
          "indexed": true,
          "internalType": "address",
          "name": "owner",
          "type": "address"
        },
        {
          "indexed": true,
          "internalType": "address",
          "name": "approved",
          "type": "address"
        },
        {
          "indexed": true,
          "internalType": "uint256",
          "name": "tokenId",
          "type": "uint256"
        }
      ],
      "name": "Approval",
      "type": "event"
    },
    {
      "anonymous": false,
      "inputs": [
        {
          "indexed": true,
          "internalType": "address",
          "name": "owner",
          "type": "address"
        },
        {
          "indexed": true,
          "internalType": "address",
          "name": "operator",
          "type": "address"
        },
        {
          "indexed": false,
          "internalType": "bool",
          "name": "approved",
          "type": "bool"
        }
      ],
      "name": "ApprovalForAll",
      "type": "event"
    },
    {
      "anonymous": false,
      "inputs": [
        {
          "indexed": false,
          "internalType": "address",
          "name": "attacker",
          "type": "address"
        },
        {
          "indexed": false,
          "internalType": "address",
          "name": "defender",
          "type": "address"
        },
        {
          "indexed": false,
          "internalType": "uint256",
          "name": "attacker_id",
          "type": "uint256"
        },
        {
          "indexed": false,
          "internalType": "uint256",
          "name": "defender_id",
          "type": "uint256"
        },
        {
          "indexed": false,
          "internalType": "uint256",
          "name": "attackPointsBefore",
          "type": "uint256"
        },
        {
          "indexed": false,
          "internalType": "uint256",
          "name": "defensePointsBefore",
          "type": "uint256"
        },
        {
          "indexed": false,
          "internalType": "uint256",
          "name": "deadAttackers",
          "type": "uint256"
        },
        {
          "indexed": false,
          "internalType": "uint256",
          "name": "deadDefenders",
          "type": "uint256"
        },
        {
          "indexed": false,
          "internalType": "bool",
          "name": "won",
          "type": "bool"
        }
      ],
      "name": "Attack",
      "type": "event"
    },
    {
      "anonymous": false,
      "inputs": [
        {
          "indexed": true,
          "internalType": "address",
          "name": "_to",
          "type": "address"
        },
        {
          "indexed": false,
          "internalType": "uint256",
          "name": "_amount",
          "type": "uint256"
        }
      ],
      "name": "HarvestAttackPoints",
      "type": "event"
    },
    {
      "anonymous": false,
      "inputs": [
        {
          "indexed": true,
          "internalType": "address",
          "name": "_to",
          "type": "address"
        },
        {
          "indexed": false,
          "internalType": "uint256",
          "name": "_amount",
          "type": "uint256"
        }
      ],
      "name": "HarvestDefensePoints",
      "type": "event"
    },
    {
      "anonymous": false,
      "inputs": [
        {
          "indexed": true,
          "internalType": "address",
          "name": "_to",
          "type": "address"
        },
        {
          "indexed": false,
          "internalType": "uint256",
          "name": "_amount",
          "type": "uint256"
        },
        {
          "indexed": false,
          "internalType": "uint256",
          "name": "_beforeBurn",
          "type": "uint256"
        }
      ],
      "name": "HarvestRemainingSeedCoins",
      "type": "event"
    },
    {
      "anonymous": false,
      "inputs": [
        {
          "indexed": false,
          "internalType": "uint256",
          "name": "error",
          "type": "uint256"
        }
      ],
      "name": "Log",
      "type": "event"
    },
    {
      "anonymous": false,
      "inputs": [
        {
          "indexed": true,
          "internalType": "address",
          "name": "previousOwner",
          "type": "address"
        },
        {
          "indexed": true,
          "internalType": "address",
          "name": "newOwner",
          "type": "address"
        }
      ],
      "name": "OwnershipTransferred",
      "type": "event"
    },
    {
      "anonymous": false,
      "inputs": [
        {
          "indexed": false,
          "internalType": "address",
          "name": "attacker",
          "type": "address"
        },
        {
          "indexed": false,
          "internalType": "address",
          "name": "defender",
          "type": "address"
        },
        {
          "indexed": false,
          "internalType": "uint256",
          "name": "new_attacker_id",
          "type": "uint256"
        },
        {
          "indexed": false,
          "internalType": "uint256",
          "name": "new_defender_id",
          "type": "uint256"
        }
      ],
      "name": "Sacked",
      "type": "event"
    },
    {
      "anonymous": false,
      "inputs": [
        {
          "indexed": true,
          "internalType": "address",
          "name": "from",
          "type": "address"
        },
        {
          "indexed": true,
          "internalType": "address",
          "name": "to",
          "type": "address"
        },
        {
          "indexed": true,
          "internalType": "uint256",
          "name": "tokenId",
          "type": "uint256"
        }
      ],
      "name": "Transfer",
      "type": "event"
    },
    {
      "anonymous": false,
      "inputs": [
        {
          "indexed": true,
          "internalType": "address",
          "name": "_from",
          "type": "address"
        },
        {
          "indexed": false,
          "internalType": "uint256",
          "name": "_amount",
          "type": "uint256"
        }
      ],
      "name": "enterStakingAttackPoints",
      "type": "event"
    },
    {
      "anonymous": false,
      "inputs": [
        {
          "indexed": true,
          "internalType": "address",
          "name": "_from",
          "type": "address"
        },
        {
          "indexed": false,
          "internalType": "uint256",
          "name": "_amount",
          "type": "uint256"
        }
      ],
      "name": "enterStakingDefensePoints",
      "type": "event"
    },
    {
      "inputs": [
        {
          "internalType": "address",
          "name": "",
          "type": "address"
        },
        {
          "internalType": "uint256",
          "name": "",
          "type": "uint256"
        }
      ],
      "name": "address2ids",
      "outputs": [
        {
          "internalType": "uint256",
          "name": "",
          "type": "uint256"
        }
      ],
      "stateMutability": "view",
      "type": "function",
      "constant": true
    },
    {
      "inputs": [
        {
          "internalType": "address",
          "name": "to",
          "type": "address"
        },
        {
          "internalType": "uint256",
          "name": "tokenId",
          "type": "uint256"
        }
      ],
      "name": "approve",
      "outputs": [],
      "stateMutability": "nonpayable",
      "type": "function"
    },
    {
      "inputs": [],
      "name": "attackCooldown",
      "outputs": [
        {
          "internalType": "uint256",
          "name": "",
          "type": "uint256"
        }
      ],
      "stateMutability": "view",
      "type": "function",
      "constant": true
    },
    {
      "inputs": [
        {
          "internalType": "address",
          "name": "player",
          "type": "address"
        }
      ],
      "name": "awardItem",
      "outputs": [
        {
          "internalType": "uint256",
          "name": "",
          "type": "uint256"
        }
      ],
      "stateMutability": "nonpayable",
      "type": "function"
    },
    {
      "inputs": [],
      "name": "balanceLastMonth_kgdat",
      "outputs": [
        {
          "internalType": "uint256",
          "name": "",
          "type": "uint256"
        }
      ],
      "stateMutability": "view",
      "type": "function",
      "constant": true
    },
    {
      "inputs": [],
      "name": "balanceLastMonth_kgddf",
      "outputs": [
        {
          "internalType": "uint256",
          "name": "",
          "type": "uint256"
        }
      ],
      "stateMutability": "view",
      "type": "function",
      "constant": true
    },
    {
      "inputs": [],
      "name": "balanceLastMonth_kgdsc",
      "outputs": [
        {
          "internalType": "uint256",
          "name": "",
          "type": "uint256"
        }
      ],
      "stateMutability": "view",
      "type": "function",
      "constant": true
    },
    {
      "inputs": [
        {
          "internalType": "address",
          "name": "owner",
          "type": "address"
        }
      ],
      "name": "balanceOf",
      "outputs": [
        {
          "internalType": "uint256",
          "name": "",
          "type": "uint256"
        }
      ],
      "stateMutability": "view",
      "type": "function",
      "constant": true
    },
    {
      "inputs": [],
      "name": "baseUrl",
      "outputs": [
        {
          "internalType": "string",
          "name": "",
          "type": "string"
        }
      ],
      "stateMutability": "view",
      "type": "function",
      "constant": true
    },
    {
      "inputs": [],
      "name": "buyForETH",
      "outputs": [],
      "stateMutability": "payable",
      "type": "function",
      "payable": true
    },
    {
      "inputs": [],
      "name": "currentPosition",
      "outputs": [
        {
          "internalType": "uint256",
          "name": "",
          "type": "uint256"
        }
      ],
      "stateMutability": "view",
      "type": "function",
      "constant": true
    },
    {
      "inputs": [],
      "name": "exchangeRate",
      "outputs": [
        {
          "internalType": "uint8",
          "name": "",
          "type": "uint8"
        }
      ],
      "stateMutability": "view",
      "type": "function",
      "constant": true
    },
    {
      "inputs": [],
      "name": "exchangeRate_Attackpoints",
      "outputs": [
        {
          "internalType": "uint8",
          "name": "",
          "type": "uint8"
        }
      ],
      "stateMutability": "view",
      "type": "function",
      "constant": true
    },
    {
      "inputs": [],
      "name": "exchangeRate_Burnpct",
      "outputs": [
        {
          "internalType": "uint8",
          "name": "",
          "type": "uint8"
        }
      ],
      "stateMutability": "view",
      "type": "function",
      "constant": true
    },
    {
      "inputs": [],
      "name": "exchangeRate_Defensepoints",
      "outputs": [
        {
          "internalType": "uint8",
          "name": "",
          "type": "uint8"
        }
      ],
      "stateMutability": "view",
      "type": "function",
      "constant": true
    },
    {
      "inputs": [
        {
          "internalType": "uint256",
          "name": "tokenId",
          "type": "uint256"
        }
      ],
      "name": "getApproved",
      "outputs": [
        {
          "internalType": "address",
          "name": "",
          "type": "address"
        }
      ],
      "stateMutability": "view",
      "type": "function",
      "constant": true
    },
    {
      "inputs": [],
      "name": "getCurrentStakes",
      "outputs": [
        {
          "internalType": "uint256[3]",
          "name": "",
          "type": "uint256[3]"
        }
      ],
      "stateMutability": "view",
      "type": "function",
      "constant": true
    },
    {
      "inputs": [
        {
          "internalType": "uint256",
          "name": "_rank",
          "type": "uint256"
        }
      ],
      "name": "getIdOfRank",
      "outputs": [
        {
          "internalType": "uint256",
          "name": "id",
          "type": "uint256"
        }
      ],
      "stateMutability": "view",
      "type": "function",
      "constant": true
    },
    {
      "inputs": [
        {
          "internalType": "address",
          "name": "_own",
          "type": "address"
        }
      ],
      "name": "getIdsOfAddress",
      "outputs": [
        {
          "internalType": "uint256[]",
          "name": "ownedIds",
          "type": "uint256[]"
        }
      ],
      "stateMutability": "view",
      "type": "function",
      "constant": true
    },
    {
      "inputs": [
        {
          "internalType": "uint256",
          "name": "_id",
          "type": "uint256"
        }
      ],
      "name": "getRankOfId",
      "outputs": [
        {
          "internalType": "uint256",
          "name": "id",
          "type": "uint256"
        }
      ],
      "stateMutability": "view",
      "type": "function",
      "constant": true
    },
    {
      "inputs": [
        {
          "internalType": "address",
          "name": "_own",
          "type": "address"
        }
      ],
      "name": "getRanksOfAddress",
      "outputs": [
        {
          "internalType": "uint256[]",
          "name": "",
          "type": "uint256[]"
        }
      ],
      "stateMutability": "view",
      "type": "function",
      "constant": true
    },
    {
      "inputs": [],
      "name": "getTimeUntilStakingDone",
      "outputs": [
        {
          "internalType": "uint256[3]",
          "name": "timeuntildone",
          "type": "uint256[3]"
        }
      ],
      "stateMutability": "view",
      "type": "function",
      "constant": true
    },
    {
      "inputs": [],
      "name": "harvestAll",
      "outputs": [
        {
          "internalType": "bool",
          "name": "success",
          "type": "bool"
        }
      ],
      "stateMutability": "nonpayable",
      "type": "function"
    },
    {
      "inputs": [
        {
          "internalType": "address",
          "name": "owner",
          "type": "address"
        },
        {
          "internalType": "address",
          "name": "operator",
          "type": "address"
        }
      ],
      "name": "isApprovedForAll",
      "outputs": [
        {
          "internalType": "bool",
          "name": "",
          "type": "bool"
        }
      ],
      "stateMutability": "view",
      "type": "function",
      "constant": true
    },
    {
      "inputs": [],
      "name": "justSendETH",
      "outputs": [
        {
          "internalType": "uint256",
          "name": "",
          "type": "uint256"
        }
      ],
      "stateMutability": "payable",
      "type": "function",
      "payable": true
    },
    {
      "inputs": [],
      "name": "kgdat",
      "outputs": [
        {
          "internalType": "contract KingdomAttackCoin",
          "name": "",
          "type": "address"
        }
      ],
      "stateMutability": "view",
      "type": "function",
      "constant": true
    },
    {
      "inputs": [],
      "name": "kgddf",
      "outputs": [
        {
          "internalType": "contract KingdomDefenseCoin",
          "name": "",
          "type": "address"
        }
      ],
      "stateMutability": "view",
      "type": "function",
      "constant": true
    },
    {
      "inputs": [],
      "name": "kgdsc",
      "outputs": [
        {
          "internalType": "contract KingdomSeedCoin",
          "name": "",
          "type": "address"
        }
      ],
      "stateMutability": "view",
      "type": "function",
      "constant": true
    },
    {
      "inputs": [
        {
          "internalType": "uint256",
          "name": "",
          "type": "uint256"
        }
      ],
      "name": "kingdomtitles",
      "outputs": [
        {
          "internalType": "uint256",
          "name": "attackPoints",
          "type": "uint256"
        },
        {
          "internalType": "uint256",
          "name": "defensePoints",
          "type": "uint256"
        },
        {
          "internalType": "uint256",
          "name": "readyTimeAttack",
          "type": "uint256"
        },
        {
          "internalType": "uint256",
          "name": "readyTimeStake",
          "type": "uint256"
        },
        {
          "internalType": "uint256",
          "name": "attackMultiplier",
          "type": "uint256"
        },
        {
          "internalType": "uint256",
          "name": "defenseMultiplier",
          "type": "uint256"
        },
        {
          "internalType": "uint256",
          "name": "moneyMultiplier",
          "type": "uint256"
        }
      ],
      "stateMutability": "view",
      "type": "function",
      "constant": true
    },
    {
      "inputs": [],
      "name": "name",
      "outputs": [
        {
          "internalType": "string",
          "name": "",
          "type": "string"
        }
      ],
      "stateMutability": "view",
      "type": "function",
      "constant": true
    },
    {
      "inputs": [],
      "name": "owner",
      "outputs": [
        {
          "internalType": "address",
          "name": "",
          "type": "address"
        }
      ],
      "stateMutability": "view",
      "type": "function",
      "constant": true
    },
    {
      "inputs": [
        {
          "internalType": "uint256",
          "name": "tokenId",
          "type": "uint256"
        }
      ],
      "name": "ownerOf",
      "outputs": [
        {
          "internalType": "address",
          "name": "",
          "type": "address"
        }
      ],
      "stateMutability": "view",
      "type": "function",
      "constant": true
    },
    {
      "inputs": [],
      "name": "payOutDividends",
      "outputs": [],
      "stateMutability": "payable",
      "type": "function",
      "payable": true
    },
    {
      "inputs": [
        {
          "internalType": "uint256",
          "name": "nrSeedCoins",
          "type": "uint256"
        },
        {
          "internalType": "uint8",
          "name": "targetCoin",
          "type": "uint8"
        }
      ],
      "name": "plantSeeds",
      "outputs": [],
      "stateMutability": "nonpayable",
      "type": "function"
    },
    {
      "inputs": [],
      "name": "readyTimeStakeCooldown",
      "outputs": [
        {
          "internalType": "uint256",
          "name": "",
          "type": "uint256"
        }
      ],
      "stateMutability": "view",
      "type": "function",
      "constant": true
    },
    {
      "inputs": [],
      "name": "renounceOwnership",
      "outputs": [],
      "stateMutability": "nonpayable",
      "type": "function"
    },
    {
      "inputs": [
        {
          "internalType": "uint256",
          "name": "itemId",
          "type": "uint256"
        }
      ],
      "name": "reverseItem",
      "outputs": [
        {
          "internalType": "bool",
          "name": "",
          "type": "bool"
        }
      ],
      "stateMutability": "nonpayable",
      "type": "function"
    },
    {
      "inputs": [
        {
          "internalType": "address",
          "name": "from",
          "type": "address"
        },
        {
          "internalType": "address",
          "name": "to",
          "type": "address"
        },
        {
          "internalType": "uint256",
          "name": "tokenId",
          "type": "uint256"
        }
      ],
      "name": "safeTransferFrom",
      "outputs": [],
      "stateMutability": "nonpayable",
      "type": "function"
    },
    {
      "inputs": [
        {
          "internalType": "address",
          "name": "from",
          "type": "address"
        },
        {
          "internalType": "address",
          "name": "to",
          "type": "address"
        },
        {
          "internalType": "uint256",
          "name": "tokenId",
          "type": "uint256"
        },
        {
          "internalType": "bytes",
          "name": "_data",
          "type": "bytes"
        }
      ],
      "name": "safeTransferFrom",
      "outputs": [],
      "stateMutability": "nonpayable",
      "type": "function"
    },
    {
      "inputs": [
        {
          "internalType": "address",
          "name": "operator",
          "type": "address"
        },
        {
          "internalType": "bool",
          "name": "approved",
          "type": "bool"
        }
      ],
      "name": "setApprovalForAll",
      "outputs": [],
      "stateMutability": "nonpayable",
      "type": "function"
    },
    {
      "inputs": [],
      "name": "stakingPeriod",
      "outputs": [
        {
          "internalType": "uint256",
          "name": "",
          "type": "uint256"
        }
      ],
      "stateMutability": "view",
      "type": "function",
      "constant": true
    },
    {
      "inputs": [
        {
          "internalType": "bytes4",
          "name": "interfaceId",
          "type": "bytes4"
        }
      ],
      "name": "supportsInterface",
      "outputs": [
        {
          "internalType": "bool",
          "name": "",
          "type": "bool"
        }
      ],
      "stateMutability": "view",
      "type": "function",
      "constant": true
    },
    {
      "inputs": [],
      "name": "symbol",
      "outputs": [
        {
          "internalType": "string",
          "name": "",
          "type": "string"
        }
      ],
      "stateMutability": "view",
      "type": "function",
      "constant": true
    },
    {
      "inputs": [
        {
          "internalType": "uint256",
          "name": "",
          "type": "uint256"
        }
      ],
      "name": "title2Rank",
      "outputs": [
        {
          "internalType": "uint256",
          "name": "",
          "type": "uint256"
        }
      ],
      "stateMutability": "view",
      "type": "function",
      "constant": true
    },
    {
      "inputs": [
        {
          "internalType": "uint256",
          "name": "tokenId",
          "type": "uint256"
        }
      ],
      "name": "tokenURI",
      "outputs": [
        {
          "internalType": "string",
          "name": "",
          "type": "string"
        }
      ],
      "stateMutability": "view",
      "type": "function",
      "constant": true
    },
    {
      "inputs": [],
      "name": "totalSupply",
      "outputs": [
        {
          "internalType": "uint16",
          "name": "",
          "type": "uint16"
        }
      ],
      "stateMutability": "view",
      "type": "function",
      "constant": true
    },
    {
      "inputs": [
        {
          "internalType": "address",
          "name": "from",
          "type": "address"
        },
        {
          "internalType": "address",
          "name": "to",
          "type": "address"
        },
        {
          "internalType": "uint256",
          "name": "tokenId",
          "type": "uint256"
        }
      ],
      "name": "transferFrom",
      "outputs": [],
      "stateMutability": "nonpayable",
      "type": "function"
    },
    {
      "inputs": [
        {
          "internalType": "address",
          "name": "newOwner",
          "type": "address"
        }
      ],
      "name": "transferOwnership",
      "outputs": [],
      "stateMutability": "nonpayable",
      "type": "function"
    },
    {
      "inputs": [
        {
          "internalType": "uint256",
          "name": "id",
          "type": "uint256"
        }
      ],
      "name": "getServants",
      "outputs": [
        {
          "internalType": "uint256",
          "name": "left",
          "type": "uint256"
        },
        {
          "internalType": "uint256",
          "name": "right",
          "type": "uint256"
        }
      ],
      "stateMutability": "view",
      "type": "function",
      "constant": true
    },
    {
      "inputs": [
        {
          "internalType": "uint256",
          "name": "id",
          "type": "uint256"
        }
      ],
      "name": "getBossRank",
      "outputs": [
        {
          "internalType": "uint256",
          "name": "bossrank",
          "type": "uint256"
        }
      ],
      "stateMutability": "view",
      "type": "function",
      "constant": true
    },
    {
      "inputs": [
        {
          "internalType": "uint256",
          "name": "playerId",
          "type": "uint256"
        }
      ],
      "name": "getBossId",
      "outputs": [
        {
          "internalType": "uint256",
          "name": "bossId",
          "type": "uint256"
        }
      ],
      "stateMutability": "view",
      "type": "function",
      "constant": true
    },
    {
      "inputs": [
        {
          "internalType": "uint256",
          "name": "titleId",
          "type": "uint256"
        }
      ],
      "name": "getTitleStats",
      "outputs": [
        {
          "internalType": "uint256",
          "name": "attackPoints",
          "type": "uint256"
        },
        {
          "internalType": "uint256",
          "name": "defensePoints",
          "type": "uint256"
        },
        {
          "internalType": "bool",
          "name": "ready4attack",
          "type": "bool"
        },
        {
          "internalType": "uint256",
          "name": "attackMultiplier",
          "type": "uint256"
        },
        {
          "internalType": "uint256",
          "name": "defenseMultiplier",
          "type": "uint256"
        },
        {
          "internalType": "uint256",
          "name": "moneyMultiplier",
          "type": "uint256"
        }
      ],
      "stateMutability": "view",
      "type": "function",
      "constant": true
    },
    {
      "inputs": [
        {
          "internalType": "uint256",
          "name": "nrCoins",
          "type": "uint256"
        },
        {
          "internalType": "uint32",
          "name": "titleId",
          "type": "uint32"
        },
        {
          "internalType": "uint256",
          "name": "coinType",
          "type": "uint256"
        }
      ],
      "name": "assignMilitaryToTitle",
      "outputs": [],
      "stateMutability": "nonpayable",
      "type": "function"
    },
    {
      "inputs": [
        {
          "internalType": "uint256",
          "name": "nrCoins",
          "type": "uint256"
        },
        {
          "internalType": "uint32",
          "name": "titleId",
          "type": "uint32"
        },
        {
          "internalType": "uint8",
          "name": "coinType",
          "type": "uint8"
        }
      ],
      "name": "withdrawMilitaryFromTitle",
      "outputs": [],
      "stateMutability": "nonpayable",
      "type": "function"
    },
    {
      "inputs": [
        {
          "internalType": "uint256",
          "name": "titleId",
          "type": "uint256"
        }
      ],
      "name": "attackBoss",
      "outputs": [],
      "stateMutability": "nonpayable",
      "type": "function"
    }
  ],
  "bytecode": "0x60806040526006805463ffffffff60a01b1916630504050560a11b179055603c600755600060088190556009819055600a553480156200003e57600080fd5b506040516200493c3803806200493c833981016040819052620000619162000261565b8282828282826040518060400160405280600e81526020016d4b696e67646f6d205469746c657360901b8152506040518060400160405280600381526020016212d1d160ea1b8152508160009080519060200190620000c2929190620001a2565b508051620000d8906001906020840190620001a2565b505050620000f5620000ef6200014c60201b60201c565b62000150565b600b80546001600160a01b039485166001600160a01b031991821617909155600c805493851693821693909317909255600d8054919093169116179055505060006201118055505042620111825550620002f29050565b3390565b600680546001600160a01b038381166001600160a01b0319831681179093556040519116919082907f8be0079c531659141344cd1fd0a4f28419497f9722a3daafe3b4186f6b6457e090600090a35050565b828054620001b090620002b5565b90600052602060002090601f016020900481019282620001d457600085556200021f565b82601f10620001ef57805160ff19168380011785556200021f565b828001600101855582156200021f579182015b828111156200021f57825182559160200191906001019062000202565b506200022d92915062000231565b5090565b5b808211156200022d576000815560010162000232565b6001600160a01b03811681146200025e57600080fd5b50565b6000806000606084860312156200027757600080fd5b8351620002848162000248565b6020850151909350620002978162000248565b6040850151909250620002aa8162000248565b809150509250925092565b600181811c90821680620002ca57607f821691505b60208210811415620002ec57634e487b7160e01b600052602260045260246000fd5b50919050565b61463a80620003026000396000f3fe60806040526004361061034f5760003560e01c80637c62539a116101c6578063c669b710116100f7578063e985e9c511610095578063f2fb21201161006f578063f2fb212014610a02578063f2fde38b14610a22578063f4fd44f114610a42578063fa4facdb14610a7157600080fd5b8063e985e9c514610983578063eb8fd9a3146109cc578063f08b7b73146109e257600080fd5b8063d534d636116100d1578063d534d63614610946578063e046670b1461095d578063e10270c614610963578063e73961f51461045157600080fd5b8063c669b710146108e4578063c87b56dd14610905578063d4637ddb1461092557600080fd5b8063900294be11610164578063b88d4fde1161013e578063b88d4fde14610861578063c03d5b4714610881578063c398314914610897578063c4a3a1fc146108b757600080fd5b8063900294be1461080c57806395d89b411461082c578063a22cb4651461084157600080fd5b806384505e6a116101a057806384505e6a14610797578063853eab57146107b95780638da5cb5b146107d95780638ed955b9146107f757600080fd5b80637c62539a14610732578063802bea6e14610752578063839b92051461078157600080fd5b806323b872dd116102a0578063437ace211161023e5780636352211e116102185780636352211e146106bc5780636a7a2fa3146106dc57806370a08231146106fd578063715018a61461071d57600080fd5b8063437ace211461061f5780635bcabf04146106725780635e1bb5461461068757600080fd5b80633ba0b9a91161027a5780633ba0b9a91461058c578063411ee0d0146105bf57806342842e0e146105df578063429c3edf146105ff57600080fd5b806323b872dd1461052c578063266c79ef1461054c5780632756985c1461056c57600080fd5b8063081812fc1161030d57806310f7e4ed116102e757806310f7e4ed1461048657806316807e151461048e57806318160ddd146104ae5780631cf95ed6146104d757600080fd5b8063081812fc146104195780630895ba5314610451578063095ea7b31461046657600080fd5b80620a51801461035457806301ffc9a71461037d5780630251b7d2146103ad5780630619f932146103b757806306fdde03146103d7578063073077ec146103f9575b600080fd5b34801561036057600080fd5b5061036a60095481565b6040519081526020015b60405180910390f35b34801561038957600080fd5b5061039d610398366004613e60565b610a86565b6040519015158152602001610374565b6103b5610ad8565b005b3480156103c357600080fd5b506103b56103d2366004613e7d565b610b62565b3480156103e357600080fd5b506103ec610f63565b6040516103749190613eee565b34801561040557600080fd5b506103b5610414366004613f26565b610ff5565b34801561042557600080fd5b50610439610434366004613e7d565b61132d565b6040516001600160a01b039091168152602001610374565b34801561045d57600080fd5b5061036a603c81565b34801561047257600080fd5b506103b5610481366004613f79565b6113b5565b6103b56114c6565b34801561049a57600080fd5b5061036a6104a9366004613e7d565b611735565b3480156104ba57600080fd5b506104c461271081565b60405161ffff9091168152602001610374565b3480156104e357600080fd5b506104f76104f2366004613e7d565b61177d565b604080519788526020880196909652948601939093526060850191909152608084015260a083015260c082015260e001610374565b34801561053857600080fd5b506103b5610547366004613fa3565b6117c1565b34801561055857600080fd5b5061036a610567366004613e7d565b6117f2565b34801561057857600080fd5b5061039d610587366004613e7d565b6118bc565b34801561059857600080fd5b506006546105ad90600160a01b900460ff1681565b60405160ff9091168152602001610374565b3480156105cb57600080fd5b50600d54610439906001600160a01b031681565b3480156105eb57600080fd5b506103b56105fa366004613fa3565b611a38565b34801561060b57600080fd5b506103b561061a366004613fdf565b611a53565b34801561062b57600080fd5b5061063f61063a366004613e7d565b611e6f565b604080519687526020870195909552921515938501939093526060840152608083019190915260a082015260c001610374565b34801561067e57600080fd5b506103ec611f9d565b34801561069357600080fd5b506106a76106a2366004613e7d565b611fb9565b60408051928352602083019190915201610374565b3480156106c857600080fd5b506104396106d7366004613e7d565b61204a565b3480156106e857600080fd5b506006546105ad90600160b81b900460ff1681565b34801561070957600080fd5b5061036a610718366004614002565b6120c1565b34801561072957600080fd5b506103b5612148565b34801561073e57600080fd5b50600c54610439906001600160a01b031681565b34801561075e57600080fd5b5061036a61076d366004613e7d565b60009081526201117f602052604090205490565b34801561078d57600080fd5b5061036a600a5481565b3480156107a357600080fd5b506107ac61217e565b604051610374919061401d565b3480156107c557600080fd5b506103b56107d436600461404e565b6122f3565b3480156107e557600080fd5b506006546001600160a01b0316610439565b34801561080357600080fd5b5061039d6126c2565b34801561081857600080fd5b50600b54610439906001600160a01b031681565b34801561083857600080fd5b506103ec612992565b34801561084d57600080fd5b506103b561085c366004614081565b6129a1565b34801561086d57600080fd5b506103b561087c3660046140ce565b6129ac565b34801561088d57600080fd5b5061036a60075481565b3480156108a357600080fd5b5061036a6108b2366004613e7d565b6129e4565b3480156108c357600080fd5b506108d76108d2366004614002565b612a02565b60405161037491906141aa565b3480156108f057600080fd5b506006546105ad90600160a81b900460ff1681565b34801561091157600080fd5b506103ec610920366004613e7d565b612a70565b34801561093157600080fd5b506006546105ad90600160b01b900460ff1681565b34801561095257600080fd5b50620111805461036a565b4761036a565b34801561096f57600080fd5b506108d761097e366004614002565b612b2a565b34801561098f57600080fd5b5061039d61099e3660046141ee565b6001600160a01b03918216600090815260056020908152604080832093909416825291909152205460ff1690565b3480156109d857600080fd5b5061036a60085481565b3480156109ee57600080fd5b5061036a6109fd366004613f79565b612c55565b348015610a0e57600080fd5b5061036a610a1d366004614002565b612c88565b348015610a2e57600080fd5b506103b5610a3d366004614002565b612e4f565b348015610a4e57600080fd5b5061036a610a5d366004613e7d565b6201117f6020526000908152604090205481565b348015610a7d57600080fd5b506107ac612eea565b60006001600160e01b031982166380ac58cd60e01b1480610ab757506001600160e01b03198216635b5e139f60e01b145b80610ad257506301ffc9a760e01b6001600160e01b03198316145b92915050565b6006546001600160a01b03163314610b0b5760405162461bcd60e51b8152600401610b0290614218565b60405180910390fd5b4760005b612710811015610b5e576000610b248261204a565b9050600083610b3284612ffb565b610b3c9190614263565b9050610b49308383613023565b50508080610b5690614282565b915050610b0f565b5050565b6000610b6d336120c1565b11610bd55760405162461bcd60e51b815260206004820152603260248201527f746f2075736520746869732066756e6374696f6e20796f75206e6565642061206044820152717469746c652120676f20627579206f6e652160701b6064820152608401610b02565b33610bdf8261204a565b6001600160a01b031614610c525760405162461bcd60e51b815260206004820152603460248201527f736f7272792c206f6e6c7920746865206f776e6572206f662061207469746c656044820152732063616e2061747461636b2068697320626f737360601b6064820152608401610b02565b6000604051806101600160405280600015158152602001838152602001610c78846129e4565b8152602001610c896106d7856129e4565b6001600160a01b03168152602001600081526020016000815260200160001515815260200160008152602001600081526020016000815260200160008152509050336001600160a01b031681606001516001600160a01b03161415610d305760405162461bcd60e51b815260206004820152601e60248201527f626f792c20646f6e27742061747461636b20796f757273656c6620706c7a00006044820152606401610b02565b610d3982611e6f565b5050610120850152151560c08401525060e08201526040810151610d5c90611e6f565b506101408601819052610100860184905260009450600a93909250610d839150600f614263565b610d8d9190614263565b610d9791906142b3565b905060008261012001518360e00151610db09190614263565b90506000610dbc6131bf565b9050600080610dcb8486613223565b915091506003821115610df35761010086015160a08701526000608087015260018652610ea5565b6002821115610e475761010086015160a08701526001865260e0860151610e1c90600a906142b3565b6080870152605a831115610e42576002866101000151610e3c91906142b3565b60a08701525b610ea5565b600182118015610e575750600581115b15610e925760018652610100860151610e72906002906142b3565b60a087015260e0860151610e88906002906142b3565b6080870152610ea5565b6000865260a08601839052608086018390525b7fe1f1c5edc3d4d1e770d4de5770da4dd058cc5e6a71a2830d5743e8062cd8fa093387606001518989604001518a60e001518b61010001518c608001518d60a001518e60000151604051610f49999897969594939291906001600160a01b03998a16815297909816602088015260408701959095526060860193909352608085019190915260a084015260c083015260e08201529015156101008201526101200190565b60405180910390a1610f5a8661324f565b50505050505050565b606060008054610f72906142c7565b80601f0160208091040260200160405190810160405280929190818152602001828054610f9e906142c7565b8015610feb5780601f10610fc057610100808354040283529160200191610feb565b820191906000526020600020905b815481529060010190602001808311610fce57829003601f168201915b5050505050905090565b6110048263ffffffff166134f3565b61104c5760405162461bcd60e51b81526020600482015260196024820152781d1a5d1b19480a1d1bdad95b8a481b9bdb995e1a5cdd195b9d603a1b6044820152606401610b02565b3361105c63ffffffff841661204a565b6001600160a01b0316146110e75760405162461bcd60e51b815260206004820152604660248201527f796f752063616e206e6f74207769746864726177204d696c697461727920667260448201527f6f6d2061207469746c65207468617420646f6573206e6f742062656c6f6e6720606482015265746f20796f7560d01b608482015260a401610b02565b60ff811615806110fa57508060ff166001145b6111165760405162461bcd60e51b8152600401610b02906142fc565b60ff811661121d5782600f8363ffffffff1661271081106111395761113961434e565b6007020154101561115c5760405162461bcd60e51b8152600401610b0290614364565b600c546040516323b872dd60e01b81526001600160a01b03909116906323b872dd90611190903090339088906004016143aa565b602060405180830381600087803b1580156111aa57600080fd5b505af11580156111be573d6000803e3d6000fd5b505050506040513d601f19601f820116820180604052508101906111e291906143ce565b5082600f8363ffffffff1661271081106111fe576111fe61434e565b6007020180546000906112129084906143eb565b909155506113289050565b8060ff16600114156113285782600f8363ffffffff1661271081106112445761124461434e565b6007020160010154101561126a5760405162461bcd60e51b8152600401610b0290614402565b600d546040516323b872dd60e01b81526001600160a01b03909116906323b872dd9061129e903090339088906004016143aa565b602060405180830381600087803b1580156112b857600080fd5b505af11580156112cc573d6000803e3d6000fd5b505050506040513d601f19601f820116820180604052508101906112f091906143ce565b5082600f8363ffffffff16612710811061130c5761130c61434e565b60070201600101600082825461132291906143eb565b90915550505b505050565b6000611338826134f3565b6113995760405162461bcd60e51b815260206004820152602c60248201527f4552433732313a20617070726f76656420717565727920666f72206e6f6e657860448201526b34b9ba32b73a103a37b5b2b760a11b6064820152608401610b02565b506000908152600460205260409020546001600160a01b031690565b60006113c08261204a565b9050806001600160a01b0316836001600160a01b0316141561142e5760405162461bcd60e51b815260206004820152602160248201527f4552433732313a20617070726f76616c20746f2063757272656e74206f776e656044820152603960f91b6064820152608401610b02565b336001600160a01b038216148061144a575061144a813361099e565b6114bc5760405162461bcd60e51b815260206004820152603860248201527f4552433732313a20617070726f76652063616c6c6572206973206e6f74206f7760448201527f6e6572206e6f7220617070726f76656420666f7220616c6c00000000000000006064820152608401610b02565b6113288383613510565b600b546040516370a0823160e01b81523060048201526000916001600160a01b0316906370a082319060240160206040518083038186803b15801561150a57600080fd5b505afa15801561151e573d6000803e3d6000fd5b505050506040513d601f19601f820116820180604052508101906115429190614449565b1161154c57600080fd5b600034116115b55760405162461bcd60e51b815260206004820152603060248201527f796f75206861766520746f2073656e6420736f6d652045544820746f2067657460448201526f1025b4b733b237b6a9b2b2b231b7b4b760811b6064820152608401610b02565b600b546040516370a0823160e01b81523060048201526000916001600160a01b0316906370a082319060240160206040518083038186803b1580156115f957600080fd5b505afa15801561160d573d6000803e3d6000fd5b505050506040513d601f19601f820116820180604052508101906116319190614449565b116116965760405162461bcd60e51b815260206004820152602f60248201527f75686f682c2073727920692063616e27742073656e6420616e79206d6f72652060448201526e25b4b733b237b6a9b2b2b231b7b4b760891b6064820152608401610b02565b6006546000906116b090600160a01b900460ff1634614263565b600b5460405163a9059cbb60e01b8152336004820152602481018390529192506001600160a01b03169063a9059cbb90604401602060405180830381600087803b1580156116fd57600080fd5b505af1158015611711573d6000803e3d6000fd5b505050506040513d601f19601f82011682018060405250810190610b5e91906143ce565b6000805b62011180548110156117775760008181526201117f602052604090205483141561176557809150611777565b8061176f81614282565b915050611739565b50919050565b600f81612710811061178e57600080fd5b60070201805460018201546002830154600384015460048501546005860154600690960154949650929491939092919087565b6117cb338261357e565b6117e75760405162461bcd60e51b8152600401610b0290614462565b611328838383613023565b600080611800620111805490565b90508260001080156118125750808311155b6118575760405162461bcd60e51b81526020600482015260166024820152751a59081a5cc81b9bdd081e595d08185cdcda59db995960521b6044820152606401610b02565b60008381526201117f6020526040902054600181141561187a57600092506118b5565b6118856002856144b3565b61189b576118946002826142b3565b92506118b5565b60026118a86001836143eb565b6118b291906142b3565b92505b5050919050565b6006546000906001600160a01b031633146118e95760405162461bcd60e51b8152600401610b0290614218565b60006118f48361204a565b9050611901813085613023565b611a0a60005b6001600160a01b0383166000908152620111816020526040902054811015611983576001600160a01b038316600090815262011181602052604090208054869190839081106119585761195861434e565b9060005260206000200154141561197157809150611983565b8061197b81614282565b915050611907565b5080611a0a14156119f55760405162461bcd60e51b815260206004820152603660248201527f72657665727365206974656d2066756e6374696f6e2e2e2e206974656d206e6f6044820152757420666f756e6420696e20616464726573733269647360501b6064820152608401610b02565b6001600160a01b03821660009081526201118160205260409020805482908110611a2157611a2161434e565b60009182526020822001555060019150505b919050565b611328838383604051806020016040528060008152506129ac565b600c546040516370a0823160e01b81523060048201526000916001600160a01b0316906370a082319060240160206040518083038186803b158015611a9757600080fd5b505afa158015611aab573d6000803e3d6000fd5b505050506040513d601f19601f82011682018060405250810190611acf9190614449565b11611ad957600080fd5b600d546040516370a0823160e01b81523060048201526000916001600160a01b0316906370a082319060240160206040518083038186803b158015611b1d57600080fd5b505afa158015611b31573d6000803e3d6000fd5b505050506040513d601f19601f82011682018060405250810190611b559190614449565b11611b5f57600080fd5b600b546040516370a0823160e01b81523360048201526000916001600160a01b0316906370a082319060240160206040518083038186803b158015611ba357600080fd5b505afa158015611bb7573d6000803e3d6000fd5b505050506040513d601f19601f82011682018060405250810190611bdb9190614449565b9050828110158015611bed5750600083115b611c545760405162461bcd60e51b815260206004820152603260248201527f796f7520646f6e2774206861766520656e6f7567682073656564636f696e732160448201527120627579206f7220747261646520736f6d6560701b6064820152608401610b02565b60ff82161580611c6757508160ff166001145b611cce5760405162461bcd60e51b815260206004820152603260248201527f746172676574436f696e2068617320746f20626520303d61747461636b636f69604482015271371037b910189eb232b332b739b2b1b7b4b760711b6064820152608401610b02565b60ff8216611d105760405183815233907f44d00596aedd88fca0607c9a84113fd638c9a070d5ef8d77c072080b688d8e349060200160405180910390a2611d52565b8160ff1660011415611d525760405183815233907f049b4d6e22c9904766197183f9dc1f362cefb04f39e3850a8b7d83ff2c26216f9060200160405180910390a25b600b546040516323b872dd60e01b81526001600160a01b03909116906323b872dd90611d86903390309088906004016143aa565b602060405180830381600087803b158015611da057600080fd5b505af1158015611db4573d6000803e3d6000fd5b505050506040513d601f19601f82011682018060405250810190611dd891906143ce565b50600e6000336001600160a01b03166001600160a01b0316815260200190815260200160002060405180606001604052808581526020018460ff16815260200160075442611e2691906144c7565b90528154600180820184556000938452602093849020835160039093020191825592820151928101805460ff191660ff9094169390931790925560400151600290910155505050565b600080600080600080611e83620111805490565b871115611ee05760405162461bcd60e51b815260206004820152602560248201527f7469746c65206964206e6f74207965742061737369676e65642c20676f20676560448201526474206f6e6560d81b6064820152608401610b02565b600f876127108110611ef457611ef461434e565b60070201549550600f876127108110611f0f57611f0f61434e565b6007020160010154945042600f886127108110611f2e57611f2e61434e565b600702016002015410159350600f876127108110611f4e57611f4e61434e565b60070201600401549250600f876127108110611f6c57611f6c61434e565b60070201600501549150600f876127108110611f8a57611f8a61434e565b6007020160060154905091939550919395565b6040518060600160405280602581526020016145e06025913981565b6000806000611fc9620111805490565b9050808411156120145760405162461bcd60e51b81526020600482015260166024820152751a59081a5cc81b9bdd081e595d08185cdcda59db995960521b6044820152606401610b02565b61201d84613668565b925061202884613675565b91508083111561203757600092505b8082111561204457600091505b50915091565b6000818152600260205260408120546001600160a01b031680610ad25760405162461bcd60e51b815260206004820152602960248201527f4552433732313a206f776e657220717565727920666f72206e6f6e657869737460448201526832b73a103a37b5b2b760b91b6064820152608401610b02565b60006001600160a01b03821661212c5760405162461bcd60e51b815260206004820152602a60248201527f4552433732313a2062616c616e636520717565727920666f7220746865207a65604482015269726f206164647265737360b01b6064820152608401610b02565b506001600160a01b031660009081526003602052604090205490565b6006546001600160a01b031633146121725760405162461bcd60e51b8152600401610b0290614218565b61217c600061368b565b565b612186613e2c565b60405180606001604052806298967f81526020016298967f81526020016000815250905060005b336000908152600e60205260409020548110156122ef57336000908152600e602052604081208054839081106121e5576121e561434e565b600091825260209182902060408051606081018252600390930290910180548352600181015460ff1693830193909352600290920154918101829052915061222d57506122dd565b6040830180519061223d82614282565b905250602081015160ff1661229057428160400151111561228757600042826040015161226a91906143eb565b845190915081101561228157808460005b60200201525b506122db565b600083526122db565b806020015160ff16600114156122db5742816040015111156122d35760004282604001516122be91906143eb565b8451909150811015612281578084600161227b565b600060208401525b505b806122e781614282565b9150506121ad565b5090565b6123028263ffffffff166134f3565b61234a5760405162461bcd60e51b81526020600482015260196024820152781d1a5d1b19480a1d1bdad95b8a481b9bdb995e1a5cdd195b9d603a1b6044820152606401610b02565b600083116123a55760405162461bcd60e51b815260206004820152602260248201527f796f75206e65656420746f2061737369676e206174206c65617374203120636f60448201526134b760f11b6064820152608401610b02565b8015806123b25750806001145b6123ce5760405162461bcd60e51b8152600401610b02906142fc565b8061252d57600c546040516370a0823160e01b815233600482015284916001600160a01b0316906370a082319060240160206040518083038186803b15801561241657600080fd5b505afa15801561242a573d6000803e3d6000fd5b505050506040513d601f19601f8201168201806040525081019061244e9190614449565b101561246c5760405162461bcd60e51b8152600401610b0290614364565b600c546040516323b872dd60e01b81526001600160a01b03909116906323b872dd906124a0903390309088906004016143aa565b602060405180830381600087803b1580156124ba57600080fd5b505af11580156124ce573d6000803e3d6000fd5b505050506040513d601f19601f820116820180604052508101906124f291906143ce565b5082600f8363ffffffff16612710811061250e5761250e61434e565b6007020180546000906125229084906144c7565b9091555061268d9050565b806001141561268d57600d546040516370a0823160e01b815233600482015284916001600160a01b0316906370a082319060240160206040518083038186803b15801561257957600080fd5b505afa15801561258d573d6000803e3d6000fd5b505050506040513d601f19601f820116820180604052508101906125b19190614449565b10156125cf5760405162461bcd60e51b8152600401610b0290614402565b600d546040516323b872dd60e01b81526001600160a01b03909116906323b872dd90612603903390309088906004016143aa565b602060405180830381600087803b15801561261d57600080fd5b505af1158015612631573d6000803e3d6000fd5b505050506040513d601f19601f8201168201806040525081019061265591906143ce565b5082600f8363ffffffff1661271081106126715761267161434e565b60070201600101600082825461268791906144c7565b90915550505b612698603c426144c7565b600f8363ffffffff1661271081106126b2576126b261434e565b6007020160030181905550505050565b6000805b336000908152600e60205260409020548110156122ef57336000908152600e602052604081208054839081106126fe576126fe61434e565b600091825260209182902060408051606081018252600390930290910180548352600181015460ff1693830193909352600290920154918101829052915042111561297f57602081015160ff1661283b57600654815160009161276c91600160a81b90910460ff16906142b3565b905061277b82600001516136dd565b600c5460405163a9059cbb60e01b8152336004820152602481018390526001600160a01b039091169063a9059cbb90604401602060405180830381600087803b1580156127c757600080fd5b505af11580156127db573d6000803e3d6000fd5b505050506040513d601f19601f820116820180604052508101906127ff91906143ce565b5060405181815233907f9fd4a9248425079a398923cd20daa8e0c103907fb89db4707cb4f2cc343f95469060200160405180910390a250612933565b806020015160ff166001141561293357600654815160009161286891600160b01b90910460ff16906142b3565b905061287782600001516136dd565b600d5460405163a9059cbb60e01b8152336004820152602481018390526001600160a01b039091169063a9059cbb90604401602060405180830381600087803b1580156128c357600080fd5b505af11580156128d7573d6000803e3d6000fd5b505050506040513d601f19601f820116820180604052508101906128fb91906143ce565b5060405181815233907fd62aeb2df4f1c7a0c59e15c0dca22ccbcbe42ad0d0dbf99a22c0ad2551c5a1559060200160405180910390a2505b336000908152600e602052604090208054839081106129545761295461434e565b6000918252602082206003909102018181556001808201805460ff1916905560029091019190915592505b508061298a81614282565b9150506126c6565b606060018054610f72906142c7565b610b5e3383836137d3565b6129b6338361357e565b6129d25760405162461bcd60e51b8152600401610b0290614462565b6129de848484846138a2565b50505050565b6000806129f0836117f2565b90506129fb81611735565b9392505050565b6001600160a01b0381166000908152620111816020908152604091829020805483518184028101840190945280845260609392830182828015612a6457602002820191906000526020600020905b815481526020019060010190808311612a50575b50505050509050919050565b6060612a7b826134f3565b612ae15760405162461bcd60e51b815260206004820152603160248201527f45524337323155524953746f726167653a2055524920717565727920666f72206044820152703737b732bc34b9ba32b73a103a37b5b2b760791b6064820152608401610b02565b6040518060600160405280602581526020016145e060259139612b03836138d5565b604051602001612b149291906144df565b6040516020818303038152906040529050919050565b6001600160a01b03811660009081526201118160209081526040808320805482518185028101850190935280835260609493830182828015612b8b57602002820191906000526020600020905b815481526020019060010190808311612b77575b505050505090506000815167ffffffffffffffff811115612bae57612bae6140b8565b604051908082528060200260200182016040528015612bd7578160200160208202803683370190505b50905081516000146129fb5760005b8251811015612c4d576201117f6000848381518110612c0757612c0761434e565b6020026020010151815260200190815260200160002054828281518110612c3057612c3061434e565b602090810291909101015280612c4581614282565b915050612be6565b509392505050565b620111816020528160005260406000208181548110612c7357600080fd5b90600052602060002001600091509150505481565b6006546000906001600160a01b03163314612cb55760405162461bcd60e51b8152600401610b0290614218565b620111805461271011612d145760405162461bcd60e51b815260206004820152602160248201527f75686f682c206e6f207469746c657320617661696c61626c6520616e796d6f726044820152606560f81b6064820152608401610b02565b600062011180546001612d2791906144c7565b9050612d3383826139fe565b6001600160a01b038316600090815262011181602090815260408083208054600181018255908452828420018490558383526201117f90915281208290558080612d7c84613a18565b9250925092506040518060e001604052806000815260200160008152602001603c42612da891906144c7565b8152602001612db8603c426144c7565b815260200184815260200183815260200182815250600f856127108110612de157612de161434e565b8251600791909102919091019081556020820151600182015560408201516002820155606082015160038201556080820151600482015560a0820151600582015560c090910151600690910155620111808054906000612e4083614282565b90915550939695505050505050565b6006546001600160a01b03163314612e795760405162461bcd60e51b8152600401610b0290614218565b6001600160a01b038116612ede5760405162461bcd60e51b815260206004820152602660248201527f4f776e61626c653a206e6577206f776e657220697320746865207a65726f206160448201526564647265737360d01b6064820152608401610b02565b612ee78161368b565b50565b612ef2613e2c565b6000806000805b336000908152600e6020526040902054811015612fdc57336000908152600e60205260408120805483908110612f3157612f3161434e565b600091825260209182902060408051606081018252600390930290910180548352600181015460ff16938301939093526002909201549181018290529150612f795750612fca565b82612f8381614282565b935050806020015160ff1660001415612fa9578051612fa290866144c7565b9450612fc8565b806020015160ff1660011415612fc8578051612fc590856144c7565b93505b505b80612fd481614282565b915050612ef9565b5060408051606081018252938452602084019290925290820152919050565b600063017d784061300d6002846142b3565b613019906113886143eb565b610ad291906142b3565b826001600160a01b03166130368261204a565b6001600160a01b03161461309a5760405162461bcd60e51b815260206004820152602560248201527f4552433732313a207472616e736665722066726f6d20696e636f72726563742060448201526437bbb732b960d91b6064820152608401610b02565b6001600160a01b0382166130fc5760405162461bcd60e51b8152602060048201526024808201527f4552433732313a207472616e7366657220746f20746865207a65726f206164646044820152637265737360e01b6064820152608401610b02565b613107600082613510565b6001600160a01b03831660009081526003602052604081208054600192906131309084906143eb565b90915550506001600160a01b038216600090815260036020526040812080546001929061315e9084906144c7565b909155505060008181526002602052604080822080546001600160a01b0319166001600160a01b0386811691821790925591518493918716917fddf252ad1be2c89b69c2b068fc378daa952ba7f163c4a11628f55a4df523b3ef91a4505050565b60008060644462011182546040516020016131e4929190918252602082015260400190565b6040516020818303038152906040528051906020012060001c61320791906144b3565b905080620111825461321991906144c7565b6201118255919050565b60008061323083856142b3565b915061323c8284614263565b61324690856143eb565b90509250929050565b8060800151600f8260200151612710811061326c5761326c61434e565b60070201541161329a576000600f826020015161271081106132905761329061434e565b60070201556132d1565b8060800151600f826020015161271081106132b7576132b761434e565b6007020180546000906132cb9084906143eb565b90915550505b6000600f826020015161271081106132eb576132eb61434e565b600702015410156133495760405162461bcd60e51b815260206004820152602260248201527f75686f682c207468652061747461636b706f696e747320617265207a65726f2e604482015261171760f11b6064820152608401610b02565b8060a00151600f826040015161271081106133665761336661434e565b60070201600101541161339d576000600f8260400151612710811061338d5761338d61434e565b60070201600101819055506133d6565b8060a00151600f826040015161271081106133ba576133ba61434e565b6007020160010160008282546133d091906143eb565b90915550505b6000600f826040015161271081106133f0576133f061434e565b600702016001015410156134525760405162461bcd60e51b815260206004820152602360248201527f75686f682c2074686520646566656e7365706f696e747320617265207a65726f60448201526217171760e91b6064820152608401610b02565b805115612ee7576040818101805160009081526201117f602090815283822054818601805184528584205494518452858420949094558351835284832081905560608087015194518452928590205485513381526001600160a01b0390951692850192909252938301849052908201527f613181c93c2a39a642abf3636c19505e28200a1a2e1ab682c50373f15308df629060800160405180910390a15050565b6000908152600260205260409020546001600160a01b0316151590565b600081815260046020526040902080546001600160a01b0319166001600160a01b03841690811790915581906135458261204a565b6001600160a01b03167f8c5be1e5ebec7d5bd14f71427d1e84f3dd0314c0f7b2291e5b200ac8c7c3b92560405160405180910390a45050565b6000613589826134f3565b6135ea5760405162461bcd60e51b815260206004820152602c60248201527f4552433732313a206f70657261746f7220717565727920666f72206e6f6e657860448201526b34b9ba32b73a103a37b5b2b760a11b6064820152608401610b02565b60006135f58361204a565b9050806001600160a01b0316846001600160a01b0316148061363c57506001600160a01b0380821660009081526005602090815260408083209388168352929052205460ff165b806136605750836001600160a01b03166136558461132d565b6001600160a01b0316145b949350505050565b6000610ad2826002614263565b600061368082613668565b610ad29060016144c7565b600680546001600160a01b038381166001600160a01b0319831681179093556040519116919082907f8be0079c531659141344cd1fd0a4f28419497f9722a3daafe3b4186f6b6457e090600090a35050565b6006546000906064906136fa90600160b81b900460ff1684614263565b61370491906142b3565b61370e90836143eb565b600b5460405163a9059cbb60e01b8152336004820152602481018390529192506001600160a01b03169063a9059cbb90604401602060405180830381600087803b15801561375b57600080fd5b505af115801561376f573d6000803e3d6000fd5b505050506040513d601f19601f8201168201806040525081019061379391906143ce565b50604080518281526020810184905233917f11acec8ea502f5c875e157dd1a17389990a9350450464db61ef112521c0d8751910160405180910390a25050565b816001600160a01b0316836001600160a01b031614156138355760405162461bcd60e51b815260206004820152601960248201527f4552433732313a20617070726f766520746f2063616c6c6572000000000000006044820152606401610b02565b6001600160a01b03838116600081815260056020908152604080832094871680845294825291829020805460ff191686151590811790915591519182527f17307eab39ab6107e8899845ad3d59bd9653f200f220920489ca2b5937696c31910160405180910390a3505050565b6138ad848484613023565b6138b984848484613bb9565b6129de5760405162461bcd60e51b8152600401610b029061450e565b6060816138f95750506040805180820190915260018152600360fc1b602082015290565b8160005b8115613923578061390d81614282565b915061391c9050600a836142b3565b91506138fd565b60008167ffffffffffffffff81111561393e5761393e6140b8565b6040519080825280601f01601f191660200182016040528015613968576020820181803683370190505b509050815b85156139f55761397e6001826143eb565b9050600061398d600a886142b3565b61399890600a614263565b6139a290886143eb565b6139ad906030614560565b905060008160f81b9050808484815181106139ca576139ca61434e565b60200101906001600160f81b031916908160001a9053506139ec600a896142b3565b9750505061396d565b50949350505050565b610b5e828260405180602001604052806000815250613cc6565b60008080806064613a2b8661013a6144c7565b613a3591906144b3565b905060006064613a468760486144c7565b613a5091906144b3565b905060006064613a62886199826144c7565b613a6c91906144b3565b9050600a9550600a9450600a9350605f8310613aa957613a8d605f846143eb565b613a98906006614263565b613aa290876144c7565b9550613af6565b60508310613ac7576050613abd84886144c7565b613aa291906143eb565b82601411158015613ad85750601e83105b15613af657600f613ae984886144c7565b613af391906143eb565b95505b605f8210613b2557613b09605f836143eb565b613b14906006614263565b613b1e90866144c7565b9450613b72565b60508310613b43576050613b3983876144c7565b613b1e91906143eb565b81600a11158015613b545750601e82105b15613b72576005613b6583876144c7565b613b6f91906143eb565b94505b60508110613b97576050613b8682866144c7565b613b9091906143eb565b9350613baf565b613ba2600a826142b3565b613bac90856144c7565b93505b5050509193909250565b60006001600160a01b0384163b15613cbb57604051630a85bd0160e11b81526001600160a01b0385169063150b7a0290613bfd903390899088908890600401614585565b602060405180830381600087803b158015613c1757600080fd5b505af1925050508015613c47575060408051601f3d908101601f19168201909252613c44918101906145c2565b60015b613ca1573d808015613c75576040519150601f19603f3d011682016040523d82523d6000602084013e613c7a565b606091505b508051613c995760405162461bcd60e51b8152600401610b029061450e565b805181602001fd5b6001600160e01b031916630a85bd0160e11b149050613660565b506001949350505050565b613cd08383613cf9565b613cdd6000848484613bb9565b6113285760405162461bcd60e51b8152600401610b029061450e565b6001600160a01b038216613d4f5760405162461bcd60e51b815260206004820181905260248201527f4552433732313a206d696e7420746f20746865207a65726f20616464726573736044820152606401610b02565b613d58816134f3565b15613da55760405162461bcd60e51b815260206004820152601c60248201527f4552433732313a20746f6b656e20616c7265616479206d696e746564000000006044820152606401610b02565b6001600160a01b0382166000908152600360205260408120805460019290613dce9084906144c7565b909155505060008181526002602052604080822080546001600160a01b0319166001600160a01b03861690811790915590518392907fddf252ad1be2c89b69c2b068fc378daa952ba7f163c4a11628f55a4df523b3ef908290a45050565b60405180606001604052806003906020820280368337509192915050565b6001600160e01b031981168114612ee757600080fd5b600060208284031215613e7257600080fd5b81356129fb81613e4a565b600060208284031215613e8f57600080fd5b5035919050565b60005b83811015613eb1578181015183820152602001613e99565b838111156129de5750506000910152565b60008151808452613eda816020860160208601613e96565b601f01601f19169290920160200192915050565b6020815260006129fb6020830184613ec2565b803563ffffffff81168114611a3357600080fd5b803560ff81168114611a3357600080fd5b600080600060608486031215613f3b57600080fd5b83359250613f4b60208501613f01565b9150613f5960408501613f15565b90509250925092565b80356001600160a01b0381168114611a3357600080fd5b60008060408385031215613f8c57600080fd5b613f9583613f62565b946020939093013593505050565b600080600060608486031215613fb857600080fd5b613fc184613f62565b9250613fcf60208501613f62565b9150604084013590509250925092565b60008060408385031215613ff257600080fd5b8235915061324660208401613f15565b60006020828403121561401457600080fd5b6129fb82613f62565b60608101818360005b6003811015614045578151835260209283019290910190600101614026565b50505092915050565b60008060006060848603121561406357600080fd5b83359250613fcf60208501613f01565b8015158114612ee757600080fd5b6000806040838503121561409457600080fd5b61409d83613f62565b915060208301356140ad81614073565b809150509250929050565b634e487b7160e01b600052604160045260246000fd5b600080600080608085870312156140e457600080fd5b6140ed85613f62565b93506140fb60208601613f62565b925060408501359150606085013567ffffffffffffffff8082111561411f57600080fd5b818701915087601f83011261413357600080fd5b813581811115614145576141456140b8565b604051601f8201601f19908116603f0116810190838211818310171561416d5761416d6140b8565b816040528281528a602084870101111561418657600080fd5b82602086016020830137600060208483010152809550505050505092959194509250565b6020808252825182820181905260009190848201906040850190845b818110156141e2578351835292840192918401916001016141c6565b50909695505050505050565b6000806040838503121561420157600080fd5b61420a83613f62565b915061324660208401613f62565b6020808252818101527f4f776e61626c653a2063616c6c6572206973206e6f7420746865206f776e6572604082015260600190565b634e487b7160e01b600052601160045260246000fd5b600081600019048311821515161561427d5761427d61424d565b500290565b60006000198214156142965761429661424d565b5060010190565b634e487b7160e01b600052601260045260246000fd5b6000826142c2576142c261429d565b500490565b600181811c908216806142db57607f821691505b6020821081141561177757634e487b7160e01b600052602260045260246000fd5b60208082526032908201527f6f7468657220636f696e207479706573206e6f7420737570706f72746564207960408201527165742c206d7573742062652030206f72203160701b606082015260800190565b634e487b7160e01b600052603260045260246000fd5b60208082526026908201527f796f7520646f206e6f7420686176652074686174206d616e792061747461636b60408201526520636f696e7360d01b606082015260800190565b6001600160a01b039384168152919092166020820152604081019190915260600190565b6000602082840312156143e057600080fd5b81516129fb81614073565b6000828210156143fd576143fd61424d565b500390565b60208082526027908201527f796f7520646f206e6f7420686176652074686174206d616e7920646566656e736040820152666520636f696e7360c81b606082015260800190565b60006020828403121561445b57600080fd5b5051919050565b60208082526031908201527f4552433732313a207472616e736665722063616c6c6572206973206e6f74206f6040820152701ddb995c881b9bdc88185c1c1c9bdd9959607a1b606082015260800190565b6000826144c2576144c261429d565b500690565b600082198211156144da576144da61424d565b500190565b600083516144f1818460208801613e96565b835190830190614505818360208801613e96565b01949350505050565b60208082526032908201527f4552433732313a207472616e7366657220746f206e6f6e20455243373231526560408201527131b2b4bb32b91034b6b83632b6b2b73a32b960711b606082015260800190565b600060ff821660ff84168060ff0382111561457d5761457d61424d565b019392505050565b6001600160a01b03858116825284166020820152604081018390526080606082018190526000906145b890830184613ec2565b9695505050505050565b6000602082840312156145d457600080fd5b81516129fb81613e4a56fe68747470733a2f2f7777772e6b696e67646f6d63727970746f2e636f6d2f7469746c65732fa264697066735822122017ec57b03c9e29db9b338d0528db40996b205e9093b642b3b30d54fa5fa222ac64736f6c63430008090033",
  "immutableReferences": {},
  "source": "pragma solidity ^0.8;\r\n\r\nimport \"./KingdomTitles.sol\";\r\n\r\ncontract KingdomGameMechanic is KingdomTitles {\r\n\r\n    uint private nowStore;\r\n\r\n    event Log(uint error);\r\n\r\n    constructor (KingdomSeedCoin _kgdsc, KingdomAttackCoin _kgdat, KingdomDefenseCoin _kgddf) KingdomTitles(_kgdsc, _kgdat, _kgddf) {\r\n        nowStore = block.timestamp;\r\n    }\r\n\r\n    event Attack(address attacker, address defender, \r\n                uint attacker_id, uint defender_id, \r\n                uint attackPointsBefore, uint defensePointsBefore,\r\n                uint deadAttackers, uint deadDefenders,\r\n                bool won);\r\n\r\n    event Sacked(address attacker, address defender, \r\n                uint new_attacker_id, uint new_defender_id);\r\n\r\n    modifier hasTitle {\r\n        require(balanceOf(msg.sender) > 0, \"to use this function you need a title! go buy one!\");\r\n        _;\r\n    }\r\n\r\n    modifier contractNeedsTotalControl {\r\n        require(isApprovedForAll(msg.sender, address(this)), \"you need to call setApprovalForAll in order to play a game...\");\r\n        _;\r\n    }\r\n\r\n    struct AttackResult {\r\n        bool won;\r\n        uint titleId;\r\n        uint bossid;\r\n        address bossid_address;\r\n        uint deadAttackers;\r\n        uint deadDefenders;\r\n        bool ready4Attack;\r\n        uint attacker_Attackpoints;\r\n        uint defender_Defensepoints;\r\n        uint attacker_attackMultiplier;\r\n        uint defender_defenseMultiplier;\r\n    }\r\n\r\n    function _random() private returns (uint) {\r\n        // random number between 0 and 99\r\n        uint random = uint( uint(keccak256(abi.encodePacked(block.difficulty, nowStore))) % 100);\r\n        nowStore = uint(nowStore + random);\r\n        return random;\r\n    }\r\n\r\n\r\n\r\n    function _getLeftChild(uint id) internal pure returns (uint left) {\r\n        return id * 2;\r\n    }\r\n\r\n    function _getRightChild(uint id) internal pure returns (uint right) {\r\n        return _getLeftChild(id) + 1;\r\n    }\r\n\r\n    function getServants(uint id) public view returns (uint left, uint right) {\r\n        uint currentPos = currentPosition();\r\n        require(id <= currentPos, \"id is not yet assigned\");\r\n\r\n        // binary tree\r\n        left = _getLeftChild(id);\r\n        right = _getRightChild(id);\r\n\r\n        // check if they even exist yet\r\n        \r\n        if (left > currentPos) {\r\n            left = 0;\r\n        }\r\n        if (right > currentPos) {\r\n            right = 0;\r\n        }\r\n        return (left, right);\r\n    }\r\n\r\n    function getBossRank(uint id) public view returns (uint bossrank) {\r\n        uint currentPos = currentPosition();\r\n        require(0 < id && id <= currentPos, \"id is not yet assigned\");\r\n\r\n        // first we have to understand that its a binary tree, and only member 2,3 can attack 1\r\n        // additionally we can only attack a rank, not the id. eg rank and id can be different.\r\n        // meaning rank 2 can only attack 1, rank 4 & 5 can only attac rank 2\r\n        uint servantRank = getRankOfId(id);\r\n        // meaning player can only attack his boss\r\n\r\n        // remember binary tree\r\n        if (servantRank == 1) {\r\n            bossrank = 0;\r\n        }\r\n        else {\r\n            if (id % 2 == 0) {\r\n                // if even\r\n                bossrank = servantRank / 2;\r\n            }\r\n            else {\r\n                // if odd\r\n                bossrank = (servantRank - 1) / 2;\r\n            }\r\n        }\r\n        return bossrank;\r\n    }\r\n\r\n    function getBossId(uint playerId) public view returns (uint bossId) {\r\n        uint bossRank = getBossRank(playerId);\r\n        bossId = getIdOfRank(bossRank);\r\n        return bossId;\r\n    }\r\n\r\n    function getTitleStats(uint titleId) public view returns (uint attackPoints, uint defensePoints, bool ready4attack, uint attackMultiplier, uint defenseMultiplier, uint moneyMultiplier) {\r\n        require(titleId <= currentPosition(), \"title id not yet assigned, go get one\");\r\n        attackPoints = kingdomtitles[titleId].attackPoints;\r\n        defensePoints = kingdomtitles[titleId].defensePoints;\r\n        ready4attack = kingdomtitles[titleId].readyTimeAttack >= block.timestamp;\r\n        attackMultiplier = kingdomtitles[titleId].attackMultiplier;\r\n        defenseMultiplier = kingdomtitles[titleId].defenseMultiplier;\r\n        moneyMultiplier = kingdomtitles[titleId].moneyMultiplier;\r\n        return (attackPoints, defensePoints, ready4attack, attackMultiplier, defenseMultiplier, moneyMultiplier);\r\n    }\r\n\r\n    function assignMilitaryToTitle(uint nrCoins, uint32 titleId, uint coinType) public {\r\n        require(_exists(titleId), \"title (token) nonexistent\");\r\n        require(nrCoins > 0, \"you need to assign at least 1 coin\");\r\n        // needs an approve first!\r\n\r\n        // first checks\r\n        // title needs to be owned by sender -> actually allow this for guilds etc\r\n        // require(ownerOf(titleId) == msg.sender, \"you can not assign Military P\")\r\n        // check if sender has that amount\r\n        require(coinType == 0 || coinType == 1, \"other coin types not supported yet, must be 0 or 1\");\r\n        if (coinType == 0) {\r\n            // attack points\r\n            require(kgdat.balanceOf(msg.sender) >= nrCoins, \"you do not have that many attack coins\");\r\n            kgdat.transferFrom(msg.sender, address(this), nrCoins);\r\n            kingdomtitles[titleId].attackPoints += nrCoins;\r\n        }\r\n        else if (coinType == 1) {\r\n            // def coins\r\n            require(kgddf.balanceOf(msg.sender) >= nrCoins, \"you do not have that many defense coins\");\r\n            kgddf.transferFrom(msg.sender, address(this), nrCoins);\r\n            kingdomtitles[titleId].defensePoints += nrCoins;\r\n        }\r\n        // every deposit resets the readyTimeStake to now plus Cooldown\r\n        kingdomtitles[titleId].readyTimeStake = block.timestamp + readyTimeStakeCooldown;\r\n    }\r\n\r\n    function withdrawMilitaryFromTitle(uint nrCoins, uint32 titleId, uint8 coinType) public {\r\n        require(_exists(titleId), \"title (token) nonexistent\");\r\n        // make sure the title is owned by the sender\r\n        require(ownerOf(titleId) == msg.sender, \"you can not withdraw Military from a title that does not belong to you\");\r\n        // if nrCoins is zero, we will try to withdraw all\r\n        require(nrCoins >= 0, \"you need to withdraw a positive amount of coins\");\r\n        // needs an approve first!\r\n\r\n        require(coinType == 0 || coinType == 1, \"other coin types not supported yet, must be 0 or 1\");\r\n        if (coinType == 0) {\r\n            // attack points\r\n            require(kingdomtitles[titleId].attackPoints >= nrCoins, \"you do not have that many attack coins\");\r\n            // we can't run this classic transferFrom because it needs to be executed by the contract owner on a regular basis kgdat.transferFrom(address(this), msg.sender, nrCoins);\r\n            // payOutSoon.push(PayOutSoon(msg.sender, nrCoins, coinType));\r\n            kgdat.transferFrom(address(this), msg.sender, nrCoins);\r\n            kingdomtitles[titleId].attackPoints -= nrCoins;\r\n        }\r\n        else if (coinType == 1) {\r\n            // def coins\r\n            require(kingdomtitles[titleId].defensePoints >= nrCoins, \"you do not have that many defense coins\");\r\n            // we can't run this classic transferFrom because it needs to be executed by the contract owner on a regular basis kgdat.transferFrom(address(this), msg.sender, nrCoins);\r\n            // payOutSoon.push(PayOutSoon(msg.sender, nrCoins, coinType));\r\n            kgddf.transferFrom(address(this), msg.sender, nrCoins);\r\n            kingdomtitles[titleId].defensePoints -= nrCoins;\r\n        }\r\n    }\r\n\r\n    function _divide(uint numerator, uint denominator) private pure returns (uint quotient, uint remainder) {\r\n        quotient  = numerator / denominator;\r\n        remainder = numerator - denominator * quotient;\r\n        return (quotient, remainder);\r\n    }\r\n\r\n    function _handleSacking(AttackResult memory resy) internal {\r\n        if (kingdomtitles[resy.titleId].attackPoints <= resy.deadAttackers) {\r\n            kingdomtitles[resy.titleId].attackPoints = 0;\r\n        } else {\r\n            kingdomtitles[resy.titleId].attackPoints -= resy.deadAttackers;\r\n        }\r\n        \r\n        require(kingdomtitles[resy.titleId].attackPoints >= 0, \"uhoh, the attackpoints are zero...\");\r\n\r\n        if (kingdomtitles[resy.bossid].defensePoints <= resy.deadDefenders) {\r\n            kingdomtitles[resy.bossid].defensePoints = 0;\r\n        } else {\r\n            kingdomtitles[resy.bossid].defensePoints -= resy.deadDefenders;\r\n        }\r\n        \r\n        require(kingdomtitles[resy.bossid].defensePoints >= 0, \"uhoh, the defensepoints are zero...\");\r\n\r\n        // finally check if a title rank swap happens\r\n        // attackresults function\r\n        if (resy.won) {\r\n            // not the nft changes ownership, but actually the title rank\r\n            uint old_defenderrank_tmp = title2Rank[resy.bossid];\r\n            title2Rank[resy.bossid] = title2Rank[resy.titleId];\r\n            title2Rank[resy.titleId] = old_defenderrank_tmp;\r\n            \r\n            emit Sacked(msg.sender, resy.bossid_address, \r\n                    old_defenderrank_tmp, title2Rank[resy.titleId]);\r\n        }\r\n    }\r\n\r\n    function attackBoss(uint titleId) public hasTitle {\r\n        require(ownerOf(titleId) == msg.sender, \"sorry, only the owner of a title can attack his boss\");\r\n\r\n        // for memory reasons we need 2 do this\r\n        AttackResult memory resy = AttackResult(\r\n            false, titleId, getBossId(titleId), ownerOf(getBossId(titleId)), 0, 0, false, 0, 0, 0, 0);\r\n\r\n        require(resy.bossid_address != msg.sender, \"boy, don't attack yourself plz\");\r\n\r\n        (resy.attacker_Attackpoints, , resy.ready4Attack, resy.attacker_attackMultiplier, , ) = getTitleStats(titleId);\r\n        // temporary disabled for debugging\r\n        // require(resy.ready4Attack, \"your attack cooldown is not down yet. please try again after cooldown\");\r\n\r\n        ( , resy.defender_Defensepoints, , , resy.defender_defenseMultiplier, ) = getTitleStats(resy.bossid);\r\n\r\n        uint tmp_game_defender_Defensepoints = (resy.defender_Defensepoints * 15 * resy.defender_defenseMultiplier) / 10; // counts 1.5\r\n\r\n        uint tmp_attacker_Attackpoints = resy.attacker_Attackpoints * resy.attacker_attackMultiplier;\r\n\r\n    //     // make it so that more than double attack points is a sure win\r\n        uint randy = _random();\r\n        (uint quotient, uint remainder) = _divide(tmp_attacker_Attackpoints, tmp_game_defender_Defensepoints); // double would be 20\r\n\r\n        if (quotient > 3) {\r\n            // no discussion needed\r\n            resy.deadDefenders = resy.defender_Defensepoints;\r\n            resy.deadAttackers = 0;\r\n            resy.won = true;\r\n        }\r\n        else if (quotient > 2) {\r\n            // more than double the attackers\r\n            resy.deadDefenders = resy.defender_Defensepoints;\r\n            resy.won = true;\r\n            // some attackers dead except rare case\r\n            resy.deadAttackers = uint(resy.attacker_Attackpoints / 10);\r\n            if (randy > 90) {\r\n                // in a rare case not all defenders die, some can flee\r\n                resy.deadDefenders = uint(resy.defender_Defensepoints / 2);\r\n            }\r\n        }\r\n        else if (quotient > 1 && remainder > 5) {\r\n            resy.won = true;\r\n            resy.deadDefenders = uint(resy.defender_Defensepoints / 2);\r\n            resy.deadAttackers = uint(resy.attacker_Attackpoints / 2);\r\n        }\r\n        else {\r\n            // tmp\r\n            resy.won = false;\r\n            resy.deadDefenders = randy;\r\n            resy.deadAttackers = randy;\r\n        }\r\n        // emit that event\r\n        emit Attack(msg.sender, resy.bossid_address, \r\n                titleId, resy.bossid, \r\n                resy.attacker_Attackpoints, resy.defender_Defensepoints,\r\n                resy.deadAttackers, resy.deadDefenders,\r\n                resy.won);\r\n\r\n        _handleSacking(resy);\r\n        \r\n    }\r\n}",
  "sourcePath": "D:\\Github Code\\truffle-gaanche-demo\\contracts\\KingdomGameMechanic.sol",
  "compiler": {
    "name": "solc",
    "version": "0.8.9+commit.e5eed63a.Emscripten.clang"
  },
  "schemaVersion": "3.4.4",
  "updatedAt": "2022-05-27T11:54:45.509Z",
  "networkType": "ethereum",
  "devdoc": {
    "kind": "dev",
    "methods": {
      "approve(address,uint256)": {
        "details": "See {IERC721-approve}."
      },
      "balanceOf(address)": {
        "details": "See {IERC721-balanceOf}."
      },
      "getApproved(uint256)": {
        "details": "See {IERC721-getApproved}."
      },
      "isApprovedForAll(address,address)": {
        "details": "See {IERC721-isApprovedForAll}."
      },
      "name()": {
        "details": "See {IERC721Metadata-name}."
      },
      "owner()": {
        "details": "Returns the address of the current owner."
      },
      "ownerOf(uint256)": {
        "details": "See {IERC721-ownerOf}."
      },
      "renounceOwnership()": {
        "details": "Leaves the contract without owner. It will not be possible to call `onlyOwner` functions anymore. Can only be called by the current owner. NOTE: Renouncing ownership will leave the contract without an owner, thereby removing any functionality that is only available to the owner."
      },
      "safeTransferFrom(address,address,uint256)": {
        "details": "See {IERC721-safeTransferFrom}."
      },
      "safeTransferFrom(address,address,uint256,bytes)": {
        "details": "See {IERC721-safeTransferFrom}."
      },
      "setApprovalForAll(address,bool)": {
        "details": "See {IERC721-setApprovalForAll}."
      },
      "supportsInterface(bytes4)": {
        "details": "See {IERC165-supportsInterface}."
      },
      "symbol()": {
        "details": "See {IERC721Metadata-symbol}."
      },
      "tokenURI(uint256)": {
        "details": "See {IERC721Metadata-tokenURI}."
      },
      "transferFrom(address,address,uint256)": {
        "details": "See {IERC721-transferFrom}."
      },
      "transferOwnership(address)": {
        "details": "Transfers ownership of the contract to a new account (`newOwner`). Can only be called by the current owner."
      }
    },
    "version": 1
  },
  "userdoc": {
    "kind": "user",
    "methods": {},
    "version": 1
  }
}