{
  "contractName": "KingdomTitles",
  "abi": [
    {
      "inputs": [
        {
          "internalType": "contract KingdomSeedCoin",
          "name": "kgdsc",
          "type": "address"
        },
        {
          "internalType": "contract KingdomAttackCoin",
          "name": "kgdat",
          "type": "address"
        },
        {
          "internalType": "contract KingdomDefenseCoin",
          "name": "kgddf",
          "type": "address"
        }
      ],
      "stateMutability": "nonpayable",
      "type": "constructor"
    },
    {
      "anonymous": false,
      "inputs": [
        {
          "indexed": true,
          "internalType": "address",
          "name": "owner",
          "type": "address"
        },
        {
          "indexed": true,
          "internalType": "address",
          "name": "approved",
          "type": "address"
        },
        {
          "indexed": true,
          "internalType": "uint256",
          "name": "tokenId",
          "type": "uint256"
        }
      ],
      "name": "Approval",
      "type": "event"
    },
    {
      "anonymous": false,
      "inputs": [
        {
          "indexed": true,
          "internalType": "address",
          "name": "owner",
          "type": "address"
        },
        {
          "indexed": true,
          "internalType": "address",
          "name": "operator",
          "type": "address"
        },
        {
          "indexed": false,
          "internalType": "bool",
          "name": "approved",
          "type": "bool"
        }
      ],
      "name": "ApprovalForAll",
      "type": "event"
    },
    {
      "anonymous": false,
      "inputs": [
        {
          "indexed": true,
          "internalType": "address",
          "name": "_to",
          "type": "address"
        },
        {
          "indexed": false,
          "internalType": "uint256",
          "name": "_amount",
          "type": "uint256"
        }
      ],
      "name": "HarvestAttackPoints",
      "type": "event"
    },
    {
      "anonymous": false,
      "inputs": [
        {
          "indexed": true,
          "internalType": "address",
          "name": "_to",
          "type": "address"
        },
        {
          "indexed": false,
          "internalType": "uint256",
          "name": "_amount",
          "type": "uint256"
        }
      ],
      "name": "HarvestDefensePoints",
      "type": "event"
    },
    {
      "anonymous": false,
      "inputs": [
        {
          "indexed": true,
          "internalType": "address",
          "name": "_to",
          "type": "address"
        },
        {
          "indexed": false,
          "internalType": "uint256",
          "name": "_amount",
          "type": "uint256"
        },
        {
          "indexed": false,
          "internalType": "uint256",
          "name": "_beforeBurn",
          "type": "uint256"
        }
      ],
      "name": "HarvestRemainingSeedCoins",
      "type": "event"
    },
    {
      "anonymous": false,
      "inputs": [
        {
          "indexed": true,
          "internalType": "address",
          "name": "previousOwner",
          "type": "address"
        },
        {
          "indexed": true,
          "internalType": "address",
          "name": "newOwner",
          "type": "address"
        }
      ],
      "name": "OwnershipTransferred",
      "type": "event"
    },
    {
      "anonymous": false,
      "inputs": [
        {
          "indexed": true,
          "internalType": "address",
          "name": "from",
          "type": "address"
        },
        {
          "indexed": true,
          "internalType": "address",
          "name": "to",
          "type": "address"
        },
        {
          "indexed": true,
          "internalType": "uint256",
          "name": "tokenId",
          "type": "uint256"
        }
      ],
      "name": "Transfer",
      "type": "event"
    },
    {
      "anonymous": false,
      "inputs": [
        {
          "indexed": true,
          "internalType": "address",
          "name": "_from",
          "type": "address"
        },
        {
          "indexed": false,
          "internalType": "uint256",
          "name": "_amount",
          "type": "uint256"
        }
      ],
      "name": "enterStakingAttackPoints",
      "type": "event"
    },
    {
      "anonymous": false,
      "inputs": [
        {
          "indexed": true,
          "internalType": "address",
          "name": "_from",
          "type": "address"
        },
        {
          "indexed": false,
          "internalType": "uint256",
          "name": "_amount",
          "type": "uint256"
        }
      ],
      "name": "enterStakingDefensePoints",
      "type": "event"
    },
    {
      "inputs": [
        {
          "internalType": "address",
          "name": "",
          "type": "address"
        },
        {
          "internalType": "uint256",
          "name": "",
          "type": "uint256"
        }
      ],
      "name": "address2ids",
      "outputs": [
        {
          "internalType": "uint256",
          "name": "",
          "type": "uint256"
        }
      ],
      "stateMutability": "view",
      "type": "function"
    },
    {
      "inputs": [
        {
          "internalType": "address",
          "name": "to",
          "type": "address"
        },
        {
          "internalType": "uint256",
          "name": "tokenId",
          "type": "uint256"
        }
      ],
      "name": "approve",
      "outputs": [],
      "stateMutability": "nonpayable",
      "type": "function"
    },
    {
      "inputs": [],
      "name": "attackCooldown",
      "outputs": [
        {
          "internalType": "uint256",
          "name": "",
          "type": "uint256"
        }
      ],
      "stateMutability": "view",
      "type": "function"
    },
    {
      "inputs": [],
      "name": "balanceLastMonth_kgdat",
      "outputs": [
        {
          "internalType": "uint256",
          "name": "",
          "type": "uint256"
        }
      ],
      "stateMutability": "view",
      "type": "function"
    },
    {
      "inputs": [],
      "name": "balanceLastMonth_kgddf",
      "outputs": [
        {
          "internalType": "uint256",
          "name": "",
          "type": "uint256"
        }
      ],
      "stateMutability": "view",
      "type": "function"
    },
    {
      "inputs": [],
      "name": "balanceLastMonth_kgdsc",
      "outputs": [
        {
          "internalType": "uint256",
          "name": "",
          "type": "uint256"
        }
      ],
      "stateMutability": "view",
      "type": "function"
    },
    {
      "inputs": [
        {
          "internalType": "address",
          "name": "owner",
          "type": "address"
        }
      ],
      "name": "balanceOf",
      "outputs": [
        {
          "internalType": "uint256",
          "name": "",
          "type": "uint256"
        }
      ],
      "stateMutability": "view",
      "type": "function"
    },
    {
      "inputs": [],
      "name": "baseUrl",
      "outputs": [
        {
          "internalType": "string",
          "name": "",
          "type": "string"
        }
      ],
      "stateMutability": "view",
      "type": "function"
    },
    {
      "inputs": [],
      "name": "buyForETH",
      "outputs": [],
      "stateMutability": "payable",
      "type": "function"
    },
    {
      "inputs": [],
      "name": "exchangeRate",
      "outputs": [
        {
          "internalType": "uint8",
          "name": "",
          "type": "uint8"
        }
      ],
      "stateMutability": "view",
      "type": "function"
    },
    {
      "inputs": [],
      "name": "exchangeRate_Attackpoints",
      "outputs": [
        {
          "internalType": "uint8",
          "name": "",
          "type": "uint8"
        }
      ],
      "stateMutability": "view",
      "type": "function"
    },
    {
      "inputs": [],
      "name": "exchangeRate_Burnpct",
      "outputs": [
        {
          "internalType": "uint8",
          "name": "",
          "type": "uint8"
        }
      ],
      "stateMutability": "view",
      "type": "function"
    },
    {
      "inputs": [],
      "name": "exchangeRate_Defensepoints",
      "outputs": [
        {
          "internalType": "uint8",
          "name": "",
          "type": "uint8"
        }
      ],
      "stateMutability": "view",
      "type": "function"
    },
    {
      "inputs": [
        {
          "internalType": "uint256",
          "name": "tokenId",
          "type": "uint256"
        }
      ],
      "name": "getApproved",
      "outputs": [
        {
          "internalType": "address",
          "name": "",
          "type": "address"
        }
      ],
      "stateMutability": "view",
      "type": "function"
    },
    {
      "inputs": [],
      "name": "getCurrentStakes",
      "outputs": [
        {
          "internalType": "uint256[3]",
          "name": "",
          "type": "uint256[3]"
        }
      ],
      "stateMutability": "view",
      "type": "function"
    },
    {
      "inputs": [],
      "name": "getTimeUntilStakingDone",
      "outputs": [
        {
          "internalType": "uint256[3]",
          "name": "timeuntildone",
          "type": "uint256[3]"
        }
      ],
      "stateMutability": "view",
      "type": "function"
    },
    {
      "inputs": [],
      "name": "harvestAll",
      "outputs": [
        {
          "internalType": "bool",
          "name": "success",
          "type": "bool"
        }
      ],
      "stateMutability": "nonpayable",
      "type": "function"
    },
    {
      "inputs": [
        {
          "internalType": "address",
          "name": "owner",
          "type": "address"
        },
        {
          "internalType": "address",
          "name": "operator",
          "type": "address"
        }
      ],
      "name": "isApprovedForAll",
      "outputs": [
        {
          "internalType": "bool",
          "name": "",
          "type": "bool"
        }
      ],
      "stateMutability": "view",
      "type": "function"
    },
    {
      "inputs": [],
      "name": "justSendETH",
      "outputs": [
        {
          "internalType": "uint256",
          "name": "",
          "type": "uint256"
        }
      ],
      "stateMutability": "payable",
      "type": "function"
    },
    {
      "inputs": [],
      "name": "kgdat",
      "outputs": [
        {
          "internalType": "contract KingdomAttackCoin",
          "name": "",
          "type": "address"
        }
      ],
      "stateMutability": "view",
      "type": "function"
    },
    {
      "inputs": [],
      "name": "kgddf",
      "outputs": [
        {
          "internalType": "contract KingdomDefenseCoin",
          "name": "",
          "type": "address"
        }
      ],
      "stateMutability": "view",
      "type": "function"
    },
    {
      "inputs": [],
      "name": "kgdsc",
      "outputs": [
        {
          "internalType": "contract KingdomSeedCoin",
          "name": "",
          "type": "address"
        }
      ],
      "stateMutability": "view",
      "type": "function"
    },
    {
      "inputs": [
        {
          "internalType": "uint256",
          "name": "",
          "type": "uint256"
        }
      ],
      "name": "kingdomtitles",
      "outputs": [
        {
          "internalType": "uint256",
          "name": "attackPoints",
          "type": "uint256"
        },
        {
          "internalType": "uint256",
          "name": "defensePoints",
          "type": "uint256"
        },
        {
          "internalType": "uint256",
          "name": "readyTimeAttack",
          "type": "uint256"
        },
        {
          "internalType": "uint256",
          "name": "readyTimeStake",
          "type": "uint256"
        },
        {
          "internalType": "uint256",
          "name": "attackMultiplier",
          "type": "uint256"
        },
        {
          "internalType": "uint256",
          "name": "defenseMultiplier",
          "type": "uint256"
        },
        {
          "internalType": "uint256",
          "name": "moneyMultiplier",
          "type": "uint256"
        }
      ],
      "stateMutability": "view",
      "type": "function"
    },
    {
      "inputs": [],
      "name": "name",
      "outputs": [
        {
          "internalType": "string",
          "name": "",
          "type": "string"
        }
      ],
      "stateMutability": "view",
      "type": "function"
    },
    {
      "inputs": [],
      "name": "owner",
      "outputs": [
        {
          "internalType": "address",
          "name": "",
          "type": "address"
        }
      ],
      "stateMutability": "view",
      "type": "function"
    },
    {
      "inputs": [
        {
          "internalType": "uint256",
          "name": "tokenId",
          "type": "uint256"
        }
      ],
      "name": "ownerOf",
      "outputs": [
        {
          "internalType": "address",
          "name": "",
          "type": "address"
        }
      ],
      "stateMutability": "view",
      "type": "function"
    },
    {
      "inputs": [
        {
          "internalType": "uint256",
          "name": "nrSeedCoins",
          "type": "uint256"
        },
        {
          "internalType": "uint8",
          "name": "targetCoin",
          "type": "uint8"
        }
      ],
      "name": "plantSeeds",
      "outputs": [],
      "stateMutability": "nonpayable",
      "type": "function"
    },
    {
      "inputs": [],
      "name": "readyTimeStakeCooldown",
      "outputs": [
        {
          "internalType": "uint256",
          "name": "",
          "type": "uint256"
        }
      ],
      "stateMutability": "view",
      "type": "function"
    },
    {
      "inputs": [],
      "name": "renounceOwnership",
      "outputs": [],
      "stateMutability": "nonpayable",
      "type": "function"
    },
    {
      "inputs": [
        {
          "internalType": "address",
          "name": "from",
          "type": "address"
        },
        {
          "internalType": "address",
          "name": "to",
          "type": "address"
        },
        {
          "internalType": "uint256",
          "name": "tokenId",
          "type": "uint256"
        }
      ],
      "name": "safeTransferFrom",
      "outputs": [],
      "stateMutability": "nonpayable",
      "type": "function"
    },
    {
      "inputs": [
        {
          "internalType": "address",
          "name": "from",
          "type": "address"
        },
        {
          "internalType": "address",
          "name": "to",
          "type": "address"
        },
        {
          "internalType": "uint256",
          "name": "tokenId",
          "type": "uint256"
        },
        {
          "internalType": "bytes",
          "name": "_data",
          "type": "bytes"
        }
      ],
      "name": "safeTransferFrom",
      "outputs": [],
      "stateMutability": "nonpayable",
      "type": "function"
    },
    {
      "inputs": [
        {
          "internalType": "address",
          "name": "operator",
          "type": "address"
        },
        {
          "internalType": "bool",
          "name": "approved",
          "type": "bool"
        }
      ],
      "name": "setApprovalForAll",
      "outputs": [],
      "stateMutability": "nonpayable",
      "type": "function"
    },
    {
      "inputs": [],
      "name": "stakingPeriod",
      "outputs": [
        {
          "internalType": "uint256",
          "name": "",
          "type": "uint256"
        }
      ],
      "stateMutability": "view",
      "type": "function"
    },
    {
      "inputs": [
        {
          "internalType": "bytes4",
          "name": "interfaceId",
          "type": "bytes4"
        }
      ],
      "name": "supportsInterface",
      "outputs": [
        {
          "internalType": "bool",
          "name": "",
          "type": "bool"
        }
      ],
      "stateMutability": "view",
      "type": "function"
    },
    {
      "inputs": [],
      "name": "symbol",
      "outputs": [
        {
          "internalType": "string",
          "name": "",
          "type": "string"
        }
      ],
      "stateMutability": "view",
      "type": "function"
    },
    {
      "inputs": [
        {
          "internalType": "uint256",
          "name": "",
          "type": "uint256"
        }
      ],
      "name": "title2Rank",
      "outputs": [
        {
          "internalType": "uint256",
          "name": "",
          "type": "uint256"
        }
      ],
      "stateMutability": "view",
      "type": "function"
    },
    {
      "inputs": [],
      "name": "totalSupply",
      "outputs": [
        {
          "internalType": "uint16",
          "name": "",
          "type": "uint16"
        }
      ],
      "stateMutability": "view",
      "type": "function"
    },
    {
      "inputs": [
        {
          "internalType": "address",
          "name": "from",
          "type": "address"
        },
        {
          "internalType": "address",
          "name": "to",
          "type": "address"
        },
        {
          "internalType": "uint256",
          "name": "tokenId",
          "type": "uint256"
        }
      ],
      "name": "transferFrom",
      "outputs": [],
      "stateMutability": "nonpayable",
      "type": "function"
    },
    {
      "inputs": [
        {
          "internalType": "address",
          "name": "newOwner",
          "type": "address"
        }
      ],
      "name": "transferOwnership",
      "outputs": [],
      "stateMutability": "nonpayable",
      "type": "function"
    },
    {
      "inputs": [],
      "name": "currentPosition",
      "outputs": [
        {
          "internalType": "uint256",
          "name": "",
          "type": "uint256"
        }
      ],
      "stateMutability": "view",
      "type": "function"
    },
    {
      "inputs": [
        {
          "internalType": "address",
          "name": "player",
          "type": "address"
        }
      ],
      "name": "awardItem",
      "outputs": [
        {
          "internalType": "uint256",
          "name": "",
          "type": "uint256"
        }
      ],
      "stateMutability": "nonpayable",
      "type": "function"
    },
    {
      "inputs": [
        {
          "internalType": "uint256",
          "name": "itemId",
          "type": "uint256"
        }
      ],
      "name": "reverseItem",
      "outputs": [
        {
          "internalType": "bool",
          "name": "",
          "type": "bool"
        }
      ],
      "stateMutability": "nonpayable",
      "type": "function"
    },
    {
      "inputs": [
        {
          "internalType": "uint256",
          "name": "tokenId",
          "type": "uint256"
        }
      ],
      "name": "tokenURI",
      "outputs": [
        {
          "internalType": "string",
          "name": "",
          "type": "string"
        }
      ],
      "stateMutability": "view",
      "type": "function"
    },
    {
      "inputs": [
        {
          "internalType": "address",
          "name": "_own",
          "type": "address"
        }
      ],
      "name": "getRanksOfAddress",
      "outputs": [
        {
          "internalType": "uint256[]",
          "name": "",
          "type": "uint256[]"
        }
      ],
      "stateMutability": "view",
      "type": "function"
    },
    {
      "inputs": [
        {
          "internalType": "uint256",
          "name": "_id",
          "type": "uint256"
        }
      ],
      "name": "getRankOfId",
      "outputs": [
        {
          "internalType": "uint256",
          "name": "id",
          "type": "uint256"
        }
      ],
      "stateMutability": "view",
      "type": "function"
    },
    {
      "inputs": [
        {
          "internalType": "uint256",
          "name": "_rank",
          "type": "uint256"
        }
      ],
      "name": "getIdOfRank",
      "outputs": [
        {
          "internalType": "uint256",
          "name": "id",
          "type": "uint256"
        }
      ],
      "stateMutability": "view",
      "type": "function"
    },
    {
      "inputs": [
        {
          "internalType": "address",
          "name": "_own",
          "type": "address"
        }
      ],
      "name": "getIdsOfAddress",
      "outputs": [
        {
          "internalType": "uint256[]",
          "name": "ownedIds",
          "type": "uint256[]"
        }
      ],
      "stateMutability": "view",
      "type": "function"
    },
    {
      "inputs": [],
      "name": "payOutDividends",
      "outputs": [],
      "stateMutability": "payable",
      "type": "function"
    }
  ],
  "bytecode": "0x60806040526006805463ffffffff60a01b1916630504050560a11b179055603c600755600060088190556009819055600a553480156200003e57600080fd5b50604051620034ea380380620034ea83398101604081905262000061916200024c565b604080518082018252600e81526d4b696e67646f6d205469746c657360901b60208083019182528351808501909452600384526212d1d160ea1b9084015281518693869386939092620000b7916000916200018d565b508051620000cd9060019060208401906200018d565b505050620000ea620000e46200013760201b60201c565b6200013b565b600b80546001600160a01b039485166001600160a01b031991821617909155600c805493851693821693909317909255600d805491909316911617905550506000620111805550620002dd565b3390565b600680546001600160a01b038381166001600160a01b0319831681179093556040519116919082907f8be0079c531659141344cd1fd0a4f28419497f9722a3daafe3b4186f6b6457e090600090a35050565b8280546200019b90620002a0565b90600052602060002090601f016020900481019282620001bf57600085556200020a565b82601f10620001da57805160ff19168380011785556200020a565b828001600101855582156200020a579182015b828111156200020a578251825591602001919060010190620001ed565b50620002189291506200021c565b5090565b5b808211156200021857600081556001016200021d565b6001600160a01b03811681146200024957600080fd5b50565b6000806000606084860312156200026257600080fd5b83516200026f8162000233565b6020850151909350620002828162000233565b6040850151909250620002958162000233565b809150509250925092565b600181811c90821680620002b557607f821691505b60208210811415620002d757634e487b7160e01b600052602260045260246000fd5b50919050565b6131fd80620002ed6000396000f3fe6080604052600436106102925760003560e01c8063839b92051161015a578063d4637ddb116100c1578063eb8fd9a31161007a578063eb8fd9a3146107e7578063f08b7b73146107fd578063f2fb21201461081d578063f2fde38b1461083d578063f4fd44f11461085d578063fa4facdb1461088c57600080fd5b8063d4637ddb14610740578063d534d63614610761578063e046670b14610778578063e10270c61461077e578063e73961f514610354578063e985e9c51461079e57600080fd5b8063a22cb46511610113578063a22cb4651461067c578063b88d4fde1461069c578063c03d5b47146106bc578063c4a3a1fc146106d2578063c669b710146106ff578063c87b56dd1461072057600080fd5b8063839b9205146105dc57806384505e6a146105f25780638da5cb5b146106145780638ed955b914610632578063900294be1461064757806395d89b411461066757600080fd5b80632756985c116101fe5780636352211e116101b75780636352211e146105175780636a7a2fa31461053757806370a0823114610558578063715018a6146105785780637c62539a1461058d578063802bea6e146105ad57600080fd5b80632756985c1461044f5780633ba0b9a91461046f578063411ee0d0146104a257806342842e0e146104c2578063429c3edf146104e25780635bcabf041461050257600080fd5b8063095ea7b311610250578063095ea7b31461036957806310f7e4ed1461038957806316807e151461039157806318160ddd146103b15780631cf95ed6146103da57806323b872dd1461042f57600080fd5b80620a51801461029757806301ffc9a7146102c05780630251b7d2146102f057806306fdde03146102fa578063081812fc1461031c5780630895ba5314610354575b600080fd5b3480156102a357600080fd5b506102ad60095481565b6040519081526020015b60405180910390f35b3480156102cc57600080fd5b506102e06102db366004612b9b565b6108a1565b60405190151581526020016102b7565b6102f86108f3565b005b34801561030657600080fd5b5061030f61097d565b6040516102b79190612c10565b34801561032857600080fd5b5061033c610337366004612c23565b610a0f565b6040516001600160a01b0390911681526020016102b7565b34801561036057600080fd5b506102ad603c81565b34801561037557600080fd5b506102f8610384366004612c53565b610aa4565b6102f8610bba565b34801561039d57600080fd5b506102ad6103ac366004612c23565b610e29565b3480156103bd57600080fd5b506103c761271081565b60405161ffff90911681526020016102b7565b3480156103e657600080fd5b506103fa6103f5366004612c23565b610e71565b604080519788526020880196909652948601939093526060850191909152608084015260a083015260c082015260e0016102b7565b34801561043b57600080fd5b506102f861044a366004612c7d565b610eb5565b34801561045b57600080fd5b506102e061046a366004612c23565b610ee6565b34801561047b57600080fd5b5060065461049090600160a01b900460ff1681565b60405160ff90911681526020016102b7565b3480156104ae57600080fd5b50600d5461033c906001600160a01b031681565b3480156104ce57600080fd5b506102f86104dd366004612c7d565b611062565b3480156104ee57600080fd5b506102f86104fd366004612cb9565b61107d565b34801561050e57600080fd5b5061030f61149d565b34801561052357600080fd5b5061033c610532366004612c23565b6114b9565b34801561054357600080fd5b5060065461049090600160b81b900460ff1681565b34801561056457600080fd5b506102ad610573366004612cef565b611530565b34801561058457600080fd5b506102f86115b7565b34801561059957600080fd5b50600c5461033c906001600160a01b031681565b3480156105b957600080fd5b506102ad6105c8366004612c23565b60009081526201117f602052604090205490565b3480156105e857600080fd5b506102ad600a5481565b3480156105fe57600080fd5b506106076115ed565b6040516102b79190612d0a565b34801561062057600080fd5b506006546001600160a01b031661033c565b34801561063e57600080fd5b506102e0611762565b34801561065357600080fd5b50600b5461033c906001600160a01b031681565b34801561067357600080fd5b5061030f611a32565b34801561068857600080fd5b506102f8610697366004612d49565b611a41565b3480156106a857600080fd5b506102f86106b7366004612d8b565b611a4c565b3480156106c857600080fd5b506102ad60075481565b3480156106de57600080fd5b506106f26106ed366004612cef565b611a84565b6040516102b79190612e67565b34801561070b57600080fd5b5060065461049090600160a81b900460ff1681565b34801561072c57600080fd5b5061030f61073b366004612c23565b611af2565b34801561074c57600080fd5b5060065461049090600160b01b900460ff1681565b34801561076d57600080fd5b5062011180546102ad565b476102ad565b34801561078a57600080fd5b506106f2610799366004612cef565b611bbc565b3480156107aa57600080fd5b506102e06107b9366004612eab565b6001600160a01b03918216600090815260056020908152604080832093909416825291909152205460ff1690565b3480156107f357600080fd5b506102ad60085481565b34801561080957600080fd5b506102ad610818366004612c53565b611ce8565b34801561082957600080fd5b506102ad610838366004612cef565b611d1b565b34801561084957600080fd5b506102f8610858366004612cef565b611ee2565b34801561086957600080fd5b506102ad610878366004612c23565b6201117f6020526000908152604090205481565b34801561089857600080fd5b50610607611f7d565b60006001600160e01b031982166380ac58cd60e01b14806108d257506001600160e01b03198216635b5e139f60e01b145b806108ed57506301ffc9a760e01b6001600160e01b03198316145b92915050565b6006546001600160a01b031633146109265760405162461bcd60e51b815260040161091d90612ede565b60405180910390fd5b4760005b61271081101561097957600061093f826114b9565b905060008361094d8461208e565b6109579190612f29565b90506109643083836120b6565b5050808061097190612f48565b91505061092a565b5050565b60606000805461098c90612f63565b80601f01602080910402602001604051908101604052809291908181526020018280546109b890612f63565b8015610a055780601f106109da57610100808354040283529160200191610a05565b820191906000526020600020905b8154815290600101906020018083116109e857829003601f168201915b5050505050905090565b6000818152600260205260408120546001600160a01b0316610a885760405162461bcd60e51b815260206004820152602c60248201527f4552433732313a20617070726f76656420717565727920666f72206e6f6e657860448201526b34b9ba32b73a103a37b5b2b760a11b606482015260840161091d565b506000908152600460205260409020546001600160a01b031690565b6000610aaf826114b9565b9050806001600160a01b0316836001600160a01b03161415610b1d5760405162461bcd60e51b815260206004820152602160248201527f4552433732313a20617070726f76616c20746f2063757272656e74206f776e656044820152603960f91b606482015260840161091d565b336001600160a01b0382161480610b395750610b3981336107b9565b610bab5760405162461bcd60e51b815260206004820152603860248201527f4552433732313a20617070726f76652063616c6c6572206973206e6f74206f7760448201527f6e6572206e6f7220617070726f76656420666f7220616c6c0000000000000000606482015260840161091d565b610bb58383612252565b505050565b600b546040516370a0823160e01b81523060048201526000916001600160a01b0316906370a082319060240160206040518083038186803b158015610bfe57600080fd5b505afa158015610c12573d6000803e3d6000fd5b505050506040513d601f19601f82011682018060405250810190610c369190612f98565b11610c4057600080fd5b60003411610ca95760405162461bcd60e51b815260206004820152603060248201527f796f75206861766520746f2073656e6420736f6d652045544820746f2067657460448201526f1025b4b733b237b6a9b2b2b231b7b4b760811b606482015260840161091d565b600b546040516370a0823160e01b81523060048201526000916001600160a01b0316906370a082319060240160206040518083038186803b158015610ced57600080fd5b505afa158015610d01573d6000803e3d6000fd5b505050506040513d601f19601f82011682018060405250810190610d259190612f98565b11610d8a5760405162461bcd60e51b815260206004820152602f60248201527f75686f682c2073727920692063616e27742073656e6420616e79206d6f72652060448201526e25b4b733b237b6a9b2b2b231b7b4b760891b606482015260840161091d565b600654600090610da490600160a01b900460ff1634612f29565b600b5460405163a9059cbb60e01b8152336004820152602481018390529192506001600160a01b03169063a9059cbb90604401602060405180830381600087803b158015610df157600080fd5b505af1158015610e05573d6000803e3d6000fd5b505050506040513d601f19601f820116820180604052508101906109799190612fb1565b6000805b6201118054811015610e6b5760008181526201117f6020526040902054831415610e5957809150610e6b565b80610e6381612f48565b915050610e2d565b50919050565b600f816127108110610e8257600080fd5b60070201805460018201546002830154600384015460048501546005860154600690960154949650929491939092919087565b610ebf33826122c0565b610edb5760405162461bcd60e51b815260040161091d90612fce565b610bb58383836120b6565b6006546000906001600160a01b03163314610f135760405162461bcd60e51b815260040161091d90612ede565b6000610f1e836114b9565b9050610f2b8130856120b6565b611a0a60005b6001600160a01b0383166000908152620111816020526040902054811015610fad576001600160a01b03831660009081526201118160205260409020805486919083908110610f8257610f8261301f565b90600052602060002001541415610f9b57809150610fad565b80610fa581612f48565b915050610f31565b5080611a0a141561101f5760405162461bcd60e51b815260206004820152603660248201527f72657665727365206974656d2066756e6374696f6e2e2e2e206974656d206e6f6044820152757420666f756e6420696e20616464726573733269647360501b606482015260840161091d565b6001600160a01b0382166000908152620111816020526040902080548290811061104b5761104b61301f565b60009182526020822001555060019150505b919050565b610bb583838360405180602001604052806000815250611a4c565b600c546040516370a0823160e01b81523060048201526000916001600160a01b0316906370a082319060240160206040518083038186803b1580156110c157600080fd5b505afa1580156110d5573d6000803e3d6000fd5b505050506040513d601f19601f820116820180604052508101906110f99190612f98565b1161110357600080fd5b600d546040516370a0823160e01b81523060048201526000916001600160a01b0316906370a082319060240160206040518083038186803b15801561114757600080fd5b505afa15801561115b573d6000803e3d6000fd5b505050506040513d601f19601f8201168201806040525081019061117f9190612f98565b1161118957600080fd5b600b546040516370a0823160e01b81523360048201526000916001600160a01b0316906370a082319060240160206040518083038186803b1580156111cd57600080fd5b505afa1580156111e1573d6000803e3d6000fd5b505050506040513d601f19601f820116820180604052508101906112059190612f98565b90508281101580156112175750600083115b61127e5760405162461bcd60e51b815260206004820152603260248201527f796f7520646f6e2774206861766520656e6f7567682073656564636f696e732160448201527120627579206f7220747261646520736f6d6560701b606482015260840161091d565b60ff8216158061129157508160ff166001145b6112f85760405162461bcd60e51b815260206004820152603260248201527f746172676574436f696e2068617320746f20626520303d61747461636b636f69604482015271371037b910189eb232b332b739b2b1b7b4b760711b606482015260840161091d565b60ff821661133a5760405183815233907f44d00596aedd88fca0607c9a84113fd638c9a070d5ef8d77c072080b688d8e349060200160405180910390a261137c565b8160ff166001141561137c5760405183815233907f049b4d6e22c9904766197183f9dc1f362cefb04f39e3850a8b7d83ff2c26216f9060200160405180910390a25b600b546040516323b872dd60e01b8152336004820152306024820152604481018590526001600160a01b03909116906323b872dd90606401602060405180830381600087803b1580156113ce57600080fd5b505af11580156113e2573d6000803e3d6000fd5b505050506040513d601f19601f820116820180604052508101906114069190612fb1565b50600e6000336001600160a01b03166001600160a01b0316815260200190815260200160002060405180606001604052808581526020018460ff168152602001600754426114549190613035565b90528154600180820184556000938452602093849020835160039093020191825592820151928101805460ff191660ff9094169390931790925560400151600290910155505050565b6040518060600160405280602581526020016131a36025913981565b6000818152600260205260408120546001600160a01b0316806108ed5760405162461bcd60e51b815260206004820152602960248201527f4552433732313a206f776e657220717565727920666f72206e6f6e657869737460448201526832b73a103a37b5b2b760b91b606482015260840161091d565b60006001600160a01b03821661159b5760405162461bcd60e51b815260206004820152602a60248201527f4552433732313a2062616c616e636520717565727920666f7220746865207a65604482015269726f206164647265737360b01b606482015260840161091d565b506001600160a01b031660009081526003602052604090205490565b6006546001600160a01b031633146115e15760405162461bcd60e51b815260040161091d90612ede565b6115eb60006123b7565b565b6115f5612b67565b60405180606001604052806298967f81526020016298967f81526020016000815250905060005b336000908152600e602052604090205481101561175e57336000908152600e602052604081208054839081106116545761165461301f565b600091825260209182902060408051606081018252600390930290910180548352600181015460ff1693830193909352600290920154918101829052915061169c575061174c565b604083018051906116ac82612f48565b905250602081015160ff166116ff5742816040015111156116f65760004282604001516116d9919061304d565b84519091508110156116f057808460005b60200201525b5061174a565b6000835261174a565b806020015160ff166001141561174a57428160400151111561174257600042826040015161172d919061304d565b84519091508110156116f057808460016116ea565b600060208401525b505b8061175681612f48565b91505061161c565b5090565b6000805b336000908152600e602052604090205481101561175e57336000908152600e6020526040812080548390811061179e5761179e61301f565b600091825260209182902060408051606081018252600390930290910180548352600181015460ff16938301939093526002909201549181018290529150421115611a1f57602081015160ff166118db57600654815160009161180c91600160a81b90910460ff169061307a565b905061181b8260000151612409565b600c5460405163a9059cbb60e01b8152336004820152602481018390526001600160a01b039091169063a9059cbb90604401602060405180830381600087803b15801561186757600080fd5b505af115801561187b573d6000803e3d6000fd5b505050506040513d601f19601f8201168201806040525081019061189f9190612fb1565b5060405181815233907f9fd4a9248425079a398923cd20daa8e0c103907fb89db4707cb4f2cc343f95469060200160405180910390a2506119d3565b806020015160ff16600114156119d357600654815160009161190891600160b01b90910460ff169061307a565b90506119178260000151612409565b600d5460405163a9059cbb60e01b8152336004820152602481018390526001600160a01b039091169063a9059cbb90604401602060405180830381600087803b15801561196357600080fd5b505af1158015611977573d6000803e3d6000fd5b505050506040513d601f19601f8201168201806040525081019061199b9190612fb1565b5060405181815233907fd62aeb2df4f1c7a0c59e15c0dca22ccbcbe42ad0d0dbf99a22c0ad2551c5a1559060200160405180910390a2505b336000908152600e602052604090208054839081106119f4576119f461301f565b6000918252602082206003909102018181556001808201805460ff1916905560029091019190915592505b5080611a2a81612f48565b915050611766565b60606001805461098c90612f63565b6109793383836124ff565b611a5633836122c0565b611a725760405162461bcd60e51b815260040161091d90612fce565b611a7e848484846125ce565b50505050565b6001600160a01b0381166000908152620111816020908152604091829020805483518184028101840190945280845260609392830182828015611ae657602002820191906000526020600020905b815481526020019060010190808311611ad2575b50505050509050919050565b6000818152600260205260409020546060906001600160a01b0316611b735760405162461bcd60e51b815260206004820152603160248201527f45524337323155524953746f726167653a2055524920717565727920666f72206044820152703737b732bc34b9ba32b73a103a37b5b2b760791b606482015260840161091d565b6040518060600160405280602581526020016131a360259139611b9583612601565b604051602001611ba692919061308e565b6040516020818303038152906040529050919050565b6001600160a01b03811660009081526201118160209081526040808320805482518185028101850190935280835260609493830182828015611c1d57602002820191906000526020600020905b815481526020019060010190808311611c09575b505050505090506000815167ffffffffffffffff811115611c4057611c40612d75565b604051908082528060200260200182016040528015611c69578160200160208202803683370190505b5090508151600014611ce15760005b8251811015611cdf576201117f6000848381518110611c9957611c9961301f565b6020026020010151815260200190815260200160002054828281518110611cc257611cc261301f565b602090810291909101015280611cd781612f48565b915050611c78565b505b9392505050565b620111816020528160005260406000208181548110611d0657600080fd5b90600052602060002001600091509150505481565b6006546000906001600160a01b03163314611d485760405162461bcd60e51b815260040161091d90612ede565b620111805461271011611da75760405162461bcd60e51b815260206004820152602160248201527f75686f682c206e6f207469746c657320617661696c61626c6520616e796d6f726044820152606560f81b606482015260840161091d565b600062011180546001611dba9190613035565b9050611dc6838261272a565b6001600160a01b038316600090815262011181602090815260408083208054600181018255908452828420018490558383526201117f90915281208290558080611e0f84612744565b9250925092506040518060e001604052806000815260200160008152602001603c42611e3b9190613035565b8152602001611e4b603c42613035565b815260200184815260200183815260200182815250600f856127108110611e7457611e7461301f565b8251600791909102919091019081556020820151600182015560408201516002820155606082015160038201556080820151600482015560a0820151600582015560c090910151600690910155620111808054906000611ed383612f48565b90915550939695505050505050565b6006546001600160a01b03163314611f0c5760405162461bcd60e51b815260040161091d90612ede565b6001600160a01b038116611f715760405162461bcd60e51b815260206004820152602660248201527f4f776e61626c653a206e6577206f776e657220697320746865207a65726f206160448201526564647265737360d01b606482015260840161091d565b611f7a816123b7565b50565b611f85612b67565b6000806000805b336000908152600e602052604090205481101561206f57336000908152600e60205260408120805483908110611fc457611fc461301f565b600091825260209182902060408051606081018252600390930290910180548352600181015460ff1693830193909352600290920154918101829052915061200c575061205d565b8261201681612f48565b935050806020015160ff166000141561203c5780516120359086613035565b945061205b565b806020015160ff166001141561205b5780516120589085613035565b93505b505b8061206781612f48565b915050611f8c565b5060408051606081018252938452602084019290925290820152919050565b600063017d78406120a060028461307a565b6120ac9061138861304d565b6108ed919061307a565b826001600160a01b03166120c9826114b9565b6001600160a01b03161461212d5760405162461bcd60e51b815260206004820152602560248201527f4552433732313a207472616e736665722066726f6d20696e636f72726563742060448201526437bbb732b960d91b606482015260840161091d565b6001600160a01b03821661218f5760405162461bcd60e51b8152602060048201526024808201527f4552433732313a207472616e7366657220746f20746865207a65726f206164646044820152637265737360e01b606482015260840161091d565b61219a600082612252565b6001600160a01b03831660009081526003602052604081208054600192906121c390849061304d565b90915550506001600160a01b03821660009081526003602052604081208054600192906121f1908490613035565b909155505060008181526002602052604080822080546001600160a01b0319166001600160a01b0386811691821790925591518493918716917fddf252ad1be2c89b69c2b068fc378daa952ba7f163c4a11628f55a4df523b3ef91a4505050565b600081815260046020526040902080546001600160a01b0319166001600160a01b0384169081179091558190612287826114b9565b6001600160a01b03167f8c5be1e5ebec7d5bd14f71427d1e84f3dd0314c0f7b2291e5b200ac8c7c3b92560405160405180910390a45050565b6000818152600260205260408120546001600160a01b03166123395760405162461bcd60e51b815260206004820152602c60248201527f4552433732313a206f70657261746f7220717565727920666f72206e6f6e657860448201526b34b9ba32b73a103a37b5b2b760a11b606482015260840161091d565b6000612344836114b9565b9050806001600160a01b0316846001600160a01b0316148061238b57506001600160a01b0380821660009081526005602090815260408083209388168352929052205460ff165b806123af5750836001600160a01b03166123a484610a0f565b6001600160a01b0316145b949350505050565b600680546001600160a01b038381166001600160a01b0319831681179093556040519116919082907f8be0079c531659141344cd1fd0a4f28419497f9722a3daafe3b4186f6b6457e090600090a35050565b60065460009060649061242690600160b81b900460ff1684612f29565b612430919061307a565b61243a908361304d565b600b5460405163a9059cbb60e01b8152336004820152602481018390529192506001600160a01b03169063a9059cbb90604401602060405180830381600087803b15801561248757600080fd5b505af115801561249b573d6000803e3d6000fd5b505050506040513d601f19601f820116820180604052508101906124bf9190612fb1565b50604080518281526020810184905233917f11acec8ea502f5c875e157dd1a17389990a9350450464db61ef112521c0d8751910160405180910390a25050565b816001600160a01b0316836001600160a01b031614156125615760405162461bcd60e51b815260206004820152601960248201527f4552433732313a20617070726f766520746f2063616c6c657200000000000000604482015260640161091d565b6001600160a01b03838116600081815260056020908152604080832094871680845294825291829020805460ff191686151590811790915591519182527f17307eab39ab6107e8899845ad3d59bd9653f200f220920489ca2b5937696c31910160405180910390a3505050565b6125d98484846120b6565b6125e5848484846128e5565b611a7e5760405162461bcd60e51b815260040161091d906130bd565b6060816126255750506040805180820190915260018152600360fc1b602082015290565b8160005b811561264f578061263981612f48565b91506126489050600a8361307a565b9150612629565b60008167ffffffffffffffff81111561266a5761266a612d75565b6040519080825280601f01601f191660200182016040528015612694576020820181803683370190505b509050815b8515612721576126aa60018261304d565b905060006126b9600a8861307a565b6126c490600a612f29565b6126ce908861304d565b6126d990603061310f565b905060008160f81b9050808484815181106126f6576126f661301f565b60200101906001600160f81b031916908160001a905350612718600a8961307a565b97505050612699565b50949350505050565b6109798282604051806020016040528060008152506129f2565b600080808060646127578661013a613035565b6127619190613134565b905060006064612772876048613035565b61277c9190613134565b90506000606461278e88619982613035565b6127989190613134565b9050600a9550600a9450600a9350605f83106127d5576127b9605f8461304d565b6127c4906006612f29565b6127ce9087613035565b9550612822565b605083106127f35760506127e98488613035565b6127ce919061304d565b826014111580156128045750601e83105b1561282257600f6128158488613035565b61281f919061304d565b95505b605f821061285157612835605f8361304d565b612840906006612f29565b61284a9086613035565b945061289e565b6050831061286f5760506128658387613035565b61284a919061304d565b81600a111580156128805750601e82105b1561289e5760056128918387613035565b61289b919061304d565b94505b605081106128c35760506128b28286613035565b6128bc919061304d565b93506128db565b6128ce600a8261307a565b6128d89085613035565b93505b5050509193909250565b60006001600160a01b0384163b156129e757604051630a85bd0160e11b81526001600160a01b0385169063150b7a0290612929903390899088908890600401613148565b602060405180830381600087803b15801561294357600080fd5b505af1925050508015612973575060408051601f3d908101601f1916820190925261297091810190613185565b60015b6129cd573d8080156129a1576040519150601f19603f3d011682016040523d82523d6000602084013e6129a6565b606091505b5080516129c55760405162461bcd60e51b815260040161091d906130bd565b805181602001fd5b6001600160e01b031916630a85bd0160e11b1490506123af565b506001949350505050565b6129fc8383612a25565b612a0960008484846128e5565b610bb55760405162461bcd60e51b815260040161091d906130bd565b6001600160a01b038216612a7b5760405162461bcd60e51b815260206004820181905260248201527f4552433732313a206d696e7420746f20746865207a65726f2061646472657373604482015260640161091d565b6000818152600260205260409020546001600160a01b031615612ae05760405162461bcd60e51b815260206004820152601c60248201527f4552433732313a20746f6b656e20616c7265616479206d696e74656400000000604482015260640161091d565b6001600160a01b0382166000908152600360205260408120805460019290612b09908490613035565b909155505060008181526002602052604080822080546001600160a01b0319166001600160a01b03861690811790915590518392907fddf252ad1be2c89b69c2b068fc378daa952ba7f163c4a11628f55a4df523b3ef908290a45050565b60405180606001604052806003906020820280368337509192915050565b6001600160e01b031981168114611f7a57600080fd5b600060208284031215612bad57600080fd5b8135611ce181612b85565b60005b83811015612bd3578181015183820152602001612bbb565b83811115611a7e5750506000910152565b60008151808452612bfc816020860160208601612bb8565b601f01601f19169290920160200192915050565b602081526000611ce16020830184612be4565b600060208284031215612c3557600080fd5b5035919050565b80356001600160a01b038116811461105d57600080fd5b60008060408385031215612c6657600080fd5b612c6f83612c3c565b946020939093013593505050565b600080600060608486031215612c9257600080fd5b612c9b84612c3c565b9250612ca960208501612c3c565b9150604084013590509250925092565b60008060408385031215612ccc57600080fd5b82359150602083013560ff81168114612ce457600080fd5b809150509250929050565b600060208284031215612d0157600080fd5b611ce182612c3c565b60608101818360005b6003811015612d32578151835260209283019290910190600101612d13565b50505092915050565b8015158114611f7a57600080fd5b60008060408385031215612d5c57600080fd5b612d6583612c3c565b91506020830135612ce481612d3b565b634e487b7160e01b600052604160045260246000fd5b60008060008060808587031215612da157600080fd5b612daa85612c3c565b9350612db860208601612c3c565b925060408501359150606085013567ffffffffffffffff80821115612ddc57600080fd5b818701915087601f830112612df057600080fd5b813581811115612e0257612e02612d75565b604051601f8201601f19908116603f01168101908382118183101715612e2a57612e2a612d75565b816040528281528a6020848701011115612e4357600080fd5b82602086016020830137600060208483010152809550505050505092959194509250565b6020808252825182820181905260009190848201906040850190845b81811015612e9f57835183529284019291840191600101612e83565b50909695505050505050565b60008060408385031215612ebe57600080fd5b612ec783612c3c565b9150612ed560208401612c3c565b90509250929050565b6020808252818101527f4f776e61626c653a2063616c6c6572206973206e6f7420746865206f776e6572604082015260600190565b634e487b7160e01b600052601160045260246000fd5b6000816000190483118215151615612f4357612f43612f13565b500290565b6000600019821415612f5c57612f5c612f13565b5060010190565b600181811c90821680612f7757607f821691505b60208210811415610e6b57634e487b7160e01b600052602260045260246000fd5b600060208284031215612faa57600080fd5b5051919050565b600060208284031215612fc357600080fd5b8151611ce181612d3b565b60208082526031908201527f4552433732313a207472616e736665722063616c6c6572206973206e6f74206f6040820152701ddb995c881b9bdc88185c1c1c9bdd9959607a1b606082015260800190565b634e487b7160e01b600052603260045260246000fd5b6000821982111561304857613048612f13565b500190565b60008282101561305f5761305f612f13565b500390565b634e487b7160e01b600052601260045260246000fd5b60008261308957613089613064565b500490565b600083516130a0818460208801612bb8565b8351908301906130b4818360208801612bb8565b01949350505050565b60208082526032908201527f4552433732313a207472616e7366657220746f206e6f6e20455243373231526560408201527131b2b4bb32b91034b6b83632b6b2b73a32b960711b606082015260800190565b600060ff821660ff84168060ff0382111561312c5761312c612f13565b019392505050565b60008261314357613143613064565b500690565b6001600160a01b038581168252841660208201526040810183905260806060820181905260009061317b90830184612be4565b9695505050505050565b60006020828403121561319757600080fd5b8151611ce181612b8556fe68747470733a2f2f7777772e6b696e67646f6d63727970746f2e636f6d2f7469746c65732fa2646970667358221220c251b91d2e3d1fd55145830afe0f02dff6796a8f1a97aa1fc9f4764a2807ec3364736f6c63430008090033",
  "immutableReferences": {},
  "source": "pragma solidity ^0.8;\r\n\r\nimport \"@openzeppelin/contracts/token/ERC721/ERC721.sol\";\r\nimport \"./KingdomBank.sol\";\r\n\r\ncontract KingdomTitles is ERC721, KingdomBank {\r\n    \r\n    uint16 constant public totalSupply = 10000;\r\n    uint constant public attackCooldown = 60 seconds;\r\n    uint constant public readyTimeStakeCooldown = 60 seconds;\r\n    string constant public baseUrl = \"https://www.kingdomcrypto.com/titles/\";\r\n\r\n    struct KingdomTitle {\r\n        uint attackPoints;\r\n        uint defensePoints;\r\n        uint readyTimeAttack;\r\n        // for staking we reset the cooldown timer every time something is staked using the assignMilitary function\r\n        uint readyTimeStake;\r\n        // additional features like attack, defense or money multiplier - makes an nft special\r\n        uint attackMultiplier;\r\n        uint defenseMultiplier;\r\n        uint moneyMultiplier;\r\n    }\r\n\r\n    KingdomTitle[totalSupply] public kingdomtitles;\r\n\r\n    mapping (uint => uint) public title2Rank;\r\n    uint internal titleCount;\r\n\r\n    mapping (address => uint[]) public address2ids;\r\n\r\n    constructor(KingdomSeedCoin kgdsc, KingdomAttackCoin kgdat, KingdomDefenseCoin kgddf) ERC721(\"Kingdom Titles\", \"KGD\") KingdomBank(kgdsc, kgdat, kgddf) {\r\n        titleCount = 0;\r\n    }\r\n\r\n    function uint2str(uint _i) internal pure returns (string memory _uintAsString) {\r\n        if (_i == 0) {\r\n            return \"0\";\r\n        }\r\n        uint j = _i;\r\n        uint len;\r\n        while (j != 0) {\r\n            len++;\r\n            j /= 10;\r\n        }\r\n        bytes memory bstr = new bytes(len);\r\n        uint k = len;\r\n        while (_i != 0) {\r\n            k = k-1;\r\n            uint8 temp = (48 + uint8(_i - _i / 10 * 10));\r\n            bytes1 b1 = bytes1(temp);\r\n            bstr[k] = b1;\r\n            _i /= 10;\r\n        }\r\n        return string(bstr);\r\n    }\r\n\r\n    function currentPosition() public view returns (uint256) {\r\n        return uint256(titleCount);\r\n    }\r\n\r\n    function _calculateMultiplierPoints(uint positionId) internal pure returns (uint attackMultiplier, uint defenseMultiplier, uint moneyMultiplier) {\r\n        uint attack = (positionId + 314) % 100;\r\n        uint defense = (positionId + 72) % 100;\r\n        uint money = (positionId + 39298) % 100;\r\n\r\n        attackMultiplier = 10;\r\n        defenseMultiplier = 10;\r\n        moneyMultiplier = 10;\r\n        // attack logic\r\n        if (attack >= 95) {\r\n            attackMultiplier = uint(attackMultiplier + 6 * (attack - 95));\r\n        } else if (attack >= 80) {\r\n            attackMultiplier = uint(attackMultiplier + attack - 80);\r\n        } else if (20 <= attack && attack < 30) {\r\n            attackMultiplier = uint(attackMultiplier + attack - 15);\r\n        }\r\n        // defense logic\r\n        if (defense >= 95) {\r\n            defenseMultiplier = uint(defenseMultiplier + 6 * (defense - 95));\r\n        } else if (attack >= 80) {\r\n            defenseMultiplier = uint(defenseMultiplier + defense - 80);\r\n        } else if (10 <= defense && defense < 30) {\r\n            defenseMultiplier = uint(defenseMultiplier + defense - 5);\r\n        }\r\n        // money logic\r\n        if (money >= 80) {\r\n            moneyMultiplier = uint(moneyMultiplier + money - 80);\r\n        } else {\r\n            moneyMultiplier = uint(moneyMultiplier + money / 10);\r\n        }\r\n        return (attackMultiplier, defenseMultiplier, moneyMultiplier);\r\n    }\r\n\r\n    function awardItem(address player) public onlyOwner returns (uint256) {\r\n        require(titleCount < totalSupply, \"uhoh, no titles available anymore\");  \r\n\r\n        uint256 newItemId = titleCount + 1;\r\n        _safeMint(player, newItemId);\r\n        // actually not necessary, because we override the tokenURI function later on\r\n        // _setTokenURI(newItemId, BASEURL + uint2str(newItemId));\r\n\r\n        // mark it down in address2ids\r\n        address2ids[player].push(newItemId);\r\n\r\n        // then add data to storage\r\n        title2Rank[newItemId] = newItemId; // at first rank equals titleId\r\n        (uint attackm, uint defensem, uint moneym) = _calculateMultiplierPoints(newItemId);\r\n        kingdomtitles[newItemId] = KingdomTitle(0 , 0 ,block.timestamp + attackCooldown, block.timestamp + readyTimeStakeCooldown, attackm, defensem, moneym);\r\n\r\n        titleCount++;\r\n\r\n        return newItemId;\r\n    }\r\n\r\n    function reverseItem(uint256 itemId) public onlyOwner returns (bool) {\r\n        address ownerOfItem = ownerOf(itemId);\r\n        _transfer(ownerOfItem, address(this), itemId);\r\n        uint pos = 6666;\r\n        for (uint i = 0; i < address2ids[ownerOfItem].length; i++) {\r\n            if (address2ids[ownerOfItem][i] == itemId) {\r\n                pos = i;\r\n                break;\r\n            }\r\n        }\r\n        require(pos != 6666, \"reverse item function... item not found in address2ids\");\r\n        delete address2ids[ownerOfItem][pos];\r\n        return true;\r\n    }\r\n\r\n    function tokenURI(uint256 tokenId) public view virtual override returns (string memory) {\r\n        require(_exists(tokenId), \"ERC721URIStorage: URI query for nonexistent token\");\r\n        return string(abi.encodePacked(baseUrl, uint2str(tokenId)));\r\n    }\r\n\r\n    function getRanksOfAddress(address _own) public view returns (uint256[] memory) {\r\n        uint256[] memory ids = address2ids[_own];\r\n        uint256[] memory ranks = new uint256[](ids.length);\r\n        if (ids.length != 0) {\r\n            for (uint i = 0; i < ids.length; i++) {\r\n                ranks[i] = title2Rank[ids[i]];\r\n            }\r\n        }\r\n        return ranks;\r\n    }\r\n\r\n    function getRankOfId(uint _id) public view returns (uint id) {\r\n        return title2Rank[_id];\r\n    }\r\n\r\n    function getIdOfRank(uint _rank) public view returns (uint id) {\r\n        // is supposed to be cheaper compared to having another mapping\r\n        id = 0;\r\n        for (uint i = 0; i < titleCount; i++) {\r\n            if (title2Rank[i] == _rank) {\r\n                id = i;\r\n                break;\r\n            }\r\n        }\r\n        return id;\r\n    }\r\n\r\n    function getIdsOfAddress(address _own) public view returns (uint256[] memory ownedIds) {\r\n        return address2ids[_own];\r\n    }\r\n\r\n    function __payoutShareCalculator(uint256 _id) internal pure returns (uint256) {\r\n        // the formula that equally distributes all money according to rank is:\r\n        // (-(5/10)*x + 5000 ) / 50000 / 500\r\n        // which is simplified (5000 - (x/2)) / 25 000 000\r\n        // returns a float between 0 and 1, lets see if this works\r\n        return (5000 - (_id/2)) / 25000000;\r\n    }\r\n\r\n    // this function should be called once per month to pay out current holding of attack and defense coins\r\n    function payOutDividends() public onlyOwner payable {\r\n        // we need to do this for every coin, and only if the person owns a title. pay out dividend for staked title amounts only\r\n        uint256 totalOwnedByContract = address(this).balance;\r\n        // higher ranking titles should be awarded more\r\n        for (uint i = 0; i < kingdomtitles.length; i++) {\r\n            // get current owner\r\n            address owner = ownerOf(i);\r\n            // get kgdat, kgddf balance\r\n            uint256 amount = __payoutShareCalculator(i) * totalOwnedByContract;\r\n            // transfer to owner\r\n            _transfer(address(this), owner, amount);\r\n            }\r\n        }\r\n\r\n        // next do the kingdomseedcoin balances\r\n}",
  "sourcePath": "D:\\Github Code\\truffle-gaanche-demo\\contracts\\KingdomTitles.sol",
  "compiler": {
    "name": "solc",
    "version": "0.8.9+commit.e5eed63a.Emscripten.clang"
  },
  "schemaVersion": "3.4.4",
  "updatedAt": "2022-05-27T11:54:36.616Z",
  "devdoc": {
    "kind": "dev",
    "methods": {
      "approve(address,uint256)": {
        "details": "See {IERC721-approve}."
      },
      "balanceOf(address)": {
        "details": "See {IERC721-balanceOf}."
      },
      "getApproved(uint256)": {
        "details": "See {IERC721-getApproved}."
      },
      "isApprovedForAll(address,address)": {
        "details": "See {IERC721-isApprovedForAll}."
      },
      "name()": {
        "details": "See {IERC721Metadata-name}."
      },
      "owner()": {
        "details": "Returns the address of the current owner."
      },
      "ownerOf(uint256)": {
        "details": "See {IERC721-ownerOf}."
      },
      "renounceOwnership()": {
        "details": "Leaves the contract without owner. It will not be possible to call `onlyOwner` functions anymore. Can only be called by the current owner. NOTE: Renouncing ownership will leave the contract without an owner, thereby removing any functionality that is only available to the owner."
      },
      "safeTransferFrom(address,address,uint256)": {
        "details": "See {IERC721-safeTransferFrom}."
      },
      "safeTransferFrom(address,address,uint256,bytes)": {
        "details": "See {IERC721-safeTransferFrom}."
      },
      "setApprovalForAll(address,bool)": {
        "details": "See {IERC721-setApprovalForAll}."
      },
      "supportsInterface(bytes4)": {
        "details": "See {IERC165-supportsInterface}."
      },
      "symbol()": {
        "details": "See {IERC721Metadata-symbol}."
      },
      "tokenURI(uint256)": {
        "details": "See {IERC721Metadata-tokenURI}."
      },
      "transferFrom(address,address,uint256)": {
        "details": "See {IERC721-transferFrom}."
      },
      "transferOwnership(address)": {
        "details": "Transfers ownership of the contract to a new account (`newOwner`). Can only be called by the current owner."
      }
    },
    "version": 1
  },
  "userdoc": {
    "kind": "user",
    "methods": {},
    "version": 1
  }
}