{
  "contractName": "KingdomGameMechanic",
  "abi": [
    {
      "inputs": [
        {
          "internalType": "contract KingdomSeedCoin",
          "name": "kgdsc",
          "type": "address"
        },
        {
          "internalType": "contract KingdomAttackCoin",
          "name": "kgdat",
          "type": "address"
        },
        {
          "internalType": "contract KingdomDefenseCoin",
          "name": "kgddf",
          "type": "address"
        }
      ],
      "stateMutability": "nonpayable",
      "type": "constructor"
    },
    {
      "anonymous": false,
      "inputs": [
        {
          "indexed": true,
          "internalType": "address",
          "name": "owner",
          "type": "address"
        },
        {
          "indexed": true,
          "internalType": "address",
          "name": "approved",
          "type": "address"
        },
        {
          "indexed": true,
          "internalType": "uint256",
          "name": "tokenId",
          "type": "uint256"
        }
      ],
      "name": "Approval",
      "type": "event"
    },
    {
      "anonymous": false,
      "inputs": [
        {
          "indexed": true,
          "internalType": "address",
          "name": "owner",
          "type": "address"
        },
        {
          "indexed": true,
          "internalType": "address",
          "name": "operator",
          "type": "address"
        },
        {
          "indexed": false,
          "internalType": "bool",
          "name": "approved",
          "type": "bool"
        }
      ],
      "name": "ApprovalForAll",
      "type": "event"
    },
    {
      "anonymous": false,
      "inputs": [
        {
          "indexed": false,
          "internalType": "address",
          "name": "attacker",
          "type": "address"
        },
        {
          "indexed": false,
          "internalType": "address",
          "name": "defender",
          "type": "address"
        },
        {
          "indexed": false,
          "internalType": "uint16",
          "name": "attacker_id",
          "type": "uint16"
        },
        {
          "indexed": false,
          "internalType": "uint16",
          "name": "defender_id",
          "type": "uint16"
        },
        {
          "indexed": false,
          "internalType": "uint256",
          "name": "attackPointsBefore",
          "type": "uint256"
        },
        {
          "indexed": false,
          "internalType": "uint256",
          "name": "defensePointsBefore",
          "type": "uint256"
        },
        {
          "indexed": false,
          "internalType": "uint256",
          "name": "deadAttackers",
          "type": "uint256"
        },
        {
          "indexed": false,
          "internalType": "uint256",
          "name": "deadDefenders",
          "type": "uint256"
        },
        {
          "indexed": false,
          "internalType": "uint256",
          "name": "denominator",
          "type": "uint256"
        },
        {
          "indexed": false,
          "internalType": "uint256",
          "name": "remainder",
          "type": "uint256"
        },
        {
          "indexed": false,
          "internalType": "bool",
          "name": "won",
          "type": "bool"
        }
      ],
      "name": "Attack",
      "type": "event"
    },
    {
      "anonymous": false,
      "inputs": [
        {
          "indexed": true,
          "internalType": "address",
          "name": "_to",
          "type": "address"
        },
        {
          "indexed": false,
          "internalType": "uint256",
          "name": "_amount",
          "type": "uint256"
        }
      ],
      "name": "HarvestAttackPoints",
      "type": "event"
    },
    {
      "anonymous": false,
      "inputs": [
        {
          "indexed": true,
          "internalType": "address",
          "name": "_to",
          "type": "address"
        },
        {
          "indexed": false,
          "internalType": "uint256",
          "name": "_amount",
          "type": "uint256"
        }
      ],
      "name": "HarvestDefensePoints",
      "type": "event"
    },
    {
      "anonymous": false,
      "inputs": [
        {
          "indexed": true,
          "internalType": "address",
          "name": "_to",
          "type": "address"
        },
        {
          "indexed": false,
          "internalType": "uint256",
          "name": "_amount",
          "type": "uint256"
        },
        {
          "indexed": false,
          "internalType": "uint256",
          "name": "_beforeBurn",
          "type": "uint256"
        }
      ],
      "name": "HarvestRemainingSeedCoins",
      "type": "event"
    },
    {
      "anonymous": false,
      "inputs": [
        {
          "indexed": false,
          "internalType": "uint256",
          "name": "error",
          "type": "uint256"
        }
      ],
      "name": "Log",
      "type": "event"
    },
    {
      "anonymous": false,
      "inputs": [
        {
          "indexed": false,
          "internalType": "address",
          "name": "attacker",
          "type": "address"
        },
        {
          "indexed": false,
          "internalType": "address",
          "name": "defender",
          "type": "address"
        },
        {
          "indexed": false,
          "internalType": "uint16",
          "name": "new_attacker_id",
          "type": "uint16"
        }
      ],
      "name": "Sacked",
      "type": "event"
    },
    {
      "anonymous": false,
      "inputs": [
        {
          "indexed": true,
          "internalType": "address",
          "name": "from",
          "type": "address"
        },
        {
          "indexed": true,
          "internalType": "address",
          "name": "to",
          "type": "address"
        },
        {
          "indexed": true,
          "internalType": "uint256",
          "name": "tokenId",
          "type": "uint256"
        }
      ],
      "name": "Transfer",
      "type": "event"
    },
    {
      "anonymous": false,
      "inputs": [
        {
          "indexed": true,
          "internalType": "address",
          "name": "_from",
          "type": "address"
        },
        {
          "indexed": false,
          "internalType": "uint256",
          "name": "_amount",
          "type": "uint256"
        }
      ],
      "name": "enterStakingAttackPoints",
      "type": "event"
    },
    {
      "anonymous": false,
      "inputs": [
        {
          "indexed": true,
          "internalType": "address",
          "name": "_from",
          "type": "address"
        },
        {
          "indexed": false,
          "internalType": "uint256",
          "name": "_amount",
          "type": "uint256"
        }
      ],
      "name": "enterStakingDefensePoints",
      "type": "event"
    },
    {
      "inputs": [
        {
          "internalType": "address",
          "name": "",
          "type": "address"
        },
        {
          "internalType": "uint256",
          "name": "",
          "type": "uint256"
        }
      ],
      "name": "address2ids",
      "outputs": [
        {
          "internalType": "uint256",
          "name": "",
          "type": "uint256"
        }
      ],
      "stateMutability": "view",
      "type": "function"
    },
    {
      "inputs": [
        {
          "internalType": "address",
          "name": "to",
          "type": "address"
        },
        {
          "internalType": "uint256",
          "name": "tokenId",
          "type": "uint256"
        }
      ],
      "name": "approve",
      "outputs": [],
      "stateMutability": "nonpayable",
      "type": "function"
    },
    {
      "inputs": [],
      "name": "attackCooldown",
      "outputs": [
        {
          "internalType": "uint256",
          "name": "",
          "type": "uint256"
        }
      ],
      "stateMutability": "view",
      "type": "function"
    },
    {
      "inputs": [
        {
          "internalType": "address",
          "name": "player",
          "type": "address"
        }
      ],
      "name": "awardItem",
      "outputs": [
        {
          "internalType": "uint256",
          "name": "",
          "type": "uint256"
        }
      ],
      "stateMutability": "nonpayable",
      "type": "function"
    },
    {
      "inputs": [
        {
          "internalType": "address",
          "name": "owner",
          "type": "address"
        }
      ],
      "name": "balanceOf",
      "outputs": [
        {
          "internalType": "uint256",
          "name": "",
          "type": "uint256"
        }
      ],
      "stateMutability": "view",
      "type": "function"
    },
    {
      "inputs": [],
      "name": "baseUrl",
      "outputs": [
        {
          "internalType": "string",
          "name": "",
          "type": "string"
        }
      ],
      "stateMutability": "view",
      "type": "function"
    },
    {
      "inputs": [],
      "name": "buyForETH",
      "outputs": [],
      "stateMutability": "payable",
      "type": "function"
    },
    {
      "inputs": [],
      "name": "currentPosition",
      "outputs": [
        {
          "internalType": "uint256",
          "name": "",
          "type": "uint256"
        }
      ],
      "stateMutability": "view",
      "type": "function"
    },
    {
      "inputs": [],
      "name": "exchangeRate",
      "outputs": [
        {
          "internalType": "uint8",
          "name": "",
          "type": "uint8"
        }
      ],
      "stateMutability": "view",
      "type": "function"
    },
    {
      "inputs": [],
      "name": "exchangeRate_Attackpoints",
      "outputs": [
        {
          "internalType": "uint8",
          "name": "",
          "type": "uint8"
        }
      ],
      "stateMutability": "view",
      "type": "function"
    },
    {
      "inputs": [],
      "name": "exchangeRate_Burnpct",
      "outputs": [
        {
          "internalType": "uint8",
          "name": "",
          "type": "uint8"
        }
      ],
      "stateMutability": "view",
      "type": "function"
    },
    {
      "inputs": [],
      "name": "exchangeRate_Defensepoints",
      "outputs": [
        {
          "internalType": "uint8",
          "name": "",
          "type": "uint8"
        }
      ],
      "stateMutability": "view",
      "type": "function"
    },
    {
      "inputs": [
        {
          "internalType": "uint256",
          "name": "tokenId",
          "type": "uint256"
        }
      ],
      "name": "getApproved",
      "outputs": [
        {
          "internalType": "address",
          "name": "",
          "type": "address"
        }
      ],
      "stateMutability": "view",
      "type": "function"
    },
    {
      "inputs": [],
      "name": "getCurrentStakes",
      "outputs": [
        {
          "internalType": "uint256[2]",
          "name": "",
          "type": "uint256[2]"
        }
      ],
      "stateMutability": "view",
      "type": "function"
    },
    {
      "inputs": [],
      "name": "getTimeUntilStakingDone",
      "outputs": [
        {
          "internalType": "uint256[2]",
          "name": "timeuntildone",
          "type": "uint256[2]"
        }
      ],
      "stateMutability": "view",
      "type": "function"
    },
    {
      "inputs": [],
      "name": "harvestAll",
      "outputs": [],
      "stateMutability": "nonpayable",
      "type": "function"
    },
    {
      "inputs": [
        {
          "internalType": "address",
          "name": "owner",
          "type": "address"
        },
        {
          "internalType": "address",
          "name": "operator",
          "type": "address"
        }
      ],
      "name": "isApprovedForAll",
      "outputs": [
        {
          "internalType": "bool",
          "name": "",
          "type": "bool"
        }
      ],
      "stateMutability": "view",
      "type": "function"
    },
    {
      "inputs": [],
      "name": "justSendETH",
      "outputs": [
        {
          "internalType": "uint256",
          "name": "",
          "type": "uint256"
        }
      ],
      "stateMutability": "payable",
      "type": "function"
    },
    {
      "inputs": [],
      "name": "kgdat",
      "outputs": [
        {
          "internalType": "contract KingdomAttackCoin",
          "name": "",
          "type": "address"
        }
      ],
      "stateMutability": "view",
      "type": "function"
    },
    {
      "inputs": [],
      "name": "kgddf",
      "outputs": [
        {
          "internalType": "contract KingdomDefenseCoin",
          "name": "",
          "type": "address"
        }
      ],
      "stateMutability": "view",
      "type": "function"
    },
    {
      "inputs": [],
      "name": "kgdsc",
      "outputs": [
        {
          "internalType": "contract KingdomSeedCoin",
          "name": "",
          "type": "address"
        }
      ],
      "stateMutability": "view",
      "type": "function"
    },
    {
      "inputs": [
        {
          "internalType": "uint256",
          "name": "",
          "type": "uint256"
        }
      ],
      "name": "kingdomtitles",
      "outputs": [
        {
          "internalType": "uint256",
          "name": "attackPoints",
          "type": "uint256"
        },
        {
          "internalType": "uint256",
          "name": "defensePoints",
          "type": "uint256"
        },
        {
          "internalType": "uint256",
          "name": "readyTimeAttack",
          "type": "uint256"
        }
      ],
      "stateMutability": "view",
      "type": "function"
    },
    {
      "inputs": [],
      "name": "name",
      "outputs": [
        {
          "internalType": "string",
          "name": "",
          "type": "string"
        }
      ],
      "stateMutability": "view",
      "type": "function"
    },
    {
      "inputs": [
        {
          "internalType": "uint256",
          "name": "tokenId",
          "type": "uint256"
        }
      ],
      "name": "ownerOf",
      "outputs": [
        {
          "internalType": "address",
          "name": "",
          "type": "address"
        }
      ],
      "stateMutability": "view",
      "type": "function"
    },
    {
      "inputs": [
        {
          "internalType": "uint256",
          "name": "nrSeedCoins",
          "type": "uint256"
        },
        {
          "internalType": "uint8",
          "name": "targetCoin",
          "type": "uint8"
        }
      ],
      "name": "plantSeeds",
      "outputs": [],
      "stateMutability": "nonpayable",
      "type": "function"
    },
    {
      "inputs": [
        {
          "internalType": "address",
          "name": "_own",
          "type": "address"
        }
      ],
      "name": "returnIdsOfAddress",
      "outputs": [
        {
          "internalType": "uint256[]",
          "name": "ownedIds",
          "type": "uint256[]"
        }
      ],
      "stateMutability": "view",
      "type": "function"
    },
    {
      "inputs": [
        {
          "internalType": "uint256",
          "name": "itemId",
          "type": "uint256"
        }
      ],
      "name": "reverseItem",
      "outputs": [
        {
          "internalType": "bool",
          "name": "",
          "type": "bool"
        }
      ],
      "stateMutability": "nonpayable",
      "type": "function"
    },
    {
      "inputs": [
        {
          "internalType": "address",
          "name": "from",
          "type": "address"
        },
        {
          "internalType": "address",
          "name": "to",
          "type": "address"
        },
        {
          "internalType": "uint256",
          "name": "tokenId",
          "type": "uint256"
        }
      ],
      "name": "safeTransferFrom",
      "outputs": [],
      "stateMutability": "nonpayable",
      "type": "function"
    },
    {
      "inputs": [
        {
          "internalType": "address",
          "name": "from",
          "type": "address"
        },
        {
          "internalType": "address",
          "name": "to",
          "type": "address"
        },
        {
          "internalType": "uint256",
          "name": "tokenId",
          "type": "uint256"
        },
        {
          "internalType": "bytes",
          "name": "_data",
          "type": "bytes"
        }
      ],
      "name": "safeTransferFrom",
      "outputs": [],
      "stateMutability": "nonpayable",
      "type": "function"
    },
    {
      "inputs": [
        {
          "internalType": "address",
          "name": "operator",
          "type": "address"
        },
        {
          "internalType": "bool",
          "name": "approved",
          "type": "bool"
        }
      ],
      "name": "setApprovalForAll",
      "outputs": [],
      "stateMutability": "nonpayable",
      "type": "function"
    },
    {
      "inputs": [],
      "name": "stakingPeriod",
      "outputs": [
        {
          "internalType": "uint256",
          "name": "",
          "type": "uint256"
        }
      ],
      "stateMutability": "view",
      "type": "function"
    },
    {
      "inputs": [
        {
          "internalType": "bytes4",
          "name": "interfaceId",
          "type": "bytes4"
        }
      ],
      "name": "supportsInterface",
      "outputs": [
        {
          "internalType": "bool",
          "name": "",
          "type": "bool"
        }
      ],
      "stateMutability": "view",
      "type": "function"
    },
    {
      "inputs": [],
      "name": "symbol",
      "outputs": [
        {
          "internalType": "string",
          "name": "",
          "type": "string"
        }
      ],
      "stateMutability": "view",
      "type": "function"
    },
    {
      "inputs": [
        {
          "internalType": "uint256",
          "name": "_tokenId",
          "type": "uint256"
        }
      ],
      "name": "tokenMetadata",
      "outputs": [
        {
          "internalType": "string",
          "name": "infoUrl",
          "type": "string"
        }
      ],
      "stateMutability": "view",
      "type": "function"
    },
    {
      "inputs": [
        {
          "internalType": "uint256",
          "name": "tokenId",
          "type": "uint256"
        }
      ],
      "name": "tokenURI",
      "outputs": [
        {
          "internalType": "string",
          "name": "",
          "type": "string"
        }
      ],
      "stateMutability": "view",
      "type": "function"
    },
    {
      "inputs": [],
      "name": "totalSupply",
      "outputs": [
        {
          "internalType": "uint16",
          "name": "",
          "type": "uint16"
        }
      ],
      "stateMutability": "view",
      "type": "function"
    },
    {
      "inputs": [
        {
          "internalType": "address",
          "name": "from",
          "type": "address"
        },
        {
          "internalType": "address",
          "name": "to",
          "type": "address"
        },
        {
          "internalType": "uint256",
          "name": "tokenId",
          "type": "uint256"
        }
      ],
      "name": "transferFrom",
      "outputs": [],
      "stateMutability": "nonpayable",
      "type": "function"
    },
    {
      "inputs": [
        {
          "internalType": "uint16",
          "name": "id",
          "type": "uint16"
        }
      ],
      "name": "getServants",
      "outputs": [
        {
          "internalType": "uint16",
          "name": "left",
          "type": "uint16"
        },
        {
          "internalType": "uint16",
          "name": "right",
          "type": "uint16"
        }
      ],
      "stateMutability": "view",
      "type": "function"
    },
    {
      "inputs": [
        {
          "internalType": "uint16",
          "name": "id",
          "type": "uint16"
        }
      ],
      "name": "getBoss",
      "outputs": [
        {
          "internalType": "uint16",
          "name": "bossid",
          "type": "uint16"
        }
      ],
      "stateMutability": "view",
      "type": "function"
    },
    {
      "inputs": [
        {
          "internalType": "uint32",
          "name": "titleId",
          "type": "uint32"
        }
      ],
      "name": "getTitleStats",
      "outputs": [
        {
          "internalType": "uint256",
          "name": "attackPoints",
          "type": "uint256"
        },
        {
          "internalType": "uint256",
          "name": "defensePoints",
          "type": "uint256"
        },
        {
          "internalType": "bool",
          "name": "ready4attack",
          "type": "bool"
        }
      ],
      "stateMutability": "view",
      "type": "function"
    },
    {
      "inputs": [
        {
          "internalType": "uint256",
          "name": "nrCoins",
          "type": "uint256"
        },
        {
          "internalType": "uint32",
          "name": "titleId",
          "type": "uint32"
        },
        {
          "internalType": "uint8",
          "name": "coinType",
          "type": "uint8"
        }
      ],
      "name": "assignMilitaryToTitle",
      "outputs": [],
      "stateMutability": "nonpayable",
      "type": "function"
    },
    {
      "inputs": [
        {
          "internalType": "uint16",
          "name": "titleId",
          "type": "uint16"
        }
      ],
      "name": "attackBoss",
      "outputs": [],
      "stateMutability": "nonpayable",
      "type": "function"
    }
  ],
  "bytecode": "0x6006805463ffffffff1916630a080a64179055603c6007819055600e5560e0604052602560808181529062003e9460a03980516200004691600f9160209091019062000168565b503480156200005457600080fd5b5060405162003eb938038062003eb9833981016040819052620000779162000227565b8282828282826040518060400160405280600e81526020016d4b696e67646f6d205469746c657360901b8152506040518060400160405280600381526020016212d1d160ea1b8152508160009080519060200190620000d892919062000168565b508051620000ee90600190602084019062000168565b5050600880546001600160a01b039586166001600160a01b031991821617909155600980549486169482169490941790935550600a8054919093169116179055620001363390565b600c80546001600160a01b0319166001600160a01b03929092169190911790555050426175415550620002b892505050565b82805462000176906200027b565b90600052602060002090601f0160209004810192826200019a5760008555620001e5565b82601f10620001b557805160ff1916838001178555620001e5565b82800160010185558215620001e5579182015b82811115620001e5578251825591602001919060010190620001c8565b50620001f3929150620001f7565b5090565b5b80821115620001f35760008155600101620001f8565b6001600160a01b03811681146200022457600080fd5b50565b6000806000606084860312156200023d57600080fd5b83516200024a816200020e565b60208501519093506200025d816200020e565b604085015190925062000270816200020e565b809150509250925092565b600181811c908216806200029057607f821691505b60208210811415620002b257634e487b7160e01b600052602260045260246000fd5b50919050565b613bcc80620002c86000396000f3fe6080604052600436106102515760003560e01c80636a7a2fa311610139578063c03d5b47116100b6578063e046670b1161007a578063e046670b1461073e578063e73961f514610744578063e985e9c51461075a578063f08b7b731461077a578063f2fb21201461079a578063fa4facdb146107ba57600080fd5b8063c03d5b47146106b4578063c669b710146106ca578063c87b56dd146106e9578063d4637ddb14610709578063d534d6361461072957600080fd5b80638ed955b9116100fd5780638ed955b91461062a578063900294be1461063f57806395d89b411461065f578063a22cb46514610674578063b88d4fde1461069457600080fd5b80636a7a2fa31461057957806370a082311461059a5780637758429f146105c85780637c62539a146105e857806384505e6a1461060857600080fd5b80632c067d6c116101d257806345405f541161019657806345405f541461048c5780635053f6b8146104ac5780635bcabf04146104e9578063627ce3b8146104fe5780636352211e146105395780636914db601461055957600080fd5b80632c067d6c146103e05780633ba0b9a914610400578063411ee0d01461042c57806342842e0e1461044c578063429c3edf1461046c57600080fd5b806313245c951161021957806313245c951461030f57806318160ddd1461033c5780631cf95ed61461036557806323b872dd146103a05780632756985c146103c057600080fd5b806301ffc9a71461025657806306fdde031461028b578063081812fc146102ad578063095ea7b3146102e557806310f7e4ed14610307575b600080fd5b34801561026257600080fd5b506102766102713660046133bf565b6107cf565b60405190151581526020015b60405180910390f35b34801561029757600080fd5b506102a0610821565b604051610282919061343b565b3480156102b957600080fd5b506102cd6102c836600461344e565b6108b3565b6040516001600160a01b039091168152602001610282565b3480156102f157600080fd5b5061030561030036600461347e565b61094d565b005b610305610a63565b34801561031b57600080fd5b5061032f61032a3660046134a8565b610ccf565b60405161028291906134c3565b34801561034857600080fd5b5061035261271081565b60405161ffff9091168152602001610282565b34801561037157600080fd5b5061038561038036600461344e565b610d3c565b60408051938452602084019290925290820152606001610282565b3480156103ac57600080fd5b506103056103bb366004613507565b610d64565b3480156103cc57600080fd5b506102766103db36600461344e565b610d95565b3480156103ec57600080fd5b506103056103fb366004613543565b610f29565b34801561040c57600080fd5b5060065461041a9060ff1681565b60405160ff9091168152602001610282565b34801561043857600080fd5b50600a546102cd906001600160a01b031681565b34801561045857600080fd5b50610305610467366004613507565b611391565b34801561047857600080fd5b50610305610487366004613578565b6113ac565b34801561049857600080fd5b506103056104a73660046135af565b6117cc565b3480156104b857600080fd5b506104cc6104c73660046135eb565b611c0c565b604080519384526020840192909252151590820152606001610282565b3480156104f557600080fd5b506102a0611cef565b34801561050a57600080fd5b5061051e610519366004613543565b611d7d565b6040805161ffff938416815292909116602083015201610282565b34801561054557600080fd5b506102cd61055436600461344e565b611e17565b34801561056557600080fd5b506102a061057436600461344e565b611e8e565b34801561058557600080fd5b5060065461041a906301000000900460ff1681565b3480156105a657600080fd5b506105ba6105b53660046134a8565b611ec2565b604051908152602001610282565b3480156105d457600080fd5b506103526105e3366004613543565b611f49565b3480156105f457600080fd5b506009546102cd906001600160a01b031681565b34801561061457600080fd5b5061061d61200e565b6040516102829190613606565b34801561063657600080fd5b506103056120f8565b34801561064b57600080fd5b506008546102cd906001600160a01b031681565b34801561066b57600080fd5b506102a06123bf565b34801561068057600080fd5b5061030561068f366004613645565b6123ce565b3480156106a057600080fd5b506103056106af366004613692565b612493565b3480156106c057600080fd5b506105ba60075481565b3480156106d657600080fd5b5060065461041a90610100900460ff1681565b3480156106f557600080fd5b506102a061070436600461344e565b6124c5565b34801561071557600080fd5b5060065461041a9062010000900460ff1681565b34801561073557600080fd5b506105ba6125ac565b476105ba565b34801561075057600080fd5b506105ba600e5481565b34801561076657600080fd5b5061027661077536600461376e565b6125bc565b34801561078657600080fd5b506105ba61079536600461347e565b6125ea565b3480156107a657600080fd5b506105ba6107b53660046134a8565b61261c565b3480156107c657600080fd5b5061061d61277f565b60006001600160e01b031982166380ac58cd60e01b148061080057506001600160e01b03198216635b5e139f60e01b145b8061081b57506301ffc9a760e01b6001600160e01b03198316145b92915050565b60606000805461083090613798565b80601f016020809104026020016040519081016040528092919081815260200182805461085c90613798565b80156108a95780601f1061087e576101008083540402835291602001916108a9565b820191906000526020600020905b81548152906001019060200180831161088c57829003601f168201915b5050505050905090565b6000818152600260205260408120546001600160a01b03166109315760405162461bcd60e51b815260206004820152602c60248201527f4552433732313a20617070726f76656420717565727920666f72206e6f6e657860448201526b34b9ba32b73a103a37b5b2b760a11b60648201526084015b60405180910390fd5b506000908152600460205260409020546001600160a01b031690565b600061095882611e17565b9050806001600160a01b0316836001600160a01b031614156109c65760405162461bcd60e51b815260206004820152602160248201527f4552433732313a20617070726f76616c20746f2063757272656e74206f776e656044820152603960f91b6064820152608401610928565b336001600160a01b03821614806109e257506109e281336125bc565b610a545760405162461bcd60e51b815260206004820152603860248201527f4552433732313a20617070726f76652063616c6c6572206973206e6f74206f7760448201527f6e6572206e6f7220617070726f76656420666f7220616c6c00000000000000006064820152608401610928565b610a5e838361285f565b505050565b6008546040516370a0823160e01b81523060048201526000916001600160a01b0316906370a082319060240160206040518083038186803b158015610aa757600080fd5b505afa158015610abb573d6000803e3d6000fd5b505050506040513d601f19601f82011682018060405250810190610adf91906137cd565b11610ae957600080fd5b60003411610b525760405162461bcd60e51b815260206004820152603060248201527f796f75206861766520746f2073656e6420736f6d652045544820746f2067657460448201526f1025b4b733b237b6a9b2b2b231b7b4b760811b6064820152608401610928565b6008546040516370a0823160e01b81523060048201526000916001600160a01b0316906370a082319060240160206040518083038186803b158015610b9657600080fd5b505afa158015610baa573d6000803e3d6000fd5b505050506040513d601f19601f82011682018060405250810190610bce91906137cd565b11610c335760405162461bcd60e51b815260206004820152602f60248201527f75686f682c2073727920692063616e27742073656e6420616e79206d6f72652060448201526e25b4b733b237b6a9b2b2b231b7b4b760891b6064820152608401610928565b600654600090610c469060ff16346137fc565b60085460405163a9059cbb60e01b8152336004820152602481018390529192506001600160a01b03169063a9059cbb90604401602060405180830381600087803b158015610c9357600080fd5b505af1158015610ca7573d6000803e3d6000fd5b505050506040513d601f19601f82011682018060405250810190610ccb919061381b565b5050565b6001600160a01b03811660009081526175406020908152604091829020805483518184028101840190945280845260609392830182828015610d3057602002820191906000526020600020905b815481526020019060010190808311610d1c575b50505050509050919050565b6010816127108110610d4d57600080fd5b600302018054600182015460029092015490925083565b610d6e33826128cd565b610d8a5760405162461bcd60e51b815260040161092890613838565b610a5e8383836129a4565b600c546000906001600160a01b03163314610ddd5760405162461bcd60e51b81526020600482015260086024820152673337b7b59037b33360c11b6044820152606401610928565b6000610de883611e17565b9050610df58130856129a4565b611a0a60005b6001600160a01b03831660009081526175406020526040902054811015610e75576001600160a01b038316600090815261754060205260409020805486919083908110610e4a57610e4a613889565b90600052602060002001541415610e6357809150610e75565b80610e6d8161389f565b915050610dfb565b5080611a0a1415610ee75760405162461bcd60e51b815260206004820152603660248201527f72657665727365206974656d2066756e6374696f6e2e2e2e206974656d206e6f6044820152757420666f756e6420696e20616464726573733269647360501b6064820152608401610928565b6001600160a01b038216600090815261754060205260409020805482908110610f1257610f12613889565b60009182526020822001555060019150505b919050565b6000610f3433611ec2565b11610f9c5760405162461bcd60e51b815260206004820152603260248201527f746f2075736520746869732066756e6374696f6e20796f75206e6565642061206044820152717469746c652120676f20627579206f6e652160701b6064820152608401610928565b610fa633306125bc565b6110185760405162461bcd60e51b815260206004820152603d60248201527f796f75206e65656420746f2063616c6c20736574417070726f76616c466f724160448201527f6c6c20696e206f7264657220746f20706c617920612067616d652e2e2e0000006064820152608401610928565b3361102661ffff8316611e17565b6001600160a01b03161461108e5760405162461bcd60e51b815260206004820152602960248201527f736f7272792c206f6e6c7920746865206f776e65722063616e2061747461636b6044820152682068697320626f737360b81b6064820152608401610928565b600061109982611f49565b905060006110aa8261ffff16611e17565b90506110b681306125bc565b61119a5760405162461bcd60e51b815260206004820152609760248201527f796f757220626f7373206e6565647320746f20736574417070726f766564466f60448201527f72416c6c20746f207468697320636f6e74726163742c206f746865727769736560648201527f20746865206d656368616e69736d20646f6573206e6f7420776f726b2e20486560848201527f206f6e6c79206561726e73206d6f6e6579206966207468617420617070726f7660a48201527f616c20686173206265656e207365742074686f7567682e00000000000000000060c482015260e401610928565b6001600160a01b0381163314156111f35760405162461bcd60e51b815260206004820152601e60248201527f626f792c20646f6e27742061747461636b20796f757273656c6620706c7a00006044820152606401610928565b6000806112038561ffff16611c0c565b9250509150806112895760405162461bcd60e51b815260206004820152604560248201527f796f75722061747461636b20636f6f6c646f776e206973206e6f7420646f776e60448201527f207965742e20706c656173652074727920616761696e20616674657220636f6f606482015264363237bbb760d91b608482015260a401610928565b60006112988561ffff16611c0c565b50915060009050600a6112ac83600f6137fc565b6112b691906138d0565b905060006112c2612b44565b90506000806112d18785612bab565b91509150600080600060038511156112f2575060009150869050600161136f565b600285111561132d5750869050600161130c600a8b6138d0565b9250605a8660ff161115611328576113256002896138d0565b91505b61136f565b60018511801561133d5750600584115b15611364575060016113506002896138d0565b915061135d60028b6138d0565b925061136f565b50505060ff83168060005b6113828d8d338e8e8d89898d8d8b612bd7565b50505050505050505050505050565b610a5e83838360405180602001604052806000815250612493565b6009546040516370a0823160e01b81523060048201526000916001600160a01b0316906370a082319060240160206040518083038186803b1580156113f057600080fd5b505afa158015611404573d6000803e3d6000fd5b505050506040513d601f19601f8201168201806040525081019061142891906137cd565b1161143257600080fd5b600a546040516370a0823160e01b81523060048201526000916001600160a01b0316906370a082319060240160206040518083038186803b15801561147657600080fd5b505afa15801561148a573d6000803e3d6000fd5b505050506040513d601f19601f820116820180604052508101906114ae91906137cd565b116114b857600080fd5b6008546040516370a0823160e01b81523360048201526000916001600160a01b0316906370a082319060240160206040518083038186803b1580156114fc57600080fd5b505afa158015611510573d6000803e3d6000fd5b505050506040513d601f19601f8201168201806040525081019061153491906137cd565b90508281101580156115465750600083115b6115ad5760405162461bcd60e51b815260206004820152603260248201527f796f7520646f6e2774206861766520656e6f7567682073656564636f696e732160448201527120627579206f7220747261646520736f6d6560701b6064820152608401610928565b60ff821615806115c057508160ff166001145b6116275760405162461bcd60e51b815260206004820152603260248201527f746172676574436f696e2068617320746f20626520303d61747461636b636f69604482015271371037b910189eb232b332b739b2b1b7b4b760711b6064820152608401610928565b60ff82166116695760405183815233907f44d00596aedd88fca0607c9a84113fd638c9a070d5ef8d77c072080b688d8e349060200160405180910390a26116ab565b8160ff16600114156116ab5760405183815233907f049b4d6e22c9904766197183f9dc1f362cefb04f39e3850a8b7d83ff2c26216f9060200160405180910390a25b6008546040516323b872dd60e01b8152336004820152306024820152604481018590526001600160a01b03909116906323b872dd90606401602060405180830381600087803b1580156116fd57600080fd5b505af1158015611711573d6000803e3d6000fd5b505050506040513d601f19601f82011682018060405250810190611735919061381b565b50600b6000336001600160a01b03166001600160a01b0316815260200190815260200160002060405180606001604052808581526020018460ff1681526020016007544261178391906138e4565b90528154600180820184556000938452602093849020835160039093020191825592820151928101805460ff191660ff9094169390931790925560400151600290910155505050565b60006117d66125ac565b90508263ffffffff1660001080156117f45750808363ffffffff1611155b6118405760405162461bcd60e51b815260206004820152601c60248201527f7469746c65206964206973206e6f74207965742061737369676e6564000000006044820152606401610928565b60ff8216158061185357508160ff166001145b6118ba5760405162461bcd60e51b815260206004820152603260248201527f6f7468657220636f696e207479706573206e6f7420737570706f72746564207960448201527165742c206d7573742062652030206f72203160701b6064820152608401610928565b60ff8216611a5f576009546040516370a0823160e01b815233600482015285916001600160a01b0316906370a082319060240160206040518083038186803b15801561190557600080fd5b505afa158015611919573d6000803e3d6000fd5b505050506040513d601f19601f8201168201806040525081019061193d91906137cd565b101561199a5760405162461bcd60e51b815260206004820152602660248201527f796f7520646f206e6f7420686176652074686174206d616e792061747461636b60448201526520636f696e7360d01b6064820152608401610928565b6009546040516323b872dd60e01b8152336004820152306024820152604481018690526001600160a01b03909116906323b872dd90606401602060405180830381600087803b1580156119ec57600080fd5b505af1158015611a00573d6000803e3d6000fd5b505050506040513d601f19601f82011682018060405250810190611a24919061381b565b508360108463ffffffff166127108110611a4057611a40613889565b600302018054600090611a549084906138e4565b90915550611c069050565b8160ff1660011415611c0657600a546040516370a0823160e01b815233600482015285916001600160a01b0316906370a082319060240160206040518083038186803b158015611aae57600080fd5b505afa158015611ac2573d6000803e3d6000fd5b505050506040513d601f19601f82011682018060405250810190611ae691906137cd565b1015611b445760405162461bcd60e51b815260206004820152602760248201527f796f7520646f206e6f7420686176652074686174206d616e7920646566656e736044820152666520636f696e7360c81b6064820152608401610928565b600a546040516323b872dd60e01b8152336004820152306024820152604481018690526001600160a01b03909116906323b872dd90606401602060405180830381600087803b158015611b9657600080fd5b505af1158015611baa573d6000803e3d6000fd5b505050506040513d601f19601f82011682018060405250810190611bce919061381b565b508360108463ffffffff166127108110611bea57611bea613889565b600302016001016000828254611c0091906138e4565b90915550505b50505050565b6000806000611c196125ac565b8463ffffffff161115611c7c5760405162461bcd60e51b815260206004820152602560248201527f7469746c65206964206e6f74207965742061737369676e65642c20676f20676560448201526474206f6e6560d81b6064820152608401610928565b60108463ffffffff166127108110611c9657611c96613889565b60030201549250601063ffffffff85166127108110611cb757611cb7613889565b600302016001015491504260108563ffffffff166127108110611cdc57611cdc613889565b6003020160020154101590509193909250565b600f8054611cfc90613798565b80601f0160208091040260200160405190810160405280929190818152602001828054611d2890613798565b8015611d755780601f10611d4a57610100808354040283529160200191611d75565b820191906000526020600020905b815481529060010190602001808311611d5857829003601f168201915b505050505081565b6000806000611d8a6125ac565b9050808461ffff161115611dd95760405162461bcd60e51b81526020600482015260166024820152751a59081a5cc81b9bdd081e595d08185cdcda59db995960521b6044820152606401610928565b611de284612dc9565b9250611ded84612dd6565b9150808361ffff161115611e0057600092505b808261ffff161115611e1157600091505b50915091565b6000818152600260205260408120546001600160a01b03168061081b5760405162461bcd60e51b815260206004820152602960248201527f4552433732313a206f776e657220717565727920666f72206e6f6e657869737460448201526832b73a103a37b5b2b760b91b6064820152608401610928565b6060600f611e9b83612dec565b604051602001611eac929190613918565b6040516020818303038152906040529050919050565b60006001600160a01b038216611f2d5760405162461bcd60e51b815260206004820152602a60248201527f4552433732313a2062616c616e636520717565727920666f7220746865207a65604482015269726f206164647265737360b01b6064820152608401610928565b506001600160a01b031660009081526003602052604090205490565b600080611f546125ac565b90508261ffff166000108015611f6e5750808361ffff1611155b611fb35760405162461bcd60e51b81526020600482015260166024820152751a59081a5cc81b9bdd081e595d08185cdcda59db995960521b6044820152606401610928565b8261ffff1660011415611fc95760009150612008565b611fd46002846139bf565b61ffff16611fee57611fe76002846139e0565b9150612008565b6002611ffb600185613a01565b61200591906139e0565b91505b50919050565b61201661338b565b60005b336000908152600b60205260409020548110156120f457336000908152600b6020526040812080548390811061205157612051613889565b600091825260209182902060408051606081018252600390930290910180548352600181015460ff16938301849052600201549082015291506120b35742816040015111156120aa5760168360005b60200201526120e1565b600083816120a0565b806020015160ff16600114156120e15742816040015111156120d95760178360016120a0565b600060208401525b50806120ec8161389f565b915050612019565b5090565b60005b336000908152600b60205260409020548110156123bc57336000908152600b6020526040812080548390811061213357612133613889565b600091825260209182902060408051606081018252600390930290910180548352600181015460ff169383019390935260029092015491810182905291504211156123a957602081015160ff1661226e57600654815160009161219f9161010090910460ff16906138d0565b90506121ae8260000151612f15565b60095460405163a9059cbb60e01b8152336004820152602481018390526001600160a01b039091169063a9059cbb90604401602060405180830381600087803b1580156121fa57600080fd5b505af115801561220e573d6000803e3d6000fd5b505050506040513d601f19601f82011682018060405250810190612232919061381b565b5060405181815233907f9fd4a9248425079a398923cd20daa8e0c103907fb89db4707cb4f2cc343f95469060200160405180910390a250612365565b806020015160ff166001141561236557600654815160009161229a916201000090910460ff16906138d0565b90506122a98260000151612f15565b600a5460405163a9059cbb60e01b8152336004820152602481018390526001600160a01b039091169063a9059cbb90604401602060405180830381600087803b1580156122f557600080fd5b505af1158015612309573d6000803e3d6000fd5b505050506040513d601f19601f8201168201806040525081019061232d919061381b565b5060405181815233907fd62aeb2df4f1c7a0c59e15c0dca22ccbcbe42ad0d0dbf99a22c0ad2551c5a1559060200160405180910390a2505b336000908152600b6020526040902080548390811061238657612386613889565b60009182526020822060039091020181815560018101805460ff19169055600201555b50806123b48161389f565b9150506120fb565b50565b60606001805461083090613798565b6001600160a01b0382163314156124275760405162461bcd60e51b815260206004820152601960248201527f4552433732313a20617070726f766520746f2063616c6c6572000000000000006044820152606401610928565b3360008181526005602090815260408083206001600160a01b03871680855290835292819020805460ff191686151590811790915590519081529192917f17307eab39ab6107e8899845ad3d59bd9653f200f220920489ca2b5937696c31910160405180910390a35050565b61249d33836128cd565b6124b95760405162461bcd60e51b815260040161092890613838565b611c068484848461300b565b6000818152600260205260409020546060906001600160a01b03166125445760405162461bcd60e51b815260206004820152602f60248201527f4552433732314d657461646174613a2055524920717565727920666f72206e6f60448201526e3732bc34b9ba32b73a103a37b5b2b760891b6064820152608401610928565b600061255b60408051602081019091526000815290565b9050600081511161257b5760405180602001604052806000815250612005565b806125858461303e565b604051602001612596929190613a24565b6040516020818303038152906040529392505050565b60006125b7600d5490565b905090565b6001600160a01b03918216600090815260056020908152604080832093909416825291909152205460ff1690565b617540602052816000526040600020818154811061260757600080fd5b90600052602060002001600091509150505481565b600c546000906001600160a01b031633146126645760405162461bcd60e51b81526020600482015260086024820152673337b7b59037b33360c11b6044820152606401610928565b612710612670600d5490565b106126c75760405162461bcd60e51b815260206004820152602160248201527f75686f682c206e6f207469746c657320617661696c61626c6520616e796d6f726044820152606560f81b6064820152608401610928565b6126d5600d80546001019055565b60006126e0600d5490565b90506126ec838261313c565b6001600160a01b038316600090815261754060209081526040808320805460018101825590845282842001849055805160608101825283815291820192909252600e54909182019061273e90426138e4565b9052601082612710811061275457612754613889565b8251600391909102919091019081556020820151600182015560409091015160029091015592915050565b61278761338b565b60008060005b336000908152600b602052604090205481101561284757336000908152600b602052604081208054839081106127c5576127c5613889565b600091825260209182902060408051606081018252600390930290910180548352600181015460ff169383018490526002015490820152915061281557805161280e90856138e4565b9350612834565b806020015160ff166001141561283457805161283190846138e4565b92505b508061283f8161389f565b91505061278d565b50604080518082019091529182526020820152919050565b600081815260046020526040902080546001600160a01b0319166001600160a01b038416908117909155819061289482611e17565b6001600160a01b03167f8c5be1e5ebec7d5bd14f71427d1e84f3dd0314c0f7b2291e5b200ac8c7c3b92560405160405180910390a45050565b6000818152600260205260408120546001600160a01b03166129465760405162461bcd60e51b815260206004820152602c60248201527f4552433732313a206f70657261746f7220717565727920666f72206e6f6e657860448201526b34b9ba32b73a103a37b5b2b760a11b6064820152608401610928565b600061295183611e17565b9050806001600160a01b0316846001600160a01b0316148061298c5750836001600160a01b0316612981846108b3565b6001600160a01b0316145b8061299c575061299c81856125bc565b949350505050565b826001600160a01b03166129b782611e17565b6001600160a01b031614612a1f5760405162461bcd60e51b815260206004820152602960248201527f4552433732313a207472616e73666572206f6620746f6b656e2074686174206960448201526839903737ba1037bbb760b91b6064820152608401610928565b6001600160a01b038216612a815760405162461bcd60e51b8152602060048201526024808201527f4552433732313a207472616e7366657220746f20746865207a65726f206164646044820152637265737360e01b6064820152608401610928565b612a8c60008261285f565b6001600160a01b0383166000908152600360205260408120805460019290612ab5908490613a53565b90915550506001600160a01b0382166000908152600360205260408120805460019290612ae39084906138e4565b909155505060008181526002602052604080822080546001600160a01b0319166001600160a01b0386811691821790925591518493918716917fddf252ad1be2c89b69c2b068fc378daa952ba7f163c4a11628f55a4df523b3ef91a4505050565b60008060644461754154604051602001612b68929190918252602082015260400190565b6040516020818303038152906040528051906020012060001c612b8b9190613a6a565b90508060ff1661754154612b9f91906138e4565b60ff1661754155919050565b600080612bb883856138d0565b9150612bc482846137fc565b612bce9085613a53565b90509250929050565b604080516001600160a01b038b811682528a16602082015261ffff8d8116828401528c1660608201526080810189905260a0810188905260c0810187905260e081018890526101008101859052610120810184905282151561014082015290517f86384656c60c8909cbb3413e5d14aaae85eda338817c36ff699276a94ba9a8b1918190036101600190a18460108c61ffff166127108110612c7b57612c7b613889565b600302018054600090612c8f908490613a53565b9091555060009050601061ffff8d166127108110612caf57612caf613889565b600302015411612d0c5760405162461bcd60e51b815260206004820152602260248201527f75686f682c207468652061747461636b706f696e747320617265207a65726f2e604482015261171760f11b6064820152608401610928565b8360108b61ffff166127108110612d2557612d25613889565b600302016001016000828254612d3b9190613a53565b9091555060009050601061ffff8c166127108110612d5b57612d5b613889565b600302016001015411612dbc5760405162461bcd60e51b815260206004820152602360248201527f75686f682c2074686520646566656e7365706f696e747320617265207a65726f60448201526217171760e91b6064820152608401610928565b5050505050505050505050565b600061081b826002613a7e565b6000612de182612dc9565b61081b906001613aa8565b606081612e105750506040805180820190915260018152600360fc1b602082015290565b8160005b8115612e3a5780612e248161389f565b9150612e339050600a836138d0565b9150612e14565b60008167ffffffffffffffff811115612e5557612e5561367c565b6040519080825280601f01601f191660200182016040528015612e7f576020820181803683370190505b509050815b8515612f0c57612e95600182613a53565b90506000612ea4600a886138d0565b612eaf90600a6137fc565b612eb99088613a53565b612ec4906030613ac5565b905060008160f81b905080848481518110612ee157612ee1613889565b60200101906001600160f81b031916908160001a905350612f03600a896138d0565b97505050612e84565b50949350505050565b600654600090606490612f32906301000000900460ff16846137fc565b612f3c91906138d0565b612f469083613a53565b60085460405163a9059cbb60e01b8152336004820152602481018390529192506001600160a01b03169063a9059cbb90604401602060405180830381600087803b158015612f9357600080fd5b505af1158015612fa7573d6000803e3d6000fd5b505050506040513d601f19601f82011682018060405250810190612fcb919061381b565b50604080518281526020810184905233917f11acec8ea502f5c875e157dd1a17389990a9350450464db61ef112521c0d8751910160405180910390a25050565b6130168484846129a4565b6130228484848461327e565b611c065760405162461bcd60e51b815260040161092890613aea565b6060816130625750506040805180820190915260018152600360fc1b602082015290565b8160005b811561308c57806130768161389f565b91506130859050600a836138d0565b9150613066565b60008167ffffffffffffffff8111156130a7576130a761367c565b6040519080825280601f01601f1916602001820160405280156130d1576020820181803683370190505b5090505b841561299c576130e6600183613a53565b91506130f3600a86613a6a565b6130fe9060306138e4565b60f81b81838151811061311357613113613889565b60200101906001600160f81b031916908160001a905350613135600a866138d0565b94506130d5565b6001600160a01b0382166131925760405162461bcd60e51b815260206004820181905260248201527f4552433732313a206d696e7420746f20746865207a65726f20616464726573736044820152606401610928565b6000818152600260205260409020546001600160a01b0316156131f75760405162461bcd60e51b815260206004820152601c60248201527f4552433732313a20746f6b656e20616c7265616479206d696e746564000000006044820152606401610928565b6001600160a01b03821660009081526003602052604081208054600192906132209084906138e4565b909155505060008181526002602052604080822080546001600160a01b0319166001600160a01b03861690811790915590518392907fddf252ad1be2c89b69c2b068fc378daa952ba7f163c4a11628f55a4df523b3ef908290a45050565b60006001600160a01b0384163b1561338057604051630a85bd0160e11b81526001600160a01b0385169063150b7a02906132c2903390899088908890600401613b3c565b602060405180830381600087803b1580156132dc57600080fd5b505af192505050801561330c575060408051601f3d908101601f1916820190925261330991810190613b79565b60015b613366573d80801561333a576040519150601f19603f3d011682016040523d82523d6000602084013e61333f565b606091505b50805161335e5760405162461bcd60e51b815260040161092890613aea565b805181602001fd5b6001600160e01b031916630a85bd0160e11b14905061299c565b506001949350505050565b60405180604001604052806002906020820280368337509192915050565b6001600160e01b0319811681146123bc57600080fd5b6000602082840312156133d157600080fd5b81356133dc816133a9565b9392505050565b60005b838110156133fe5781810151838201526020016133e6565b83811115611c065750506000910152565b600081518084526134278160208601602086016133e3565b601f01601f19169290920160200192915050565b6020815260006133dc602083018461340f565b60006020828403121561346057600080fd5b5035919050565b80356001600160a01b0381168114610f2457600080fd5b6000806040838503121561349157600080fd5b61349a83613467565b946020939093013593505050565b6000602082840312156134ba57600080fd5b6133dc82613467565b6020808252825182820181905260009190848201906040850190845b818110156134fb578351835292840192918401916001016134df565b50909695505050505050565b60008060006060848603121561351c57600080fd5b61352584613467565b925061353360208501613467565b9150604084013590509250925092565b60006020828403121561355557600080fd5b813561ffff811681146133dc57600080fd5b803560ff81168114610f2457600080fd5b6000806040838503121561358b57600080fd5b82359150612bce60208401613567565b803563ffffffff81168114610f2457600080fd5b6000806000606084860312156135c457600080fd5b833592506135d46020850161359b565b91506135e260408501613567565b90509250925092565b6000602082840312156135fd57600080fd5b6133dc8261359b565b60408101818360005b600281101561362e57815183526020928301929091019060010161360f565b50505092915050565b80151581146123bc57600080fd5b6000806040838503121561365857600080fd5b61366183613467565b9150602083013561367181613637565b809150509250929050565b634e487b7160e01b600052604160045260246000fd5b600080600080608085870312156136a857600080fd5b6136b185613467565b93506136bf60208601613467565b925060408501359150606085013567ffffffffffffffff808211156136e357600080fd5b818701915087601f8301126136f757600080fd5b8135818111156137095761370961367c565b604051601f8201601f19908116603f011681019083821181831017156137315761373161367c565b816040528281528a602084870101111561374a57600080fd5b82602086016020830137600060208483010152809550505050505092959194509250565b6000806040838503121561378157600080fd5b61378a83613467565b9150612bce60208401613467565b600181811c908216806137ac57607f821691505b6020821081141561200857634e487b7160e01b600052602260045260246000fd5b6000602082840312156137df57600080fd5b5051919050565b634e487b7160e01b600052601160045260246000fd5b6000816000190483118215151615613816576138166137e6565b500290565b60006020828403121561382d57600080fd5b81516133dc81613637565b60208082526031908201527f4552433732313a207472616e736665722063616c6c6572206973206e6f74206f6040820152701ddb995c881b9bdc88185c1c1c9bdd9959607a1b606082015260800190565b634e487b7160e01b600052603260045260246000fd5b60006000198214156138b3576138b36137e6565b5060010190565b634e487b7160e01b600052601260045260246000fd5b6000826138df576138df6138ba565b500490565b600082198211156138f7576138f76137e6565b500190565b6000815161390e8185602086016133e3565b9290920192915050565b600080845481600182811c91508083168061393457607f831692505b602080841082141561395457634e487b7160e01b86526022600452602486fd5b8180156139685760018114613979576139a6565b60ff198616895284890196506139a6565b60008b81526020902060005b8681101561399e5781548b820152908501908301613985565b505084890196505b5050505050506139b681856138fc565b95945050505050565b600061ffff808416806139d4576139d46138ba565b92169190910692915050565b600061ffff808416806139f5576139f56138ba565b92169190910492915050565b600061ffff83811690831681811015613a1c57613a1c6137e6565b039392505050565b60008351613a368184602088016133e3565b835190830190613a4a8183602088016133e3565b01949350505050565b600082821015613a6557613a656137e6565b500390565b600082613a7957613a796138ba565b500690565b600061ffff80831681851681830481118215151615613a9f57613a9f6137e6565b02949350505050565b600061ffff808316818516808303821115613a4a57613a4a6137e6565b600060ff821660ff84168060ff03821115613ae257613ae26137e6565b019392505050565b60208082526032908201527f4552433732313a207472616e7366657220746f206e6f6e20455243373231526560408201527131b2b4bb32b91034b6b83632b6b2b73a32b960711b606082015260800190565b6001600160a01b0385811682528416602082015260408101839052608060608201819052600090613b6f9083018461340f565b9695505050505050565b600060208284031215613b8b57600080fd5b81516133dc816133a956fea2646970667358221220fdd4ef42dc7ecd987ee2f3e720f11ef9ea998d3855018c0c9517cbb19034346b64736f6c6343000809003368747470733a2f2f7777772e6b696e67646f6d63727970746f2e636f6d2f7469746c65732f",
  "immutableReferences": {},
  "source": "pragma solidity ^0.8;\n\nimport \"./KingdomTitles.sol\";\n\ncontract KingdomGameMechanic is KingdomTitles {\n\n    uint private nowStore;\n\n    event Log(uint error);\n\n    constructor (KingdomSeedCoin kgdsc, KingdomAttackCoin kgdat, KingdomDefenseCoin kgddf) KingdomTitles(kgdsc, kgdat, kgddf) {\n        nowStore = block.timestamp;\n    }\n\n    event Attack(address attacker, address defender, \n                uint16 attacker_id, uint16 defender_id, \n                uint attackPointsBefore, uint defensePointsBefore,\n                uint deadAttackers, uint deadDefenders,\n                uint denominator, uint remainder, bool won);\n\n    event Sacked(address attacker, address defender, \n                uint16 new_attacker_id);\n\n    modifier hasTitle {\n        require(balanceOf(msg.sender) > 0, \"to use this function you need a title! go buy one!\");\n        _;\n    }\n\n    modifier contractNeedsTotalControl {\n        require(isApprovedForAll(msg.sender, address(this)), \"you need to call setApprovalForAll in order to play a game...\");\n        _;\n    }\n\n    function _random() private returns (uint8) {\n        // random number between 0 and 99\n        uint8 random = uint8( uint(keccak256(abi.encodePacked(block.difficulty, nowStore))) % 100);\n        nowStore = uint8(nowStore + random);\n        return random;\n    }\n\n\n\n    function _getLeftChild(uint16 id) internal pure returns (uint16 left) {\n        return id * 2;\n    }\n\n    function _getRightChild(uint16 id) internal pure returns (uint16 right) {\n        return _getLeftChild(id) + 1;\n    }\n\n    function getServants(uint16 id) public view returns (uint16 left, uint16 right) {\n        uint currentPos = currentPosition();\n        require(id <= currentPos, \"id is not yet assigned\");\n\n        // binary tree\n        left = _getLeftChild(id);\n        right = _getRightChild(id);\n\n        // check if they even exist yet\n        \n        if (left > currentPos) {\n            left = 0;\n        }\n        if (right > currentPos) {\n            right = 0;\n        }\n        return (left, right);\n    }\n\n    function getBoss(uint16 id) public view returns (uint16 bossid) {\n        uint currentPos = currentPosition();\n        require(0 < id && id <= currentPos, \"id is not yet assigned\");\n\n        // remember binary tree\n        if (id == 1) {\n            bossid = 0;\n        }\n        else {\n            if (id % 2 == 0) {\n                // if even\n                bossid = id / 2;\n            }\n            else {\n                // if odd\n                bossid = (id - 1) / 2;\n            }\n        }\n        return bossid;\n    }\n\n    function getTitleStats(uint32 titleId) public view returns (uint attackPoints, uint defensePoints, bool ready4attack){\n        require(titleId <= currentPosition(), \"title id not yet assigned, go get one\");\n        attackPoints = kingdomtitles[titleId].attackPoints;\n        defensePoints = kingdomtitles[titleId].defensePoints;\n        ready4attack = kingdomtitles[titleId].readyTimeAttack >= block.timestamp;\n        return (attackPoints, defensePoints, ready4attack);\n    }\n\n    function assignMilitaryToTitle(uint nrCoins, uint32 titleId, uint8 coinType) public {\n        uint currentPos = currentPosition();\n        require(0 < titleId && titleId <= currentPos, \"title id is not yet assigned\");\n        // needs an approve first!\n\n        // first checks\n        // title needs to be owned by sender -> actually allow this for guilds etc\n        // require(ownerOf(titleId) == msg.sender, \"you can not assign Military P\")\n        // check if sender has that amount\n        require(coinType == 0 || coinType == 1, \"other coin types not supported yet, must be 0 or 1\");\n        if (coinType == 0) {\n            // attack points\n            require(kgdat.balanceOf(msg.sender) >= nrCoins, \"you do not have that many attack coins\");\n            kgdat.transferFrom(msg.sender, address(this), nrCoins);\n            kingdomtitles[titleId].attackPoints += nrCoins;\n        }\n        else if (coinType == 1) {\n            // def coins\n            require(kgddf.balanceOf(msg.sender) >= nrCoins, \"you do not have that many defense coins\");\n            kgddf.transferFrom(msg.sender, address(this), nrCoins);\n            kingdomtitles[titleId].defensePoints += nrCoins;\n        }\n    }\n\n    function _attackResults(uint16 attackerId, uint16 defenderId, address attackerAddress, address defenderAddress, uint attackerPoints, uint defenderPoints, uint deadAttackers, uint deadDefenders, uint denominator, uint remainder, bool won) private {\n        // we have to give the title of the looser to the attacker\n        // if (won) {\n        //     // idk how to solve it yet...\n        //     emit Log(attackerAddress);\n        //     transferFrom(defenderAddress, address(this), defenderId);\n        //     emit Sacked(attackerAddress, defenderAddress, \n        //             defenderId);\n        // }\n        // next we have to let the people die accordingly\n        emit Attack(attackerAddress, defenderAddress, \n                attackerId, defenderId, \n                attackerPoints, defenderPoints,\n                deadAttackers, defenderPoints,\n                denominator, remainder, won);\n        // finally update the title struct\n        kingdomtitles[attackerId].attackPoints -= deadAttackers;\n        require(kingdomtitles[attackerId].attackPoints > 0, \"uhoh, the attackpoints are zero...\");\n        kingdomtitles[defenderId].defensePoints -= deadDefenders; \n        require(kingdomtitles[defenderId].defensePoints > 0, \"uhoh, the defensepoints are zero...\");\n    }\n\n    function _divide(uint numerator, uint denominator) private pure returns (uint quotient, uint remainder) {\n        quotient  = numerator / denominator;\n        remainder = numerator - denominator * quotient;\n        return (quotient, remainder);\n    }\n\n    function attackBoss(uint16 titleId) public hasTitle contractNeedsTotalControl {\n        require(ownerOf(titleId) == msg.sender, \"sorry, only the owner can attack his boss\");\n\n        uint16 bossid = getBoss(titleId);\n        address bossid_address = ownerOf(bossid);\n        // check if boss setApprovalForAll as well, required\n        require(isApprovedForAll(bossid_address, address(this)), \"your boss needs to setApprovedForAll to this contract, otherwise the mechanism does not work. He only earns money if that approval has been set though.\");\n\n        require(bossid_address != msg.sender, \"boy, don't attack yourself plz\");\n\n        (uint attacker_Attackpoints, , bool ready4Attack ) = getTitleStats(titleId);\n        require(ready4Attack, \"your attack cooldown is not down yet. please try again after cooldown\");\n\n        ( , uint defender_Defensepoints, ) = getTitleStats(bossid);\n\n        uint tmp_game_defender_Defensepoints = (defender_Defensepoints * 15) / 10; // counts 1.5\n\n        // make it so that more than double attack points is a sure win\n        uint8 randy = _random();\n        (uint quotient, uint remainder) = _divide(attacker_Attackpoints, tmp_game_defender_Defensepoints); // double would be 20\n        uint deadAttackers = 0;\n        uint deadDefenders = 0;\n        bool won = false;\n        if (quotient > 3) {\n            // no discussion needed\n            deadDefenders = defender_Defensepoints;\n            deadAttackers = 0;\n            won = true;\n        }\n        else if (quotient > 2) {\n            // more than double the attackers\n            deadDefenders = defender_Defensepoints;\n            won = true;\n            // some attackers dead except rare case\n            deadAttackers = uint(attacker_Attackpoints / 10);\n            if (randy > 90) {\n                // in a rare case not all defenders die, some can flee\n                deadDefenders = uint(defender_Defensepoints / 2);\n            }\n        }\n        else if (quotient > 1 && remainder > 5) {\n            won = true;\n            deadDefenders = uint(defender_Defensepoints / 2);\n            deadAttackers = uint(attacker_Attackpoints / 2);\n        }\n        else {\n            // tmp\n            won = false;\n            deadDefenders = randy;\n            deadAttackers = randy;\n        }\n\n        _attackResults(titleId, bossid, msg.sender, bossid_address, attacker_Attackpoints, defender_Defensepoints, deadAttackers, deadDefenders, quotient, remainder, won);\n    }\n}",
  "sourcePath": "/home/justing/code/solidity-course/kingdom/contracts/KingdomGameMechanic.sol",
  "compiler": {
    "name": "solc",
    "version": "0.8.9+commit.e5eed63a.Emscripten.clang"
  },
  "schemaVersion": "3.4.3",
  "updatedAt": "2021-11-10T15:14:52.518Z",
  "devdoc": {
    "kind": "dev",
    "methods": {
      "approve(address,uint256)": {
        "details": "See {IERC721-approve}."
      },
      "balanceOf(address)": {
        "details": "See {IERC721-balanceOf}."
      },
      "getApproved(uint256)": {
        "details": "See {IERC721-getApproved}."
      },
      "isApprovedForAll(address,address)": {
        "details": "See {IERC721-isApprovedForAll}."
      },
      "name()": {
        "details": "See {IERC721Metadata-name}."
      },
      "ownerOf(uint256)": {
        "details": "See {IERC721-ownerOf}."
      },
      "safeTransferFrom(address,address,uint256)": {
        "details": "See {IERC721-safeTransferFrom}."
      },
      "safeTransferFrom(address,address,uint256,bytes)": {
        "details": "See {IERC721-safeTransferFrom}."
      },
      "setApprovalForAll(address,bool)": {
        "details": "See {IERC721-setApprovalForAll}."
      },
      "supportsInterface(bytes4)": {
        "details": "See {IERC165-supportsInterface}."
      },
      "symbol()": {
        "details": "See {IERC721Metadata-symbol}."
      },
      "tokenURI(uint256)": {
        "details": "See {IERC721Metadata-tokenURI}."
      },
      "transferFrom(address,address,uint256)": {
        "details": "See {IERC721-transferFrom}."
      }
    },
    "version": 1
  },
  "userdoc": {
    "kind": "user",
    "methods": {},
    "version": 1
  }
}