{
  "contractName": "KingdomBank",
  "abi": [
    {
      "inputs": [
        {
          "internalType": "contract KingdomSeedCoin",
          "name": "_kgdsc",
          "type": "address"
        },
        {
          "internalType": "contract KingdomAttackCoin",
          "name": "_kgdat",
          "type": "address"
        },
        {
          "internalType": "contract KingdomDefenseCoin",
          "name": "_kgddf",
          "type": "address"
        }
      ],
      "stateMutability": "nonpayable",
      "type": "constructor"
    },
    {
      "anonymous": false,
      "inputs": [
        {
          "indexed": true,
          "internalType": "address",
          "name": "_to",
          "type": "address"
        },
        {
          "indexed": false,
          "internalType": "uint256",
          "name": "_amount",
          "type": "uint256"
        }
      ],
      "name": "HarvestAttackPoints",
      "type": "event"
    },
    {
      "anonymous": false,
      "inputs": [
        {
          "indexed": true,
          "internalType": "address",
          "name": "_to",
          "type": "address"
        },
        {
          "indexed": false,
          "internalType": "uint256",
          "name": "_amount",
          "type": "uint256"
        }
      ],
      "name": "HarvestDefensePoints",
      "type": "event"
    },
    {
      "anonymous": false,
      "inputs": [
        {
          "indexed": true,
          "internalType": "address",
          "name": "_to",
          "type": "address"
        },
        {
          "indexed": false,
          "internalType": "uint256",
          "name": "_amount",
          "type": "uint256"
        },
        {
          "indexed": false,
          "internalType": "uint256",
          "name": "_beforeBurn",
          "type": "uint256"
        }
      ],
      "name": "HarvestRemainingSeedCoins",
      "type": "event"
    },
    {
      "anonymous": false,
      "inputs": [
        {
          "indexed": true,
          "internalType": "address",
          "name": "_from",
          "type": "address"
        },
        {
          "indexed": false,
          "internalType": "uint256",
          "name": "_amount",
          "type": "uint256"
        }
      ],
      "name": "enterStakingAttackPoints",
      "type": "event"
    },
    {
      "anonymous": false,
      "inputs": [
        {
          "indexed": true,
          "internalType": "address",
          "name": "_from",
          "type": "address"
        },
        {
          "indexed": false,
          "internalType": "uint256",
          "name": "_amount",
          "type": "uint256"
        }
      ],
      "name": "enterStakingDefensePoints",
      "type": "event"
    },
    {
      "inputs": [],
      "name": "exchangeRate",
      "outputs": [
        {
          "internalType": "uint8",
          "name": "",
          "type": "uint8"
        }
      ],
      "stateMutability": "view",
      "type": "function"
    },
    {
      "inputs": [],
      "name": "exchangeRate_Attackpoints",
      "outputs": [
        {
          "internalType": "uint8",
          "name": "",
          "type": "uint8"
        }
      ],
      "stateMutability": "view",
      "type": "function"
    },
    {
      "inputs": [],
      "name": "exchangeRate_Burnpct",
      "outputs": [
        {
          "internalType": "uint8",
          "name": "",
          "type": "uint8"
        }
      ],
      "stateMutability": "view",
      "type": "function"
    },
    {
      "inputs": [],
      "name": "exchangeRate_Defensepoints",
      "outputs": [
        {
          "internalType": "uint8",
          "name": "",
          "type": "uint8"
        }
      ],
      "stateMutability": "view",
      "type": "function"
    },
    {
      "inputs": [],
      "name": "kgdat",
      "outputs": [
        {
          "internalType": "contract KingdomAttackCoin",
          "name": "",
          "type": "address"
        }
      ],
      "stateMutability": "view",
      "type": "function"
    },
    {
      "inputs": [],
      "name": "kgddf",
      "outputs": [
        {
          "internalType": "contract KingdomDefenseCoin",
          "name": "",
          "type": "address"
        }
      ],
      "stateMutability": "view",
      "type": "function"
    },
    {
      "inputs": [],
      "name": "kgdsc",
      "outputs": [
        {
          "internalType": "contract KingdomSeedCoin",
          "name": "",
          "type": "address"
        }
      ],
      "stateMutability": "view",
      "type": "function"
    },
    {
      "inputs": [],
      "name": "stakingPeriod",
      "outputs": [
        {
          "internalType": "uint256",
          "name": "",
          "type": "uint256"
        }
      ],
      "stateMutability": "view",
      "type": "function"
    },
    {
      "inputs": [],
      "name": "buyForETH",
      "outputs": [],
      "stateMutability": "payable",
      "type": "function"
    },
    {
      "inputs": [],
      "name": "justSendETH",
      "outputs": [
        {
          "internalType": "uint256",
          "name": "",
          "type": "uint256"
        }
      ],
      "stateMutability": "payable",
      "type": "function"
    },
    {
      "inputs": [
        {
          "internalType": "uint256",
          "name": "nrSeedCoins",
          "type": "uint256"
        },
        {
          "internalType": "uint8",
          "name": "targetCoin",
          "type": "uint8"
        }
      ],
      "name": "plantSeeds",
      "outputs": [],
      "stateMutability": "nonpayable",
      "type": "function"
    },
    {
      "inputs": [],
      "name": "getCurrentStakes",
      "outputs": [
        {
          "internalType": "uint256[2]",
          "name": "",
          "type": "uint256[2]"
        }
      ],
      "stateMutability": "view",
      "type": "function"
    },
    {
      "inputs": [],
      "name": "getTimeUntilStakingDone",
      "outputs": [
        {
          "internalType": "uint256[2]",
          "name": "timeuntildone",
          "type": "uint256[2]"
        }
      ],
      "stateMutability": "view",
      "type": "function"
    },
    {
      "inputs": [],
      "name": "harvestAll",
      "outputs": [],
      "stateMutability": "nonpayable",
      "type": "function"
    }
  ],
  "bytecode": "0x60806040526000805463ffffffff1916630a080a64179055603c60015534801561002857600080fd5b50604051611150380380611150833981016040819052610047916100a1565b600280546001600160a01b039485166001600160a01b0319918216179091556003805493851693821693909317909255600480549190931691161790556100ee565b6001600160a01b038116811461009e57600080fd5b50565b6000806000606084860312156100b657600080fd5b83516100c181610089565b60208501519093506100d281610089565b60408501519092506100e381610089565b809150509250925092565b611053806100fd6000396000f3fe6080604052600436106100dd5760003560e01c80638ed955b91161007f578063c669b71011610059578063c669b71014610231578063d4637ddb14610250578063e046670b14610270578063fa4facdb1461027657600080fd5b80638ed955b9146101d8578063900294be146101ed578063c03d5b471461020d57600080fd5b8063429c3edf116100bb578063429c3edf146101555780636a7a2fa3146101755780637c62539a1461019657806384505e6a146101b657600080fd5b806310f7e4ed146100e25780633ba0b9a9146100ec578063411ee0d01461011d575b600080fd5b6100ea61028b565b005b3480156100f857600080fd5b506000546101069060ff1681565b60405160ff90911681526020015b60405180910390f35b34801561012957600080fd5b5060045461013d906001600160a01b031681565b6040516001600160a01b039091168152602001610114565b34801561016157600080fd5b506100ea610170366004610ebd565b6104fa565b34801561018157600080fd5b50600054610106906301000000900460ff1681565b3480156101a257600080fd5b5060035461013d906001600160a01b031681565b3480156101c257600080fd5b506101cb61091f565b6040516101149190610ef3565b3480156101e457600080fd5b506100ea610a09565b3480156101f957600080fd5b5060025461013d906001600160a01b031681565b34801561021957600080fd5b5061022360015481565b604051908152602001610114565b34801561023d57600080fd5b5060005461010690610100900460ff1681565b34801561025c57600080fd5b506000546101069062010000900460ff1681565b47610223565b34801561028257600080fd5b506101cb610ccb565b6002546040516370a0823160e01b81523060048201526000916001600160a01b0316906370a082319060240160206040518083038186803b1580156102cf57600080fd5b505afa1580156102e3573d6000803e3d6000fd5b505050506040513d601f19601f820116820180604052508101906103079190610f24565b1161031157600080fd5b6000341161037f5760405162461bcd60e51b815260206004820152603060248201527f796f75206861766520746f2073656e6420736f6d652045544820746f2067657460448201526f1025b4b733b237b6a9b2b2b231b7b4b760811b60648201526084015b60405180910390fd5b6002546040516370a0823160e01b81523060048201526000916001600160a01b0316906370a082319060240160206040518083038186803b1580156103c357600080fd5b505afa1580156103d7573d6000803e3d6000fd5b505050506040513d601f19601f820116820180604052508101906103fb9190610f24565b116104605760405162461bcd60e51b815260206004820152602f60248201527f75686f682c2073727920692063616e27742073656e6420616e79206d6f72652060448201526e25b4b733b237b6a9b2b2b231b7b4b760891b6064820152608401610376565b600080546104719060ff1634610f53565b60025460405163a9059cbb60e01b8152336004820152602481018390529192506001600160a01b03169063a9059cbb90604401602060405180830381600087803b1580156104be57600080fd5b505af11580156104d2573d6000803e3d6000fd5b505050506040513d601f19601f820116820180604052508101906104f69190610f72565b5050565b6003546040516370a0823160e01b81523060048201526000916001600160a01b0316906370a082319060240160206040518083038186803b15801561053e57600080fd5b505afa158015610552573d6000803e3d6000fd5b505050506040513d601f19601f820116820180604052508101906105769190610f24565b1161058057600080fd5b600480546040516370a0823160e01b815230928101929092526000916001600160a01b03909116906370a082319060240160206040518083038186803b1580156105c957600080fd5b505afa1580156105dd573d6000803e3d6000fd5b505050506040513d601f19601f820116820180604052508101906106019190610f24565b1161060b57600080fd5b6002546040516370a0823160e01b81523360048201526000916001600160a01b0316906370a082319060240160206040518083038186803b15801561064f57600080fd5b505afa158015610663573d6000803e3d6000fd5b505050506040513d601f19601f820116820180604052508101906106879190610f24565b90508281101580156106995750600083115b6107005760405162461bcd60e51b815260206004820152603260248201527f796f7520646f6e2774206861766520656e6f7567682073656564636f696e732160448201527120627579206f7220747261646520736f6d6560701b6064820152608401610376565b60ff8216158061071357508160ff166001145b61077a5760405162461bcd60e51b815260206004820152603260248201527f746172676574436f696e2068617320746f20626520303d61747461636b636f69604482015271371037b910189eb232b332b739b2b1b7b4b760711b6064820152608401610376565b60ff82166107bc5760405183815233907f44d00596aedd88fca0607c9a84113fd638c9a070d5ef8d77c072080b688d8e349060200160405180910390a26107fe565b8160ff16600114156107fe5760405183815233907f049b4d6e22c9904766197183f9dc1f362cefb04f39e3850a8b7d83ff2c26216f9060200160405180910390a25b6002546040516323b872dd60e01b8152336004820152306024820152604481018590526001600160a01b03909116906323b872dd90606401602060405180830381600087803b15801561085057600080fd5b505af1158015610864573d6000803e3d6000fd5b505050506040513d601f19601f820116820180604052508101906108889190610f72565b5060056000336001600160a01b03166001600160a01b0316815260200190815260200160002060405180606001604052808581526020018460ff168152602001600154426108d69190610f9b565b90528154600180820184556000938452602093849020835160039093020191825592820151928101805460ff191660ff9094169390931790925560400151600290910155505050565b610927610e9f565b60005b33600090815260056020526040902054811015610a055733600090815260056020526040812080548390811061096257610962610fb3565b600091825260209182902060408051606081018252600390930290910180548352600181015460ff16938301849052600201549082015291506109c45742816040015111156109bb5760168360005b60200201526109f2565b600083816109b1565b806020015160ff16600114156109f25742816040015111156109ea5760178360016109b1565b600060208401525b50806109fd81610fc9565b91505061092a565b5090565b60005b33600090815260056020526040902054811015610cc857336000908152600560205260408120805483908110610a4457610a44610fb3565b600091825260209182902060408051606081018252600390930290910180548352600181015460ff16938301939093526002909201549181018290529150421115610cb557602081015160ff16610b7c57600080548251610aad91610100900460ff1690610fe4565b9050610abc8260000151610dab565b60035460405163a9059cbb60e01b8152336004820152602481018390526001600160a01b039091169063a9059cbb90604401602060405180830381600087803b158015610b0857600080fd5b505af1158015610b1c573d6000803e3d6000fd5b505050506040513d601f19601f82011682018060405250810190610b409190610f72565b5060405181815233907f9fd4a9248425079a398923cd20daa8e0c103907fb89db4707cb4f2cc343f95469060200160405180910390a250610c71565b806020015160ff1660011415610c7157600080548251610ba59162010000900460ff1690610fe4565b9050610bb48260000151610dab565b6004805460405163a9059cbb60e01b81523392810192909252602482018390526001600160a01b03169063a9059cbb90604401602060405180830381600087803b158015610c0157600080fd5b505af1158015610c15573d6000803e3d6000fd5b505050506040513d601f19601f82011682018060405250810190610c399190610f72565b5060405181815233907fd62aeb2df4f1c7a0c59e15c0dca22ccbcbe42ad0d0dbf99a22c0ad2551c5a1559060200160405180910390a2505b336000908152600560205260409020805483908110610c9257610c92610fb3565b60009182526020822060039091020181815560018101805460ff19169055600201555b5080610cc081610fc9565b915050610a0c565b50565b610cd3610e9f565b60008060005b33600090815260056020526040902054811015610d9357336000908152600560205260408120805483908110610d1157610d11610fb3565b600091825260209182902060408051606081018252600390930290910180548352600181015460ff1693830184905260020154908201529150610d61578051610d5a9085610f9b565b9350610d80565b806020015160ff1660011415610d80578051610d7d9084610f9b565b92505b5080610d8b81610fc9565b915050610cd9565b50604080518082019091529182526020820152919050565b60008054606490610dc6906301000000900460ff1684610f53565b610dd09190610fe4565b610dda9083611006565b60025460405163a9059cbb60e01b8152336004820152602481018390529192506001600160a01b03169063a9059cbb90604401602060405180830381600087803b158015610e2757600080fd5b505af1158015610e3b573d6000803e3d6000fd5b505050506040513d601f19601f82011682018060405250810190610e5f9190610f72565b50604080518281526020810184905233917f11acec8ea502f5c875e157dd1a17389990a9350450464db61ef112521c0d8751910160405180910390a25050565b60405180604001604052806002906020820280368337509192915050565b60008060408385031215610ed057600080fd5b82359150602083013560ff81168114610ee857600080fd5b809150509250929050565b60408101818360005b6002811015610f1b578151835260209283019290910190600101610efc565b50505092915050565b600060208284031215610f3657600080fd5b5051919050565b634e487b7160e01b600052601160045260246000fd5b6000816000190483118215151615610f6d57610f6d610f3d565b500290565b600060208284031215610f8457600080fd5b81518015158114610f9457600080fd5b9392505050565b60008219821115610fae57610fae610f3d565b500190565b634e487b7160e01b600052603260045260246000fd5b6000600019821415610fdd57610fdd610f3d565b5060010190565b60008261100157634e487b7160e01b600052601260045260246000fd5b500490565b60008282101561101857611018610f3d565b50039056fea2646970667358221220eceff082dc38930a4f08a0f5f4df0a8e214824928144e5129d23e9274fb48a4764736f6c63430008090033",
  "immutableReferences": {},
  "source": "pragma solidity ^0.8;\n\nimport \"./KingdomSeedCoin.sol\";\nimport \"./KingdomAttackCoin.sol\";\nimport \"./KingdomDefenseCoin.sol\";\nimport \"@openzeppelin/contracts/access/Ownable.sol\";\n\n\ncontract KingdomBank {\n    // address public owner;\n    // string public name = \"Kingdom Bank\";\n    uint8 public exchangeRate = 100;\n    // return more defensepoints as attackpoints\n    uint8 public exchangeRate_Attackpoints = 10;\n    uint8 public exchangeRate_Defensepoints = 8;\n    uint8 public exchangeRate_Burnpct = 10;\n    uint public stakingPeriod = 60 seconds;\n    \n    KingdomSeedCoin public kgdsc;\n    KingdomAttackCoin public kgdat;\n    KingdomDefenseCoin public kgddf;\n\n    event enterStakingAttackPoints(address indexed _from, uint _amount);\n    event enterStakingDefensePoints(address indexed _from, uint _amount);\n\n    event HarvestAttackPoints(address indexed _to, uint _amount);\n    event HarvestDefensePoints(address indexed _to, uint _amount);\n    event HarvestRemainingSeedCoins(address indexed _to, uint _amount, uint _beforeBurn);\n    \n    struct Staking {\n        uint seedCoinAmount;\n        uint8 targetCoinType; // 0 = attackCoin, 1 = defenseCoin\n        uint readyTime;\n    }\n    \n    mapping (address => Staking[]) private _Staking;\n\n    constructor(KingdomSeedCoin _kgdsc, KingdomAttackCoin _kgdat, KingdomDefenseCoin _kgddf) {\n        kgdsc = _kgdsc;\n        kgdat = _kgdat;\n        kgddf = _kgddf;\n        // after that the coins need to be transferred to KingdomBank\n        // owner = msg.sender;\n    }\n\n    modifier contractHasSeedcoins {\n        require (kgdsc.balanceOf(address(this)) > 0);\n        _;\n    }\n\n    modifier contractHasAttackcoins {\n        require (kgdat.balanceOf(address(this)) > 0);\n        _;\n    }\n\n    modifier contractHasDefensecoins {\n        require (kgddf.balanceOf(address(this)) > 0);\n        _;\n    }\n    \n    // you can only buy the seed coins \n    function buyForETH() external payable contractHasSeedcoins {\n        require(msg.value > 0, \"you have to send some ETH to get KingdomSeedcoin\");\n        require(kgdsc.balanceOf(address(this)) > 0, \"uhoh, sry i can't send any more KingdomSeedcoin\");\n        \n        uint rewardTokens = msg.value * exchangeRate;\n        kgdsc.transfer(msg.sender, rewardTokens);\n    }\n    \n    function justSendETH() public payable  returns(uint){\n        return address(this).balance;\n    }\n    \n    function plantSeeds(uint nrSeedCoins, uint8 targetCoin) public contractHasAttackcoins contractHasDefensecoins {\n        uint kgdsc_balance = kgdsc.balanceOf(msg.sender);\n        require(kgdsc_balance >= nrSeedCoins && nrSeedCoins > 0, \"you don't have enough seedcoins! buy or trade some\");\n        require(targetCoin == 0 || targetCoin == 1, \"targetCoin has to be 0=attackcoin or 1=defensecoin\");\n        // enter staking\n        // first transact the kgdsc\n        // first approve built in \n\n        if (targetCoin == 0) {\n            emit enterStakingAttackPoints(msg.sender, nrSeedCoins);\n        }\n        else if (targetCoin == 1) {\n            emit enterStakingDefensePoints(msg.sender, nrSeedCoins);\n        }\n        // kgdsc.approve(address(this), nrSeedCoins);\n        kgdsc.transferFrom(msg.sender, address(this), nrSeedCoins);\n        \n\n\n        // then store in array\n        _Staking[msg.sender].push(Staking(\n            nrSeedCoins,\n            targetCoin,\n            block.timestamp + stakingPeriod\n            ));\n    }\n    \n    function getCurrentStakes() public view returns(uint[2] memory){\n        uint attackPoints = 0;\n        uint defensePoints = 0;\n        for (uint i = 0; i < _Staking[msg.sender].length; i++) {\n            Staking memory stakeobj = _Staking[msg.sender][i];\n            if (stakeobj.targetCoinType == 0) {\n                attackPoints += stakeobj.seedCoinAmount;\n            }\n            else if (stakeobj.targetCoinType == 1) {\n                defensePoints += stakeobj.seedCoinAmount;\n            }\n        }\n        // , attackStakeTimeRemaining, defenseStakeTimeRemaining\n        uint[2] memory res = [attackPoints, defensePoints];\n        return res;\n    }\n\n    function getTimeUntilStakingDone() public view returns(uint[2] memory timeuntildone){\n        // somehow we need to seperate this functionality from the other, as this causes\n        // a buffer overflow error if not\n        for (uint i = 0; i < _Staking[msg.sender].length; i++) {\n            Staking memory stakeobj = _Staking[msg.sender][i];\n            if (stakeobj.targetCoinType == 0) {\n                if (uint(stakeobj.readyTime) > uint(block.timestamp)) {\n                    timeuntildone[0] = 22; // uint(stakeobj.readyTime - block.timestamp);\n                }\n                else {\n                    timeuntildone[0] = uint(0);\n                }\n            }\n            else if (stakeobj.targetCoinType == 1) {\n                if (uint(stakeobj.readyTime) > uint(block.timestamp)) {\n                    timeuntildone[1] = 23; // uint(stakeobj.readyTime - block.timestamp);\n                }\n                else {\n                    timeuntildone[1] = uint(0);\n                }\n            }\n        }\n        return timeuntildone;\n    }\n\n    function _burnReturnSeedcoins(uint nrSeedCoins) private {\n        uint remainingSeedcoins = nrSeedCoins - (nrSeedCoins * exchangeRate_Burnpct / 100);\n        kgdsc.transfer(msg.sender, remainingSeedcoins);\n        emit HarvestRemainingSeedCoins(msg.sender, remainingSeedcoins, nrSeedCoins);\n    }\n\n    function harvestAll() public {\n        for (uint i = 0; i < _Staking[msg.sender].length; i++) {\n            Staking memory stakeobj = _Staking[msg.sender][i];\n            if (stakeobj.readyTime < block.timestamp) {\n                // ready for harvest\n                if (stakeobj.targetCoinType == 0) {\n                    uint attackPoints = stakeobj.seedCoinAmount / exchangeRate_Attackpoints;\n                    _burnReturnSeedcoins(stakeobj.seedCoinAmount);\n                    kgdat.transfer(msg.sender, attackPoints);\n                    emit HarvestAttackPoints(msg.sender, attackPoints);\n                }\n                else if (stakeobj.targetCoinType == 1) {\n                    uint defensePoints = stakeobj.seedCoinAmount / exchangeRate_Defensepoints;\n                    _burnReturnSeedcoins(stakeobj.seedCoinAmount);\n                    kgddf.transfer(msg.sender, defensePoints);\n                    emit HarvestDefensePoints(msg.sender, defensePoints);\n                }\n                // finally remove from array\n                delete _Staking[msg.sender][i];\n            }\n        }\n    } \n}",
  "sourcePath": "/home/justing/code/solidity-course/kingdom/contracts/KingdomBank.sol",
  "compiler": {
    "name": "solc",
    "version": "0.8.9+commit.e5eed63a.Emscripten.clang"
  },
  "schemaVersion": "3.4.3",
  "updatedAt": "2021-11-10T15:14:52.499Z",
  "devdoc": {
    "kind": "dev",
    "methods": {},
    "version": 1
  },
  "userdoc": {
    "kind": "user",
    "methods": {},
    "version": 1
  }
}