{
  "contractName": "KingdomTitles",
  "abi": [
    {
      "inputs": [
        {
          "internalType": "contract KingdomSeedCoin",
          "name": "kgdsc",
          "type": "address"
        },
        {
          "internalType": "contract KingdomAttackCoin",
          "name": "kgdat",
          "type": "address"
        },
        {
          "internalType": "contract KingdomDefenseCoin",
          "name": "kgddf",
          "type": "address"
        }
      ],
      "stateMutability": "nonpayable",
      "type": "constructor"
    },
    {
      "anonymous": false,
      "inputs": [
        {
          "indexed": true,
          "internalType": "address",
          "name": "owner",
          "type": "address"
        },
        {
          "indexed": true,
          "internalType": "address",
          "name": "approved",
          "type": "address"
        },
        {
          "indexed": true,
          "internalType": "uint256",
          "name": "tokenId",
          "type": "uint256"
        }
      ],
      "name": "Approval",
      "type": "event"
    },
    {
      "anonymous": false,
      "inputs": [
        {
          "indexed": true,
          "internalType": "address",
          "name": "owner",
          "type": "address"
        },
        {
          "indexed": true,
          "internalType": "address",
          "name": "operator",
          "type": "address"
        },
        {
          "indexed": false,
          "internalType": "bool",
          "name": "approved",
          "type": "bool"
        }
      ],
      "name": "ApprovalForAll",
      "type": "event"
    },
    {
      "anonymous": false,
      "inputs": [
        {
          "indexed": true,
          "internalType": "address",
          "name": "_to",
          "type": "address"
        },
        {
          "indexed": false,
          "internalType": "uint256",
          "name": "_amount",
          "type": "uint256"
        }
      ],
      "name": "HarvestAttackPoints",
      "type": "event"
    },
    {
      "anonymous": false,
      "inputs": [
        {
          "indexed": true,
          "internalType": "address",
          "name": "_to",
          "type": "address"
        },
        {
          "indexed": false,
          "internalType": "uint256",
          "name": "_amount",
          "type": "uint256"
        }
      ],
      "name": "HarvestDefensePoints",
      "type": "event"
    },
    {
      "anonymous": false,
      "inputs": [
        {
          "indexed": true,
          "internalType": "address",
          "name": "_to",
          "type": "address"
        },
        {
          "indexed": false,
          "internalType": "uint256",
          "name": "_amount",
          "type": "uint256"
        },
        {
          "indexed": false,
          "internalType": "uint256",
          "name": "_beforeBurn",
          "type": "uint256"
        }
      ],
      "name": "HarvestRemainingSeedCoins",
      "type": "event"
    },
    {
      "anonymous": false,
      "inputs": [
        {
          "indexed": true,
          "internalType": "address",
          "name": "from",
          "type": "address"
        },
        {
          "indexed": true,
          "internalType": "address",
          "name": "to",
          "type": "address"
        },
        {
          "indexed": true,
          "internalType": "uint256",
          "name": "tokenId",
          "type": "uint256"
        }
      ],
      "name": "Transfer",
      "type": "event"
    },
    {
      "anonymous": false,
      "inputs": [
        {
          "indexed": true,
          "internalType": "address",
          "name": "_from",
          "type": "address"
        },
        {
          "indexed": false,
          "internalType": "uint256",
          "name": "_amount",
          "type": "uint256"
        }
      ],
      "name": "enterStakingAttackPoints",
      "type": "event"
    },
    {
      "anonymous": false,
      "inputs": [
        {
          "indexed": true,
          "internalType": "address",
          "name": "_from",
          "type": "address"
        },
        {
          "indexed": false,
          "internalType": "uint256",
          "name": "_amount",
          "type": "uint256"
        }
      ],
      "name": "enterStakingDefensePoints",
      "type": "event"
    },
    {
      "inputs": [
        {
          "internalType": "address",
          "name": "",
          "type": "address"
        },
        {
          "internalType": "uint256",
          "name": "",
          "type": "uint256"
        }
      ],
      "name": "address2ids",
      "outputs": [
        {
          "internalType": "uint256",
          "name": "",
          "type": "uint256"
        }
      ],
      "stateMutability": "view",
      "type": "function"
    },
    {
      "inputs": [
        {
          "internalType": "address",
          "name": "to",
          "type": "address"
        },
        {
          "internalType": "uint256",
          "name": "tokenId",
          "type": "uint256"
        }
      ],
      "name": "approve",
      "outputs": [],
      "stateMutability": "nonpayable",
      "type": "function"
    },
    {
      "inputs": [],
      "name": "attackCooldown",
      "outputs": [
        {
          "internalType": "uint256",
          "name": "",
          "type": "uint256"
        }
      ],
      "stateMutability": "view",
      "type": "function"
    },
    {
      "inputs": [
        {
          "internalType": "address",
          "name": "owner",
          "type": "address"
        }
      ],
      "name": "balanceOf",
      "outputs": [
        {
          "internalType": "uint256",
          "name": "",
          "type": "uint256"
        }
      ],
      "stateMutability": "view",
      "type": "function"
    },
    {
      "inputs": [],
      "name": "baseUrl",
      "outputs": [
        {
          "internalType": "string",
          "name": "",
          "type": "string"
        }
      ],
      "stateMutability": "view",
      "type": "function"
    },
    {
      "inputs": [],
      "name": "buyForETH",
      "outputs": [],
      "stateMutability": "payable",
      "type": "function"
    },
    {
      "inputs": [],
      "name": "exchangeRate",
      "outputs": [
        {
          "internalType": "uint8",
          "name": "",
          "type": "uint8"
        }
      ],
      "stateMutability": "view",
      "type": "function"
    },
    {
      "inputs": [],
      "name": "exchangeRate_Attackpoints",
      "outputs": [
        {
          "internalType": "uint8",
          "name": "",
          "type": "uint8"
        }
      ],
      "stateMutability": "view",
      "type": "function"
    },
    {
      "inputs": [],
      "name": "exchangeRate_Burnpct",
      "outputs": [
        {
          "internalType": "uint8",
          "name": "",
          "type": "uint8"
        }
      ],
      "stateMutability": "view",
      "type": "function"
    },
    {
      "inputs": [],
      "name": "exchangeRate_Defensepoints",
      "outputs": [
        {
          "internalType": "uint8",
          "name": "",
          "type": "uint8"
        }
      ],
      "stateMutability": "view",
      "type": "function"
    },
    {
      "inputs": [
        {
          "internalType": "uint256",
          "name": "tokenId",
          "type": "uint256"
        }
      ],
      "name": "getApproved",
      "outputs": [
        {
          "internalType": "address",
          "name": "",
          "type": "address"
        }
      ],
      "stateMutability": "view",
      "type": "function"
    },
    {
      "inputs": [],
      "name": "getCurrentStakes",
      "outputs": [
        {
          "internalType": "uint256[2]",
          "name": "",
          "type": "uint256[2]"
        }
      ],
      "stateMutability": "view",
      "type": "function"
    },
    {
      "inputs": [],
      "name": "getTimeUntilStakingDone",
      "outputs": [
        {
          "internalType": "uint256[2]",
          "name": "timeuntildone",
          "type": "uint256[2]"
        }
      ],
      "stateMutability": "view",
      "type": "function"
    },
    {
      "inputs": [],
      "name": "harvestAll",
      "outputs": [],
      "stateMutability": "nonpayable",
      "type": "function"
    },
    {
      "inputs": [
        {
          "internalType": "address",
          "name": "owner",
          "type": "address"
        },
        {
          "internalType": "address",
          "name": "operator",
          "type": "address"
        }
      ],
      "name": "isApprovedForAll",
      "outputs": [
        {
          "internalType": "bool",
          "name": "",
          "type": "bool"
        }
      ],
      "stateMutability": "view",
      "type": "function"
    },
    {
      "inputs": [],
      "name": "justSendETH",
      "outputs": [
        {
          "internalType": "uint256",
          "name": "",
          "type": "uint256"
        }
      ],
      "stateMutability": "payable",
      "type": "function"
    },
    {
      "inputs": [],
      "name": "kgdat",
      "outputs": [
        {
          "internalType": "contract KingdomAttackCoin",
          "name": "",
          "type": "address"
        }
      ],
      "stateMutability": "view",
      "type": "function"
    },
    {
      "inputs": [],
      "name": "kgddf",
      "outputs": [
        {
          "internalType": "contract KingdomDefenseCoin",
          "name": "",
          "type": "address"
        }
      ],
      "stateMutability": "view",
      "type": "function"
    },
    {
      "inputs": [],
      "name": "kgdsc",
      "outputs": [
        {
          "internalType": "contract KingdomSeedCoin",
          "name": "",
          "type": "address"
        }
      ],
      "stateMutability": "view",
      "type": "function"
    },
    {
      "inputs": [
        {
          "internalType": "uint256",
          "name": "",
          "type": "uint256"
        }
      ],
      "name": "kingdomtitles",
      "outputs": [
        {
          "internalType": "uint256",
          "name": "attackPoints",
          "type": "uint256"
        },
        {
          "internalType": "uint256",
          "name": "defensePoints",
          "type": "uint256"
        },
        {
          "internalType": "uint256",
          "name": "readyTimeAttack",
          "type": "uint256"
        }
      ],
      "stateMutability": "view",
      "type": "function"
    },
    {
      "inputs": [],
      "name": "name",
      "outputs": [
        {
          "internalType": "string",
          "name": "",
          "type": "string"
        }
      ],
      "stateMutability": "view",
      "type": "function"
    },
    {
      "inputs": [
        {
          "internalType": "uint256",
          "name": "tokenId",
          "type": "uint256"
        }
      ],
      "name": "ownerOf",
      "outputs": [
        {
          "internalType": "address",
          "name": "",
          "type": "address"
        }
      ],
      "stateMutability": "view",
      "type": "function"
    },
    {
      "inputs": [
        {
          "internalType": "uint256",
          "name": "nrSeedCoins",
          "type": "uint256"
        },
        {
          "internalType": "uint8",
          "name": "targetCoin",
          "type": "uint8"
        }
      ],
      "name": "plantSeeds",
      "outputs": [],
      "stateMutability": "nonpayable",
      "type": "function"
    },
    {
      "inputs": [
        {
          "internalType": "address",
          "name": "from",
          "type": "address"
        },
        {
          "internalType": "address",
          "name": "to",
          "type": "address"
        },
        {
          "internalType": "uint256",
          "name": "tokenId",
          "type": "uint256"
        }
      ],
      "name": "safeTransferFrom",
      "outputs": [],
      "stateMutability": "nonpayable",
      "type": "function"
    },
    {
      "inputs": [
        {
          "internalType": "address",
          "name": "from",
          "type": "address"
        },
        {
          "internalType": "address",
          "name": "to",
          "type": "address"
        },
        {
          "internalType": "uint256",
          "name": "tokenId",
          "type": "uint256"
        },
        {
          "internalType": "bytes",
          "name": "_data",
          "type": "bytes"
        }
      ],
      "name": "safeTransferFrom",
      "outputs": [],
      "stateMutability": "nonpayable",
      "type": "function"
    },
    {
      "inputs": [
        {
          "internalType": "address",
          "name": "operator",
          "type": "address"
        },
        {
          "internalType": "bool",
          "name": "approved",
          "type": "bool"
        }
      ],
      "name": "setApprovalForAll",
      "outputs": [],
      "stateMutability": "nonpayable",
      "type": "function"
    },
    {
      "inputs": [],
      "name": "stakingPeriod",
      "outputs": [
        {
          "internalType": "uint256",
          "name": "",
          "type": "uint256"
        }
      ],
      "stateMutability": "view",
      "type": "function"
    },
    {
      "inputs": [
        {
          "internalType": "bytes4",
          "name": "interfaceId",
          "type": "bytes4"
        }
      ],
      "name": "supportsInterface",
      "outputs": [
        {
          "internalType": "bool",
          "name": "",
          "type": "bool"
        }
      ],
      "stateMutability": "view",
      "type": "function"
    },
    {
      "inputs": [],
      "name": "symbol",
      "outputs": [
        {
          "internalType": "string",
          "name": "",
          "type": "string"
        }
      ],
      "stateMutability": "view",
      "type": "function"
    },
    {
      "inputs": [
        {
          "internalType": "uint256",
          "name": "tokenId",
          "type": "uint256"
        }
      ],
      "name": "tokenURI",
      "outputs": [
        {
          "internalType": "string",
          "name": "",
          "type": "string"
        }
      ],
      "stateMutability": "view",
      "type": "function"
    },
    {
      "inputs": [],
      "name": "totalSupply",
      "outputs": [
        {
          "internalType": "uint16",
          "name": "",
          "type": "uint16"
        }
      ],
      "stateMutability": "view",
      "type": "function"
    },
    {
      "inputs": [
        {
          "internalType": "address",
          "name": "from",
          "type": "address"
        },
        {
          "internalType": "address",
          "name": "to",
          "type": "address"
        },
        {
          "internalType": "uint256",
          "name": "tokenId",
          "type": "uint256"
        }
      ],
      "name": "transferFrom",
      "outputs": [],
      "stateMutability": "nonpayable",
      "type": "function"
    },
    {
      "inputs": [],
      "name": "currentPosition",
      "outputs": [
        {
          "internalType": "uint256",
          "name": "",
          "type": "uint256"
        }
      ],
      "stateMutability": "view",
      "type": "function"
    },
    {
      "inputs": [
        {
          "internalType": "address",
          "name": "player",
          "type": "address"
        }
      ],
      "name": "awardItem",
      "outputs": [
        {
          "internalType": "uint256",
          "name": "",
          "type": "uint256"
        }
      ],
      "stateMutability": "nonpayable",
      "type": "function"
    },
    {
      "inputs": [
        {
          "internalType": "uint256",
          "name": "itemId",
          "type": "uint256"
        }
      ],
      "name": "reverseItem",
      "outputs": [
        {
          "internalType": "bool",
          "name": "",
          "type": "bool"
        }
      ],
      "stateMutability": "nonpayable",
      "type": "function"
    },
    {
      "inputs": [
        {
          "internalType": "uint256",
          "name": "_tokenId",
          "type": "uint256"
        }
      ],
      "name": "tokenMetadata",
      "outputs": [
        {
          "internalType": "string",
          "name": "infoUrl",
          "type": "string"
        }
      ],
      "stateMutability": "view",
      "type": "function"
    },
    {
      "inputs": [
        {
          "internalType": "address",
          "name": "_own",
          "type": "address"
        }
      ],
      "name": "returnIdsOfAddress",
      "outputs": [
        {
          "internalType": "uint256[]",
          "name": "ownedIds",
          "type": "uint256[]"
        }
      ],
      "stateMutability": "view",
      "type": "function"
    }
  ],
  "bytecode": "0x6006805463ffffffff1916630a080a64179055603c6007819055600e5560e0604052602560808181529062002ec660a03980516200004691600f9160209091019062000155565b503480156200005457600080fd5b5060405162002eeb38038062002eeb833981016040819052620000779162000214565b604080518082018252600e81526d4b696e67646f6d205469746c657360901b60208083019182528351808501909452600384526212d1d160ea1b9084015281518693869386939092620000cd9160009162000155565b508051620000e390600190602084019062000155565b5050600880546001600160a01b039586166001600160a01b031991821617909155600980549486169482169490941790935550600a80549190931691161790556200012b3390565b600c80546001600160a01b0319166001600160a01b039290921691909117905550620002a5915050565b828054620001639062000268565b90600052602060002090601f016020900481019282620001875760008555620001d2565b82601f10620001a257805160ff1916838001178555620001d2565b82800160010185558215620001d2579182015b82811115620001d2578251825591602001919060010190620001b5565b50620001e0929150620001e4565b5090565b5b80821115620001e05760008155600101620001e5565b6001600160a01b03811681146200021157600080fd5b50565b6000806000606084860312156200022a57600080fd5b83516200023781620001fb565b60208501519093506200024a81620001fb565b60408501519092506200025d81620001fb565b809150509250925092565b600181811c908216806200027d57607f821691505b602082108114156200029f57634e487b7160e01b600052602260045260246000fd5b50919050565b612c1180620002b56000396000f3fe60806040526004361061021a5760003560e01c806370a0823111610123578063c669b710116100ab578063e73961f51161006f578063e73961f514610635578063e985e9c51461064b578063f08b7b7314610694578063f2fb2120146106b4578063fa4facdb146106d457600080fd5b8063c669b710146105bb578063c87b56dd146105da578063d4637ddb146105fa578063d534d6361461061a578063e046670b1461062f57600080fd5b8063900294be116100f2578063900294be1461053057806395d89b4114610550578063a22cb46514610565578063b88d4fde14610585578063c03d5b47146105a557600080fd5b806370a08231146104ab5780637c62539a146104d957806384505e6a146104f95780638ed955b91461051b57600080fd5b80632756985c116101a6578063429c3edf11610175578063429c3edf146104155780635bcabf04146104355780636352211e1461044a5780636914db601461046a5780636a7a2fa31461048a57600080fd5b80632756985c146103895780633ba0b9a9146103a9578063411ee0d0146103d557806342842e0e146103f557600080fd5b806310f7e4ed116101ed57806310f7e4ed146102d057806313245c95146102d857806318160ddd146103055780631cf95ed61461032e57806323b872dd1461036957600080fd5b806301ffc9a71461021f57806306fdde0314610254578063081812fc14610276578063095ea7b3146102ae575b600080fd5b34801561022b57600080fd5b5061023f61023a366004612540565b6106e9565b60405190151581526020015b60405180910390f35b34801561026057600080fd5b5061026961073b565b60405161024b91906125b5565b34801561028257600080fd5b506102966102913660046125c8565b6107cd565b6040516001600160a01b03909116815260200161024b565b3480156102ba57600080fd5b506102ce6102c93660046125f8565b610867565b005b6102ce61097d565b3480156102e457600080fd5b506102f86102f3366004612622565b610be9565b60405161024b919061263d565b34801561031157600080fd5b5061031b61271081565b60405161ffff909116815260200161024b565b34801561033a57600080fd5b5061034e6103493660046125c8565b610c56565b6040805193845260208401929092529082015260600161024b565b34801561037557600080fd5b506102ce610384366004612681565b610c7e565b34801561039557600080fd5b5061023f6103a43660046125c8565b610caf565b3480156103b557600080fd5b506006546103c39060ff1681565b60405160ff909116815260200161024b565b3480156103e157600080fd5b50600a54610296906001600160a01b031681565b34801561040157600080fd5b506102ce610410366004612681565b610e43565b34801561042157600080fd5b506102ce6104303660046126bd565b610e5e565b34801561044157600080fd5b5061026961127e565b34801561045657600080fd5b506102966104653660046125c8565b61130c565b34801561047657600080fd5b506102696104853660046125c8565b611383565b34801561049657600080fd5b506006546103c3906301000000900460ff1681565b3480156104b757600080fd5b506104cb6104c6366004612622565b6113b7565b60405190815260200161024b565b3480156104e557600080fd5b50600954610296906001600160a01b031681565b34801561050557600080fd5b5061050e61143e565b60405161024b91906126f3565b34801561052757600080fd5b506102ce611528565b34801561053c57600080fd5b50600854610296906001600160a01b031681565b34801561055c57600080fd5b506102696117ef565b34801561057157600080fd5b506102ce610580366004612732565b6117fe565b34801561059157600080fd5b506102ce6105a0366004612774565b6118c3565b3480156105b157600080fd5b506104cb60075481565b3480156105c757600080fd5b506006546103c390610100900460ff1681565b3480156105e657600080fd5b506102696105f53660046125c8565b6118fb565b34801561060657600080fd5b506006546103c39062010000900460ff1681565b34801561062657600080fd5b506104cb6119e3565b476104cb565b34801561064157600080fd5b506104cb600e5481565b34801561065757600080fd5b5061023f610666366004612850565b6001600160a01b03918216600090815260056020908152604080832093909416825291909152205460ff1690565b3480156106a057600080fd5b506104cb6106af3660046125f8565b6119f3565b3480156106c057600080fd5b506104cb6106cf366004612622565b611a25565b3480156106e057600080fd5b5061050e611b88565b60006001600160e01b031982166380ac58cd60e01b148061071a57506001600160e01b03198216635b5e139f60e01b145b8061073557506301ffc9a760e01b6001600160e01b03198316145b92915050565b60606000805461074a90612883565b80601f016020809104026020016040519081016040528092919081815260200182805461077690612883565b80156107c35780601f10610798576101008083540402835291602001916107c3565b820191906000526020600020905b8154815290600101906020018083116107a657829003601f168201915b5050505050905090565b6000818152600260205260408120546001600160a01b031661084b5760405162461bcd60e51b815260206004820152602c60248201527f4552433732313a20617070726f76656420717565727920666f72206e6f6e657860448201526b34b9ba32b73a103a37b5b2b760a11b60648201526084015b60405180910390fd5b506000908152600460205260409020546001600160a01b031690565b60006108728261130c565b9050806001600160a01b0316836001600160a01b031614156108e05760405162461bcd60e51b815260206004820152602160248201527f4552433732313a20617070726f76616c20746f2063757272656e74206f776e656044820152603960f91b6064820152608401610842565b336001600160a01b03821614806108fc57506108fc8133610666565b61096e5760405162461bcd60e51b815260206004820152603860248201527f4552433732313a20617070726f76652063616c6c6572206973206e6f74206f7760448201527f6e6572206e6f7220617070726f76656420666f7220616c6c00000000000000006064820152608401610842565b6109788383611c68565b505050565b6008546040516370a0823160e01b81523060048201526000916001600160a01b0316906370a082319060240160206040518083038186803b1580156109c157600080fd5b505afa1580156109d5573d6000803e3d6000fd5b505050506040513d601f19601f820116820180604052508101906109f991906128be565b11610a0357600080fd5b60003411610a6c5760405162461bcd60e51b815260206004820152603060248201527f796f75206861766520746f2073656e6420736f6d652045544820746f2067657460448201526f1025b4b733b237b6a9b2b2b231b7b4b760811b6064820152608401610842565b6008546040516370a0823160e01b81523060048201526000916001600160a01b0316906370a082319060240160206040518083038186803b158015610ab057600080fd5b505afa158015610ac4573d6000803e3d6000fd5b505050506040513d601f19601f82011682018060405250810190610ae891906128be565b11610b4d5760405162461bcd60e51b815260206004820152602f60248201527f75686f682c2073727920692063616e27742073656e6420616e79206d6f72652060448201526e25b4b733b237b6a9b2b2b231b7b4b760891b6064820152608401610842565b600654600090610b609060ff16346128ed565b60085460405163a9059cbb60e01b8152336004820152602481018390529192506001600160a01b03169063a9059cbb90604401602060405180830381600087803b158015610bad57600080fd5b505af1158015610bc1573d6000803e3d6000fd5b505050506040513d601f19601f82011682018060405250810190610be5919061290c565b5050565b6001600160a01b03811660009081526175406020908152604091829020805483518184028101840190945280845260609392830182828015610c4a57602002820191906000526020600020905b815481526020019060010190808311610c36575b50505050509050919050565b6010816127108110610c6757600080fd5b600302018054600182015460029092015490925083565b610c883382611cd6565b610ca45760405162461bcd60e51b815260040161084290612929565b610978838383611dcd565b600c546000906001600160a01b03163314610cf75760405162461bcd60e51b81526020600482015260086024820152673337b7b59037b33360c11b6044820152606401610842565b6000610d028361130c565b9050610d0f813085611dcd565b611a0a60005b6001600160a01b03831660009081526175406020526040902054811015610d8f576001600160a01b038316600090815261754060205260409020805486919083908110610d6457610d6461297a565b90600052602060002001541415610d7d57809150610d8f565b80610d8781612990565b915050610d15565b5080611a0a1415610e015760405162461bcd60e51b815260206004820152603660248201527f72657665727365206974656d2066756e6374696f6e2e2e2e206974656d206e6f6044820152757420666f756e6420696e20616464726573733269647360501b6064820152608401610842565b6001600160a01b038216600090815261754060205260409020805482908110610e2c57610e2c61297a565b60009182526020822001555060019150505b919050565b610978838383604051806020016040528060008152506118c3565b6009546040516370a0823160e01b81523060048201526000916001600160a01b0316906370a082319060240160206040518083038186803b158015610ea257600080fd5b505afa158015610eb6573d6000803e3d6000fd5b505050506040513d601f19601f82011682018060405250810190610eda91906128be565b11610ee457600080fd5b600a546040516370a0823160e01b81523060048201526000916001600160a01b0316906370a082319060240160206040518083038186803b158015610f2857600080fd5b505afa158015610f3c573d6000803e3d6000fd5b505050506040513d601f19601f82011682018060405250810190610f6091906128be565b11610f6a57600080fd5b6008546040516370a0823160e01b81523360048201526000916001600160a01b0316906370a082319060240160206040518083038186803b158015610fae57600080fd5b505afa158015610fc2573d6000803e3d6000fd5b505050506040513d601f19601f82011682018060405250810190610fe691906128be565b9050828110158015610ff85750600083115b61105f5760405162461bcd60e51b815260206004820152603260248201527f796f7520646f6e2774206861766520656e6f7567682073656564636f696e732160448201527120627579206f7220747261646520736f6d6560701b6064820152608401610842565b60ff8216158061107257508160ff166001145b6110d95760405162461bcd60e51b815260206004820152603260248201527f746172676574436f696e2068617320746f20626520303d61747461636b636f69604482015271371037b910189eb232b332b739b2b1b7b4b760711b6064820152608401610842565b60ff821661111b5760405183815233907f44d00596aedd88fca0607c9a84113fd638c9a070d5ef8d77c072080b688d8e349060200160405180910390a261115d565b8160ff166001141561115d5760405183815233907f049b4d6e22c9904766197183f9dc1f362cefb04f39e3850a8b7d83ff2c26216f9060200160405180910390a25b6008546040516323b872dd60e01b8152336004820152306024820152604481018590526001600160a01b03909116906323b872dd90606401602060405180830381600087803b1580156111af57600080fd5b505af11580156111c3573d6000803e3d6000fd5b505050506040513d601f19601f820116820180604052508101906111e7919061290c565b50600b6000336001600160a01b03166001600160a01b0316815260200190815260200160002060405180606001604052808581526020018460ff1681526020016007544261123591906129ab565b90528154600180820184556000938452602093849020835160039093020191825592820151928101805460ff191660ff9094169390931790925560400151600290910155505050565b600f805461128b90612883565b80601f01602080910402602001604051908101604052809291908181526020018280546112b790612883565b80156113045780601f106112d957610100808354040283529160200191611304565b820191906000526020600020905b8154815290600101906020018083116112e757829003601f168201915b505050505081565b6000818152600260205260408120546001600160a01b0316806107355760405162461bcd60e51b815260206004820152602960248201527f4552433732313a206f776e657220717565727920666f72206e6f6e657869737460448201526832b73a103a37b5b2b760b91b6064820152608401610842565b6060600f61139083611f6d565b6040516020016113a19291906129df565b6040516020818303038152906040529050919050565b60006001600160a01b0382166114225760405162461bcd60e51b815260206004820152602a60248201527f4552433732313a2062616c616e636520717565727920666f7220746865207a65604482015269726f206164647265737360b01b6064820152608401610842565b506001600160a01b031660009081526003602052604090205490565b61144661250c565b60005b336000908152600b602052604090205481101561152457336000908152600b602052604081208054839081106114815761148161297a565b600091825260209182902060408051606081018252600390930290910180548352600181015460ff16938301849052600201549082015291506114e35742816040015111156114da5760168360005b6020020152611511565b600083816114d0565b806020015160ff16600114156115115742816040015111156115095760178360016114d0565b600060208401525b508061151c81612990565b915050611449565b5090565b60005b336000908152600b60205260409020548110156117ec57336000908152600b602052604081208054839081106115635761156361297a565b600091825260209182902060408051606081018252600390930290910180548352600181015460ff169383019390935260029092015491810182905291504211156117d957602081015160ff1661169e5760065481516000916115cf9161010090910460ff1690612a9c565b90506115de8260000151612096565b60095460405163a9059cbb60e01b8152336004820152602481018390526001600160a01b039091169063a9059cbb90604401602060405180830381600087803b15801561162a57600080fd5b505af115801561163e573d6000803e3d6000fd5b505050506040513d601f19601f82011682018060405250810190611662919061290c565b5060405181815233907f9fd4a9248425079a398923cd20daa8e0c103907fb89db4707cb4f2cc343f95469060200160405180910390a250611795565b806020015160ff16600114156117955760065481516000916116ca916201000090910460ff1690612a9c565b90506116d98260000151612096565b600a5460405163a9059cbb60e01b8152336004820152602481018390526001600160a01b039091169063a9059cbb90604401602060405180830381600087803b15801561172557600080fd5b505af1158015611739573d6000803e3d6000fd5b505050506040513d601f19601f8201168201806040525081019061175d919061290c565b5060405181815233907fd62aeb2df4f1c7a0c59e15c0dca22ccbcbe42ad0d0dbf99a22c0ad2551c5a1559060200160405180910390a2505b336000908152600b602052604090208054839081106117b6576117b661297a565b60009182526020822060039091020181815560018101805460ff19169055600201555b50806117e481612990565b91505061152b565b50565b60606001805461074a90612883565b6001600160a01b0382163314156118575760405162461bcd60e51b815260206004820152601960248201527f4552433732313a20617070726f766520746f2063616c6c6572000000000000006044820152606401610842565b3360008181526005602090815260408083206001600160a01b03871680855290835292819020805460ff191686151590811790915590519081529192917f17307eab39ab6107e8899845ad3d59bd9653f200f220920489ca2b5937696c31910160405180910390a35050565b6118cd3383611cd6565b6118e95760405162461bcd60e51b815260040161084290612929565b6118f58484848461218c565b50505050565b6000818152600260205260409020546060906001600160a01b031661197a5760405162461bcd60e51b815260206004820152602f60248201527f4552433732314d657461646174613a2055524920717565727920666f72206e6f60448201526e3732bc34b9ba32b73a103a37b5b2b760891b6064820152608401610842565b600061199160408051602081019091526000815290565b905060008151116119b157604051806020016040528060008152506119dc565b806119bb846121bf565b6040516020016119cc929190612ab0565b6040516020818303038152906040525b9392505050565b60006119ee600d5490565b905090565b6175406020528160005260406000208181548110611a1057600080fd5b90600052602060002001600091509150505481565b600c546000906001600160a01b03163314611a6d5760405162461bcd60e51b81526020600482015260086024820152673337b7b59037b33360c11b6044820152606401610842565b612710611a79600d5490565b10611ad05760405162461bcd60e51b815260206004820152602160248201527f75686f682c206e6f207469746c657320617661696c61626c6520616e796d6f726044820152606560f81b6064820152608401610842565b611ade600d80546001019055565b6000611ae9600d5490565b9050611af583826122bd565b6001600160a01b038316600090815261754060209081526040808320805460018101825590845282842001849055805160608101825283815291820192909252600e549091820190611b4790426129ab565b90526010826127108110611b5d57611b5d61297a565b8251600391909102919091019081556020820151600182015560409091015160029091015592915050565b611b9061250c565b60008060005b336000908152600b6020526040902054811015611c5057336000908152600b60205260408120805483908110611bce57611bce61297a565b600091825260209182902060408051606081018252600390930290910180548352600181015460ff1693830184905260020154908201529150611c1e578051611c1790856129ab565b9350611c3d565b806020015160ff1660011415611c3d578051611c3a90846129ab565b92505b5080611c4881612990565b915050611b96565b50604080518082019091529182526020820152919050565b600081815260046020526040902080546001600160a01b0319166001600160a01b0384169081179091558190611c9d8261130c565b6001600160a01b03167f8c5be1e5ebec7d5bd14f71427d1e84f3dd0314c0f7b2291e5b200ac8c7c3b92560405160405180910390a45050565b6000818152600260205260408120546001600160a01b0316611d4f5760405162461bcd60e51b815260206004820152602c60248201527f4552433732313a206f70657261746f7220717565727920666f72206e6f6e657860448201526b34b9ba32b73a103a37b5b2b760a11b6064820152608401610842565b6000611d5a8361130c565b9050806001600160a01b0316846001600160a01b03161480611d955750836001600160a01b0316611d8a846107cd565b6001600160a01b0316145b80611dc557506001600160a01b0380821660009081526005602090815260408083209388168352929052205460ff165b949350505050565b826001600160a01b0316611de08261130c565b6001600160a01b031614611e485760405162461bcd60e51b815260206004820152602960248201527f4552433732313a207472616e73666572206f6620746f6b656e2074686174206960448201526839903737ba1037bbb760b91b6064820152608401610842565b6001600160a01b038216611eaa5760405162461bcd60e51b8152602060048201526024808201527f4552433732313a207472616e7366657220746f20746865207a65726f206164646044820152637265737360e01b6064820152608401610842565b611eb5600082611c68565b6001600160a01b0383166000908152600360205260408120805460019290611ede908490612adf565b90915550506001600160a01b0382166000908152600360205260408120805460019290611f0c9084906129ab565b909155505060008181526002602052604080822080546001600160a01b0319166001600160a01b0386811691821790925591518493918716917fddf252ad1be2c89b69c2b068fc378daa952ba7f163c4a11628f55a4df523b3ef91a4505050565b606081611f915750506040805180820190915260018152600360fc1b602082015290565b8160005b8115611fbb5780611fa581612990565b9150611fb49050600a83612a9c565b9150611f95565b60008167ffffffffffffffff811115611fd657611fd661275e565b6040519080825280601f01601f191660200182016040528015612000576020820181803683370190505b509050815b851561208d57612016600182612adf565b90506000612025600a88612a9c565b61203090600a6128ed565b61203a9088612adf565b612045906030612af6565b905060008160f81b9050808484815181106120625761206261297a565b60200101906001600160f81b031916908160001a905350612084600a89612a9c565b97505050612005565b50949350505050565b6006546000906064906120b3906301000000900460ff16846128ed565b6120bd9190612a9c565b6120c79083612adf565b60085460405163a9059cbb60e01b8152336004820152602481018390529192506001600160a01b03169063a9059cbb90604401602060405180830381600087803b15801561211457600080fd5b505af1158015612128573d6000803e3d6000fd5b505050506040513d601f19601f8201168201806040525081019061214c919061290c565b50604080518281526020810184905233917f11acec8ea502f5c875e157dd1a17389990a9350450464db61ef112521c0d8751910160405180910390a25050565b612197848484611dcd565b6121a3848484846123ff565b6118f55760405162461bcd60e51b815260040161084290612b1b565b6060816121e35750506040805180820190915260018152600360fc1b602082015290565b8160005b811561220d57806121f781612990565b91506122069050600a83612a9c565b91506121e7565b60008167ffffffffffffffff8111156122285761222861275e565b6040519080825280601f01601f191660200182016040528015612252576020820181803683370190505b5090505b8415611dc557612267600183612adf565b9150612274600a86612b6d565b61227f9060306129ab565b60f81b8183815181106122945761229461297a565b60200101906001600160f81b031916908160001a9053506122b6600a86612a9c565b9450612256565b6001600160a01b0382166123135760405162461bcd60e51b815260206004820181905260248201527f4552433732313a206d696e7420746f20746865207a65726f20616464726573736044820152606401610842565b6000818152600260205260409020546001600160a01b0316156123785760405162461bcd60e51b815260206004820152601c60248201527f4552433732313a20746f6b656e20616c7265616479206d696e746564000000006044820152606401610842565b6001600160a01b03821660009081526003602052604081208054600192906123a19084906129ab565b909155505060008181526002602052604080822080546001600160a01b0319166001600160a01b03861690811790915590518392907fddf252ad1be2c89b69c2b068fc378daa952ba7f163c4a11628f55a4df523b3ef908290a45050565b60006001600160a01b0384163b1561250157604051630a85bd0160e11b81526001600160a01b0385169063150b7a0290612443903390899088908890600401612b81565b602060405180830381600087803b15801561245d57600080fd5b505af192505050801561248d575060408051601f3d908101601f1916820190925261248a91810190612bbe565b60015b6124e7573d8080156124bb576040519150601f19603f3d011682016040523d82523d6000602084013e6124c0565b606091505b5080516124df5760405162461bcd60e51b815260040161084290612b1b565b805181602001fd5b6001600160e01b031916630a85bd0160e11b149050611dc5565b506001949350505050565b60405180604001604052806002906020820280368337509192915050565b6001600160e01b0319811681146117ec57600080fd5b60006020828403121561255257600080fd5b81356119dc8161252a565b60005b83811015612578578181015183820152602001612560565b838111156118f55750506000910152565b600081518084526125a181602086016020860161255d565b601f01601f19169290920160200192915050565b6020815260006119dc6020830184612589565b6000602082840312156125da57600080fd5b5035919050565b80356001600160a01b0381168114610e3e57600080fd5b6000806040838503121561260b57600080fd5b612614836125e1565b946020939093013593505050565b60006020828403121561263457600080fd5b6119dc826125e1565b6020808252825182820181905260009190848201906040850190845b8181101561267557835183529284019291840191600101612659565b50909695505050505050565b60008060006060848603121561269657600080fd5b61269f846125e1565b92506126ad602085016125e1565b9150604084013590509250925092565b600080604083850312156126d057600080fd5b82359150602083013560ff811681146126e857600080fd5b809150509250929050565b60408101818360005b600281101561271b5781518352602092830192909101906001016126fc565b50505092915050565b80151581146117ec57600080fd5b6000806040838503121561274557600080fd5b61274e836125e1565b915060208301356126e881612724565b634e487b7160e01b600052604160045260246000fd5b6000806000806080858703121561278a57600080fd5b612793856125e1565b93506127a1602086016125e1565b925060408501359150606085013567ffffffffffffffff808211156127c557600080fd5b818701915087601f8301126127d957600080fd5b8135818111156127eb576127eb61275e565b604051601f8201601f19908116603f011681019083821181831017156128135761281361275e565b816040528281528a602084870101111561282c57600080fd5b82602086016020830137600060208483010152809550505050505092959194509250565b6000806040838503121561286357600080fd5b61286c836125e1565b915061287a602084016125e1565b90509250929050565b600181811c9082168061289757607f821691505b602082108114156128b857634e487b7160e01b600052602260045260246000fd5b50919050565b6000602082840312156128d057600080fd5b5051919050565b634e487b7160e01b600052601160045260246000fd5b6000816000190483118215151615612907576129076128d7565b500290565b60006020828403121561291e57600080fd5b81516119dc81612724565b60208082526031908201527f4552433732313a207472616e736665722063616c6c6572206973206e6f74206f6040820152701ddb995c881b9bdc88185c1c1c9bdd9959607a1b606082015260800190565b634e487b7160e01b600052603260045260246000fd5b60006000198214156129a4576129a46128d7565b5060010190565b600082198211156129be576129be6128d7565b500190565b600081516129d581856020860161255d565b9290920192915050565b600080845481600182811c9150808316806129fb57607f831692505b6020808410821415612a1b57634e487b7160e01b86526022600452602486fd5b818015612a2f5760018114612a4057612a6d565b60ff19861689528489019650612a6d565b60008b81526020902060005b86811015612a655781548b820152908501908301612a4c565b505084890196505b505050505050612a7d81856129c3565b95945050505050565b634e487b7160e01b600052601260045260246000fd5b600082612aab57612aab612a86565b500490565b60008351612ac281846020880161255d565b835190830190612ad681836020880161255d565b01949350505050565b600082821015612af157612af16128d7565b500390565b600060ff821660ff84168060ff03821115612b1357612b136128d7565b019392505050565b60208082526032908201527f4552433732313a207472616e7366657220746f206e6f6e20455243373231526560408201527131b2b4bb32b91034b6b83632b6b2b73a32b960711b606082015260800190565b600082612b7c57612b7c612a86565b500690565b6001600160a01b0385811682528416602082015260408101839052608060608201819052600090612bb490830184612589565b9695505050505050565b600060208284031215612bd057600080fd5b81516119dc8161252a56fea264697066735822122033a586b851c57c9ec5dbd2a071e9391bdbb3307b0aaf22725f259b781ba1c5c364736f6c6343000809003368747470733a2f2f7777772e6b696e67646f6d63727970746f2e636f6d2f7469746c65732f",
  "immutableReferences": {},
  "source": "pragma solidity ^0.8;\n\nimport \"@openzeppelin/contracts/token/ERC721/ERC721.sol\";\nimport \"@openzeppelin/contracts/utils/Counters.sol\";\nimport \"@openzeppelin/contracts/access/Ownable.sol\";\nimport \"./KingdomBank.sol\";\n\ncontract KingdomTitles is ERC721, KingdomBank {\n    using Counters for Counters.Counter;\n    \n    address private _owner;\n    \n    Counters.Counter private _tokenIds;\n    uint16 constant public totalSupply = 10000;\n    uint public attackCooldown = 60 seconds;\n    string public baseUrl = \"https://www.kingdomcrypto.com/titles/\";\n\n    struct KingdomTitle {\n        uint attackPoints;\n        uint defensePoints;\n        uint readyTimeAttack;\n    }\n\n    KingdomTitle[totalSupply] public kingdomtitles;\n\n    mapping (address => uint[]) public address2ids;\n\n    constructor(KingdomSeedCoin kgdsc, KingdomAttackCoin kgdat, KingdomDefenseCoin kgddf) ERC721(\"Kingdom Titles\", \"KGD\") KingdomBank(kgdsc, kgdat, kgddf) {\n        _owner = _msgSender();\n    }\n\n    modifier onlyOwner {\n        require(_owner == msg.sender, \"fook off\");\n        _;\n    }\n\n    function uint2str(uint _i) internal pure returns (string memory _uintAsString) {\n        if (_i == 0) {\n            return \"0\";\n        }\n        uint j = _i;\n        uint len;\n        while (j != 0) {\n            len++;\n            j /= 10;\n        }\n        bytes memory bstr = new bytes(len);\n        uint k = len;\n        while (_i != 0) {\n            k = k-1;\n            uint8 temp = (48 + uint8(_i - _i / 10 * 10));\n            bytes1 b1 = bytes1(temp);\n            bstr[k] = b1;\n            _i /= 10;\n        }\n        return string(bstr);\n    }\n\n    function currentPosition() public view returns (uint256) {\n        return uint256(_tokenIds.current());\n    }\n\n    function awardItem(address player) public onlyOwner returns (uint256) {\n        require(_tokenIds.current() < totalSupply, \"uhoh, no titles available anymore\");\n\n        // todo: get rid of tokenIds and exchange with struct\n        _tokenIds.increment();      \n\n        uint256 newItemId = _tokenIds.current();\n        _mint(player, newItemId);\n\n        // mark it down in address2ids\n        address2ids[player].push(newItemId);\n\n        // then add data to storage\n        kingdomtitles[newItemId] = KingdomTitle(0,0,block.timestamp + attackCooldown);\n\n        return newItemId;\n    }\n\n    function reverseItem(uint256 itemId) public onlyOwner returns (bool) {\n        address ownerOfItem = ownerOf(itemId);\n        _transfer(ownerOfItem, address(this), itemId);\n        uint pos = 6666;\n        for (uint i = 0; i < address2ids[ownerOfItem].length; i++) {\n            if (address2ids[ownerOfItem][i] == itemId) {\n                pos = i;\n                break;\n            }\n        }\n        require(pos != 6666, \"reverse item function... item not found in address2ids\");\n        delete address2ids[ownerOfItem][pos];\n        return true;\n    }\n\n    function tokenMetadata(uint256 _tokenId) public view returns (string memory infoUrl) {\n        return string(abi.encodePacked(baseUrl, uint2str(_tokenId)));\n    }\n\n    function returnIdsOfAddress(address _own) external view returns (uint256[] memory ownedIds) {\n        return address2ids[_own];\n    }\n}",
  "sourcePath": "/home/justing/code/solidity-course/kingdom/contracts/KingdomTitles.sol",
  "compiler": {
    "name": "solc",
    "version": "0.8.9+commit.e5eed63a.Emscripten.clang"
  },
  "schemaVersion": "3.4.3",
  "updatedAt": "2021-11-10T15:14:52.533Z",
  "devdoc": {
    "kind": "dev",
    "methods": {
      "approve(address,uint256)": {
        "details": "See {IERC721-approve}."
      },
      "balanceOf(address)": {
        "details": "See {IERC721-balanceOf}."
      },
      "getApproved(uint256)": {
        "details": "See {IERC721-getApproved}."
      },
      "isApprovedForAll(address,address)": {
        "details": "See {IERC721-isApprovedForAll}."
      },
      "name()": {
        "details": "See {IERC721Metadata-name}."
      },
      "ownerOf(uint256)": {
        "details": "See {IERC721-ownerOf}."
      },
      "safeTransferFrom(address,address,uint256)": {
        "details": "See {IERC721-safeTransferFrom}."
      },
      "safeTransferFrom(address,address,uint256,bytes)": {
        "details": "See {IERC721-safeTransferFrom}."
      },
      "setApprovalForAll(address,bool)": {
        "details": "See {IERC721-setApprovalForAll}."
      },
      "supportsInterface(bytes4)": {
        "details": "See {IERC165-supportsInterface}."
      },
      "symbol()": {
        "details": "See {IERC721Metadata-symbol}."
      },
      "tokenURI(uint256)": {
        "details": "See {IERC721Metadata-tokenURI}."
      },
      "transferFrom(address,address,uint256)": {
        "details": "See {IERC721-transferFrom}."
      }
    },
    "version": 1
  },
  "userdoc": {
    "kind": "user",
    "methods": {},
    "version": 1
  }
}