{
  "contractName": "KingdomTitles",
  "abi": [
    {
      "inputs": [
        {
          "internalType": "contract KingdomSeedCoin",
          "name": "kgdsc",
          "type": "address"
        },
        {
          "internalType": "contract KingdomAttackCoin",
          "name": "kgdat",
          "type": "address"
        },
        {
          "internalType": "contract KingdomDefenseCoin",
          "name": "kgddf",
          "type": "address"
        }
      ],
      "stateMutability": "nonpayable",
      "type": "constructor"
    },
    {
      "anonymous": false,
      "inputs": [
        {
          "indexed": true,
          "internalType": "address",
          "name": "owner",
          "type": "address"
        },
        {
          "indexed": true,
          "internalType": "address",
          "name": "approved",
          "type": "address"
        },
        {
          "indexed": true,
          "internalType": "uint256",
          "name": "tokenId",
          "type": "uint256"
        }
      ],
      "name": "Approval",
      "type": "event"
    },
    {
      "anonymous": false,
      "inputs": [
        {
          "indexed": true,
          "internalType": "address",
          "name": "owner",
          "type": "address"
        },
        {
          "indexed": true,
          "internalType": "address",
          "name": "operator",
          "type": "address"
        },
        {
          "indexed": false,
          "internalType": "bool",
          "name": "approved",
          "type": "bool"
        }
      ],
      "name": "ApprovalForAll",
      "type": "event"
    },
    {
      "anonymous": false,
      "inputs": [
        {
          "indexed": true,
          "internalType": "address",
          "name": "_to",
          "type": "address"
        },
        {
          "indexed": false,
          "internalType": "uint256",
          "name": "_amount",
          "type": "uint256"
        }
      ],
      "name": "HarvestAttackPoints",
      "type": "event"
    },
    {
      "anonymous": false,
      "inputs": [
        {
          "indexed": true,
          "internalType": "address",
          "name": "_to",
          "type": "address"
        },
        {
          "indexed": false,
          "internalType": "uint256",
          "name": "_amount",
          "type": "uint256"
        }
      ],
      "name": "HarvestDefensePoints",
      "type": "event"
    },
    {
      "anonymous": false,
      "inputs": [
        {
          "indexed": true,
          "internalType": "address",
          "name": "_to",
          "type": "address"
        },
        {
          "indexed": false,
          "internalType": "uint256",
          "name": "_amount",
          "type": "uint256"
        },
        {
          "indexed": false,
          "internalType": "uint256",
          "name": "_beforeBurn",
          "type": "uint256"
        }
      ],
      "name": "HarvestRemainingSeedCoins",
      "type": "event"
    },
    {
      "anonymous": false,
      "inputs": [
        {
          "indexed": true,
          "internalType": "address",
          "name": "previousOwner",
          "type": "address"
        },
        {
          "indexed": true,
          "internalType": "address",
          "name": "newOwner",
          "type": "address"
        }
      ],
      "name": "OwnershipTransferred",
      "type": "event"
    },
    {
      "anonymous": false,
      "inputs": [
        {
          "indexed": true,
          "internalType": "address",
          "name": "from",
          "type": "address"
        },
        {
          "indexed": true,
          "internalType": "address",
          "name": "to",
          "type": "address"
        },
        {
          "indexed": true,
          "internalType": "uint256",
          "name": "tokenId",
          "type": "uint256"
        }
      ],
      "name": "Transfer",
      "type": "event"
    },
    {
      "anonymous": false,
      "inputs": [
        {
          "indexed": true,
          "internalType": "address",
          "name": "_from",
          "type": "address"
        },
        {
          "indexed": false,
          "internalType": "uint256",
          "name": "_amount",
          "type": "uint256"
        }
      ],
      "name": "enterStakingAttackPoints",
      "type": "event"
    },
    {
      "anonymous": false,
      "inputs": [
        {
          "indexed": true,
          "internalType": "address",
          "name": "_from",
          "type": "address"
        },
        {
          "indexed": false,
          "internalType": "uint256",
          "name": "_amount",
          "type": "uint256"
        }
      ],
      "name": "enterStakingDefensePoints",
      "type": "event"
    },
    {
      "inputs": [
        {
          "internalType": "address",
          "name": "",
          "type": "address"
        },
        {
          "internalType": "uint256",
          "name": "",
          "type": "uint256"
        }
      ],
      "name": "address2ids",
      "outputs": [
        {
          "internalType": "uint256",
          "name": "",
          "type": "uint256"
        }
      ],
      "stateMutability": "view",
      "type": "function"
    },
    {
      "inputs": [
        {
          "internalType": "address",
          "name": "to",
          "type": "address"
        },
        {
          "internalType": "uint256",
          "name": "tokenId",
          "type": "uint256"
        }
      ],
      "name": "approve",
      "outputs": [],
      "stateMutability": "nonpayable",
      "type": "function"
    },
    {
      "inputs": [],
      "name": "attackCooldown",
      "outputs": [
        {
          "internalType": "uint256",
          "name": "",
          "type": "uint256"
        }
      ],
      "stateMutability": "view",
      "type": "function"
    },
    {
      "inputs": [],
      "name": "balanceLastMonth_kgdat",
      "outputs": [
        {
          "internalType": "uint256",
          "name": "",
          "type": "uint256"
        }
      ],
      "stateMutability": "view",
      "type": "function"
    },
    {
      "inputs": [],
      "name": "balanceLastMonth_kgddf",
      "outputs": [
        {
          "internalType": "uint256",
          "name": "",
          "type": "uint256"
        }
      ],
      "stateMutability": "view",
      "type": "function"
    },
    {
      "inputs": [],
      "name": "balanceLastMonth_kgdsc",
      "outputs": [
        {
          "internalType": "uint256",
          "name": "",
          "type": "uint256"
        }
      ],
      "stateMutability": "view",
      "type": "function"
    },
    {
      "inputs": [
        {
          "internalType": "address",
          "name": "owner",
          "type": "address"
        }
      ],
      "name": "balanceOf",
      "outputs": [
        {
          "internalType": "uint256",
          "name": "",
          "type": "uint256"
        }
      ],
      "stateMutability": "view",
      "type": "function"
    },
    {
      "inputs": [],
      "name": "baseUrl",
      "outputs": [
        {
          "internalType": "string",
          "name": "",
          "type": "string"
        }
      ],
      "stateMutability": "view",
      "type": "function"
    },
    {
      "inputs": [],
      "name": "buyForETH",
      "outputs": [],
      "stateMutability": "payable",
      "type": "function"
    },
    {
      "inputs": [],
      "name": "exchangeRate",
      "outputs": [
        {
          "internalType": "uint8",
          "name": "",
          "type": "uint8"
        }
      ],
      "stateMutability": "view",
      "type": "function"
    },
    {
      "inputs": [],
      "name": "exchangeRate_Attackpoints",
      "outputs": [
        {
          "internalType": "uint8",
          "name": "",
          "type": "uint8"
        }
      ],
      "stateMutability": "view",
      "type": "function"
    },
    {
      "inputs": [],
      "name": "exchangeRate_Burnpct",
      "outputs": [
        {
          "internalType": "uint8",
          "name": "",
          "type": "uint8"
        }
      ],
      "stateMutability": "view",
      "type": "function"
    },
    {
      "inputs": [],
      "name": "exchangeRate_Defensepoints",
      "outputs": [
        {
          "internalType": "uint8",
          "name": "",
          "type": "uint8"
        }
      ],
      "stateMutability": "view",
      "type": "function"
    },
    {
      "inputs": [
        {
          "internalType": "uint256",
          "name": "tokenId",
          "type": "uint256"
        }
      ],
      "name": "getApproved",
      "outputs": [
        {
          "internalType": "address",
          "name": "",
          "type": "address"
        }
      ],
      "stateMutability": "view",
      "type": "function"
    },
    {
      "inputs": [],
      "name": "getCurrentStakes",
      "outputs": [
        {
          "internalType": "uint256[3]",
          "name": "",
          "type": "uint256[3]"
        }
      ],
      "stateMutability": "view",
      "type": "function"
    },
    {
      "inputs": [],
      "name": "getTimeUntilStakingDone",
      "outputs": [
        {
          "internalType": "uint256[3]",
          "name": "timeuntildone",
          "type": "uint256[3]"
        }
      ],
      "stateMutability": "view",
      "type": "function"
    },
    {
      "inputs": [],
      "name": "harvestAll",
      "outputs": [
        {
          "internalType": "bool",
          "name": "success",
          "type": "bool"
        }
      ],
      "stateMutability": "nonpayable",
      "type": "function"
    },
    {
      "inputs": [
        {
          "internalType": "address",
          "name": "owner",
          "type": "address"
        },
        {
          "internalType": "address",
          "name": "operator",
          "type": "address"
        }
      ],
      "name": "isApprovedForAll",
      "outputs": [
        {
          "internalType": "bool",
          "name": "",
          "type": "bool"
        }
      ],
      "stateMutability": "view",
      "type": "function"
    },
    {
      "inputs": [],
      "name": "justSendETH",
      "outputs": [
        {
          "internalType": "uint256",
          "name": "",
          "type": "uint256"
        }
      ],
      "stateMutability": "payable",
      "type": "function"
    },
    {
      "inputs": [],
      "name": "kgdat",
      "outputs": [
        {
          "internalType": "contract KingdomAttackCoin",
          "name": "",
          "type": "address"
        }
      ],
      "stateMutability": "view",
      "type": "function"
    },
    {
      "inputs": [],
      "name": "kgddf",
      "outputs": [
        {
          "internalType": "contract KingdomDefenseCoin",
          "name": "",
          "type": "address"
        }
      ],
      "stateMutability": "view",
      "type": "function"
    },
    {
      "inputs": [],
      "name": "kgdsc",
      "outputs": [
        {
          "internalType": "contract KingdomSeedCoin",
          "name": "",
          "type": "address"
        }
      ],
      "stateMutability": "view",
      "type": "function"
    },
    {
      "inputs": [
        {
          "internalType": "uint256",
          "name": "",
          "type": "uint256"
        }
      ],
      "name": "kingdomtitles",
      "outputs": [
        {
          "internalType": "uint256",
          "name": "attackPoints",
          "type": "uint256"
        },
        {
          "internalType": "uint256",
          "name": "defensePoints",
          "type": "uint256"
        },
        {
          "internalType": "uint256",
          "name": "readyTimeAttack",
          "type": "uint256"
        },
        {
          "internalType": "uint256",
          "name": "readyTimeStake",
          "type": "uint256"
        },
        {
          "internalType": "uint256",
          "name": "attackMultiplier",
          "type": "uint256"
        },
        {
          "internalType": "uint256",
          "name": "defenseMultiplier",
          "type": "uint256"
        },
        {
          "internalType": "uint256",
          "name": "moneyMultiplier",
          "type": "uint256"
        }
      ],
      "stateMutability": "view",
      "type": "function"
    },
    {
      "inputs": [],
      "name": "name",
      "outputs": [
        {
          "internalType": "string",
          "name": "",
          "type": "string"
        }
      ],
      "stateMutability": "view",
      "type": "function"
    },
    {
      "inputs": [],
      "name": "owner",
      "outputs": [
        {
          "internalType": "address",
          "name": "",
          "type": "address"
        }
      ],
      "stateMutability": "view",
      "type": "function"
    },
    {
      "inputs": [
        {
          "internalType": "uint256",
          "name": "tokenId",
          "type": "uint256"
        }
      ],
      "name": "ownerOf",
      "outputs": [
        {
          "internalType": "address",
          "name": "",
          "type": "address"
        }
      ],
      "stateMutability": "view",
      "type": "function"
    },
    {
      "inputs": [
        {
          "internalType": "uint256",
          "name": "nrSeedCoins",
          "type": "uint256"
        },
        {
          "internalType": "uint8",
          "name": "targetCoin",
          "type": "uint8"
        }
      ],
      "name": "plantSeeds",
      "outputs": [],
      "stateMutability": "nonpayable",
      "type": "function"
    },
    {
      "inputs": [],
      "name": "readyTimeStakeCooldown",
      "outputs": [
        {
          "internalType": "uint256",
          "name": "",
          "type": "uint256"
        }
      ],
      "stateMutability": "view",
      "type": "function"
    },
    {
      "inputs": [],
      "name": "renounceOwnership",
      "outputs": [],
      "stateMutability": "nonpayable",
      "type": "function"
    },
    {
      "inputs": [
        {
          "internalType": "address",
          "name": "from",
          "type": "address"
        },
        {
          "internalType": "address",
          "name": "to",
          "type": "address"
        },
        {
          "internalType": "uint256",
          "name": "tokenId",
          "type": "uint256"
        }
      ],
      "name": "safeTransferFrom",
      "outputs": [],
      "stateMutability": "nonpayable",
      "type": "function"
    },
    {
      "inputs": [
        {
          "internalType": "address",
          "name": "from",
          "type": "address"
        },
        {
          "internalType": "address",
          "name": "to",
          "type": "address"
        },
        {
          "internalType": "uint256",
          "name": "tokenId",
          "type": "uint256"
        },
        {
          "internalType": "bytes",
          "name": "_data",
          "type": "bytes"
        }
      ],
      "name": "safeTransferFrom",
      "outputs": [],
      "stateMutability": "nonpayable",
      "type": "function"
    },
    {
      "inputs": [
        {
          "internalType": "address",
          "name": "operator",
          "type": "address"
        },
        {
          "internalType": "bool",
          "name": "approved",
          "type": "bool"
        }
      ],
      "name": "setApprovalForAll",
      "outputs": [],
      "stateMutability": "nonpayable",
      "type": "function"
    },
    {
      "inputs": [],
      "name": "stakingPeriod",
      "outputs": [
        {
          "internalType": "uint256",
          "name": "",
          "type": "uint256"
        }
      ],
      "stateMutability": "view",
      "type": "function"
    },
    {
      "inputs": [
        {
          "internalType": "bytes4",
          "name": "interfaceId",
          "type": "bytes4"
        }
      ],
      "name": "supportsInterface",
      "outputs": [
        {
          "internalType": "bool",
          "name": "",
          "type": "bool"
        }
      ],
      "stateMutability": "view",
      "type": "function"
    },
    {
      "inputs": [],
      "name": "symbol",
      "outputs": [
        {
          "internalType": "string",
          "name": "",
          "type": "string"
        }
      ],
      "stateMutability": "view",
      "type": "function"
    },
    {
      "inputs": [
        {
          "internalType": "uint256",
          "name": "",
          "type": "uint256"
        }
      ],
      "name": "title2Rank",
      "outputs": [
        {
          "internalType": "uint256",
          "name": "",
          "type": "uint256"
        }
      ],
      "stateMutability": "view",
      "type": "function"
    },
    {
      "inputs": [],
      "name": "totalSupply",
      "outputs": [
        {
          "internalType": "uint16",
          "name": "",
          "type": "uint16"
        }
      ],
      "stateMutability": "view",
      "type": "function"
    },
    {
      "inputs": [
        {
          "internalType": "address",
          "name": "from",
          "type": "address"
        },
        {
          "internalType": "address",
          "name": "to",
          "type": "address"
        },
        {
          "internalType": "uint256",
          "name": "tokenId",
          "type": "uint256"
        }
      ],
      "name": "transferFrom",
      "outputs": [],
      "stateMutability": "nonpayable",
      "type": "function"
    },
    {
      "inputs": [
        {
          "internalType": "address",
          "name": "newOwner",
          "type": "address"
        }
      ],
      "name": "transferOwnership",
      "outputs": [],
      "stateMutability": "nonpayable",
      "type": "function"
    },
    {
      "inputs": [],
      "name": "currentPosition",
      "outputs": [
        {
          "internalType": "uint256",
          "name": "",
          "type": "uint256"
        }
      ],
      "stateMutability": "view",
      "type": "function"
    },
    {
      "inputs": [
        {
          "internalType": "address",
          "name": "player",
          "type": "address"
        }
      ],
      "name": "awardItem",
      "outputs": [
        {
          "internalType": "uint256",
          "name": "",
          "type": "uint256"
        }
      ],
      "stateMutability": "nonpayable",
      "type": "function"
    },
    {
      "inputs": [
        {
          "internalType": "uint256",
          "name": "itemId",
          "type": "uint256"
        }
      ],
      "name": "reverseItem",
      "outputs": [
        {
          "internalType": "bool",
          "name": "",
          "type": "bool"
        }
      ],
      "stateMutability": "nonpayable",
      "type": "function"
    },
    {
      "inputs": [
        {
          "internalType": "uint256",
          "name": "tokenId",
          "type": "uint256"
        }
      ],
      "name": "tokenURI",
      "outputs": [
        {
          "internalType": "string",
          "name": "",
          "type": "string"
        }
      ],
      "stateMutability": "view",
      "type": "function"
    },
    {
      "inputs": [
        {
          "internalType": "address",
          "name": "_own",
          "type": "address"
        }
      ],
      "name": "getRanksOfAddress",
      "outputs": [
        {
          "internalType": "uint256[]",
          "name": "",
          "type": "uint256[]"
        }
      ],
      "stateMutability": "view",
      "type": "function"
    },
    {
      "inputs": [
        {
          "internalType": "uint256",
          "name": "_id",
          "type": "uint256"
        }
      ],
      "name": "getRankOfId",
      "outputs": [
        {
          "internalType": "uint256",
          "name": "id",
          "type": "uint256"
        }
      ],
      "stateMutability": "view",
      "type": "function"
    },
    {
      "inputs": [
        {
          "internalType": "uint256",
          "name": "_rank",
          "type": "uint256"
        }
      ],
      "name": "getIdOfRank",
      "outputs": [
        {
          "internalType": "uint256",
          "name": "id",
          "type": "uint256"
        }
      ],
      "stateMutability": "view",
      "type": "function"
    },
    {
      "inputs": [
        {
          "internalType": "address",
          "name": "_own",
          "type": "address"
        }
      ],
      "name": "getIdsOfAddress",
      "outputs": [
        {
          "internalType": "uint256[]",
          "name": "ownedIds",
          "type": "uint256[]"
        }
      ],
      "stateMutability": "view",
      "type": "function"
    }
  ],
  "bytecode": "0x60806040526006805463ffffffff60a01b1916630504050560a11b179055603c600755600060088190556009819055600a553480156200003e57600080fd5b50604051620034e8380380620034e883398101604081905262000061916200024c565b604080518082018252600e81526d4b696e67646f6d205469746c657360901b60208083019182528351808501909452600384526212d1d160ea1b9084015281518693869386939092620000b7916000916200018d565b508051620000cd9060019060208401906200018d565b505050620000ea620000e46200013760201b60201c565b6200013b565b600b80546001600160a01b039485166001600160a01b031991821617909155600c805493851693821693909317909255600d805491909316911617905550506000620111805550620002dd565b3390565b600680546001600160a01b038381166001600160a01b0319831681179093556040519116919082907f8be0079c531659141344cd1fd0a4f28419497f9722a3daafe3b4186f6b6457e090600090a35050565b8280546200019b90620002a0565b90600052602060002090601f016020900481019282620001bf57600085556200020a565b82601f10620001da57805160ff19168380011785556200020a565b828001600101855582156200020a579182015b828111156200020a578251825591602001919060010190620001ed565b50620002189291506200021c565b5090565b5b808211156200021857600081556001016200021d565b6001600160a01b03811681146200024957600080fd5b50565b6000806000606084860312156200026257600080fd5b83516200026f8162000233565b6020850151909350620002828162000233565b6040850151909250620002958162000233565b809150509250925092565b600181811c90821680620002b557607f821691505b60208210811415620002d757634e487b7160e01b600052602260045260246000fd5b50919050565b6131fb80620002ed6000396000f3fe6080604052600436106102875760003560e01c8063839b92051161015a578063d4637ddb116100c1578063eb8fd9a31161007a578063eb8fd9a3146107d4578063f08b7b73146107ea578063f2fb21201461080a578063f2fde38b1461082a578063f4fd44f11461084a578063fa4facdb1461087957600080fd5b8063d4637ddb1461072d578063d534d6361461074e578063e046670b14610765578063e10270c61461076b578063e73961f51461033f578063e985e9c51461078b57600080fd5b8063a22cb46511610113578063a22cb46514610669578063b88d4fde14610689578063c03d5b47146106a9578063c4a3a1fc146106bf578063c669b710146106ec578063c87b56dd1461070d57600080fd5b8063839b9205146105c957806384505e6a146105df5780638da5cb5b146106015780638ed955b91461061f578063900294be1461063457806395d89b411461065457600080fd5b80632756985c116101fe5780636352211e116101b75780636352211e146105045780636a7a2fa31461052457806370a0823114610545578063715018a6146105655780637c62539a1461057a578063802bea6e1461059a57600080fd5b80632756985c1461043c5780633ba0b9a91461045c578063411ee0d01461048f57806342842e0e146104af578063429c3edf146104cf5780635bcabf04146104ef57600080fd5b8063095ea7b311610250578063095ea7b31461035457806310f7e4ed1461037657806316807e151461037e57806318160ddd1461039e5780631cf95ed6146103c757806323b872dd1461041c57600080fd5b80620a51801461028c57806301ffc9a7146102b557806306fdde03146102e5578063081812fc146103075780630895ba531461033f575b600080fd5b34801561029857600080fd5b506102a260095481565b6040519081526020015b60405180910390f35b3480156102c157600080fd5b506102d56102d0366004612b99565b61088e565b60405190151581526020016102ac565b3480156102f157600080fd5b506102fa6108e0565b6040516102ac9190612c0e565b34801561031357600080fd5b50610327610322366004612c21565b610972565b6040516001600160a01b0390911681526020016102ac565b34801561034b57600080fd5b506102a2603c81565b34801561036057600080fd5b5061037461036f366004612c51565b610a0c565b005b610374610b22565b34801561038a57600080fd5b506102a2610399366004612c21565b610d95565b3480156103aa57600080fd5b506103b461271081565b60405161ffff90911681526020016102ac565b3480156103d357600080fd5b506103e76103e2366004612c21565b610ddd565b604080519788526020880196909652948601939093526060850191909152608084015260a083015260c082015260e0016102ac565b34801561042857600080fd5b50610374610437366004612c7b565b610e21565b34801561044857600080fd5b506102d5610457366004612c21565b610e52565b34801561046857600080fd5b5060065461047d90600160a01b900460ff1681565b60405160ff90911681526020016102ac565b34801561049b57600080fd5b50600d54610327906001600160a01b031681565b3480156104bb57600080fd5b506103746104ca366004612c7b565b610fce565b3480156104db57600080fd5b506103746104ea366004612cb7565b610fe9565b3480156104fb57600080fd5b506102fa611409565b34801561051057600080fd5b5061032761051f366004612c21565b611425565b34801561053057600080fd5b5060065461047d90600160b81b900460ff1681565b34801561055157600080fd5b506102a2610560366004612ced565b61149c565b34801561057157600080fd5b50610374611523565b34801561058657600080fd5b50600c54610327906001600160a01b031681565b3480156105a657600080fd5b506102a26105b5366004612c21565b60009081526201117f602052604090205490565b3480156105d557600080fd5b506102a2600a5481565b3480156105eb57600080fd5b506105f4611559565b6040516102ac9190612d08565b34801561060d57600080fd5b506006546001600160a01b0316610327565b34801561062b57600080fd5b506102d56116ce565b34801561064057600080fd5b50600b54610327906001600160a01b031681565b34801561066057600080fd5b506102fa6119c0565b34801561067557600080fd5b50610374610684366004612d47565b6119cf565b34801561069557600080fd5b506103746106a4366004612d89565b611a94565b3480156106b557600080fd5b506102a260075481565b3480156106cb57600080fd5b506106df6106da366004612ced565b611acc565b6040516102ac9190612e65565b3480156106f857600080fd5b5060065461047d90600160a81b900460ff1681565b34801561071957600080fd5b506102fa610728366004612c21565b611b3a565b34801561073957600080fd5b5060065461047d90600160b01b900460ff1681565b34801561075a57600080fd5b5062011180546102a2565b476102a2565b34801561077757600080fd5b506106df610786366004612ced565b611c04565b34801561079757600080fd5b506102d56107a6366004612ea9565b6001600160a01b03918216600090815260056020908152604080832093909416825291909152205460ff1690565b3480156107e057600080fd5b506102a260085481565b3480156107f657600080fd5b506102a2610805366004612c51565b611d30565b34801561081657600080fd5b506102a2610825366004612ced565b611d63565b34801561083657600080fd5b50610374610845366004612ced565b611f2a565b34801561085657600080fd5b506102a2610865366004612c21565b6201117f6020526000908152604090205481565b34801561088557600080fd5b506105f4611fc5565b60006001600160e01b031982166380ac58cd60e01b14806108bf57506001600160e01b03198216635b5e139f60e01b145b806108da57506301ffc9a760e01b6001600160e01b03198316145b92915050565b6060600080546108ef90612edc565b80601f016020809104026020016040519081016040528092919081815260200182805461091b90612edc565b80156109685780601f1061093d57610100808354040283529160200191610968565b820191906000526020600020905b81548152906001019060200180831161094b57829003601f168201915b5050505050905090565b6000818152600260205260408120546001600160a01b03166109f05760405162461bcd60e51b815260206004820152602c60248201527f4552433732313a20617070726f76656420717565727920666f72206e6f6e657860448201526b34b9ba32b73a103a37b5b2b760a11b60648201526084015b60405180910390fd5b506000908152600460205260409020546001600160a01b031690565b6000610a1782611425565b9050806001600160a01b0316836001600160a01b03161415610a855760405162461bcd60e51b815260206004820152602160248201527f4552433732313a20617070726f76616c20746f2063757272656e74206f776e656044820152603960f91b60648201526084016109e7565b336001600160a01b0382161480610aa15750610aa181336107a6565b610b135760405162461bcd60e51b815260206004820152603860248201527f4552433732313a20617070726f76652063616c6c6572206973206e6f74206f7760448201527f6e6572206e6f7220617070726f76656420666f7220616c6c000000000000000060648201526084016109e7565b610b1d83836120d6565b505050565b600b546040516370a0823160e01b81523060048201526000916001600160a01b0316906370a082319060240160206040518083038186803b158015610b6657600080fd5b505afa158015610b7a573d6000803e3d6000fd5b505050506040513d601f19601f82011682018060405250810190610b9e9190612f11565b11610ba857600080fd5b60003411610c115760405162461bcd60e51b815260206004820152603060248201527f796f75206861766520746f2073656e6420736f6d652045544820746f2067657460448201526f1025b4b733b237b6a9b2b2b231b7b4b760811b60648201526084016109e7565b600b546040516370a0823160e01b81523060048201526000916001600160a01b0316906370a082319060240160206040518083038186803b158015610c5557600080fd5b505afa158015610c69573d6000803e3d6000fd5b505050506040513d601f19601f82011682018060405250810190610c8d9190612f11565b11610cf25760405162461bcd60e51b815260206004820152602f60248201527f75686f682c2073727920692063616e27742073656e6420616e79206d6f72652060448201526e25b4b733b237b6a9b2b2b231b7b4b760891b60648201526084016109e7565b600654600090610d0c90600160a01b900460ff1634612f40565b600b5460405163a9059cbb60e01b8152336004820152602481018390529192506001600160a01b03169063a9059cbb90604401602060405180830381600087803b158015610d5957600080fd5b505af1158015610d6d573d6000803e3d6000fd5b505050506040513d601f19601f82011682018060405250810190610d919190612f5f565b5050565b6000805b6201118054811015610dd75760008181526201117f6020526040902054831415610dc557809150610dd7565b80610dcf81612f7c565b915050610d99565b50919050565b600f816127108110610dee57600080fd5b60070201805460018201546002830154600384015460048501546005860154600690960154949650929491939092919087565b610e2b3382612144565b610e475760405162461bcd60e51b81526004016109e790612f97565b610b1d83838361223b565b6006546000906001600160a01b03163314610e7f5760405162461bcd60e51b81526004016109e790612fe8565b6000610e8a83611425565b9050610e9781308561223b565b611a0a60005b6001600160a01b0383166000908152620111816020526040902054811015610f19576001600160a01b03831660009081526201118160205260409020805486919083908110610eee57610eee61301d565b90600052602060002001541415610f0757809150610f19565b80610f1181612f7c565b915050610e9d565b5080611a0a1415610f8b5760405162461bcd60e51b815260206004820152603660248201527f72657665727365206974656d2066756e6374696f6e2e2e2e206974656d206e6f6044820152757420666f756e6420696e20616464726573733269647360501b60648201526084016109e7565b6001600160a01b03821660009081526201118160205260409020805482908110610fb757610fb761301d565b60009182526020822001555060019150505b919050565b610b1d83838360405180602001604052806000815250611a94565b600c546040516370a0823160e01b81523060048201526000916001600160a01b0316906370a082319060240160206040518083038186803b15801561102d57600080fd5b505afa158015611041573d6000803e3d6000fd5b505050506040513d601f19601f820116820180604052508101906110659190612f11565b1161106f57600080fd5b600d546040516370a0823160e01b81523060048201526000916001600160a01b0316906370a082319060240160206040518083038186803b1580156110b357600080fd5b505afa1580156110c7573d6000803e3d6000fd5b505050506040513d601f19601f820116820180604052508101906110eb9190612f11565b116110f557600080fd5b600b546040516370a0823160e01b81523360048201526000916001600160a01b0316906370a082319060240160206040518083038186803b15801561113957600080fd5b505afa15801561114d573d6000803e3d6000fd5b505050506040513d601f19601f820116820180604052508101906111719190612f11565b90508281101580156111835750600083115b6111ea5760405162461bcd60e51b815260206004820152603260248201527f796f7520646f6e2774206861766520656e6f7567682073656564636f696e732160448201527120627579206f7220747261646520736f6d6560701b60648201526084016109e7565b60ff821615806111fd57508160ff166001145b6112645760405162461bcd60e51b815260206004820152603260248201527f746172676574436f696e2068617320746f20626520303d61747461636b636f69604482015271371037b910189eb232b332b739b2b1b7b4b760711b60648201526084016109e7565b60ff82166112a65760405183815233907f44d00596aedd88fca0607c9a84113fd638c9a070d5ef8d77c072080b688d8e349060200160405180910390a26112e8565b8160ff16600114156112e85760405183815233907f049b4d6e22c9904766197183f9dc1f362cefb04f39e3850a8b7d83ff2c26216f9060200160405180910390a25b600b546040516323b872dd60e01b8152336004820152306024820152604481018590526001600160a01b03909116906323b872dd90606401602060405180830381600087803b15801561133a57600080fd5b505af115801561134e573d6000803e3d6000fd5b505050506040513d601f19601f820116820180604052508101906113729190612f5f565b50600e6000336001600160a01b03166001600160a01b0316815260200190815260200160002060405180606001604052808581526020018460ff168152602001600754426113c09190613033565b90528154600180820184556000938452602093849020835160039093020191825592820151928101805460ff191660ff9094169390931790925560400151600290910155505050565b6040518060600160405280602581526020016131a16025913981565b6000818152600260205260408120546001600160a01b0316806108da5760405162461bcd60e51b815260206004820152602960248201527f4552433732313a206f776e657220717565727920666f72206e6f6e657869737460448201526832b73a103a37b5b2b760b91b60648201526084016109e7565b60006001600160a01b0382166115075760405162461bcd60e51b815260206004820152602a60248201527f4552433732313a2062616c616e636520717565727920666f7220746865207a65604482015269726f206164647265737360b01b60648201526084016109e7565b506001600160a01b031660009081526003602052604090205490565b6006546001600160a01b0316331461154d5760405162461bcd60e51b81526004016109e790612fe8565b61155760006123db565b565b611561612b65565b60405180606001604052806298967f81526020016298967f81526020016000815250905060005b336000908152600e60205260409020548110156116ca57336000908152600e602052604081208054839081106115c0576115c061301d565b600091825260209182902060408051606081018252600390930290910180548352600181015460ff1693830193909352600290920154918101829052915061160857506116b8565b6040830180519061161882612f7c565b905250602081015160ff1661166b574281604001511115611662576000428260400151611645919061304b565b845190915081101561165c57808460005b60200201525b506116b6565b600083526116b6565b806020015160ff16600114156116b65742816040015111156116ae576000428260400151611699919061304b565b845190915081101561165c5780846001611656565b600060208401525b505b806116c281612f7c565b915050611588565b5090565b6000805b336000908152600e60205260409020548110156116ca57336000908152600e6020526040812080548390811061170a5761170a61301d565b600091825260209182902060408051606081018252600390930290910180548352600181015460ff169383019390935260029092015491810182905291504211156119ad57602081015160ff1661185857600061176f8260000151836040015161242d565b60065490915061178990600160a81b900460ff1682613078565b905061179882600001516124d6565b600c5460405163a9059cbb60e01b8152336004820152602481018390526001600160a01b039091169063a9059cbb90604401602060405180830381600087803b1580156117e457600080fd5b505af11580156117f8573d6000803e3d6000fd5b505050506040513d601f19601f8201168201806040525081019061181c9190612f5f565b5060405181815233907f9fd4a9248425079a398923cd20daa8e0c103907fb89db4707cb4f2cc343f95469060200160405180910390a250611961565b806020015160ff166001141561196157600061187c8260000151836040015161242d565b60065490915061189690600160b01b900460ff1682613078565b90506118a582600001516124d6565b600d5460405163a9059cbb60e01b8152336004820152602481018390526001600160a01b039091169063a9059cbb90604401602060405180830381600087803b1580156118f157600080fd5b505af1158015611905573d6000803e3d6000fd5b505050506040513d601f19601f820116820180604052508101906119299190612f5f565b5060405181815233907fd62aeb2df4f1c7a0c59e15c0dca22ccbcbe42ad0d0dbf99a22c0ad2551c5a1559060200160405180910390a2505b336000908152600e602052604090208054839081106119825761198261301d565b6000918252602082206003909102018181556001808201805460ff1916905560029091019190915592505b50806119b881612f7c565b9150506116d2565b6060600180546108ef90612edc565b6001600160a01b038216331415611a285760405162461bcd60e51b815260206004820152601960248201527f4552433732313a20617070726f766520746f2063616c6c65720000000000000060448201526064016109e7565b3360008181526005602090815260408083206001600160a01b03871680855290835292819020805460ff191686151590811790915590519081529192917f17307eab39ab6107e8899845ad3d59bd9653f200f220920489ca2b5937696c31910160405180910390a35050565b611a9e3383612144565b611aba5760405162461bcd60e51b81526004016109e790612f97565b611ac6848484846125cc565b50505050565b6001600160a01b0381166000908152620111816020908152604091829020805483518184028101840190945280845260609392830182828015611b2e57602002820191906000526020600020905b815481526020019060010190808311611b1a575b50505050509050919050565b6000818152600260205260409020546060906001600160a01b0316611bbb5760405162461bcd60e51b815260206004820152603160248201527f45524337323155524953746f726167653a2055524920717565727920666f72206044820152703737b732bc34b9ba32b73a103a37b5b2b760791b60648201526084016109e7565b6040518060600160405280602581526020016131a160259139611bdd836125ff565b604051602001611bee92919061308c565b6040516020818303038152906040529050919050565b6001600160a01b03811660009081526201118160209081526040808320805482518185028101850190935280835260609493830182828015611c6557602002820191906000526020600020905b815481526020019060010190808311611c51575b505050505090506000815167ffffffffffffffff811115611c8857611c88612d73565b604051908082528060200260200182016040528015611cb1578160200160208202803683370190505b5090508151600014611d295760005b8251811015611d27576201117f6000848381518110611ce157611ce161301d565b6020026020010151815260200190815260200160002054828281518110611d0a57611d0a61301d565b602090810291909101015280611d1f81612f7c565b915050611cc0565b505b9392505050565b620111816020528160005260406000208181548110611d4e57600080fd5b90600052602060002001600091509150505481565b6006546000906001600160a01b03163314611d905760405162461bcd60e51b81526004016109e790612fe8565b620111805461271011611def5760405162461bcd60e51b815260206004820152602160248201527f75686f682c206e6f207469746c657320617661696c61626c6520616e796d6f726044820152606560f81b60648201526084016109e7565b600062011180546001611e029190613033565b9050611e0e8382612728565b6001600160a01b038316600090815262011181602090815260408083208054600181018255908452828420018490558383526201117f90915281208290558080611e5784612742565b9250925092506040518060e001604052806000815260200160008152602001603c42611e839190613033565b8152602001611e93603c42613033565b815260200184815260200183815260200182815250600f856127108110611ebc57611ebc61301d565b8251600791909102919091019081556020820151600182015560408201516002820155606082015160038201556080820151600482015560a0820151600582015560c090910151600690910155620111808054906000611f1b83612f7c565b90915550939695505050505050565b6006546001600160a01b03163314611f545760405162461bcd60e51b81526004016109e790612fe8565b6001600160a01b038116611fb95760405162461bcd60e51b815260206004820152602660248201527f4f776e61626c653a206e6577206f776e657220697320746865207a65726f206160448201526564647265737360d01b60648201526084016109e7565b611fc2816123db565b50565b611fcd612b65565b6000806000805b336000908152600e60205260409020548110156120b757336000908152600e6020526040812080548390811061200c5761200c61301d565b600091825260209182902060408051606081018252600390930290910180548352600181015460ff1693830193909352600290920154918101829052915061205457506120a5565b8261205e81612f7c565b935050806020015160ff166000141561208457805161207d9086613033565b94506120a3565b806020015160ff16600114156120a35780516120a09085613033565b93505b505b806120af81612f7c565b915050611fd4565b5060408051606081018252938452602084019290925290820152919050565b600081815260046020526040902080546001600160a01b0319166001600160a01b038416908117909155819061210b82611425565b6001600160a01b03167f8c5be1e5ebec7d5bd14f71427d1e84f3dd0314c0f7b2291e5b200ac8c7c3b92560405160405180910390a45050565b6000818152600260205260408120546001600160a01b03166121bd5760405162461bcd60e51b815260206004820152602c60248201527f4552433732313a206f70657261746f7220717565727920666f72206e6f6e657860448201526b34b9ba32b73a103a37b5b2b760a11b60648201526084016109e7565b60006121c883611425565b9050806001600160a01b0316846001600160a01b031614806122035750836001600160a01b03166121f884610972565b6001600160a01b0316145b8061223357506001600160a01b0380821660009081526005602090815260408083209388168352929052205460ff165b949350505050565b826001600160a01b031661224e82611425565b6001600160a01b0316146122b65760405162461bcd60e51b815260206004820152602960248201527f4552433732313a207472616e73666572206f6620746f6b656e2074686174206960448201526839903737ba1037bbb760b91b60648201526084016109e7565b6001600160a01b0382166123185760405162461bcd60e51b8152602060048201526024808201527f4552433732313a207472616e7366657220746f20746865207a65726f206164646044820152637265737360e01b60648201526084016109e7565b6123236000826120d6565b6001600160a01b038316600090815260036020526040812080546001929061234c90849061304b565b90915550506001600160a01b038216600090815260036020526040812080546001929061237a908490613033565b909155505060008181526002602052604080822080546001600160a01b0319166001600160a01b0386811691821790925591518493918716917fddf252ad1be2c89b69c2b068fc378daa952ba7f163c4a11628f55a4df523b3ef91a4505050565b600680546001600160a01b038381166001600160a01b0319831681179093556040519116919082907f8be0079c531659141344cd1fd0a4f28419497f9722a3daafe3b4186f6b6457e090600090a35050565b60004282106124985760405162461bcd60e51b815260206004820152603160248201527f796f752063616e2774207363616c652072657761726473207769746820612074604482015270696d6520696e207468652066757475726560781b60648201526084016109e7565b60006124a4834261304b565b90506000600754826124b69190613078565b6124c1906001613033565b90506124cd8186612f40565b95945050505050565b6006546000906064906124f390600160b81b900460ff1684612f40565b6124fd9190613078565b612507908361304b565b600b5460405163a9059cbb60e01b8152336004820152602481018390529192506001600160a01b03169063a9059cbb90604401602060405180830381600087803b15801561255457600080fd5b505af1158015612568573d6000803e3d6000fd5b505050506040513d601f19601f8201168201806040525081019061258c9190612f5f565b50604080518281526020810184905233917f11acec8ea502f5c875e157dd1a17389990a9350450464db61ef112521c0d8751910160405180910390a25050565b6125d784848461223b565b6125e3848484846128e3565b611ac65760405162461bcd60e51b81526004016109e7906130bb565b6060816126235750506040805180820190915260018152600360fc1b602082015290565b8160005b811561264d578061263781612f7c565b91506126469050600a83613078565b9150612627565b60008167ffffffffffffffff81111561266857612668612d73565b6040519080825280601f01601f191660200182016040528015612692576020820181803683370190505b509050815b851561271f576126a860018261304b565b905060006126b7600a88613078565b6126c290600a612f40565b6126cc908861304b565b6126d790603061310d565b905060008160f81b9050808484815181106126f4576126f461301d565b60200101906001600160f81b031916908160001a905350612716600a89613078565b97505050612697565b50949350505050565b610d918282604051806020016040528060008152506129f0565b600080808060646127558661013a613033565b61275f9190613132565b905060006064612770876048613033565b61277a9190613132565b90506000606461278c88619982613033565b6127969190613132565b9050600a9550600a9450600a9350605f83106127d3576127b7605f8461304b565b6127c2906006612f40565b6127cc9087613033565b9550612820565b605083106127f15760506127e78488613033565b6127cc919061304b565b826014111580156128025750601e83105b1561282057600f6128138488613033565b61281d919061304b565b95505b605f821061284f57612833605f8361304b565b61283e906006612f40565b6128489086613033565b945061289c565b6050831061286d5760506128638387613033565b612848919061304b565b81600a1115801561287e5750601e82105b1561289c57600561288f8387613033565b612899919061304b565b94505b605081106128c15760506128b08286613033565b6128ba919061304b565b93506128d9565b6128cc600a82613078565b6128d69085613033565b93505b5050509193909250565b60006001600160a01b0384163b156129e557604051630a85bd0160e11b81526001600160a01b0385169063150b7a0290612927903390899088908890600401613146565b602060405180830381600087803b15801561294157600080fd5b505af1925050508015612971575060408051601f3d908101601f1916820190925261296e91810190613183565b60015b6129cb573d80801561299f576040519150601f19603f3d011682016040523d82523d6000602084013e6129a4565b606091505b5080516129c35760405162461bcd60e51b81526004016109e7906130bb565b805181602001fd5b6001600160e01b031916630a85bd0160e11b149050612233565b506001949350505050565b6129fa8383612a23565b612a0760008484846128e3565b610b1d5760405162461bcd60e51b81526004016109e7906130bb565b6001600160a01b038216612a795760405162461bcd60e51b815260206004820181905260248201527f4552433732313a206d696e7420746f20746865207a65726f206164647265737360448201526064016109e7565b6000818152600260205260409020546001600160a01b031615612ade5760405162461bcd60e51b815260206004820152601c60248201527f4552433732313a20746f6b656e20616c7265616479206d696e7465640000000060448201526064016109e7565b6001600160a01b0382166000908152600360205260408120805460019290612b07908490613033565b909155505060008181526002602052604080822080546001600160a01b0319166001600160a01b03861690811790915590518392907fddf252ad1be2c89b69c2b068fc378daa952ba7f163c4a11628f55a4df523b3ef908290a45050565b60405180606001604052806003906020820280368337509192915050565b6001600160e01b031981168114611fc257600080fd5b600060208284031215612bab57600080fd5b8135611d2981612b83565b60005b83811015612bd1578181015183820152602001612bb9565b83811115611ac65750506000910152565b60008151808452612bfa816020860160208601612bb6565b601f01601f19169290920160200192915050565b602081526000611d296020830184612be2565b600060208284031215612c3357600080fd5b5035919050565b80356001600160a01b0381168114610fc957600080fd5b60008060408385031215612c6457600080fd5b612c6d83612c3a565b946020939093013593505050565b600080600060608486031215612c9057600080fd5b612c9984612c3a565b9250612ca760208501612c3a565b9150604084013590509250925092565b60008060408385031215612cca57600080fd5b82359150602083013560ff81168114612ce257600080fd5b809150509250929050565b600060208284031215612cff57600080fd5b611d2982612c3a565b60608101818360005b6003811015612d30578151835260209283019290910190600101612d11565b50505092915050565b8015158114611fc257600080fd5b60008060408385031215612d5a57600080fd5b612d6383612c3a565b91506020830135612ce281612d39565b634e487b7160e01b600052604160045260246000fd5b60008060008060808587031215612d9f57600080fd5b612da885612c3a565b9350612db660208601612c3a565b925060408501359150606085013567ffffffffffffffff80821115612dda57600080fd5b818701915087601f830112612dee57600080fd5b813581811115612e0057612e00612d73565b604051601f8201601f19908116603f01168101908382118183101715612e2857612e28612d73565b816040528281528a6020848701011115612e4157600080fd5b82602086016020830137600060208483010152809550505050505092959194509250565b6020808252825182820181905260009190848201906040850190845b81811015612e9d57835183529284019291840191600101612e81565b50909695505050505050565b60008060408385031215612ebc57600080fd5b612ec583612c3a565b9150612ed360208401612c3a565b90509250929050565b600181811c90821680612ef057607f821691505b60208210811415610dd757634e487b7160e01b600052602260045260246000fd5b600060208284031215612f2357600080fd5b5051919050565b634e487b7160e01b600052601160045260246000fd5b6000816000190483118215151615612f5a57612f5a612f2a565b500290565b600060208284031215612f7157600080fd5b8151611d2981612d39565b6000600019821415612f9057612f90612f2a565b5060010190565b60208082526031908201527f4552433732313a207472616e736665722063616c6c6572206973206e6f74206f6040820152701ddb995c881b9bdc88185c1c1c9bdd9959607a1b606082015260800190565b6020808252818101527f4f776e61626c653a2063616c6c6572206973206e6f7420746865206f776e6572604082015260600190565b634e487b7160e01b600052603260045260246000fd5b6000821982111561304657613046612f2a565b500190565b60008282101561305d5761305d612f2a565b500390565b634e487b7160e01b600052601260045260246000fd5b60008261308757613087613062565b500490565b6000835161309e818460208801612bb6565b8351908301906130b2818360208801612bb6565b01949350505050565b60208082526032908201527f4552433732313a207472616e7366657220746f206e6f6e20455243373231526560408201527131b2b4bb32b91034b6b83632b6b2b73a32b960711b606082015260800190565b600060ff821660ff84168060ff0382111561312a5761312a612f2a565b019392505050565b60008261314157613141613062565b500690565b6001600160a01b038581168252841660208201526040810183905260806060820181905260009061317990830184612be2565b9695505050505050565b60006020828403121561319557600080fd5b8151611d2981612b8356fe68747470733a2f2f7777772e6b696e67646f6d63727970746f2e636f6d2f7469746c65732fa26469706673582212201a65c735d862b3a53eab1a0fbdb5951ca7bade51f98e7df44bbebab5a50a3f1c64736f6c63430008090033",
  "immutableReferences": {},
  "source": "pragma solidity ^0.8;\n\nimport \"@openzeppelin/contracts/token/ERC721/ERC721.sol\";\nimport \"./KingdomBank.sol\";\n\ncontract KingdomTitles is ERC721, KingdomBank {\n    \n    uint16 constant public totalSupply = 10000;\n    uint constant public attackCooldown = 60 seconds;\n    uint constant public readyTimeStakeCooldown = 60 seconds;\n    string constant public baseUrl = \"https://www.kingdomcrypto.com/titles/\";\n\n    struct KingdomTitle {\n        uint attackPoints;\n        uint defensePoints;\n        uint readyTimeAttack;\n        // for staking we reset the cooldown timer every time something is staked using the assignMilitary function\n        uint readyTimeStake;\n        // additional features like attack, defense or money multiplier - makes an nft special\n        uint attackMultiplier;\n        uint defenseMultiplier;\n        uint moneyMultiplier;\n    }\n\n    KingdomTitle[totalSupply] public kingdomtitles;\n\n    mapping (uint => uint) public title2Rank;\n    uint internal titleCount;\n\n    mapping (address => uint[]) public address2ids;\n\n    constructor(KingdomSeedCoin kgdsc, KingdomAttackCoin kgdat, KingdomDefenseCoin kgddf) ERC721(\"Kingdom Titles\", \"KGD\") KingdomBank(kgdsc, kgdat, kgddf) {\n        titleCount = 0;\n    }\n\n    function uint2str(uint _i) internal pure returns (string memory _uintAsString) {\n        if (_i == 0) {\n            return \"0\";\n        }\n        uint j = _i;\n        uint len;\n        while (j != 0) {\n            len++;\n            j /= 10;\n        }\n        bytes memory bstr = new bytes(len);\n        uint k = len;\n        while (_i != 0) {\n            k = k-1;\n            uint8 temp = (48 + uint8(_i - _i / 10 * 10));\n            bytes1 b1 = bytes1(temp);\n            bstr[k] = b1;\n            _i /= 10;\n        }\n        return string(bstr);\n    }\n\n    function currentPosition() public view returns (uint256) {\n        return uint256(titleCount);\n    }\n\n    function _calculateMultiplierPoints(uint positionId) internal pure returns (uint attackMultiplier, uint defenseMultiplier, uint moneyMultiplier) {\n        uint attack = (positionId + 314) % 100;\n        uint defense = (positionId + 72) % 100;\n        uint money = (positionId + 39298) % 100;\n\n        attackMultiplier = 10;\n        defenseMultiplier = 10;\n        moneyMultiplier = 10;\n        // attack logic\n        if (attack >= 95) {\n            attackMultiplier = uint(attackMultiplier + 6 * (attack - 95));\n        } else if (attack >= 80) {\n            attackMultiplier = uint(attackMultiplier + attack - 80);\n        } else if (20 <= attack && attack < 30) {\n            attackMultiplier = uint(attackMultiplier + attack - 15);\n        }\n        // defense logic\n        if (defense >= 95) {\n            defenseMultiplier = uint(defenseMultiplier + 6 * (defense - 95));\n        } else if (attack >= 80) {\n            defenseMultiplier = uint(defenseMultiplier + defense - 80);\n        } else if (10 <= defense && defense < 30) {\n            defenseMultiplier = uint(defenseMultiplier + defense - 5);\n        }\n        // money logic\n        if (money >= 80) {\n            moneyMultiplier = uint(moneyMultiplier + money - 80);\n        } else {\n            moneyMultiplier = uint(moneyMultiplier + money / 10);\n        }\n        return (attackMultiplier, defenseMultiplier, moneyMultiplier);\n    }\n\n    function awardItem(address player) public onlyOwner returns (uint256) {\n        require(titleCount < totalSupply, \"uhoh, no titles available anymore\");  \n\n        uint256 newItemId = titleCount + 1;\n        _safeMint(player, newItemId);\n        // actually not necessary, because we override the tokenURI function later on\n        // _setTokenURI(newItemId, BASEURL + uint2str(newItemId));\n\n        // mark it down in address2ids\n        address2ids[player].push(newItemId);\n\n        // then add data to storage\n        title2Rank[newItemId] = newItemId; // at first rank equals titleId\n        (uint attackm, uint defensem, uint moneym) = _calculateMultiplierPoints(newItemId);\n        kingdomtitles[newItemId] = KingdomTitle(0 , 0 ,block.timestamp + attackCooldown, block.timestamp + readyTimeStakeCooldown, attackm, defensem, moneym);\n\n        titleCount++;\n\n        return newItemId;\n    }\n\n    function reverseItem(uint256 itemId) public onlyOwner returns (bool) {\n        address ownerOfItem = ownerOf(itemId);\n        _transfer(ownerOfItem, address(this), itemId);\n        uint pos = 6666;\n        for (uint i = 0; i < address2ids[ownerOfItem].length; i++) {\n            if (address2ids[ownerOfItem][i] == itemId) {\n                pos = i;\n                break;\n            }\n        }\n        require(pos != 6666, \"reverse item function... item not found in address2ids\");\n        delete address2ids[ownerOfItem][pos];\n        return true;\n    }\n\n    function tokenURI(uint256 tokenId) public view virtual override returns (string memory) {\n        require(_exists(tokenId), \"ERC721URIStorage: URI query for nonexistent token\");\n        return string(abi.encodePacked(baseUrl, uint2str(tokenId)));\n    }\n\n    function getRanksOfAddress(address _own) public view returns (uint256[] memory) {\n        uint256[] memory ids = address2ids[_own];\n        uint256[] memory ranks = new uint256[](ids.length);\n        if (ids.length != 0) {\n            for (uint i = 0; i < ids.length; i++) {\n                ranks[i] = title2Rank[ids[i]];\n            }\n        }\n        return ranks;\n    }\n\n    function getRankOfId(uint _id) public view returns (uint id) {\n        return title2Rank[_id];\n    }\n\n    function getIdOfRank(uint _rank) public view returns (uint id) {\n        // is supposed to be cheaper compared to having another mapping\n        id = 0;\n        for (uint i = 0; i < titleCount; i++) {\n            if (title2Rank[i] == _rank) {\n                id = i;\n                break;\n            }\n        }\n        return id;\n    }\n\n    function getIdsOfAddress(address _own) public view returns (uint256[] memory ownedIds) {\n        return address2ids[_own];\n    }\n\n\n    // functionality to pay out dividends on profits - should be called once per month and has most functionality in the KingdomBank contract\n        // next do the kingdomseedcoin balances\n}",
  "sourcePath": "/home/jguese/code/solidity-kingdom-game/contracts/KingdomTitles.sol",
  "compiler": {
    "name": "solc",
    "version": "0.8.9+commit.e5eed63a.Emscripten.clang"
  },
  "schemaVersion": "3.4.3",
  "updatedAt": "2021-11-26T07:43:24.045Z",
  "devdoc": {
    "kind": "dev",
    "methods": {
      "approve(address,uint256)": {
        "details": "See {IERC721-approve}."
      },
      "balanceOf(address)": {
        "details": "See {IERC721-balanceOf}."
      },
      "getApproved(uint256)": {
        "details": "See {IERC721-getApproved}."
      },
      "isApprovedForAll(address,address)": {
        "details": "See {IERC721-isApprovedForAll}."
      },
      "name()": {
        "details": "See {IERC721Metadata-name}."
      },
      "owner()": {
        "details": "Returns the address of the current owner."
      },
      "ownerOf(uint256)": {
        "details": "See {IERC721-ownerOf}."
      },
      "renounceOwnership()": {
        "details": "Leaves the contract without owner. It will not be possible to call `onlyOwner` functions anymore. Can only be called by the current owner. NOTE: Renouncing ownership will leave the contract without an owner, thereby removing any functionality that is only available to the owner."
      },
      "safeTransferFrom(address,address,uint256)": {
        "details": "See {IERC721-safeTransferFrom}."
      },
      "safeTransferFrom(address,address,uint256,bytes)": {
        "details": "See {IERC721-safeTransferFrom}."
      },
      "setApprovalForAll(address,bool)": {
        "details": "See {IERC721-setApprovalForAll}."
      },
      "supportsInterface(bytes4)": {
        "details": "See {IERC165-supportsInterface}."
      },
      "symbol()": {
        "details": "See {IERC721Metadata-symbol}."
      },
      "tokenURI(uint256)": {
        "details": "See {IERC721Metadata-tokenURI}."
      },
      "transferFrom(address,address,uint256)": {
        "details": "See {IERC721-transferFrom}."
      },
      "transferOwnership(address)": {
        "details": "Transfers ownership of the contract to a new account (`newOwner`). Can only be called by the current owner."
      }
    },
    "version": 1
  },
  "userdoc": {
    "kind": "user",
    "methods": {},
    "version": 1
  }
}