{
  "contractName": "KingdomBank",
  "abi": [
    {
      "inputs": [
        {
          "internalType": "contract KingdomSeedCoin",
          "name": "_kgdsc",
          "type": "address"
        },
        {
          "internalType": "contract KingdomAttackCoin",
          "name": "_kgdat",
          "type": "address"
        },
        {
          "internalType": "contract KingdomDefenseCoin",
          "name": "_kgddf",
          "type": "address"
        }
      ],
      "stateMutability": "nonpayable",
      "type": "constructor"
    },
    {
      "anonymous": false,
      "inputs": [
        {
          "indexed": true,
          "internalType": "address",
          "name": "_to",
          "type": "address"
        },
        {
          "indexed": false,
          "internalType": "uint256",
          "name": "_amount",
          "type": "uint256"
        }
      ],
      "name": "HarvestAttackPoints",
      "type": "event"
    },
    {
      "anonymous": false,
      "inputs": [
        {
          "indexed": true,
          "internalType": "address",
          "name": "_to",
          "type": "address"
        },
        {
          "indexed": false,
          "internalType": "uint256",
          "name": "_amount",
          "type": "uint256"
        }
      ],
      "name": "HarvestDefensePoints",
      "type": "event"
    },
    {
      "anonymous": false,
      "inputs": [
        {
          "indexed": true,
          "internalType": "address",
          "name": "_to",
          "type": "address"
        },
        {
          "indexed": false,
          "internalType": "uint256",
          "name": "_amount",
          "type": "uint256"
        },
        {
          "indexed": false,
          "internalType": "uint256",
          "name": "_beforeBurn",
          "type": "uint256"
        }
      ],
      "name": "HarvestRemainingSeedCoins",
      "type": "event"
    },
    {
      "anonymous": false,
      "inputs": [
        {
          "indexed": true,
          "internalType": "address",
          "name": "previousOwner",
          "type": "address"
        },
        {
          "indexed": true,
          "internalType": "address",
          "name": "newOwner",
          "type": "address"
        }
      ],
      "name": "OwnershipTransferred",
      "type": "event"
    },
    {
      "anonymous": false,
      "inputs": [
        {
          "indexed": true,
          "internalType": "address",
          "name": "_from",
          "type": "address"
        },
        {
          "indexed": false,
          "internalType": "uint256",
          "name": "_amount",
          "type": "uint256"
        }
      ],
      "name": "enterStakingAttackPoints",
      "type": "event"
    },
    {
      "anonymous": false,
      "inputs": [
        {
          "indexed": true,
          "internalType": "address",
          "name": "_from",
          "type": "address"
        },
        {
          "indexed": false,
          "internalType": "uint256",
          "name": "_amount",
          "type": "uint256"
        }
      ],
      "name": "enterStakingDefensePoints",
      "type": "event"
    },
    {
      "inputs": [],
      "name": "balanceLastMonth_kgdat",
      "outputs": [
        {
          "internalType": "uint256",
          "name": "",
          "type": "uint256"
        }
      ],
      "stateMutability": "view",
      "type": "function"
    },
    {
      "inputs": [],
      "name": "balanceLastMonth_kgddf",
      "outputs": [
        {
          "internalType": "uint256",
          "name": "",
          "type": "uint256"
        }
      ],
      "stateMutability": "view",
      "type": "function"
    },
    {
      "inputs": [],
      "name": "balanceLastMonth_kgdsc",
      "outputs": [
        {
          "internalType": "uint256",
          "name": "",
          "type": "uint256"
        }
      ],
      "stateMutability": "view",
      "type": "function"
    },
    {
      "inputs": [],
      "name": "exchangeRate",
      "outputs": [
        {
          "internalType": "uint8",
          "name": "",
          "type": "uint8"
        }
      ],
      "stateMutability": "view",
      "type": "function"
    },
    {
      "inputs": [],
      "name": "exchangeRate_Attackpoints",
      "outputs": [
        {
          "internalType": "uint8",
          "name": "",
          "type": "uint8"
        }
      ],
      "stateMutability": "view",
      "type": "function"
    },
    {
      "inputs": [],
      "name": "exchangeRate_Burnpct",
      "outputs": [
        {
          "internalType": "uint8",
          "name": "",
          "type": "uint8"
        }
      ],
      "stateMutability": "view",
      "type": "function"
    },
    {
      "inputs": [],
      "name": "exchangeRate_Defensepoints",
      "outputs": [
        {
          "internalType": "uint8",
          "name": "",
          "type": "uint8"
        }
      ],
      "stateMutability": "view",
      "type": "function"
    },
    {
      "inputs": [],
      "name": "kgdat",
      "outputs": [
        {
          "internalType": "contract KingdomAttackCoin",
          "name": "",
          "type": "address"
        }
      ],
      "stateMutability": "view",
      "type": "function"
    },
    {
      "inputs": [],
      "name": "kgddf",
      "outputs": [
        {
          "internalType": "contract KingdomDefenseCoin",
          "name": "",
          "type": "address"
        }
      ],
      "stateMutability": "view",
      "type": "function"
    },
    {
      "inputs": [],
      "name": "kgdsc",
      "outputs": [
        {
          "internalType": "contract KingdomSeedCoin",
          "name": "",
          "type": "address"
        }
      ],
      "stateMutability": "view",
      "type": "function"
    },
    {
      "inputs": [],
      "name": "owner",
      "outputs": [
        {
          "internalType": "address",
          "name": "",
          "type": "address"
        }
      ],
      "stateMutability": "view",
      "type": "function"
    },
    {
      "inputs": [],
      "name": "renounceOwnership",
      "outputs": [],
      "stateMutability": "nonpayable",
      "type": "function"
    },
    {
      "inputs": [],
      "name": "stakingPeriod",
      "outputs": [
        {
          "internalType": "uint256",
          "name": "",
          "type": "uint256"
        }
      ],
      "stateMutability": "view",
      "type": "function"
    },
    {
      "inputs": [
        {
          "internalType": "address",
          "name": "newOwner",
          "type": "address"
        }
      ],
      "name": "transferOwnership",
      "outputs": [],
      "stateMutability": "nonpayable",
      "type": "function"
    },
    {
      "inputs": [],
      "name": "buyForETH",
      "outputs": [],
      "stateMutability": "payable",
      "type": "function"
    },
    {
      "inputs": [],
      "name": "justSendETH",
      "outputs": [
        {
          "internalType": "uint256",
          "name": "",
          "type": "uint256"
        }
      ],
      "stateMutability": "payable",
      "type": "function"
    },
    {
      "inputs": [
        {
          "internalType": "uint256",
          "name": "nrSeedCoins",
          "type": "uint256"
        },
        {
          "internalType": "uint8",
          "name": "targetCoin",
          "type": "uint8"
        }
      ],
      "name": "plantSeeds",
      "outputs": [],
      "stateMutability": "nonpayable",
      "type": "function"
    },
    {
      "inputs": [],
      "name": "getCurrentStakes",
      "outputs": [
        {
          "internalType": "uint256[3]",
          "name": "",
          "type": "uint256[3]"
        }
      ],
      "stateMutability": "view",
      "type": "function"
    },
    {
      "inputs": [],
      "name": "getTimeUntilStakingDone",
      "outputs": [
        {
          "internalType": "uint256[3]",
          "name": "timeuntildone",
          "type": "uint256[3]"
        }
      ],
      "stateMutability": "view",
      "type": "function"
    },
    {
      "inputs": [],
      "name": "harvestAll",
      "outputs": [
        {
          "internalType": "bool",
          "name": "success",
          "type": "bool"
        }
      ],
      "stateMutability": "nonpayable",
      "type": "function"
    }
  ],
  "bytecode": "0x60806040526000805463ffffffff60a01b1916630504050560a11b178155603c600155600281905560038190556004553480156200003c57600080fd5b50604051620015fe380380620015fe8339810160408190526200005f9162000116565b6200006a33620000ad565b600580546001600160a01b039485166001600160a01b0319918216179091556006805493851693821693909317909255600780549190931691161790556200016a565b600080546001600160a01b038381166001600160a01b0319831681178455604051919092169283917f8be0079c531659141344cd1fd0a4f28419497f9722a3daafe3b4186f6b6457e09190a35050565b6001600160a01b03811681146200011357600080fd5b50565b6000806000606084860312156200012c57600080fd5b83516200013981620000fd565b60208501519093506200014c81620000fd565b60408501519092506200015f81620000fd565b809150509250925092565b611484806200017a6000396000f3fe60806040526004361061011e5760003560e01c80638da5cb5b116100a0578063d4637ddb11610064578063d4637ddb14610309578063e046670b1461032a578063eb8fd9a314610330578063f2fde38b14610346578063fa4facdb1461036657600080fd5b80638da5cb5b1461026f5780638ed955b91461028d578063900294be146102b2578063c03d5b47146102d2578063c669b710146102e857600080fd5b80636a7a2fa3116100e75780636a7a2fa3146101e1578063715018a6146102025780637c62539a14610217578063839b92051461023757806384505e6a1461024d57600080fd5b80620a51801461012357806310f7e4ed1461014c5780633ba0b9a914610156578063411ee0d014610189578063429c3edf146101c1575b600080fd5b34801561012f57600080fd5b5061013960035481565b6040519081526020015b60405180910390f35b61015461037b565b005b34801561016257600080fd5b5060005461017790600160a01b900460ff1681565b60405160ff9091168152602001610143565b34801561019557600080fd5b506007546101a9906001600160a01b031681565b6040516001600160a01b039091168152602001610143565b3480156101cd57600080fd5b506101546101dc3660046112c5565b6105f1565b3480156101ed57600080fd5b5060005461017790600160b81b900460ff1681565b34801561020e57600080fd5b50610154610a11565b34801561022357600080fd5b506006546101a9906001600160a01b031681565b34801561024357600080fd5b5061013960045481565b34801561025957600080fd5b50610262610a77565b60405161014391906112fb565b34801561027b57600080fd5b506000546001600160a01b03166101a9565b34801561029957600080fd5b506102a2610bec565b6040519015158152602001610143565b3480156102be57600080fd5b506005546101a9906001600160a01b031681565b3480156102de57600080fd5b5061013960015481565b3480156102f457600080fd5b5060005461017790600160a81b900460ff1681565b34801561031557600080fd5b5060005461017790600160b01b900460ff1681565b47610139565b34801561033c57600080fd5b5061013960025481565b34801561035257600080fd5b5061015461036136600461132c565b610ede565b34801561037257600080fd5b50610262610fa9565b6005546040516370a0823160e01b81523060048201526000916001600160a01b0316906370a082319060240160206040518083038186803b1580156103bf57600080fd5b505afa1580156103d3573d6000803e3d6000fd5b505050506040513d601f19601f820116820180604052508101906103f7919061135c565b1161040157600080fd5b6000341161046f5760405162461bcd60e51b815260206004820152603060248201527f796f75206861766520746f2073656e6420736f6d652045544820746f2067657460448201526f1025b4b733b237b6a9b2b2b231b7b4b760811b60648201526084015b60405180910390fd5b6005546040516370a0823160e01b81523060048201526000916001600160a01b0316906370a082319060240160206040518083038186803b1580156104b357600080fd5b505afa1580156104c7573d6000803e3d6000fd5b505050506040513d601f19601f820116820180604052508101906104eb919061135c565b116105505760405162461bcd60e51b815260206004820152602f60248201527f75686f682c2073727920692063616e27742073656e6420616e79206d6f72652060448201526e25b4b733b237b6a9b2b2b231b7b4b760891b6064820152608401610466565b6000805461056890600160a01b900460ff163461138b565b60055460405163a9059cbb60e01b8152336004820152602481018390529192506001600160a01b03169063a9059cbb90604401602060405180830381600087803b1580156105b557600080fd5b505af11580156105c9573d6000803e3d6000fd5b505050506040513d601f19601f820116820180604052508101906105ed91906113aa565b5050565b6006546040516370a0823160e01b81523060048201526000916001600160a01b0316906370a082319060240160206040518083038186803b15801561063557600080fd5b505afa158015610649573d6000803e3d6000fd5b505050506040513d601f19601f8201168201806040525081019061066d919061135c565b1161067757600080fd5b6007546040516370a0823160e01b81523060048201526000916001600160a01b0316906370a082319060240160206040518083038186803b1580156106bb57600080fd5b505afa1580156106cf573d6000803e3d6000fd5b505050506040513d601f19601f820116820180604052508101906106f3919061135c565b116106fd57600080fd5b6005546040516370a0823160e01b81523360048201526000916001600160a01b0316906370a082319060240160206040518083038186803b15801561074157600080fd5b505afa158015610755573d6000803e3d6000fd5b505050506040513d601f19601f82011682018060405250810190610779919061135c565b905082811015801561078b5750600083115b6107f25760405162461bcd60e51b815260206004820152603260248201527f796f7520646f6e2774206861766520656e6f7567682073656564636f696e732160448201527120627579206f7220747261646520736f6d6560701b6064820152608401610466565b60ff8216158061080557508160ff166001145b61086c5760405162461bcd60e51b815260206004820152603260248201527f746172676574436f696e2068617320746f20626520303d61747461636b636f69604482015271371037b910189eb232b332b739b2b1b7b4b760711b6064820152608401610466565b60ff82166108ae5760405183815233907f44d00596aedd88fca0607c9a84113fd638c9a070d5ef8d77c072080b688d8e349060200160405180910390a26108f0565b8160ff16600114156108f05760405183815233907f049b4d6e22c9904766197183f9dc1f362cefb04f39e3850a8b7d83ff2c26216f9060200160405180910390a25b6005546040516323b872dd60e01b8152336004820152306024820152604481018590526001600160a01b03909116906323b872dd90606401602060405180830381600087803b15801561094257600080fd5b505af1158015610956573d6000803e3d6000fd5b505050506040513d601f19601f8201168201806040525081019061097a91906113aa565b5060086000336001600160a01b03166001600160a01b0316815260200190815260200160002060405180606001604052808581526020018460ff168152602001600154426109c891906113cc565b90528154600180820184556000938452602093849020835160039093020191825592820151928101805460ff191660ff9094169390931790925560400151600290910155505050565b6000546001600160a01b03163314610a6b5760405162461bcd60e51b815260206004820181905260248201527f4f776e61626c653a2063616c6c6572206973206e6f7420746865206f776e65726044820152606401610466565b610a7560006110ba565b565b610a7f6112a7565b60405180606001604052806298967f81526020016298967f81526020016000815250905060005b33600090815260086020526040902054811015610be857336000908152600860205260408120805483908110610ade57610ade6113e4565b600091825260209182902060408051606081018252600390930290910180548352600181015460ff16938301939093526002909201549181018290529150610b265750610bd6565b60408301805190610b36826113fa565b905250602081015160ff16610b89574281604001511115610b80576000428260400151610b639190611415565b8451909150811015610b7a57808460005b60200201525b50610bd4565b60008352610bd4565b806020015160ff1660011415610bd4574281604001511115610bcc576000428260400151610bb79190611415565b8451909150811015610b7a5780846001610b74565b600060208401525b505b80610be0816113fa565b915050610aa6565b5090565b6000805b33600090815260086020526040902054811015610be857336000908152600860205260408120805483908110610c2857610c286113e4565b600091825260209182902060408051606081018252600390930290910180548352600181015460ff16938301939093526002909201549181018290529150421115610ecb57602081015160ff16610d76576000610c8d8260000151836040015161110a565b600054909150610ca790600160a81b900460ff168261142c565b9050610cb682600001516111b3565b60065460405163a9059cbb60e01b8152336004820152602481018390526001600160a01b039091169063a9059cbb90604401602060405180830381600087803b158015610d0257600080fd5b505af1158015610d16573d6000803e3d6000fd5b505050506040513d601f19601f82011682018060405250810190610d3a91906113aa565b5060405181815233907f9fd4a9248425079a398923cd20daa8e0c103907fb89db4707cb4f2cc343f95469060200160405180910390a250610e7f565b806020015160ff1660011415610e7f576000610d9a8260000151836040015161110a565b600054909150610db490600160b01b900460ff168261142c565b9050610dc382600001516111b3565b60075460405163a9059cbb60e01b8152336004820152602481018390526001600160a01b039091169063a9059cbb90604401602060405180830381600087803b158015610e0f57600080fd5b505af1158015610e23573d6000803e3d6000fd5b505050506040513d601f19601f82011682018060405250810190610e4791906113aa565b5060405181815233907fd62aeb2df4f1c7a0c59e15c0dca22ccbcbe42ad0d0dbf99a22c0ad2551c5a1559060200160405180910390a2505b336000908152600860205260409020805483908110610ea057610ea06113e4565b6000918252602082206003909102018181556001808201805460ff1916905560029091019190915592505b5080610ed6816113fa565b915050610bf0565b6000546001600160a01b03163314610f385760405162461bcd60e51b815260206004820181905260248201527f4f776e61626c653a2063616c6c6572206973206e6f7420746865206f776e65726044820152606401610466565b6001600160a01b038116610f9d5760405162461bcd60e51b815260206004820152602660248201527f4f776e61626c653a206e6577206f776e657220697320746865207a65726f206160448201526564647265737360d01b6064820152608401610466565b610fa6816110ba565b50565b610fb16112a7565b6000806000805b3360009081526008602052604090205481101561109b57336000908152600860205260408120805483908110610ff057610ff06113e4565b600091825260209182902060408051606081018252600390930290910180548352600181015460ff169383019390935260029092015491810182905291506110385750611089565b82611042816113fa565b935050806020015160ff166000141561106857805161106190866113cc565b9450611087565b806020015160ff166001141561108757805161108490856113cc565b93505b505b80611093816113fa565b915050610fb8565b5060408051606081018252938452602084019290925290820152919050565b600080546001600160a01b038381166001600160a01b0319831681178455604051919092169283917f8be0079c531659141344cd1fd0a4f28419497f9722a3daafe3b4186f6b6457e09190a35050565b60004282106111755760405162461bcd60e51b815260206004820152603160248201527f796f752063616e2774207363616c652072657761726473207769746820612074604482015270696d6520696e207468652066757475726560781b6064820152608401610466565b60006111818342611415565b9050600060015482611193919061142c565b61119e9060016113cc565b90506111aa818661138b565b95945050505050565b600080546064906111ce90600160b81b900460ff168461138b565b6111d8919061142c565b6111e29083611415565b60055460405163a9059cbb60e01b8152336004820152602481018390529192506001600160a01b03169063a9059cbb90604401602060405180830381600087803b15801561122f57600080fd5b505af1158015611243573d6000803e3d6000fd5b505050506040513d601f19601f8201168201806040525081019061126791906113aa565b50604080518281526020810184905233917f11acec8ea502f5c875e157dd1a17389990a9350450464db61ef112521c0d8751910160405180910390a25050565b60405180606001604052806003906020820280368337509192915050565b600080604083850312156112d857600080fd5b82359150602083013560ff811681146112f057600080fd5b809150509250929050565b60608101818360005b6003811015611323578151835260209283019290910190600101611304565b50505092915050565b60006020828403121561133e57600080fd5b81356001600160a01b038116811461135557600080fd5b9392505050565b60006020828403121561136e57600080fd5b5051919050565b634e487b7160e01b600052601160045260246000fd5b60008160001904831182151516156113a5576113a5611375565b500290565b6000602082840312156113bc57600080fd5b8151801515811461135557600080fd5b600082198211156113df576113df611375565b500190565b634e487b7160e01b600052603260045260246000fd5b600060001982141561140e5761140e611375565b5060010190565b60008282101561142757611427611375565b500390565b60008261144957634e487b7160e01b600052601260045260246000fd5b50049056fea26469706673582212209d1b26247f5abc3017f6159e58b1814983f2a81580b1d0e5fde877ffcdb254d764736f6c63430008090033",
  "immutableReferences": {},
  "source": "pragma solidity ^0.8;\n\nimport \"./KingdomSeedCoin.sol\";\nimport \"./KingdomAttackCoin.sol\";\nimport \"./KingdomDefenseCoin.sol\";\nimport \"@openzeppelin/contracts/access/Ownable.sol\";\n\n\ncontract KingdomBank is Ownable {\n\n    uint8 public exchangeRate = 10;\n    // return more defensepoints as attackpoints\n    uint8 public exchangeRate_Attackpoints = 10;\n    uint8 public exchangeRate_Defensepoints = 8;\n    uint8 public exchangeRate_Burnpct = 10;\n    uint public stakingPeriod = 60 seconds;\n    // needed for dividend payments\n    uint public balanceLastMonth_kgdsc = 0;\n    uint public balanceLastMonth_kgdat = 0;\n    uint public balanceLastMonth_kgddf = 0;\n    \n    KingdomSeedCoin public kgdsc;\n    KingdomAttackCoin public kgdat;\n    KingdomDefenseCoin public kgddf;\n\n    event enterStakingAttackPoints(address indexed _from, uint _amount);\n    event enterStakingDefensePoints(address indexed _from, uint _amount);\n\n    event HarvestAttackPoints(address indexed _to, uint _amount);\n    event HarvestDefensePoints(address indexed _to, uint _amount);\n    event HarvestRemainingSeedCoins(address indexed _to, uint _amount, uint _beforeBurn);\n    \n    struct Staking {\n        uint seedCoinAmount;\n        uint8 targetCoinType; // 0 = attackCoin, 1 = defenseCoin\n        uint readyTime;\n    }\n\n    mapping (address => Staking[]) private _Staking;\n\n    constructor(KingdomSeedCoin _kgdsc, KingdomAttackCoin _kgdat, KingdomDefenseCoin _kgddf) {\n        kgdsc = _kgdsc;\n        kgdat = _kgdat;\n        kgddf = _kgddf;\n        // after that the coins need to be transferred to KingdomBank\n        // owner = msg.sender;\n    }\n\n    modifier contractHasSeedcoins {\n        require (kgdsc.balanceOf(address(this)) > 0);\n        _;\n    }\n\n    modifier contractHasAttackcoins {\n        require (kgdat.balanceOf(address(this)) > 0);\n        _;\n    }\n\n    modifier contractHasDefensecoins {\n        require (kgddf.balanceOf(address(this)) > 0);\n        _;\n    }\n    \n    // you can only buy the seed coins \n    function buyForETH() external payable contractHasSeedcoins {\n        require(msg.value > 0, \"you have to send some ETH to get KingdomSeedcoin\");\n        require(kgdsc.balanceOf(address(this)) > 0, \"uhoh, sry i can't send any more KingdomSeedcoin\");\n        \n        uint rewardTokens = msg.value * exchangeRate;\n        kgdsc.transfer(msg.sender, rewardTokens);\n    }\n    \n    function justSendETH() public payable  returns(uint){\n        return address(this).balance;\n    }\n    \n    function plantSeeds(uint nrSeedCoins, uint8 targetCoin) public contractHasAttackcoins contractHasDefensecoins {\n        // aka staking\n        uint kgdsc_balance = kgdsc.balanceOf(msg.sender);\n        require(kgdsc_balance >= nrSeedCoins && nrSeedCoins > 0, \"you don't have enough seedcoins! buy or trade some\");\n        require(targetCoin == 0 || targetCoin == 1, \"targetCoin has to be 0=attackcoin or 1=defensecoin\");\n        // enter staking\n        // first transact the kgdsc\n        // first approve built in \n\n        if (targetCoin == 0) {\n            emit enterStakingAttackPoints(msg.sender, nrSeedCoins);\n        }\n        else if (targetCoin == 1) {\n            emit enterStakingDefensePoints(msg.sender, nrSeedCoins);\n        }\n        // kgdsc.approve(address(this), nrSeedCoins);\n        kgdsc.transferFrom(msg.sender, address(this), nrSeedCoins);\n        \n\n\n        // then store in array\n        _Staking[msg.sender].push(Staking(\n            nrSeedCoins,\n            targetCoin,\n            block.timestamp + stakingPeriod\n            ));\n    }\n    \n    function getCurrentStakes() public view returns(uint[3] memory){\n        uint attackPoints = 0;\n        uint defensePoints = 0;\n        uint activeStakes = 0;\n        for (uint i = 0; i < _Staking[msg.sender].length; i++) {\n            Staking memory stakeobj = _Staking[msg.sender][i];\n            // first check if it is an empty hull\n            if (stakeobj.readyTime == 0) {\n                continue; // skip this if empty (has been previously deleted)\n            }\n            activeStakes++;\n            if (stakeobj.targetCoinType == 0) {\n                attackPoints += stakeobj.seedCoinAmount;\n            }\n            else if (stakeobj.targetCoinType == 1) {\n                defensePoints += stakeobj.seedCoinAmount;\n            }\n        }\n        // , attackStakeTimeRemaining, defenseStakeTimeRemaining\n        uint[3] memory res = [attackPoints, defensePoints, activeStakes];\n        return res;\n    }\n\n    function getTimeUntilStakingDone() public view returns(uint[3] memory timeuntildone){\n        // somehow we need to seperate this functionality from the other, as this causes\n        // a buffer overflow error if not\n        // returns 9999999 for a coin if it is not staking\n        timeuntildone = [uint(9999999),uint(9999999), 0];\n        // save the value for the shortest stake\n        for (uint i = 0; i < _Staking[msg.sender].length; i++) {\n            Staking memory stakeobj = _Staking[msg.sender][i];\n            // first check if it is an empty hull\n            if (stakeobj.readyTime == 0) {\n                continue; // skip this if empty (has been previously deleted)\n            }\n            // for every active stake, add plus one\n            timeuntildone[2]++;\n            if (stakeobj.targetCoinType == 0) {\n                if (uint(stakeobj.readyTime) > uint(block.timestamp)) {\n                    // still kind of faulty, because there can be multiple staking objects\n                    uint remaining = uint(stakeobj.readyTime - block.timestamp);\n                    if (remaining < timeuntildone[0]) {\n                        // if shorter, then this is our next stake done time\n                        timeuntildone[0] = remaining;\n                    }\n                }\n                else {\n                    // if the readytime is in the past, then we can harvest\n                    timeuntildone[0] = uint(0);\n                }\n            }\n            else if (stakeobj.targetCoinType == 1) {\n                if (uint(stakeobj.readyTime) > uint(block.timestamp)) {\n                    uint remaining = uint(stakeobj.readyTime - block.timestamp);\n                    if (remaining < timeuntildone[0]) {\n                        timeuntildone[1] = remaining;\n                    }\n                }\n                else {\n                    timeuntildone[1] = uint(0);\n                }\n            }\n        }\n        return timeuntildone;\n    }\n\n\n\n    function _burnReturnSeedcoins(uint nrSeedCoins) internal {\n        uint remainingSeedcoins = nrSeedCoins - (nrSeedCoins * exchangeRate_Burnpct / 100);\n        kgdsc.transfer(msg.sender, remainingSeedcoins);\n        emit HarvestRemainingSeedCoins(msg.sender, remainingSeedcoins, nrSeedCoins);\n    }\n\n    function _scaleRewardsWithTime(uint nrCoins, uint time) internal view returns (uint nrCoinsScaled) {\n        // this should be checked anyways before it is called, but just to be sure\n        require(time < block.timestamp, \"you can't scale rewards with a time in the future\");\n        // now we know that the staking would be ripe for harvest already\n        uint diff = block.timestamp - time;\n        uint multiplier = diff / stakingPeriod + 1; // as it is a uint it should be 2, 3, 4 whatever\n        nrCoinsScaled = nrCoins * multiplier;\n        return nrCoinsScaled;\n    }\n\n    function harvestAll() public returns (bool success) {\n        // harvesting all ready coins\n        success = false;\n        for (uint i = 0; i < _Staking[msg.sender].length; i++) {\n            Staking memory stakeobj = _Staking[msg.sender][i];\n            if (stakeobj.readyTime < block.timestamp) {\n                // ready for harvest\n                if (stakeobj.targetCoinType == 0) {\n                    uint attackPoints = _scaleRewardsWithTime(stakeobj.seedCoinAmount, stakeobj.readyTime); // why do we do this? to make sure its rewarded if we leave them longer in there\n                    attackPoints = attackPoints / exchangeRate_Attackpoints;\n                    _burnReturnSeedcoins(stakeobj.seedCoinAmount);\n                    kgdat.transfer(msg.sender, attackPoints);\n                    emit HarvestAttackPoints(msg.sender, attackPoints);\n                }\n                else if (stakeobj.targetCoinType == 1) {\n                    uint defensePoints = _scaleRewardsWithTime(stakeobj.seedCoinAmount, stakeobj.readyTime); // why do we do this? to make sure its rewarded if we leave them longer in there\n                    defensePoints = defensePoints / exchangeRate_Defensepoints;\n                    _burnReturnSeedcoins(stakeobj.seedCoinAmount);\n                    kgddf.transfer(msg.sender, defensePoints);\n                    emit HarvestDefensePoints(msg.sender, defensePoints);\n                }\n                // finally remove from array\n                delete _Staking[msg.sender][i];\n                // be careful, this is not a delete, but leaves an empty field in there...\n                success = true;\n            }\n        }\n        return success;\n    } \n\n    // // payoutsoon needs to be run regularily by the contract owner to pay out open withdraw requests from the staking into military points to title\n    // function payoutOpenTransfers() public onlyOwner {\n    //     for (uint i = 0; i < payOutSoonByAddress[msg.sender][0] += nrCoins; // attackcoins plus.length; i++) {\n    //         require(payOutSoon[i].targetCoinType == 0 || payOutSoon[i].targetCoinType == 1 , \"wrong cointype for payout\");\n    //         if (payOutSoon[i].targetCoinType == 0) {\n    //             kgdat.transferFrom(address(this), payOutSoon[i].to, payOutSoon[i].amount);\n    //         }\n    //         else if (payOutSoon[i].targetCoinType == 1) {\n    //             kgddf.transferFrom(address(this), payOutSoon[i].to, payOutSoon[i].amount);\n    //         }\n    //     }\n    // }\n}",
  "sourcePath": "/home/jguese/code/solidity-kingdom-game/contracts/KingdomBank.sol",
  "compiler": {
    "name": "solc",
    "version": "0.8.9+commit.e5eed63a.Emscripten.clang"
  },
  "schemaVersion": "3.4.3",
  "updatedAt": "2021-11-25T08:56:24.874Z",
  "devdoc": {
    "kind": "dev",
    "methods": {
      "owner()": {
        "details": "Returns the address of the current owner."
      },
      "renounceOwnership()": {
        "details": "Leaves the contract without owner. It will not be possible to call `onlyOwner` functions anymore. Can only be called by the current owner. NOTE: Renouncing ownership will leave the contract without an owner, thereby removing any functionality that is only available to the owner."
      },
      "transferOwnership(address)": {
        "details": "Transfers ownership of the contract to a new account (`newOwner`). Can only be called by the current owner."
      }
    },
    "version": 1
  },
  "userdoc": {
    "kind": "user",
    "methods": {},
    "version": 1
  }
}