{
  "contractName": "KingdomGameMechanic",
  "abi": [
    {
      "inputs": [
        {
          "internalType": "contract KingdomSeedCoin",
          "name": "_kgdsc",
          "type": "address"
        },
        {
          "internalType": "contract KingdomAttackCoin",
          "name": "_kgdat",
          "type": "address"
        },
        {
          "internalType": "contract KingdomDefenseCoin",
          "name": "_kgddf",
          "type": "address"
        }
      ],
      "stateMutability": "nonpayable",
      "type": "constructor"
    },
    {
      "anonymous": false,
      "inputs": [
        {
          "indexed": true,
          "internalType": "address",
          "name": "owner",
          "type": "address"
        },
        {
          "indexed": true,
          "internalType": "address",
          "name": "approved",
          "type": "address"
        },
        {
          "indexed": true,
          "internalType": "uint256",
          "name": "tokenId",
          "type": "uint256"
        }
      ],
      "name": "Approval",
      "type": "event"
    },
    {
      "anonymous": false,
      "inputs": [
        {
          "indexed": true,
          "internalType": "address",
          "name": "owner",
          "type": "address"
        },
        {
          "indexed": true,
          "internalType": "address",
          "name": "operator",
          "type": "address"
        },
        {
          "indexed": false,
          "internalType": "bool",
          "name": "approved",
          "type": "bool"
        }
      ],
      "name": "ApprovalForAll",
      "type": "event"
    },
    {
      "anonymous": false,
      "inputs": [
        {
          "indexed": false,
          "internalType": "address",
          "name": "attacker",
          "type": "address"
        },
        {
          "indexed": false,
          "internalType": "address",
          "name": "defender",
          "type": "address"
        },
        {
          "indexed": false,
          "internalType": "uint256",
          "name": "attacker_id",
          "type": "uint256"
        },
        {
          "indexed": false,
          "internalType": "uint256",
          "name": "defender_id",
          "type": "uint256"
        },
        {
          "indexed": false,
          "internalType": "uint256",
          "name": "attackPointsBefore",
          "type": "uint256"
        },
        {
          "indexed": false,
          "internalType": "uint256",
          "name": "defensePointsBefore",
          "type": "uint256"
        },
        {
          "indexed": false,
          "internalType": "uint256",
          "name": "deadAttackers",
          "type": "uint256"
        },
        {
          "indexed": false,
          "internalType": "uint256",
          "name": "deadDefenders",
          "type": "uint256"
        },
        {
          "indexed": false,
          "internalType": "bool",
          "name": "won",
          "type": "bool"
        }
      ],
      "name": "Attack",
      "type": "event"
    },
    {
      "anonymous": false,
      "inputs": [
        {
          "indexed": true,
          "internalType": "address",
          "name": "_to",
          "type": "address"
        },
        {
          "indexed": false,
          "internalType": "uint256",
          "name": "_amount",
          "type": "uint256"
        }
      ],
      "name": "HarvestAttackPoints",
      "type": "event"
    },
    {
      "anonymous": false,
      "inputs": [
        {
          "indexed": true,
          "internalType": "address",
          "name": "_to",
          "type": "address"
        },
        {
          "indexed": false,
          "internalType": "uint256",
          "name": "_amount",
          "type": "uint256"
        }
      ],
      "name": "HarvestDefensePoints",
      "type": "event"
    },
    {
      "anonymous": false,
      "inputs": [
        {
          "indexed": true,
          "internalType": "address",
          "name": "_to",
          "type": "address"
        },
        {
          "indexed": false,
          "internalType": "uint256",
          "name": "_amount",
          "type": "uint256"
        },
        {
          "indexed": false,
          "internalType": "uint256",
          "name": "_beforeBurn",
          "type": "uint256"
        }
      ],
      "name": "HarvestRemainingSeedCoins",
      "type": "event"
    },
    {
      "anonymous": false,
      "inputs": [
        {
          "indexed": false,
          "internalType": "uint256",
          "name": "error",
          "type": "uint256"
        }
      ],
      "name": "Log",
      "type": "event"
    },
    {
      "anonymous": false,
      "inputs": [
        {
          "indexed": true,
          "internalType": "address",
          "name": "previousOwner",
          "type": "address"
        },
        {
          "indexed": true,
          "internalType": "address",
          "name": "newOwner",
          "type": "address"
        }
      ],
      "name": "OwnershipTransferred",
      "type": "event"
    },
    {
      "anonymous": false,
      "inputs": [
        {
          "indexed": false,
          "internalType": "address",
          "name": "attacker",
          "type": "address"
        },
        {
          "indexed": false,
          "internalType": "address",
          "name": "defender",
          "type": "address"
        },
        {
          "indexed": false,
          "internalType": "uint256",
          "name": "new_attacker_id",
          "type": "uint256"
        },
        {
          "indexed": false,
          "internalType": "uint256",
          "name": "new_defender_id",
          "type": "uint256"
        }
      ],
      "name": "Sacked",
      "type": "event"
    },
    {
      "anonymous": false,
      "inputs": [
        {
          "indexed": true,
          "internalType": "address",
          "name": "from",
          "type": "address"
        },
        {
          "indexed": true,
          "internalType": "address",
          "name": "to",
          "type": "address"
        },
        {
          "indexed": true,
          "internalType": "uint256",
          "name": "tokenId",
          "type": "uint256"
        }
      ],
      "name": "Transfer",
      "type": "event"
    },
    {
      "anonymous": false,
      "inputs": [
        {
          "indexed": true,
          "internalType": "address",
          "name": "_from",
          "type": "address"
        },
        {
          "indexed": false,
          "internalType": "uint256",
          "name": "_amount",
          "type": "uint256"
        }
      ],
      "name": "enterStakingAttackPoints",
      "type": "event"
    },
    {
      "anonymous": false,
      "inputs": [
        {
          "indexed": true,
          "internalType": "address",
          "name": "_from",
          "type": "address"
        },
        {
          "indexed": false,
          "internalType": "uint256",
          "name": "_amount",
          "type": "uint256"
        }
      ],
      "name": "enterStakingDefensePoints",
      "type": "event"
    },
    {
      "inputs": [
        {
          "internalType": "address",
          "name": "",
          "type": "address"
        },
        {
          "internalType": "uint256",
          "name": "",
          "type": "uint256"
        }
      ],
      "name": "address2ids",
      "outputs": [
        {
          "internalType": "uint256",
          "name": "",
          "type": "uint256"
        }
      ],
      "stateMutability": "view",
      "type": "function",
      "constant": true
    },
    {
      "inputs": [
        {
          "internalType": "address",
          "name": "to",
          "type": "address"
        },
        {
          "internalType": "uint256",
          "name": "tokenId",
          "type": "uint256"
        }
      ],
      "name": "approve",
      "outputs": [],
      "stateMutability": "nonpayable",
      "type": "function"
    },
    {
      "inputs": [],
      "name": "attackCooldown",
      "outputs": [
        {
          "internalType": "uint256",
          "name": "",
          "type": "uint256"
        }
      ],
      "stateMutability": "view",
      "type": "function",
      "constant": true
    },
    {
      "inputs": [
        {
          "internalType": "address",
          "name": "player",
          "type": "address"
        }
      ],
      "name": "awardItem",
      "outputs": [
        {
          "internalType": "uint256",
          "name": "",
          "type": "uint256"
        }
      ],
      "stateMutability": "nonpayable",
      "type": "function"
    },
    {
      "inputs": [],
      "name": "balanceLastMonth_kgdat",
      "outputs": [
        {
          "internalType": "uint256",
          "name": "",
          "type": "uint256"
        }
      ],
      "stateMutability": "view",
      "type": "function",
      "constant": true
    },
    {
      "inputs": [],
      "name": "balanceLastMonth_kgddf",
      "outputs": [
        {
          "internalType": "uint256",
          "name": "",
          "type": "uint256"
        }
      ],
      "stateMutability": "view",
      "type": "function",
      "constant": true
    },
    {
      "inputs": [],
      "name": "balanceLastMonth_kgdsc",
      "outputs": [
        {
          "internalType": "uint256",
          "name": "",
          "type": "uint256"
        }
      ],
      "stateMutability": "view",
      "type": "function",
      "constant": true
    },
    {
      "inputs": [
        {
          "internalType": "address",
          "name": "owner",
          "type": "address"
        }
      ],
      "name": "balanceOf",
      "outputs": [
        {
          "internalType": "uint256",
          "name": "",
          "type": "uint256"
        }
      ],
      "stateMutability": "view",
      "type": "function",
      "constant": true
    },
    {
      "inputs": [],
      "name": "baseUrl",
      "outputs": [
        {
          "internalType": "string",
          "name": "",
          "type": "string"
        }
      ],
      "stateMutability": "view",
      "type": "function",
      "constant": true
    },
    {
      "inputs": [],
      "name": "buyForETH",
      "outputs": [],
      "stateMutability": "payable",
      "type": "function",
      "payable": true
    },
    {
      "inputs": [],
      "name": "currentPosition",
      "outputs": [
        {
          "internalType": "uint256",
          "name": "",
          "type": "uint256"
        }
      ],
      "stateMutability": "view",
      "type": "function",
      "constant": true
    },
    {
      "inputs": [],
      "name": "exchangeRate",
      "outputs": [
        {
          "internalType": "uint8",
          "name": "",
          "type": "uint8"
        }
      ],
      "stateMutability": "view",
      "type": "function",
      "constant": true
    },
    {
      "inputs": [],
      "name": "exchangeRate_Attackpoints",
      "outputs": [
        {
          "internalType": "uint8",
          "name": "",
          "type": "uint8"
        }
      ],
      "stateMutability": "view",
      "type": "function",
      "constant": true
    },
    {
      "inputs": [],
      "name": "exchangeRate_Burnpct",
      "outputs": [
        {
          "internalType": "uint8",
          "name": "",
          "type": "uint8"
        }
      ],
      "stateMutability": "view",
      "type": "function",
      "constant": true
    },
    {
      "inputs": [],
      "name": "exchangeRate_Defensepoints",
      "outputs": [
        {
          "internalType": "uint8",
          "name": "",
          "type": "uint8"
        }
      ],
      "stateMutability": "view",
      "type": "function",
      "constant": true
    },
    {
      "inputs": [
        {
          "internalType": "uint256",
          "name": "tokenId",
          "type": "uint256"
        }
      ],
      "name": "getApproved",
      "outputs": [
        {
          "internalType": "address",
          "name": "",
          "type": "address"
        }
      ],
      "stateMutability": "view",
      "type": "function",
      "constant": true
    },
    {
      "inputs": [],
      "name": "getCurrentStakes",
      "outputs": [
        {
          "internalType": "uint256[3]",
          "name": "",
          "type": "uint256[3]"
        }
      ],
      "stateMutability": "view",
      "type": "function",
      "constant": true
    },
    {
      "inputs": [
        {
          "internalType": "uint256",
          "name": "_rank",
          "type": "uint256"
        }
      ],
      "name": "getIdOfRank",
      "outputs": [
        {
          "internalType": "uint256",
          "name": "id",
          "type": "uint256"
        }
      ],
      "stateMutability": "view",
      "type": "function",
      "constant": true
    },
    {
      "inputs": [
        {
          "internalType": "address",
          "name": "_own",
          "type": "address"
        }
      ],
      "name": "getIdsOfAddress",
      "outputs": [
        {
          "internalType": "uint256[]",
          "name": "ownedIds",
          "type": "uint256[]"
        }
      ],
      "stateMutability": "view",
      "type": "function",
      "constant": true
    },
    {
      "inputs": [
        {
          "internalType": "uint256",
          "name": "_id",
          "type": "uint256"
        }
      ],
      "name": "getRankOfId",
      "outputs": [
        {
          "internalType": "uint256",
          "name": "id",
          "type": "uint256"
        }
      ],
      "stateMutability": "view",
      "type": "function",
      "constant": true
    },
    {
      "inputs": [
        {
          "internalType": "address",
          "name": "_own",
          "type": "address"
        }
      ],
      "name": "getRanksOfAddress",
      "outputs": [
        {
          "internalType": "uint256[]",
          "name": "",
          "type": "uint256[]"
        }
      ],
      "stateMutability": "view",
      "type": "function",
      "constant": true
    },
    {
      "inputs": [],
      "name": "getTimeUntilStakingDone",
      "outputs": [
        {
          "internalType": "uint256[3]",
          "name": "timeuntildone",
          "type": "uint256[3]"
        }
      ],
      "stateMutability": "view",
      "type": "function",
      "constant": true
    },
    {
      "inputs": [],
      "name": "harvestAll",
      "outputs": [
        {
          "internalType": "bool",
          "name": "success",
          "type": "bool"
        }
      ],
      "stateMutability": "nonpayable",
      "type": "function"
    },
    {
      "inputs": [
        {
          "internalType": "address",
          "name": "owner",
          "type": "address"
        },
        {
          "internalType": "address",
          "name": "operator",
          "type": "address"
        }
      ],
      "name": "isApprovedForAll",
      "outputs": [
        {
          "internalType": "bool",
          "name": "",
          "type": "bool"
        }
      ],
      "stateMutability": "view",
      "type": "function",
      "constant": true
    },
    {
      "inputs": [],
      "name": "justSendETH",
      "outputs": [
        {
          "internalType": "uint256",
          "name": "",
          "type": "uint256"
        }
      ],
      "stateMutability": "payable",
      "type": "function",
      "payable": true
    },
    {
      "inputs": [],
      "name": "kgdat",
      "outputs": [
        {
          "internalType": "contract KingdomAttackCoin",
          "name": "",
          "type": "address"
        }
      ],
      "stateMutability": "view",
      "type": "function",
      "constant": true
    },
    {
      "inputs": [],
      "name": "kgddf",
      "outputs": [
        {
          "internalType": "contract KingdomDefenseCoin",
          "name": "",
          "type": "address"
        }
      ],
      "stateMutability": "view",
      "type": "function",
      "constant": true
    },
    {
      "inputs": [],
      "name": "kgdsc",
      "outputs": [
        {
          "internalType": "contract KingdomSeedCoin",
          "name": "",
          "type": "address"
        }
      ],
      "stateMutability": "view",
      "type": "function",
      "constant": true
    },
    {
      "inputs": [
        {
          "internalType": "uint256",
          "name": "",
          "type": "uint256"
        }
      ],
      "name": "kingdomtitles",
      "outputs": [
        {
          "internalType": "uint256",
          "name": "attackPoints",
          "type": "uint256"
        },
        {
          "internalType": "uint256",
          "name": "defensePoints",
          "type": "uint256"
        },
        {
          "internalType": "uint256",
          "name": "readyTimeAttack",
          "type": "uint256"
        },
        {
          "internalType": "uint256",
          "name": "readyTimeStake",
          "type": "uint256"
        },
        {
          "internalType": "uint256",
          "name": "attackMultiplier",
          "type": "uint256"
        },
        {
          "internalType": "uint256",
          "name": "defenseMultiplier",
          "type": "uint256"
        },
        {
          "internalType": "uint256",
          "name": "moneyMultiplier",
          "type": "uint256"
        }
      ],
      "stateMutability": "view",
      "type": "function",
      "constant": true
    },
    {
      "inputs": [],
      "name": "name",
      "outputs": [
        {
          "internalType": "string",
          "name": "",
          "type": "string"
        }
      ],
      "stateMutability": "view",
      "type": "function",
      "constant": true
    },
    {
      "inputs": [],
      "name": "owner",
      "outputs": [
        {
          "internalType": "address",
          "name": "",
          "type": "address"
        }
      ],
      "stateMutability": "view",
      "type": "function",
      "constant": true
    },
    {
      "inputs": [
        {
          "internalType": "uint256",
          "name": "tokenId",
          "type": "uint256"
        }
      ],
      "name": "ownerOf",
      "outputs": [
        {
          "internalType": "address",
          "name": "",
          "type": "address"
        }
      ],
      "stateMutability": "view",
      "type": "function",
      "constant": true
    },
    {
      "inputs": [
        {
          "internalType": "uint256",
          "name": "nrSeedCoins",
          "type": "uint256"
        },
        {
          "internalType": "uint8",
          "name": "targetCoin",
          "type": "uint8"
        }
      ],
      "name": "plantSeeds",
      "outputs": [],
      "stateMutability": "nonpayable",
      "type": "function"
    },
    {
      "inputs": [],
      "name": "readyTimeStakeCooldown",
      "outputs": [
        {
          "internalType": "uint256",
          "name": "",
          "type": "uint256"
        }
      ],
      "stateMutability": "view",
      "type": "function",
      "constant": true
    },
    {
      "inputs": [],
      "name": "renounceOwnership",
      "outputs": [],
      "stateMutability": "nonpayable",
      "type": "function"
    },
    {
      "inputs": [
        {
          "internalType": "uint256",
          "name": "itemId",
          "type": "uint256"
        }
      ],
      "name": "reverseItem",
      "outputs": [
        {
          "internalType": "bool",
          "name": "",
          "type": "bool"
        }
      ],
      "stateMutability": "nonpayable",
      "type": "function"
    },
    {
      "inputs": [
        {
          "internalType": "address",
          "name": "from",
          "type": "address"
        },
        {
          "internalType": "address",
          "name": "to",
          "type": "address"
        },
        {
          "internalType": "uint256",
          "name": "tokenId",
          "type": "uint256"
        }
      ],
      "name": "safeTransferFrom",
      "outputs": [],
      "stateMutability": "nonpayable",
      "type": "function"
    },
    {
      "inputs": [
        {
          "internalType": "address",
          "name": "from",
          "type": "address"
        },
        {
          "internalType": "address",
          "name": "to",
          "type": "address"
        },
        {
          "internalType": "uint256",
          "name": "tokenId",
          "type": "uint256"
        },
        {
          "internalType": "bytes",
          "name": "_data",
          "type": "bytes"
        }
      ],
      "name": "safeTransferFrom",
      "outputs": [],
      "stateMutability": "nonpayable",
      "type": "function"
    },
    {
      "inputs": [
        {
          "internalType": "address",
          "name": "operator",
          "type": "address"
        },
        {
          "internalType": "bool",
          "name": "approved",
          "type": "bool"
        }
      ],
      "name": "setApprovalForAll",
      "outputs": [],
      "stateMutability": "nonpayable",
      "type": "function"
    },
    {
      "inputs": [],
      "name": "stakingPeriod",
      "outputs": [
        {
          "internalType": "uint256",
          "name": "",
          "type": "uint256"
        }
      ],
      "stateMutability": "view",
      "type": "function",
      "constant": true
    },
    {
      "inputs": [
        {
          "internalType": "bytes4",
          "name": "interfaceId",
          "type": "bytes4"
        }
      ],
      "name": "supportsInterface",
      "outputs": [
        {
          "internalType": "bool",
          "name": "",
          "type": "bool"
        }
      ],
      "stateMutability": "view",
      "type": "function",
      "constant": true
    },
    {
      "inputs": [],
      "name": "symbol",
      "outputs": [
        {
          "internalType": "string",
          "name": "",
          "type": "string"
        }
      ],
      "stateMutability": "view",
      "type": "function",
      "constant": true
    },
    {
      "inputs": [
        {
          "internalType": "uint256",
          "name": "",
          "type": "uint256"
        }
      ],
      "name": "title2Rank",
      "outputs": [
        {
          "internalType": "uint256",
          "name": "",
          "type": "uint256"
        }
      ],
      "stateMutability": "view",
      "type": "function",
      "constant": true
    },
    {
      "inputs": [
        {
          "internalType": "uint256",
          "name": "tokenId",
          "type": "uint256"
        }
      ],
      "name": "tokenURI",
      "outputs": [
        {
          "internalType": "string",
          "name": "",
          "type": "string"
        }
      ],
      "stateMutability": "view",
      "type": "function",
      "constant": true
    },
    {
      "inputs": [],
      "name": "totalSupply",
      "outputs": [
        {
          "internalType": "uint16",
          "name": "",
          "type": "uint16"
        }
      ],
      "stateMutability": "view",
      "type": "function",
      "constant": true
    },
    {
      "inputs": [
        {
          "internalType": "address",
          "name": "from",
          "type": "address"
        },
        {
          "internalType": "address",
          "name": "to",
          "type": "address"
        },
        {
          "internalType": "uint256",
          "name": "tokenId",
          "type": "uint256"
        }
      ],
      "name": "transferFrom",
      "outputs": [],
      "stateMutability": "nonpayable",
      "type": "function"
    },
    {
      "inputs": [
        {
          "internalType": "address",
          "name": "newOwner",
          "type": "address"
        }
      ],
      "name": "transferOwnership",
      "outputs": [],
      "stateMutability": "nonpayable",
      "type": "function"
    },
    {
      "inputs": [
        {
          "internalType": "uint256",
          "name": "id",
          "type": "uint256"
        }
      ],
      "name": "getServants",
      "outputs": [
        {
          "internalType": "uint256",
          "name": "left",
          "type": "uint256"
        },
        {
          "internalType": "uint256",
          "name": "right",
          "type": "uint256"
        }
      ],
      "stateMutability": "view",
      "type": "function",
      "constant": true
    },
    {
      "inputs": [
        {
          "internalType": "uint256",
          "name": "id",
          "type": "uint256"
        }
      ],
      "name": "getBossRank",
      "outputs": [
        {
          "internalType": "uint256",
          "name": "bossrank",
          "type": "uint256"
        }
      ],
      "stateMutability": "view",
      "type": "function",
      "constant": true
    },
    {
      "inputs": [
        {
          "internalType": "uint256",
          "name": "playerId",
          "type": "uint256"
        }
      ],
      "name": "getBossId",
      "outputs": [
        {
          "internalType": "uint256",
          "name": "bossId",
          "type": "uint256"
        }
      ],
      "stateMutability": "view",
      "type": "function",
      "constant": true
    },
    {
      "inputs": [
        {
          "internalType": "uint256",
          "name": "titleId",
          "type": "uint256"
        }
      ],
      "name": "getTitleStats",
      "outputs": [
        {
          "internalType": "uint256",
          "name": "attackPoints",
          "type": "uint256"
        },
        {
          "internalType": "uint256",
          "name": "defensePoints",
          "type": "uint256"
        },
        {
          "internalType": "bool",
          "name": "ready4attack",
          "type": "bool"
        },
        {
          "internalType": "uint256",
          "name": "attackMultiplier",
          "type": "uint256"
        },
        {
          "internalType": "uint256",
          "name": "defenseMultiplier",
          "type": "uint256"
        },
        {
          "internalType": "uint256",
          "name": "moneyMultiplier",
          "type": "uint256"
        }
      ],
      "stateMutability": "view",
      "type": "function",
      "constant": true
    },
    {
      "inputs": [
        {
          "internalType": "uint256",
          "name": "nrCoins",
          "type": "uint256"
        },
        {
          "internalType": "uint32",
          "name": "titleId",
          "type": "uint32"
        },
        {
          "internalType": "uint256",
          "name": "coinType",
          "type": "uint256"
        }
      ],
      "name": "assignMilitaryToTitle",
      "outputs": [],
      "stateMutability": "nonpayable",
      "type": "function"
    },
    {
      "inputs": [
        {
          "internalType": "uint256",
          "name": "nrCoins",
          "type": "uint256"
        },
        {
          "internalType": "uint32",
          "name": "titleId",
          "type": "uint32"
        },
        {
          "internalType": "uint8",
          "name": "coinType",
          "type": "uint8"
        }
      ],
      "name": "withdrawMilitaryFromTitle",
      "outputs": [],
      "stateMutability": "nonpayable",
      "type": "function"
    },
    {
      "inputs": [
        {
          "internalType": "uint256",
          "name": "titleId",
          "type": "uint256"
        }
      ],
      "name": "attackBoss",
      "outputs": [],
      "stateMutability": "nonpayable",
      "type": "function"
    }
  ],
  "bytecode": "0x60806040526006805463ffffffff60a01b1916630504050560a11b179055603c600755600060088190556009819055600a553480156200003e57600080fd5b506040516200497938038062004979833981016040819052620000619162000261565b8282828282826040518060400160405280600e81526020016d4b696e67646f6d205469746c657360901b8152506040518060400160405280600381526020016212d1d160ea1b8152508160009080519060200190620000c2929190620001a2565b508051620000d8906001906020840190620001a2565b505050620000f5620000ef6200014c60201b60201c565b62000150565b600b80546001600160a01b039485166001600160a01b031991821617909155600c805493851693821693909317909255600d8054919093169116179055505060006201118055505042620111825550620002f29050565b3390565b600680546001600160a01b038381166001600160a01b0319831681179093556040519116919082907f8be0079c531659141344cd1fd0a4f28419497f9722a3daafe3b4186f6b6457e090600090a35050565b828054620001b090620002b5565b90600052602060002090601f016020900481019282620001d457600085556200021f565b82601f10620001ef57805160ff19168380011785556200021f565b828001600101855582156200021f579182015b828111156200021f57825182559160200191906001019062000202565b506200022d92915062000231565b5090565b5b808211156200022d576000815560010162000232565b6001600160a01b03811681146200025e57600080fd5b50565b6000806000606084860312156200027757600080fd5b8351620002848162000248565b6020850151909350620002978162000248565b6040850151909250620002aa8162000248565b809150509250925092565b600181811c90821680620002ca57607f821691505b60208210811415620002ec57634e487b7160e01b600052602260045260246000fd5b50919050565b61467780620003026000396000f3fe6080604052600436106103345760003560e01c8063802bea6e116101ab578063c669b710116100f7578063e985e9c511610095578063f2fb21201161006f578063f2fb2120146109df578063f2fde38b146109ff578063f4fd44f114610a1f578063fa4facdb14610a4e57600080fd5b8063e985e9c514610960578063eb8fd9a3146109a9578063f08b7b73146109bf57600080fd5b8063d534d636116100d1578063d534d63614610923578063e046670b1461093a578063e10270c614610940578063e73961f51461042e57600080fd5b8063c669b710146108c1578063c87b56dd146108e2578063d4637ddb1461090257600080fd5b8063900294be11610164578063b88d4fde1161013e578063b88d4fde1461083e578063c03d5b471461085e578063c398314914610874578063c4a3a1fc1461089457600080fd5b8063900294be146107e957806395d89b4114610809578063a22cb4651461081e57600080fd5b8063802bea6e1461072f578063839b92051461075e57806384505e6a14610774578063853eab57146107965780638da5cb5b146107b65780638ed955b9146107d457600080fd5b8063266c79ef116102855780635bcabf04116102235780636a7a2fa3116101fd5780636a7a2fa3146106b957806370a08231146106da578063715018a6146106fa5780637c62539a1461070f57600080fd5b80635bcabf041461064f5780635e1bb546146106645780636352211e1461069957600080fd5b8063411ee0d01161025f578063411ee0d01461059c57806342842e0e146105bc578063429c3edf146105dc578063437ace21146105fc57600080fd5b8063266c79ef146105295780632756985c146105495780633ba0b9a91461056957600080fd5b80630895ba53116102f257806316807e15116102cc57806316807e151461046b57806318160ddd1461048b5780631cf95ed6146104b457806323b872dd1461050957600080fd5b80630895ba531461042e578063095ea7b31461044357806310f7e4ed1461046357600080fd5b80620a51801461033957806301ffc9a7146103625780630619f9321461039257806306fdde03146103b4578063073077ec146103d6578063081812fc146103f6575b600080fd5b34801561034557600080fd5b5061034f60095481565b6040519081526020015b60405180910390f35b34801561036e57600080fd5b5061038261037d366004613ec1565b610a63565b6040519015158152602001610359565b34801561039e57600080fd5b506103b26103ad366004613ede565b610ab5565b005b3480156103c057600080fd5b506103c9610ebb565b6040516103599190613f4f565b3480156103e257600080fd5b506103b26103f1366004613f87565b610f4d565b34801561040257600080fd5b50610416610411366004613ede565b6111c6565b6040516001600160a01b039091168152602001610359565b34801561043a57600080fd5b5061034f603c81565b34801561044f57600080fd5b506103b261045e366004613fda565b61124e565b6103b261135f565b34801561047757600080fd5b5061034f610486366004613ede565b6115d2565b34801561049757600080fd5b506104a161271081565b60405161ffff9091168152602001610359565b3480156104c057600080fd5b506104d46104cf366004613ede565b61161a565b604080519788526020880196909652948601939093526060850191909152608084015260a083015260c082015260e001610359565b34801561051557600080fd5b506103b2610524366004614004565b61165e565b34801561053557600080fd5b5061034f610544366004613ede565b61168f565b34801561055557600080fd5b50610382610564366004613ede565b611759565b34801561057557600080fd5b5060065461058a90600160a01b900460ff1681565b60405160ff9091168152602001610359565b3480156105a857600080fd5b50600d54610416906001600160a01b031681565b3480156105c857600080fd5b506103b26105d7366004614004565b6118d5565b3480156105e857600080fd5b506103b26105f7366004614040565b6118f0565b34801561060857600080fd5b5061061c610617366004613ede565b611d10565b604080519687526020870195909552921515938501939093526060840152608083019190915260a082015260c001610359565b34801561065b57600080fd5b506103c9611e3e565b34801561067057600080fd5b5061068461067f366004613ede565b611e5a565b60408051928352602083019190915201610359565b3480156106a557600080fd5b506104166106b4366004613ede565b611eeb565b3480156106c557600080fd5b5060065461058a90600160b81b900460ff1681565b3480156106e657600080fd5b5061034f6106f5366004614063565b611f62565b34801561070657600080fd5b506103b2611fe9565b34801561071b57600080fd5b50600c54610416906001600160a01b031681565b34801561073b57600080fd5b5061034f61074a366004613ede565b60009081526201117f602052604090205490565b34801561076a57600080fd5b5061034f600a5481565b34801561078057600080fd5b5061078961201f565b604051610359919061407e565b3480156107a257600080fd5b506103b26107b13660046140af565b612194565b3480156107c257600080fd5b506006546001600160a01b0316610416565b3480156107e057600080fd5b5061038261256b565b3480156107f557600080fd5b50600b54610416906001600160a01b031681565b34801561081557600080fd5b506103c961285d565b34801561082a57600080fd5b506103b26108393660046140e2565b61286c565b34801561084a57600080fd5b506103b261085936600461412f565b612931565b34801561086a57600080fd5b5061034f60075481565b34801561088057600080fd5b5061034f61088f366004613ede565b612969565b3480156108a057600080fd5b506108b46108af366004614063565b612987565b604051610359919061420b565b3480156108cd57600080fd5b5060065461058a90600160a81b900460ff1681565b3480156108ee57600080fd5b506103c96108fd366004613ede565b6129f5565b34801561090e57600080fd5b5060065461058a90600160b01b900460ff1681565b34801561092f57600080fd5b50620111805461034f565b4761034f565b34801561094c57600080fd5b506108b461095b366004614063565b612aaf565b34801561096c57600080fd5b5061038261097b36600461424f565b6001600160a01b03918216600090815260056020908152604080832093909416825291909152205460ff1690565b3480156109b557600080fd5b5061034f60085481565b3480156109cb57600080fd5b5061034f6109da366004613fda565b612bda565b3480156109eb57600080fd5b5061034f6109fa366004614063565b612c0d565b348015610a0b57600080fd5b506103b2610a1a366004614063565b612dd4565b348015610a2b57600080fd5b5061034f610a3a366004613ede565b6201117f6020526000908152604090205481565b348015610a5a57600080fd5b50610789612e6f565b60006001600160e01b031982166380ac58cd60e01b1480610a9457506001600160e01b03198216635b5e139f60e01b145b80610aaf57506301ffc9a760e01b6001600160e01b03198316145b92915050565b6000610ac033611f62565b11610b2d5760405162461bcd60e51b815260206004820152603260248201527f746f2075736520746869732066756e6374696f6e20796f75206e6565642061206044820152717469746c652120676f20627579206f6e652160701b60648201526084015b60405180910390fd5b33610b3782611eeb565b6001600160a01b031614610baa5760405162461bcd60e51b815260206004820152603460248201527f736f7272792c206f6e6c7920746865206f776e6572206f662061207469746c656044820152732063616e2061747461636b2068697320626f737360601b6064820152608401610b24565b6000604051806101600160405280600015158152602001838152602001610bd084612969565b8152602001610be16106b485612969565b6001600160a01b03168152602001600081526020016000815260200160001515815260200160008152602001600081526020016000815260200160008152509050336001600160a01b031681606001516001600160a01b03161415610c885760405162461bcd60e51b815260206004820152601e60248201527f626f792c20646f6e27742061747461636b20796f757273656c6620706c7a00006044820152606401610b24565b610c9182611d10565b5050610120850152151560c08401525060e08201526040810151610cb490611d10565b506101408601819052610100860184905260009450600a93909250610cdb9150600f61428f565b610ce5919061428f565b610cef91906142c4565b905060008261012001518360e00151610d08919061428f565b90506000610d14612f80565b9050600080610d238486612fe4565b915091506003821115610d4b5761010086015160a08701526000608087015260018652610dfd565b6002821115610d9f5761010086015160a08701526001865260e0860151610d7490600a906142c4565b6080870152605a831115610d9a576002866101000151610d9491906142c4565b60a08701525b610dfd565b600182118015610daf5750600581115b15610dea5760018652610100860151610dca906002906142c4565b60a087015260e0860151610de0906002906142c4565b6080870152610dfd565b6000865260a08601839052608086018390525b7fe1f1c5edc3d4d1e770d4de5770da4dd058cc5e6a71a2830d5743e8062cd8fa093387606001518989604001518a60e001518b61010001518c608001518d60a001518e60000151604051610ea1999897969594939291906001600160a01b03998a16815297909816602088015260408701959095526060860193909352608085019190915260a084015260c083015260e08201529015156101008201526101200190565b60405180910390a1610eb286613010565b50505050505050565b606060008054610eca906142d8565b80601f0160208091040260200160405190810160405280929190818152602001828054610ef6906142d8565b8015610f435780601f10610f1857610100808354040283529160200191610f43565b820191906000526020600020905b815481529060010190602001808311610f2657829003601f168201915b5050505050905090565b610f5c8263ffffffff16613217565b610fa45760405162461bcd60e51b81526020600482015260196024820152781d1a5d1b19480a1d1bdad95b8a481b9bdb995e1a5cdd195b9d603a1b6044820152606401610b24565b33610fb463ffffffff8416611eeb565b6001600160a01b03161461103f5760405162461bcd60e51b815260206004820152604660248201527f796f752063616e206e6f74207769746864726177204d696c697461727920667260448201527f6f6d2061207469746c65207468617420646f6573206e6f742062656c6f6e6720606482015265746f20796f7560d01b608482015260a401610b24565b60ff8116158061105257508060ff166001145b61106e5760405162461bcd60e51b8152600401610b249061430d565b60ff811661111d5782600f8363ffffffff1661271081106110915761109161435f565b600702015410156110b45760405162461bcd60e51b8152600401610b2490614375565b336000908152620111836020526040812080548592906110d59084906143bb565b90915550839050600f63ffffffff841661271081106110f6576110f661435f565b60070201805460009061110a9084906143d3565b909155506111189050613234565b505050565b8060ff16600114156111185782600f8363ffffffff1661271081106111445761114461435f565b6007020160010154101561116a5760405162461bcd60e51b8152600401610b24906143ea565b33600090815262011183602052604090208390600101600082825461118f91906143bb565b90915550839050600f63ffffffff841661271081106111b0576111b061435f565b60070201600101600082825461110a91906143d3565b60006111d182613217565b6112325760405162461bcd60e51b815260206004820152602c60248201527f4552433732313a20617070726f76656420717565727920666f72206e6f6e657860448201526b34b9ba32b73a103a37b5b2b760a11b6064820152608401610b24565b506000908152600460205260409020546001600160a01b031690565b600061125982611eeb565b9050806001600160a01b0316836001600160a01b031614156112c75760405162461bcd60e51b815260206004820152602160248201527f4552433732313a20617070726f76616c20746f2063757272656e74206f776e656044820152603960f91b6064820152608401610b24565b336001600160a01b03821614806112e357506112e3813361097b565b6113555760405162461bcd60e51b815260206004820152603860248201527f4552433732313a20617070726f76652063616c6c6572206973206e6f74206f7760448201527f6e6572206e6f7220617070726f76656420666f7220616c6c00000000000000006064820152608401610b24565b61111883836133f7565b600b546040516370a0823160e01b81523060048201526000916001600160a01b0316906370a082319060240160206040518083038186803b1580156113a357600080fd5b505afa1580156113b7573d6000803e3d6000fd5b505050506040513d601f19601f820116820180604052508101906113db9190614431565b116113e557600080fd5b6000341161144e5760405162461bcd60e51b815260206004820152603060248201527f796f75206861766520746f2073656e6420736f6d652045544820746f2067657460448201526f1025b4b733b237b6a9b2b2b231b7b4b760811b6064820152608401610b24565b600b546040516370a0823160e01b81523060048201526000916001600160a01b0316906370a082319060240160206040518083038186803b15801561149257600080fd5b505afa1580156114a6573d6000803e3d6000fd5b505050506040513d601f19601f820116820180604052508101906114ca9190614431565b1161152f5760405162461bcd60e51b815260206004820152602f60248201527f75686f682c2073727920692063616e27742073656e6420616e79206d6f72652060448201526e25b4b733b237b6a9b2b2b231b7b4b760891b6064820152608401610b24565b60065460009061154990600160a01b900460ff163461428f565b600b5460405163a9059cbb60e01b8152336004820152602481018390529192506001600160a01b03169063a9059cbb90604401602060405180830381600087803b15801561159657600080fd5b505af11580156115aa573d6000803e3d6000fd5b505050506040513d601f19601f820116820180604052508101906115ce919061444a565b5050565b6000805b62011180548110156116145760008181526201117f602052604090205483141561160257809150611614565b8061160c81614467565b9150506115d6565b50919050565b600f81612710811061162b57600080fd5b60070201805460018201546002830154600384015460048501546005860154600690960154949650929491939092919087565b6116683382613465565b6116845760405162461bcd60e51b8152600401610b2490614482565b61111883838361354f565b60008061169d620111805490565b90508260001080156116af5750808311155b6116f45760405162461bcd60e51b81526020600482015260166024820152751a59081a5cc81b9bdd081e595d08185cdcda59db995960521b6044820152606401610b24565b60008381526201117f602052604090205460018114156117175760009250611752565b6117226002856144d3565b611738576117316002826142c4565b9250611752565b60026117456001836143d3565b61174f91906142c4565b92505b5050919050565b6006546000906001600160a01b031633146117865760405162461bcd60e51b8152600401610b24906144e7565b600061179183611eeb565b905061179e81308561354f565b611a0a60005b6001600160a01b0383166000908152620111816020526040902054811015611820576001600160a01b038316600090815262011181602052604090208054869190839081106117f5576117f561435f565b9060005260206000200154141561180e57809150611820565b8061181881614467565b9150506117a4565b5080611a0a14156118925760405162461bcd60e51b815260206004820152603660248201527f72657665727365206974656d2066756e6374696f6e2e2e2e206974656d206e6f6044820152757420666f756e6420696e20616464726573733269647360501b6064820152608401610b24565b6001600160a01b038216600090815262011181602052604090208054829081106118be576118be61435f565b60009182526020822001555060019150505b919050565b61111883838360405180602001604052806000815250612931565b600c546040516370a0823160e01b81523060048201526000916001600160a01b0316906370a082319060240160206040518083038186803b15801561193457600080fd5b505afa158015611948573d6000803e3d6000fd5b505050506040513d601f19601f8201168201806040525081019061196c9190614431565b1161197657600080fd5b600d546040516370a0823160e01b81523060048201526000916001600160a01b0316906370a082319060240160206040518083038186803b1580156119ba57600080fd5b505afa1580156119ce573d6000803e3d6000fd5b505050506040513d601f19601f820116820180604052508101906119f29190614431565b116119fc57600080fd5b600b546040516370a0823160e01b81523360048201526000916001600160a01b0316906370a082319060240160206040518083038186803b158015611a4057600080fd5b505afa158015611a54573d6000803e3d6000fd5b505050506040513d601f19601f82011682018060405250810190611a789190614431565b9050828110158015611a8a5750600083115b611af15760405162461bcd60e51b815260206004820152603260248201527f796f7520646f6e2774206861766520656e6f7567682073656564636f696e732160448201527120627579206f7220747261646520736f6d6560701b6064820152608401610b24565b60ff82161580611b0457508160ff166001145b611b6b5760405162461bcd60e51b815260206004820152603260248201527f746172676574436f696e2068617320746f20626520303d61747461636b636f69604482015271371037b910189eb232b332b739b2b1b7b4b760711b6064820152608401610b24565b60ff8216611bad5760405183815233907f44d00596aedd88fca0607c9a84113fd638c9a070d5ef8d77c072080b688d8e349060200160405180910390a2611bef565b8160ff1660011415611bef5760405183815233907f049b4d6e22c9904766197183f9dc1f362cefb04f39e3850a8b7d83ff2c26216f9060200160405180910390a25b600b546040516323b872dd60e01b8152336004820152306024820152604481018590526001600160a01b03909116906323b872dd90606401602060405180830381600087803b158015611c4157600080fd5b505af1158015611c55573d6000803e3d6000fd5b505050506040513d601f19601f82011682018060405250810190611c79919061444a565b50600e6000336001600160a01b03166001600160a01b0316815260200190815260200160002060405180606001604052808581526020018460ff16815260200160075442611cc791906143bb565b90528154600180820184556000938452602093849020835160039093020191825592820151928101805460ff191660ff9094169390931790925560400151600290910155505050565b600080600080600080611d24620111805490565b871115611d815760405162461bcd60e51b815260206004820152602560248201527f7469746c65206964206e6f74207965742061737369676e65642c20676f20676560448201526474206f6e6560d81b6064820152608401610b24565b600f876127108110611d9557611d9561435f565b60070201549550600f876127108110611db057611db061435f565b6007020160010154945042600f886127108110611dcf57611dcf61435f565b600702016002015410159350600f876127108110611def57611def61435f565b60070201600401549250600f876127108110611e0d57611e0d61435f565b60070201600501549150600f876127108110611e2b57611e2b61435f565b6007020160060154905091939550919395565b60405180606001604052806025815260200161461d6025913981565b6000806000611e6a620111805490565b905080841115611eb55760405162461bcd60e51b81526020600482015260166024820152751a59081a5cc81b9bdd081e595d08185cdcda59db995960521b6044820152606401610b24565b611ebe846136ef565b9250611ec9846136fc565b915080831115611ed857600092505b80821115611ee557600091505b50915091565b6000818152600260205260408120546001600160a01b031680610aaf5760405162461bcd60e51b815260206004820152602960248201527f4552433732313a206f776e657220717565727920666f72206e6f6e657869737460448201526832b73a103a37b5b2b760b91b6064820152608401610b24565b60006001600160a01b038216611fcd5760405162461bcd60e51b815260206004820152602a60248201527f4552433732313a2062616c616e636520717565727920666f7220746865207a65604482015269726f206164647265737360b01b6064820152608401610b24565b506001600160a01b031660009081526003602052604090205490565b6006546001600160a01b031633146120135760405162461bcd60e51b8152600401610b24906144e7565b61201d6000613712565b565b612027613e8d565b60405180606001604052806298967f81526020016298967f81526020016000815250905060005b336000908152600e602052604090205481101561219057336000908152600e602052604081208054839081106120865761208661435f565b600091825260209182902060408051606081018252600390930290910180548352600181015460ff169383019390935260029092015491810182905291506120ce575061217e565b604083018051906120de82614467565b905250602081015160ff1661213157428160400151111561212857600042826040015161210b91906143d3565b845190915081101561212257808460005b60200201525b5061217c565b6000835261217c565b806020015160ff166001141561217c57428160400151111561217457600042826040015161215f91906143d3565b8451909150811015612122578084600161211c565b600060208401525b505b8061218881614467565b91505061204e565b5090565b6121a38263ffffffff16613217565b6121eb5760405162461bcd60e51b81526020600482015260196024820152781d1a5d1b19480a1d1bdad95b8a481b9bdb995e1a5cdd195b9d603a1b6044820152606401610b24565b600083116122465760405162461bcd60e51b815260206004820152602260248201527f796f75206e65656420746f2061737369676e206174206c65617374203120636f60448201526134b760f11b6064820152608401610b24565b8015806122535750806001145b61226f5760405162461bcd60e51b8152600401610b249061430d565b806123d257600c546040516370a0823160e01b815233600482015284916001600160a01b0316906370a082319060240160206040518083038186803b1580156122b757600080fd5b505afa1580156122cb573d6000803e3d6000fd5b505050506040513d601f19601f820116820180604052508101906122ef9190614431565b101561230d5760405162461bcd60e51b8152600401610b2490614375565b600c546040516323b872dd60e01b8152336004820152306024820152604481018590526001600160a01b03909116906323b872dd90606401602060405180830381600087803b15801561235f57600080fd5b505af1158015612373573d6000803e3d6000fd5b505050506040513d601f19601f82011682018060405250810190612397919061444a565b5082600f8363ffffffff1661271081106123b3576123b361435f565b6007020180546000906123c79084906143bb565b909155506125369050565b806001141561253657600d546040516370a0823160e01b815233600482015284916001600160a01b0316906370a082319060240160206040518083038186803b15801561241e57600080fd5b505afa158015612432573d6000803e3d6000fd5b505050506040513d601f19601f820116820180604052508101906124569190614431565b10156124745760405162461bcd60e51b8152600401610b24906143ea565b600d546040516323b872dd60e01b8152336004820152306024820152604481018590526001600160a01b03909116906323b872dd90606401602060405180830381600087803b1580156124c657600080fd5b505af11580156124da573d6000803e3d6000fd5b505050506040513d601f19601f820116820180604052508101906124fe919061444a565b5082600f8363ffffffff16612710811061251a5761251a61435f565b60070201600101600082825461253091906143bb565b90915550505b612541603c426143bb565b600f8363ffffffff16612710811061255b5761255b61435f565b6007020160030181905550505050565b6000805b336000908152600e602052604090205481101561219057336000908152600e602052604081208054839081106125a7576125a761435f565b600091825260209182902060408051606081018252600390930290910180548352600181015460ff1693830193909352600290920154918101829052915042111561284a57602081015160ff166126f557600061260c82600001518360400151613764565b60065490915061262690600160a81b900460ff16826142c4565b9050612635826000015161380d565b600c5460405163a9059cbb60e01b8152336004820152602481018390526001600160a01b039091169063a9059cbb90604401602060405180830381600087803b15801561268157600080fd5b505af1158015612695573d6000803e3d6000fd5b505050506040513d601f19601f820116820180604052508101906126b9919061444a565b5060405181815233907f9fd4a9248425079a398923cd20daa8e0c103907fb89db4707cb4f2cc343f95469060200160405180910390a2506127fe565b806020015160ff16600114156127fe57600061271982600001518360400151613764565b60065490915061273390600160b01b900460ff16826142c4565b9050612742826000015161380d565b600d5460405163a9059cbb60e01b8152336004820152602481018390526001600160a01b039091169063a9059cbb90604401602060405180830381600087803b15801561278e57600080fd5b505af11580156127a2573d6000803e3d6000fd5b505050506040513d601f19601f820116820180604052508101906127c6919061444a565b5060405181815233907fd62aeb2df4f1c7a0c59e15c0dca22ccbcbe42ad0d0dbf99a22c0ad2551c5a1559060200160405180910390a2505b336000908152600e6020526040902080548390811061281f5761281f61435f565b6000918252602082206003909102018181556001808201805460ff1916905560029091019190915592505b508061285581614467565b91505061256f565b606060018054610eca906142d8565b6001600160a01b0382163314156128c55760405162461bcd60e51b815260206004820152601960248201527f4552433732313a20617070726f766520746f2063616c6c6572000000000000006044820152606401610b24565b3360008181526005602090815260408083206001600160a01b03871680855290835292819020805460ff191686151590811790915590519081529192917f17307eab39ab6107e8899845ad3d59bd9653f200f220920489ca2b5937696c31910160405180910390a35050565b61293b3383613465565b6129575760405162461bcd60e51b8152600401610b2490614482565b61296384848484613903565b50505050565b6000806129758361168f565b9050612980816115d2565b9392505050565b6001600160a01b03811660009081526201118160209081526040918290208054835181840281018401909452808452606093928301828280156129e957602002820191906000526020600020905b8154815260200190600101908083116129d5575b50505050509050919050565b6060612a0082613217565b612a665760405162461bcd60e51b815260206004820152603160248201527f45524337323155524953746f726167653a2055524920717565727920666f72206044820152703737b732bc34b9ba32b73a103a37b5b2b760791b6064820152608401610b24565b60405180606001604052806025815260200161461d60259139612a8883613936565b604051602001612a9992919061451c565b6040516020818303038152906040529050919050565b6001600160a01b03811660009081526201118160209081526040808320805482518185028101850190935280835260609493830182828015612b1057602002820191906000526020600020905b815481526020019060010190808311612afc575b505050505090506000815167ffffffffffffffff811115612b3357612b33614119565b604051908082528060200260200182016040528015612b5c578160200160208202803683370190505b50905081516000146129805760005b8251811015612bd2576201117f6000848381518110612b8c57612b8c61435f565b6020026020010151815260200190815260200160002054828281518110612bb557612bb561435f565b602090810291909101015280612bca81614467565b915050612b6b565b509392505050565b620111816020528160005260406000208181548110612bf857600080fd5b90600052602060002001600091509150505481565b6006546000906001600160a01b03163314612c3a5760405162461bcd60e51b8152600401610b24906144e7565b620111805461271011612c995760405162461bcd60e51b815260206004820152602160248201527f75686f682c206e6f207469746c657320617661696c61626c6520616e796d6f726044820152606560f81b6064820152608401610b24565b600062011180546001612cac91906143bb565b9050612cb88382613a5f565b6001600160a01b038316600090815262011181602090815260408083208054600181018255908452828420018490558383526201117f90915281208290558080612d0184613a79565b9250925092506040518060e001604052806000815260200160008152602001603c42612d2d91906143bb565b8152602001612d3d603c426143bb565b815260200184815260200183815260200182815250600f856127108110612d6657612d6661435f565b8251600791909102919091019081556020820151600182015560408201516002820155606082015160038201556080820151600482015560a0820151600582015560c090910151600690910155620111808054906000612dc583614467565b90915550939695505050505050565b6006546001600160a01b03163314612dfe5760405162461bcd60e51b8152600401610b24906144e7565b6001600160a01b038116612e635760405162461bcd60e51b815260206004820152602660248201527f4f776e61626c653a206e6577206f776e657220697320746865207a65726f206160448201526564647265737360d01b6064820152608401610b24565b612e6c81613712565b50565b612e77613e8d565b6000806000805b336000908152600e6020526040902054811015612f6157336000908152600e60205260408120805483908110612eb657612eb661435f565b600091825260209182902060408051606081018252600390930290910180548352600181015460ff16938301939093526002909201549181018290529150612efe5750612f4f565b82612f0881614467565b935050806020015160ff1660001415612f2e578051612f2790866143bb565b9450612f4d565b806020015160ff1660011415612f4d578051612f4a90856143bb565b93505b505b80612f5981614467565b915050612e7e565b5060408051606081018252938452602084019290925290820152919050565b6000806064446201118254604051602001612fa5929190918252602082015260400190565b6040516020818303038152906040528051906020012060001c612fc891906144d3565b9050806201118254612fda91906143bb565b6201118255919050565b600080612ff183856142c4565b9150612ffd828461428f565b61300790856143d3565b90509250929050565b8060800151600f8260200151612710811061302d5761302d61435f565b6007020180546000906130419084906143d3565b925050819055506000600f826020015161271081106130625761306261435f565b600702015410156130c05760405162461bcd60e51b815260206004820152602260248201527f75686f682c207468652061747461636b706f696e747320617265207a65726f2e604482015261171760f11b6064820152608401610b24565b8060a00151600f826040015161271081106130dd576130dd61435f565b6007020160010160008282546130f391906143d3565b925050819055506000600f826040015161271081106131145761311461435f565b600702016001015410156131765760405162461bcd60e51b815260206004820152602360248201527f75686f682c2074686520646566656e7365706f696e747320617265207a65726f60448201526217171760e91b6064820152608401610b24565b805115612e6c576040818101805160009081526201117f602090815283822054818601805184528584205494518452858420949094558351835284832081905560608087015194518452928590205485513381526001600160a01b0390951692850192909252938301849052908201527f613181c93c2a39a642abf3636c19505e28200a1a2e1ab682c50373f15308df629060800160405180910390a15050565b6000908152600260205260409020546001600160a01b0316151590565b33600090815262011183602052604090208054600182015460029092015490919082156132e157600c5460405163a9059cbb60e01b8152336004820152602481018590526001600160a01b039091169063a9059cbb90604401602060405180830381600087803b1580156132a757600080fd5b505af11580156132bb573d6000803e3d6000fd5b505050506040513d601f19601f820116820180604052508101906132df919061444a565b505b811561336d57600d5460405163a9059cbb60e01b8152336004820152602481018490526001600160a01b039091169063a9059cbb90604401602060405180830381600087803b15801561333357600080fd5b505af1158015613347573d6000803e3d6000fd5b505050506040513d601f19601f8201168201806040525081019061336b919061444a565b505b801561111857600b5460405163a9059cbb60e01b8152336004820152602481018390526001600160a01b039091169063a9059cbb90604401602060405180830381600087803b1580156133bf57600080fd5b505af11580156133d3573d6000803e3d6000fd5b505050506040513d601f19601f82011682018060405250810190612963919061444a565b600081815260046020526040902080546001600160a01b0319166001600160a01b038416908117909155819061342c82611eeb565b6001600160a01b03167f8c5be1e5ebec7d5bd14f71427d1e84f3dd0314c0f7b2291e5b200ac8c7c3b92560405160405180910390a45050565b600061347082613217565b6134d15760405162461bcd60e51b815260206004820152602c60248201527f4552433732313a206f70657261746f7220717565727920666f72206e6f6e657860448201526b34b9ba32b73a103a37b5b2b760a11b6064820152608401610b24565b60006134dc83611eeb565b9050806001600160a01b0316846001600160a01b031614806135175750836001600160a01b031661350c846111c6565b6001600160a01b0316145b8061354757506001600160a01b0380821660009081526005602090815260408083209388168352929052205460ff165b949350505050565b826001600160a01b031661356282611eeb565b6001600160a01b0316146135ca5760405162461bcd60e51b815260206004820152602960248201527f4552433732313a207472616e73666572206f6620746f6b656e2074686174206960448201526839903737ba1037bbb760b91b6064820152608401610b24565b6001600160a01b03821661362c5760405162461bcd60e51b8152602060048201526024808201527f4552433732313a207472616e7366657220746f20746865207a65726f206164646044820152637265737360e01b6064820152608401610b24565b6136376000826133f7565b6001600160a01b03831660009081526003602052604081208054600192906136609084906143d3565b90915550506001600160a01b038216600090815260036020526040812080546001929061368e9084906143bb565b909155505060008181526002602052604080822080546001600160a01b0319166001600160a01b0386811691821790925591518493918716917fddf252ad1be2c89b69c2b068fc378daa952ba7f163c4a11628f55a4df523b3ef91a4505050565b6000610aaf82600261428f565b6000613707826136ef565b610aaf9060016143bb565b600680546001600160a01b038381166001600160a01b0319831681179093556040519116919082907f8be0079c531659141344cd1fd0a4f28419497f9722a3daafe3b4186f6b6457e090600090a35050565b60004282106137cf5760405162461bcd60e51b815260206004820152603160248201527f796f752063616e2774207363616c652072657761726473207769746820612074604482015270696d6520696e207468652066757475726560781b6064820152608401610b24565b60006137db83426143d3565b90506000600754826137ed91906142c4565b6137f89060016143bb565b9050613804818661428f565b95945050505050565b60065460009060649061382a90600160b81b900460ff168461428f565b61383491906142c4565b61383e90836143d3565b600b5460405163a9059cbb60e01b8152336004820152602481018390529192506001600160a01b03169063a9059cbb90604401602060405180830381600087803b15801561388b57600080fd5b505af115801561389f573d6000803e3d6000fd5b505050506040513d601f19601f820116820180604052508101906138c3919061444a565b50604080518281526020810184905233917f11acec8ea502f5c875e157dd1a17389990a9350450464db61ef112521c0d8751910160405180910390a25050565b61390e84848461354f565b61391a84848484613c1a565b6129635760405162461bcd60e51b8152600401610b249061454b565b60608161395a5750506040805180820190915260018152600360fc1b602082015290565b8160005b8115613984578061396e81614467565b915061397d9050600a836142c4565b915061395e565b60008167ffffffffffffffff81111561399f5761399f614119565b6040519080825280601f01601f1916602001820160405280156139c9576020820181803683370190505b509050815b8515613a56576139df6001826143d3565b905060006139ee600a886142c4565b6139f990600a61428f565b613a0390886143d3565b613a0e90603061459d565b905060008160f81b905080848481518110613a2b57613a2b61435f565b60200101906001600160f81b031916908160001a905350613a4d600a896142c4565b975050506139ce565b50949350505050565b6115ce828260405180602001604052806000815250613d27565b60008080806064613a8c8661013a6143bb565b613a9691906144d3565b905060006064613aa78760486143bb565b613ab191906144d3565b905060006064613ac3886199826143bb565b613acd91906144d3565b9050600a9550600a9450600a9350605f8310613b0a57613aee605f846143d3565b613af990600661428f565b613b0390876143bb565b9550613b57565b60508310613b28576050613b1e84886143bb565b613b0391906143d3565b82601411158015613b395750601e83105b15613b5757600f613b4a84886143bb565b613b5491906143d3565b95505b605f8210613b8657613b6a605f836143d3565b613b7590600661428f565b613b7f90866143bb565b9450613bd3565b60508310613ba4576050613b9a83876143bb565b613b7f91906143d3565b81600a11158015613bb55750601e82105b15613bd3576005613bc683876143bb565b613bd091906143d3565b94505b60508110613bf8576050613be782866143bb565b613bf191906143d3565b9350613c10565b613c03600a826142c4565b613c0d90856143bb565b93505b5050509193909250565b60006001600160a01b0384163b15613d1c57604051630a85bd0160e11b81526001600160a01b0385169063150b7a0290613c5e9033908990889088906004016145c2565b602060405180830381600087803b158015613c7857600080fd5b505af1925050508015613ca8575060408051601f3d908101601f19168201909252613ca5918101906145ff565b60015b613d02573d808015613cd6576040519150601f19603f3d011682016040523d82523d6000602084013e613cdb565b606091505b508051613cfa5760405162461bcd60e51b8152600401610b249061454b565b805181602001fd5b6001600160e01b031916630a85bd0160e11b149050613547565b506001949350505050565b613d318383613d5a565b613d3e6000848484613c1a565b6111185760405162461bcd60e51b8152600401610b249061454b565b6001600160a01b038216613db05760405162461bcd60e51b815260206004820181905260248201527f4552433732313a206d696e7420746f20746865207a65726f20616464726573736044820152606401610b24565b613db981613217565b15613e065760405162461bcd60e51b815260206004820152601c60248201527f4552433732313a20746f6b656e20616c7265616479206d696e746564000000006044820152606401610b24565b6001600160a01b0382166000908152600360205260408120805460019290613e2f9084906143bb565b909155505060008181526002602052604080822080546001600160a01b0319166001600160a01b03861690811790915590518392907fddf252ad1be2c89b69c2b068fc378daa952ba7f163c4a11628f55a4df523b3ef908290a45050565b60405180606001604052806003906020820280368337509192915050565b6001600160e01b031981168114612e6c57600080fd5b600060208284031215613ed357600080fd5b813561298081613eab565b600060208284031215613ef057600080fd5b5035919050565b60005b83811015613f12578181015183820152602001613efa565b838111156129635750506000910152565b60008151808452613f3b816020860160208601613ef7565b601f01601f19169290920160200192915050565b6020815260006129806020830184613f23565b803563ffffffff811681146118d057600080fd5b803560ff811681146118d057600080fd5b600080600060608486031215613f9c57600080fd5b83359250613fac60208501613f62565b9150613fba60408501613f76565b90509250925092565b80356001600160a01b03811681146118d057600080fd5b60008060408385031215613fed57600080fd5b613ff683613fc3565b946020939093013593505050565b60008060006060848603121561401957600080fd5b61402284613fc3565b925061403060208501613fc3565b9150604084013590509250925092565b6000806040838503121561405357600080fd5b8235915061300760208401613f76565b60006020828403121561407557600080fd5b61298082613fc3565b60608101818360005b60038110156140a6578151835260209283019290910190600101614087565b50505092915050565b6000806000606084860312156140c457600080fd5b8335925061403060208501613f62565b8015158114612e6c57600080fd5b600080604083850312156140f557600080fd5b6140fe83613fc3565b9150602083013561410e816140d4565b809150509250929050565b634e487b7160e01b600052604160045260246000fd5b6000806000806080858703121561414557600080fd5b61414e85613fc3565b935061415c60208601613fc3565b925060408501359150606085013567ffffffffffffffff8082111561418057600080fd5b818701915087601f83011261419457600080fd5b8135818111156141a6576141a6614119565b604051601f8201601f19908116603f011681019083821181831017156141ce576141ce614119565b816040528281528a60208487010111156141e757600080fd5b82602086016020830137600060208483010152809550505050505092959194509250565b6020808252825182820181905260009190848201906040850190845b8181101561424357835183529284019291840191600101614227565b50909695505050505050565b6000806040838503121561426257600080fd5b61426b83613fc3565b915061300760208401613fc3565b634e487b7160e01b600052601160045260246000fd5b60008160001904831182151516156142a9576142a9614279565b500290565b634e487b7160e01b600052601260045260246000fd5b6000826142d3576142d36142ae565b500490565b600181811c908216806142ec57607f821691505b6020821081141561161457634e487b7160e01b600052602260045260246000fd5b60208082526032908201527f6f7468657220636f696e207479706573206e6f7420737570706f72746564207960408201527165742c206d7573742062652030206f72203160701b606082015260800190565b634e487b7160e01b600052603260045260246000fd5b60208082526026908201527f796f7520646f206e6f7420686176652074686174206d616e792061747461636b60408201526520636f696e7360d01b606082015260800190565b600082198211156143ce576143ce614279565b500190565b6000828210156143e5576143e5614279565b500390565b60208082526027908201527f796f7520646f206e6f7420686176652074686174206d616e7920646566656e736040820152666520636f696e7360c81b606082015260800190565b60006020828403121561444357600080fd5b5051919050565b60006020828403121561445c57600080fd5b8151612980816140d4565b600060001982141561447b5761447b614279565b5060010190565b60208082526031908201527f4552433732313a207472616e736665722063616c6c6572206973206e6f74206f6040820152701ddb995c881b9bdc88185c1c1c9bdd9959607a1b606082015260800190565b6000826144e2576144e26142ae565b500690565b6020808252818101527f4f776e61626c653a2063616c6c6572206973206e6f7420746865206f776e6572604082015260600190565b6000835161452e818460208801613ef7565b835190830190614542818360208801613ef7565b01949350505050565b60208082526032908201527f4552433732313a207472616e7366657220746f206e6f6e20455243373231526560408201527131b2b4bb32b91034b6b83632b6b2b73a32b960711b606082015260800190565b600060ff821660ff84168060ff038211156145ba576145ba614279565b019392505050565b6001600160a01b03858116825284166020820152604081018390526080606082018190526000906145f590830184613f23565b9695505050505050565b60006020828403121561461157600080fd5b815161298081613eab56fe68747470733a2f2f7777772e6b696e67646f6d63727970746f2e636f6d2f7469746c65732fa2646970667358221220a6ea57e96eef5b0adebb50292ec5df1222b31884599a5ee76ef74b7b501e196c64736f6c63430008090033",
  "immutableReferences": {},
  "source": "pragma solidity ^0.8;\n\nimport \"./KingdomTitles.sol\";\n\ncontract KingdomGameMechanic is KingdomTitles {\n\n    uint private nowStore;\n    mapping (address => uint[3] ) internal payoutSoonByAddress; // where 0 = attackcoinamount, 1 = defensecoinamount, 2 = seedcoinamount\n\n    event Log(uint error);\n\n    constructor (KingdomSeedCoin _kgdsc, KingdomAttackCoin _kgdat, KingdomDefenseCoin _kgddf) KingdomTitles(_kgdsc, _kgdat, _kgddf) {\n        nowStore = block.timestamp;\n    }\n\n    event Attack(address attacker, address defender, \n                uint attacker_id, uint defender_id, \n                uint attackPointsBefore, uint defensePointsBefore,\n                uint deadAttackers, uint deadDefenders,\n                bool won);\n\n    event Sacked(address attacker, address defender, \n                uint new_attacker_id, uint new_defender_id);\n\n    modifier hasTitle {\n        require(balanceOf(msg.sender) > 0, \"to use this function you need a title! go buy one!\");\n        _;\n    }\n\n    modifier contractNeedsTotalControl {\n        require(isApprovedForAll(msg.sender, address(this)), \"you need to call setApprovalForAll in order to play a game...\");\n        _;\n    }\n\n    struct AttackResult {\n        bool won;\n        uint titleId;\n        uint bossid;\n        address bossid_address;\n        uint deadAttackers;\n        uint deadDefenders;\n        bool ready4Attack;\n        uint attacker_Attackpoints;\n        uint defender_Defensepoints;\n        uint attacker_attackMultiplier;\n        uint defender_defenseMultiplier;\n    }\n\n    function _random() private returns (uint) {\n        // random number between 0 and 99\n        uint random = uint( uint(keccak256(abi.encodePacked(block.difficulty, nowStore))) % 100);\n        nowStore = uint(nowStore + random);\n        return random;\n    }\n\n\n\n    function _getLeftChild(uint id) internal pure returns (uint left) {\n        return id * 2;\n    }\n\n    function _getRightChild(uint id) internal pure returns (uint right) {\n        return _getLeftChild(id) + 1;\n    }\n\n    function getServants(uint id) public view returns (uint left, uint right) {\n        uint currentPos = currentPosition();\n        require(id <= currentPos, \"id is not yet assigned\");\n\n        // binary tree\n        left = _getLeftChild(id);\n        right = _getRightChild(id);\n\n        // check if they even exist yet\n        \n        if (left > currentPos) {\n            left = 0;\n        }\n        if (right > currentPos) {\n            right = 0;\n        }\n        return (left, right);\n    }\n\n    function getBossRank(uint id) public view returns (uint bossrank) {\n        uint currentPos = currentPosition();\n        require(0 < id && id <= currentPos, \"id is not yet assigned\");\n\n        // first we have to understand that its a binary tree, and only member 2,3 can attack 1\n        // additionally we can only attack a rank, not the id. eg rank and id can be different.\n        // meaning rank 2 can only attack 1, rank 4 & 5 can only attac rank 2\n        uint servantRank = getRankOfId(id);\n        // meaning player can only attack his boss\n\n        // remember binary tree\n        if (servantRank == 1) {\n            bossrank = 0;\n        }\n        else {\n            if (id % 2 == 0) {\n                // if even\n                bossrank = servantRank / 2;\n            }\n            else {\n                // if odd\n                bossrank = (servantRank - 1) / 2;\n            }\n        }\n        return bossrank;\n    }\n\n    function getBossId(uint playerId) public view returns (uint bossId) {\n        uint bossRank = getBossRank(playerId);\n        bossId = getIdOfRank(bossRank);\n        return bossId;\n    }\n\n    function getTitleStats(uint titleId) public view returns (uint attackPoints, uint defensePoints, bool ready4attack, uint attackMultiplier, uint defenseMultiplier, uint moneyMultiplier) {\n        require(titleId <= currentPosition(), \"title id not yet assigned, go get one\");\n        attackPoints = kingdomtitles[titleId].attackPoints;\n        defensePoints = kingdomtitles[titleId].defensePoints;\n        ready4attack = kingdomtitles[titleId].readyTimeAttack >= block.timestamp;\n        attackMultiplier = kingdomtitles[titleId].attackMultiplier;\n        defenseMultiplier = kingdomtitles[titleId].defenseMultiplier;\n        moneyMultiplier = kingdomtitles[titleId].moneyMultiplier;\n        return (attackPoints, defensePoints, ready4attack, attackMultiplier, defenseMultiplier, moneyMultiplier);\n    }\n\n    function assignMilitaryToTitle(uint nrCoins, uint32 titleId, uint coinType) public {\n        require(_exists(titleId), \"title (token) nonexistent\");\n        require(nrCoins > 0, \"you need to assign at least 1 coin\");\n        // needs an approve first!\n\n        // first checks\n        // title needs to be owned by sender -> actually allow this for guilds etc\n        // require(ownerOf(titleId) == msg.sender, \"you can not assign Military P\")\n        // check if sender has that amount\n        require(coinType == 0 || coinType == 1, \"other coin types not supported yet, must be 0 or 1\");\n        if (coinType == 0) {\n            // attack points\n            require(kgdat.balanceOf(msg.sender) >= nrCoins, \"you do not have that many attack coins\");\n            kgdat.transferFrom(msg.sender, address(this), nrCoins);\n            kingdomtitles[titleId].attackPoints += nrCoins;\n        }\n        else if (coinType == 1) {\n            // def coins\n            require(kgddf.balanceOf(msg.sender) >= nrCoins, \"you do not have that many defense coins\");\n            kgddf.transferFrom(msg.sender, address(this), nrCoins);\n            kingdomtitles[titleId].defensePoints += nrCoins;\n        }\n        // every deposit resets the readyTimeStake to now plus Cooldown\n        kingdomtitles[titleId].readyTimeStake = block.timestamp + readyTimeStakeCooldown;\n    }\n\n    function _payMe() internal {\n        // pay me\n        uint attackPoints = payoutSoonByAddress[msg.sender][0];\n        uint defensePoints = payoutSoonByAddress[msg.sender][1];\n        uint seedCoins = payoutSoonByAddress[msg.sender][2];\n        if (attackPoints > 0) {\n            kgdat.transfer(msg.sender, attackPoints);\n        }\n        if (defensePoints > 0) {\n            kgddf.transfer(msg.sender, defensePoints);\n        }\n        if (seedCoins > 0) {\n            kgdsc.transfer(msg.sender, seedCoins);\n        }\n    }\n\n    function withdrawMilitaryFromTitle(uint nrCoins, uint32 titleId, uint8 coinType) public {\n        require(_exists(titleId), \"title (token) nonexistent\");\n        // make sure the title is owned by the sender\n        require(ownerOf(titleId) == msg.sender, \"you can not withdraw Military from a title that does not belong to you\");\n        // if nrCoins is zero, we will try to withdraw all\n        require(nrCoins >= 0, \"you need to withdraw a positive amount of coins\");\n        // needs an approve first!\n\n        require(coinType == 0 || coinType == 1, \"other coin types not supported yet, must be 0 or 1\");\n        if (coinType == 0) {\n            // attack points\n            require(kingdomtitles[titleId].attackPoints >= nrCoins, \"you do not have that many attack coins\");\n            // we can't run this classic transferFrom because it needs to be executed by the contract owner on a regular basis kgdat.transferFrom(address(this), msg.sender, nrCoins);\n            payoutSoonByAddress[msg.sender][0] += nrCoins; // attackcoins plus\n            kingdomtitles[titleId].attackPoints -= nrCoins;\n            _payMe();\n        }\n        else if (coinType == 1) {\n            // def coins\n            require(kingdomtitles[titleId].defensePoints >= nrCoins, \"you do not have that many defense coins\");\n            // we can't run this classic transferFrom because it needs to be executed by the contract owner on a regular basis kgdat.transferFrom(address(this), msg.sender, nrCoins);\n            payoutSoonByAddress[msg.sender][1] += nrCoins; // attackcoins plus\n            kingdomtitles[titleId].defensePoints -= nrCoins;\n            _payMe();\n        }\n    }\n\n    function _divide(uint numerator, uint denominator) private pure returns (uint quotient, uint remainder) {\n        quotient  = numerator / denominator;\n        remainder = numerator - denominator * quotient;\n        return (quotient, remainder);\n    }\n\n    function _handleSacking(AttackResult memory resy) internal {\n        kingdomtitles[resy.titleId].attackPoints -= resy.deadAttackers;\n        require(kingdomtitles[resy.titleId].attackPoints >= 0, \"uhoh, the attackpoints are zero...\");\n        kingdomtitles[resy.bossid].defensePoints -= resy.deadDefenders;\n        require(kingdomtitles[resy.bossid].defensePoints >= 0, \"uhoh, the defensepoints are zero...\");\n\n        // finally check if a title rank swap happens\n        // attackresults function\n        if (resy.won) {\n            // not the nft changes ownership, but actually the title rank\n            uint old_defenderrank_tmp = title2Rank[resy.bossid];\n            title2Rank[resy.bossid] = title2Rank[resy.titleId];\n            title2Rank[resy.titleId] = old_defenderrank_tmp;\n            \n            emit Sacked(msg.sender, resy.bossid_address, \n                    old_defenderrank_tmp, title2Rank[resy.titleId]);\n        }\n    }\n\n    function attackBoss(uint titleId) public hasTitle {\n        require(ownerOf(titleId) == msg.sender, \"sorry, only the owner of a title can attack his boss\");\n\n        // for memory reasons we need 2 do this\n        AttackResult memory resy = AttackResult(\n            false, titleId, getBossId(titleId), ownerOf(getBossId(titleId)), 0, 0, false, 0, 0, 0, 0);\n\n        require(resy.bossid_address != msg.sender, \"boy, don't attack yourself plz\");\n\n        (resy.attacker_Attackpoints, , resy.ready4Attack, resy.attacker_attackMultiplier, , ) = getTitleStats(titleId);\n        // temporary disabled for debugging\n        // require(resy.ready4Attack, \"your attack cooldown is not down yet. please try again after cooldown\");\n\n        ( , resy.defender_Defensepoints, , , resy.defender_defenseMultiplier, ) = getTitleStats(resy.bossid);\n\n        uint tmp_game_defender_Defensepoints = (resy.defender_Defensepoints * 15 * resy.defender_defenseMultiplier) / 10; // counts 1.5\n\n        uint tmp_attacker_Attackpoints = resy.attacker_Attackpoints * resy.attacker_attackMultiplier;\n\n        // make it so that more than double attack points is a sure win\n        uint randy = _random();\n        (uint quotient, uint remainder) = _divide(tmp_attacker_Attackpoints, tmp_game_defender_Defensepoints); // double would be 20\n\n        if (quotient > 3) {\n            // no discussion needed\n            resy.deadDefenders = resy.defender_Defensepoints;\n            resy.deadAttackers = 0;\n            resy.won = true;\n        }\n        else if (quotient > 2) {\n            // more than double the attackers\n            resy.deadDefenders = resy.defender_Defensepoints;\n            resy.won = true;\n            // some attackers dead except rare case\n            resy.deadAttackers = uint(resy.attacker_Attackpoints / 10);\n            if (randy > 90) {\n                // in a rare case not all defenders die, some can flee\n                resy.deadDefenders = uint(resy.defender_Defensepoints / 2);\n            }\n        }\n        else if (quotient > 1 && remainder > 5) {\n            resy.won = true;\n            resy.deadDefenders = uint(resy.defender_Defensepoints / 2);\n            resy.deadAttackers = uint(resy.attacker_Attackpoints / 2);\n        }\n        else {\n            // tmp\n            resy.won = false;\n            resy.deadDefenders = randy;\n            resy.deadAttackers = randy;\n        }\n        // emit that event\n        emit Attack(msg.sender, resy.bossid_address, \n                titleId, resy.bossid, \n                resy.attacker_Attackpoints, resy.defender_Defensepoints,\n                resy.deadAttackers, resy.deadDefenders,\n                resy.won);\n\n        _handleSacking(resy);\n        \n    }\n}",
  "sourcePath": "/home/jguese/code/solidity-kingdom-game/contracts/KingdomGameMechanic.sol",
  "compiler": {
    "name": "solc",
    "version": "0.8.9+commit.e5eed63a.Emscripten.clang"
  },
  "schemaVersion": "3.4.3",
  "updatedAt": "2021-11-25T09:05:04.246Z",
  "networkType": "ethereum",
  "devdoc": {
    "kind": "dev",
    "methods": {
      "approve(address,uint256)": {
        "details": "See {IERC721-approve}."
      },
      "balanceOf(address)": {
        "details": "See {IERC721-balanceOf}."
      },
      "getApproved(uint256)": {
        "details": "See {IERC721-getApproved}."
      },
      "isApprovedForAll(address,address)": {
        "details": "See {IERC721-isApprovedForAll}."
      },
      "name()": {
        "details": "See {IERC721Metadata-name}."
      },
      "owner()": {
        "details": "Returns the address of the current owner."
      },
      "ownerOf(uint256)": {
        "details": "See {IERC721-ownerOf}."
      },
      "renounceOwnership()": {
        "details": "Leaves the contract without owner. It will not be possible to call `onlyOwner` functions anymore. Can only be called by the current owner. NOTE: Renouncing ownership will leave the contract without an owner, thereby removing any functionality that is only available to the owner."
      },
      "safeTransferFrom(address,address,uint256)": {
        "details": "See {IERC721-safeTransferFrom}."
      },
      "safeTransferFrom(address,address,uint256,bytes)": {
        "details": "See {IERC721-safeTransferFrom}."
      },
      "setApprovalForAll(address,bool)": {
        "details": "See {IERC721-setApprovalForAll}."
      },
      "supportsInterface(bytes4)": {
        "details": "See {IERC165-supportsInterface}."
      },
      "symbol()": {
        "details": "See {IERC721Metadata-symbol}."
      },
      "tokenURI(uint256)": {
        "details": "See {IERC721Metadata-tokenURI}."
      },
      "transferFrom(address,address,uint256)": {
        "details": "See {IERC721-transferFrom}."
      },
      "transferOwnership(address)": {
        "details": "Transfers ownership of the contract to a new account (`newOwner`). Can only be called by the current owner."
      }
    },
    "version": 1
  },
  "userdoc": {
    "kind": "user",
    "methods": {},
    "version": 1
  }
}