{
  "contractName": "KingdomTitle",
  "abi": [
    {
      "inputs": [
        {
          "internalType": "contract KingdomSeedCoin",
          "name": "kgdsc",
          "type": "address"
        },
        {
          "internalType": "contract KingdomAttackCoin",
          "name": "kgdat",
          "type": "address"
        },
        {
          "internalType": "contract KingdomDefenseCoin",
          "name": "kgddf",
          "type": "address"
        }
      ],
      "stateMutability": "nonpayable",
      "type": "constructor"
    },
    {
      "anonymous": false,
      "inputs": [
        {
          "indexed": true,
          "internalType": "address",
          "name": "owner",
          "type": "address"
        },
        {
          "indexed": true,
          "internalType": "address",
          "name": "approved",
          "type": "address"
        },
        {
          "indexed": true,
          "internalType": "uint256",
          "name": "tokenId",
          "type": "uint256"
        }
      ],
      "name": "Approval",
      "type": "event"
    },
    {
      "anonymous": false,
      "inputs": [
        {
          "indexed": true,
          "internalType": "address",
          "name": "owner",
          "type": "address"
        },
        {
          "indexed": true,
          "internalType": "address",
          "name": "operator",
          "type": "address"
        },
        {
          "indexed": false,
          "internalType": "bool",
          "name": "approved",
          "type": "bool"
        }
      ],
      "name": "ApprovalForAll",
      "type": "event"
    },
    {
      "anonymous": false,
      "inputs": [
        {
          "indexed": true,
          "internalType": "address",
          "name": "_to",
          "type": "address"
        },
        {
          "indexed": false,
          "internalType": "uint256",
          "name": "_amount",
          "type": "uint256"
        }
      ],
      "name": "HarvestAttackPoints",
      "type": "event"
    },
    {
      "anonymous": false,
      "inputs": [
        {
          "indexed": true,
          "internalType": "address",
          "name": "_to",
          "type": "address"
        },
        {
          "indexed": false,
          "internalType": "uint256",
          "name": "_amount",
          "type": "uint256"
        }
      ],
      "name": "HarvestDefensePoints",
      "type": "event"
    },
    {
      "anonymous": false,
      "inputs": [
        {
          "indexed": true,
          "internalType": "address",
          "name": "_to",
          "type": "address"
        },
        {
          "indexed": false,
          "internalType": "uint256",
          "name": "_amount",
          "type": "uint256"
        },
        {
          "indexed": false,
          "internalType": "uint256",
          "name": "_beforeBurn",
          "type": "uint256"
        }
      ],
      "name": "HarvestRemainingSeedCoins",
      "type": "event"
    },
    {
      "anonymous": false,
      "inputs": [
        {
          "indexed": true,
          "internalType": "address",
          "name": "from",
          "type": "address"
        },
        {
          "indexed": true,
          "internalType": "address",
          "name": "to",
          "type": "address"
        },
        {
          "indexed": true,
          "internalType": "uint256",
          "name": "tokenId",
          "type": "uint256"
        }
      ],
      "name": "Transfer",
      "type": "event"
    },
    {
      "inputs": [
        {
          "internalType": "address",
          "name": "to",
          "type": "address"
        },
        {
          "internalType": "uint256",
          "name": "tokenId",
          "type": "uint256"
        }
      ],
      "name": "approve",
      "outputs": [],
      "stateMutability": "nonpayable",
      "type": "function"
    },
    {
      "inputs": [
        {
          "internalType": "address",
          "name": "owner",
          "type": "address"
        }
      ],
      "name": "balanceOf",
      "outputs": [
        {
          "internalType": "uint256",
          "name": "",
          "type": "uint256"
        }
      ],
      "stateMutability": "view",
      "type": "function"
    },
    {
      "inputs": [],
      "name": "baseUrl",
      "outputs": [
        {
          "internalType": "string",
          "name": "",
          "type": "string"
        }
      ],
      "stateMutability": "view",
      "type": "function"
    },
    {
      "inputs": [],
      "name": "buyForETH",
      "outputs": [],
      "stateMutability": "payable",
      "type": "function"
    },
    {
      "inputs": [],
      "name": "exchangeRate",
      "outputs": [
        {
          "internalType": "uint8",
          "name": "",
          "type": "uint8"
        }
      ],
      "stateMutability": "view",
      "type": "function"
    },
    {
      "inputs": [],
      "name": "exchangeRate_Attackpoints",
      "outputs": [
        {
          "internalType": "uint8",
          "name": "",
          "type": "uint8"
        }
      ],
      "stateMutability": "view",
      "type": "function"
    },
    {
      "inputs": [],
      "name": "exchangeRate_Burnpct",
      "outputs": [
        {
          "internalType": "uint8",
          "name": "",
          "type": "uint8"
        }
      ],
      "stateMutability": "view",
      "type": "function"
    },
    {
      "inputs": [],
      "name": "exchangeRate_Defensepoints",
      "outputs": [
        {
          "internalType": "uint8",
          "name": "",
          "type": "uint8"
        }
      ],
      "stateMutability": "view",
      "type": "function"
    },
    {
      "inputs": [
        {
          "internalType": "uint256",
          "name": "tokenId",
          "type": "uint256"
        }
      ],
      "name": "getApproved",
      "outputs": [
        {
          "internalType": "address",
          "name": "",
          "type": "address"
        }
      ],
      "stateMutability": "view",
      "type": "function"
    },
    {
      "inputs": [],
      "name": "getCurrentStakes",
      "outputs": [
        {
          "internalType": "uint256[2]",
          "name": "balances",
          "type": "uint256[2]"
        }
      ],
      "stateMutability": "view",
      "type": "function"
    },
    {
      "inputs": [],
      "name": "harvestAll",
      "outputs": [],
      "stateMutability": "nonpayable",
      "type": "function"
    },
    {
      "inputs": [
        {
          "internalType": "address",
          "name": "owner",
          "type": "address"
        },
        {
          "internalType": "address",
          "name": "operator",
          "type": "address"
        }
      ],
      "name": "isApprovedForAll",
      "outputs": [
        {
          "internalType": "bool",
          "name": "",
          "type": "bool"
        }
      ],
      "stateMutability": "view",
      "type": "function"
    },
    {
      "inputs": [],
      "name": "justSendETH",
      "outputs": [
        {
          "internalType": "uint256",
          "name": "",
          "type": "uint256"
        }
      ],
      "stateMutability": "payable",
      "type": "function"
    },
    {
      "inputs": [],
      "name": "kgdat",
      "outputs": [
        {
          "internalType": "contract KingdomAttackCoin",
          "name": "",
          "type": "address"
        }
      ],
      "stateMutability": "view",
      "type": "function"
    },
    {
      "inputs": [],
      "name": "kgddf",
      "outputs": [
        {
          "internalType": "contract KingdomDefenseCoin",
          "name": "",
          "type": "address"
        }
      ],
      "stateMutability": "view",
      "type": "function"
    },
    {
      "inputs": [],
      "name": "kgdsc",
      "outputs": [
        {
          "internalType": "contract KingdomSeedCoin",
          "name": "",
          "type": "address"
        }
      ],
      "stateMutability": "view",
      "type": "function"
    },
    {
      "inputs": [],
      "name": "name",
      "outputs": [
        {
          "internalType": "string",
          "name": "",
          "type": "string"
        }
      ],
      "stateMutability": "view",
      "type": "function"
    },
    {
      "inputs": [
        {
          "internalType": "uint256",
          "name": "tokenId",
          "type": "uint256"
        }
      ],
      "name": "ownerOf",
      "outputs": [
        {
          "internalType": "address",
          "name": "",
          "type": "address"
        }
      ],
      "stateMutability": "view",
      "type": "function"
    },
    {
      "inputs": [
        {
          "internalType": "uint256",
          "name": "nrSeedCoins",
          "type": "uint256"
        },
        {
          "internalType": "uint8",
          "name": "targetCoin",
          "type": "uint8"
        }
      ],
      "name": "plantSeeds",
      "outputs": [],
      "stateMutability": "nonpayable",
      "type": "function"
    },
    {
      "inputs": [
        {
          "internalType": "address",
          "name": "from",
          "type": "address"
        },
        {
          "internalType": "address",
          "name": "to",
          "type": "address"
        },
        {
          "internalType": "uint256",
          "name": "tokenId",
          "type": "uint256"
        }
      ],
      "name": "safeTransferFrom",
      "outputs": [],
      "stateMutability": "nonpayable",
      "type": "function"
    },
    {
      "inputs": [
        {
          "internalType": "address",
          "name": "from",
          "type": "address"
        },
        {
          "internalType": "address",
          "name": "to",
          "type": "address"
        },
        {
          "internalType": "uint256",
          "name": "tokenId",
          "type": "uint256"
        },
        {
          "internalType": "bytes",
          "name": "_data",
          "type": "bytes"
        }
      ],
      "name": "safeTransferFrom",
      "outputs": [],
      "stateMutability": "nonpayable",
      "type": "function"
    },
    {
      "inputs": [
        {
          "internalType": "address",
          "name": "operator",
          "type": "address"
        },
        {
          "internalType": "bool",
          "name": "approved",
          "type": "bool"
        }
      ],
      "name": "setApprovalForAll",
      "outputs": [],
      "stateMutability": "nonpayable",
      "type": "function"
    },
    {
      "inputs": [],
      "name": "stakingPeriod",
      "outputs": [
        {
          "internalType": "uint256",
          "name": "",
          "type": "uint256"
        }
      ],
      "stateMutability": "view",
      "type": "function"
    },
    {
      "inputs": [
        {
          "internalType": "bytes4",
          "name": "interfaceId",
          "type": "bytes4"
        }
      ],
      "name": "supportsInterface",
      "outputs": [
        {
          "internalType": "bool",
          "name": "",
          "type": "bool"
        }
      ],
      "stateMutability": "view",
      "type": "function"
    },
    {
      "inputs": [],
      "name": "symbol",
      "outputs": [
        {
          "internalType": "string",
          "name": "",
          "type": "string"
        }
      ],
      "stateMutability": "view",
      "type": "function"
    },
    {
      "inputs": [
        {
          "internalType": "uint256",
          "name": "tokenId",
          "type": "uint256"
        }
      ],
      "name": "tokenURI",
      "outputs": [
        {
          "internalType": "string",
          "name": "",
          "type": "string"
        }
      ],
      "stateMutability": "view",
      "type": "function"
    },
    {
      "inputs": [],
      "name": "totalSupply",
      "outputs": [
        {
          "internalType": "uint16",
          "name": "",
          "type": "uint16"
        }
      ],
      "stateMutability": "view",
      "type": "function"
    },
    {
      "inputs": [
        {
          "internalType": "address",
          "name": "from",
          "type": "address"
        },
        {
          "internalType": "address",
          "name": "to",
          "type": "address"
        },
        {
          "internalType": "uint256",
          "name": "tokenId",
          "type": "uint256"
        }
      ],
      "name": "transferFrom",
      "outputs": [],
      "stateMutability": "nonpayable",
      "type": "function"
    },
    {
      "inputs": [
        {
          "internalType": "address",
          "name": "player",
          "type": "address"
        }
      ],
      "name": "awardItem",
      "outputs": [
        {
          "internalType": "uint256",
          "name": "",
          "type": "uint256"
        }
      ],
      "stateMutability": "nonpayable",
      "type": "function"
    },
    {
      "inputs": [
        {
          "internalType": "uint256",
          "name": "_tokenId",
          "type": "uint256"
        }
      ],
      "name": "tokenMetadata",
      "outputs": [
        {
          "internalType": "string",
          "name": "infoUrl",
          "type": "string"
        }
      ],
      "stateMutability": "view",
      "type": "function"
    }
  ],
  "bytecode": "0x60806040526064600660006101000a81548160ff021916908360ff160217905550600a600660016101000a81548160ff021916908360ff1602179055506008600660026101000a81548160ff021916908360ff160217905550600a600660036101000a81548160ff021916908360ff160217905550603c600755612710600e60006101000a81548161ffff021916908361ffff16021790555060405180606001604052806025815260200162004ab460259139600f9080519060200190620000c9929190620002c7565b50348015620000d757600080fd5b5060405162004ad938038062004ad98339818101604052810190620000fd91906200047f565b8282826040518060400160405280600c81526020017f4b696e67646f6d5469746c6500000000000000000000000000000000000000008152506040518060400160405280600381526020017f4b47440000000000000000000000000000000000000000000000000000000000815250816000908051906020019062000184929190620002c7565b5080600190805190602001906200019d929190620002c7565b50505082600860006101000a81548173ffffffffffffffffffffffffffffffffffffffff021916908373ffffffffffffffffffffffffffffffffffffffff16021790555081600960006101000a81548173ffffffffffffffffffffffffffffffffffffffff021916908373ffffffffffffffffffffffffffffffffffffffff16021790555080600a60006101000a81548173ffffffffffffffffffffffffffffffffffffffff021916908373ffffffffffffffffffffffffffffffffffffffff16021790555050505062000276620002bf60201b60201c565b600c60006101000a81548173ffffffffffffffffffffffffffffffffffffffff021916908373ffffffffffffffffffffffffffffffffffffffff16021790555050505062000540565b600033905090565b828054620002d5906200050a565b90600052602060002090601f016020900481019282620002f9576000855562000345565b82601f106200031457805160ff191683800117855562000345565b8280016001018555821562000345579182015b828111156200034457825182559160200191906001019062000327565b5b50905062000354919062000358565b5090565b5b808211156200037357600081600090555060010162000359565b5090565b600080fd5b600073ffffffffffffffffffffffffffffffffffffffff82169050919050565b6000620003a9826200037c565b9050919050565b6000620003bd826200039c565b9050919050565b620003cf81620003b0565b8114620003db57600080fd5b50565b600081519050620003ef81620003c4565b92915050565b600062000402826200039c565b9050919050565b6200041481620003f5565b81146200042057600080fd5b50565b600081519050620004348162000409565b92915050565b600062000447826200039c565b9050919050565b62000459816200043a565b81146200046557600080fd5b50565b60008151905062000479816200044e565b92915050565b6000806000606084860312156200049b576200049a62000377565b5b6000620004ab86828701620003de565b9350506020620004be8682870162000423565b9250506040620004d18682870162000468565b9150509250925092565b7f4e487b7100000000000000000000000000000000000000000000000000000000600052602260045260246000fd5b600060028204905060018216806200052357607f821691505b602082108114156200053a5762000539620004db565b5b50919050565b61456480620005506000396000f3fe6080604052600436106101cd5760003560e01c806370a08231116100f7578063c03d5b4711610095578063e046670b11610064578063e046670b1461065b578063e985e9c514610679578063f2fb2120146106b6578063fa4facdb146106f3576101cd565b8063c03d5b471461059d578063c669b710146105c8578063c87b56dd146105f3578063d4637ddb14610630576101cd565b8063900294be116100d1578063900294be146104f557806395d89b4114610520578063a22cb4651461054b578063b88d4fde14610574576101cd565b806370a08231146104765780637c62539a146104b35780638ed955b9146104de576101cd565b80633ba0b9a91161016f5780635bcabf041161013e5780635bcabf04146103a65780636352211e146103d15780636914db601461040e5780636a7a2fa31461044b576101cd565b80633ba0b9a9146102fe578063411ee0d01461032957806342842e0e14610354578063429c3edf1461037d576101cd565b8063095ea7b3116101ab578063095ea7b31461027757806310f7e4ed146102a057806318160ddd146102aa57806323b872dd146102d5576101cd565b806301ffc9a7146101d257806306fdde031461020f578063081812fc1461023a575b600080fd5b3480156101de57600080fd5b506101f960048036038101906101f49190612cb8565b61071e565b6040516102069190612d00565b60405180910390f35b34801561021b57600080fd5b50610224610800565b6040516102319190612db4565b60405180910390f35b34801561024657600080fd5b50610261600480360381019061025c9190612e0c565b610892565b60405161026e9190612e7a565b60405180910390f35b34801561028357600080fd5b5061029e60048036038101906102999190612ec1565b610917565b005b6102a8610a2f565b005b3480156102b657600080fd5b506102bf610ceb565b6040516102cc9190612f1e565b60405180910390f35b3480156102e157600080fd5b506102fc60048036038101906102f79190612f39565b610cff565b005b34801561030a57600080fd5b50610313610d5f565b6040516103209190612fa8565b60405180910390f35b34801561033557600080fd5b5061033e610d72565b60405161034b9190613022565b60405180910390f35b34801561036057600080fd5b5061037b60048036038101906103769190612f39565b610d98565b005b34801561038957600080fd5b506103a4600480360381019061039f9190613069565b610db8565b005b3480156103b257600080fd5b506103bb6111f9565b6040516103c89190612db4565b60405180910390f35b3480156103dd57600080fd5b506103f860048036038101906103f39190612e0c565b611287565b6040516104059190612e7a565b60405180910390f35b34801561041a57600080fd5b5061043560048036038101906104309190612e0c565b611339565b6040516104429190612db4565b60405180910390f35b34801561045757600080fd5b5061046061136d565b60405161046d9190612fa8565b60405180910390f35b34801561048257600080fd5b5061049d600480360381019061049891906130a9565b611380565b6040516104aa91906130e5565b60405180910390f35b3480156104bf57600080fd5b506104c8611438565b6040516104d59190613121565b60405180910390f35b3480156104ea57600080fd5b506104f361145e565b005b34801561050157600080fd5b5061050a61187f565b604051610517919061315d565b60405180910390f35b34801561052c57600080fd5b506105356118a5565b6040516105429190612db4565b60405180910390f35b34801561055757600080fd5b50610572600480360381019061056d91906131a4565b611937565b005b34801561058057600080fd5b5061059b60048036038101906105969190613319565b611ab8565b005b3480156105a957600080fd5b506105b2611b1a565b6040516105bf91906130e5565b60405180910390f35b3480156105d457600080fd5b506105dd611b20565b6040516105ea9190612fa8565b60405180910390f35b3480156105ff57600080fd5b5061061a60048036038101906106159190612e0c565b611b33565b6040516106279190612db4565b60405180910390f35b34801561063c57600080fd5b50610645611bda565b6040516106529190612fa8565b60405180910390f35b610663611bed565b60405161067091906130e5565b60405180910390f35b34801561068557600080fd5b506106a0600480360381019061069b919061339c565b611bf5565b6040516106ad9190612d00565b60405180910390f35b3480156106c257600080fd5b506106dd60048036038101906106d891906130a9565b611c89565b6040516106ea91906130e5565b60405180910390f35b3480156106ff57600080fd5b50610708611da5565b6040516107159190613487565b60405180910390f35b60007f80ac58cd000000000000000000000000000000000000000000000000000000007bffffffffffffffffffffffffffffffffffffffffffffffffffffffff1916827bffffffffffffffffffffffffffffffffffffffffffffffffffffffff191614806107e957507f5b5e139f000000000000000000000000000000000000000000000000000000007bffffffffffffffffffffffffffffffffffffffffffffffffffffffff1916827bffffffffffffffffffffffffffffffffffffffffffffffffffffffff1916145b806107f957506107f882611f1e565b5b9050919050565b60606000805461080f906134d1565b80601f016020809104026020016040519081016040528092919081815260200182805461083b906134d1565b80156108885780601f1061085d57610100808354040283529160200191610888565b820191906000526020600020905b81548152906001019060200180831161086b57829003601f168201915b5050505050905090565b600061089d82611f88565b6108dc576040517f08c379a00000000000000000000000000000000000000000000000000000000081526004016108d390613575565b60405180910390fd5b6004600083815260200190815260200160002060009054906101000a900473ffffffffffffffffffffffffffffffffffffffff169050919050565b600061092282611287565b90508073ffffffffffffffffffffffffffffffffffffffff168373ffffffffffffffffffffffffffffffffffffffff161415610993576040517f08c379a000000000000000000000000000000000000000000000000000000000815260040161098a90613607565b60405180910390fd5b8073ffffffffffffffffffffffffffffffffffffffff166109b2611ff4565b73ffffffffffffffffffffffffffffffffffffffff1614806109e157506109e0816109db611ff4565b611bf5565b5b610a20576040517f08c379a0000000000000000000000000000000000000000000000000000000008152600401610a1790613699565b60405180910390fd5b610a2a8383611ffc565b505050565b6000600860009054906101000a900473ffffffffffffffffffffffffffffffffffffffff1673ffffffffffffffffffffffffffffffffffffffff166370a08231306040518263ffffffff1660e01b8152600401610a8c9190612e7a565b60206040518083038186803b158015610aa457600080fd5b505afa158015610ab8573d6000803e3d6000fd5b505050506040513d601f19601f82011682018060405250810190610adc91906136ce565b11610ae657600080fd5b60003411610b29576040517f08c379a0000000000000000000000000000000000000000000000000000000008152600401610b209061376d565b60405180910390fd5b6000600860009054906101000a900473ffffffffffffffffffffffffffffffffffffffff1673ffffffffffffffffffffffffffffffffffffffff166370a08231306040518263ffffffff1660e01b8152600401610b869190612e7a565b60206040518083038186803b158015610b9e57600080fd5b505afa158015610bb2573d6000803e3d6000fd5b505050506040513d601f19601f82011682018060405250810190610bd691906136ce565b11610c16576040517f08c379a0000000000000000000000000000000000000000000000000000000008152600401610c0d906137ff565b60405180910390fd5b6000600660009054906101000a900460ff1660ff1634610c36919061384e565b9050600860009054906101000a900473ffffffffffffffffffffffffffffffffffffffff1673ffffffffffffffffffffffffffffffffffffffff1663a9059cbb33836040518363ffffffff1660e01b8152600401610c959291906138a8565b602060405180830381600087803b158015610caf57600080fd5b505af1158015610cc3573d6000803e3d6000fd5b505050506040513d601f19601f82011682018060405250810190610ce791906138e6565b5050565b600e60009054906101000a900461ffff1681565b610d10610d0a611ff4565b826120b5565b610d4f576040517f08c379a0000000000000000000000000000000000000000000000000000000008152600401610d4690613985565b60405180910390fd5b610d5a838383612193565b505050565b600660009054906101000a900460ff1681565b600a60009054906101000a900473ffffffffffffffffffffffffffffffffffffffff1681565b610db383838360405180602001604052806000815250611ab8565b505050565b6000600960009054906101000a900473ffffffffffffffffffffffffffffffffffffffff1673ffffffffffffffffffffffffffffffffffffffff166370a08231306040518263ffffffff1660e01b8152600401610e159190612e7a565b60206040518083038186803b158015610e2d57600080fd5b505afa158015610e41573d6000803e3d6000fd5b505050506040513d601f19601f82011682018060405250810190610e6591906136ce565b11610e6f57600080fd5b6000600a60009054906101000a900473ffffffffffffffffffffffffffffffffffffffff1673ffffffffffffffffffffffffffffffffffffffff166370a08231306040518263ffffffff1660e01b8152600401610ecc9190612e7a565b60206040518083038186803b158015610ee457600080fd5b505afa158015610ef8573d6000803e3d6000fd5b505050506040513d601f19601f82011682018060405250810190610f1c91906136ce565b11610f2657600080fd5b6000600860009054906101000a900473ffffffffffffffffffffffffffffffffffffffff1673ffffffffffffffffffffffffffffffffffffffff166370a08231336040518263ffffffff1660e01b8152600401610f839190612e7a565b60206040518083038186803b158015610f9b57600080fd5b505afa158015610faf573d6000803e3d6000fd5b505050506040513d601f19601f82011682018060405250810190610fd391906136ce565b9050828110158015610fe55750600083115b611024576040517f08c379a000000000000000000000000000000000000000000000000000000000815260040161101b90613a17565b60405180910390fd5b60008260ff161480611039575060018260ff16145b611078576040517f08c379a000000000000000000000000000000000000000000000000000000000815260040161106f90613aa9565b60405180910390fd5b600860009054906101000a900473ffffffffffffffffffffffffffffffffffffffff1673ffffffffffffffffffffffffffffffffffffffff166323b872dd3330866040518463ffffffff1660e01b81526004016110d793929190613ac9565b602060405180830381600087803b1580156110f157600080fd5b505af1158015611105573d6000803e3d6000fd5b505050506040513d601f19601f8201168201806040525081019061112991906138e6565b50600b60003373ffffffffffffffffffffffffffffffffffffffff1673ffffffffffffffffffffffffffffffffffffffff16815260200190815260200160002060405180606001604052808581526020018460ff168152602001600754426111919190613b00565b81525090806001815401808255809150506001900390600052602060002090600302016000909190919091506000820151816000015560208201518160010160006101000a81548160ff021916908360ff160217905550604082015181600201555050505050565b600f8054611206906134d1565b80601f0160208091040260200160405190810160405280929190818152602001828054611232906134d1565b801561127f5780601f106112545761010080835404028352916020019161127f565b820191906000526020600020905b81548152906001019060200180831161126257829003601f168201915b505050505081565b6000806002600084815260200190815260200160002060009054906101000a900473ffffffffffffffffffffffffffffffffffffffff169050600073ffffffffffffffffffffffffffffffffffffffff168173ffffffffffffffffffffffffffffffffffffffff161415611330576040517f08c379a000000000000000000000000000000000000000000000000000000000815260040161132790613bc8565b60405180910390fd5b80915050919050565b6060600f611346836123ef565b604051602001611357929190613cb8565b6040516020818303038152906040529050919050565b600660039054906101000a900460ff1681565b60008073ffffffffffffffffffffffffffffffffffffffff168273ffffffffffffffffffffffffffffffffffffffff1614156113f1576040517f08c379a00000000000000000000000000000000000000000000000000000000081526004016113e890613d4e565b60405180910390fd5b600360008373ffffffffffffffffffffffffffffffffffffffff1673ffffffffffffffffffffffffffffffffffffffff168152602001908152602001600020549050919050565b600960009054906101000a900473ffffffffffffffffffffffffffffffffffffffff1681565b60005b600b60003373ffffffffffffffffffffffffffffffffffffffff1673ffffffffffffffffffffffffffffffffffffffff1681526020019081526020016000208054905081101561187c576000600b60003373ffffffffffffffffffffffffffffffffffffffff1673ffffffffffffffffffffffffffffffffffffffff16815260200190815260200160002082815481106114fe576114fd613d6e565b5b9060005260206000209060030201604051806060016040529081600082015481526020016001820160009054906101000a900460ff1660ff1660ff16815260200160028201548152505090504281604001511015611868576000816020015160ff16141561169d576000600660019054906101000a900460ff1660ff16826000015161158a9190613dcc565b90506115998260000151612578565b600960009054906101000a900473ffffffffffffffffffffffffffffffffffffffff1673ffffffffffffffffffffffffffffffffffffffff1663a9059cbb33836040518363ffffffff1660e01b81526004016115f69291906138a8565b602060405180830381600087803b15801561161057600080fd5b505af1158015611624573d6000803e3d6000fd5b505050506040513d601f19601f8201168201806040525081019061164891906138e6565b503373ffffffffffffffffffffffffffffffffffffffff167f9fd4a9248425079a398923cd20daa8e0c103907fb89db4707cb4f2cc343f95468260405161168f91906130e5565b60405180910390a2506117e1565b6001816020015160ff1614156117e0576000600660029054906101000a900460ff1660ff1682600001516116d19190613dcc565b90506116e08260000151612578565b600a60009054906101000a900473ffffffffffffffffffffffffffffffffffffffff1673ffffffffffffffffffffffffffffffffffffffff1663a9059cbb33836040518363ffffffff1660e01b815260040161173d9291906138a8565b602060405180830381600087803b15801561175757600080fd5b505af115801561176b573d6000803e3d6000fd5b505050506040513d601f19601f8201168201806040525081019061178f91906138e6565b503373ffffffffffffffffffffffffffffffffffffffff167fd62aeb2df4f1c7a0c59e15c0dca22ccbcbe42ad0d0dbf99a22c0ad2551c5a155826040516117d691906130e5565b60405180910390a2505b5b600b60003373ffffffffffffffffffffffffffffffffffffffff1673ffffffffffffffffffffffffffffffffffffffff168152602001908152602001600020828154811061183257611831613d6e565b5b90600052602060002090600302016000808201600090556001820160006101000a81549060ff0219169055600282016000905550505b50808061187490613dfd565b915050611461565b50565b600860009054906101000a900473ffffffffffffffffffffffffffffffffffffffff1681565b6060600180546118b4906134d1565b80601f01602080910402602001604051908101604052809291908181526020018280546118e0906134d1565b801561192d5780601f106119025761010080835404028352916020019161192d565b820191906000526020600020905b81548152906001019060200180831161191057829003601f168201915b5050505050905090565b61193f611ff4565b73ffffffffffffffffffffffffffffffffffffffff168273ffffffffffffffffffffffffffffffffffffffff1614156119ad576040517f08c379a00000000000000000000000000000000000000000000000000000000081526004016119a490613e92565b60405180910390fd5b80600560006119ba611ff4565b73ffffffffffffffffffffffffffffffffffffffff1673ffffffffffffffffffffffffffffffffffffffff16815260200190815260200160002060008473ffffffffffffffffffffffffffffffffffffffff1673ffffffffffffffffffffffffffffffffffffffff16815260200190815260200160002060006101000a81548160ff0219169083151502179055508173ffffffffffffffffffffffffffffffffffffffff16611a67611ff4565b73ffffffffffffffffffffffffffffffffffffffff167f17307eab39ab6107e8899845ad3d59bd9653f200f220920489ca2b5937696c3183604051611aac9190612d00565b60405180910390a35050565b611ac9611ac3611ff4565b836120b5565b611b08576040517f08c379a0000000000000000000000000000000000000000000000000000000008152600401611aff90613985565b60405180910390fd5b611b14848484846126b5565b50505050565b60075481565b600660019054906101000a900460ff1681565b6060611b3e82611f88565b611b7d576040517f08c379a0000000000000000000000000000000000000000000000000000000008152600401611b7490613f24565b60405180910390fd5b6000611b87612711565b90506000815111611ba75760405180602001604052806000815250611bd2565b80611bb184612728565b604051602001611bc2929190613f44565b6040516020818303038152906040525b915050919050565b600660029054906101000a900460ff1681565b600047905090565b6000600560008473ffffffffffffffffffffffffffffffffffffffff1673ffffffffffffffffffffffffffffffffffffffff16815260200190815260200160002060008373ffffffffffffffffffffffffffffffffffffffff1673ffffffffffffffffffffffffffffffffffffffff16815260200190815260200160002060009054906101000a900460ff16905092915050565b60003373ffffffffffffffffffffffffffffffffffffffff16600c60009054906101000a900473ffffffffffffffffffffffffffffffffffffffff1673ffffffffffffffffffffffffffffffffffffffff1614611d1b576040517f08c379a0000000000000000000000000000000000000000000000000000000008152600401611d1290613fb4565b60405180910390fd5b600e60009054906101000a900461ffff1661ffff16611d3a600d612889565b10611d7a576040517f08c379a0000000000000000000000000000000000000000000000000000000008152600401611d7190614046565b60405180910390fd5b611d84600d612897565b6000611d90600d612889565b9050611d9c83826128ad565b80915050919050565b611dad612c2a565b60008060005b600b60003373ffffffffffffffffffffffffffffffffffffffff1673ffffffffffffffffffffffffffffffffffffffff16815260200190815260200160002080549050811015611efb576000600b60003373ffffffffffffffffffffffffffffffffffffffff1673ffffffffffffffffffffffffffffffffffffffff1681526020019081526020016000208281548110611e5057611e4f613d6e565b5b9060005260206000209060030201604051806060016040529081600082015481526020016001820160009054906101000a900460ff1660ff1660ff16815260200160028201548152505090506000816020015160ff161415611ec357806000015184611ebc9190613b00565b9350611ee7565b6001816020015160ff161415611ee657806000015183611ee39190613b00565b92505b5b508080611ef390613dfd565b915050611db3565b506000604051806040016040528084815260200183815250905080935050505090565b60007f01ffc9a7000000000000000000000000000000000000000000000000000000007bffffffffffffffffffffffffffffffffffffffffffffffffffffffff1916827bffffffffffffffffffffffffffffffffffffffffffffffffffffffff1916149050919050565b60008073ffffffffffffffffffffffffffffffffffffffff166002600084815260200190815260200160002060009054906101000a900473ffffffffffffffffffffffffffffffffffffffff1673ffffffffffffffffffffffffffffffffffffffff1614159050919050565b600033905090565b816004600083815260200190815260200160002060006101000a81548173ffffffffffffffffffffffffffffffffffffffff021916908373ffffffffffffffffffffffffffffffffffffffff160217905550808273ffffffffffffffffffffffffffffffffffffffff1661206f83611287565b73ffffffffffffffffffffffffffffffffffffffff167f8c5be1e5ebec7d5bd14f71427d1e84f3dd0314c0f7b2291e5b200ac8c7c3b92560405160405180910390a45050565b60006120c082611f88565b6120ff576040517f08c379a00000000000000000000000000000000000000000000000000000000081526004016120f6906140d8565b60405180910390fd5b600061210a83611287565b90508073ffffffffffffffffffffffffffffffffffffffff168473ffffffffffffffffffffffffffffffffffffffff16148061217957508373ffffffffffffffffffffffffffffffffffffffff1661216184610892565b73ffffffffffffffffffffffffffffffffffffffff16145b8061218a57506121898185611bf5565b5b91505092915050565b8273ffffffffffffffffffffffffffffffffffffffff166121b382611287565b73ffffffffffffffffffffffffffffffffffffffff1614612209576040517f08c379a00000000000000000000000000000000000000000000000000000000081526004016122009061416a565b60405180910390fd5b600073ffffffffffffffffffffffffffffffffffffffff168273ffffffffffffffffffffffffffffffffffffffff161415612279576040517f08c379a0000000000000000000000000000000000000000000000000000000008152600401612270906141fc565b60405180910390fd5b612284838383612a7b565b61228f600082611ffc565b6001600360008573ffffffffffffffffffffffffffffffffffffffff1673ffffffffffffffffffffffffffffffffffffffff16815260200190815260200160002060008282546122df919061421c565b925050819055506001600360008473ffffffffffffffffffffffffffffffffffffffff1673ffffffffffffffffffffffffffffffffffffffff16815260200190815260200160002060008282546123369190613b00565b92505081905550816002600083815260200190815260200160002060006101000a81548173ffffffffffffffffffffffffffffffffffffffff021916908373ffffffffffffffffffffffffffffffffffffffff160217905550808273ffffffffffffffffffffffffffffffffffffffff168473ffffffffffffffffffffffffffffffffffffffff167fddf252ad1be2c89b69c2b068fc378daa952ba7f163c4a11628f55a4df523b3ef60405160405180910390a4505050565b60606000821415612437576040518060400160405280600181526020017f30000000000000000000000000000000000000000000000000000000000000008152509050612573565b600082905060005b6000821461246957808061245290613dfd565b915050600a826124629190613dcc565b915061243f565b60008167ffffffffffffffff811115612485576124846131ee565b5b6040519080825280601f01601f1916602001820160405280156124b75781602001600182028036833780820191505090505b50905060008290505b6000861461256b576001816124d5919061421c565b90506000600a80886124e79190613dcc565b6124f1919061384e565b876124fc919061421c565b60306125089190614250565b905060008160f81b90508084848151811061252657612525613d6e565b5b60200101907effffffffffffffffffffffffffffffffffffffffffffffffffffffffffffff1916908160001a905350600a886125629190613dcc565b975050506124c0565b819450505050505b919050565b60006064600660039054906101000a900460ff1660ff168361259a919061384e565b6125a49190613dcc565b826125af919061421c565b9050600860009054906101000a900473ffffffffffffffffffffffffffffffffffffffff1673ffffffffffffffffffffffffffffffffffffffff1663a9059cbb33836040518363ffffffff1660e01b815260040161260e9291906138a8565b602060405180830381600087803b15801561262857600080fd5b505af115801561263c573d6000803e3d6000fd5b505050506040513d601f19601f8201168201806040525081019061266091906138e6565b503373ffffffffffffffffffffffffffffffffffffffff167f11acec8ea502f5c875e157dd1a17389990a9350450464db61ef112521c0d875182846040516126a9929190614287565b60405180910390a25050565b6126c0848484612193565b6126cc84848484612a80565b61270b576040517f08c379a000000000000000000000000000000000000000000000000000000000815260040161270290614322565b60405180910390fd5b50505050565b606060405180602001604052806000815250905090565b60606000821415612770576040518060400160405280600181526020017f30000000000000000000000000000000000000000000000000000000000000008152509050612884565b600082905060005b600082146127a257808061278b90613dfd565b915050600a8261279b9190613dcc565b9150612778565b60008167ffffffffffffffff8111156127be576127bd6131ee565b5b6040519080825280601f01601f1916602001820160405280156127f05781602001600182028036833780820191505090505b5090505b6000851461287d57600182612809919061421c565b9150600a856128189190614342565b60306128249190613b00565b60f81b81838151811061283a57612839613d6e565b5b60200101907effffffffffffffffffffffffffffffffffffffffffffffffffffffffffffff1916908160001a905350600a856128769190613dcc565b94506127f4565b8093505050505b919050565b600081600001549050919050565b6001816000016000828254019250508190555050565b600073ffffffffffffffffffffffffffffffffffffffff168273ffffffffffffffffffffffffffffffffffffffff16141561291d576040517f08c379a0000000000000000000000000000000000000000000000000000000008152600401612914906143bf565b60405180910390fd5b61292681611f88565b15612966576040517f08c379a000000000000000000000000000000000000000000000000000000000815260040161295d9061442b565b60405180910390fd5b61297260008383612a7b565b6001600360008473ffffffffffffffffffffffffffffffffffffffff1673ffffffffffffffffffffffffffffffffffffffff16815260200190815260200160002060008282546129c29190613b00565b92505081905550816002600083815260200190815260200160002060006101000a81548173ffffffffffffffffffffffffffffffffffffffff021916908373ffffffffffffffffffffffffffffffffffffffff160217905550808273ffffffffffffffffffffffffffffffffffffffff16600073ffffffffffffffffffffffffffffffffffffffff167fddf252ad1be2c89b69c2b068fc378daa952ba7f163c4a11628f55a4df523b3ef60405160405180910390a45050565b505050565b6000612aa18473ffffffffffffffffffffffffffffffffffffffff16612c17565b15612c0a578373ffffffffffffffffffffffffffffffffffffffff1663150b7a02612aca611ff4565b8786866040518563ffffffff1660e01b8152600401612aec94939291906144a0565b602060405180830381600087803b158015612b0657600080fd5b505af1925050508015612b3757506040513d601f19601f82011682018060405250810190612b349190614501565b60015b612bba573d8060008114612b67576040519150601f19603f3d011682016040523d82523d6000602084013e612b6c565b606091505b50600081511415612bb2576040517f08c379a0000000000000000000000000000000000000000000000000000000008152600401612ba990614322565b60405180910390fd5b805181602001fd5b63150b7a0260e01b7bffffffffffffffffffffffffffffffffffffffffffffffffffffffff1916817bffffffffffffffffffffffffffffffffffffffffffffffffffffffff191614915050612c0f565b600190505b949350505050565b600080823b905060008111915050919050565b6040518060400160405280600290602082028036833780820191505090505090565b6000604051905090565b600080fd5b600080fd5b60007fffffffff0000000000000000000000000000000000000000000000000000000082169050919050565b612c9581612c60565b8114612ca057600080fd5b50565b600081359050612cb281612c8c565b92915050565b600060208284031215612cce57612ccd612c56565b5b6000612cdc84828501612ca3565b91505092915050565b60008115159050919050565b612cfa81612ce5565b82525050565b6000602082019050612d156000830184612cf1565b92915050565b600081519050919050565b600082825260208201905092915050565b60005b83811015612d55578082015181840152602081019050612d3a565b83811115612d64576000848401525b50505050565b6000601f19601f8301169050919050565b6000612d8682612d1b565b612d908185612d26565b9350612da0818560208601612d37565b612da981612d6a565b840191505092915050565b60006020820190508181036000830152612dce8184612d7b565b905092915050565b6000819050919050565b612de981612dd6565b8114612df457600080fd5b50565b600081359050612e0681612de0565b92915050565b600060208284031215612e2257612e21612c56565b5b6000612e3084828501612df7565b91505092915050565b600073ffffffffffffffffffffffffffffffffffffffff82169050919050565b6000612e6482612e39565b9050919050565b612e7481612e59565b82525050565b6000602082019050612e8f6000830184612e6b565b92915050565b612e9e81612e59565b8114612ea957600080fd5b50565b600081359050612ebb81612e95565b92915050565b60008060408385031215612ed857612ed7612c56565b5b6000612ee685828601612eac565b9250506020612ef785828601612df7565b9150509250929050565b600061ffff82169050919050565b612f1881612f01565b82525050565b6000602082019050612f336000830184612f0f565b92915050565b600080600060608486031215612f5257612f51612c56565b5b6000612f6086828701612eac565b9350506020612f7186828701612eac565b9250506040612f8286828701612df7565b9150509250925092565b600060ff82169050919050565b612fa281612f8c565b82525050565b6000602082019050612fbd6000830184612f99565b92915050565b6000819050919050565b6000612fe8612fe3612fde84612e39565b612fc3565b612e39565b9050919050565b6000612ffa82612fcd565b9050919050565b600061300c82612fef565b9050919050565b61301c81613001565b82525050565b60006020820190506130376000830184613013565b92915050565b61304681612f8c565b811461305157600080fd5b50565b6000813590506130638161303d565b92915050565b600080604083850312156130805761307f612c56565b5b600061308e85828601612df7565b925050602061309f85828601613054565b9150509250929050565b6000602082840312156130bf576130be612c56565b5b60006130cd84828501612eac565b91505092915050565b6130df81612dd6565b82525050565b60006020820190506130fa60008301846130d6565b92915050565b600061310b82612fef565b9050919050565b61311b81613100565b82525050565b60006020820190506131366000830184613112565b92915050565b600061314782612fef565b9050919050565b6131578161313c565b82525050565b6000602082019050613172600083018461314e565b92915050565b61318181612ce5565b811461318c57600080fd5b50565b60008135905061319e81613178565b92915050565b600080604083850312156131bb576131ba612c56565b5b60006131c985828601612eac565b92505060206131da8582860161318f565b9150509250929050565b600080fd5b600080fd5b7f4e487b7100000000000000000000000000000000000000000000000000000000600052604160045260246000fd5b61322682612d6a565b810181811067ffffffffffffffff82111715613245576132446131ee565b5b80604052505050565b6000613258612c4c565b9050613264828261321d565b919050565b600067ffffffffffffffff821115613284576132836131ee565b5b61328d82612d6a565b9050602081019050919050565b82818337600083830152505050565b60006132bc6132b784613269565b61324e565b9050828152602081018484840111156132d8576132d76131e9565b5b6132e384828561329a565b509392505050565b600082601f830112613300576132ff6131e4565b5b81356133108482602086016132a9565b91505092915050565b6000806000806080858703121561333357613332612c56565b5b600061334187828801612eac565b945050602061335287828801612eac565b935050604061336387828801612df7565b925050606085013567ffffffffffffffff81111561338457613383612c5b565b5b613390878288016132eb565b91505092959194509250565b600080604083850312156133b3576133b2612c56565b5b60006133c185828601612eac565b92505060206133d285828601612eac565b9150509250929050565b600060029050919050565b600081905092915050565b6000819050919050565b61340581612dd6565b82525050565b600061341783836133fc565b60208301905092915050565b6000602082019050919050565b613439816133dc565b61344381846133e7565b925061344e826133f2565b8060005b8381101561347f578151613466878261340b565b965061347183613423565b925050600181019050613452565b505050505050565b600060408201905061349c6000830184613430565b92915050565b7f4e487b7100000000000000000000000000000000000000000000000000000000600052602260045260246000fd5b600060028204905060018216806134e957607f821691505b602082108114156134fd576134fc6134a2565b5b50919050565b7f4552433732313a20617070726f76656420717565727920666f72206e6f6e657860008201527f697374656e7420746f6b656e0000000000000000000000000000000000000000602082015250565b600061355f602c83612d26565b915061356a82613503565b604082019050919050565b6000602082019050818103600083015261358e81613552565b9050919050565b7f4552433732313a20617070726f76616c20746f2063757272656e74206f776e6560008201527f7200000000000000000000000000000000000000000000000000000000000000602082015250565b60006135f1602183612d26565b91506135fc82613595565b604082019050919050565b60006020820190508181036000830152613620816135e4565b9050919050565b7f4552433732313a20617070726f76652063616c6c6572206973206e6f74206f7760008201527f6e6572206e6f7220617070726f76656420666f7220616c6c0000000000000000602082015250565b6000613683603883612d26565b915061368e82613627565b604082019050919050565b600060208201905081810360008301526136b281613676565b9050919050565b6000815190506136c881612de0565b92915050565b6000602082840312156136e4576136e3612c56565b5b60006136f2848285016136b9565b91505092915050565b7f796f75206861766520746f2073656e6420736f6d652045544820746f2067657460008201527f204b696e67646f6d53656564636f696e00000000000000000000000000000000602082015250565b6000613757603083612d26565b9150613762826136fb565b604082019050919050565b600060208201905081810360008301526137868161374a565b9050919050565b7f75686f682c2073727920692063616e27742073656e6420616e79206d6f72652060008201527f4b696e67646f6d53656564636f696e0000000000000000000000000000000000602082015250565b60006137e9602f83612d26565b91506137f48261378d565b604082019050919050565b60006020820190508181036000830152613818816137dc565b9050919050565b7f4e487b7100000000000000000000000000000000000000000000000000000000600052601160045260246000fd5b600061385982612dd6565b915061386483612dd6565b9250817fffffffffffffffffffffffffffffffffffffffffffffffffffffffffffffffff048311821515161561389d5761389c61381f565b5b828202905092915050565b60006040820190506138bd6000830185612e6b565b6138ca60208301846130d6565b9392505050565b6000815190506138e081613178565b92915050565b6000602082840312156138fc576138fb612c56565b5b600061390a848285016138d1565b91505092915050565b7f4552433732313a207472616e736665722063616c6c6572206973206e6f74206f60008201527f776e6572206e6f7220617070726f766564000000000000000000000000000000602082015250565b600061396f603183612d26565b915061397a82613913565b604082019050919050565b6000602082019050818103600083015261399e81613962565b9050919050565b7f796f7520646f6e2774206861766520656e6f7567682073656564636f696e732160008201527f20627579206f7220747261646520736f6d650000000000000000000000000000602082015250565b6000613a01603283612d26565b9150613a0c826139a5565b604082019050919050565b60006020820190508181036000830152613a30816139f4565b9050919050565b7f746172676574436f696e2068617320746f20626520303d61747461636b636f6960008201527f6e206f7220313d646566656e7365636f696e0000000000000000000000000000602082015250565b6000613a93603283612d26565b9150613a9e82613a37565b604082019050919050565b60006020820190508181036000830152613ac281613a86565b9050919050565b6000606082019050613ade6000830186612e6b565b613aeb6020830185612e6b565b613af860408301846130d6565b949350505050565b6000613b0b82612dd6565b9150613b1683612dd6565b9250827fffffffffffffffffffffffffffffffffffffffffffffffffffffffffffffffff03821115613b4b57613b4a61381f565b5b828201905092915050565b7f4552433732313a206f776e657220717565727920666f72206e6f6e657869737460008201527f656e7420746f6b656e0000000000000000000000000000000000000000000000602082015250565b6000613bb2602983612d26565b9150613bbd82613b56565b604082019050919050565b60006020820190508181036000830152613be181613ba5565b9050919050565b600081905092915050565b60008190508160005260206000209050919050565b60008154613c15816134d1565b613c1f8186613be8565b94506001821660008114613c3a5760018114613c4b57613c7e565b60ff19831686528186019350613c7e565b613c5485613bf3565b60005b83811015613c7657815481890152600182019150602081019050613c57565b838801955050505b50505092915050565b6000613c9282612d1b565b613c9c8185613be8565b9350613cac818560208601612d37565b80840191505092915050565b6000613cc48285613c08565b9150613cd08284613c87565b91508190509392505050565b7f4552433732313a2062616c616e636520717565727920666f7220746865207a6560008201527f726f206164647265737300000000000000000000000000000000000000000000602082015250565b6000613d38602a83612d26565b9150613d4382613cdc565b604082019050919050565b60006020820190508181036000830152613d6781613d2b565b9050919050565b7f4e487b7100000000000000000000000000000000000000000000000000000000600052603260045260246000fd5b7f4e487b7100000000000000000000000000000000000000000000000000000000600052601260045260246000fd5b6000613dd782612dd6565b9150613de283612dd6565b925082613df257613df1613d9d565b5b828204905092915050565b6000613e0882612dd6565b91507fffffffffffffffffffffffffffffffffffffffffffffffffffffffffffffffff821415613e3b57613e3a61381f565b5b600182019050919050565b7f4552433732313a20617070726f766520746f2063616c6c657200000000000000600082015250565b6000613e7c601983612d26565b9150613e8782613e46565b602082019050919050565b60006020820190508181036000830152613eab81613e6f565b9050919050565b7f4552433732314d657461646174613a2055524920717565727920666f72206e6f60008201527f6e6578697374656e7420746f6b656e0000000000000000000000000000000000602082015250565b6000613f0e602f83612d26565b9150613f1982613eb2565b604082019050919050565b60006020820190508181036000830152613f3d81613f01565b9050919050565b6000613f508285613c87565b9150613f5c8284613c87565b91508190509392505050565b7f666f6f6b206f6666000000000000000000000000000000000000000000000000600082015250565b6000613f9e600883612d26565b9150613fa982613f68565b602082019050919050565b60006020820190508181036000830152613fcd81613f91565b9050919050565b7f75686f682c206e6f207469746c657320617661696c61626c6520616e796d6f7260008201527f6500000000000000000000000000000000000000000000000000000000000000602082015250565b6000614030602183612d26565b915061403b82613fd4565b604082019050919050565b6000602082019050818103600083015261405f81614023565b9050919050565b7f4552433732313a206f70657261746f7220717565727920666f72206e6f6e657860008201527f697374656e7420746f6b656e0000000000000000000000000000000000000000602082015250565b60006140c2602c83612d26565b91506140cd82614066565b604082019050919050565b600060208201905081810360008301526140f1816140b5565b9050919050565b7f4552433732313a207472616e73666572206f6620746f6b656e2074686174206960008201527f73206e6f74206f776e0000000000000000000000000000000000000000000000602082015250565b6000614154602983612d26565b915061415f826140f8565b604082019050919050565b6000602082019050818103600083015261418381614147565b9050919050565b7f4552433732313a207472616e7366657220746f20746865207a65726f2061646460008201527f7265737300000000000000000000000000000000000000000000000000000000602082015250565b60006141e6602483612d26565b91506141f18261418a565b604082019050919050565b60006020820190508181036000830152614215816141d9565b9050919050565b600061422782612dd6565b915061423283612dd6565b9250828210156142455761424461381f565b5b828203905092915050565b600061425b82612f8c565b915061426683612f8c565b92508260ff0382111561427c5761427b61381f565b5b828201905092915050565b600060408201905061429c60008301856130d6565b6142a960208301846130d6565b9392505050565b7f4552433732313a207472616e7366657220746f206e6f6e20455243373231526560008201527f63656976657220696d706c656d656e7465720000000000000000000000000000602082015250565b600061430c603283612d26565b9150614317826142b0565b604082019050919050565b6000602082019050818103600083015261433b816142ff565b9050919050565b600061434d82612dd6565b915061435883612dd6565b92508261436857614367613d9d565b5b828206905092915050565b7f4552433732313a206d696e7420746f20746865207a65726f2061646472657373600082015250565b60006143a9602083612d26565b91506143b482614373565b602082019050919050565b600060208201905081810360008301526143d88161439c565b9050919050565b7f4552433732313a20746f6b656e20616c7265616479206d696e74656400000000600082015250565b6000614415601c83612d26565b9150614420826143df565b602082019050919050565b6000602082019050818103600083015261444481614408565b9050919050565b600081519050919050565b600082825260208201905092915050565b60006144728261444b565b61447c8185614456565b935061448c818560208601612d37565b61449581612d6a565b840191505092915050565b60006080820190506144b56000830187612e6b565b6144c26020830186612e6b565b6144cf60408301856130d6565b81810360608301526144e18184614467565b905095945050505050565b6000815190506144fb81612c8c565b92915050565b60006020828403121561451757614516612c56565b5b6000614525848285016144ec565b9150509291505056fea26469706673582212203712db8e156a055d95d131ed396978426d92908d46bc7007fce15be05307759164736f6c6343000809003368747470733a2f2f7777772e6b696e67646f6d63727970746f2e636f6d2f7469746c65732f",
  "immutableReferences": {},
  "source": "pragma solidity ^0.8;\n\nimport \"@openzeppelin/contracts/token/ERC721/ERC721.sol\";\nimport \"@openzeppelin/contracts/utils/Counters.sol\";\nimport \"@openzeppelin/contracts/access/Ownable.sol\";\nimport \"./KingdomBank.sol\";\n\ncontract KingdomTitle is ERC721, KingdomBank {\n    using Counters for Counters.Counter;\n    \n    address private _owner;\n    \n    Counters.Counter private _tokenIds;\n    uint16 public totalSupply = 10000;\n    string public baseUrl = \"https://www.kingdomcrypto.com/titles/\";\n\n    constructor(KingdomSeedCoin kgdsc, KingdomAttackCoin kgdat, KingdomDefenseCoin kgddf) ERC721(\"KingdomTitle\", \"KGD\") KingdomBank(kgdsc, kgdat, kgddf) {\n        _owner = _msgSender();\n    }\n\n    modifier onlyOwner {\n        require(_owner == msg.sender, \"fook off\");\n        _;\n    }\n\n    function uint2str(uint _i) internal pure returns (string memory _uintAsString) {\n        if (_i == 0) {\n            return \"0\";\n        }\n        uint j = _i;\n        uint len;\n        while (j != 0) {\n            len++;\n            j /= 10;\n        }\n        bytes memory bstr = new bytes(len);\n        uint k = len;\n        while (_i != 0) {\n            k = k-1;\n            uint8 temp = (48 + uint8(_i - _i / 10 * 10));\n            bytes1 b1 = bytes1(temp);\n            bstr[k] = b1;\n            _i /= 10;\n        }\n        return string(bstr);\n    }\n\n    function awardItem(address player) public onlyOwner returns (uint256) {\n        require(_tokenIds.current() < totalSupply, \"uhoh, no titles available anymore\");\n\n        _tokenIds.increment();      \n\n        uint256 newItemId = _tokenIds.current();\n        _mint(player, newItemId);\n\n        return newItemId;\n    }\n\n    function tokenMetadata(uint256 _tokenId) public view returns (string memory infoUrl) {\n        return string(abi.encodePacked(baseUrl, uint2str(_tokenId)));\n    }\n}",
  "sourcePath": "/home/jguese/code/solidity-course/kingdom/contracts/KingdomTitles.sol",
  "compiler": {
    "name": "solc",
    "version": "0.8.9+commit.e5eed63a.Emscripten.clang"
  },
  "schemaVersion": "3.4.3",
  "updatedAt": "2021-10-21T14:50:28.654Z",
  "devdoc": {
    "kind": "dev",
    "methods": {
      "approve(address,uint256)": {
        "details": "See {IERC721-approve}."
      },
      "balanceOf(address)": {
        "details": "See {IERC721-balanceOf}."
      },
      "getApproved(uint256)": {
        "details": "See {IERC721-getApproved}."
      },
      "isApprovedForAll(address,address)": {
        "details": "See {IERC721-isApprovedForAll}."
      },
      "name()": {
        "details": "See {IERC721Metadata-name}."
      },
      "ownerOf(uint256)": {
        "details": "See {IERC721-ownerOf}."
      },
      "safeTransferFrom(address,address,uint256)": {
        "details": "See {IERC721-safeTransferFrom}."
      },
      "safeTransferFrom(address,address,uint256,bytes)": {
        "details": "See {IERC721-safeTransferFrom}."
      },
      "setApprovalForAll(address,bool)": {
        "details": "See {IERC721-setApprovalForAll}."
      },
      "supportsInterface(bytes4)": {
        "details": "See {IERC165-supportsInterface}."
      },
      "symbol()": {
        "details": "See {IERC721Metadata-symbol}."
      },
      "tokenURI(uint256)": {
        "details": "See {IERC721Metadata-tokenURI}."
      },
      "transferFrom(address,address,uint256)": {
        "details": "See {IERC721-transferFrom}."
      }
    },
    "version": 1
  },
  "userdoc": {
    "kind": "user",
    "methods": {},
    "version": 1
  }
}