{
	"data": {
		"bytecode": {
			"linkReferences": {},
			"object": "60806040526006805463ffffffff60a01b1916630504050560a11b179055603c600755600060088190556009819055600a553480156200003e57600080fd5b506040516200498a3803806200498a833981016040819052620000619162000248565b8282828282826040518060400160405280600e81526020016d4b696e67646f6d205469746c657360901b8152506040518060400160405280600381526020016212d1d160ea1b8152508160009080519060200190620000c2929190620001a2565b508051620000d8906001906020840190620001a2565b505050620000f5620000ef6200014c60201b60201c565b62000150565b600b80546001600160a01b039485166001600160a01b031991821617909155600c805493851693821693909317909255600d8054919093169116179055505060006201118055505042620111825550620002f29050565b3390565b600680546001600160a01b038381166001600160a01b0319831681179093556040519116919082907f8be0079c531659141344cd1fd0a4f28419497f9722a3daafe3b4186f6b6457e090600090a35050565b828054620001b0906200029c565b90600052602060002090601f016020900481019282620001d457600085556200021f565b82601f10620001ef57805160ff19168380011785556200021f565b828001600101855582156200021f579182015b828111156200021f57825182559160200191906001019062000202565b506200022d92915062000231565b5090565b5b808211156200022d576000815560010162000232565b6000806000606084860312156200025e57600080fd5b83516200026b81620002d9565b60208501519093506200027e81620002d9565b60408501519092506200029181620002d9565b809150509250925092565b600181811c90821680620002b157607f821691505b60208210811415620002d357634e487b7160e01b600052602260045260246000fd5b50919050565b6001600160a01b0381168114620002ef57600080fd5b50565b61468880620003026000396000f3fe6080604052600436106103345760003560e01c8063802bea6e116101ab578063c669b710116100f7578063e985e9c511610095578063f2fb21201161006f578063f2fb2120146109df578063f2fde38b146109ff578063f4fd44f114610a1f578063fa4facdb14610a4e57600080fd5b8063e985e9c514610960578063eb8fd9a3146109a9578063f08b7b73146109bf57600080fd5b8063d534d636116100d1578063d534d63614610923578063e046670b1461093a578063e10270c614610940578063e73961f51461042e57600080fd5b8063c669b710146108c1578063c87b56dd146108e2578063d4637ddb1461090257600080fd5b8063900294be11610164578063b88d4fde1161013e578063b88d4fde1461083e578063c03d5b471461085e578063c398314914610874578063c4a3a1fc1461089457600080fd5b8063900294be146107e957806395d89b4114610809578063a22cb4651461081e57600080fd5b8063802bea6e1461072f578063839b92051461075e57806384505e6a14610774578063853eab57146107965780638da5cb5b146107b65780638ed955b9146107d457600080fd5b8063266c79ef116102855780635bcabf04116102235780636a7a2fa3116101fd5780636a7a2fa3146106b957806370a08231146106da578063715018a6146106fa5780637c62539a1461070f57600080fd5b80635bcabf041461064f5780635e1bb546146106645780636352211e1461069957600080fd5b8063411ee0d01161025f578063411ee0d01461059c57806342842e0e146105bc578063429c3edf146105dc578063437ace21146105fc57600080fd5b8063266c79ef146105295780632756985c146105495780633ba0b9a91461056957600080fd5b80630895ba53116102f257806316807e15116102cc57806316807e151461046b57806318160ddd1461048b5780631cf95ed6146104b457806323b872dd1461050957600080fd5b80630895ba531461042e578063095ea7b31461044357806310f7e4ed1461046357600080fd5b80620a51801461033957806301ffc9a7146103625780630619f9321461039257806306fdde03146103b4578063073077ec146103d6578063081812fc146103f6575b600080fd5b34801561034557600080fd5b5061034f60095481565b6040519081526020015b60405180910390f35b34801561036e57600080fd5b5061038261037d3660046140d3565b610a63565b6040519015158152602001610359565b34801561039e57600080fd5b506103b26103ad36600461410d565b610ab5565b005b3480156103c057600080fd5b506103c9610ebb565b60405161035991906142d0565b3480156103e257600080fd5b506103b26103f1366004614164565b610f4d565b34801561040257600080fd5b5061041661041136600461410d565b6111c6565b6040516001600160a01b039091168152602001610359565b34801561043a57600080fd5b5061034f603c81565b34801561044f57600080fd5b506103b261045e36600461408c565b61124e565b6103b261135f565b34801561047757600080fd5b5061034f61048636600461410d565b6115d2565b34801561049757600080fd5b506104a161271081565b60405161ffff9091168152602001610359565b3480156104c057600080fd5b506104d46104cf36600461410d565b61161a565b604080519788526020880196909652948601939093526060850191909152608084015260a083015260c082015260e001610359565b34801561051557600080fd5b506103b2610524366004613f3d565b61165e565b34801561053557600080fd5b5061034f61054436600461410d565b61168f565b34801561055557600080fd5b5061038261056436600461410d565b611759565b34801561057557600080fd5b5060065461058a90600160a01b900460ff1681565b60405160ff9091168152602001610359565b3480156105a857600080fd5b50600d54610416906001600160a01b031681565b3480156105c857600080fd5b506103b26105d7366004613f3d565b6118d5565b3480156105e857600080fd5b506103b26105f73660046141a0565b6118f0565b34801561060857600080fd5b5061061c61061736600461410d565b611d10565b604080519687526020870195909552921515938501939093526060840152608083019190915260a082015260c001610359565b34801561065b57600080fd5b506103c9611e3e565b34801561067057600080fd5b5061068461067f36600461410d565b611e5a565b60408051928352602083019190915201610359565b3480156106a557600080fd5b506104166106b436600461410d565b611eeb565b3480156106c557600080fd5b5060065461058a90600160b81b900460ff1681565b3480156106e657600080fd5b5061034f6106f5366004613eef565b611f62565b34801561070657600080fd5b506103b2611fe9565b34801561071b57600080fd5b50600c54610416906001600160a01b031681565b34801561073b57600080fd5b5061034f61074a36600461410d565b60009081526201117f602052604090205490565b34801561076a57600080fd5b5061034f600a5481565b34801561078057600080fd5b5061078961201f565b604051610359919061425b565b3480156107a257600080fd5b506103b26107b136600461413f565b612194565b3480156107c257600080fd5b506006546001600160a01b0316610416565b3480156107e057600080fd5b5061038261256b565b3480156107f557600080fd5b50600b54610416906001600160a01b031681565b34801561081557600080fd5b506103c961285d565b34801561082a57600080fd5b506103b2610839366004614055565b61286c565b34801561084a57600080fd5b506103b2610859366004613f79565b612931565b34801561086a57600080fd5b5061034f60075481565b34801561088057600080fd5b5061034f61088f36600461410d565b612969565b3480156108a057600080fd5b506108b46108af366004613eef565b612987565b604051610359919061428c565b3480156108cd57600080fd5b5060065461058a90600160a81b900460ff1681565b3480156108ee57600080fd5b506103c96108fd36600461410d565b6129f5565b34801561090e57600080fd5b5060065461058a90600160b01b900460ff1681565b34801561092f57600080fd5b50620111805461034f565b4761034f565b34801561094c57600080fd5b506108b461095b366004613eef565b612aaf565b34801561096c57600080fd5b5061038261097b366004613f0a565b6001600160a01b03918216600090815260056020908152604080832093909416825291909152205460ff1690565b3480156109b557600080fd5b5061034f60085481565b3480156109cb57600080fd5b5061034f6109da36600461408c565b612bda565b3480156109eb57600080fd5b5061034f6109fa366004613eef565b612c0d565b348015610a0b57600080fd5b506103b2610a1a366004613eef565b612dd4565b348015610a2b57600080fd5b5061034f610a3a36600461410d565b6201117f6020526000908152604090205481565b348015610a5a57600080fd5b50610789612e6f565b60006001600160e01b031982166380ac58cd60e01b1480610a9457506001600160e01b03198216635b5e139f60e01b145b80610aaf57506301ffc9a760e01b6001600160e01b03198316145b92915050565b6000610ac033611f62565b11610b2d5760405162461bcd60e51b815260206004820152603260248201527f746f2075736520746869732066756e6374696f6e20796f75206e6565642061206044820152717469746c652120676f20627579206f6e652160701b60648201526084015b60405180910390fd5b33610b3782611eeb565b6001600160a01b031614610baa5760405162461bcd60e51b815260206004820152603460248201527f736f7272792c206f6e6c7920746865206f776e6572206f662061207469746c656044820152732063616e2061747461636b2068697320626f737360601b6064820152608401610b24565b6000604051806101600160405280600015158152602001838152602001610bd084612969565b8152602001610be16106b485612969565b6001600160a01b03168152602001600081526020016000815260200160001515815260200160008152602001600081526020016000815260200160008152509050336001600160a01b031681606001516001600160a01b03161415610c885760405162461bcd60e51b815260206004820152601e60248201527f626f792c20646f6e27742061747461636b20796f757273656c6620706c7a00006044820152606401610b24565b610c9182611d10565b5050610120850152151560c08401525060e08201526040810151610cb490611d10565b506101408601819052610100860184905260009450600a93909250610cdb9150600f6144eb565b610ce591906144eb565b610cef91906144d7565b905060008261012001518360e00151610d0891906144eb565b90506000610d14612f80565b9050600080610d238486612fe4565b915091506003821115610d4b5761010086015160a08701526000608087015260018652610dfd565b6002821115610d9f5761010086015160a08701526001865260e0860151610d7490600a906144d7565b6080870152605a831115610d9a576002866101000151610d9491906144d7565b60a08701525b610dfd565b600182118015610daf5750600581115b15610dea5760018652610100860151610dca906002906144d7565b60a087015260e0860151610de0906002906144d7565b6080870152610dfd565b6000865260a08601839052608086018390525b7fe1f1c5edc3d4d1e770d4de5770da4dd058cc5e6a71a2830d5743e8062cd8fa093387606001518989604001518a60e001518b61010001518c608001518d60a001518e60000151604051610ea1999897969594939291906001600160a01b03998a16815297909816602088015260408701959095526060860193909352608085019190915260a084015260c083015260e08201529015156101008201526101200190565b60405180910390a1610eb286613018565b50505050505050565b606060008054610eca9061454d565b80601f0160208091040260200160405190810160405280929190818152602001828054610ef69061454d565b8015610f435780601f10610f1857610100808354040283529160200191610f43565b820191906000526020600020905b815481529060010190602001808311610f2657829003601f168201915b5050505050905090565b610f5c8263ffffffff1661321f565b610fa45760405162461bcd60e51b81526020600482015260196024820152781d1a5d1b19480a1d1bdad95b8a481b9bdb995e1a5cdd195b9d603a1b6044820152606401610b24565b33610fb463ffffffff8416611eeb565b6001600160a01b03161461103f5760405162461bcd60e51b815260206004820152604660248201527f796f752063616e206e6f74207769746864726177204d696c697461727920667260448201527f6f6d2061207469746c65207468617420646f6573206e6f742062656c6f6e6720606482015265746f20796f7560d01b608482015260a401610b24565b60ff8116158061105257508060ff166001145b61106e5760405162461bcd60e51b8152600401610b2490614335565b60ff811661111d5782600f8363ffffffff166127108110611091576110916145dd565b600702015410156110b45760405162461bcd60e51b8152600401610b2490614454565b336000908152620111836020526040812080548592906110d590849061449a565b90915550839050600f63ffffffff841661271081106110f6576110f66145dd565b60070201805460009061110a90849061450a565b90915550611118905061323c565b505050565b8060ff16600114156111185782600f8363ffffffff166127108110611144576111446145dd565b6007020160010154101561116a5760405162461bcd60e51b8152600401610b2490614387565b33600090815262011183602052604090208390600101600082825461118f919061449a565b90915550839050600f63ffffffff841661271081106111b0576111b06145dd565b60070201600101600082825461110a919061450a565b60006111d18261321f565b6112325760405162461bcd60e51b815260206004820152602c60248201527f4552433732313a20617070726f76656420717565727920666f72206e6f6e657860448201526b34b9ba32b73a103a37b5b2b760a11b6064820152608401610b24565b506000908152600460205260409020546001600160a01b031690565b600061125982611eeb565b9050806001600160a01b0316836001600160a01b031614156112c75760405162461bcd60e51b815260206004820152602160248201527f4552433732313a20617070726f76616c20746f2063757272656e74206f776e656044820152603960f91b6064820152608401610b24565b336001600160a01b03821614806112e357506112e3813361097b565b6113555760405162461bcd60e51b815260206004820152603860248201527f4552433732313a20617070726f76652063616c6c6572206973206e6f74206f7760448201527f6e6572206e6f7220617070726f76656420666f7220616c6c00000000000000006064820152608401610b24565b61111883836133ff565b600b546040516370a0823160e01b81523060048201526000916001600160a01b0316906370a082319060240160206040518083038186803b1580156113a357600080fd5b505afa1580156113b7573d6000803e3d6000fd5b505050506040513d601f19601f820116820180604052508101906113db9190614126565b116113e557600080fd5b6000341161144e5760405162461bcd60e51b815260206004820152603060248201527f796f75206861766520746f2073656e6420736f6d652045544820746f2067657460448201526f1025b4b733b237b6a9b2b2b231b7b4b760811b6064820152608401610b24565b600b546040516370a0823160e01b81523060048201526000916001600160a01b0316906370a082319060240160206040518083038186803b15801561149257600080fd5b505afa1580156114a6573d6000803e3d6000fd5b505050506040513d601f19601f820116820180604052508101906114ca9190614126565b1161152f5760405162461bcd60e51b815260206004820152602f60248201527f75686f682c2073727920692063616e27742073656e6420616e79206d6f72652060448201526e25b4b733b237b6a9b2b2b231b7b4b760891b6064820152608401610b24565b60065460009061154990600160a01b900460ff16346144eb565b600b5460405163a9059cbb60e01b8152336004820152602481018390529192506001600160a01b03169063a9059cbb90604401602060405180830381600087803b15801561159657600080fd5b505af11580156115aa573d6000803e3d6000fd5b505050506040513d601f19601f820116820180604052508101906115ce91906140b6565b5050565b6000805b62011180548110156116145760008181526201117f602052604090205483141561160257809150611614565b8061160c81614582565b9150506115d6565b50919050565b600f81612710811061162b57600080fd5b60070201805460018201546002830154600384015460048501546005860154600690960154949650929491939092919087565b611668338261346d565b6116845760405162461bcd60e51b8152600401610b2490614403565b611118838383613557565b60008061169d620111805490565b90508260001080156116af5750808311155b6116f45760405162461bcd60e51b81526020600482015260166024820152751a59081a5cc81b9bdd081e595d08185cdcda59db995960521b6044820152606401610b24565b60008381526201117f602052604090205460018114156117175760009250611752565b61172260028561459d565b611738576117316002826144d7565b9250611752565b600261174560018361450a565b61174f91906144d7565b92505b5050919050565b6006546000906001600160a01b031633146117865760405162461bcd60e51b8152600401610b24906143ce565b600061179183611eeb565b905061179e813085613557565b611a0a60005b6001600160a01b0383166000908152620111816020526040902054811015611820576001600160a01b038316600090815262011181602052604090208054869190839081106117f5576117f56145dd565b9060005260206000200154141561180e57809150611820565b8061181881614582565b9150506117a4565b5080611a0a14156118925760405162461bcd60e51b815260206004820152603660248201527f72657665727365206974656d2066756e6374696f6e2e2e2e206974656d206e6f6044820152757420666f756e6420696e20616464726573733269647360501b6064820152608401610b24565b6001600160a01b038216600090815262011181602052604090208054829081106118be576118be6145dd565b60009182526020822001555060019150505b919050565b61111883838360405180602001604052806000815250612931565b600c546040516370a0823160e01b81523060048201526000916001600160a01b0316906370a082319060240160206040518083038186803b15801561193457600080fd5b505afa158015611948573d6000803e3d6000fd5b505050506040513d601f19601f8201168201806040525081019061196c9190614126565b1161197657600080fd5b600d546040516370a0823160e01b81523060048201526000916001600160a01b0316906370a082319060240160206040518083038186803b1580156119ba57600080fd5b505afa1580156119ce573d6000803e3d6000fd5b505050506040513d601f19601f820116820180604052508101906119f29190614126565b116119fc57600080fd5b600b546040516370a0823160e01b81523360048201526000916001600160a01b0316906370a082319060240160206040518083038186803b158015611a4057600080fd5b505afa158015611a54573d6000803e3d6000fd5b505050506040513d601f19601f82011682018060405250810190611a789190614126565b9050828110158015611a8a5750600083115b611af15760405162461bcd60e51b815260206004820152603260248201527f796f7520646f6e2774206861766520656e6f7567682073656564636f696e732160448201527120627579206f7220747261646520736f6d6560701b6064820152608401610b24565b60ff82161580611b0457508160ff166001145b611b6b5760405162461bcd60e51b815260206004820152603260248201527f746172676574436f696e2068617320746f20626520303d61747461636b636f69604482015271371037b910189eb232b332b739b2b1b7b4b760711b6064820152608401610b24565b60ff8216611bad5760405183815233907f44d00596aedd88fca0607c9a84113fd638c9a070d5ef8d77c072080b688d8e349060200160405180910390a2611bef565b8160ff1660011415611bef5760405183815233907f049b4d6e22c9904766197183f9dc1f362cefb04f39e3850a8b7d83ff2c26216f9060200160405180910390a25b600b546040516323b872dd60e01b8152336004820152306024820152604481018590526001600160a01b03909116906323b872dd90606401602060405180830381600087803b158015611c4157600080fd5b505af1158015611c55573d6000803e3d6000fd5b505050506040513d601f19601f82011682018060405250810190611c7991906140b6565b50600e6000336001600160a01b03166001600160a01b0316815260200190815260200160002060405180606001604052808581526020018460ff16815260200160075442611cc7919061449a565b90528154600180820184556000938452602093849020835160039093020191825592820151928101805460ff191660ff9094169390931790925560400151600290910155505050565b600080600080600080611d24620111805490565b871115611d815760405162461bcd60e51b815260206004820152602560248201527f7469746c65206964206e6f74207965742061737369676e65642c20676f20676560448201526474206f6e6560d81b6064820152608401610b24565b600f876127108110611d9557611d956145dd565b60070201549550600f876127108110611db057611db06145dd565b6007020160010154945042600f886127108110611dcf57611dcf6145dd565b600702016002015410159350600f876127108110611def57611def6145dd565b60070201600401549250600f876127108110611e0d57611e0d6145dd565b60070201600501549150600f876127108110611e2b57611e2b6145dd565b6007020160060154905091939550919395565b60405180606001604052806025815260200161462e6025913981565b6000806000611e6a620111805490565b905080841115611eb55760405162461bcd60e51b81526020600482015260166024820152751a59081a5cc81b9bdd081e595d08185cdcda59db995960521b6044820152606401610b24565b611ebe846136f7565b9250611ec984613704565b915080831115611ed857600092505b80821115611ee557600091505b50915091565b6000818152600260205260408120546001600160a01b031680610aaf5760405162461bcd60e51b815260206004820152602960248201527f4552433732313a206f776e657220717565727920666f72206e6f6e657869737460448201526832b73a103a37b5b2b760b91b6064820152608401610b24565b60006001600160a01b038216611fcd5760405162461bcd60e51b815260206004820152602a60248201527f4552433732313a2062616c616e636520717565727920666f7220746865207a65604482015269726f206164647265737360b01b6064820152608401610b24565b506001600160a01b031660009081526003602052604090205490565b6006546001600160a01b031633146120135760405162461bcd60e51b8152600401610b24906143ce565b61201d600061371a565b565b612027613e95565b60405180606001604052806298967f81526020016298967f81526020016000815250905060005b336000908152600e602052604090205481101561219057336000908152600e60205260408120805483908110612086576120866145dd565b600091825260209182902060408051606081018252600390930290910180548352600181015460ff169383019390935260029092015491810182905291506120ce575061217e565b604083018051906120de82614582565b905250602081015160ff1661213157428160400151111561212857600042826040015161210b919061450a565b845190915081101561212257808460005b60200201525b5061217c565b6000835261217c565b806020015160ff166001141561217c57428160400151111561217457600042826040015161215f919061450a565b8451909150811015612122578084600161211c565b600060208401525b505b8061218881614582565b91505061204e565b5090565b6121a38263ffffffff1661321f565b6121eb5760405162461bcd60e51b81526020600482015260196024820152781d1a5d1b19480a1d1bdad95b8a481b9bdb995e1a5cdd195b9d603a1b6044820152606401610b24565b600083116122465760405162461bcd60e51b815260206004820152602260248201527f796f75206e65656420746f2061737369676e206174206c65617374203120636f60448201526134b760f11b6064820152608401610b24565b8015806122535750806001145b61226f5760405162461bcd60e51b8152600401610b2490614335565b806123d257600c546040516370a0823160e01b815233600482015284916001600160a01b0316906370a082319060240160206040518083038186803b1580156122b757600080fd5b505afa1580156122cb573d6000803e3d6000fd5b505050506040513d601f19601f820116820180604052508101906122ef9190614126565b101561230d5760405162461bcd60e51b8152600401610b2490614454565b600c546040516323b872dd60e01b8152336004820152306024820152604481018590526001600160a01b03909116906323b872dd90606401602060405180830381600087803b15801561235f57600080fd5b505af1158015612373573d6000803e3d6000fd5b505050506040513d601f19601f8201168201806040525081019061239791906140b6565b5082600f8363ffffffff1661271081106123b3576123b36145dd565b6007020180546000906123c790849061449a565b909155506125369050565b806001141561253657600d546040516370a0823160e01b815233600482015284916001600160a01b0316906370a082319060240160206040518083038186803b15801561241e57600080fd5b505afa158015612432573d6000803e3d6000fd5b505050506040513d601f19601f820116820180604052508101906124569190614126565b10156124745760405162461bcd60e51b8152600401610b2490614387565b600d546040516323b872dd60e01b8152336004820152306024820152604481018590526001600160a01b03909116906323b872dd90606401602060405180830381600087803b1580156124c657600080fd5b505af11580156124da573d6000803e3d6000fd5b505050506040513d601f19601f820116820180604052508101906124fe91906140b6565b5082600f8363ffffffff16612710811061251a5761251a6145dd565b600702016001016000828254612530919061449a565b90915550505b612541603c4261449a565b600f8363ffffffff16612710811061255b5761255b6145dd565b6007020160030181905550505050565b6000805b336000908152600e602052604090205481101561219057336000908152600e602052604081208054839081106125a7576125a76145dd565b600091825260209182902060408051606081018252600390930290910180548352600181015460ff1693830193909352600290920154918101829052915042111561284a57602081015160ff166126f557600061260c8260000151836040015161376c565b60065490915061262690600160a81b900460ff16826144d7565b90506126358260000151613815565b600c5460405163a9059cbb60e01b8152336004820152602481018390526001600160a01b039091169063a9059cbb90604401602060405180830381600087803b15801561268157600080fd5b505af1158015612695573d6000803e3d6000fd5b505050506040513d601f19601f820116820180604052508101906126b991906140b6565b5060405181815233907f9fd4a9248425079a398923cd20daa8e0c103907fb89db4707cb4f2cc343f95469060200160405180910390a2506127fe565b806020015160ff16600114156127fe5760006127198260000151836040015161376c565b60065490915061273390600160b01b900460ff16826144d7565b90506127428260000151613815565b600d5460405163a9059cbb60e01b8152336004820152602481018390526001600160a01b039091169063a9059cbb90604401602060405180830381600087803b15801561278e57600080fd5b505af11580156127a2573d6000803e3d6000fd5b505050506040513d601f19601f820116820180604052508101906127c691906140b6565b5060405181815233907fd62aeb2df4f1c7a0c59e15c0dca22ccbcbe42ad0d0dbf99a22c0ad2551c5a1559060200160405180910390a2505b336000908152600e6020526040902080548390811061281f5761281f6145dd565b6000918252602082206003909102018181556001808201805460ff1916905560029091019190915592505b508061285581614582565b91505061256f565b606060018054610eca9061454d565b6001600160a01b0382163314156128c55760405162461bcd60e51b815260206004820152601960248201527f4552433732313a20617070726f766520746f2063616c6c6572000000000000006044820152606401610b24565b3360008181526005602090815260408083206001600160a01b03871680855290835292819020805460ff191686151590811790915590519081529192917f17307eab39ab6107e8899845ad3d59bd9653f200f220920489ca2b5937696c31910160405180910390a35050565b61293b338361346d565b6129575760405162461bcd60e51b8152600401610b2490614403565b6129638484848461390b565b50505050565b6000806129758361168f565b9050612980816115d2565b9392505050565b6001600160a01b03811660009081526201118160209081526040918290208054835181840281018401909452808452606093928301828280156129e957602002820191906000526020600020905b8154815260200190600101908083116129d5575b50505050509050919050565b6060612a008261321f565b612a665760405162461bcd60e51b815260206004820152603160248201527f45524337323155524953746f726167653a2055524920717565727920666f72206044820152703737b732bc34b9ba32b73a103a37b5b2b760791b6064820152608401610b24565b60405180606001604052806025815260200161462e60259139612a888361393e565b604051602001612a999291906141ef565b6040516020818303038152906040529050919050565b6001600160a01b03811660009081526201118160209081526040808320805482518185028101850190935280835260609493830182828015612b1057602002820191906000526020600020905b815481526020019060010190808311612afc575b505050505090506000815167ffffffffffffffff811115612b3357612b336145f3565b604051908082528060200260200182016040528015612b5c578160200160208202803683370190505b50905081516000146129805760005b8251811015612bd2576201117f6000848381518110612b8c57612b8c6145dd565b6020026020010151815260200190815260200160002054828281518110612bb557612bb56145dd565b602090810291909101015280612bca81614582565b915050612b6b565b509392505050565b620111816020528160005260406000208181548110612bf857600080fd5b90600052602060002001600091509150505481565b6006546000906001600160a01b03163314612c3a5760405162461bcd60e51b8152600401610b24906143ce565b620111805461271011612c995760405162461bcd60e51b815260206004820152602160248201527f75686f682c206e6f207469746c657320617661696c61626c6520616e796d6f726044820152606560f81b6064820152608401610b24565b600062011180546001612cac919061449a565b9050612cb88382613a67565b6001600160a01b038316600090815262011181602090815260408083208054600181018255908452828420018490558383526201117f90915281208290558080612d0184613a81565b9250925092506040518060e001604052806000815260200160008152602001603c42612d2d919061449a565b8152602001612d3d603c4261449a565b815260200184815260200183815260200182815250600f856127108110612d6657612d666145dd565b8251600791909102919091019081556020820151600182015560408201516002820155606082015160038201556080820151600482015560a0820151600582015560c090910151600690910155620111808054906000612dc583614582565b90915550939695505050505050565b6006546001600160a01b03163314612dfe5760405162461bcd60e51b8152600401610b24906143ce565b6001600160a01b038116612e635760405162461bcd60e51b815260206004820152602660248201527f4f776e61626c653a206e6577206f776e657220697320746865207a65726f206160448201526564647265737360d01b6064820152608401610b24565b612e6c8161371a565b50565b612e77613e95565b6000806000805b336000908152600e6020526040902054811015612f6157336000908152600e60205260408120805483908110612eb657612eb66145dd565b600091825260209182902060408051606081018252600390930290910180548352600181015460ff16938301939093526002909201549181018290529150612efe5750612f4f565b82612f0881614582565b935050806020015160ff1660001415612f2e578051612f27908661449a565b9450612f4d565b806020015160ff1660011415612f4d578051612f4a908561449a565b93505b505b80612f5981614582565b915050612e7e565b5060408051606081018252938452602084019290925290820152919050565b6000806064446201118254604051602001612fa5929190918252602082015260400190565b6040516020818303038152906040528051906020012060001c612fc8919061459d565b9050806201118254612fda919061449a565b6201118255919050565b600080821561300a57612ff783856144d7565b9150613003838561459d565b9050613011565b5060009050825b9250929050565b8060800151600f82602001516127108110613035576130356145dd565b60070201805460009061304990849061450a565b925050819055506000600f8260200151612710811061306a5761306a6145dd565b600702015410156130c85760405162461bcd60e51b815260206004820152602260248201527f75686f682c207468652061747461636b706f696e747320617265207a65726f2e604482015261171760f11b6064820152608401610b24565b8060a00151600f826040015161271081106130e5576130e56145dd565b6007020160010160008282546130fb919061450a565b925050819055506000600f8260400151612710811061311c5761311c6145dd565b6007020160010154101561317e5760405162461bcd60e51b815260206004820152602360248201527f75686f682c2074686520646566656e7365706f696e747320617265207a65726f60448201526217171760e91b6064820152608401610b24565b805115612e6c576040818101805160009081526201117f602090815283822054818601805184528584205494518452858420949094558351835284832081905560608087015194518452928590205485513381526001600160a01b0390951692850192909252938301849052908201527f613181c93c2a39a642abf3636c19505e28200a1a2e1ab682c50373f15308df629060800160405180910390a15050565b6000908152600260205260409020546001600160a01b0316151590565b33600090815262011183602052604090208054600182015460029092015490919082156132e957600c5460405163a9059cbb60e01b8152336004820152602481018590526001600160a01b039091169063a9059cbb90604401602060405180830381600087803b1580156132af57600080fd5b505af11580156132c3573d6000803e3d6000fd5b505050506040513d601f19601f820116820180604052508101906132e791906140b6565b505b811561337557600d5460405163a9059cbb60e01b8152336004820152602481018490526001600160a01b039091169063a9059cbb90604401602060405180830381600087803b15801561333b57600080fd5b505af115801561334f573d6000803e3d6000fd5b505050506040513d601f19601f8201168201806040525081019061337391906140b6565b505b801561111857600b5460405163a9059cbb60e01b8152336004820152602481018390526001600160a01b039091169063a9059cbb90604401602060405180830381600087803b1580156133c757600080fd5b505af11580156133db573d6000803e3d6000fd5b505050506040513d601f19601f8201168201806040525081019061296391906140b6565b600081815260046020526040902080546001600160a01b0319166001600160a01b038416908117909155819061343482611eeb565b6001600160a01b03167f8c5be1e5ebec7d5bd14f71427d1e84f3dd0314c0f7b2291e5b200ac8c7c3b92560405160405180910390a45050565b60006134788261321f565b6134d95760405162461bcd60e51b815260206004820152602c60248201527f4552433732313a206f70657261746f7220717565727920666f72206e6f6e657860448201526b34b9ba32b73a103a37b5b2b760a11b6064820152608401610b24565b60006134e483611eeb565b9050806001600160a01b0316846001600160a01b0316148061351f5750836001600160a01b0316613514846111c6565b6001600160a01b0316145b8061354f57506001600160a01b0380821660009081526005602090815260408083209388168352929052205460ff165b949350505050565b826001600160a01b031661356a82611eeb565b6001600160a01b0316146135d25760405162461bcd60e51b815260206004820152602960248201527f4552433732313a207472616e73666572206f6620746f6b656e2074686174206960448201526839903737ba1037bbb760b91b6064820152608401610b24565b6001600160a01b0382166136345760405162461bcd60e51b8152602060048201526024808201527f4552433732313a207472616e7366657220746f20746865207a65726f206164646044820152637265737360e01b6064820152608401610b24565b61363f6000826133ff565b6001600160a01b038316600090815260036020526040812080546001929061366890849061450a565b90915550506001600160a01b038216600090815260036020526040812080546001929061369690849061449a565b909155505060008181526002602052604080822080546001600160a01b0319166001600160a01b0386811691821790925591518493918716917fddf252ad1be2c89b69c2b068fc378daa952ba7f163c4a11628f55a4df523b3ef91a4505050565b6000610aaf8260026144eb565b600061370f826136f7565b610aaf90600161449a565b600680546001600160a01b038381166001600160a01b0319831681179093556040519116919082907f8be0079c531659141344cd1fd0a4f28419497f9722a3daafe3b4186f6b6457e090600090a35050565b60004282106137d75760405162461bcd60e51b815260206004820152603160248201527f796f752063616e2774207363616c652072657761726473207769746820612074604482015270696d6520696e207468652066757475726560781b6064820152608401610b24565b60006137e3834261450a565b90506000600754826137f591906144d7565b61380090600161449a565b905061380c81866144eb565b95945050505050565b60065460009060649061383290600160b81b900460ff16846144eb565b61383c91906144d7565b613846908361450a565b600b5460405163a9059cbb60e01b8152336004820152602481018390529192506001600160a01b03169063a9059cbb90604401602060405180830381600087803b15801561389357600080fd5b505af11580156138a7573d6000803e3d6000fd5b505050506040513d601f19601f820116820180604052508101906138cb91906140b6565b50604080518281526020810184905233917f11acec8ea502f5c875e157dd1a17389990a9350450464db61ef112521c0d8751910160405180910390a25050565b613916848484613557565b61392284848484613c22565b6129635760405162461bcd60e51b8152600401610b24906142e3565b6060816139625750506040805180820190915260018152600360fc1b602082015290565b8160005b811561398c578061397681614582565b91506139859050600a836144d7565b9150613966565b60008167ffffffffffffffff8111156139a7576139a76145f3565b6040519080825280601f01601f1916602001820160405280156139d1576020820181803683370190505b509050815b8515613a5e576139e760018261450a565b905060006139f6600a886144d7565b613a0190600a6144eb565b613a0b908861450a565b613a169060306144b2565b905060008160f81b905080848481518110613a3357613a336145dd565b60200101906001600160f81b031916908160001a905350613a55600a896144d7565b975050506139d6565b50949350505050565b6115ce828260405180602001604052806000815250613d2f565b60008080806064613a948661013a61449a565b613a9e919061459d565b905060006064613aaf87604861449a565b613ab9919061459d565b905060006064613acb8861998261449a565b613ad5919061459d565b9050600a9550600a9450600a9350605f8310613b1257613af6605f8461450a565b613b019060066144eb565b613b0b908761449a565b9550613b5f565b60508310613b30576050613b26848861449a565b613b0b919061450a565b82601411158015613b415750601e83105b15613b5f57600f613b52848861449a565b613b5c919061450a565b95505b605f8210613b8e57613b72605f8361450a565b613b7d9060066144eb565b613b87908661449a565b9450613bdb565b60508310613bac576050613ba2838761449a565b613b87919061450a565b81600a11158015613bbd5750601e82105b15613bdb576005613bce838761449a565b613bd8919061450a565b94505b60508110613c00576050613bef828661449a565b613bf9919061450a565b9350613c18565b613c0b600a826144d7565b613c15908561449a565b93505b5050509193909250565b60006001600160a01b0384163b15613d2457604051630a85bd0160e11b81526001600160a01b0385169063150b7a0290613c6690339089908890889060040161421e565b602060405180830381600087803b158015613c8057600080fd5b505af1925050508015613cb0575060408051601f3d908101601f19168201909252613cad918101906140f0565b60015b613d0a573d808015613cde576040519150601f19603f3d011682016040523d82523d6000602084013e613ce3565b606091505b508051613d025760405162461bcd60e51b8152600401610b24906142e3565b805181602001fd5b6001600160e01b031916630a85bd0160e11b14905061354f565b506001949350505050565b613d398383613d62565b613d466000848484613c22565b6111185760405162461bcd60e51b8152600401610b24906142e3565b6001600160a01b038216613db85760405162461bcd60e51b815260206004820181905260248201527f4552433732313a206d696e7420746f20746865207a65726f20616464726573736044820152606401610b24565b613dc18161321f565b15613e0e5760405162461bcd60e51b815260206004820152601c60248201527f4552433732313a20746f6b656e20616c7265616479206d696e746564000000006044820152606401610b24565b6001600160a01b0382166000908152600360205260408120805460019290613e3790849061449a565b909155505060008181526002602052604080822080546001600160a01b0319166001600160a01b03861690811790915590518392907fddf252ad1be2c89b69c2b068fc378daa952ba7f163c4a11628f55a4df523b3ef908290a45050565b60405180606001604052806003906020820280368337509192915050565b80356001600160a01b03811681146118d057600080fd5b803563ffffffff811681146118d057600080fd5b803560ff811681146118d057600080fd5b600060208284031215613f0157600080fd5b61298082613eb3565b60008060408385031215613f1d57600080fd5b613f2683613eb3565b9150613f3460208401613eb3565b90509250929050565b600080600060608486031215613f5257600080fd5b613f5b84613eb3565b9250613f6960208501613eb3565b9150604084013590509250925092565b60008060008060808587031215613f8f57600080fd5b613f9885613eb3565b9350613fa660208601613eb3565b925060408501359150606085013567ffffffffffffffff80821115613fca57600080fd5b818701915087601f830112613fde57600080fd5b813581811115613ff057613ff06145f3565b604051601f8201601f19908116603f01168101908382118183101715614018576140186145f3565b816040528281528a602084870101111561403157600080fd5b82602086016020830137600060208483010152809550505050505092959194509250565b6000806040838503121561406857600080fd5b61407183613eb3565b9150602083013561408181614609565b809150509250929050565b6000806040838503121561409f57600080fd5b6140a883613eb3565b946020939093013593505050565b6000602082840312156140c857600080fd5b815161298081614609565b6000602082840312156140e557600080fd5b813561298081614617565b60006020828403121561410257600080fd5b815161298081614617565b60006020828403121561411f57600080fd5b5035919050565b60006020828403121561413857600080fd5b5051919050565b60008060006060848603121561415457600080fd5b83359250613f6960208501613eca565b60008060006060848603121561417957600080fd5b8335925061418960208501613eca565b915061419760408501613ede565b90509250925092565b600080604083850312156141b357600080fd5b82359150613f3460208401613ede565b600081518084526141db816020860160208601614521565b601f01601f19169290920160200192915050565b60008351614201818460208801614521565b835190830190614215818360208801614521565b01949350505050565b6001600160a01b0385811682528416602082015260408101839052608060608201819052600090614251908301846141c3565b9695505050505050565b60608101818360005b6003811015614283578151835260209283019290910190600101614264565b50505092915050565b6020808252825182820181905260009190848201906040850190845b818110156142c4578351835292840192918401916001016142a8565b50909695505050505050565b60208152600061298060208301846141c3565b60208082526032908201527f4552433732313a207472616e7366657220746f206e6f6e20455243373231526560408201527131b2b4bb32b91034b6b83632b6b2b73a32b960711b606082015260800190565b60208082526032908201527f6f7468657220636f696e207479706573206e6f7420737570706f72746564207960408201527165742c206d7573742062652030206f72203160701b606082015260800190565b60208082526027908201527f796f7520646f206e6f7420686176652074686174206d616e7920646566656e736040820152666520636f696e7360c81b606082015260800190565b6020808252818101527f4f776e61626c653a2063616c6c6572206973206e6f7420746865206f776e6572604082015260600190565b60208082526031908201527f4552433732313a207472616e736665722063616c6c6572206973206e6f74206f6040820152701ddb995c881b9bdc88185c1c1c9bdd9959607a1b606082015260800190565b60208082526026908201527f796f7520646f206e6f7420686176652074686174206d616e792061747461636b60408201526520636f696e7360d01b606082015260800190565b600082198211156144ad576144ad6145b1565b500190565b600060ff821660ff84168060ff038211156144cf576144cf6145b1565b019392505050565b6000826144e6576144e66145c7565b500490565b6000816000190483118215151615614505576145056145b1565b500290565b60008282101561451c5761451c6145b1565b500390565b60005b8381101561453c578181015183820152602001614524565b838111156129635750506000910152565b600181811c9082168061456157607f821691505b6020821081141561161457634e487b7160e01b600052602260045260246000fd5b6000600019821415614596576145966145b1565b5060010190565b6000826145ac576145ac6145c7565b500690565b634e487b7160e01b600052601160045260246000fd5b634e487b7160e01b600052601260045260246000fd5b634e487b7160e01b600052603260045260246000fd5b634e487b7160e01b600052604160045260246000fd5b8015158114612e6c57600080fd5b6001600160e01b031981168114612e6c57600080fdfe68747470733a2f2f7777772e6b696e67646f6d63727970746f2e636f6d2f7469746c65732fa2646970667358221220714faaa384c16e412287ba515efa9f0cd26e1e103b0c4e22448b2d3a6b403fba64736f6c63430008070033",
			"opcodes": "PUSH1 0x80 PUSH1 0x40 MSTORE PUSH1 0x6 DUP1 SLOAD PUSH4 0xFFFFFFFF PUSH1 0xA0 SHL NOT AND PUSH4 0x5040505 PUSH1 0xA1 SHL OR SWAP1 SSTORE PUSH1 0x3C PUSH1 0x7 SSTORE PUSH1 0x0 PUSH1 0x8 DUP2 SWAP1 SSTORE PUSH1 0x9 DUP2 SWAP1 SSTORE PUSH1 0xA SSTORE CALLVALUE DUP1 ISZERO PUSH3 0x3E JUMPI PUSH1 0x0 DUP1 REVERT JUMPDEST POP PUSH1 0x40 MLOAD PUSH3 0x498A CODESIZE SUB DUP1 PUSH3 0x498A DUP4 CODECOPY DUP2 ADD PUSH1 0x40 DUP2 SWAP1 MSTORE PUSH3 0x61 SWAP2 PUSH3 0x248 JUMP JUMPDEST DUP3 DUP3 DUP3 DUP3 DUP3 DUP3 PUSH1 0x40 MLOAD DUP1 PUSH1 0x40 ADD PUSH1 0x40 MSTORE DUP1 PUSH1 0xE DUP2 MSTORE PUSH1 0x20 ADD PUSH14 0x4B696E67646F6D205469746C6573 PUSH1 0x90 SHL DUP2 MSTORE POP PUSH1 0x40 MLOAD DUP1 PUSH1 0x40 ADD PUSH1 0x40 MSTORE DUP1 PUSH1 0x3 DUP2 MSTORE PUSH1 0x20 ADD PUSH3 0x12D1D1 PUSH1 0xEA SHL DUP2 MSTORE POP DUP2 PUSH1 0x0 SWAP1 DUP1 MLOAD SWAP1 PUSH1 0x20 ADD SWAP1 PUSH3 0xC2 SWAP3 SWAP2 SWAP1 PUSH3 0x1A2 JUMP JUMPDEST POP DUP1 MLOAD PUSH3 0xD8 SWAP1 PUSH1 0x1 SWAP1 PUSH1 0x20 DUP5 ADD SWAP1 PUSH3 0x1A2 JUMP JUMPDEST POP POP POP PUSH3 0xF5 PUSH3 0xEF PUSH3 0x14C PUSH1 0x20 SHL PUSH1 0x20 SHR JUMP JUMPDEST PUSH3 0x150 JUMP JUMPDEST PUSH1 0xB DUP1 SLOAD PUSH1 0x1 PUSH1 0x1 PUSH1 0xA0 SHL SUB SWAP5 DUP6 AND PUSH1 0x1 PUSH1 0x1 PUSH1 0xA0 SHL SUB NOT SWAP2 DUP3 AND OR SWAP1 SWAP2 SSTORE PUSH1 0xC DUP1 SLOAD SWAP4 DUP6 AND SWAP4 DUP3 AND SWAP4 SWAP1 SWAP4 OR SWAP1 SWAP3 SSTORE PUSH1 0xD DUP1 SLOAD SWAP2 SWAP1 SWAP4 AND SWAP2 AND OR SWAP1 SSTORE POP POP PUSH1 0x0 PUSH3 0x11180 SSTORE POP POP TIMESTAMP PUSH3 0x11182 SSTORE POP PUSH3 0x2F2 SWAP1 POP JUMP JUMPDEST CALLER SWAP1 JUMP JUMPDEST PUSH1 0x6 DUP1 SLOAD PUSH1 0x1 PUSH1 0x1 PUSH1 0xA0 SHL SUB DUP4 DUP2 AND PUSH1 0x1 PUSH1 0x1 PUSH1 0xA0 SHL SUB NOT DUP4 AND DUP2 OR SWAP1 SWAP4 SSTORE PUSH1 0x40 MLOAD SWAP2 AND SWAP2 SWAP1 DUP3 SWAP1 PUSH32 0x8BE0079C531659141344CD1FD0A4F28419497F9722A3DAAFE3B4186F6B6457E0 SWAP1 PUSH1 0x0 SWAP1 LOG3 POP POP JUMP JUMPDEST DUP3 DUP1 SLOAD PUSH3 0x1B0 SWAP1 PUSH3 0x29C JUMP JUMPDEST SWAP1 PUSH1 0x0 MSTORE PUSH1 0x20 PUSH1 0x0 KECCAK256 SWAP1 PUSH1 0x1F ADD PUSH1 0x20 SWAP1 DIV DUP2 ADD SWAP3 DUP3 PUSH3 0x1D4 JUMPI PUSH1 0x0 DUP6 SSTORE PUSH3 0x21F JUMP JUMPDEST DUP3 PUSH1 0x1F LT PUSH3 0x1EF JUMPI DUP1 MLOAD PUSH1 0xFF NOT AND DUP4 DUP1 ADD OR DUP6 SSTORE PUSH3 0x21F JUMP JUMPDEST DUP3 DUP1 ADD PUSH1 0x1 ADD DUP6 SSTORE DUP3 ISZERO PUSH3 0x21F JUMPI SWAP2 DUP3 ADD JUMPDEST DUP3 DUP2 GT ISZERO PUSH3 0x21F JUMPI DUP3 MLOAD DUP3 SSTORE SWAP2 PUSH1 0x20 ADD SWAP2 SWAP1 PUSH1 0x1 ADD SWAP1 PUSH3 0x202 JUMP JUMPDEST POP PUSH3 0x22D SWAP3 SWAP2 POP PUSH3 0x231 JUMP JUMPDEST POP SWAP1 JUMP JUMPDEST JUMPDEST DUP1 DUP3 GT ISZERO PUSH3 0x22D JUMPI PUSH1 0x0 DUP2 SSTORE PUSH1 0x1 ADD PUSH3 0x232 JUMP JUMPDEST PUSH1 0x0 DUP1 PUSH1 0x0 PUSH1 0x60 DUP5 DUP7 SUB SLT ISZERO PUSH3 0x25E JUMPI PUSH1 0x0 DUP1 REVERT JUMPDEST DUP4 MLOAD PUSH3 0x26B DUP2 PUSH3 0x2D9 JUMP JUMPDEST PUSH1 0x20 DUP6 ADD MLOAD SWAP1 SWAP4 POP PUSH3 0x27E DUP2 PUSH3 0x2D9 JUMP JUMPDEST PUSH1 0x40 DUP6 ADD MLOAD SWAP1 SWAP3 POP PUSH3 0x291 DUP2 PUSH3 0x2D9 JUMP JUMPDEST DUP1 SWAP2 POP POP SWAP3 POP SWAP3 POP SWAP3 JUMP JUMPDEST PUSH1 0x1 DUP2 DUP2 SHR SWAP1 DUP3 AND DUP1 PUSH3 0x2B1 JUMPI PUSH1 0x7F DUP3 AND SWAP2 POP JUMPDEST PUSH1 0x20 DUP3 LT DUP2 EQ ISZERO PUSH3 0x2D3 JUMPI PUSH4 0x4E487B71 PUSH1 0xE0 SHL PUSH1 0x0 MSTORE PUSH1 0x22 PUSH1 0x4 MSTORE PUSH1 0x24 PUSH1 0x0 REVERT JUMPDEST POP SWAP2 SWAP1 POP JUMP JUMPDEST PUSH1 0x1 PUSH1 0x1 PUSH1 0xA0 SHL SUB DUP2 AND DUP2 EQ PUSH3 0x2EF JUMPI PUSH1 0x0 DUP1 REVERT JUMPDEST POP JUMP JUMPDEST PUSH2 0x4688 DUP1 PUSH3 0x302 PUSH1 0x0 CODECOPY PUSH1 0x0 RETURN INVALID PUSH1 0x80 PUSH1 0x40 MSTORE PUSH1 0x4 CALLDATASIZE LT PUSH2 0x334 JUMPI PUSH1 0x0 CALLDATALOAD PUSH1 0xE0 SHR DUP1 PUSH4 0x802BEA6E GT PUSH2 0x1AB JUMPI DUP1 PUSH4 0xC669B710 GT PUSH2 0xF7 JUMPI DUP1 PUSH4 0xE985E9C5 GT PUSH2 0x95 JUMPI DUP1 PUSH4 0xF2FB2120 GT PUSH2 0x6F JUMPI DUP1 PUSH4 0xF2FB2120 EQ PUSH2 0x9DF JUMPI DUP1 PUSH4 0xF2FDE38B EQ PUSH2 0x9FF JUMPI DUP1 PUSH4 0xF4FD44F1 EQ PUSH2 0xA1F JUMPI DUP1 PUSH4 0xFA4FACDB EQ PUSH2 0xA4E JUMPI PUSH1 0x0 DUP1 REVERT JUMPDEST DUP1 PUSH4 0xE985E9C5 EQ PUSH2 0x960 JUMPI DUP1 PUSH4 0xEB8FD9A3 EQ PUSH2 0x9A9 JUMPI DUP1 PUSH4 0xF08B7B73 EQ PUSH2 0x9BF JUMPI PUSH1 0x0 DUP1 REVERT JUMPDEST DUP1 PUSH4 0xD534D636 GT PUSH2 0xD1 JUMPI DUP1 PUSH4 0xD534D636 EQ PUSH2 0x923 JUMPI DUP1 PUSH4 0xE046670B EQ PUSH2 0x93A JUMPI DUP1 PUSH4 0xE10270C6 EQ PUSH2 0x940 JUMPI DUP1 PUSH4 0xE73961F5 EQ PUSH2 0x42E JUMPI PUSH1 0x0 DUP1 REVERT JUMPDEST DUP1 PUSH4 0xC669B710 EQ PUSH2 0x8C1 JUMPI DUP1 PUSH4 0xC87B56DD EQ PUSH2 0x8E2 JUMPI DUP1 PUSH4 0xD4637DDB EQ PUSH2 0x902 JUMPI PUSH1 0x0 DUP1 REVERT JUMPDEST DUP1 PUSH4 0x900294BE GT PUSH2 0x164 JUMPI DUP1 PUSH4 0xB88D4FDE GT PUSH2 0x13E JUMPI DUP1 PUSH4 0xB88D4FDE EQ PUSH2 0x83E JUMPI DUP1 PUSH4 0xC03D5B47 EQ PUSH2 0x85E JUMPI DUP1 PUSH4 0xC3983149 EQ PUSH2 0x874 JUMPI DUP1 PUSH4 0xC4A3A1FC EQ PUSH2 0x894 JUMPI PUSH1 0x0 DUP1 REVERT JUMPDEST DUP1 PUSH4 0x900294BE EQ PUSH2 0x7E9 JUMPI DUP1 PUSH4 0x95D89B41 EQ PUSH2 0x809 JUMPI DUP1 PUSH4 0xA22CB465 EQ PUSH2 0x81E JUMPI PUSH1 0x0 DUP1 REVERT JUMPDEST DUP1 PUSH4 0x802BEA6E EQ PUSH2 0x72F JUMPI DUP1 PUSH4 0x839B9205 EQ PUSH2 0x75E JUMPI DUP1 PUSH4 0x84505E6A EQ PUSH2 0x774 JUMPI DUP1 PUSH4 0x853EAB57 EQ PUSH2 0x796 JUMPI DUP1 PUSH4 0x8DA5CB5B EQ PUSH2 0x7B6 JUMPI DUP1 PUSH4 0x8ED955B9 EQ PUSH2 0x7D4 JUMPI PUSH1 0x0 DUP1 REVERT JUMPDEST DUP1 PUSH4 0x266C79EF GT PUSH2 0x285 JUMPI DUP1 PUSH4 0x5BCABF04 GT PUSH2 0x223 JUMPI DUP1 PUSH4 0x6A7A2FA3 GT PUSH2 0x1FD JUMPI DUP1 PUSH4 0x6A7A2FA3 EQ PUSH2 0x6B9 JUMPI DUP1 PUSH4 0x70A08231 EQ PUSH2 0x6DA JUMPI DUP1 PUSH4 0x715018A6 EQ PUSH2 0x6FA JUMPI DUP1 PUSH4 0x7C62539A EQ PUSH2 0x70F JUMPI PUSH1 0x0 DUP1 REVERT JUMPDEST DUP1 PUSH4 0x5BCABF04 EQ PUSH2 0x64F JUMPI DUP1 PUSH4 0x5E1BB546 EQ PUSH2 0x664 JUMPI DUP1 PUSH4 0x6352211E EQ PUSH2 0x699 JUMPI PUSH1 0x0 DUP1 REVERT JUMPDEST DUP1 PUSH4 0x411EE0D0 GT PUSH2 0x25F JUMPI DUP1 PUSH4 0x411EE0D0 EQ PUSH2 0x59C JUMPI DUP1 PUSH4 0x42842E0E EQ PUSH2 0x5BC JUMPI DUP1 PUSH4 0x429C3EDF EQ PUSH2 0x5DC JUMPI DUP1 PUSH4 0x437ACE21 EQ PUSH2 0x5FC JUMPI PUSH1 0x0 DUP1 REVERT JUMPDEST DUP1 PUSH4 0x266C79EF EQ PUSH2 0x529 JUMPI DUP1 PUSH4 0x2756985C EQ PUSH2 0x549 JUMPI DUP1 PUSH4 0x3BA0B9A9 EQ PUSH2 0x569 JUMPI PUSH1 0x0 DUP1 REVERT JUMPDEST DUP1 PUSH4 0x895BA53 GT PUSH2 0x2F2 JUMPI DUP1 PUSH4 0x16807E15 GT PUSH2 0x2CC JUMPI DUP1 PUSH4 0x16807E15 EQ PUSH2 0x46B JUMPI DUP1 PUSH4 0x18160DDD EQ PUSH2 0x48B JUMPI DUP1 PUSH4 0x1CF95ED6 EQ PUSH2 0x4B4 JUMPI DUP1 PUSH4 0x23B872DD EQ PUSH2 0x509 JUMPI PUSH1 0x0 DUP1 REVERT JUMPDEST DUP1 PUSH4 0x895BA53 EQ PUSH2 0x42E JUMPI DUP1 PUSH4 0x95EA7B3 EQ PUSH2 0x443 JUMPI DUP1 PUSH4 0x10F7E4ED EQ PUSH2 0x463 JUMPI PUSH1 0x0 DUP1 REVERT JUMPDEST DUP1 PUSH3 0xA5180 EQ PUSH2 0x339 JUMPI DUP1 PUSH4 0x1FFC9A7 EQ PUSH2 0x362 JUMPI DUP1 PUSH4 0x619F932 EQ PUSH2 0x392 JUMPI DUP1 PUSH4 0x6FDDE03 EQ PUSH2 0x3B4 JUMPI DUP1 PUSH4 0x73077EC EQ PUSH2 0x3D6 JUMPI DUP1 PUSH4 0x81812FC EQ PUSH2 0x3F6 JUMPI JUMPDEST PUSH1 0x0 DUP1 REVERT JUMPDEST CALLVALUE DUP1 ISZERO PUSH2 0x345 JUMPI PUSH1 0x0 DUP1 REVERT JUMPDEST POP PUSH2 0x34F PUSH1 0x9 SLOAD DUP2 JUMP JUMPDEST PUSH1 0x40 MLOAD SWAP1 DUP2 MSTORE PUSH1 0x20 ADD JUMPDEST PUSH1 0x40 MLOAD DUP1 SWAP2 SUB SWAP1 RETURN JUMPDEST CALLVALUE DUP1 ISZERO PUSH2 0x36E JUMPI PUSH1 0x0 DUP1 REVERT JUMPDEST POP PUSH2 0x382 PUSH2 0x37D CALLDATASIZE PUSH1 0x4 PUSH2 0x40D3 JUMP JUMPDEST PUSH2 0xA63 JUMP JUMPDEST PUSH1 0x40 MLOAD SWAP1 ISZERO ISZERO DUP2 MSTORE PUSH1 0x20 ADD PUSH2 0x359 JUMP JUMPDEST CALLVALUE DUP1 ISZERO PUSH2 0x39E JUMPI PUSH1 0x0 DUP1 REVERT JUMPDEST POP PUSH2 0x3B2 PUSH2 0x3AD CALLDATASIZE PUSH1 0x4 PUSH2 0x410D JUMP JUMPDEST PUSH2 0xAB5 JUMP JUMPDEST STOP JUMPDEST CALLVALUE DUP1 ISZERO PUSH2 0x3C0 JUMPI PUSH1 0x0 DUP1 REVERT JUMPDEST POP PUSH2 0x3C9 PUSH2 0xEBB JUMP JUMPDEST PUSH1 0x40 MLOAD PUSH2 0x359 SWAP2 SWAP1 PUSH2 0x42D0 JUMP JUMPDEST CALLVALUE DUP1 ISZERO PUSH2 0x3E2 JUMPI PUSH1 0x0 DUP1 REVERT JUMPDEST POP PUSH2 0x3B2 PUSH2 0x3F1 CALLDATASIZE PUSH1 0x4 PUSH2 0x4164 JUMP JUMPDEST PUSH2 0xF4D JUMP JUMPDEST CALLVALUE DUP1 ISZERO PUSH2 0x402 JUMPI PUSH1 0x0 DUP1 REVERT JUMPDEST POP PUSH2 0x416 PUSH2 0x411 CALLDATASIZE PUSH1 0x4 PUSH2 0x410D JUMP JUMPDEST PUSH2 0x11C6 JUMP JUMPDEST PUSH1 0x40 MLOAD PUSH1 0x1 PUSH1 0x1 PUSH1 0xA0 SHL SUB SWAP1 SWAP2 AND DUP2 MSTORE PUSH1 0x20 ADD PUSH2 0x359 JUMP JUMPDEST CALLVALUE DUP1 ISZERO PUSH2 0x43A JUMPI PUSH1 0x0 DUP1 REVERT JUMPDEST POP PUSH2 0x34F PUSH1 0x3C DUP2 JUMP JUMPDEST CALLVALUE DUP1 ISZERO PUSH2 0x44F JUMPI PUSH1 0x0 DUP1 REVERT JUMPDEST POP PUSH2 0x3B2 PUSH2 0x45E CALLDATASIZE PUSH1 0x4 PUSH2 0x408C JUMP JUMPDEST PUSH2 0x124E JUMP JUMPDEST PUSH2 0x3B2 PUSH2 0x135F JUMP JUMPDEST CALLVALUE DUP1 ISZERO PUSH2 0x477 JUMPI PUSH1 0x0 DUP1 REVERT JUMPDEST POP PUSH2 0x34F PUSH2 0x486 CALLDATASIZE PUSH1 0x4 PUSH2 0x410D JUMP JUMPDEST PUSH2 0x15D2 JUMP JUMPDEST CALLVALUE DUP1 ISZERO PUSH2 0x497 JUMPI PUSH1 0x0 DUP1 REVERT JUMPDEST POP PUSH2 0x4A1 PUSH2 0x2710 DUP2 JUMP JUMPDEST PUSH1 0x40 MLOAD PUSH2 0xFFFF SWAP1 SWAP2 AND DUP2 MSTORE PUSH1 0x20 ADD PUSH2 0x359 JUMP JUMPDEST CALLVALUE DUP1 ISZERO PUSH2 0x4C0 JUMPI PUSH1 0x0 DUP1 REVERT JUMPDEST POP PUSH2 0x4D4 PUSH2 0x4CF CALLDATASIZE PUSH1 0x4 PUSH2 0x410D JUMP JUMPDEST PUSH2 0x161A JUMP JUMPDEST PUSH1 0x40 DUP1 MLOAD SWAP8 DUP9 MSTORE PUSH1 0x20 DUP9 ADD SWAP7 SWAP1 SWAP7 MSTORE SWAP5 DUP7 ADD SWAP4 SWAP1 SWAP4 MSTORE PUSH1 0x60 DUP6 ADD SWAP2 SWAP1 SWAP2 MSTORE PUSH1 0x80 DUP5 ADD MSTORE PUSH1 0xA0 DUP4 ADD MSTORE PUSH1 0xC0 DUP3 ADD MSTORE PUSH1 0xE0 ADD PUSH2 0x359 JUMP JUMPDEST CALLVALUE DUP1 ISZERO PUSH2 0x515 JUMPI PUSH1 0x0 DUP1 REVERT JUMPDEST POP PUSH2 0x3B2 PUSH2 0x524 CALLDATASIZE PUSH1 0x4 PUSH2 0x3F3D JUMP JUMPDEST PUSH2 0x165E JUMP JUMPDEST CALLVALUE DUP1 ISZERO PUSH2 0x535 JUMPI PUSH1 0x0 DUP1 REVERT JUMPDEST POP PUSH2 0x34F PUSH2 0x544 CALLDATASIZE PUSH1 0x4 PUSH2 0x410D JUMP JUMPDEST PUSH2 0x168F JUMP JUMPDEST CALLVALUE DUP1 ISZERO PUSH2 0x555 JUMPI PUSH1 0x0 DUP1 REVERT JUMPDEST POP PUSH2 0x382 PUSH2 0x564 CALLDATASIZE PUSH1 0x4 PUSH2 0x410D JUMP JUMPDEST PUSH2 0x1759 JUMP JUMPDEST CALLVALUE DUP1 ISZERO PUSH2 0x575 JUMPI PUSH1 0x0 DUP1 REVERT JUMPDEST POP PUSH1 0x6 SLOAD PUSH2 0x58A SWAP1 PUSH1 0x1 PUSH1 0xA0 SHL SWAP1 DIV PUSH1 0xFF AND DUP2 JUMP JUMPDEST PUSH1 0x40 MLOAD PUSH1 0xFF SWAP1 SWAP2 AND DUP2 MSTORE PUSH1 0x20 ADD PUSH2 0x359 JUMP JUMPDEST CALLVALUE DUP1 ISZERO PUSH2 0x5A8 JUMPI PUSH1 0x0 DUP1 REVERT JUMPDEST POP PUSH1 0xD SLOAD PUSH2 0x416 SWAP1 PUSH1 0x1 PUSH1 0x1 PUSH1 0xA0 SHL SUB AND DUP2 JUMP JUMPDEST CALLVALUE DUP1 ISZERO PUSH2 0x5C8 JUMPI PUSH1 0x0 DUP1 REVERT JUMPDEST POP PUSH2 0x3B2 PUSH2 0x5D7 CALLDATASIZE PUSH1 0x4 PUSH2 0x3F3D JUMP JUMPDEST PUSH2 0x18D5 JUMP JUMPDEST CALLVALUE DUP1 ISZERO PUSH2 0x5E8 JUMPI PUSH1 0x0 DUP1 REVERT JUMPDEST POP PUSH2 0x3B2 PUSH2 0x5F7 CALLDATASIZE PUSH1 0x4 PUSH2 0x41A0 JUMP JUMPDEST PUSH2 0x18F0 JUMP JUMPDEST CALLVALUE DUP1 ISZERO PUSH2 0x608 JUMPI PUSH1 0x0 DUP1 REVERT JUMPDEST POP PUSH2 0x61C PUSH2 0x617 CALLDATASIZE PUSH1 0x4 PUSH2 0x410D JUMP JUMPDEST PUSH2 0x1D10 JUMP JUMPDEST PUSH1 0x40 DUP1 MLOAD SWAP7 DUP8 MSTORE PUSH1 0x20 DUP8 ADD SWAP6 SWAP1 SWAP6 MSTORE SWAP3 ISZERO ISZERO SWAP4 DUP6 ADD SWAP4 SWAP1 SWAP4 MSTORE PUSH1 0x60 DUP5 ADD MSTORE PUSH1 0x80 DUP4 ADD SWAP2 SWAP1 SWAP2 MSTORE PUSH1 0xA0 DUP3 ADD MSTORE PUSH1 0xC0 ADD PUSH2 0x359 JUMP JUMPDEST CALLVALUE DUP1 ISZERO PUSH2 0x65B JUMPI PUSH1 0x0 DUP1 REVERT JUMPDEST POP PUSH2 0x3C9 PUSH2 0x1E3E JUMP JUMPDEST CALLVALUE DUP1 ISZERO PUSH2 0x670 JUMPI PUSH1 0x0 DUP1 REVERT JUMPDEST POP PUSH2 0x684 PUSH2 0x67F CALLDATASIZE PUSH1 0x4 PUSH2 0x410D JUMP JUMPDEST PUSH2 0x1E5A JUMP JUMPDEST PUSH1 0x40 DUP1 MLOAD SWAP3 DUP4 MSTORE PUSH1 0x20 DUP4 ADD SWAP2 SWAP1 SWAP2 MSTORE ADD PUSH2 0x359 JUMP JUMPDEST CALLVALUE DUP1 ISZERO PUSH2 0x6A5 JUMPI PUSH1 0x0 DUP1 REVERT JUMPDEST POP PUSH2 0x416 PUSH2 0x6B4 CALLDATASIZE PUSH1 0x4 PUSH2 0x410D JUMP JUMPDEST PUSH2 0x1EEB JUMP JUMPDEST CALLVALUE DUP1 ISZERO PUSH2 0x6C5 JUMPI PUSH1 0x0 DUP1 REVERT JUMPDEST POP PUSH1 0x6 SLOAD PUSH2 0x58A SWAP1 PUSH1 0x1 PUSH1 0xB8 SHL SWAP1 DIV PUSH1 0xFF AND DUP2 JUMP JUMPDEST CALLVALUE DUP1 ISZERO PUSH2 0x6E6 JUMPI PUSH1 0x0 DUP1 REVERT JUMPDEST POP PUSH2 0x34F PUSH2 0x6F5 CALLDATASIZE PUSH1 0x4 PUSH2 0x3EEF JUMP JUMPDEST PUSH2 0x1F62 JUMP JUMPDEST CALLVALUE DUP1 ISZERO PUSH2 0x706 JUMPI PUSH1 0x0 DUP1 REVERT JUMPDEST POP PUSH2 0x3B2 PUSH2 0x1FE9 JUMP JUMPDEST CALLVALUE DUP1 ISZERO PUSH2 0x71B JUMPI PUSH1 0x0 DUP1 REVERT JUMPDEST POP PUSH1 0xC SLOAD PUSH2 0x416 SWAP1 PUSH1 0x1 PUSH1 0x1 PUSH1 0xA0 SHL SUB AND DUP2 JUMP JUMPDEST CALLVALUE DUP1 ISZERO PUSH2 0x73B JUMPI PUSH1 0x0 DUP1 REVERT JUMPDEST POP PUSH2 0x34F PUSH2 0x74A CALLDATASIZE PUSH1 0x4 PUSH2 0x410D JUMP JUMPDEST PUSH1 0x0 SWAP1 DUP2 MSTORE PUSH3 0x1117F PUSH1 0x20 MSTORE PUSH1 0x40 SWAP1 KECCAK256 SLOAD SWAP1 JUMP JUMPDEST CALLVALUE DUP1 ISZERO PUSH2 0x76A JUMPI PUSH1 0x0 DUP1 REVERT JUMPDEST POP PUSH2 0x34F PUSH1 0xA SLOAD DUP2 JUMP JUMPDEST CALLVALUE DUP1 ISZERO PUSH2 0x780 JUMPI PUSH1 0x0 DUP1 REVERT JUMPDEST POP PUSH2 0x789 PUSH2 0x201F JUMP JUMPDEST PUSH1 0x40 MLOAD PUSH2 0x359 SWAP2 SWAP1 PUSH2 0x425B JUMP JUMPDEST CALLVALUE DUP1 ISZERO PUSH2 0x7A2 JUMPI PUSH1 0x0 DUP1 REVERT JUMPDEST POP PUSH2 0x3B2 PUSH2 0x7B1 CALLDATASIZE PUSH1 0x4 PUSH2 0x413F JUMP JUMPDEST PUSH2 0x2194 JUMP JUMPDEST CALLVALUE DUP1 ISZERO PUSH2 0x7C2 JUMPI PUSH1 0x0 DUP1 REVERT JUMPDEST POP PUSH1 0x6 SLOAD PUSH1 0x1 PUSH1 0x1 PUSH1 0xA0 SHL SUB AND PUSH2 0x416 JUMP JUMPDEST CALLVALUE DUP1 ISZERO PUSH2 0x7E0 JUMPI PUSH1 0x0 DUP1 REVERT JUMPDEST POP PUSH2 0x382 PUSH2 0x256B JUMP JUMPDEST CALLVALUE DUP1 ISZERO PUSH2 0x7F5 JUMPI PUSH1 0x0 DUP1 REVERT JUMPDEST POP PUSH1 0xB SLOAD PUSH2 0x416 SWAP1 PUSH1 0x1 PUSH1 0x1 PUSH1 0xA0 SHL SUB AND DUP2 JUMP JUMPDEST CALLVALUE DUP1 ISZERO PUSH2 0x815 JUMPI PUSH1 0x0 DUP1 REVERT JUMPDEST POP PUSH2 0x3C9 PUSH2 0x285D JUMP JUMPDEST CALLVALUE DUP1 ISZERO PUSH2 0x82A JUMPI PUSH1 0x0 DUP1 REVERT JUMPDEST POP PUSH2 0x3B2 PUSH2 0x839 CALLDATASIZE PUSH1 0x4 PUSH2 0x4055 JUMP JUMPDEST PUSH2 0x286C JUMP JUMPDEST CALLVALUE DUP1 ISZERO PUSH2 0x84A JUMPI PUSH1 0x0 DUP1 REVERT JUMPDEST POP PUSH2 0x3B2 PUSH2 0x859 CALLDATASIZE PUSH1 0x4 PUSH2 0x3F79 JUMP JUMPDEST PUSH2 0x2931 JUMP JUMPDEST CALLVALUE DUP1 ISZERO PUSH2 0x86A JUMPI PUSH1 0x0 DUP1 REVERT JUMPDEST POP PUSH2 0x34F PUSH1 0x7 SLOAD DUP2 JUMP JUMPDEST CALLVALUE DUP1 ISZERO PUSH2 0x880 JUMPI PUSH1 0x0 DUP1 REVERT JUMPDEST POP PUSH2 0x34F PUSH2 0x88F CALLDATASIZE PUSH1 0x4 PUSH2 0x410D JUMP JUMPDEST PUSH2 0x2969 JUMP JUMPDEST CALLVALUE DUP1 ISZERO PUSH2 0x8A0 JUMPI PUSH1 0x0 DUP1 REVERT JUMPDEST POP PUSH2 0x8B4 PUSH2 0x8AF CALLDATASIZE PUSH1 0x4 PUSH2 0x3EEF JUMP JUMPDEST PUSH2 0x2987 JUMP JUMPDEST PUSH1 0x40 MLOAD PUSH2 0x359 SWAP2 SWAP1 PUSH2 0x428C JUMP JUMPDEST CALLVALUE DUP1 ISZERO PUSH2 0x8CD JUMPI PUSH1 0x0 DUP1 REVERT JUMPDEST POP PUSH1 0x6 SLOAD PUSH2 0x58A SWAP1 PUSH1 0x1 PUSH1 0xA8 SHL SWAP1 DIV PUSH1 0xFF AND DUP2 JUMP JUMPDEST CALLVALUE DUP1 ISZERO PUSH2 0x8EE JUMPI PUSH1 0x0 DUP1 REVERT JUMPDEST POP PUSH2 0x3C9 PUSH2 0x8FD CALLDATASIZE PUSH1 0x4 PUSH2 0x410D JUMP JUMPDEST PUSH2 0x29F5 JUMP JUMPDEST CALLVALUE DUP1 ISZERO PUSH2 0x90E JUMPI PUSH1 0x0 DUP1 REVERT JUMPDEST POP PUSH1 0x6 SLOAD PUSH2 0x58A SWAP1 PUSH1 0x1 PUSH1 0xB0 SHL SWAP1 DIV PUSH1 0xFF AND DUP2 JUMP JUMPDEST CALLVALUE DUP1 ISZERO PUSH2 0x92F JUMPI PUSH1 0x0 DUP1 REVERT JUMPDEST POP PUSH3 0x11180 SLOAD PUSH2 0x34F JUMP JUMPDEST SELFBALANCE PUSH2 0x34F JUMP JUMPDEST CALLVALUE DUP1 ISZERO PUSH2 0x94C JUMPI PUSH1 0x0 DUP1 REVERT JUMPDEST POP PUSH2 0x8B4 PUSH2 0x95B CALLDATASIZE PUSH1 0x4 PUSH2 0x3EEF JUMP JUMPDEST PUSH2 0x2AAF JUMP JUMPDEST CALLVALUE DUP1 ISZERO PUSH2 0x96C JUMPI PUSH1 0x0 DUP1 REVERT JUMPDEST POP PUSH2 0x382 PUSH2 0x97B CALLDATASIZE PUSH1 0x4 PUSH2 0x3F0A JUMP JUMPDEST PUSH1 0x1 PUSH1 0x1 PUSH1 0xA0 SHL SUB SWAP2 DUP3 AND PUSH1 0x0 SWAP1 DUP2 MSTORE PUSH1 0x5 PUSH1 0x20 SWAP1 DUP2 MSTORE PUSH1 0x40 DUP1 DUP4 KECCAK256 SWAP4 SWAP1 SWAP5 AND DUP3 MSTORE SWAP2 SWAP1 SWAP2 MSTORE KECCAK256 SLOAD PUSH1 0xFF AND SWAP1 JUMP JUMPDEST CALLVALUE DUP1 ISZERO PUSH2 0x9B5 JUMPI PUSH1 0x0 DUP1 REVERT JUMPDEST POP PUSH2 0x34F PUSH1 0x8 SLOAD DUP2 JUMP JUMPDEST CALLVALUE DUP1 ISZERO PUSH2 0x9CB JUMPI PUSH1 0x0 DUP1 REVERT JUMPDEST POP PUSH2 0x34F PUSH2 0x9DA CALLDATASIZE PUSH1 0x4 PUSH2 0x408C JUMP JUMPDEST PUSH2 0x2BDA JUMP JUMPDEST CALLVALUE DUP1 ISZERO PUSH2 0x9EB JUMPI PUSH1 0x0 DUP1 REVERT JUMPDEST POP PUSH2 0x34F PUSH2 0x9FA CALLDATASIZE PUSH1 0x4 PUSH2 0x3EEF JUMP JUMPDEST PUSH2 0x2C0D JUMP JUMPDEST CALLVALUE DUP1 ISZERO PUSH2 0xA0B JUMPI PUSH1 0x0 DUP1 REVERT JUMPDEST POP PUSH2 0x3B2 PUSH2 0xA1A CALLDATASIZE PUSH1 0x4 PUSH2 0x3EEF JUMP JUMPDEST PUSH2 0x2DD4 JUMP JUMPDEST CALLVALUE DUP1 ISZERO PUSH2 0xA2B JUMPI PUSH1 0x0 DUP1 REVERT JUMPDEST POP PUSH2 0x34F PUSH2 0xA3A CALLDATASIZE PUSH1 0x4 PUSH2 0x410D JUMP JUMPDEST PUSH3 0x1117F PUSH1 0x20 MSTORE PUSH1 0x0 SWAP1 DUP2 MSTORE PUSH1 0x40 SWAP1 KECCAK256 SLOAD DUP2 JUMP JUMPDEST CALLVALUE DUP1 ISZERO PUSH2 0xA5A JUMPI PUSH1 0x0 DUP1 REVERT JUMPDEST POP PUSH2 0x789 PUSH2 0x2E6F JUMP JUMPDEST PUSH1 0x0 PUSH1 0x1 PUSH1 0x1 PUSH1 0xE0 SHL SUB NOT DUP3 AND PUSH4 0x80AC58CD PUSH1 0xE0 SHL EQ DUP1 PUSH2 0xA94 JUMPI POP PUSH1 0x1 PUSH1 0x1 PUSH1 0xE0 SHL SUB NOT DUP3 AND PUSH4 0x5B5E139F PUSH1 0xE0 SHL EQ JUMPDEST DUP1 PUSH2 0xAAF JUMPI POP PUSH4 0x1FFC9A7 PUSH1 0xE0 SHL PUSH1 0x1 PUSH1 0x1 PUSH1 0xE0 SHL SUB NOT DUP4 AND EQ JUMPDEST SWAP3 SWAP2 POP POP JUMP JUMPDEST PUSH1 0x0 PUSH2 0xAC0 CALLER PUSH2 0x1F62 JUMP JUMPDEST GT PUSH2 0xB2D JUMPI PUSH1 0x40 MLOAD PUSH3 0x461BCD PUSH1 0xE5 SHL DUP2 MSTORE PUSH1 0x20 PUSH1 0x4 DUP3 ADD MSTORE PUSH1 0x32 PUSH1 0x24 DUP3 ADD MSTORE PUSH32 0x746F2075736520746869732066756E6374696F6E20796F75206E656564206120 PUSH1 0x44 DUP3 ADD MSTORE PUSH18 0x7469746C652120676F20627579206F6E6521 PUSH1 0x70 SHL PUSH1 0x64 DUP3 ADD MSTORE PUSH1 0x84 ADD JUMPDEST PUSH1 0x40 MLOAD DUP1 SWAP2 SUB SWAP1 REVERT JUMPDEST CALLER PUSH2 0xB37 DUP3 PUSH2 0x1EEB JUMP JUMPDEST PUSH1 0x1 PUSH1 0x1 PUSH1 0xA0 SHL SUB AND EQ PUSH2 0xBAA JUMPI PUSH1 0x40 MLOAD PUSH3 0x461BCD PUSH1 0xE5 SHL DUP2 MSTORE PUSH1 0x20 PUSH1 0x4 DUP3 ADD MSTORE PUSH1 0x34 PUSH1 0x24 DUP3 ADD MSTORE PUSH32 0x736F7272792C206F6E6C7920746865206F776E6572206F662061207469746C65 PUSH1 0x44 DUP3 ADD MSTORE PUSH20 0x2063616E2061747461636B2068697320626F7373 PUSH1 0x60 SHL PUSH1 0x64 DUP3 ADD MSTORE PUSH1 0x84 ADD PUSH2 0xB24 JUMP JUMPDEST PUSH1 0x0 PUSH1 0x40 MLOAD DUP1 PUSH2 0x160 ADD PUSH1 0x40 MSTORE DUP1 PUSH1 0x0 ISZERO ISZERO DUP2 MSTORE PUSH1 0x20 ADD DUP4 DUP2 MSTORE PUSH1 0x20 ADD PUSH2 0xBD0 DUP5 PUSH2 0x2969 JUMP JUMPDEST DUP2 MSTORE PUSH1 0x20 ADD PUSH2 0xBE1 PUSH2 0x6B4 DUP6 PUSH2 0x2969 JUMP JUMPDEST PUSH1 0x1 PUSH1 0x1 PUSH1 0xA0 SHL SUB AND DUP2 MSTORE PUSH1 0x20 ADD PUSH1 0x0 DUP2 MSTORE PUSH1 0x20 ADD PUSH1 0x0 DUP2 MSTORE PUSH1 0x20 ADD PUSH1 0x0 ISZERO ISZERO DUP2 MSTORE PUSH1 0x20 ADD PUSH1 0x0 DUP2 MSTORE PUSH1 0x20 ADD PUSH1 0x0 DUP2 MSTORE PUSH1 0x20 ADD PUSH1 0x0 DUP2 MSTORE PUSH1 0x20 ADD PUSH1 0x0 DUP2 MSTORE POP SWAP1 POP CALLER PUSH1 0x1 PUSH1 0x1 PUSH1 0xA0 SHL SUB AND DUP2 PUSH1 0x60 ADD MLOAD PUSH1 0x1 PUSH1 0x1 PUSH1 0xA0 SHL SUB AND EQ ISZERO PUSH2 0xC88 JUMPI PUSH1 0x40 MLOAD PUSH3 0x461BCD PUSH1 0xE5 SHL DUP2 MSTORE PUSH1 0x20 PUSH1 0x4 DUP3 ADD MSTORE PUSH1 0x1E PUSH1 0x24 DUP3 ADD MSTORE PUSH32 0x626F792C20646F6E27742061747461636B20796F757273656C6620706C7A0000 PUSH1 0x44 DUP3 ADD MSTORE PUSH1 0x64 ADD PUSH2 0xB24 JUMP JUMPDEST PUSH2 0xC91 DUP3 PUSH2 0x1D10 JUMP JUMPDEST POP POP PUSH2 0x120 DUP6 ADD MSTORE ISZERO ISZERO PUSH1 0xC0 DUP5 ADD MSTORE POP PUSH1 0xE0 DUP3 ADD MSTORE PUSH1 0x40 DUP2 ADD MLOAD PUSH2 0xCB4 SWAP1 PUSH2 0x1D10 JUMP JUMPDEST POP PUSH2 0x140 DUP7 ADD DUP2 SWAP1 MSTORE PUSH2 0x100 DUP7 ADD DUP5 SWAP1 MSTORE PUSH1 0x0 SWAP5 POP PUSH1 0xA SWAP4 SWAP1 SWAP3 POP PUSH2 0xCDB SWAP2 POP PUSH1 0xF PUSH2 0x44EB JUMP JUMPDEST PUSH2 0xCE5 SWAP2 SWAP1 PUSH2 0x44EB JUMP JUMPDEST PUSH2 0xCEF SWAP2 SWAP1 PUSH2 0x44D7 JUMP JUMPDEST SWAP1 POP PUSH1 0x0 DUP3 PUSH2 0x120 ADD MLOAD DUP4 PUSH1 0xE0 ADD MLOAD PUSH2 0xD08 SWAP2 SWAP1 PUSH2 0x44EB JUMP JUMPDEST SWAP1 POP PUSH1 0x0 PUSH2 0xD14 PUSH2 0x2F80 JUMP JUMPDEST SWAP1 POP PUSH1 0x0 DUP1 PUSH2 0xD23 DUP5 DUP7 PUSH2 0x2FE4 JUMP JUMPDEST SWAP2 POP SWAP2 POP PUSH1 0x3 DUP3 GT ISZERO PUSH2 0xD4B JUMPI PUSH2 0x100 DUP7 ADD MLOAD PUSH1 0xA0 DUP8 ADD MSTORE PUSH1 0x0 PUSH1 0x80 DUP8 ADD MSTORE PUSH1 0x1 DUP7 MSTORE PUSH2 0xDFD JUMP JUMPDEST PUSH1 0x2 DUP3 GT ISZERO PUSH2 0xD9F JUMPI PUSH2 0x100 DUP7 ADD MLOAD PUSH1 0xA0 DUP8 ADD MSTORE PUSH1 0x1 DUP7 MSTORE PUSH1 0xE0 DUP7 ADD MLOAD PUSH2 0xD74 SWAP1 PUSH1 0xA SWAP1 PUSH2 0x44D7 JUMP JUMPDEST PUSH1 0x80 DUP8 ADD MSTORE PUSH1 0x5A DUP4 GT ISZERO PUSH2 0xD9A JUMPI PUSH1 0x2 DUP7 PUSH2 0x100 ADD MLOAD PUSH2 0xD94 SWAP2 SWAP1 PUSH2 0x44D7 JUMP JUMPDEST PUSH1 0xA0 DUP8 ADD MSTORE JUMPDEST PUSH2 0xDFD JUMP JUMPDEST PUSH1 0x1 DUP3 GT DUP1 ISZERO PUSH2 0xDAF JUMPI POP PUSH1 0x5 DUP2 GT JUMPDEST ISZERO PUSH2 0xDEA JUMPI PUSH1 0x1 DUP7 MSTORE PUSH2 0x100 DUP7 ADD MLOAD PUSH2 0xDCA SWAP1 PUSH1 0x2 SWAP1 PUSH2 0x44D7 JUMP JUMPDEST PUSH1 0xA0 DUP8 ADD MSTORE PUSH1 0xE0 DUP7 ADD MLOAD PUSH2 0xDE0 SWAP1 PUSH1 0x2 SWAP1 PUSH2 0x44D7 JUMP JUMPDEST PUSH1 0x80 DUP8 ADD MSTORE PUSH2 0xDFD JUMP JUMPDEST PUSH1 0x0 DUP7 MSTORE PUSH1 0xA0 DUP7 ADD DUP4 SWAP1 MSTORE PUSH1 0x80 DUP7 ADD DUP4 SWAP1 MSTORE JUMPDEST PUSH32 0xE1F1C5EDC3D4D1E770D4DE5770DA4DD058CC5E6A71A2830D5743E8062CD8FA09 CALLER DUP8 PUSH1 0x60 ADD MLOAD DUP10 DUP10 PUSH1 0x40 ADD MLOAD DUP11 PUSH1 0xE0 ADD MLOAD DUP12 PUSH2 0x100 ADD MLOAD DUP13 PUSH1 0x80 ADD MLOAD DUP14 PUSH1 0xA0 ADD MLOAD DUP15 PUSH1 0x0 ADD MLOAD PUSH1 0x40 MLOAD PUSH2 0xEA1 SWAP10 SWAP9 SWAP8 SWAP7 SWAP6 SWAP5 SWAP4 SWAP3 SWAP2 SWAP1 PUSH1 0x1 PUSH1 0x1 PUSH1 0xA0 SHL SUB SWAP10 DUP11 AND DUP2 MSTORE SWAP8 SWAP1 SWAP9 AND PUSH1 0x20 DUP9 ADD MSTORE PUSH1 0x40 DUP8 ADD SWAP6 SWAP1 SWAP6 MSTORE PUSH1 0x60 DUP7 ADD SWAP4 SWAP1 SWAP4 MSTORE PUSH1 0x80 DUP6 ADD SWAP2 SWAP1 SWAP2 MSTORE PUSH1 0xA0 DUP5 ADD MSTORE PUSH1 0xC0 DUP4 ADD MSTORE PUSH1 0xE0 DUP3 ADD MSTORE SWAP1 ISZERO ISZERO PUSH2 0x100 DUP3 ADD MSTORE PUSH2 0x120 ADD SWAP1 JUMP JUMPDEST PUSH1 0x40 MLOAD DUP1 SWAP2 SUB SWAP1 LOG1 PUSH2 0xEB2 DUP7 PUSH2 0x3018 JUMP JUMPDEST POP POP POP POP POP POP POP JUMP JUMPDEST PUSH1 0x60 PUSH1 0x0 DUP1 SLOAD PUSH2 0xECA SWAP1 PUSH2 0x454D JUMP JUMPDEST DUP1 PUSH1 0x1F ADD PUSH1 0x20 DUP1 SWAP2 DIV MUL PUSH1 0x20 ADD PUSH1 0x40 MLOAD SWAP1 DUP2 ADD PUSH1 0x40 MSTORE DUP1 SWAP3 SWAP2 SWAP1 DUP2 DUP2 MSTORE PUSH1 0x20 ADD DUP3 DUP1 SLOAD PUSH2 0xEF6 SWAP1 PUSH2 0x454D JUMP JUMPDEST DUP1 ISZERO PUSH2 0xF43 JUMPI DUP1 PUSH1 0x1F LT PUSH2 0xF18 JUMPI PUSH2 0x100 DUP1 DUP4 SLOAD DIV MUL DUP4 MSTORE SWAP2 PUSH1 0x20 ADD SWAP2 PUSH2 0xF43 JUMP JUMPDEST DUP3 ADD SWAP2 SWAP1 PUSH1 0x0 MSTORE PUSH1 0x20 PUSH1 0x0 KECCAK256 SWAP1 JUMPDEST DUP2 SLOAD DUP2 MSTORE SWAP1 PUSH1 0x1 ADD SWAP1 PUSH1 0x20 ADD DUP1 DUP4 GT PUSH2 0xF26 JUMPI DUP3 SWAP1 SUB PUSH1 0x1F AND DUP3 ADD SWAP2 JUMPDEST POP POP POP POP POP SWAP1 POP SWAP1 JUMP JUMPDEST PUSH2 0xF5C DUP3 PUSH4 0xFFFFFFFF AND PUSH2 0x321F JUMP JUMPDEST PUSH2 0xFA4 JUMPI PUSH1 0x40 MLOAD PUSH3 0x461BCD PUSH1 0xE5 SHL DUP2 MSTORE PUSH1 0x20 PUSH1 0x4 DUP3 ADD MSTORE PUSH1 0x19 PUSH1 0x24 DUP3 ADD MSTORE PUSH25 0x1D1A5D1B19480A1D1BDAD95B8A481B9BDB995E1A5CDD195B9D PUSH1 0x3A SHL PUSH1 0x44 DUP3 ADD MSTORE PUSH1 0x64 ADD PUSH2 0xB24 JUMP JUMPDEST CALLER PUSH2 0xFB4 PUSH4 0xFFFFFFFF DUP5 AND PUSH2 0x1EEB JUMP JUMPDEST PUSH1 0x1 PUSH1 0x1 PUSH1 0xA0 SHL SUB AND EQ PUSH2 0x103F JUMPI PUSH1 0x40 MLOAD PUSH3 0x461BCD PUSH1 0xE5 SHL DUP2 MSTORE PUSH1 0x20 PUSH1 0x4 DUP3 ADD MSTORE PUSH1 0x46 PUSH1 0x24 DUP3 ADD MSTORE PUSH32 0x796F752063616E206E6F74207769746864726177204D696C6974617279206672 PUSH1 0x44 DUP3 ADD MSTORE PUSH32 0x6F6D2061207469746C65207468617420646F6573206E6F742062656C6F6E6720 PUSH1 0x64 DUP3 ADD MSTORE PUSH6 0x746F20796F75 PUSH1 0xD0 SHL PUSH1 0x84 DUP3 ADD MSTORE PUSH1 0xA4 ADD PUSH2 0xB24 JUMP JUMPDEST PUSH1 0xFF DUP2 AND ISZERO DUP1 PUSH2 0x1052 JUMPI POP DUP1 PUSH1 0xFF AND PUSH1 0x1 EQ JUMPDEST PUSH2 0x106E JUMPI PUSH1 0x40 MLOAD PUSH3 0x461BCD PUSH1 0xE5 SHL DUP2 MSTORE PUSH1 0x4 ADD PUSH2 0xB24 SWAP1 PUSH2 0x4335 JUMP JUMPDEST PUSH1 0xFF DUP2 AND PUSH2 0x111D JUMPI DUP3 PUSH1 0xF DUP4 PUSH4 0xFFFFFFFF AND PUSH2 0x2710 DUP2 LT PUSH2 0x1091 JUMPI PUSH2 0x1091 PUSH2 0x45DD JUMP JUMPDEST PUSH1 0x7 MUL ADD SLOAD LT ISZERO PUSH2 0x10B4 JUMPI PUSH1 0x40 MLOAD PUSH3 0x461BCD PUSH1 0xE5 SHL DUP2 MSTORE PUSH1 0x4 ADD PUSH2 0xB24 SWAP1 PUSH2 0x4454 JUMP JUMPDEST CALLER PUSH1 0x0 SWAP1 DUP2 MSTORE PUSH3 0x11183 PUSH1 0x20 MSTORE PUSH1 0x40 DUP2 KECCAK256 DUP1 SLOAD DUP6 SWAP3 SWAP1 PUSH2 0x10D5 SWAP1 DUP5 SWAP1 PUSH2 0x449A JUMP JUMPDEST SWAP1 SWAP2 SSTORE POP DUP4 SWAP1 POP PUSH1 0xF PUSH4 0xFFFFFFFF DUP5 AND PUSH2 0x2710 DUP2 LT PUSH2 0x10F6 JUMPI PUSH2 0x10F6 PUSH2 0x45DD JUMP JUMPDEST PUSH1 0x7 MUL ADD DUP1 SLOAD PUSH1 0x0 SWAP1 PUSH2 0x110A SWAP1 DUP5 SWAP1 PUSH2 0x450A JUMP JUMPDEST SWAP1 SWAP2 SSTORE POP PUSH2 0x1118 SWAP1 POP PUSH2 0x323C JUMP JUMPDEST POP POP POP JUMP JUMPDEST DUP1 PUSH1 0xFF AND PUSH1 0x1 EQ ISZERO PUSH2 0x1118 JUMPI DUP3 PUSH1 0xF DUP4 PUSH4 0xFFFFFFFF AND PUSH2 0x2710 DUP2 LT PUSH2 0x1144 JUMPI PUSH2 0x1144 PUSH2 0x45DD JUMP JUMPDEST PUSH1 0x7 MUL ADD PUSH1 0x1 ADD SLOAD LT ISZERO PUSH2 0x116A JUMPI PUSH1 0x40 MLOAD PUSH3 0x461BCD PUSH1 0xE5 SHL DUP2 MSTORE PUSH1 0x4 ADD PUSH2 0xB24 SWAP1 PUSH2 0x4387 JUMP JUMPDEST CALLER PUSH1 0x0 SWAP1 DUP2 MSTORE PUSH3 0x11183 PUSH1 0x20 MSTORE PUSH1 0x40 SWAP1 KECCAK256 DUP4 SWAP1 PUSH1 0x1 ADD PUSH1 0x0 DUP3 DUP3 SLOAD PUSH2 0x118F SWAP2 SWAP1 PUSH2 0x449A JUMP JUMPDEST SWAP1 SWAP2 SSTORE POP DUP4 SWAP1 POP PUSH1 0xF PUSH4 0xFFFFFFFF DUP5 AND PUSH2 0x2710 DUP2 LT PUSH2 0x11B0 JUMPI PUSH2 0x11B0 PUSH2 0x45DD JUMP JUMPDEST PUSH1 0x7 MUL ADD PUSH1 0x1 ADD PUSH1 0x0 DUP3 DUP3 SLOAD PUSH2 0x110A SWAP2 SWAP1 PUSH2 0x450A JUMP JUMPDEST PUSH1 0x0 PUSH2 0x11D1 DUP3 PUSH2 0x321F JUMP JUMPDEST PUSH2 0x1232 JUMPI PUSH1 0x40 MLOAD PUSH3 0x461BCD PUSH1 0xE5 SHL DUP2 MSTORE PUSH1 0x20 PUSH1 0x4 DUP3 ADD MSTORE PUSH1 0x2C PUSH1 0x24 DUP3 ADD MSTORE PUSH32 0x4552433732313A20617070726F76656420717565727920666F72206E6F6E6578 PUSH1 0x44 DUP3 ADD MSTORE PUSH12 0x34B9BA32B73A103A37B5B2B7 PUSH1 0xA1 SHL PUSH1 0x64 DUP3 ADD MSTORE PUSH1 0x84 ADD PUSH2 0xB24 JUMP JUMPDEST POP PUSH1 0x0 SWAP1 DUP2 MSTORE PUSH1 0x4 PUSH1 0x20 MSTORE PUSH1 0x40 SWAP1 KECCAK256 SLOAD PUSH1 0x1 PUSH1 0x1 PUSH1 0xA0 SHL SUB AND SWAP1 JUMP JUMPDEST PUSH1 0x0 PUSH2 0x1259 DUP3 PUSH2 0x1EEB JUMP JUMPDEST SWAP1 POP DUP1 PUSH1 0x1 PUSH1 0x1 PUSH1 0xA0 SHL SUB AND DUP4 PUSH1 0x1 PUSH1 0x1 PUSH1 0xA0 SHL SUB AND EQ ISZERO PUSH2 0x12C7 JUMPI PUSH1 0x40 MLOAD PUSH3 0x461BCD PUSH1 0xE5 SHL DUP2 MSTORE PUSH1 0x20 PUSH1 0x4 DUP3 ADD MSTORE PUSH1 0x21 PUSH1 0x24 DUP3 ADD MSTORE PUSH32 0x4552433732313A20617070726F76616C20746F2063757272656E74206F776E65 PUSH1 0x44 DUP3 ADD MSTORE PUSH1 0x39 PUSH1 0xF9 SHL PUSH1 0x64 DUP3 ADD MSTORE PUSH1 0x84 ADD PUSH2 0xB24 JUMP JUMPDEST CALLER PUSH1 0x1 PUSH1 0x1 PUSH1 0xA0 SHL SUB DUP3 AND EQ DUP1 PUSH2 0x12E3 JUMPI POP PUSH2 0x12E3 DUP2 CALLER PUSH2 0x97B JUMP JUMPDEST PUSH2 0x1355 JUMPI PUSH1 0x40 MLOAD PUSH3 0x461BCD PUSH1 0xE5 SHL DUP2 MSTORE PUSH1 0x20 PUSH1 0x4 DUP3 ADD MSTORE PUSH1 0x38 PUSH1 0x24 DUP3 ADD MSTORE PUSH32 0x4552433732313A20617070726F76652063616C6C6572206973206E6F74206F77 PUSH1 0x44 DUP3 ADD MSTORE PUSH32 0x6E6572206E6F7220617070726F76656420666F7220616C6C0000000000000000 PUSH1 0x64 DUP3 ADD MSTORE PUSH1 0x84 ADD PUSH2 0xB24 JUMP JUMPDEST PUSH2 0x1118 DUP4 DUP4 PUSH2 0x33FF JUMP JUMPDEST PUSH1 0xB SLOAD PUSH1 0x40 MLOAD PUSH4 0x70A08231 PUSH1 0xE0 SHL DUP2 MSTORE ADDRESS PUSH1 0x4 DUP3 ADD MSTORE PUSH1 0x0 SWAP2 PUSH1 0x1 PUSH1 0x1 PUSH1 0xA0 SHL SUB AND SWAP1 PUSH4 0x70A08231 SWAP1 PUSH1 0x24 ADD PUSH1 0x20 PUSH1 0x40 MLOAD DUP1 DUP4 SUB DUP2 DUP7 DUP1 EXTCODESIZE ISZERO DUP1 ISZERO PUSH2 0x13A3 JUMPI PUSH1 0x0 DUP1 REVERT JUMPDEST POP GAS STATICCALL ISZERO DUP1 ISZERO PUSH2 0x13B7 JUMPI RETURNDATASIZE PUSH1 0x0 DUP1 RETURNDATACOPY RETURNDATASIZE PUSH1 0x0 REVERT JUMPDEST POP POP POP POP PUSH1 0x40 MLOAD RETURNDATASIZE PUSH1 0x1F NOT PUSH1 0x1F DUP3 ADD AND DUP3 ADD DUP1 PUSH1 0x40 MSTORE POP DUP2 ADD SWAP1 PUSH2 0x13DB SWAP2 SWAP1 PUSH2 0x4126 JUMP JUMPDEST GT PUSH2 0x13E5 JUMPI PUSH1 0x0 DUP1 REVERT JUMPDEST PUSH1 0x0 CALLVALUE GT PUSH2 0x144E JUMPI PUSH1 0x40 MLOAD PUSH3 0x461BCD PUSH1 0xE5 SHL DUP2 MSTORE PUSH1 0x20 PUSH1 0x4 DUP3 ADD MSTORE PUSH1 0x30 PUSH1 0x24 DUP3 ADD MSTORE PUSH32 0x796F75206861766520746F2073656E6420736F6D652045544820746F20676574 PUSH1 0x44 DUP3 ADD MSTORE PUSH16 0x1025B4B733B237B6A9B2B2B231B7B4B7 PUSH1 0x81 SHL PUSH1 0x64 DUP3 ADD MSTORE PUSH1 0x84 ADD PUSH2 0xB24 JUMP JUMPDEST PUSH1 0xB SLOAD PUSH1 0x40 MLOAD PUSH4 0x70A08231 PUSH1 0xE0 SHL DUP2 MSTORE ADDRESS PUSH1 0x4 DUP3 ADD MSTORE PUSH1 0x0 SWAP2 PUSH1 0x1 PUSH1 0x1 PUSH1 0xA0 SHL SUB AND SWAP1 PUSH4 0x70A08231 SWAP1 PUSH1 0x24 ADD PUSH1 0x20 PUSH1 0x40 MLOAD DUP1 DUP4 SUB DUP2 DUP7 DUP1 EXTCODESIZE ISZERO DUP1 ISZERO PUSH2 0x1492 JUMPI PUSH1 0x0 DUP1 REVERT JUMPDEST POP GAS STATICCALL ISZERO DUP1 ISZERO PUSH2 0x14A6 JUMPI RETURNDATASIZE PUSH1 0x0 DUP1 RETURNDATACOPY RETURNDATASIZE PUSH1 0x0 REVERT JUMPDEST POP POP POP POP PUSH1 0x40 MLOAD RETURNDATASIZE PUSH1 0x1F NOT PUSH1 0x1F DUP3 ADD AND DUP3 ADD DUP1 PUSH1 0x40 MSTORE POP DUP2 ADD SWAP1 PUSH2 0x14CA SWAP2 SWAP1 PUSH2 0x4126 JUMP JUMPDEST GT PUSH2 0x152F JUMPI PUSH1 0x40 MLOAD PUSH3 0x461BCD PUSH1 0xE5 SHL DUP2 MSTORE PUSH1 0x20 PUSH1 0x4 DUP3 ADD MSTORE PUSH1 0x2F PUSH1 0x24 DUP3 ADD MSTORE PUSH32 0x75686F682C2073727920692063616E27742073656E6420616E79206D6F726520 PUSH1 0x44 DUP3 ADD MSTORE PUSH15 0x25B4B733B237B6A9B2B2B231B7B4B7 PUSH1 0x89 SHL PUSH1 0x64 DUP3 ADD MSTORE PUSH1 0x84 ADD PUSH2 0xB24 JUMP JUMPDEST PUSH1 0x6 SLOAD PUSH1 0x0 SWAP1 PUSH2 0x1549 SWAP1 PUSH1 0x1 PUSH1 0xA0 SHL SWAP1 DIV PUSH1 0xFF AND CALLVALUE PUSH2 0x44EB JUMP JUMPDEST PUSH1 0xB SLOAD PUSH1 0x40 MLOAD PUSH4 0xA9059CBB PUSH1 0xE0 SHL DUP2 MSTORE CALLER PUSH1 0x4 DUP3 ADD MSTORE PUSH1 0x24 DUP2 ADD DUP4 SWAP1 MSTORE SWAP2 SWAP3 POP PUSH1 0x1 PUSH1 0x1 PUSH1 0xA0 SHL SUB AND SWAP1 PUSH4 0xA9059CBB SWAP1 PUSH1 0x44 ADD PUSH1 0x20 PUSH1 0x40 MLOAD DUP1 DUP4 SUB DUP2 PUSH1 0x0 DUP8 DUP1 EXTCODESIZE ISZERO DUP1 ISZERO PUSH2 0x1596 JUMPI PUSH1 0x0 DUP1 REVERT JUMPDEST POP GAS CALL ISZERO DUP1 ISZERO PUSH2 0x15AA JUMPI RETURNDATASIZE PUSH1 0x0 DUP1 RETURNDATACOPY RETURNDATASIZE PUSH1 0x0 REVERT JUMPDEST POP POP POP POP PUSH1 0x40 MLOAD RETURNDATASIZE PUSH1 0x1F NOT PUSH1 0x1F DUP3 ADD AND DUP3 ADD DUP1 PUSH1 0x40 MSTORE POP DUP2 ADD SWAP1 PUSH2 0x15CE SWAP2 SWAP1 PUSH2 0x40B6 JUMP JUMPDEST POP POP JUMP JUMPDEST PUSH1 0x0 DUP1 JUMPDEST PUSH3 0x11180 SLOAD DUP2 LT ISZERO PUSH2 0x1614 JUMPI PUSH1 0x0 DUP2 DUP2 MSTORE PUSH3 0x1117F PUSH1 0x20 MSTORE PUSH1 0x40 SWAP1 KECCAK256 SLOAD DUP4 EQ ISZERO PUSH2 0x1602 JUMPI DUP1 SWAP2 POP PUSH2 0x1614 JUMP JUMPDEST DUP1 PUSH2 0x160C DUP2 PUSH2 0x4582 JUMP JUMPDEST SWAP2 POP POP PUSH2 0x15D6 JUMP JUMPDEST POP SWAP2 SWAP1 POP JUMP JUMPDEST PUSH1 0xF DUP2 PUSH2 0x2710 DUP2 LT PUSH2 0x162B JUMPI PUSH1 0x0 DUP1 REVERT JUMPDEST PUSH1 0x7 MUL ADD DUP1 SLOAD PUSH1 0x1 DUP3 ADD SLOAD PUSH1 0x2 DUP4 ADD SLOAD PUSH1 0x3 DUP5 ADD SLOAD PUSH1 0x4 DUP6 ADD SLOAD PUSH1 0x5 DUP7 ADD SLOAD PUSH1 0x6 SWAP1 SWAP7 ADD SLOAD SWAP5 SWAP7 POP SWAP3 SWAP5 SWAP2 SWAP4 SWAP1 SWAP3 SWAP2 SWAP1 DUP8 JUMP JUMPDEST PUSH2 0x1668 CALLER DUP3 PUSH2 0x346D JUMP JUMPDEST PUSH2 0x1684 JUMPI PUSH1 0x40 MLOAD PUSH3 0x461BCD PUSH1 0xE5 SHL DUP2 MSTORE PUSH1 0x4 ADD PUSH2 0xB24 SWAP1 PUSH2 0x4403 JUMP JUMPDEST PUSH2 0x1118 DUP4 DUP4 DUP4 PUSH2 0x3557 JUMP JUMPDEST PUSH1 0x0 DUP1 PUSH2 0x169D PUSH3 0x11180 SLOAD SWAP1 JUMP JUMPDEST SWAP1 POP DUP3 PUSH1 0x0 LT DUP1 ISZERO PUSH2 0x16AF JUMPI POP DUP1 DUP4 GT ISZERO JUMPDEST PUSH2 0x16F4 JUMPI PUSH1 0x40 MLOAD PUSH3 0x461BCD PUSH1 0xE5 SHL DUP2 MSTORE PUSH1 0x20 PUSH1 0x4 DUP3 ADD MSTORE PUSH1 0x16 PUSH1 0x24 DUP3 ADD MSTORE PUSH22 0x1A59081A5CC81B9BDD081E595D08185CDCDA59DB9959 PUSH1 0x52 SHL PUSH1 0x44 DUP3 ADD MSTORE PUSH1 0x64 ADD PUSH2 0xB24 JUMP JUMPDEST PUSH1 0x0 DUP4 DUP2 MSTORE PUSH3 0x1117F PUSH1 0x20 MSTORE PUSH1 0x40 SWAP1 KECCAK256 SLOAD PUSH1 0x1 DUP2 EQ ISZERO PUSH2 0x1717 JUMPI PUSH1 0x0 SWAP3 POP PUSH2 0x1752 JUMP JUMPDEST PUSH2 0x1722 PUSH1 0x2 DUP6 PUSH2 0x459D JUMP JUMPDEST PUSH2 0x1738 JUMPI PUSH2 0x1731 PUSH1 0x2 DUP3 PUSH2 0x44D7 JUMP JUMPDEST SWAP3 POP PUSH2 0x1752 JUMP JUMPDEST PUSH1 0x2 PUSH2 0x1745 PUSH1 0x1 DUP4 PUSH2 0x450A JUMP JUMPDEST PUSH2 0x174F SWAP2 SWAP1 PUSH2 0x44D7 JUMP JUMPDEST SWAP3 POP JUMPDEST POP POP SWAP2 SWAP1 POP JUMP JUMPDEST PUSH1 0x6 SLOAD PUSH1 0x0 SWAP1 PUSH1 0x1 PUSH1 0x1 PUSH1 0xA0 SHL SUB AND CALLER EQ PUSH2 0x1786 JUMPI PUSH1 0x40 MLOAD PUSH3 0x461BCD PUSH1 0xE5 SHL DUP2 MSTORE PUSH1 0x4 ADD PUSH2 0xB24 SWAP1 PUSH2 0x43CE JUMP JUMPDEST PUSH1 0x0 PUSH2 0x1791 DUP4 PUSH2 0x1EEB JUMP JUMPDEST SWAP1 POP PUSH2 0x179E DUP2 ADDRESS DUP6 PUSH2 0x3557 JUMP JUMPDEST PUSH2 0x1A0A PUSH1 0x0 JUMPDEST PUSH1 0x1 PUSH1 0x1 PUSH1 0xA0 SHL SUB DUP4 AND PUSH1 0x0 SWAP1 DUP2 MSTORE PUSH3 0x11181 PUSH1 0x20 MSTORE PUSH1 0x40 SWAP1 KECCAK256 SLOAD DUP2 LT ISZERO PUSH2 0x1820 JUMPI PUSH1 0x1 PUSH1 0x1 PUSH1 0xA0 SHL SUB DUP4 AND PUSH1 0x0 SWAP1 DUP2 MSTORE PUSH3 0x11181 PUSH1 0x20 MSTORE PUSH1 0x40 SWAP1 KECCAK256 DUP1 SLOAD DUP7 SWAP2 SWAP1 DUP4 SWAP1 DUP2 LT PUSH2 0x17F5 JUMPI PUSH2 0x17F5 PUSH2 0x45DD JUMP JUMPDEST SWAP1 PUSH1 0x0 MSTORE PUSH1 0x20 PUSH1 0x0 KECCAK256 ADD SLOAD EQ ISZERO PUSH2 0x180E JUMPI DUP1 SWAP2 POP PUSH2 0x1820 JUMP JUMPDEST DUP1 PUSH2 0x1818 DUP2 PUSH2 0x4582 JUMP JUMPDEST SWAP2 POP POP PUSH2 0x17A4 JUMP JUMPDEST POP DUP1 PUSH2 0x1A0A EQ ISZERO PUSH2 0x1892 JUMPI PUSH1 0x40 MLOAD PUSH3 0x461BCD PUSH1 0xE5 SHL DUP2 MSTORE PUSH1 0x20 PUSH1 0x4 DUP3 ADD MSTORE PUSH1 0x36 PUSH1 0x24 DUP3 ADD MSTORE PUSH32 0x72657665727365206974656D2066756E6374696F6E2E2E2E206974656D206E6F PUSH1 0x44 DUP3 ADD MSTORE PUSH22 0x7420666F756E6420696E206164647265737332696473 PUSH1 0x50 SHL PUSH1 0x64 DUP3 ADD MSTORE PUSH1 0x84 ADD PUSH2 0xB24 JUMP JUMPDEST PUSH1 0x1 PUSH1 0x1 PUSH1 0xA0 SHL SUB DUP3 AND PUSH1 0x0 SWAP1 DUP2 MSTORE PUSH3 0x11181 PUSH1 0x20 MSTORE PUSH1 0x40 SWAP1 KECCAK256 DUP1 SLOAD DUP3 SWAP1 DUP2 LT PUSH2 0x18BE JUMPI PUSH2 0x18BE PUSH2 0x45DD JUMP JUMPDEST PUSH1 0x0 SWAP2 DUP3 MSTORE PUSH1 0x20 DUP3 KECCAK256 ADD SSTORE POP PUSH1 0x1 SWAP2 POP POP JUMPDEST SWAP2 SWAP1 POP JUMP JUMPDEST PUSH2 0x1118 DUP4 DUP4 DUP4 PUSH1 0x40 MLOAD DUP1 PUSH1 0x20 ADD PUSH1 0x40 MSTORE DUP1 PUSH1 0x0 DUP2 MSTORE POP PUSH2 0x2931 JUMP JUMPDEST PUSH1 0xC SLOAD PUSH1 0x40 MLOAD PUSH4 0x70A08231 PUSH1 0xE0 SHL DUP2 MSTORE ADDRESS PUSH1 0x4 DUP3 ADD MSTORE PUSH1 0x0 SWAP2 PUSH1 0x1 PUSH1 0x1 PUSH1 0xA0 SHL SUB AND SWAP1 PUSH4 0x70A08231 SWAP1 PUSH1 0x24 ADD PUSH1 0x20 PUSH1 0x40 MLOAD DUP1 DUP4 SUB DUP2 DUP7 DUP1 EXTCODESIZE ISZERO DUP1 ISZERO PUSH2 0x1934 JUMPI PUSH1 0x0 DUP1 REVERT JUMPDEST POP GAS STATICCALL ISZERO DUP1 ISZERO PUSH2 0x1948 JUMPI RETURNDATASIZE PUSH1 0x0 DUP1 RETURNDATACOPY RETURNDATASIZE PUSH1 0x0 REVERT JUMPDEST POP POP POP POP PUSH1 0x40 MLOAD RETURNDATASIZE PUSH1 0x1F NOT PUSH1 0x1F DUP3 ADD AND DUP3 ADD DUP1 PUSH1 0x40 MSTORE POP DUP2 ADD SWAP1 PUSH2 0x196C SWAP2 SWAP1 PUSH2 0x4126 JUMP JUMPDEST GT PUSH2 0x1976 JUMPI PUSH1 0x0 DUP1 REVERT JUMPDEST PUSH1 0xD SLOAD PUSH1 0x40 MLOAD PUSH4 0x70A08231 PUSH1 0xE0 SHL DUP2 MSTORE ADDRESS PUSH1 0x4 DUP3 ADD MSTORE PUSH1 0x0 SWAP2 PUSH1 0x1 PUSH1 0x1 PUSH1 0xA0 SHL SUB AND SWAP1 PUSH4 0x70A08231 SWAP1 PUSH1 0x24 ADD PUSH1 0x20 PUSH1 0x40 MLOAD DUP1 DUP4 SUB DUP2 DUP7 DUP1 EXTCODESIZE ISZERO DUP1 ISZERO PUSH2 0x19BA JUMPI PUSH1 0x0 DUP1 REVERT JUMPDEST POP GAS STATICCALL ISZERO DUP1 ISZERO PUSH2 0x19CE JUMPI RETURNDATASIZE PUSH1 0x0 DUP1 RETURNDATACOPY RETURNDATASIZE PUSH1 0x0 REVERT JUMPDEST POP POP POP POP PUSH1 0x40 MLOAD RETURNDATASIZE PUSH1 0x1F NOT PUSH1 0x1F DUP3 ADD AND DUP3 ADD DUP1 PUSH1 0x40 MSTORE POP DUP2 ADD SWAP1 PUSH2 0x19F2 SWAP2 SWAP1 PUSH2 0x4126 JUMP JUMPDEST GT PUSH2 0x19FC JUMPI PUSH1 0x0 DUP1 REVERT JUMPDEST PUSH1 0xB SLOAD PUSH1 0x40 MLOAD PUSH4 0x70A08231 PUSH1 0xE0 SHL DUP2 MSTORE CALLER PUSH1 0x4 DUP3 ADD MSTORE PUSH1 0x0 SWAP2 PUSH1 0x1 PUSH1 0x1 PUSH1 0xA0 SHL SUB AND SWAP1 PUSH4 0x70A08231 SWAP1 PUSH1 0x24 ADD PUSH1 0x20 PUSH1 0x40 MLOAD DUP1 DUP4 SUB DUP2 DUP7 DUP1 EXTCODESIZE ISZERO DUP1 ISZERO PUSH2 0x1A40 JUMPI PUSH1 0x0 DUP1 REVERT JUMPDEST POP GAS STATICCALL ISZERO DUP1 ISZERO PUSH2 0x1A54 JUMPI RETURNDATASIZE PUSH1 0x0 DUP1 RETURNDATACOPY RETURNDATASIZE PUSH1 0x0 REVERT JUMPDEST POP POP POP POP PUSH1 0x40 MLOAD RETURNDATASIZE PUSH1 0x1F NOT PUSH1 0x1F DUP3 ADD AND DUP3 ADD DUP1 PUSH1 0x40 MSTORE POP DUP2 ADD SWAP1 PUSH2 0x1A78 SWAP2 SWAP1 PUSH2 0x4126 JUMP JUMPDEST SWAP1 POP DUP3 DUP2 LT ISZERO DUP1 ISZERO PUSH2 0x1A8A JUMPI POP PUSH1 0x0 DUP4 GT JUMPDEST PUSH2 0x1AF1 JUMPI PUSH1 0x40 MLOAD PUSH3 0x461BCD PUSH1 0xE5 SHL DUP2 MSTORE PUSH1 0x20 PUSH1 0x4 DUP3 ADD MSTORE PUSH1 0x32 PUSH1 0x24 DUP3 ADD MSTORE PUSH32 0x796F7520646F6E2774206861766520656E6F7567682073656564636F696E7321 PUSH1 0x44 DUP3 ADD MSTORE PUSH18 0x20627579206F7220747261646520736F6D65 PUSH1 0x70 SHL PUSH1 0x64 DUP3 ADD MSTORE PUSH1 0x84 ADD PUSH2 0xB24 JUMP JUMPDEST PUSH1 0xFF DUP3 AND ISZERO DUP1 PUSH2 0x1B04 JUMPI POP DUP2 PUSH1 0xFF AND PUSH1 0x1 EQ JUMPDEST PUSH2 0x1B6B JUMPI PUSH1 0x40 MLOAD PUSH3 0x461BCD PUSH1 0xE5 SHL DUP2 MSTORE PUSH1 0x20 PUSH1 0x4 DUP3 ADD MSTORE PUSH1 0x32 PUSH1 0x24 DUP3 ADD MSTORE PUSH32 0x746172676574436F696E2068617320746F20626520303D61747461636B636F69 PUSH1 0x44 DUP3 ADD MSTORE PUSH18 0x371037B910189EB232B332B739B2B1B7B4B7 PUSH1 0x71 SHL PUSH1 0x64 DUP3 ADD MSTORE PUSH1 0x84 ADD PUSH2 0xB24 JUMP JUMPDEST PUSH1 0xFF DUP3 AND PUSH2 0x1BAD JUMPI PUSH1 0x40 MLOAD DUP4 DUP2 MSTORE CALLER SWAP1 PUSH32 0x44D00596AEDD88FCA0607C9A84113FD638C9A070D5EF8D77C072080B688D8E34 SWAP1 PUSH1 0x20 ADD PUSH1 0x40 MLOAD DUP1 SWAP2 SUB SWAP1 LOG2 PUSH2 0x1BEF JUMP JUMPDEST DUP2 PUSH1 0xFF AND PUSH1 0x1 EQ ISZERO PUSH2 0x1BEF JUMPI PUSH1 0x40 MLOAD DUP4 DUP2 MSTORE CALLER SWAP1 PUSH32 0x49B4D6E22C9904766197183F9DC1F362CEFB04F39E3850A8B7D83FF2C26216F SWAP1 PUSH1 0x20 ADD PUSH1 0x40 MLOAD DUP1 SWAP2 SUB SWAP1 LOG2 JUMPDEST PUSH1 0xB SLOAD PUSH1 0x40 MLOAD PUSH4 0x23B872DD PUSH1 0xE0 SHL DUP2 MSTORE CALLER PUSH1 0x4 DUP3 ADD MSTORE ADDRESS PUSH1 0x24 DUP3 ADD MSTORE PUSH1 0x44 DUP2 ADD DUP6 SWAP1 MSTORE PUSH1 0x1 PUSH1 0x1 PUSH1 0xA0 SHL SUB SWAP1 SWAP2 AND SWAP1 PUSH4 0x23B872DD SWAP1 PUSH1 0x64 ADD PUSH1 0x20 PUSH1 0x40 MLOAD DUP1 DUP4 SUB DUP2 PUSH1 0x0 DUP8 DUP1 EXTCODESIZE ISZERO DUP1 ISZERO PUSH2 0x1C41 JUMPI PUSH1 0x0 DUP1 REVERT JUMPDEST POP GAS CALL ISZERO DUP1 ISZERO PUSH2 0x1C55 JUMPI RETURNDATASIZE PUSH1 0x0 DUP1 RETURNDATACOPY RETURNDATASIZE PUSH1 0x0 REVERT JUMPDEST POP POP POP POP PUSH1 0x40 MLOAD RETURNDATASIZE PUSH1 0x1F NOT PUSH1 0x1F DUP3 ADD AND DUP3 ADD DUP1 PUSH1 0x40 MSTORE POP DUP2 ADD SWAP1 PUSH2 0x1C79 SWAP2 SWAP1 PUSH2 0x40B6 JUMP JUMPDEST POP PUSH1 0xE PUSH1 0x0 CALLER PUSH1 0x1 PUSH1 0x1 PUSH1 0xA0 SHL SUB AND PUSH1 0x1 PUSH1 0x1 PUSH1 0xA0 SHL SUB AND DUP2 MSTORE PUSH1 0x20 ADD SWAP1 DUP2 MSTORE PUSH1 0x20 ADD PUSH1 0x0 KECCAK256 PUSH1 0x40 MLOAD DUP1 PUSH1 0x60 ADD PUSH1 0x40 MSTORE DUP1 DUP6 DUP2 MSTORE PUSH1 0x20 ADD DUP5 PUSH1 0xFF AND DUP2 MSTORE PUSH1 0x20 ADD PUSH1 0x7 SLOAD TIMESTAMP PUSH2 0x1CC7 SWAP2 SWAP1 PUSH2 0x449A JUMP JUMPDEST SWAP1 MSTORE DUP2 SLOAD PUSH1 0x1 DUP1 DUP3 ADD DUP5 SSTORE PUSH1 0x0 SWAP4 DUP5 MSTORE PUSH1 0x20 SWAP4 DUP5 SWAP1 KECCAK256 DUP4 MLOAD PUSH1 0x3 SWAP1 SWAP4 MUL ADD SWAP2 DUP3 SSTORE SWAP3 DUP3 ADD MLOAD SWAP3 DUP2 ADD DUP1 SLOAD PUSH1 0xFF NOT AND PUSH1 0xFF SWAP1 SWAP5 AND SWAP4 SWAP1 SWAP4 OR SWAP1 SWAP3 SSTORE PUSH1 0x40 ADD MLOAD PUSH1 0x2 SWAP1 SWAP2 ADD SSTORE POP POP POP JUMP JUMPDEST PUSH1 0x0 DUP1 PUSH1 0x0 DUP1 PUSH1 0x0 DUP1 PUSH2 0x1D24 PUSH3 0x11180 SLOAD SWAP1 JUMP JUMPDEST DUP8 GT ISZERO PUSH2 0x1D81 JUMPI PUSH1 0x40 MLOAD PUSH3 0x461BCD PUSH1 0xE5 SHL DUP2 MSTORE PUSH1 0x20 PUSH1 0x4 DUP3 ADD MSTORE PUSH1 0x25 PUSH1 0x24 DUP3 ADD MSTORE PUSH32 0x7469746C65206964206E6F74207965742061737369676E65642C20676F206765 PUSH1 0x44 DUP3 ADD MSTORE PUSH5 0x74206F6E65 PUSH1 0xD8 SHL PUSH1 0x64 DUP3 ADD MSTORE PUSH1 0x84 ADD PUSH2 0xB24 JUMP JUMPDEST PUSH1 0xF DUP8 PUSH2 0x2710 DUP2 LT PUSH2 0x1D95 JUMPI PUSH2 0x1D95 PUSH2 0x45DD JUMP JUMPDEST PUSH1 0x7 MUL ADD SLOAD SWAP6 POP PUSH1 0xF DUP8 PUSH2 0x2710 DUP2 LT PUSH2 0x1DB0 JUMPI PUSH2 0x1DB0 PUSH2 0x45DD JUMP JUMPDEST PUSH1 0x7 MUL ADD PUSH1 0x1 ADD SLOAD SWAP5 POP TIMESTAMP PUSH1 0xF DUP9 PUSH2 0x2710 DUP2 LT PUSH2 0x1DCF JUMPI PUSH2 0x1DCF PUSH2 0x45DD JUMP JUMPDEST PUSH1 0x7 MUL ADD PUSH1 0x2 ADD SLOAD LT ISZERO SWAP4 POP PUSH1 0xF DUP8 PUSH2 0x2710 DUP2 LT PUSH2 0x1DEF JUMPI PUSH2 0x1DEF PUSH2 0x45DD JUMP JUMPDEST PUSH1 0x7 MUL ADD PUSH1 0x4 ADD SLOAD SWAP3 POP PUSH1 0xF DUP8 PUSH2 0x2710 DUP2 LT PUSH2 0x1E0D JUMPI PUSH2 0x1E0D PUSH2 0x45DD JUMP JUMPDEST PUSH1 0x7 MUL ADD PUSH1 0x5 ADD SLOAD SWAP2 POP PUSH1 0xF DUP8 PUSH2 0x2710 DUP2 LT PUSH2 0x1E2B JUMPI PUSH2 0x1E2B PUSH2 0x45DD JUMP JUMPDEST PUSH1 0x7 MUL ADD PUSH1 0x6 ADD SLOAD SWAP1 POP SWAP2 SWAP4 SWAP6 POP SWAP2 SWAP4 SWAP6 JUMP JUMPDEST PUSH1 0x40 MLOAD DUP1 PUSH1 0x60 ADD PUSH1 0x40 MSTORE DUP1 PUSH1 0x25 DUP2 MSTORE PUSH1 0x20 ADD PUSH2 0x462E PUSH1 0x25 SWAP2 CODECOPY DUP2 JUMP JUMPDEST PUSH1 0x0 DUP1 PUSH1 0x0 PUSH2 0x1E6A PUSH3 0x11180 SLOAD SWAP1 JUMP JUMPDEST SWAP1 POP DUP1 DUP5 GT ISZERO PUSH2 0x1EB5 JUMPI PUSH1 0x40 MLOAD PUSH3 0x461BCD PUSH1 0xE5 SHL DUP2 MSTORE PUSH1 0x20 PUSH1 0x4 DUP3 ADD MSTORE PUSH1 0x16 PUSH1 0x24 DUP3 ADD MSTORE PUSH22 0x1A59081A5CC81B9BDD081E595D08185CDCDA59DB9959 PUSH1 0x52 SHL PUSH1 0x44 DUP3 ADD MSTORE PUSH1 0x64 ADD PUSH2 0xB24 JUMP JUMPDEST PUSH2 0x1EBE DUP5 PUSH2 0x36F7 JUMP JUMPDEST SWAP3 POP PUSH2 0x1EC9 DUP5 PUSH2 0x3704 JUMP JUMPDEST SWAP2 POP DUP1 DUP4 GT ISZERO PUSH2 0x1ED8 JUMPI PUSH1 0x0 SWAP3 POP JUMPDEST DUP1 DUP3 GT ISZERO PUSH2 0x1EE5 JUMPI PUSH1 0x0 SWAP2 POP JUMPDEST POP SWAP2 POP SWAP2 JUMP JUMPDEST PUSH1 0x0 DUP2 DUP2 MSTORE PUSH1 0x2 PUSH1 0x20 MSTORE PUSH1 0x40 DUP2 KECCAK256 SLOAD PUSH1 0x1 PUSH1 0x1 PUSH1 0xA0 SHL SUB AND DUP1 PUSH2 0xAAF JUMPI PUSH1 0x40 MLOAD PUSH3 0x461BCD PUSH1 0xE5 SHL DUP2 MSTORE PUSH1 0x20 PUSH1 0x4 DUP3 ADD MSTORE PUSH1 0x29 PUSH1 0x24 DUP3 ADD MSTORE PUSH32 0x4552433732313A206F776E657220717565727920666F72206E6F6E6578697374 PUSH1 0x44 DUP3 ADD MSTORE PUSH9 0x32B73A103A37B5B2B7 PUSH1 0xB9 SHL PUSH1 0x64 DUP3 ADD MSTORE PUSH1 0x84 ADD PUSH2 0xB24 JUMP JUMPDEST PUSH1 0x0 PUSH1 0x1 PUSH1 0x1 PUSH1 0xA0 SHL SUB DUP3 AND PUSH2 0x1FCD JUMPI PUSH1 0x40 MLOAD PUSH3 0x461BCD PUSH1 0xE5 SHL DUP2 MSTORE PUSH1 0x20 PUSH1 0x4 DUP3 ADD MSTORE PUSH1 0x2A PUSH1 0x24 DUP3 ADD MSTORE PUSH32 0x4552433732313A2062616C616E636520717565727920666F7220746865207A65 PUSH1 0x44 DUP3 ADD MSTORE PUSH10 0x726F2061646472657373 PUSH1 0xB0 SHL PUSH1 0x64 DUP3 ADD MSTORE PUSH1 0x84 ADD PUSH2 0xB24 JUMP JUMPDEST POP PUSH1 0x1 PUSH1 0x1 PUSH1 0xA0 SHL SUB AND PUSH1 0x0 SWAP1 DUP2 MSTORE PUSH1 0x3 PUSH1 0x20 MSTORE PUSH1 0x40 SWAP1 KECCAK256 SLOAD SWAP1 JUMP JUMPDEST PUSH1 0x6 SLOAD PUSH1 0x1 PUSH1 0x1 PUSH1 0xA0 SHL SUB AND CALLER EQ PUSH2 0x2013 JUMPI PUSH1 0x40 MLOAD PUSH3 0x461BCD PUSH1 0xE5 SHL DUP2 MSTORE PUSH1 0x4 ADD PUSH2 0xB24 SWAP1 PUSH2 0x43CE JUMP JUMPDEST PUSH2 0x201D PUSH1 0x0 PUSH2 0x371A JUMP JUMPDEST JUMP JUMPDEST PUSH2 0x2027 PUSH2 0x3E95 JUMP JUMPDEST PUSH1 0x40 MLOAD DUP1 PUSH1 0x60 ADD PUSH1 0x40 MSTORE DUP1 PUSH3 0x98967F DUP2 MSTORE PUSH1 0x20 ADD PUSH3 0x98967F DUP2 MSTORE PUSH1 0x20 ADD PUSH1 0x0 DUP2 MSTORE POP SWAP1 POP PUSH1 0x0 JUMPDEST CALLER PUSH1 0x0 SWAP1 DUP2 MSTORE PUSH1 0xE PUSH1 0x20 MSTORE PUSH1 0x40 SWAP1 KECCAK256 SLOAD DUP2 LT ISZERO PUSH2 0x2190 JUMPI CALLER PUSH1 0x0 SWAP1 DUP2 MSTORE PUSH1 0xE PUSH1 0x20 MSTORE PUSH1 0x40 DUP2 KECCAK256 DUP1 SLOAD DUP4 SWAP1 DUP2 LT PUSH2 0x2086 JUMPI PUSH2 0x2086 PUSH2 0x45DD JUMP JUMPDEST PUSH1 0x0 SWAP2 DUP3 MSTORE PUSH1 0x20 SWAP2 DUP3 SWAP1 KECCAK256 PUSH1 0x40 DUP1 MLOAD PUSH1 0x60 DUP2 ADD DUP3 MSTORE PUSH1 0x3 SWAP1 SWAP4 MUL SWAP1 SWAP2 ADD DUP1 SLOAD DUP4 MSTORE PUSH1 0x1 DUP2 ADD SLOAD PUSH1 0xFF AND SWAP4 DUP4 ADD SWAP4 SWAP1 SWAP4 MSTORE PUSH1 0x2 SWAP1 SWAP3 ADD SLOAD SWAP2 DUP2 ADD DUP3 SWAP1 MSTORE SWAP2 POP PUSH2 0x20CE JUMPI POP PUSH2 0x217E JUMP JUMPDEST PUSH1 0x40 DUP4 ADD DUP1 MLOAD SWAP1 PUSH2 0x20DE DUP3 PUSH2 0x4582 JUMP JUMPDEST SWAP1 MSTORE POP PUSH1 0x20 DUP2 ADD MLOAD PUSH1 0xFF AND PUSH2 0x2131 JUMPI TIMESTAMP DUP2 PUSH1 0x40 ADD MLOAD GT ISZERO PUSH2 0x2128 JUMPI PUSH1 0x0 TIMESTAMP DUP3 PUSH1 0x40 ADD MLOAD PUSH2 0x210B SWAP2 SWAP1 PUSH2 0x450A JUMP JUMPDEST DUP5 MLOAD SWAP1 SWAP2 POP DUP2 LT ISZERO PUSH2 0x2122 JUMPI DUP1 DUP5 PUSH1 0x0 JUMPDEST PUSH1 0x20 MUL ADD MSTORE JUMPDEST POP PUSH2 0x217C JUMP JUMPDEST PUSH1 0x0 DUP4 MSTORE PUSH2 0x217C JUMP JUMPDEST DUP1 PUSH1 0x20 ADD MLOAD PUSH1 0xFF AND PUSH1 0x1 EQ ISZERO PUSH2 0x217C JUMPI TIMESTAMP DUP2 PUSH1 0x40 ADD MLOAD GT ISZERO PUSH2 0x2174 JUMPI PUSH1 0x0 TIMESTAMP DUP3 PUSH1 0x40 ADD MLOAD PUSH2 0x215F SWAP2 SWAP1 PUSH2 0x450A JUMP JUMPDEST DUP5 MLOAD SWAP1 SWAP2 POP DUP2 LT ISZERO PUSH2 0x2122 JUMPI DUP1 DUP5 PUSH1 0x1 PUSH2 0x211C JUMP JUMPDEST PUSH1 0x0 PUSH1 0x20 DUP5 ADD MSTORE JUMPDEST POP JUMPDEST DUP1 PUSH2 0x2188 DUP2 PUSH2 0x4582 JUMP JUMPDEST SWAP2 POP POP PUSH2 0x204E JUMP JUMPDEST POP SWAP1 JUMP JUMPDEST PUSH2 0x21A3 DUP3 PUSH4 0xFFFFFFFF AND PUSH2 0x321F JUMP JUMPDEST PUSH2 0x21EB JUMPI PUSH1 0x40 MLOAD PUSH3 0x461BCD PUSH1 0xE5 SHL DUP2 MSTORE PUSH1 0x20 PUSH1 0x4 DUP3 ADD MSTORE PUSH1 0x19 PUSH1 0x24 DUP3 ADD MSTORE PUSH25 0x1D1A5D1B19480A1D1BDAD95B8A481B9BDB995E1A5CDD195B9D PUSH1 0x3A SHL PUSH1 0x44 DUP3 ADD MSTORE PUSH1 0x64 ADD PUSH2 0xB24 JUMP JUMPDEST PUSH1 0x0 DUP4 GT PUSH2 0x2246 JUMPI PUSH1 0x40 MLOAD PUSH3 0x461BCD PUSH1 0xE5 SHL DUP2 MSTORE PUSH1 0x20 PUSH1 0x4 DUP3 ADD MSTORE PUSH1 0x22 PUSH1 0x24 DUP3 ADD MSTORE PUSH32 0x796F75206E65656420746F2061737369676E206174206C65617374203120636F PUSH1 0x44 DUP3 ADD MSTORE PUSH2 0x34B7 PUSH1 0xF1 SHL PUSH1 0x64 DUP3 ADD MSTORE PUSH1 0x84 ADD PUSH2 0xB24 JUMP JUMPDEST DUP1 ISZERO DUP1 PUSH2 0x2253 JUMPI POP DUP1 PUSH1 0x1 EQ JUMPDEST PUSH2 0x226F JUMPI PUSH1 0x40 MLOAD PUSH3 0x461BCD PUSH1 0xE5 SHL DUP2 MSTORE PUSH1 0x4 ADD PUSH2 0xB24 SWAP1 PUSH2 0x4335 JUMP JUMPDEST DUP1 PUSH2 0x23D2 JUMPI PUSH1 0xC SLOAD PUSH1 0x40 MLOAD PUSH4 0x70A08231 PUSH1 0xE0 SHL DUP2 MSTORE CALLER PUSH1 0x4 DUP3 ADD MSTORE DUP5 SWAP2 PUSH1 0x1 PUSH1 0x1 PUSH1 0xA0 SHL SUB AND SWAP1 PUSH4 0x70A08231 SWAP1 PUSH1 0x24 ADD PUSH1 0x20 PUSH1 0x40 MLOAD DUP1 DUP4 SUB DUP2 DUP7 DUP1 EXTCODESIZE ISZERO DUP1 ISZERO PUSH2 0x22B7 JUMPI PUSH1 0x0 DUP1 REVERT JUMPDEST POP GAS STATICCALL ISZERO DUP1 ISZERO PUSH2 0x22CB JUMPI RETURNDATASIZE PUSH1 0x0 DUP1 RETURNDATACOPY RETURNDATASIZE PUSH1 0x0 REVERT JUMPDEST POP POP POP POP PUSH1 0x40 MLOAD RETURNDATASIZE PUSH1 0x1F NOT PUSH1 0x1F DUP3 ADD AND DUP3 ADD DUP1 PUSH1 0x40 MSTORE POP DUP2 ADD SWAP1 PUSH2 0x22EF SWAP2 SWAP1 PUSH2 0x4126 JUMP JUMPDEST LT ISZERO PUSH2 0x230D JUMPI PUSH1 0x40 MLOAD PUSH3 0x461BCD PUSH1 0xE5 SHL DUP2 MSTORE PUSH1 0x4 ADD PUSH2 0xB24 SWAP1 PUSH2 0x4454 JUMP JUMPDEST PUSH1 0xC SLOAD PUSH1 0x40 MLOAD PUSH4 0x23B872DD PUSH1 0xE0 SHL DUP2 MSTORE CALLER PUSH1 0x4 DUP3 ADD MSTORE ADDRESS PUSH1 0x24 DUP3 ADD MSTORE PUSH1 0x44 DUP2 ADD DUP6 SWAP1 MSTORE PUSH1 0x1 PUSH1 0x1 PUSH1 0xA0 SHL SUB SWAP1 SWAP2 AND SWAP1 PUSH4 0x23B872DD SWAP1 PUSH1 0x64 ADD PUSH1 0x20 PUSH1 0x40 MLOAD DUP1 DUP4 SUB DUP2 PUSH1 0x0 DUP8 DUP1 EXTCODESIZE ISZERO DUP1 ISZERO PUSH2 0x235F JUMPI PUSH1 0x0 DUP1 REVERT JUMPDEST POP GAS CALL ISZERO DUP1 ISZERO PUSH2 0x2373 JUMPI RETURNDATASIZE PUSH1 0x0 DUP1 RETURNDATACOPY RETURNDATASIZE PUSH1 0x0 REVERT JUMPDEST POP POP POP POP PUSH1 0x40 MLOAD RETURNDATASIZE PUSH1 0x1F NOT PUSH1 0x1F DUP3 ADD AND DUP3 ADD DUP1 PUSH1 0x40 MSTORE POP DUP2 ADD SWAP1 PUSH2 0x2397 SWAP2 SWAP1 PUSH2 0x40B6 JUMP JUMPDEST POP DUP3 PUSH1 0xF DUP4 PUSH4 0xFFFFFFFF AND PUSH2 0x2710 DUP2 LT PUSH2 0x23B3 JUMPI PUSH2 0x23B3 PUSH2 0x45DD JUMP JUMPDEST PUSH1 0x7 MUL ADD DUP1 SLOAD PUSH1 0x0 SWAP1 PUSH2 0x23C7 SWAP1 DUP5 SWAP1 PUSH2 0x449A JUMP JUMPDEST SWAP1 SWAP2 SSTORE POP PUSH2 0x2536 SWAP1 POP JUMP JUMPDEST DUP1 PUSH1 0x1 EQ ISZERO PUSH2 0x2536 JUMPI PUSH1 0xD SLOAD PUSH1 0x40 MLOAD PUSH4 0x70A08231 PUSH1 0xE0 SHL DUP2 MSTORE CALLER PUSH1 0x4 DUP3 ADD MSTORE DUP5 SWAP2 PUSH1 0x1 PUSH1 0x1 PUSH1 0xA0 SHL SUB AND SWAP1 PUSH4 0x70A08231 SWAP1 PUSH1 0x24 ADD PUSH1 0x20 PUSH1 0x40 MLOAD DUP1 DUP4 SUB DUP2 DUP7 DUP1 EXTCODESIZE ISZERO DUP1 ISZERO PUSH2 0x241E JUMPI PUSH1 0x0 DUP1 REVERT JUMPDEST POP GAS STATICCALL ISZERO DUP1 ISZERO PUSH2 0x2432 JUMPI RETURNDATASIZE PUSH1 0x0 DUP1 RETURNDATACOPY RETURNDATASIZE PUSH1 0x0 REVERT JUMPDEST POP POP POP POP PUSH1 0x40 MLOAD RETURNDATASIZE PUSH1 0x1F NOT PUSH1 0x1F DUP3 ADD AND DUP3 ADD DUP1 PUSH1 0x40 MSTORE POP DUP2 ADD SWAP1 PUSH2 0x2456 SWAP2 SWAP1 PUSH2 0x4126 JUMP JUMPDEST LT ISZERO PUSH2 0x2474 JUMPI PUSH1 0x40 MLOAD PUSH3 0x461BCD PUSH1 0xE5 SHL DUP2 MSTORE PUSH1 0x4 ADD PUSH2 0xB24 SWAP1 PUSH2 0x4387 JUMP JUMPDEST PUSH1 0xD SLOAD PUSH1 0x40 MLOAD PUSH4 0x23B872DD PUSH1 0xE0 SHL DUP2 MSTORE CALLER PUSH1 0x4 DUP3 ADD MSTORE ADDRESS PUSH1 0x24 DUP3 ADD MSTORE PUSH1 0x44 DUP2 ADD DUP6 SWAP1 MSTORE PUSH1 0x1 PUSH1 0x1 PUSH1 0xA0 SHL SUB SWAP1 SWAP2 AND SWAP1 PUSH4 0x23B872DD SWAP1 PUSH1 0x64 ADD PUSH1 0x20 PUSH1 0x40 MLOAD DUP1 DUP4 SUB DUP2 PUSH1 0x0 DUP8 DUP1 EXTCODESIZE ISZERO DUP1 ISZERO PUSH2 0x24C6 JUMPI PUSH1 0x0 DUP1 REVERT JUMPDEST POP GAS CALL ISZERO DUP1 ISZERO PUSH2 0x24DA JUMPI RETURNDATASIZE PUSH1 0x0 DUP1 RETURNDATACOPY RETURNDATASIZE PUSH1 0x0 REVERT JUMPDEST POP POP POP POP PUSH1 0x40 MLOAD RETURNDATASIZE PUSH1 0x1F NOT PUSH1 0x1F DUP3 ADD AND DUP3 ADD DUP1 PUSH1 0x40 MSTORE POP DUP2 ADD SWAP1 PUSH2 0x24FE SWAP2 SWAP1 PUSH2 0x40B6 JUMP JUMPDEST POP DUP3 PUSH1 0xF DUP4 PUSH4 0xFFFFFFFF AND PUSH2 0x2710 DUP2 LT PUSH2 0x251A JUMPI PUSH2 0x251A PUSH2 0x45DD JUMP JUMPDEST PUSH1 0x7 MUL ADD PUSH1 0x1 ADD PUSH1 0x0 DUP3 DUP3 SLOAD PUSH2 0x2530 SWAP2 SWAP1 PUSH2 0x449A JUMP JUMPDEST SWAP1 SWAP2 SSTORE POP POP JUMPDEST PUSH2 0x2541 PUSH1 0x3C TIMESTAMP PUSH2 0x449A JUMP JUMPDEST PUSH1 0xF DUP4 PUSH4 0xFFFFFFFF AND PUSH2 0x2710 DUP2 LT PUSH2 0x255B JUMPI PUSH2 0x255B PUSH2 0x45DD JUMP JUMPDEST PUSH1 0x7 MUL ADD PUSH1 0x3 ADD DUP2 SWAP1 SSTORE POP POP POP POP JUMP JUMPDEST PUSH1 0x0 DUP1 JUMPDEST CALLER PUSH1 0x0 SWAP1 DUP2 MSTORE PUSH1 0xE PUSH1 0x20 MSTORE PUSH1 0x40 SWAP1 KECCAK256 SLOAD DUP2 LT ISZERO PUSH2 0x2190 JUMPI CALLER PUSH1 0x0 SWAP1 DUP2 MSTORE PUSH1 0xE PUSH1 0x20 MSTORE PUSH1 0x40 DUP2 KECCAK256 DUP1 SLOAD DUP4 SWAP1 DUP2 LT PUSH2 0x25A7 JUMPI PUSH2 0x25A7 PUSH2 0x45DD JUMP JUMPDEST PUSH1 0x0 SWAP2 DUP3 MSTORE PUSH1 0x20 SWAP2 DUP3 SWAP1 KECCAK256 PUSH1 0x40 DUP1 MLOAD PUSH1 0x60 DUP2 ADD DUP3 MSTORE PUSH1 0x3 SWAP1 SWAP4 MUL SWAP1 SWAP2 ADD DUP1 SLOAD DUP4 MSTORE PUSH1 0x1 DUP2 ADD SLOAD PUSH1 0xFF AND SWAP4 DUP4 ADD SWAP4 SWAP1 SWAP4 MSTORE PUSH1 0x2 SWAP1 SWAP3 ADD SLOAD SWAP2 DUP2 ADD DUP3 SWAP1 MSTORE SWAP2 POP TIMESTAMP GT ISZERO PUSH2 0x284A JUMPI PUSH1 0x20 DUP2 ADD MLOAD PUSH1 0xFF AND PUSH2 0x26F5 JUMPI PUSH1 0x0 PUSH2 0x260C DUP3 PUSH1 0x0 ADD MLOAD DUP4 PUSH1 0x40 ADD MLOAD PUSH2 0x376C JUMP JUMPDEST PUSH1 0x6 SLOAD SWAP1 SWAP2 POP PUSH2 0x2626 SWAP1 PUSH1 0x1 PUSH1 0xA8 SHL SWAP1 DIV PUSH1 0xFF AND DUP3 PUSH2 0x44D7 JUMP JUMPDEST SWAP1 POP PUSH2 0x2635 DUP3 PUSH1 0x0 ADD MLOAD PUSH2 0x3815 JUMP JUMPDEST PUSH1 0xC SLOAD PUSH1 0x40 MLOAD PUSH4 0xA9059CBB PUSH1 0xE0 SHL DUP2 MSTORE CALLER PUSH1 0x4 DUP3 ADD MSTORE PUSH1 0x24 DUP2 ADD DUP4 SWAP1 MSTORE PUSH1 0x1 PUSH1 0x1 PUSH1 0xA0 SHL SUB SWAP1 SWAP2 AND SWAP1 PUSH4 0xA9059CBB SWAP1 PUSH1 0x44 ADD PUSH1 0x20 PUSH1 0x40 MLOAD DUP1 DUP4 SUB DUP2 PUSH1 0x0 DUP8 DUP1 EXTCODESIZE ISZERO DUP1 ISZERO PUSH2 0x2681 JUMPI PUSH1 0x0 DUP1 REVERT JUMPDEST POP GAS CALL ISZERO DUP1 ISZERO PUSH2 0x2695 JUMPI RETURNDATASIZE PUSH1 0x0 DUP1 RETURNDATACOPY RETURNDATASIZE PUSH1 0x0 REVERT JUMPDEST POP POP POP POP PUSH1 0x40 MLOAD RETURNDATASIZE PUSH1 0x1F NOT PUSH1 0x1F DUP3 ADD AND DUP3 ADD DUP1 PUSH1 0x40 MSTORE POP DUP2 ADD SWAP1 PUSH2 0x26B9 SWAP2 SWAP1 PUSH2 0x40B6 JUMP JUMPDEST POP PUSH1 0x40 MLOAD DUP2 DUP2 MSTORE CALLER SWAP1 PUSH32 0x9FD4A9248425079A398923CD20DAA8E0C103907FB89DB4707CB4F2CC343F9546 SWAP1 PUSH1 0x20 ADD PUSH1 0x40 MLOAD DUP1 SWAP2 SUB SWAP1 LOG2 POP PUSH2 0x27FE JUMP JUMPDEST DUP1 PUSH1 0x20 ADD MLOAD PUSH1 0xFF AND PUSH1 0x1 EQ ISZERO PUSH2 0x27FE JUMPI PUSH1 0x0 PUSH2 0x2719 DUP3 PUSH1 0x0 ADD MLOAD DUP4 PUSH1 0x40 ADD MLOAD PUSH2 0x376C JUMP JUMPDEST PUSH1 0x6 SLOAD SWAP1 SWAP2 POP PUSH2 0x2733 SWAP1 PUSH1 0x1 PUSH1 0xB0 SHL SWAP1 DIV PUSH1 0xFF AND DUP3 PUSH2 0x44D7 JUMP JUMPDEST SWAP1 POP PUSH2 0x2742 DUP3 PUSH1 0x0 ADD MLOAD PUSH2 0x3815 JUMP JUMPDEST PUSH1 0xD SLOAD PUSH1 0x40 MLOAD PUSH4 0xA9059CBB PUSH1 0xE0 SHL DUP2 MSTORE CALLER PUSH1 0x4 DUP3 ADD MSTORE PUSH1 0x24 DUP2 ADD DUP4 SWAP1 MSTORE PUSH1 0x1 PUSH1 0x1 PUSH1 0xA0 SHL SUB SWAP1 SWAP2 AND SWAP1 PUSH4 0xA9059CBB SWAP1 PUSH1 0x44 ADD PUSH1 0x20 PUSH1 0x40 MLOAD DUP1 DUP4 SUB DUP2 PUSH1 0x0 DUP8 DUP1 EXTCODESIZE ISZERO DUP1 ISZERO PUSH2 0x278E JUMPI PUSH1 0x0 DUP1 REVERT JUMPDEST POP GAS CALL ISZERO DUP1 ISZERO PUSH2 0x27A2 JUMPI RETURNDATASIZE PUSH1 0x0 DUP1 RETURNDATACOPY RETURNDATASIZE PUSH1 0x0 REVERT JUMPDEST POP POP POP POP PUSH1 0x40 MLOAD RETURNDATASIZE PUSH1 0x1F NOT PUSH1 0x1F DUP3 ADD AND DUP3 ADD DUP1 PUSH1 0x40 MSTORE POP DUP2 ADD SWAP1 PUSH2 0x27C6 SWAP2 SWAP1 PUSH2 0x40B6 JUMP JUMPDEST POP PUSH1 0x40 MLOAD DUP2 DUP2 MSTORE CALLER SWAP1 PUSH32 0xD62AEB2DF4F1C7A0C59E15C0DCA22CCBCBE42AD0D0DBF99A22C0AD2551C5A155 SWAP1 PUSH1 0x20 ADD PUSH1 0x40 MLOAD DUP1 SWAP2 SUB SWAP1 LOG2 POP JUMPDEST CALLER PUSH1 0x0 SWAP1 DUP2 MSTORE PUSH1 0xE PUSH1 0x20 MSTORE PUSH1 0x40 SWAP1 KECCAK256 DUP1 SLOAD DUP4 SWAP1 DUP2 LT PUSH2 0x281F JUMPI PUSH2 0x281F PUSH2 0x45DD JUMP JUMPDEST PUSH1 0x0 SWAP2 DUP3 MSTORE PUSH1 0x20 DUP3 KECCAK256 PUSH1 0x3 SWAP1 SWAP2 MUL ADD DUP2 DUP2 SSTORE PUSH1 0x1 DUP1 DUP3 ADD DUP1 SLOAD PUSH1 0xFF NOT AND SWAP1 SSTORE PUSH1 0x2 SWAP1 SWAP2 ADD SWAP2 SWAP1 SWAP2 SSTORE SWAP3 POP JUMPDEST POP DUP1 PUSH2 0x2855 DUP2 PUSH2 0x4582 JUMP JUMPDEST SWAP2 POP POP PUSH2 0x256F JUMP JUMPDEST PUSH1 0x60 PUSH1 0x1 DUP1 SLOAD PUSH2 0xECA SWAP1 PUSH2 0x454D JUMP JUMPDEST PUSH1 0x1 PUSH1 0x1 PUSH1 0xA0 SHL SUB DUP3 AND CALLER EQ ISZERO PUSH2 0x28C5 JUMPI PUSH1 0x40 MLOAD PUSH3 0x461BCD PUSH1 0xE5 SHL DUP2 MSTORE PUSH1 0x20 PUSH1 0x4 DUP3 ADD MSTORE PUSH1 0x19 PUSH1 0x24 DUP3 ADD MSTORE PUSH32 0x4552433732313A20617070726F766520746F2063616C6C657200000000000000 PUSH1 0x44 DUP3 ADD MSTORE PUSH1 0x64 ADD PUSH2 0xB24 JUMP JUMPDEST CALLER PUSH1 0x0 DUP2 DUP2 MSTORE PUSH1 0x5 PUSH1 0x20 SWAP1 DUP2 MSTORE PUSH1 0x40 DUP1 DUP4 KECCAK256 PUSH1 0x1 PUSH1 0x1 PUSH1 0xA0 SHL SUB DUP8 AND DUP1 DUP6 MSTORE SWAP1 DUP4 MSTORE SWAP3 DUP2 SWAP1 KECCAK256 DUP1 SLOAD PUSH1 0xFF NOT AND DUP7 ISZERO ISZERO SWAP1 DUP2 OR SWAP1 SWAP2 SSTORE SWAP1 MLOAD SWAP1 DUP2 MSTORE SWAP2 SWAP3 SWAP2 PUSH32 0x17307EAB39AB6107E8899845AD3D59BD9653F200F220920489CA2B5937696C31 SWAP2 ADD PUSH1 0x40 MLOAD DUP1 SWAP2 SUB SWAP1 LOG3 POP POP JUMP JUMPDEST PUSH2 0x293B CALLER DUP4 PUSH2 0x346D JUMP JUMPDEST PUSH2 0x2957 JUMPI PUSH1 0x40 MLOAD PUSH3 0x461BCD PUSH1 0xE5 SHL DUP2 MSTORE PUSH1 0x4 ADD PUSH2 0xB24 SWAP1 PUSH2 0x4403 JUMP JUMPDEST PUSH2 0x2963 DUP5 DUP5 DUP5 DUP5 PUSH2 0x390B JUMP JUMPDEST POP POP POP POP JUMP JUMPDEST PUSH1 0x0 DUP1 PUSH2 0x2975 DUP4 PUSH2 0x168F JUMP JUMPDEST SWAP1 POP PUSH2 0x2980 DUP2 PUSH2 0x15D2 JUMP JUMPDEST SWAP4 SWAP3 POP POP POP JUMP JUMPDEST PUSH1 0x1 PUSH1 0x1 PUSH1 0xA0 SHL SUB DUP2 AND PUSH1 0x0 SWAP1 DUP2 MSTORE PUSH3 0x11181 PUSH1 0x20 SWAP1 DUP2 MSTORE PUSH1 0x40 SWAP2 DUP3 SWAP1 KECCAK256 DUP1 SLOAD DUP4 MLOAD DUP2 DUP5 MUL DUP2 ADD DUP5 ADD SWAP1 SWAP5 MSTORE DUP1 DUP5 MSTORE PUSH1 0x60 SWAP4 SWAP3 DUP4 ADD DUP3 DUP3 DUP1 ISZERO PUSH2 0x29E9 JUMPI PUSH1 0x20 MUL DUP3 ADD SWAP2 SWAP1 PUSH1 0x0 MSTORE PUSH1 0x20 PUSH1 0x0 KECCAK256 SWAP1 JUMPDEST DUP2 SLOAD DUP2 MSTORE PUSH1 0x20 ADD SWAP1 PUSH1 0x1 ADD SWAP1 DUP1 DUP4 GT PUSH2 0x29D5 JUMPI JUMPDEST POP POP POP POP POP SWAP1 POP SWAP2 SWAP1 POP JUMP JUMPDEST PUSH1 0x60 PUSH2 0x2A00 DUP3 PUSH2 0x321F JUMP JUMPDEST PUSH2 0x2A66 JUMPI PUSH1 0x40 MLOAD PUSH3 0x461BCD PUSH1 0xE5 SHL DUP2 MSTORE PUSH1 0x20 PUSH1 0x4 DUP3 ADD MSTORE PUSH1 0x31 PUSH1 0x24 DUP3 ADD MSTORE PUSH32 0x45524337323155524953746F726167653A2055524920717565727920666F7220 PUSH1 0x44 DUP3 ADD MSTORE PUSH17 0x3737B732BC34B9BA32B73A103A37B5B2B7 PUSH1 0x79 SHL PUSH1 0x64 DUP3 ADD MSTORE PUSH1 0x84 ADD PUSH2 0xB24 JUMP JUMPDEST PUSH1 0x40 MLOAD DUP1 PUSH1 0x60 ADD PUSH1 0x40 MSTORE DUP1 PUSH1 0x25 DUP2 MSTORE PUSH1 0x20 ADD PUSH2 0x462E PUSH1 0x25 SWAP2 CODECOPY PUSH2 0x2A88 DUP4 PUSH2 0x393E JUMP JUMPDEST PUSH1 0x40 MLOAD PUSH1 0x20 ADD PUSH2 0x2A99 SWAP3 SWAP2 SWAP1 PUSH2 0x41EF JUMP JUMPDEST PUSH1 0x40 MLOAD PUSH1 0x20 DUP2 DUP4 SUB SUB DUP2 MSTORE SWAP1 PUSH1 0x40 MSTORE SWAP1 POP SWAP2 SWAP1 POP JUMP JUMPDEST PUSH1 0x1 PUSH1 0x1 PUSH1 0xA0 SHL SUB DUP2 AND PUSH1 0x0 SWAP1 DUP2 MSTORE PUSH3 0x11181 PUSH1 0x20 SWAP1 DUP2 MSTORE PUSH1 0x40 DUP1 DUP4 KECCAK256 DUP1 SLOAD DUP3 MLOAD DUP2 DUP6 MUL DUP2 ADD DUP6 ADD SWAP1 SWAP4 MSTORE DUP1 DUP4 MSTORE PUSH1 0x60 SWAP5 SWAP4 DUP4 ADD DUP3 DUP3 DUP1 ISZERO PUSH2 0x2B10 JUMPI PUSH1 0x20 MUL DUP3 ADD SWAP2 SWAP1 PUSH1 0x0 MSTORE PUSH1 0x20 PUSH1 0x0 KECCAK256 SWAP1 JUMPDEST DUP2 SLOAD DUP2 MSTORE PUSH1 0x20 ADD SWAP1 PUSH1 0x1 ADD SWAP1 DUP1 DUP4 GT PUSH2 0x2AFC JUMPI JUMPDEST POP POP POP POP POP SWAP1 POP PUSH1 0x0 DUP2 MLOAD PUSH8 0xFFFFFFFFFFFFFFFF DUP2 GT ISZERO PUSH2 0x2B33 JUMPI PUSH2 0x2B33 PUSH2 0x45F3 JUMP JUMPDEST PUSH1 0x40 MLOAD SWAP1 DUP1 DUP3 MSTORE DUP1 PUSH1 0x20 MUL PUSH1 0x20 ADD DUP3 ADD PUSH1 0x40 MSTORE DUP1 ISZERO PUSH2 0x2B5C JUMPI DUP2 PUSH1 0x20 ADD PUSH1 0x20 DUP3 MUL DUP1 CALLDATASIZE DUP4 CALLDATACOPY ADD SWAP1 POP JUMPDEST POP SWAP1 POP DUP2 MLOAD PUSH1 0x0 EQ PUSH2 0x2980 JUMPI PUSH1 0x0 JUMPDEST DUP3 MLOAD DUP2 LT ISZERO PUSH2 0x2BD2 JUMPI PUSH3 0x1117F PUSH1 0x0 DUP5 DUP4 DUP2 MLOAD DUP2 LT PUSH2 0x2B8C JUMPI PUSH2 0x2B8C PUSH2 0x45DD JUMP JUMPDEST PUSH1 0x20 MUL PUSH1 0x20 ADD ADD MLOAD DUP2 MSTORE PUSH1 0x20 ADD SWAP1 DUP2 MSTORE PUSH1 0x20 ADD PUSH1 0x0 KECCAK256 SLOAD DUP3 DUP3 DUP2 MLOAD DUP2 LT PUSH2 0x2BB5 JUMPI PUSH2 0x2BB5 PUSH2 0x45DD JUMP JUMPDEST PUSH1 0x20 SWAP1 DUP2 MUL SWAP2 SWAP1 SWAP2 ADD ADD MSTORE DUP1 PUSH2 0x2BCA DUP2 PUSH2 0x4582 JUMP JUMPDEST SWAP2 POP POP PUSH2 0x2B6B JUMP JUMPDEST POP SWAP4 SWAP3 POP POP POP JUMP JUMPDEST PUSH3 0x11181 PUSH1 0x20 MSTORE DUP2 PUSH1 0x0 MSTORE PUSH1 0x40 PUSH1 0x0 KECCAK256 DUP2 DUP2 SLOAD DUP2 LT PUSH2 0x2BF8 JUMPI PUSH1 0x0 DUP1 REVERT JUMPDEST SWAP1 PUSH1 0x0 MSTORE PUSH1 0x20 PUSH1 0x0 KECCAK256 ADD PUSH1 0x0 SWAP2 POP SWAP2 POP POP SLOAD DUP2 JUMP JUMPDEST PUSH1 0x6 SLOAD PUSH1 0x0 SWAP1 PUSH1 0x1 PUSH1 0x1 PUSH1 0xA0 SHL SUB AND CALLER EQ PUSH2 0x2C3A JUMPI PUSH1 0x40 MLOAD PUSH3 0x461BCD PUSH1 0xE5 SHL DUP2 MSTORE PUSH1 0x4 ADD PUSH2 0xB24 SWAP1 PUSH2 0x43CE JUMP JUMPDEST PUSH3 0x11180 SLOAD PUSH2 0x2710 GT PUSH2 0x2C99 JUMPI PUSH1 0x40 MLOAD PUSH3 0x461BCD PUSH1 0xE5 SHL DUP2 MSTORE PUSH1 0x20 PUSH1 0x4 DUP3 ADD MSTORE PUSH1 0x21 PUSH1 0x24 DUP3 ADD MSTORE PUSH32 0x75686F682C206E6F207469746C657320617661696C61626C6520616E796D6F72 PUSH1 0x44 DUP3 ADD MSTORE PUSH1 0x65 PUSH1 0xF8 SHL PUSH1 0x64 DUP3 ADD MSTORE PUSH1 0x84 ADD PUSH2 0xB24 JUMP JUMPDEST PUSH1 0x0 PUSH3 0x11180 SLOAD PUSH1 0x1 PUSH2 0x2CAC SWAP2 SWAP1 PUSH2 0x449A JUMP JUMPDEST SWAP1 POP PUSH2 0x2CB8 DUP4 DUP3 PUSH2 0x3A67 JUMP JUMPDEST PUSH1 0x1 PUSH1 0x1 PUSH1 0xA0 SHL SUB DUP4 AND PUSH1 0x0 SWAP1 DUP2 MSTORE PUSH3 0x11181 PUSH1 0x20 SWAP1 DUP2 MSTORE PUSH1 0x40 DUP1 DUP4 KECCAK256 DUP1 SLOAD PUSH1 0x1 DUP2 ADD DUP3 SSTORE SWAP1 DUP5 MSTORE DUP3 DUP5 KECCAK256 ADD DUP5 SWAP1 SSTORE DUP4 DUP4 MSTORE PUSH3 0x1117F SWAP1 SWAP2 MSTORE DUP2 KECCAK256 DUP3 SWAP1 SSTORE DUP1 DUP1 PUSH2 0x2D01 DUP5 PUSH2 0x3A81 JUMP JUMPDEST SWAP3 POP SWAP3 POP SWAP3 POP PUSH1 0x40 MLOAD DUP1 PUSH1 0xE0 ADD PUSH1 0x40 MSTORE DUP1 PUSH1 0x0 DUP2 MSTORE PUSH1 0x20 ADD PUSH1 0x0 DUP2 MSTORE PUSH1 0x20 ADD PUSH1 0x3C TIMESTAMP PUSH2 0x2D2D SWAP2 SWAP1 PUSH2 0x449A JUMP JUMPDEST DUP2 MSTORE PUSH1 0x20 ADD PUSH2 0x2D3D PUSH1 0x3C TIMESTAMP PUSH2 0x449A JUMP JUMPDEST DUP2 MSTORE PUSH1 0x20 ADD DUP5 DUP2 MSTORE PUSH1 0x20 ADD DUP4 DUP2 MSTORE PUSH1 0x20 ADD DUP3 DUP2 MSTORE POP PUSH1 0xF DUP6 PUSH2 0x2710 DUP2 LT PUSH2 0x2D66 JUMPI PUSH2 0x2D66 PUSH2 0x45DD JUMP JUMPDEST DUP3 MLOAD PUSH1 0x7 SWAP2 SWAP1 SWAP2 MUL SWAP2 SWAP1 SWAP2 ADD SWAP1 DUP2 SSTORE PUSH1 0x20 DUP3 ADD MLOAD PUSH1 0x1 DUP3 ADD SSTORE PUSH1 0x40 DUP3 ADD MLOAD PUSH1 0x2 DUP3 ADD SSTORE PUSH1 0x60 DUP3 ADD MLOAD PUSH1 0x3 DUP3 ADD SSTORE PUSH1 0x80 DUP3 ADD MLOAD PUSH1 0x4 DUP3 ADD SSTORE PUSH1 0xA0 DUP3 ADD MLOAD PUSH1 0x5 DUP3 ADD SSTORE PUSH1 0xC0 SWAP1 SWAP2 ADD MLOAD PUSH1 0x6 SWAP1 SWAP2 ADD SSTORE PUSH3 0x11180 DUP1 SLOAD SWAP1 PUSH1 0x0 PUSH2 0x2DC5 DUP4 PUSH2 0x4582 JUMP JUMPDEST SWAP1 SWAP2 SSTORE POP SWAP4 SWAP7 SWAP6 POP POP POP POP POP POP JUMP JUMPDEST PUSH1 0x6 SLOAD PUSH1 0x1 PUSH1 0x1 PUSH1 0xA0 SHL SUB AND CALLER EQ PUSH2 0x2DFE JUMPI PUSH1 0x40 MLOAD PUSH3 0x461BCD PUSH1 0xE5 SHL DUP2 MSTORE PUSH1 0x4 ADD PUSH2 0xB24 SWAP1 PUSH2 0x43CE JUMP JUMPDEST PUSH1 0x1 PUSH1 0x1 PUSH1 0xA0 SHL SUB DUP2 AND PUSH2 0x2E63 JUMPI PUSH1 0x40 MLOAD PUSH3 0x461BCD PUSH1 0xE5 SHL DUP2 MSTORE PUSH1 0x20 PUSH1 0x4 DUP3 ADD MSTORE PUSH1 0x26 PUSH1 0x24 DUP3 ADD MSTORE PUSH32 0x4F776E61626C653A206E6577206F776E657220697320746865207A65726F2061 PUSH1 0x44 DUP3 ADD MSTORE PUSH6 0x646472657373 PUSH1 0xD0 SHL PUSH1 0x64 DUP3 ADD MSTORE PUSH1 0x84 ADD PUSH2 0xB24 JUMP JUMPDEST PUSH2 0x2E6C DUP2 PUSH2 0x371A JUMP JUMPDEST POP JUMP JUMPDEST PUSH2 0x2E77 PUSH2 0x3E95 JUMP JUMPDEST PUSH1 0x0 DUP1 PUSH1 0x0 DUP1 JUMPDEST CALLER PUSH1 0x0 SWAP1 DUP2 MSTORE PUSH1 0xE PUSH1 0x20 MSTORE PUSH1 0x40 SWAP1 KECCAK256 SLOAD DUP2 LT ISZERO PUSH2 0x2F61 JUMPI CALLER PUSH1 0x0 SWAP1 DUP2 MSTORE PUSH1 0xE PUSH1 0x20 MSTORE PUSH1 0x40 DUP2 KECCAK256 DUP1 SLOAD DUP4 SWAP1 DUP2 LT PUSH2 0x2EB6 JUMPI PUSH2 0x2EB6 PUSH2 0x45DD JUMP JUMPDEST PUSH1 0x0 SWAP2 DUP3 MSTORE PUSH1 0x20 SWAP2 DUP3 SWAP1 KECCAK256 PUSH1 0x40 DUP1 MLOAD PUSH1 0x60 DUP2 ADD DUP3 MSTORE PUSH1 0x3 SWAP1 SWAP4 MUL SWAP1 SWAP2 ADD DUP1 SLOAD DUP4 MSTORE PUSH1 0x1 DUP2 ADD SLOAD PUSH1 0xFF AND SWAP4 DUP4 ADD SWAP4 SWAP1 SWAP4 MSTORE PUSH1 0x2 SWAP1 SWAP3 ADD SLOAD SWAP2 DUP2 ADD DUP3 SWAP1 MSTORE SWAP2 POP PUSH2 0x2EFE JUMPI POP PUSH2 0x2F4F JUMP JUMPDEST DUP3 PUSH2 0x2F08 DUP2 PUSH2 0x4582 JUMP JUMPDEST SWAP4 POP POP DUP1 PUSH1 0x20 ADD MLOAD PUSH1 0xFF AND PUSH1 0x0 EQ ISZERO PUSH2 0x2F2E JUMPI DUP1 MLOAD PUSH2 0x2F27 SWAP1 DUP7 PUSH2 0x449A JUMP JUMPDEST SWAP5 POP PUSH2 0x2F4D JUMP JUMPDEST DUP1 PUSH1 0x20 ADD MLOAD PUSH1 0xFF AND PUSH1 0x1 EQ ISZERO PUSH2 0x2F4D JUMPI DUP1 MLOAD PUSH2 0x2F4A SWAP1 DUP6 PUSH2 0x449A JUMP JUMPDEST SWAP4 POP JUMPDEST POP JUMPDEST DUP1 PUSH2 0x2F59 DUP2 PUSH2 0x4582 JUMP JUMPDEST SWAP2 POP POP PUSH2 0x2E7E JUMP JUMPDEST POP PUSH1 0x40 DUP1 MLOAD PUSH1 0x60 DUP2 ADD DUP3 MSTORE SWAP4 DUP5 MSTORE PUSH1 0x20 DUP5 ADD SWAP3 SWAP1 SWAP3 MSTORE SWAP1 DUP3 ADD MSTORE SWAP2 SWAP1 POP JUMP JUMPDEST PUSH1 0x0 DUP1 PUSH1 0x64 DIFFICULTY PUSH3 0x11182 SLOAD PUSH1 0x40 MLOAD PUSH1 0x20 ADD PUSH2 0x2FA5 SWAP3 SWAP2 SWAP1 SWAP2 DUP3 MSTORE PUSH1 0x20 DUP3 ADD MSTORE PUSH1 0x40 ADD SWAP1 JUMP JUMPDEST PUSH1 0x40 MLOAD PUSH1 0x20 DUP2 DUP4 SUB SUB DUP2 MSTORE SWAP1 PUSH1 0x40 MSTORE DUP1 MLOAD SWAP1 PUSH1 0x20 ADD KECCAK256 PUSH1 0x0 SHR PUSH2 0x2FC8 SWAP2 SWAP1 PUSH2 0x459D JUMP JUMPDEST SWAP1 POP DUP1 PUSH3 0x11182 SLOAD PUSH2 0x2FDA SWAP2 SWAP1 PUSH2 0x449A JUMP JUMPDEST PUSH3 0x11182 SSTORE SWAP2 SWAP1 POP JUMP JUMPDEST PUSH1 0x0 DUP1 DUP3 ISZERO PUSH2 0x300A JUMPI PUSH2 0x2FF7 DUP4 DUP6 PUSH2 0x44D7 JUMP JUMPDEST SWAP2 POP PUSH2 0x3003 DUP4 DUP6 PUSH2 0x459D JUMP JUMPDEST SWAP1 POP PUSH2 0x3011 JUMP JUMPDEST POP PUSH1 0x0 SWAP1 POP DUP3 JUMPDEST SWAP3 POP SWAP3 SWAP1 POP JUMP JUMPDEST DUP1 PUSH1 0x80 ADD MLOAD PUSH1 0xF DUP3 PUSH1 0x20 ADD MLOAD PUSH2 0x2710 DUP2 LT PUSH2 0x3035 JUMPI PUSH2 0x3035 PUSH2 0x45DD JUMP JUMPDEST PUSH1 0x7 MUL ADD DUP1 SLOAD PUSH1 0x0 SWAP1 PUSH2 0x3049 SWAP1 DUP5 SWAP1 PUSH2 0x450A JUMP JUMPDEST SWAP3 POP POP DUP2 SWAP1 SSTORE POP PUSH1 0x0 PUSH1 0xF DUP3 PUSH1 0x20 ADD MLOAD PUSH2 0x2710 DUP2 LT PUSH2 0x306A JUMPI PUSH2 0x306A PUSH2 0x45DD JUMP JUMPDEST PUSH1 0x7 MUL ADD SLOAD LT ISZERO PUSH2 0x30C8 JUMPI PUSH1 0x40 MLOAD PUSH3 0x461BCD PUSH1 0xE5 SHL DUP2 MSTORE PUSH1 0x20 PUSH1 0x4 DUP3 ADD MSTORE PUSH1 0x22 PUSH1 0x24 DUP3 ADD MSTORE PUSH32 0x75686F682C207468652061747461636B706F696E747320617265207A65726F2E PUSH1 0x44 DUP3 ADD MSTORE PUSH2 0x1717 PUSH1 0xF1 SHL PUSH1 0x64 DUP3 ADD MSTORE PUSH1 0x84 ADD PUSH2 0xB24 JUMP JUMPDEST DUP1 PUSH1 0xA0 ADD MLOAD PUSH1 0xF DUP3 PUSH1 0x40 ADD MLOAD PUSH2 0x2710 DUP2 LT PUSH2 0x30E5 JUMPI PUSH2 0x30E5 PUSH2 0x45DD JUMP JUMPDEST PUSH1 0x7 MUL ADD PUSH1 0x1 ADD PUSH1 0x0 DUP3 DUP3 SLOAD PUSH2 0x30FB SWAP2 SWAP1 PUSH2 0x450A JUMP JUMPDEST SWAP3 POP POP DUP2 SWAP1 SSTORE POP PUSH1 0x0 PUSH1 0xF DUP3 PUSH1 0x40 ADD MLOAD PUSH2 0x2710 DUP2 LT PUSH2 0x311C JUMPI PUSH2 0x311C PUSH2 0x45DD JUMP JUMPDEST PUSH1 0x7 MUL ADD PUSH1 0x1 ADD SLOAD LT ISZERO PUSH2 0x317E JUMPI PUSH1 0x40 MLOAD PUSH3 0x461BCD PUSH1 0xE5 SHL DUP2 MSTORE PUSH1 0x20 PUSH1 0x4 DUP3 ADD MSTORE PUSH1 0x23 PUSH1 0x24 DUP3 ADD MSTORE PUSH32 0x75686F682C2074686520646566656E7365706F696E747320617265207A65726F PUSH1 0x44 DUP3 ADD MSTORE PUSH3 0x171717 PUSH1 0xE9 SHL PUSH1 0x64 DUP3 ADD MSTORE PUSH1 0x84 ADD PUSH2 0xB24 JUMP JUMPDEST DUP1 MLOAD ISZERO PUSH2 0x2E6C JUMPI PUSH1 0x40 DUP2 DUP2 ADD DUP1 MLOAD PUSH1 0x0 SWAP1 DUP2 MSTORE PUSH3 0x1117F PUSH1 0x20 SWAP1 DUP2 MSTORE DUP4 DUP3 KECCAK256 SLOAD DUP2 DUP7 ADD DUP1 MLOAD DUP5 MSTORE DUP6 DUP5 KECCAK256 SLOAD SWAP5 MLOAD DUP5 MSTORE DUP6 DUP5 KECCAK256 SWAP5 SWAP1 SWAP5 SSTORE DUP4 MLOAD DUP4 MSTORE DUP5 DUP4 KECCAK256 DUP2 SWAP1 SSTORE PUSH1 0x60 DUP1 DUP8 ADD MLOAD SWAP5 MLOAD DUP5 MSTORE SWAP3 DUP6 SWAP1 KECCAK256 SLOAD DUP6 MLOAD CALLER DUP2 MSTORE PUSH1 0x1 PUSH1 0x1 PUSH1 0xA0 SHL SUB SWAP1 SWAP6 AND SWAP3 DUP6 ADD SWAP3 SWAP1 SWAP3 MSTORE SWAP4 DUP4 ADD DUP5 SWAP1 MSTORE SWAP1 DUP3 ADD MSTORE PUSH32 0x613181C93C2A39A642ABF3636C19505E28200A1A2E1AB682C50373F15308DF62 SWAP1 PUSH1 0x80 ADD PUSH1 0x40 MLOAD DUP1 SWAP2 SUB SWAP1 LOG1 POP POP JUMP JUMPDEST PUSH1 0x0 SWAP1 DUP2 MSTORE PUSH1 0x2 PUSH1 0x20 MSTORE PUSH1 0x40 SWAP1 KECCAK256 SLOAD PUSH1 0x1 PUSH1 0x1 PUSH1 0xA0 SHL SUB AND ISZERO ISZERO SWAP1 JUMP JUMPDEST CALLER PUSH1 0x0 SWAP1 DUP2 MSTORE PUSH3 0x11183 PUSH1 0x20 MSTORE PUSH1 0x40 SWAP1 KECCAK256 DUP1 SLOAD PUSH1 0x1 DUP3 ADD SLOAD PUSH1 0x2 SWAP1 SWAP3 ADD SLOAD SWAP1 SWAP2 SWAP1 DUP3 ISZERO PUSH2 0x32E9 JUMPI PUSH1 0xC SLOAD PUSH1 0x40 MLOAD PUSH4 0xA9059CBB PUSH1 0xE0 SHL DUP2 MSTORE CALLER PUSH1 0x4 DUP3 ADD MSTORE PUSH1 0x24 DUP2 ADD DUP6 SWAP1 MSTORE PUSH1 0x1 PUSH1 0x1 PUSH1 0xA0 SHL SUB SWAP1 SWAP2 AND SWAP1 PUSH4 0xA9059CBB SWAP1 PUSH1 0x44 ADD PUSH1 0x20 PUSH1 0x40 MLOAD DUP1 DUP4 SUB DUP2 PUSH1 0x0 DUP8 DUP1 EXTCODESIZE ISZERO DUP1 ISZERO PUSH2 0x32AF JUMPI PUSH1 0x0 DUP1 REVERT JUMPDEST POP GAS CALL ISZERO DUP1 ISZERO PUSH2 0x32C3 JUMPI RETURNDATASIZE PUSH1 0x0 DUP1 RETURNDATACOPY RETURNDATASIZE PUSH1 0x0 REVERT JUMPDEST POP POP POP POP PUSH1 0x40 MLOAD RETURNDATASIZE PUSH1 0x1F NOT PUSH1 0x1F DUP3 ADD AND DUP3 ADD DUP1 PUSH1 0x40 MSTORE POP DUP2 ADD SWAP1 PUSH2 0x32E7 SWAP2 SWAP1 PUSH2 0x40B6 JUMP JUMPDEST POP JUMPDEST DUP2 ISZERO PUSH2 0x3375 JUMPI PUSH1 0xD SLOAD PUSH1 0x40 MLOAD PUSH4 0xA9059CBB PUSH1 0xE0 SHL DUP2 MSTORE CALLER PUSH1 0x4 DUP3 ADD MSTORE PUSH1 0x24 DUP2 ADD DUP5 SWAP1 MSTORE PUSH1 0x1 PUSH1 0x1 PUSH1 0xA0 SHL SUB SWAP1 SWAP2 AND SWAP1 PUSH4 0xA9059CBB SWAP1 PUSH1 0x44 ADD PUSH1 0x20 PUSH1 0x40 MLOAD DUP1 DUP4 SUB DUP2 PUSH1 0x0 DUP8 DUP1 EXTCODESIZE ISZERO DUP1 ISZERO PUSH2 0x333B JUMPI PUSH1 0x0 DUP1 REVERT JUMPDEST POP GAS CALL ISZERO DUP1 ISZERO PUSH2 0x334F JUMPI RETURNDATASIZE PUSH1 0x0 DUP1 RETURNDATACOPY RETURNDATASIZE PUSH1 0x0 REVERT JUMPDEST POP POP POP POP PUSH1 0x40 MLOAD RETURNDATASIZE PUSH1 0x1F NOT PUSH1 0x1F DUP3 ADD AND DUP3 ADD DUP1 PUSH1 0x40 MSTORE POP DUP2 ADD SWAP1 PUSH2 0x3373 SWAP2 SWAP1 PUSH2 0x40B6 JUMP JUMPDEST POP JUMPDEST DUP1 ISZERO PUSH2 0x1118 JUMPI PUSH1 0xB SLOAD PUSH1 0x40 MLOAD PUSH4 0xA9059CBB PUSH1 0xE0 SHL DUP2 MSTORE CALLER PUSH1 0x4 DUP3 ADD MSTORE PUSH1 0x24 DUP2 ADD DUP4 SWAP1 MSTORE PUSH1 0x1 PUSH1 0x1 PUSH1 0xA0 SHL SUB SWAP1 SWAP2 AND SWAP1 PUSH4 0xA9059CBB SWAP1 PUSH1 0x44 ADD PUSH1 0x20 PUSH1 0x40 MLOAD DUP1 DUP4 SUB DUP2 PUSH1 0x0 DUP8 DUP1 EXTCODESIZE ISZERO DUP1 ISZERO PUSH2 0x33C7 JUMPI PUSH1 0x0 DUP1 REVERT JUMPDEST POP GAS CALL ISZERO DUP1 ISZERO PUSH2 0x33DB JUMPI RETURNDATASIZE PUSH1 0x0 DUP1 RETURNDATACOPY RETURNDATASIZE PUSH1 0x0 REVERT JUMPDEST POP POP POP POP PUSH1 0x40 MLOAD RETURNDATASIZE PUSH1 0x1F NOT PUSH1 0x1F DUP3 ADD AND DUP3 ADD DUP1 PUSH1 0x40 MSTORE POP DUP2 ADD SWAP1 PUSH2 0x2963 SWAP2 SWAP1 PUSH2 0x40B6 JUMP JUMPDEST PUSH1 0x0 DUP2 DUP2 MSTORE PUSH1 0x4 PUSH1 0x20 MSTORE PUSH1 0x40 SWAP1 KECCAK256 DUP1 SLOAD PUSH1 0x1 PUSH1 0x1 PUSH1 0xA0 SHL SUB NOT AND PUSH1 0x1 PUSH1 0x1 PUSH1 0xA0 SHL SUB DUP5 AND SWAP1 DUP2 OR SWAP1 SWAP2 SSTORE DUP2 SWAP1 PUSH2 0x3434 DUP3 PUSH2 0x1EEB JUMP JUMPDEST PUSH1 0x1 PUSH1 0x1 PUSH1 0xA0 SHL SUB AND PUSH32 0x8C5BE1E5EBEC7D5BD14F71427D1E84F3DD0314C0F7B2291E5B200AC8C7C3B925 PUSH1 0x40 MLOAD PUSH1 0x40 MLOAD DUP1 SWAP2 SUB SWAP1 LOG4 POP POP JUMP JUMPDEST PUSH1 0x0 PUSH2 0x3478 DUP3 PUSH2 0x321F JUMP JUMPDEST PUSH2 0x34D9 JUMPI PUSH1 0x40 MLOAD PUSH3 0x461BCD PUSH1 0xE5 SHL DUP2 MSTORE PUSH1 0x20 PUSH1 0x4 DUP3 ADD MSTORE PUSH1 0x2C PUSH1 0x24 DUP3 ADD MSTORE PUSH32 0x4552433732313A206F70657261746F7220717565727920666F72206E6F6E6578 PUSH1 0x44 DUP3 ADD MSTORE PUSH12 0x34B9BA32B73A103A37B5B2B7 PUSH1 0xA1 SHL PUSH1 0x64 DUP3 ADD MSTORE PUSH1 0x84 ADD PUSH2 0xB24 JUMP JUMPDEST PUSH1 0x0 PUSH2 0x34E4 DUP4 PUSH2 0x1EEB JUMP JUMPDEST SWAP1 POP DUP1 PUSH1 0x1 PUSH1 0x1 PUSH1 0xA0 SHL SUB AND DUP5 PUSH1 0x1 PUSH1 0x1 PUSH1 0xA0 SHL SUB AND EQ DUP1 PUSH2 0x351F JUMPI POP DUP4 PUSH1 0x1 PUSH1 0x1 PUSH1 0xA0 SHL SUB AND PUSH2 0x3514 DUP5 PUSH2 0x11C6 JUMP JUMPDEST PUSH1 0x1 PUSH1 0x1 PUSH1 0xA0 SHL SUB AND EQ JUMPDEST DUP1 PUSH2 0x354F JUMPI POP PUSH1 0x1 PUSH1 0x1 PUSH1 0xA0 SHL SUB DUP1 DUP3 AND PUSH1 0x0 SWAP1 DUP2 MSTORE PUSH1 0x5 PUSH1 0x20 SWAP1 DUP2 MSTORE PUSH1 0x40 DUP1 DUP4 KECCAK256 SWAP4 DUP9 AND DUP4 MSTORE SWAP3 SWAP1 MSTORE KECCAK256 SLOAD PUSH1 0xFF AND JUMPDEST SWAP5 SWAP4 POP POP POP POP JUMP JUMPDEST DUP3 PUSH1 0x1 PUSH1 0x1 PUSH1 0xA0 SHL SUB AND PUSH2 0x356A DUP3 PUSH2 0x1EEB JUMP JUMPDEST PUSH1 0x1 PUSH1 0x1 PUSH1 0xA0 SHL SUB AND EQ PUSH2 0x35D2 JUMPI PUSH1 0x40 MLOAD PUSH3 0x461BCD PUSH1 0xE5 SHL DUP2 MSTORE PUSH1 0x20 PUSH1 0x4 DUP3 ADD MSTORE PUSH1 0x29 PUSH1 0x24 DUP3 ADD MSTORE PUSH32 0x4552433732313A207472616E73666572206F6620746F6B656E20746861742069 PUSH1 0x44 DUP3 ADD MSTORE PUSH9 0x39903737BA1037BBB7 PUSH1 0xB9 SHL PUSH1 0x64 DUP3 ADD MSTORE PUSH1 0x84 ADD PUSH2 0xB24 JUMP JUMPDEST PUSH1 0x1 PUSH1 0x1 PUSH1 0xA0 SHL SUB DUP3 AND PUSH2 0x3634 JUMPI PUSH1 0x40 MLOAD PUSH3 0x461BCD PUSH1 0xE5 SHL DUP2 MSTORE PUSH1 0x20 PUSH1 0x4 DUP3 ADD MSTORE PUSH1 0x24 DUP1 DUP3 ADD MSTORE PUSH32 0x4552433732313A207472616E7366657220746F20746865207A65726F20616464 PUSH1 0x44 DUP3 ADD MSTORE PUSH4 0x72657373 PUSH1 0xE0 SHL PUSH1 0x64 DUP3 ADD MSTORE PUSH1 0x84 ADD PUSH2 0xB24 JUMP JUMPDEST PUSH2 0x363F PUSH1 0x0 DUP3 PUSH2 0x33FF JUMP JUMPDEST PUSH1 0x1 PUSH1 0x1 PUSH1 0xA0 SHL SUB DUP4 AND PUSH1 0x0 SWAP1 DUP2 MSTORE PUSH1 0x3 PUSH1 0x20 MSTORE PUSH1 0x40 DUP2 KECCAK256 DUP1 SLOAD PUSH1 0x1 SWAP3 SWAP1 PUSH2 0x3668 SWAP1 DUP5 SWAP1 PUSH2 0x450A JUMP JUMPDEST SWAP1 SWAP2 SSTORE POP POP PUSH1 0x1 PUSH1 0x1 PUSH1 0xA0 SHL SUB DUP3 AND PUSH1 0x0 SWAP1 DUP2 MSTORE PUSH1 0x3 PUSH1 0x20 MSTORE PUSH1 0x40 DUP2 KECCAK256 DUP1 SLOAD PUSH1 0x1 SWAP3 SWAP1 PUSH2 0x3696 SWAP1 DUP5 SWAP1 PUSH2 0x449A JUMP JUMPDEST SWAP1 SWAP2 SSTORE POP POP PUSH1 0x0 DUP2 DUP2 MSTORE PUSH1 0x2 PUSH1 0x20 MSTORE PUSH1 0x40 DUP1 DUP3 KECCAK256 DUP1 SLOAD PUSH1 0x1 PUSH1 0x1 PUSH1 0xA0 SHL SUB NOT AND PUSH1 0x1 PUSH1 0x1 PUSH1 0xA0 SHL SUB DUP7 DUP2 AND SWAP2 DUP3 OR SWAP1 SWAP3 SSTORE SWAP2 MLOAD DUP5 SWAP4 SWAP2 DUP8 AND SWAP2 PUSH32 0xDDF252AD1BE2C89B69C2B068FC378DAA952BA7F163C4A11628F55A4DF523B3EF SWAP2 LOG4 POP POP POP JUMP JUMPDEST PUSH1 0x0 PUSH2 0xAAF DUP3 PUSH1 0x2 PUSH2 0x44EB JUMP JUMPDEST PUSH1 0x0 PUSH2 0x370F DUP3 PUSH2 0x36F7 JUMP JUMPDEST PUSH2 0xAAF SWAP1 PUSH1 0x1 PUSH2 0x449A JUMP JUMPDEST PUSH1 0x6 DUP1 SLOAD PUSH1 0x1 PUSH1 0x1 PUSH1 0xA0 SHL SUB DUP4 DUP2 AND PUSH1 0x1 PUSH1 0x1 PUSH1 0xA0 SHL SUB NOT DUP4 AND DUP2 OR SWAP1 SWAP4 SSTORE PUSH1 0x40 MLOAD SWAP2 AND SWAP2 SWAP1 DUP3 SWAP1 PUSH32 0x8BE0079C531659141344CD1FD0A4F28419497F9722A3DAAFE3B4186F6B6457E0 SWAP1 PUSH1 0x0 SWAP1 LOG3 POP POP JUMP JUMPDEST PUSH1 0x0 TIMESTAMP DUP3 LT PUSH2 0x37D7 JUMPI PUSH1 0x40 MLOAD PUSH3 0x461BCD PUSH1 0xE5 SHL DUP2 MSTORE PUSH1 0x20 PUSH1 0x4 DUP3 ADD MSTORE PUSH1 0x31 PUSH1 0x24 DUP3 ADD MSTORE PUSH32 0x796F752063616E2774207363616C652072657761726473207769746820612074 PUSH1 0x44 DUP3 ADD MSTORE PUSH17 0x696D6520696E2074686520667574757265 PUSH1 0x78 SHL PUSH1 0x64 DUP3 ADD MSTORE PUSH1 0x84 ADD PUSH2 0xB24 JUMP JUMPDEST PUSH1 0x0 PUSH2 0x37E3 DUP4 TIMESTAMP PUSH2 0x450A JUMP JUMPDEST SWAP1 POP PUSH1 0x0 PUSH1 0x7 SLOAD DUP3 PUSH2 0x37F5 SWAP2 SWAP1 PUSH2 0x44D7 JUMP JUMPDEST PUSH2 0x3800 SWAP1 PUSH1 0x1 PUSH2 0x449A JUMP JUMPDEST SWAP1 POP PUSH2 0x380C DUP2 DUP7 PUSH2 0x44EB JUMP JUMPDEST SWAP6 SWAP5 POP POP POP POP POP JUMP JUMPDEST PUSH1 0x6 SLOAD PUSH1 0x0 SWAP1 PUSH1 0x64 SWAP1 PUSH2 0x3832 SWAP1 PUSH1 0x1 PUSH1 0xB8 SHL SWAP1 DIV PUSH1 0xFF AND DUP5 PUSH2 0x44EB JUMP JUMPDEST PUSH2 0x383C SWAP2 SWAP1 PUSH2 0x44D7 JUMP JUMPDEST PUSH2 0x3846 SWAP1 DUP4 PUSH2 0x450A JUMP JUMPDEST PUSH1 0xB SLOAD PUSH1 0x40 MLOAD PUSH4 0xA9059CBB PUSH1 0xE0 SHL DUP2 MSTORE CALLER PUSH1 0x4 DUP3 ADD MSTORE PUSH1 0x24 DUP2 ADD DUP4 SWAP1 MSTORE SWAP2 SWAP3 POP PUSH1 0x1 PUSH1 0x1 PUSH1 0xA0 SHL SUB AND SWAP1 PUSH4 0xA9059CBB SWAP1 PUSH1 0x44 ADD PUSH1 0x20 PUSH1 0x40 MLOAD DUP1 DUP4 SUB DUP2 PUSH1 0x0 DUP8 DUP1 EXTCODESIZE ISZERO DUP1 ISZERO PUSH2 0x3893 JUMPI PUSH1 0x0 DUP1 REVERT JUMPDEST POP GAS CALL ISZERO DUP1 ISZERO PUSH2 0x38A7 JUMPI RETURNDATASIZE PUSH1 0x0 DUP1 RETURNDATACOPY RETURNDATASIZE PUSH1 0x0 REVERT JUMPDEST POP POP POP POP PUSH1 0x40 MLOAD RETURNDATASIZE PUSH1 0x1F NOT PUSH1 0x1F DUP3 ADD AND DUP3 ADD DUP1 PUSH1 0x40 MSTORE POP DUP2 ADD SWAP1 PUSH2 0x38CB SWAP2 SWAP1 PUSH2 0x40B6 JUMP JUMPDEST POP PUSH1 0x40 DUP1 MLOAD DUP3 DUP2 MSTORE PUSH1 0x20 DUP2 ADD DUP5 SWAP1 MSTORE CALLER SWAP2 PUSH32 0x11ACEC8EA502F5C875E157DD1A17389990A9350450464DB61EF112521C0D8751 SWAP2 ADD PUSH1 0x40 MLOAD DUP1 SWAP2 SUB SWAP1 LOG2 POP POP JUMP JUMPDEST PUSH2 0x3916 DUP5 DUP5 DUP5 PUSH2 0x3557 JUMP JUMPDEST PUSH2 0x3922 DUP5 DUP5 DUP5 DUP5 PUSH2 0x3C22 JUMP JUMPDEST PUSH2 0x2963 JUMPI PUSH1 0x40 MLOAD PUSH3 0x461BCD PUSH1 0xE5 SHL DUP2 MSTORE PUSH1 0x4 ADD PUSH2 0xB24 SWAP1 PUSH2 0x42E3 JUMP JUMPDEST PUSH1 0x60 DUP2 PUSH2 0x3962 JUMPI POP POP PUSH1 0x40 DUP1 MLOAD DUP1 DUP3 ADD SWAP1 SWAP2 MSTORE PUSH1 0x1 DUP2 MSTORE PUSH1 0x3 PUSH1 0xFC SHL PUSH1 0x20 DUP3 ADD MSTORE SWAP1 JUMP JUMPDEST DUP2 PUSH1 0x0 JUMPDEST DUP2 ISZERO PUSH2 0x398C JUMPI DUP1 PUSH2 0x3976 DUP2 PUSH2 0x4582 JUMP JUMPDEST SWAP2 POP PUSH2 0x3985 SWAP1 POP PUSH1 0xA DUP4 PUSH2 0x44D7 JUMP JUMPDEST SWAP2 POP PUSH2 0x3966 JUMP JUMPDEST PUSH1 0x0 DUP2 PUSH8 0xFFFFFFFFFFFFFFFF DUP2 GT ISZERO PUSH2 0x39A7 JUMPI PUSH2 0x39A7 PUSH2 0x45F3 JUMP JUMPDEST PUSH1 0x40 MLOAD SWAP1 DUP1 DUP3 MSTORE DUP1 PUSH1 0x1F ADD PUSH1 0x1F NOT AND PUSH1 0x20 ADD DUP3 ADD PUSH1 0x40 MSTORE DUP1 ISZERO PUSH2 0x39D1 JUMPI PUSH1 0x20 DUP3 ADD DUP2 DUP1 CALLDATASIZE DUP4 CALLDATACOPY ADD SWAP1 POP JUMPDEST POP SWAP1 POP DUP2 JUMPDEST DUP6 ISZERO PUSH2 0x3A5E JUMPI PUSH2 0x39E7 PUSH1 0x1 DUP3 PUSH2 0x450A JUMP JUMPDEST SWAP1 POP PUSH1 0x0 PUSH2 0x39F6 PUSH1 0xA DUP9 PUSH2 0x44D7 JUMP JUMPDEST PUSH2 0x3A01 SWAP1 PUSH1 0xA PUSH2 0x44EB JUMP JUMPDEST PUSH2 0x3A0B SWAP1 DUP9 PUSH2 0x450A JUMP JUMPDEST PUSH2 0x3A16 SWAP1 PUSH1 0x30 PUSH2 0x44B2 JUMP JUMPDEST SWAP1 POP PUSH1 0x0 DUP2 PUSH1 0xF8 SHL SWAP1 POP DUP1 DUP5 DUP5 DUP2 MLOAD DUP2 LT PUSH2 0x3A33 JUMPI PUSH2 0x3A33 PUSH2 0x45DD JUMP JUMPDEST PUSH1 0x20 ADD ADD SWAP1 PUSH1 0x1 PUSH1 0x1 PUSH1 0xF8 SHL SUB NOT AND SWAP1 DUP2 PUSH1 0x0 BYTE SWAP1 MSTORE8 POP PUSH2 0x3A55 PUSH1 0xA DUP10 PUSH2 0x44D7 JUMP JUMPDEST SWAP8 POP POP POP PUSH2 0x39D6 JUMP JUMPDEST POP SWAP5 SWAP4 POP POP POP POP JUMP JUMPDEST PUSH2 0x15CE DUP3 DUP3 PUSH1 0x40 MLOAD DUP1 PUSH1 0x20 ADD PUSH1 0x40 MSTORE DUP1 PUSH1 0x0 DUP2 MSTORE POP PUSH2 0x3D2F JUMP JUMPDEST PUSH1 0x0 DUP1 DUP1 DUP1 PUSH1 0x64 PUSH2 0x3A94 DUP7 PUSH2 0x13A PUSH2 0x449A JUMP JUMPDEST PUSH2 0x3A9E SWAP2 SWAP1 PUSH2 0x459D JUMP JUMPDEST SWAP1 POP PUSH1 0x0 PUSH1 0x64 PUSH2 0x3AAF DUP8 PUSH1 0x48 PUSH2 0x449A JUMP JUMPDEST PUSH2 0x3AB9 SWAP2 SWAP1 PUSH2 0x459D JUMP JUMPDEST SWAP1 POP PUSH1 0x0 PUSH1 0x64 PUSH2 0x3ACB DUP9 PUSH2 0x9982 PUSH2 0x449A JUMP JUMPDEST PUSH2 0x3AD5 SWAP2 SWAP1 PUSH2 0x459D JUMP JUMPDEST SWAP1 POP PUSH1 0xA SWAP6 POP PUSH1 0xA SWAP5 POP PUSH1 0xA SWAP4 POP PUSH1 0x5F DUP4 LT PUSH2 0x3B12 JUMPI PUSH2 0x3AF6 PUSH1 0x5F DUP5 PUSH2 0x450A JUMP JUMPDEST PUSH2 0x3B01 SWAP1 PUSH1 0x6 PUSH2 0x44EB JUMP JUMPDEST PUSH2 0x3B0B SWAP1 DUP8 PUSH2 0x449A JUMP JUMPDEST SWAP6 POP PUSH2 0x3B5F JUMP JUMPDEST PUSH1 0x50 DUP4 LT PUSH2 0x3B30 JUMPI PUSH1 0x50 PUSH2 0x3B26 DUP5 DUP9 PUSH2 0x449A JUMP JUMPDEST PUSH2 0x3B0B SWAP2 SWAP1 PUSH2 0x450A JUMP JUMPDEST DUP3 PUSH1 0x14 GT ISZERO DUP1 ISZERO PUSH2 0x3B41 JUMPI POP PUSH1 0x1E DUP4 LT JUMPDEST ISZERO PUSH2 0x3B5F JUMPI PUSH1 0xF PUSH2 0x3B52 DUP5 DUP9 PUSH2 0x449A JUMP JUMPDEST PUSH2 0x3B5C SWAP2 SWAP1 PUSH2 0x450A JUMP JUMPDEST SWAP6 POP JUMPDEST PUSH1 0x5F DUP3 LT PUSH2 0x3B8E JUMPI PUSH2 0x3B72 PUSH1 0x5F DUP4 PUSH2 0x450A JUMP JUMPDEST PUSH2 0x3B7D SWAP1 PUSH1 0x6 PUSH2 0x44EB JUMP JUMPDEST PUSH2 0x3B87 SWAP1 DUP7 PUSH2 0x449A JUMP JUMPDEST SWAP5 POP PUSH2 0x3BDB JUMP JUMPDEST PUSH1 0x50 DUP4 LT PUSH2 0x3BAC JUMPI PUSH1 0x50 PUSH2 0x3BA2 DUP4 DUP8 PUSH2 0x449A JUMP JUMPDEST PUSH2 0x3B87 SWAP2 SWAP1 PUSH2 0x450A JUMP JUMPDEST DUP2 PUSH1 0xA GT ISZERO DUP1 ISZERO PUSH2 0x3BBD JUMPI POP PUSH1 0x1E DUP3 LT JUMPDEST ISZERO PUSH2 0x3BDB JUMPI PUSH1 0x5 PUSH2 0x3BCE DUP4 DUP8 PUSH2 0x449A JUMP JUMPDEST PUSH2 0x3BD8 SWAP2 SWAP1 PUSH2 0x450A JUMP JUMPDEST SWAP5 POP JUMPDEST PUSH1 0x50 DUP2 LT PUSH2 0x3C00 JUMPI PUSH1 0x50 PUSH2 0x3BEF DUP3 DUP7 PUSH2 0x449A JUMP JUMPDEST PUSH2 0x3BF9 SWAP2 SWAP1 PUSH2 0x450A JUMP JUMPDEST SWAP4 POP PUSH2 0x3C18 JUMP JUMPDEST PUSH2 0x3C0B PUSH1 0xA DUP3 PUSH2 0x44D7 JUMP JUMPDEST PUSH2 0x3C15 SWAP1 DUP6 PUSH2 0x449A JUMP JUMPDEST SWAP4 POP JUMPDEST POP POP POP SWAP2 SWAP4 SWAP1 SWAP3 POP JUMP JUMPDEST PUSH1 0x0 PUSH1 0x1 PUSH1 0x1 PUSH1 0xA0 SHL SUB DUP5 AND EXTCODESIZE ISZERO PUSH2 0x3D24 JUMPI PUSH1 0x40 MLOAD PUSH4 0xA85BD01 PUSH1 0xE1 SHL DUP2 MSTORE PUSH1 0x1 PUSH1 0x1 PUSH1 0xA0 SHL SUB DUP6 AND SWAP1 PUSH4 0x150B7A02 SWAP1 PUSH2 0x3C66 SWAP1 CALLER SWAP1 DUP10 SWAP1 DUP9 SWAP1 DUP9 SWAP1 PUSH1 0x4 ADD PUSH2 0x421E JUMP JUMPDEST PUSH1 0x20 PUSH1 0x40 MLOAD DUP1 DUP4 SUB DUP2 PUSH1 0x0 DUP8 DUP1 EXTCODESIZE ISZERO DUP1 ISZERO PUSH2 0x3C80 JUMPI PUSH1 0x0 DUP1 REVERT JUMPDEST POP GAS CALL SWAP3 POP POP POP DUP1 ISZERO PUSH2 0x3CB0 JUMPI POP PUSH1 0x40 DUP1 MLOAD PUSH1 0x1F RETURNDATASIZE SWAP1 DUP2 ADD PUSH1 0x1F NOT AND DUP3 ADD SWAP1 SWAP3 MSTORE PUSH2 0x3CAD SWAP2 DUP2 ADD SWAP1 PUSH2 0x40F0 JUMP JUMPDEST PUSH1 0x1 JUMPDEST PUSH2 0x3D0A JUMPI RETURNDATASIZE DUP1 DUP1 ISZERO PUSH2 0x3CDE JUMPI PUSH1 0x40 MLOAD SWAP2 POP PUSH1 0x1F NOT PUSH1 0x3F RETURNDATASIZE ADD AND DUP3 ADD PUSH1 0x40 MSTORE RETURNDATASIZE DUP3 MSTORE RETURNDATASIZE PUSH1 0x0 PUSH1 0x20 DUP5 ADD RETURNDATACOPY PUSH2 0x3CE3 JUMP JUMPDEST PUSH1 0x60 SWAP2 POP JUMPDEST POP DUP1 MLOAD PUSH2 0x3D02 JUMPI PUSH1 0x40 MLOAD PUSH3 0x461BCD PUSH1 0xE5 SHL DUP2 MSTORE PUSH1 0x4 ADD PUSH2 0xB24 SWAP1 PUSH2 0x42E3 JUMP JUMPDEST DUP1 MLOAD DUP2 PUSH1 0x20 ADD REVERT JUMPDEST PUSH1 0x1 PUSH1 0x1 PUSH1 0xE0 SHL SUB NOT AND PUSH4 0xA85BD01 PUSH1 0xE1 SHL EQ SWAP1 POP PUSH2 0x354F JUMP JUMPDEST POP PUSH1 0x1 SWAP5 SWAP4 POP POP POP POP JUMP JUMPDEST PUSH2 0x3D39 DUP4 DUP4 PUSH2 0x3D62 JUMP JUMPDEST PUSH2 0x3D46 PUSH1 0x0 DUP5 DUP5 DUP5 PUSH2 0x3C22 JUMP JUMPDEST PUSH2 0x1118 JUMPI PUSH1 0x40 MLOAD PUSH3 0x461BCD PUSH1 0xE5 SHL DUP2 MSTORE PUSH1 0x4 ADD PUSH2 0xB24 SWAP1 PUSH2 0x42E3 JUMP JUMPDEST PUSH1 0x1 PUSH1 0x1 PUSH1 0xA0 SHL SUB DUP3 AND PUSH2 0x3DB8 JUMPI PUSH1 0x40 MLOAD PUSH3 0x461BCD PUSH1 0xE5 SHL DUP2 MSTORE PUSH1 0x20 PUSH1 0x4 DUP3 ADD DUP2 SWAP1 MSTORE PUSH1 0x24 DUP3 ADD MSTORE PUSH32 0x4552433732313A206D696E7420746F20746865207A65726F2061646472657373 PUSH1 0x44 DUP3 ADD MSTORE PUSH1 0x64 ADD PUSH2 0xB24 JUMP JUMPDEST PUSH2 0x3DC1 DUP2 PUSH2 0x321F JUMP JUMPDEST ISZERO PUSH2 0x3E0E JUMPI PUSH1 0x40 MLOAD PUSH3 0x461BCD PUSH1 0xE5 SHL DUP2 MSTORE PUSH1 0x20 PUSH1 0x4 DUP3 ADD MSTORE PUSH1 0x1C PUSH1 0x24 DUP3 ADD MSTORE PUSH32 0x4552433732313A20746F6B656E20616C7265616479206D696E74656400000000 PUSH1 0x44 DUP3 ADD MSTORE PUSH1 0x64 ADD PUSH2 0xB24 JUMP JUMPDEST PUSH1 0x1 PUSH1 0x1 PUSH1 0xA0 SHL SUB DUP3 AND PUSH1 0x0 SWAP1 DUP2 MSTORE PUSH1 0x3 PUSH1 0x20 MSTORE PUSH1 0x40 DUP2 KECCAK256 DUP1 SLOAD PUSH1 0x1 SWAP3 SWAP1 PUSH2 0x3E37 SWAP1 DUP5 SWAP1 PUSH2 0x449A JUMP JUMPDEST SWAP1 SWAP2 SSTORE POP POP PUSH1 0x0 DUP2 DUP2 MSTORE PUSH1 0x2 PUSH1 0x20 MSTORE PUSH1 0x40 DUP1 DUP3 KECCAK256 DUP1 SLOAD PUSH1 0x1 PUSH1 0x1 PUSH1 0xA0 SHL SUB NOT AND PUSH1 0x1 PUSH1 0x1 PUSH1 0xA0 SHL SUB DUP7 AND SWAP1 DUP2 OR SWAP1 SWAP2 SSTORE SWAP1 MLOAD DUP4 SWAP3 SWAP1 PUSH32 0xDDF252AD1BE2C89B69C2B068FC378DAA952BA7F163C4A11628F55A4DF523B3EF SWAP1 DUP3 SWAP1 LOG4 POP POP JUMP JUMPDEST PUSH1 0x40 MLOAD DUP1 PUSH1 0x60 ADD PUSH1 0x40 MSTORE DUP1 PUSH1 0x3 SWAP1 PUSH1 0x20 DUP3 MUL DUP1 CALLDATASIZE DUP4 CALLDATACOPY POP SWAP2 SWAP3 SWAP2 POP POP JUMP JUMPDEST DUP1 CALLDATALOAD PUSH1 0x1 PUSH1 0x1 PUSH1 0xA0 SHL SUB DUP2 AND DUP2 EQ PUSH2 0x18D0 JUMPI PUSH1 0x0 DUP1 REVERT JUMPDEST DUP1 CALLDATALOAD PUSH4 0xFFFFFFFF DUP2 AND DUP2 EQ PUSH2 0x18D0 JUMPI PUSH1 0x0 DUP1 REVERT JUMPDEST DUP1 CALLDATALOAD PUSH1 0xFF DUP2 AND DUP2 EQ PUSH2 0x18D0 JUMPI PUSH1 0x0 DUP1 REVERT JUMPDEST PUSH1 0x0 PUSH1 0x20 DUP3 DUP5 SUB SLT ISZERO PUSH2 0x3F01 JUMPI PUSH1 0x0 DUP1 REVERT JUMPDEST PUSH2 0x2980 DUP3 PUSH2 0x3EB3 JUMP JUMPDEST PUSH1 0x0 DUP1 PUSH1 0x40 DUP4 DUP6 SUB SLT ISZERO PUSH2 0x3F1D JUMPI PUSH1 0x0 DUP1 REVERT JUMPDEST PUSH2 0x3F26 DUP4 PUSH2 0x3EB3 JUMP JUMPDEST SWAP2 POP PUSH2 0x3F34 PUSH1 0x20 DUP5 ADD PUSH2 0x3EB3 JUMP JUMPDEST SWAP1 POP SWAP3 POP SWAP3 SWAP1 POP JUMP JUMPDEST PUSH1 0x0 DUP1 PUSH1 0x0 PUSH1 0x60 DUP5 DUP7 SUB SLT ISZERO PUSH2 0x3F52 JUMPI PUSH1 0x0 DUP1 REVERT JUMPDEST PUSH2 0x3F5B DUP5 PUSH2 0x3EB3 JUMP JUMPDEST SWAP3 POP PUSH2 0x3F69 PUSH1 0x20 DUP6 ADD PUSH2 0x3EB3 JUMP JUMPDEST SWAP2 POP PUSH1 0x40 DUP5 ADD CALLDATALOAD SWAP1 POP SWAP3 POP SWAP3 POP SWAP3 JUMP JUMPDEST PUSH1 0x0 DUP1 PUSH1 0x0 DUP1 PUSH1 0x80 DUP6 DUP8 SUB SLT ISZERO PUSH2 0x3F8F JUMPI PUSH1 0x0 DUP1 REVERT JUMPDEST PUSH2 0x3F98 DUP6 PUSH2 0x3EB3 JUMP JUMPDEST SWAP4 POP PUSH2 0x3FA6 PUSH1 0x20 DUP7 ADD PUSH2 0x3EB3 JUMP JUMPDEST SWAP3 POP PUSH1 0x40 DUP6 ADD CALLDATALOAD SWAP2 POP PUSH1 0x60 DUP6 ADD CALLDATALOAD PUSH8 0xFFFFFFFFFFFFFFFF DUP1 DUP3 GT ISZERO PUSH2 0x3FCA JUMPI PUSH1 0x0 DUP1 REVERT JUMPDEST DUP2 DUP8 ADD SWAP2 POP DUP8 PUSH1 0x1F DUP4 ADD SLT PUSH2 0x3FDE JUMPI PUSH1 0x0 DUP1 REVERT JUMPDEST DUP2 CALLDATALOAD DUP2 DUP2 GT ISZERO PUSH2 0x3FF0 JUMPI PUSH2 0x3FF0 PUSH2 0x45F3 JUMP JUMPDEST PUSH1 0x40 MLOAD PUSH1 0x1F DUP3 ADD PUSH1 0x1F NOT SWAP1 DUP2 AND PUSH1 0x3F ADD AND DUP2 ADD SWAP1 DUP4 DUP3 GT DUP2 DUP4 LT OR ISZERO PUSH2 0x4018 JUMPI PUSH2 0x4018 PUSH2 0x45F3 JUMP JUMPDEST DUP2 PUSH1 0x40 MSTORE DUP3 DUP2 MSTORE DUP11 PUSH1 0x20 DUP5 DUP8 ADD ADD GT ISZERO PUSH2 0x4031 JUMPI PUSH1 0x0 DUP1 REVERT JUMPDEST DUP3 PUSH1 0x20 DUP7 ADD PUSH1 0x20 DUP4 ADD CALLDATACOPY PUSH1 0x0 PUSH1 0x20 DUP5 DUP4 ADD ADD MSTORE DUP1 SWAP6 POP POP POP POP POP POP SWAP3 SWAP6 SWAP2 SWAP5 POP SWAP3 POP JUMP JUMPDEST PUSH1 0x0 DUP1 PUSH1 0x40 DUP4 DUP6 SUB SLT ISZERO PUSH2 0x4068 JUMPI PUSH1 0x0 DUP1 REVERT JUMPDEST PUSH2 0x4071 DUP4 PUSH2 0x3EB3 JUMP JUMPDEST SWAP2 POP PUSH1 0x20 DUP4 ADD CALLDATALOAD PUSH2 0x4081 DUP2 PUSH2 0x4609 JUMP JUMPDEST DUP1 SWAP2 POP POP SWAP3 POP SWAP3 SWAP1 POP JUMP JUMPDEST PUSH1 0x0 DUP1 PUSH1 0x40 DUP4 DUP6 SUB SLT ISZERO PUSH2 0x409F JUMPI PUSH1 0x0 DUP1 REVERT JUMPDEST PUSH2 0x40A8 DUP4 PUSH2 0x3EB3 JUMP JUMPDEST SWAP5 PUSH1 0x20 SWAP4 SWAP1 SWAP4 ADD CALLDATALOAD SWAP4 POP POP POP JUMP JUMPDEST PUSH1 0x0 PUSH1 0x20 DUP3 DUP5 SUB SLT ISZERO PUSH2 0x40C8 JUMPI PUSH1 0x0 DUP1 REVERT JUMPDEST DUP2 MLOAD PUSH2 0x2980 DUP2 PUSH2 0x4609 JUMP JUMPDEST PUSH1 0x0 PUSH1 0x20 DUP3 DUP5 SUB SLT ISZERO PUSH2 0x40E5 JUMPI PUSH1 0x0 DUP1 REVERT JUMPDEST DUP2 CALLDATALOAD PUSH2 0x2980 DUP2 PUSH2 0x4617 JUMP JUMPDEST PUSH1 0x0 PUSH1 0x20 DUP3 DUP5 SUB SLT ISZERO PUSH2 0x4102 JUMPI PUSH1 0x0 DUP1 REVERT JUMPDEST DUP2 MLOAD PUSH2 0x2980 DUP2 PUSH2 0x4617 JUMP JUMPDEST PUSH1 0x0 PUSH1 0x20 DUP3 DUP5 SUB SLT ISZERO PUSH2 0x411F JUMPI PUSH1 0x0 DUP1 REVERT JUMPDEST POP CALLDATALOAD SWAP2 SWAP1 POP JUMP JUMPDEST PUSH1 0x0 PUSH1 0x20 DUP3 DUP5 SUB SLT ISZERO PUSH2 0x4138 JUMPI PUSH1 0x0 DUP1 REVERT JUMPDEST POP MLOAD SWAP2 SWAP1 POP JUMP JUMPDEST PUSH1 0x0 DUP1 PUSH1 0x0 PUSH1 0x60 DUP5 DUP7 SUB SLT ISZERO PUSH2 0x4154 JUMPI PUSH1 0x0 DUP1 REVERT JUMPDEST DUP4 CALLDATALOAD SWAP3 POP PUSH2 0x3F69 PUSH1 0x20 DUP6 ADD PUSH2 0x3ECA JUMP JUMPDEST PUSH1 0x0 DUP1 PUSH1 0x0 PUSH1 0x60 DUP5 DUP7 SUB SLT ISZERO PUSH2 0x4179 JUMPI PUSH1 0x0 DUP1 REVERT JUMPDEST DUP4 CALLDATALOAD SWAP3 POP PUSH2 0x4189 PUSH1 0x20 DUP6 ADD PUSH2 0x3ECA JUMP JUMPDEST SWAP2 POP PUSH2 0x4197 PUSH1 0x40 DUP6 ADD PUSH2 0x3EDE JUMP JUMPDEST SWAP1 POP SWAP3 POP SWAP3 POP SWAP3 JUMP JUMPDEST PUSH1 0x0 DUP1 PUSH1 0x40 DUP4 DUP6 SUB SLT ISZERO PUSH2 0x41B3 JUMPI PUSH1 0x0 DUP1 REVERT JUMPDEST DUP3 CALLDATALOAD SWAP2 POP PUSH2 0x3F34 PUSH1 0x20 DUP5 ADD PUSH2 0x3EDE JUMP JUMPDEST PUSH1 0x0 DUP2 MLOAD DUP1 DUP5 MSTORE PUSH2 0x41DB DUP2 PUSH1 0x20 DUP7 ADD PUSH1 0x20 DUP7 ADD PUSH2 0x4521 JUMP JUMPDEST PUSH1 0x1F ADD PUSH1 0x1F NOT AND SWAP3 SWAP1 SWAP3 ADD PUSH1 0x20 ADD SWAP3 SWAP2 POP POP JUMP JUMPDEST PUSH1 0x0 DUP4 MLOAD PUSH2 0x4201 DUP2 DUP5 PUSH1 0x20 DUP9 ADD PUSH2 0x4521 JUMP JUMPDEST DUP4 MLOAD SWAP1 DUP4 ADD SWAP1 PUSH2 0x4215 DUP2 DUP4 PUSH1 0x20 DUP9 ADD PUSH2 0x4521 JUMP JUMPDEST ADD SWAP5 SWAP4 POP POP POP POP JUMP JUMPDEST PUSH1 0x1 PUSH1 0x1 PUSH1 0xA0 SHL SUB DUP6 DUP2 AND DUP3 MSTORE DUP5 AND PUSH1 0x20 DUP3 ADD MSTORE PUSH1 0x40 DUP2 ADD DUP4 SWAP1 MSTORE PUSH1 0x80 PUSH1 0x60 DUP3 ADD DUP2 SWAP1 MSTORE PUSH1 0x0 SWAP1 PUSH2 0x4251 SWAP1 DUP4 ADD DUP5 PUSH2 0x41C3 JUMP JUMPDEST SWAP7 SWAP6 POP POP POP POP POP POP JUMP JUMPDEST PUSH1 0x60 DUP2 ADD DUP2 DUP4 PUSH1 0x0 JUMPDEST PUSH1 0x3 DUP2 LT ISZERO PUSH2 0x4283 JUMPI DUP2 MLOAD DUP4 MSTORE PUSH1 0x20 SWAP3 DUP4 ADD SWAP3 SWAP1 SWAP2 ADD SWAP1 PUSH1 0x1 ADD PUSH2 0x4264 JUMP JUMPDEST POP POP POP SWAP3 SWAP2 POP POP JUMP JUMPDEST PUSH1 0x20 DUP1 DUP3 MSTORE DUP3 MLOAD DUP3 DUP3 ADD DUP2 SWAP1 MSTORE PUSH1 0x0 SWAP2 SWAP1 DUP5 DUP3 ADD SWAP1 PUSH1 0x40 DUP6 ADD SWAP1 DUP5 JUMPDEST DUP2 DUP2 LT ISZERO PUSH2 0x42C4 JUMPI DUP4 MLOAD DUP4 MSTORE SWAP3 DUP5 ADD SWAP3 SWAP2 DUP5 ADD SWAP2 PUSH1 0x1 ADD PUSH2 0x42A8 JUMP JUMPDEST POP SWAP1 SWAP7 SWAP6 POP POP POP POP POP POP JUMP JUMPDEST PUSH1 0x20 DUP2 MSTORE PUSH1 0x0 PUSH2 0x2980 PUSH1 0x20 DUP4 ADD DUP5 PUSH2 0x41C3 JUMP JUMPDEST PUSH1 0x20 DUP1 DUP3 MSTORE PUSH1 0x32 SWAP1 DUP3 ADD MSTORE PUSH32 0x4552433732313A207472616E7366657220746F206E6F6E204552433732315265 PUSH1 0x40 DUP3 ADD MSTORE PUSH18 0x31B2B4BB32B91034B6B83632B6B2B73A32B9 PUSH1 0x71 SHL PUSH1 0x60 DUP3 ADD MSTORE PUSH1 0x80 ADD SWAP1 JUMP JUMPDEST PUSH1 0x20 DUP1 DUP3 MSTORE PUSH1 0x32 SWAP1 DUP3 ADD MSTORE PUSH32 0x6F7468657220636F696E207479706573206E6F7420737570706F727465642079 PUSH1 0x40 DUP3 ADD MSTORE PUSH18 0x65742C206D7573742062652030206F722031 PUSH1 0x70 SHL PUSH1 0x60 DUP3 ADD MSTORE PUSH1 0x80 ADD SWAP1 JUMP JUMPDEST PUSH1 0x20 DUP1 DUP3 MSTORE PUSH1 0x27 SWAP1 DUP3 ADD MSTORE PUSH32 0x796F7520646F206E6F7420686176652074686174206D616E7920646566656E73 PUSH1 0x40 DUP3 ADD MSTORE PUSH7 0x6520636F696E73 PUSH1 0xC8 SHL PUSH1 0x60 DUP3 ADD MSTORE PUSH1 0x80 ADD SWAP1 JUMP JUMPDEST PUSH1 0x20 DUP1 DUP3 MSTORE DUP2 DUP2 ADD MSTORE PUSH32 0x4F776E61626C653A2063616C6C6572206973206E6F7420746865206F776E6572 PUSH1 0x40 DUP3 ADD MSTORE PUSH1 0x60 ADD SWAP1 JUMP JUMPDEST PUSH1 0x20 DUP1 DUP3 MSTORE PUSH1 0x31 SWAP1 DUP3 ADD MSTORE PUSH32 0x4552433732313A207472616E736665722063616C6C6572206973206E6F74206F PUSH1 0x40 DUP3 ADD MSTORE PUSH17 0x1DDB995C881B9BDC88185C1C1C9BDD9959 PUSH1 0x7A SHL PUSH1 0x60 DUP3 ADD MSTORE PUSH1 0x80 ADD SWAP1 JUMP JUMPDEST PUSH1 0x20 DUP1 DUP3 MSTORE PUSH1 0x26 SWAP1 DUP3 ADD MSTORE PUSH32 0x796F7520646F206E6F7420686176652074686174206D616E792061747461636B PUSH1 0x40 DUP3 ADD MSTORE PUSH6 0x20636F696E73 PUSH1 0xD0 SHL PUSH1 0x60 DUP3 ADD MSTORE PUSH1 0x80 ADD SWAP1 JUMP JUMPDEST PUSH1 0x0 DUP3 NOT DUP3 GT ISZERO PUSH2 0x44AD JUMPI PUSH2 0x44AD PUSH2 0x45B1 JUMP JUMPDEST POP ADD SWAP1 JUMP JUMPDEST PUSH1 0x0 PUSH1 0xFF DUP3 AND PUSH1 0xFF DUP5 AND DUP1 PUSH1 0xFF SUB DUP3 GT ISZERO PUSH2 0x44CF JUMPI PUSH2 0x44CF PUSH2 0x45B1 JUMP JUMPDEST ADD SWAP4 SWAP3 POP POP POP JUMP JUMPDEST PUSH1 0x0 DUP3 PUSH2 0x44E6 JUMPI PUSH2 0x44E6 PUSH2 0x45C7 JUMP JUMPDEST POP DIV SWAP1 JUMP JUMPDEST PUSH1 0x0 DUP2 PUSH1 0x0 NOT DIV DUP4 GT DUP3 ISZERO ISZERO AND ISZERO PUSH2 0x4505 JUMPI PUSH2 0x4505 PUSH2 0x45B1 JUMP JUMPDEST POP MUL SWAP1 JUMP JUMPDEST PUSH1 0x0 DUP3 DUP3 LT ISZERO PUSH2 0x451C JUMPI PUSH2 0x451C PUSH2 0x45B1 JUMP JUMPDEST POP SUB SWAP1 JUMP JUMPDEST PUSH1 0x0 JUMPDEST DUP4 DUP2 LT ISZERO PUSH2 0x453C JUMPI DUP2 DUP2 ADD MLOAD DUP4 DUP3 ADD MSTORE PUSH1 0x20 ADD PUSH2 0x4524 JUMP JUMPDEST DUP4 DUP2 GT ISZERO PUSH2 0x2963 JUMPI POP POP PUSH1 0x0 SWAP2 ADD MSTORE JUMP JUMPDEST PUSH1 0x1 DUP2 DUP2 SHR SWAP1 DUP3 AND DUP1 PUSH2 0x4561 JUMPI PUSH1 0x7F DUP3 AND SWAP2 POP JUMPDEST PUSH1 0x20 DUP3 LT DUP2 EQ ISZERO PUSH2 0x1614 JUMPI PUSH4 0x4E487B71 PUSH1 0xE0 SHL PUSH1 0x0 MSTORE PUSH1 0x22 PUSH1 0x4 MSTORE PUSH1 0x24 PUSH1 0x0 REVERT JUMPDEST PUSH1 0x0 PUSH1 0x0 NOT DUP3 EQ ISZERO PUSH2 0x4596 JUMPI PUSH2 0x4596 PUSH2 0x45B1 JUMP JUMPDEST POP PUSH1 0x1 ADD SWAP1 JUMP JUMPDEST PUSH1 0x0 DUP3 PUSH2 0x45AC JUMPI PUSH2 0x45AC PUSH2 0x45C7 JUMP JUMPDEST POP MOD SWAP1 JUMP JUMPDEST PUSH4 0x4E487B71 PUSH1 0xE0 SHL PUSH1 0x0 MSTORE PUSH1 0x11 PUSH1 0x4 MSTORE PUSH1 0x24 PUSH1 0x0 REVERT JUMPDEST PUSH4 0x4E487B71 PUSH1 0xE0 SHL PUSH1 0x0 MSTORE PUSH1 0x12 PUSH1 0x4 MSTORE PUSH1 0x24 PUSH1 0x0 REVERT JUMPDEST PUSH4 0x4E487B71 PUSH1 0xE0 SHL PUSH1 0x0 MSTORE PUSH1 0x32 PUSH1 0x4 MSTORE PUSH1 0x24 PUSH1 0x0 REVERT JUMPDEST PUSH4 0x4E487B71 PUSH1 0xE0 SHL PUSH1 0x0 MSTORE PUSH1 0x41 PUSH1 0x4 MSTORE PUSH1 0x24 PUSH1 0x0 REVERT JUMPDEST DUP1 ISZERO ISZERO DUP2 EQ PUSH2 0x2E6C JUMPI PUSH1 0x0 DUP1 REVERT JUMPDEST PUSH1 0x1 PUSH1 0x1 PUSH1 0xE0 SHL SUB NOT DUP2 AND DUP2 EQ PUSH2 0x2E6C JUMPI PUSH1 0x0 DUP1 REVERT INVALID PUSH9 0x747470733A2F2F7777 PUSH24 0x2E6B696E67646F6D63727970746F2E636F6D2F7469746C65 PUSH20 0x2FA2646970667358221220714FAAA384C16E4122 DUP8 0xBA MLOAD 0x5E STATICCALL SWAP16 0xC 0xD2 PUSH15 0x1E103B0C4E22448B2D3A6B403FBA64 PUSH20 0x6F6C634300080700330000000000000000000000 "
		},
		"gasEstimates": {
			"creation": {
				"codeDepositCost": "3611200",
				"executionCost": "infinite",
				"totalCost": "infinite"
			},
			"external": {
				"address2ids(address,uint256)": "4844",
				"approve(address,uint256)": "infinite",
				"assignMilitaryToTitle(uint256,uint32,uint256)": "infinite",
				"attackBoss(uint256)": "infinite",
				"attackCooldown()": "317",
				"awardItem(address)": "infinite",
				"balanceLastMonth_kgdat()": "2331",
				"balanceLastMonth_kgddf()": "2352",
				"balanceLastMonth_kgdsc()": "2373",
				"balanceOf(address)": "2667",
				"baseUrl()": "infinite",
				"buyForETH()": "infinite",
				"currentPosition()": "2348",
				"exchangeRate()": "2443",
				"exchangeRate_Attackpoints()": "2398",
				"exchangeRate_Burnpct()": "2397",
				"exchangeRate_Defensepoints()": "2442",
				"getApproved(uint256)": "4888",
				"getBossId(uint256)": "infinite",
				"getBossRank(uint256)": "4939",
				"getCurrentStakes()": "infinite",
				"getIdOfRank(uint256)": "infinite",
				"getIdsOfAddress(address)": "infinite",
				"getRankOfId(uint256)": "2473",
				"getRanksOfAddress(address)": "infinite",
				"getServants(uint256)": "infinite",
				"getTimeUntilStakingDone()": "infinite",
				"getTitleStats(uint256)": "15613",
				"harvestAll()": "infinite",
				"isApprovedForAll(address,address)": "infinite",
				"justSendETH()": "248",
				"kgdat()": "2470",
				"kgddf()": "2405",
				"kgdsc()": "2405",
				"kingdomtitles(uint256)": "15345",
				"name()": "infinite",
				"owner()": "2465",
				"ownerOf(uint256)": "2668",
				"plantSeeds(uint256,uint8)": "infinite",
				"readyTimeStakeCooldown()": "253",
				"renounceOwnership()": "28228",
				"reverseItem(uint256)": "infinite",
				"safeTransferFrom(address,address,uint256)": "infinite",
				"safeTransferFrom(address,address,uint256,bytes)": "infinite",
				"setApprovalForAll(address,bool)": "26769",
				"stakingPeriod()": "2373",
				"supportsInterface(bytes4)": "590",
				"symbol()": "infinite",
				"title2Rank(uint256)": "2537",
				"tokenURI(uint256)": "infinite",
				"totalSupply()": "294",
				"transferFrom(address,address,uint256)": "infinite",
				"transferOwnership(address)": "28400",
				"withdrawMilitaryFromTitle(uint256,uint32,uint8)": "infinite"
			},
			"internal": {
				"_divide(uint256,uint256)": "189",
				"_getLeftChild(uint256)": "127",
				"_getRightChild(uint256)": "infinite",
				"_handleSacking(struct KingdomGameMechanic.AttackResult memory)": "infinite",
				"_payMe()": "infinite",
				"_random()": "infinite"
			}
		},
		"methodIdentifiers": {
			"address2ids(address,uint256)": "f08b7b73",
			"approve(address,uint256)": "095ea7b3",
			"assignMilitaryToTitle(uint256,uint32,uint256)": "853eab57",
			"attackBoss(uint256)": "0619f932",
			"attackCooldown()": "e73961f5",
			"awardItem(address)": "f2fb2120",
			"balanceLastMonth_kgdat()": "000a5180",
			"balanceLastMonth_kgddf()": "839b9205",
			"balanceLastMonth_kgdsc()": "eb8fd9a3",
			"balanceOf(address)": "70a08231",
			"baseUrl()": "5bcabf04",
			"buyForETH()": "10f7e4ed",
			"currentPosition()": "d534d636",
			"exchangeRate()": "3ba0b9a9",
			"exchangeRate_Attackpoints()": "c669b710",
			"exchangeRate_Burnpct()": "6a7a2fa3",
			"exchangeRate_Defensepoints()": "d4637ddb",
			"getApproved(uint256)": "081812fc",
			"getBossId(uint256)": "c3983149",
			"getBossRank(uint256)": "266c79ef",
			"getCurrentStakes()": "fa4facdb",
			"getIdOfRank(uint256)": "16807e15",
			"getIdsOfAddress(address)": "c4a3a1fc",
			"getRankOfId(uint256)": "802bea6e",
			"getRanksOfAddress(address)": "e10270c6",
			"getServants(uint256)": "5e1bb546",
			"getTimeUntilStakingDone()": "84505e6a",
			"getTitleStats(uint256)": "437ace21",
			"harvestAll()": "8ed955b9",
			"isApprovedForAll(address,address)": "e985e9c5",
			"justSendETH()": "e046670b",
			"kgdat()": "7c62539a",
			"kgddf()": "411ee0d0",
			"kgdsc()": "900294be",
			"kingdomtitles(uint256)": "1cf95ed6",
			"name()": "06fdde03",
			"owner()": "8da5cb5b",
			"ownerOf(uint256)": "6352211e",
			"plantSeeds(uint256,uint8)": "429c3edf",
			"readyTimeStakeCooldown()": "0895ba53",
			"renounceOwnership()": "715018a6",
			"reverseItem(uint256)": "2756985c",
			"safeTransferFrom(address,address,uint256)": "42842e0e",
			"safeTransferFrom(address,address,uint256,bytes)": "b88d4fde",
			"setApprovalForAll(address,bool)": "a22cb465",
			"stakingPeriod()": "c03d5b47",
			"supportsInterface(bytes4)": "01ffc9a7",
			"symbol()": "95d89b41",
			"title2Rank(uint256)": "f4fd44f1",
			"tokenURI(uint256)": "c87b56dd",
			"totalSupply()": "18160ddd",
			"transferFrom(address,address,uint256)": "23b872dd",
			"transferOwnership(address)": "f2fde38b",
			"withdrawMilitaryFromTitle(uint256,uint32,uint8)": "073077ec"
		}
	},
	"abi": [
		{
			"inputs": [
				{
					"internalType": "contract KingdomSeedCoin",
					"name": "_kgdsc",
					"type": "address"
				},
				{
					"internalType": "contract KingdomAttackCoin",
					"name": "_kgdat",
					"type": "address"
				},
				{
					"internalType": "contract KingdomDefenseCoin",
					"name": "_kgddf",
					"type": "address"
				}
			],
			"stateMutability": "nonpayable",
			"type": "constructor"
		},
		{
			"anonymous": false,
			"inputs": [
				{
					"indexed": true,
					"internalType": "address",
					"name": "owner",
					"type": "address"
				},
				{
					"indexed": true,
					"internalType": "address",
					"name": "approved",
					"type": "address"
				},
				{
					"indexed": true,
					"internalType": "uint256",
					"name": "tokenId",
					"type": "uint256"
				}
			],
			"name": "Approval",
			"type": "event"
		},
		{
			"anonymous": false,
			"inputs": [
				{
					"indexed": true,
					"internalType": "address",
					"name": "owner",
					"type": "address"
				},
				{
					"indexed": true,
					"internalType": "address",
					"name": "operator",
					"type": "address"
				},
				{
					"indexed": false,
					"internalType": "bool",
					"name": "approved",
					"type": "bool"
				}
			],
			"name": "ApprovalForAll",
			"type": "event"
		},
		{
			"anonymous": false,
			"inputs": [
				{
					"indexed": false,
					"internalType": "address",
					"name": "attacker",
					"type": "address"
				},
				{
					"indexed": false,
					"internalType": "address",
					"name": "defender",
					"type": "address"
				},
				{
					"indexed": false,
					"internalType": "uint256",
					"name": "attacker_id",
					"type": "uint256"
				},
				{
					"indexed": false,
					"internalType": "uint256",
					"name": "defender_id",
					"type": "uint256"
				},
				{
					"indexed": false,
					"internalType": "uint256",
					"name": "attackPointsBefore",
					"type": "uint256"
				},
				{
					"indexed": false,
					"internalType": "uint256",
					"name": "defensePointsBefore",
					"type": "uint256"
				},
				{
					"indexed": false,
					"internalType": "uint256",
					"name": "deadAttackers",
					"type": "uint256"
				},
				{
					"indexed": false,
					"internalType": "uint256",
					"name": "deadDefenders",
					"type": "uint256"
				},
				{
					"indexed": false,
					"internalType": "bool",
					"name": "won",
					"type": "bool"
				}
			],
			"name": "Attack",
			"type": "event"
		},
		{
			"anonymous": false,
			"inputs": [
				{
					"indexed": true,
					"internalType": "address",
					"name": "_to",
					"type": "address"
				},
				{
					"indexed": false,
					"internalType": "uint256",
					"name": "_amount",
					"type": "uint256"
				}
			],
			"name": "HarvestAttackPoints",
			"type": "event"
		},
		{
			"anonymous": false,
			"inputs": [
				{
					"indexed": true,
					"internalType": "address",
					"name": "_to",
					"type": "address"
				},
				{
					"indexed": false,
					"internalType": "uint256",
					"name": "_amount",
					"type": "uint256"
				}
			],
			"name": "HarvestDefensePoints",
			"type": "event"
		},
		{
			"anonymous": false,
			"inputs": [
				{
					"indexed": true,
					"internalType": "address",
					"name": "_to",
					"type": "address"
				},
				{
					"indexed": false,
					"internalType": "uint256",
					"name": "_amount",
					"type": "uint256"
				},
				{
					"indexed": false,
					"internalType": "uint256",
					"name": "_beforeBurn",
					"type": "uint256"
				}
			],
			"name": "HarvestRemainingSeedCoins",
			"type": "event"
		},
		{
			"anonymous": false,
			"inputs": [
				{
					"indexed": false,
					"internalType": "uint256",
					"name": "error",
					"type": "uint256"
				}
			],
			"name": "Log",
			"type": "event"
		},
		{
			"anonymous": false,
			"inputs": [
				{
					"indexed": true,
					"internalType": "address",
					"name": "previousOwner",
					"type": "address"
				},
				{
					"indexed": true,
					"internalType": "address",
					"name": "newOwner",
					"type": "address"
				}
			],
			"name": "OwnershipTransferred",
			"type": "event"
		},
		{
			"anonymous": false,
			"inputs": [
				{
					"indexed": false,
					"internalType": "address",
					"name": "attacker",
					"type": "address"
				},
				{
					"indexed": false,
					"internalType": "address",
					"name": "defender",
					"type": "address"
				},
				{
					"indexed": false,
					"internalType": "uint256",
					"name": "new_attacker_id",
					"type": "uint256"
				},
				{
					"indexed": false,
					"internalType": "uint256",
					"name": "new_defender_id",
					"type": "uint256"
				}
			],
			"name": "Sacked",
			"type": "event"
		},
		{
			"anonymous": false,
			"inputs": [
				{
					"indexed": true,
					"internalType": "address",
					"name": "from",
					"type": "address"
				},
				{
					"indexed": true,
					"internalType": "address",
					"name": "to",
					"type": "address"
				},
				{
					"indexed": true,
					"internalType": "uint256",
					"name": "tokenId",
					"type": "uint256"
				}
			],
			"name": "Transfer",
			"type": "event"
		},
		{
			"anonymous": false,
			"inputs": [
				{
					"indexed": true,
					"internalType": "address",
					"name": "_from",
					"type": "address"
				},
				{
					"indexed": false,
					"internalType": "uint256",
					"name": "_amount",
					"type": "uint256"
				}
			],
			"name": "enterStakingAttackPoints",
			"type": "event"
		},
		{
			"anonymous": false,
			"inputs": [
				{
					"indexed": true,
					"internalType": "address",
					"name": "_from",
					"type": "address"
				},
				{
					"indexed": false,
					"internalType": "uint256",
					"name": "_amount",
					"type": "uint256"
				}
			],
			"name": "enterStakingDefensePoints",
			"type": "event"
		},
		{
			"inputs": [
				{
					"internalType": "address",
					"name": "",
					"type": "address"
				},
				{
					"internalType": "uint256",
					"name": "",
					"type": "uint256"
				}
			],
			"name": "address2ids",
			"outputs": [
				{
					"internalType": "uint256",
					"name": "",
					"type": "uint256"
				}
			],
			"stateMutability": "view",
			"type": "function"
		},
		{
			"inputs": [
				{
					"internalType": "address",
					"name": "to",
					"type": "address"
				},
				{
					"internalType": "uint256",
					"name": "tokenId",
					"type": "uint256"
				}
			],
			"name": "approve",
			"outputs": [],
			"stateMutability": "nonpayable",
			"type": "function"
		},
		{
			"inputs": [
				{
					"internalType": "uint256",
					"name": "nrCoins",
					"type": "uint256"
				},
				{
					"internalType": "uint32",
					"name": "titleId",
					"type": "uint32"
				},
				{
					"internalType": "uint256",
					"name": "coinType",
					"type": "uint256"
				}
			],
			"name": "assignMilitaryToTitle",
			"outputs": [],
			"stateMutability": "nonpayable",
			"type": "function"
		},
		{
			"inputs": [
				{
					"internalType": "uint256",
					"name": "titleId",
					"type": "uint256"
				}
			],
			"name": "attackBoss",
			"outputs": [],
			"stateMutability": "nonpayable",
			"type": "function"
		},
		{
			"inputs": [],
			"name": "attackCooldown",
			"outputs": [
				{
					"internalType": "uint256",
					"name": "",
					"type": "uint256"
				}
			],
			"stateMutability": "view",
			"type": "function"
		},
		{
			"inputs": [
				{
					"internalType": "address",
					"name": "player",
					"type": "address"
				}
			],
			"name": "awardItem",
			"outputs": [
				{
					"internalType": "uint256",
					"name": "",
					"type": "uint256"
				}
			],
			"stateMutability": "nonpayable",
			"type": "function"
		},
		{
			"inputs": [],
			"name": "balanceLastMonth_kgdat",
			"outputs": [
				{
					"internalType": "uint256",
					"name": "",
					"type": "uint256"
				}
			],
			"stateMutability": "view",
			"type": "function"
		},
		{
			"inputs": [],
			"name": "balanceLastMonth_kgddf",
			"outputs": [
				{
					"internalType": "uint256",
					"name": "",
					"type": "uint256"
				}
			],
			"stateMutability": "view",
			"type": "function"
		},
		{
			"inputs": [],
			"name": "balanceLastMonth_kgdsc",
			"outputs": [
				{
					"internalType": "uint256",
					"name": "",
					"type": "uint256"
				}
			],
			"stateMutability": "view",
			"type": "function"
		},
		{
			"inputs": [
				{
					"internalType": "address",
					"name": "owner",
					"type": "address"
				}
			],
			"name": "balanceOf",
			"outputs": [
				{
					"internalType": "uint256",
					"name": "",
					"type": "uint256"
				}
			],
			"stateMutability": "view",
			"type": "function"
		},
		{
			"inputs": [],
			"name": "baseUrl",
			"outputs": [
				{
					"internalType": "string",
					"name": "",
					"type": "string"
				}
			],
			"stateMutability": "view",
			"type": "function"
		},
		{
			"inputs": [],
			"name": "buyForETH",
			"outputs": [],
			"stateMutability": "payable",
			"type": "function"
		},
		{
			"inputs": [],
			"name": "currentPosition",
			"outputs": [
				{
					"internalType": "uint256",
					"name": "",
					"type": "uint256"
				}
			],
			"stateMutability": "view",
			"type": "function"
		},
		{
			"inputs": [],
			"name": "exchangeRate",
			"outputs": [
				{
					"internalType": "uint8",
					"name": "",
					"type": "uint8"
				}
			],
			"stateMutability": "view",
			"type": "function"
		},
		{
			"inputs": [],
			"name": "exchangeRate_Attackpoints",
			"outputs": [
				{
					"internalType": "uint8",
					"name": "",
					"type": "uint8"
				}
			],
			"stateMutability": "view",
			"type": "function"
		},
		{
			"inputs": [],
			"name": "exchangeRate_Burnpct",
			"outputs": [
				{
					"internalType": "uint8",
					"name": "",
					"type": "uint8"
				}
			],
			"stateMutability": "view",
			"type": "function"
		},
		{
			"inputs": [],
			"name": "exchangeRate_Defensepoints",
			"outputs": [
				{
					"internalType": "uint8",
					"name": "",
					"type": "uint8"
				}
			],
			"stateMutability": "view",
			"type": "function"
		},
		{
			"inputs": [
				{
					"internalType": "uint256",
					"name": "tokenId",
					"type": "uint256"
				}
			],
			"name": "getApproved",
			"outputs": [
				{
					"internalType": "address",
					"name": "",
					"type": "address"
				}
			],
			"stateMutability": "view",
			"type": "function"
		},
		{
			"inputs": [
				{
					"internalType": "uint256",
					"name": "playerId",
					"type": "uint256"
				}
			],
			"name": "getBossId",
			"outputs": [
				{
					"internalType": "uint256",
					"name": "bossId",
					"type": "uint256"
				}
			],
			"stateMutability": "view",
			"type": "function"
		},
		{
			"inputs": [
				{
					"internalType": "uint256",
					"name": "id",
					"type": "uint256"
				}
			],
			"name": "getBossRank",
			"outputs": [
				{
					"internalType": "uint256",
					"name": "bossrank",
					"type": "uint256"
				}
			],
			"stateMutability": "view",
			"type": "function"
		},
		{
			"inputs": [],
			"name": "getCurrentStakes",
			"outputs": [
				{
					"internalType": "uint256[3]",
					"name": "",
					"type": "uint256[3]"
				}
			],
			"stateMutability": "view",
			"type": "function"
		},
		{
			"inputs": [
				{
					"internalType": "uint256",
					"name": "_rank",
					"type": "uint256"
				}
			],
			"name": "getIdOfRank",
			"outputs": [
				{
					"internalType": "uint256",
					"name": "id",
					"type": "uint256"
				}
			],
			"stateMutability": "view",
			"type": "function"
		},
		{
			"inputs": [
				{
					"internalType": "address",
					"name": "_own",
					"type": "address"
				}
			],
			"name": "getIdsOfAddress",
			"outputs": [
				{
					"internalType": "uint256[]",
					"name": "ownedIds",
					"type": "uint256[]"
				}
			],
			"stateMutability": "view",
			"type": "function"
		},
		{
			"inputs": [
				{
					"internalType": "uint256",
					"name": "_id",
					"type": "uint256"
				}
			],
			"name": "getRankOfId",
			"outputs": [
				{
					"internalType": "uint256",
					"name": "id",
					"type": "uint256"
				}
			],
			"stateMutability": "view",
			"type": "function"
		},
		{
			"inputs": [
				{
					"internalType": "address",
					"name": "_own",
					"type": "address"
				}
			],
			"name": "getRanksOfAddress",
			"outputs": [
				{
					"internalType": "uint256[]",
					"name": "",
					"type": "uint256[]"
				}
			],
			"stateMutability": "view",
			"type": "function"
		},
		{
			"inputs": [
				{
					"internalType": "uint256",
					"name": "id",
					"type": "uint256"
				}
			],
			"name": "getServants",
			"outputs": [
				{
					"internalType": "uint256",
					"name": "left",
					"type": "uint256"
				},
				{
					"internalType": "uint256",
					"name": "right",
					"type": "uint256"
				}
			],
			"stateMutability": "view",
			"type": "function"
		},
		{
			"inputs": [],
			"name": "getTimeUntilStakingDone",
			"outputs": [
				{
					"internalType": "uint256[3]",
					"name": "timeuntildone",
					"type": "uint256[3]"
				}
			],
			"stateMutability": "view",
			"type": "function"
		},
		{
			"inputs": [
				{
					"internalType": "uint256",
					"name": "titleId",
					"type": "uint256"
				}
			],
			"name": "getTitleStats",
			"outputs": [
				{
					"internalType": "uint256",
					"name": "attackPoints",
					"type": "uint256"
				},
				{
					"internalType": "uint256",
					"name": "defensePoints",
					"type": "uint256"
				},
				{
					"internalType": "bool",
					"name": "ready4attack",
					"type": "bool"
				},
				{
					"internalType": "uint256",
					"name": "attackMultiplier",
					"type": "uint256"
				},
				{
					"internalType": "uint256",
					"name": "defenseMultiplier",
					"type": "uint256"
				},
				{
					"internalType": "uint256",
					"name": "moneyMultiplier",
					"type": "uint256"
				}
			],
			"stateMutability": "view",
			"type": "function"
		},
		{
			"inputs": [],
			"name": "harvestAll",
			"outputs": [
				{
					"internalType": "bool",
					"name": "success",
					"type": "bool"
				}
			],
			"stateMutability": "nonpayable",
			"type": "function"
		},
		{
			"inputs": [
				{
					"internalType": "address",
					"name": "owner",
					"type": "address"
				},
				{
					"internalType": "address",
					"name": "operator",
					"type": "address"
				}
			],
			"name": "isApprovedForAll",
			"outputs": [
				{
					"internalType": "bool",
					"name": "",
					"type": "bool"
				}
			],
			"stateMutability": "view",
			"type": "function"
		},
		{
			"inputs": [],
			"name": "justSendETH",
			"outputs": [
				{
					"internalType": "uint256",
					"name": "",
					"type": "uint256"
				}
			],
			"stateMutability": "payable",
			"type": "function"
		},
		{
			"inputs": [],
			"name": "kgdat",
			"outputs": [
				{
					"internalType": "contract KingdomAttackCoin",
					"name": "",
					"type": "address"
				}
			],
			"stateMutability": "view",
			"type": "function"
		},
		{
			"inputs": [],
			"name": "kgddf",
			"outputs": [
				{
					"internalType": "contract KingdomDefenseCoin",
					"name": "",
					"type": "address"
				}
			],
			"stateMutability": "view",
			"type": "function"
		},
		{
			"inputs": [],
			"name": "kgdsc",
			"outputs": [
				{
					"internalType": "contract KingdomSeedCoin",
					"name": "",
					"type": "address"
				}
			],
			"stateMutability": "view",
			"type": "function"
		},
		{
			"inputs": [
				{
					"internalType": "uint256",
					"name": "",
					"type": "uint256"
				}
			],
			"name": "kingdomtitles",
			"outputs": [
				{
					"internalType": "uint256",
					"name": "attackPoints",
					"type": "uint256"
				},
				{
					"internalType": "uint256",
					"name": "defensePoints",
					"type": "uint256"
				},
				{
					"internalType": "uint256",
					"name": "readyTimeAttack",
					"type": "uint256"
				},
				{
					"internalType": "uint256",
					"name": "readyTimeStake",
					"type": "uint256"
				},
				{
					"internalType": "uint256",
					"name": "attackMultiplier",
					"type": "uint256"
				},
				{
					"internalType": "uint256",
					"name": "defenseMultiplier",
					"type": "uint256"
				},
				{
					"internalType": "uint256",
					"name": "moneyMultiplier",
					"type": "uint256"
				}
			],
			"stateMutability": "view",
			"type": "function"
		},
		{
			"inputs": [],
			"name": "name",
			"outputs": [
				{
					"internalType": "string",
					"name": "",
					"type": "string"
				}
			],
			"stateMutability": "view",
			"type": "function"
		},
		{
			"inputs": [],
			"name": "owner",
			"outputs": [
				{
					"internalType": "address",
					"name": "",
					"type": "address"
				}
			],
			"stateMutability": "view",
			"type": "function"
		},
		{
			"inputs": [
				{
					"internalType": "uint256",
					"name": "tokenId",
					"type": "uint256"
				}
			],
			"name": "ownerOf",
			"outputs": [
				{
					"internalType": "address",
					"name": "",
					"type": "address"
				}
			],
			"stateMutability": "view",
			"type": "function"
		},
		{
			"inputs": [
				{
					"internalType": "uint256",
					"name": "nrSeedCoins",
					"type": "uint256"
				},
				{
					"internalType": "uint8",
					"name": "targetCoin",
					"type": "uint8"
				}
			],
			"name": "plantSeeds",
			"outputs": [],
			"stateMutability": "nonpayable",
			"type": "function"
		},
		{
			"inputs": [],
			"name": "readyTimeStakeCooldown",
			"outputs": [
				{
					"internalType": "uint256",
					"name": "",
					"type": "uint256"
				}
			],
			"stateMutability": "view",
			"type": "function"
		},
		{
			"inputs": [],
			"name": "renounceOwnership",
			"outputs": [],
			"stateMutability": "nonpayable",
			"type": "function"
		},
		{
			"inputs": [
				{
					"internalType": "uint256",
					"name": "itemId",
					"type": "uint256"
				}
			],
			"name": "reverseItem",
			"outputs": [
				{
					"internalType": "bool",
					"name": "",
					"type": "bool"
				}
			],
			"stateMutability": "nonpayable",
			"type": "function"
		},
		{
			"inputs": [
				{
					"internalType": "address",
					"name": "from",
					"type": "address"
				},
				{
					"internalType": "address",
					"name": "to",
					"type": "address"
				},
				{
					"internalType": "uint256",
					"name": "tokenId",
					"type": "uint256"
				}
			],
			"name": "safeTransferFrom",
			"outputs": [],
			"stateMutability": "nonpayable",
			"type": "function"
		},
		{
			"inputs": [
				{
					"internalType": "address",
					"name": "from",
					"type": "address"
				},
				{
					"internalType": "address",
					"name": "to",
					"type": "address"
				},
				{
					"internalType": "uint256",
					"name": "tokenId",
					"type": "uint256"
				},
				{
					"internalType": "bytes",
					"name": "_data",
					"type": "bytes"
				}
			],
			"name": "safeTransferFrom",
			"outputs": [],
			"stateMutability": "nonpayable",
			"type": "function"
		},
		{
			"inputs": [
				{
					"internalType": "address",
					"name": "operator",
					"type": "address"
				},
				{
					"internalType": "bool",
					"name": "approved",
					"type": "bool"
				}
			],
			"name": "setApprovalForAll",
			"outputs": [],
			"stateMutability": "nonpayable",
			"type": "function"
		},
		{
			"inputs": [],
			"name": "stakingPeriod",
			"outputs": [
				{
					"internalType": "uint256",
					"name": "",
					"type": "uint256"
				}
			],
			"stateMutability": "view",
			"type": "function"
		},
		{
			"inputs": [
				{
					"internalType": "bytes4",
					"name": "interfaceId",
					"type": "bytes4"
				}
			],
			"name": "supportsInterface",
			"outputs": [
				{
					"internalType": "bool",
					"name": "",
					"type": "bool"
				}
			],
			"stateMutability": "view",
			"type": "function"
		},
		{
			"inputs": [],
			"name": "symbol",
			"outputs": [
				{
					"internalType": "string",
					"name": "",
					"type": "string"
				}
			],
			"stateMutability": "view",
			"type": "function"
		},
		{
			"inputs": [
				{
					"internalType": "uint256",
					"name": "",
					"type": "uint256"
				}
			],
			"name": "title2Rank",
			"outputs": [
				{
					"internalType": "uint256",
					"name": "",
					"type": "uint256"
				}
			],
			"stateMutability": "view",
			"type": "function"
		},
		{
			"inputs": [
				{
					"internalType": "uint256",
					"name": "tokenId",
					"type": "uint256"
				}
			],
			"name": "tokenURI",
			"outputs": [
				{
					"internalType": "string",
					"name": "",
					"type": "string"
				}
			],
			"stateMutability": "view",
			"type": "function"
		},
		{
			"inputs": [],
			"name": "totalSupply",
			"outputs": [
				{
					"internalType": "uint16",
					"name": "",
					"type": "uint16"
				}
			],
			"stateMutability": "view",
			"type": "function"
		},
		{
			"inputs": [
				{
					"internalType": "address",
					"name": "from",
					"type": "address"
				},
				{
					"internalType": "address",
					"name": "to",
					"type": "address"
				},
				{
					"internalType": "uint256",
					"name": "tokenId",
					"type": "uint256"
				}
			],
			"name": "transferFrom",
			"outputs": [],
			"stateMutability": "nonpayable",
			"type": "function"
		},
		{
			"inputs": [
				{
					"internalType": "address",
					"name": "newOwner",
					"type": "address"
				}
			],
			"name": "transferOwnership",
			"outputs": [],
			"stateMutability": "nonpayable",
			"type": "function"
		},
		{
			"inputs": [
				{
					"internalType": "uint256",
					"name": "nrCoins",
					"type": "uint256"
				},
				{
					"internalType": "uint32",
					"name": "titleId",
					"type": "uint32"
				},
				{
					"internalType": "uint8",
					"name": "coinType",
					"type": "uint8"
				}
			],
			"name": "withdrawMilitaryFromTitle",
			"outputs": [],
			"stateMutability": "nonpayable",
			"type": "function"
		}
	]
}