{
	"data": {
		"bytecode": {
			"linkReferences": {},
			"object": "60806040526064600660006101000a81548160ff021916908360ff160217905550600a600660016101000a81548160ff021916908360ff1602179055506008600660026101000a81548160ff021916908360ff160217905550600a600660036101000a81548160ff021916908360ff160217905550603c600755603c600d556040518060600160405280602581526020016200705760259139600e9080519060200190620000af929190620002d8565b50348015620000bd57600080fd5b506040516200707c3803806200707c8339818101604052810190620000e39190620003cd565b8282828282826040518060400160405280600e81526020017f4b696e67646f6d205469746c65730000000000000000000000000000000000008152506040518060400160405280600381526020017f4b4744000000000000000000000000000000000000000000000000000000000081525081600090805190602001906200016d929190620002d8565b50806001908051906020019062000186929190620002d8565b50505082600860006101000a81548173ffffffffffffffffffffffffffffffffffffffff021916908373ffffffffffffffffffffffffffffffffffffffff16021790555081600960006101000a81548173ffffffffffffffffffffffffffffffffffffffff021916908373ffffffffffffffffffffffffffffffffffffffff16021790555080600a60006101000a81548173ffffffffffffffffffffffffffffffffffffffff021916908373ffffffffffffffffffffffffffffffffffffffff1602179055505050506200025f620002d060201b60201c565b600c60006101000a81548173ffffffffffffffffffffffffffffffffffffffff021916908373ffffffffffffffffffffffffffffffffffffffff160217905550600061754060006101000a81548160ff021916908360ff160217905550505050426175428190555050505062000551565b600033905090565b828054620002e69062000499565b90600052602060002090601f0160209004810192826200030a576000855562000356565b82601f106200032557805160ff191683800117855562000356565b8280016001018555821562000356579182015b828111156200035557825182559160200191906001019062000338565b5b50905062000365919062000369565b5090565b5b80821115620003845760008160009055506001016200036a565b5090565b600081519050620003998162000503565b92915050565b600081519050620003b0816200051d565b92915050565b600081519050620003c78162000537565b92915050565b600080600060608486031215620003e957620003e8620004fe565b5b6000620003f986828701620003b6565b93505060206200040c8682870162000388565b92505060406200041f868287016200039f565b9150509250925092565b6000620004368262000479565b9050919050565b60006200044a8262000429565b9050919050565b60006200045e8262000429565b9050919050565b6000620004728262000429565b9050919050565b600073ffffffffffffffffffffffffffffffffffffffff82169050919050565b60006002820490506001821680620004b257607f821691505b60208210811415620004c957620004c8620004cf565b5b50919050565b7f4e487b7100000000000000000000000000000000000000000000000000000000600052602260045260246000fd5b600080fd5b6200050e816200043d565b81146200051a57600080fd5b50565b620005288162000451565b81146200053457600080fd5b50565b620005428162000465565b81146200054e57600080fd5b50565b616af680620005616000396000f3fe6080604052600436106102725760003560e01c80636914db601161014f578063c03d5b47116100c1578063e046670b1161007a578063e046670b146109c0578063e73961f5146109de578063e985e9c514610a09578063f08b7b7314610a46578063f2fb212014610a83578063fa4facdb14610ac057610272565b8063c03d5b471461089a578063c669b710146108c5578063c6a3550f146108f0578063c87b56dd1461092d578063d4637ddb1461096a578063d534d6361461099557610272565b806384505e6a1161011357806384505e6a146107b05780638ed955b9146107db578063900294be146107f257806395d89b411461081d578063a22cb46514610848578063b88d4fde1461087157610272565b80636914db60146106a35780636a7a2fa3146106e057806370a082311461070b5780637758429f146107485780637c62539a1461078557610272565b80632756985c116101e8578063429c3edf116101ac578063429c3edf1461056c57806345405f54146105955780635053f6b8146105be5780635bcabf04146105fd578063627ce3b8146106285780636352211e1461066657610272565b80632756985c146104875780632c067d6c146104c45780633ba0b9a9146104ed578063411ee0d01461051857806342842e0e1461054357610272565b806313245c951161023a57806313245c951461034f57806318160ddd1461038c5780631a90dfe0146103b75780631b4801cc146103e25780631cf95ed61461041f57806323b872dd1461045e57610272565b806301ffc9a71461027757806306fdde03146102b4578063081812fc146102df578063095ea7b31461031c57806310f7e4ed14610345575b600080fd5b34801561028357600080fd5b5061029e600480360381019061029991906147e5565b610aeb565b6040516102ab91906152ff565b60405180910390f35b3480156102c057600080fd5b506102c9610bcd565b6040516102d6919061536b565b60405180910390f35b3480156102eb57600080fd5b506103066004803603810190610301919061486c565b610c5f565b6040516103139190615150565b60405180910390f35b34801561032857600080fd5b50610343600480360381019061033e9190614778565b610ce4565b005b61034d610dfc565b005b34801561035b57600080fd5b50610376600480360381019061037191906145f5565b6110b8565b60405161038391906152dd565b60405180910390f35b34801561039857600080fd5b506103a1611150565b6040516103ae91906157ed565b60405180910390f35b3480156103c357600080fd5b506103cc611156565b6040516103d9919061536b565b60405180910390f35b3480156103ee57600080fd5b50610409600480360381019061040491906145f5565b611193565b60405161041691906152dd565b60405180910390f35b34801561042b57600080fd5b506104466004803603810190610441919061486c565b6112a6565b604051610455939291906158ac565b60405180910390f35b34801561046a57600080fd5b5061048560048036038101906104809190614662565b6112d7565b005b34801561049357600080fd5b506104ae60048036038101906104a9919061486c565b611337565b6040516104bb91906152ff565b60405180910390f35b3480156104d057600080fd5b506104eb60048036038101906104e6919061483f565b611566565b005b3480156104f957600080fd5b506105026118bb565b60405161050f91906158e3565b60405180910390f35b34801561052457600080fd5b5061052d6118ce565b60405161053a9190615335565b60405180910390f35b34801561054f57600080fd5b5061056a60048036038101906105659190614662565b6118f4565b005b34801561057857600080fd5b50610593600480360381019061058e9190614919565b611914565b005b3480156105a157600080fd5b506105bc60048036038101906105b791906148c6565b611e10565b005b3480156105ca57600080fd5b506105e560048036038101906105e09190614959565b6122a0565b6040516105f493929190615875565b60405180910390f35b34801561060957600080fd5b5061061261236e565b60405161061f919061536b565b60405180910390f35b34801561063457600080fd5b5061064f600480360381019061064a919061483f565b6123fc565b60405161065d929190615808565b60405180910390f35b34801561067257600080fd5b5061068d6004803603810190610688919061486c565b612490565b60405161069a9190615150565b60405180910390f35b3480156106af57600080fd5b506106ca60048036038101906106c5919061486c565b612542565b6040516106d7919061536b565b60405180910390f35b3480156106ec57600080fd5b506106f5612576565b60405161070291906158e3565b60405180910390f35b34801561071757600080fd5b50610732600480360381019061072d91906145f5565b612589565b60405161073f9190615831565b60405180910390f35b34801561075457600080fd5b5061076f600480360381019061076a919061483f565b612641565b60405161077c91906157ed565b60405180910390f35b34801561079157600080fd5b5061079a61270b565b6040516107a7919061531a565b60405180910390f35b3480156107bc57600080fd5b506107c5612731565b6040516107d291906152c2565b60405180910390f35b3480156107e757600080fd5b506107f0612904565b005b3480156107fe57600080fd5b50610807612d25565b6040516108149190615350565b60405180910390f35b34801561082957600080fd5b50610832612d4b565b60405161083f919061536b565b60405180910390f35b34801561085457600080fd5b5061086f600480360381019061086a9190614738565b612ddd565b005b34801561087d57600080fd5b50610898600480360381019061089391906146b5565b612f5e565b005b3480156108a657600080fd5b506108af612fc0565b6040516108bc9190615831565b60405180910390f35b3480156108d157600080fd5b506108da612fc6565b6040516108e791906158e3565b60405180910390f35b3480156108fc57600080fd5b506109176004803603810190610912919061486c565b612fd9565b6040516109249190615831565b60405180910390f35b34801561093957600080fd5b50610954600480360381019061094f919061486c565b612ff2565b604051610961919061536b565b60405180910390f35b34801561097657600080fd5b5061097f613099565b60405161098c91906158e3565b60405180910390f35b3480156109a157600080fd5b506109aa6130ac565b6040516109b79190615831565b60405180910390f35b6109c86130c7565b6040516109d59190615831565b60405180910390f35b3480156109ea57600080fd5b506109f36130cf565b604051610a009190615831565b60405180910390f35b348015610a1557600080fd5b50610a306004803603810190610a2b9190614622565b6130d5565b604051610a3d91906152ff565b60405180910390f35b348015610a5257600080fd5b50610a6d6004803603810190610a689190614778565b613169565b604051610a7a9190615831565b60405180910390f35b348015610a8f57600080fd5b50610aaa6004803603810190610aa591906145f5565b61319b565b604051610ab79190615831565b60405180910390f35b348015610acc57600080fd5b50610ad56133dc565b604051610ae291906152c2565b60405180910390f35b60007f80ac58cd000000000000000000000000000000000000000000000000000000007bffffffffffffffffffffffffffffffffffffffffffffffffffffffff1916827bffffffffffffffffffffffffffffffffffffffffffffffffffffffff19161480610bb657507f5b5e139f000000000000000000000000000000000000000000000000000000007bffffffffffffffffffffffffffffffffffffffffffffffffffffffff1916827bffffffffffffffffffffffffffffffffffffffffffffffffffffffff1916145b80610bc65750610bc582613555565b5b9050919050565b606060008054610bdc90615d72565b80601f0160208091040260200160405190810160405280929190818152602001828054610c0890615d72565b8015610c555780601f10610c2a57610100808354040283529160200191610c55565b820191906000526020600020905b815481529060010190602001808311610c3857829003601f168201915b5050505050905090565b6000610c6a826135bf565b610ca9576040517f08c379a0000000000000000000000000000000000000000000000000000000008152600401610ca09061560d565b60405180910390fd5b6004600083815260200190815260200160002060009054906101000a900473ffffffffffffffffffffffffffffffffffffffff169050919050565b6000610cef82612490565b90508073ffffffffffffffffffffffffffffffffffffffff168373ffffffffffffffffffffffffffffffffffffffff161415610d60576040517f08c379a0000000000000000000000000000000000000000000000000000000008152600401610d57906156ed565b60405180910390fd5b8073ffffffffffffffffffffffffffffffffffffffff16610d7f61362b565b73ffffffffffffffffffffffffffffffffffffffff161480610dae5750610dad81610da861362b565b6130d5565b5b610ded576040517f08c379a0000000000000000000000000000000000000000000000000000000008152600401610de49061556d565b60405180910390fd5b610df78383613633565b505050565b6000600860009054906101000a900473ffffffffffffffffffffffffffffffffffffffff1673ffffffffffffffffffffffffffffffffffffffff166370a08231306040518263ffffffff1660e01b8152600401610e599190615150565b60206040518083038186803b158015610e7157600080fd5b505afa158015610e85573d6000803e3d6000fd5b505050506040513d601f19601f82011682018060405250810190610ea99190614899565b11610eb357600080fd5b60003411610ef6576040517f08c379a0000000000000000000000000000000000000000000000000000000008152600401610eed9061544d565b60405180910390fd5b6000600860009054906101000a900473ffffffffffffffffffffffffffffffffffffffff1673ffffffffffffffffffffffffffffffffffffffff166370a08231306040518263ffffffff1660e01b8152600401610f539190615150565b60206040518083038186803b158015610f6b57600080fd5b505afa158015610f7f573d6000803e3d6000fd5b505050506040513d601f19601f82011682018060405250810190610fa39190614899565b11610fe3576040517f08c379a0000000000000000000000000000000000000000000000000000000008152600401610fda9061574d565b60405180910390fd5b6000600660009054906101000a900460ff1660ff16346110039190615b75565b9050600860009054906101000a900473ffffffffffffffffffffffffffffffffffffffff1673ffffffffffffffffffffffffffffffffffffffff1663a9059cbb33836040518363ffffffff1660e01b8152600401611062929190615299565b602060405180830381600087803b15801561107c57600080fd5b505af1158015611090573d6000803e3d6000fd5b505050506040513d601f19601f820116820180604052508101906110b491906147b8565b5050565b606061754160008373ffffffffffffffffffffffffffffffffffffffff1673ffffffffffffffffffffffffffffffffffffffff16815260200190815260200160002080548060200260200160405190810160405280929190818152602001828054801561114457602002820191906000526020600020905b815481526020019060010190808311611130575b50505050509050919050565b61271081565b60606040518060400160405280600681526020017f6675636b20750000000000000000000000000000000000000000000000000000815250905090565b6060600061754160008473ffffffffffffffffffffffffffffffffffffffff1673ffffffffffffffffffffffffffffffffffffffff16815260200190815260200160002080548060200260200160405190810160405280929190818152602001828054801561122157602002820191906000526020600020905b81548152602001906001019080831161120d575b5050505050905060008151146112a05760005b815181101561129e5761753f600083838151811061125557611254615f41565b5b602002602001015181526020019081526020016000205483828151811061127f5761127e615f41565b5b602002602001018181525050808061129690615dd5565b915050611234565b505b50919050565b600f8161271081106112b757600080fd5b600302016000915090508060000154908060010154908060020154905083565b6112e86112e261362b565b826136ec565b611327576040517f08c379a000000000000000000000000000000000000000000000000000000000815260040161131e9061572d565b60405180910390fd5b6113328383836137ca565b505050565b60003373ffffffffffffffffffffffffffffffffffffffff16600c60009054906101000a900473ffffffffffffffffffffffffffffffffffffffff1673ffffffffffffffffffffffffffffffffffffffff16146113c9576040517f08c379a00000000000000000000000000000000000000000000000000000000081526004016113c09061542d565b60405180910390fd5b60006113d483612490565b90506113e18130856137ca565b6000611a0a905060005b61754160008473ffffffffffffffffffffffffffffffffffffffff1673ffffffffffffffffffffffffffffffffffffffff168152602001908152602001600020805490508110156114b5578461754160008573ffffffffffffffffffffffffffffffffffffffff1673ffffffffffffffffffffffffffffffffffffffff168152602001908152602001600020828154811061148957611488615f41565b5b906000526020600020015414156114a2578091506114b5565b80806114ad90615dd5565b9150506113eb565b50611a0a8114156114fb576040517f08c379a00000000000000000000000000000000000000000000000000000000081526004016114f29061566d565b60405180910390fd5b61754160008373ffffffffffffffffffffffffffffffffffffffff1673ffffffffffffffffffffffffffffffffffffffff168152602001908152602001600020818154811061154d5761154c615f41565b5b9060005260206000200160009055600192505050919050565b600061157133612589565b116115b1576040517f08c379a00000000000000000000000000000000000000000000000000000000081526004016115a89061562d565b60405180910390fd5b6115bb33306130d5565b6115fa576040517f08c379a00000000000000000000000000000000000000000000000000000000081526004016115f19061564d565b60405180910390fd5b3373ffffffffffffffffffffffffffffffffffffffff1661161e8261ffff16612490565b73ffffffffffffffffffffffffffffffffffffffff1614611674576040517f08c379a000000000000000000000000000000000000000000000000000000000815260040161166b9061558d565b60405180910390fd5b600061167f82612641565b905060006116908261ffff16612490565b905061169c81306130d5565b6116db576040517f08c379a00000000000000000000000000000000000000000000000000000000081526004016116d2906157cd565b60405180910390fd5b3373ffffffffffffffffffffffffffffffffffffffff168173ffffffffffffffffffffffffffffffffffffffff16141561174a576040517f08c379a00000000000000000000000000000000000000000000000000000000081526004016117419061538d565b60405180910390fd5b60008061175a8561ffff166122a0565b92505091508061179f576040517f08c379a0000000000000000000000000000000000000000000000000000000008152600401611796906153ad565b60405180910390fd5b60006117ae8561ffff166122a0565b509150506000600a600f836117c39190615b75565b6117cd9190615b08565b905060006117d9613a26565b90506000806117e88785613a89565b915091506000806000600385111561180a578791506000925060019050611899565b600285111561184a5787915060019050600a8a6118279190615b08565b9250605a8660ff161115611845576002886118429190615b08565b91505b611898565b60018511801561185a5750600584115b1561188657600190506002886118709190615b08565b915060028a61187f9190615b08565b9250611897565b600090508560ff1691508560ff1692505b5b5b6118ac8d8d338e8e8d89898d8d8b613aba565b50505050505050505050505050565b600660009054906101000a900460ff1681565b600a60009054906101000a900473ffffffffffffffffffffffffffffffffffffffff1681565b61190f83838360405180602001604052806000815250612f5e565b505050565b6000600960009054906101000a900473ffffffffffffffffffffffffffffffffffffffff1673ffffffffffffffffffffffffffffffffffffffff166370a08231306040518263ffffffff1660e01b81526004016119719190615150565b60206040518083038186803b15801561198957600080fd5b505afa15801561199d573d6000803e3d6000fd5b505050506040513d601f19601f820116820180604052508101906119c19190614899565b116119cb57600080fd5b6000600a60009054906101000a900473ffffffffffffffffffffffffffffffffffffffff1673ffffffffffffffffffffffffffffffffffffffff166370a08231306040518263ffffffff1660e01b8152600401611a289190615150565b60206040518083038186803b158015611a4057600080fd5b505afa158015611a54573d6000803e3d6000fd5b505050506040513d601f19601f82011682018060405250810190611a789190614899565b11611a8257600080fd5b6000600860009054906101000a900473ffffffffffffffffffffffffffffffffffffffff1673ffffffffffffffffffffffffffffffffffffffff166370a08231336040518263ffffffff1660e01b8152600401611adf9190615150565b60206040518083038186803b158015611af757600080fd5b505afa158015611b0b573d6000803e3d6000fd5b505050506040513d601f19601f82011682018060405250810190611b2f9190614899565b9050828110158015611b415750600083115b611b80576040517f08c379a0000000000000000000000000000000000000000000000000000000008152600401611b77906153ed565b60405180910390fd5b60008260ff161480611b95575060018260ff16145b611bd4576040517f08c379a0000000000000000000000000000000000000000000000000000000008152600401611bcb9061552d565b60405180910390fd5b60008260ff161415611c33573373ffffffffffffffffffffffffffffffffffffffff167f44d00596aedd88fca0607c9a84113fd638c9a070d5ef8d77c072080b688d8e3484604051611c269190615831565b60405180910390a2611c8f565b60018260ff161415611c8e573373ffffffffffffffffffffffffffffffffffffffff167f049b4d6e22c9904766197183f9dc1f362cefb04f39e3850a8b7d83ff2c26216f84604051611c859190615831565b60405180910390a25b5b600860009054906101000a900473ffffffffffffffffffffffffffffffffffffffff1673ffffffffffffffffffffffffffffffffffffffff166323b872dd3330866040518463ffffffff1660e01b8152600401611cee93929190615216565b602060405180830381600087803b158015611d0857600080fd5b505af1158015611d1c573d6000803e3d6000fd5b505050506040513d601f19601f82011682018060405250810190611d4091906147b8565b50600b60003373ffffffffffffffffffffffffffffffffffffffff1673ffffffffffffffffffffffffffffffffffffffff16815260200190815260200160002060405180606001604052808581526020018460ff16815260200160075442611da89190615a4a565b81525090806001815401808255809150506001900390600052602060002090600302016000909190919091506000820151816000015560208201518160010160006101000a81548160ff021916908360ff160217905550604082015181600201555050505050565b6000611e1a6130ac565b90508263ffffffff166000108015611e385750808363ffffffff1611155b611e77576040517f08c379a0000000000000000000000000000000000000000000000000000000008152600401611e6e9061570d565b60405180910390fd5b60008260ff161480611e8c575060018260ff16145b611ecb576040517f08c379a0000000000000000000000000000000000000000000000000000000008152600401611ec29061548d565b60405180910390fd5b60008260ff1614156120b45783600960009054906101000a900473ffffffffffffffffffffffffffffffffffffffff1673ffffffffffffffffffffffffffffffffffffffff166370a08231336040518263ffffffff1660e01b8152600401611f339190615150565b60206040518083038186803b158015611f4b57600080fd5b505afa158015611f5f573d6000803e3d6000fd5b505050506040513d601f19601f82011682018060405250810190611f839190614899565b1015611fc4576040517f08c379a0000000000000000000000000000000000000000000000000000000008152600401611fbb906157ad565b60405180910390fd5b600960009054906101000a900473ffffffffffffffffffffffffffffffffffffffff1673ffffffffffffffffffffffffffffffffffffffff166323b872dd3330876040518463ffffffff1660e01b815260040161202393929190615216565b602060405180830381600087803b15801561203d57600080fd5b505af1158015612051573d6000803e3d6000fd5b505050506040513d601f19601f8201168201806040525081019061207591906147b8565b5083600f8463ffffffff16612710811061209257612091615f41565b5b6003020160000160008282546120a89190615a4a565b9250508190555061229a565b60018260ff1614156122995783600a60009054906101000a900473ffffffffffffffffffffffffffffffffffffffff1673ffffffffffffffffffffffffffffffffffffffff166370a08231336040518263ffffffff1660e01b815260040161211c9190615150565b60206040518083038186803b15801561213457600080fd5b505afa158015612148573d6000803e3d6000fd5b505050506040513d601f19601f8201168201806040525081019061216c9190614899565b10156121ad576040517f08c379a00000000000000000000000000000000000000000000000000000000081526004016121a49061554d565b60405180910390fd5b600a60009054906101000a900473ffffffffffffffffffffffffffffffffffffffff1673ffffffffffffffffffffffffffffffffffffffff166323b872dd3330876040518463ffffffff1660e01b815260040161220c93929190615216565b602060405180830381600087803b15801561222657600080fd5b505af115801561223a573d6000803e3d6000fd5b505050506040513d601f19601f8201168201806040525081019061225e91906147b8565b5083600f8463ffffffff16612710811061227b5761227a615f41565b5b6003020160010160008282546122919190615a4a565b925050819055505b5b50505050565b60008060006122ad6130ac565b8463ffffffff1611156122f5576040517f08c379a00000000000000000000000000000000000000000000000000000000081526004016122ec906154ed565b60405180910390fd5b600f8463ffffffff1661271081106123105761230f615f41565b5b60030201600001549250600f8463ffffffff16612710811061233557612334615f41565b5b6003020160010154915042600f8563ffffffff16612710811061235b5761235a615f41565b5b6003020160020154101590509193909250565b600e805461237b90615d72565b80601f01602080910402602001604051908101604052809291908181526020018280546123a790615d72565b80156123f45780601f106123c9576101008083540402835291602001916123f4565b820191906000526020600020905b8154815290600101906020018083116123d757829003601f168201915b505050505081565b60008060006124096130ac565b9050808461ffff161115612452576040517f08c379a0000000000000000000000000000000000000000000000000000000008152600401612449906156cd565b60405180910390fd5b61245b84613c46565b925061246684613c5c565b9150808361ffff16111561247957600092505b808261ffff16111561248a57600091505b50915091565b6000806002600084815260200190815260200160002060009054906101000a900473ffffffffffffffffffffffffffffffffffffffff169050600073ffffffffffffffffffffffffffffffffffffffff168173ffffffffffffffffffffffffffffffffffffffff161415612539576040517f08c379a0000000000000000000000000000000000000000000000000000000008152600401612530906155cd565b60405180910390fd5b80915050919050565b6060600e61254f83613c7a565b604051602001612560929190615100565b6040516020818303038152906040529050919050565b600660039054906101000a900460ff1681565b60008073ffffffffffffffffffffffffffffffffffffffff168273ffffffffffffffffffffffffffffffffffffffff1614156125fa576040517f08c379a00000000000000000000000000000000000000000000000000000000081526004016125f1906155ad565b60405180910390fd5b600360008373ffffffffffffffffffffffffffffffffffffffff1673ffffffffffffffffffffffffffffffffffffffff168152602001908152602001600020549050919050565b60008061264c6130ac565b90508261ffff1660001080156126665750808361ffff1611155b6126a5576040517f08c379a000000000000000000000000000000000000000000000000000000000815260040161269c906156cd565b60405180910390fd5b60018361ffff1614156126bb5760009150612705565b60006002846126ca9190615e52565b61ffff1614156126e8576002836126e19190615ad7565b9150612704565b60026001846126f79190615bcf565b6127019190615ad7565b91505b5b50919050565b600960009054906101000a900473ffffffffffffffffffffffffffffffffffffffff1681565b612739614491565b60005b600b60003373ffffffffffffffffffffffffffffffffffffffff1673ffffffffffffffffffffffffffffffffffffffff16815260200190815260200160002080549050811015612900576000600b60003373ffffffffffffffffffffffffffffffffffffffff1673ffffffffffffffffffffffffffffffffffffffff16815260200190815260200160002082815481106127d9576127d8615f41565b5b9060005260206000209060030201604051806060016040529081600082015481526020016001820160009054906101000a900460ff1660ff1660ff16815260200160028201548152505090506000816020015160ff16141561288a5742816040015111156128655760168360006002811061285757612856615f41565b5b602002018181525050612885565b60008360006002811061287b5761287a615f41565b5b6020020181815250505b6128ec565b6001816020015160ff1614156128eb5742816040015111156128ca576017836001600281106128bc576128bb615f41565b5b6020020181815250506128ea565b6000836001600281106128e0576128df615f41565b5b6020020181815250505b5b5b5080806128f890615dd5565b91505061273c565b5090565b60005b600b60003373ffffffffffffffffffffffffffffffffffffffff1673ffffffffffffffffffffffffffffffffffffffff16815260200190815260200160002080549050811015612d22576000600b60003373ffffffffffffffffffffffffffffffffffffffff1673ffffffffffffffffffffffffffffffffffffffff16815260200190815260200160002082815481106129a4576129a3615f41565b5b9060005260206000209060030201604051806060016040529081600082015481526020016001820160009054906101000a900460ff1660ff1660ff16815260200160028201548152505090504281604001511015612d0e576000816020015160ff161415612b43576000600660019054906101000a900460ff1660ff168260000151612a309190615b08565b9050612a3f8260000151613e03565b600960009054906101000a900473ffffffffffffffffffffffffffffffffffffffff1673ffffffffffffffffffffffffffffffffffffffff1663a9059cbb33836040518363ffffffff1660e01b8152600401612a9c929190615299565b602060405180830381600087803b158015612ab657600080fd5b505af1158015612aca573d6000803e3d6000fd5b505050506040513d601f19601f82011682018060405250810190612aee91906147b8565b503373ffffffffffffffffffffffffffffffffffffffff167f9fd4a9248425079a398923cd20daa8e0c103907fb89db4707cb4f2cc343f954682604051612b359190615831565b60405180910390a250612c87565b6001816020015160ff161415612c86576000600660029054906101000a900460ff1660ff168260000151612b779190615b08565b9050612b868260000151613e03565b600a60009054906101000a900473ffffffffffffffffffffffffffffffffffffffff1673ffffffffffffffffffffffffffffffffffffffff1663a9059cbb33836040518363ffffffff1660e01b8152600401612be3929190615299565b602060405180830381600087803b158015612bfd57600080fd5b505af1158015612c11573d6000803e3d6000fd5b505050506040513d601f19601f82011682018060405250810190612c3591906147b8565b503373ffffffffffffffffffffffffffffffffffffffff167fd62aeb2df4f1c7a0c59e15c0dca22ccbcbe42ad0d0dbf99a22c0ad2551c5a15582604051612c7c9190615831565b60405180910390a2505b5b600b60003373ffffffffffffffffffffffffffffffffffffffff1673ffffffffffffffffffffffffffffffffffffffff1681526020019081526020016000208281548110612cd857612cd7615f41565b5b90600052602060002090600302016000808201600090556001820160006101000a81549060ff0219169055600282016000905550505b508080612d1a90615dd5565b915050612907565b50565b600860009054906101000a900473ffffffffffffffffffffffffffffffffffffffff1681565b606060018054612d5a90615d72565b80601f0160208091040260200160405190810160405280929190818152602001828054612d8690615d72565b8015612dd35780601f10612da857610100808354040283529160200191612dd3565b820191906000526020600020905b815481529060010190602001808311612db657829003601f168201915b5050505050905090565b612de561362b565b73ffffffffffffffffffffffffffffffffffffffff168273ffffffffffffffffffffffffffffffffffffffff161415612e53576040517f08c379a0000000000000000000000000000000000000000000000000000000008152600401612e4a906154cd565b60405180910390fd5b8060056000612e6061362b565b73ffffffffffffffffffffffffffffffffffffffff1673ffffffffffffffffffffffffffffffffffffffff16815260200190815260200160002060008473ffffffffffffffffffffffffffffffffffffffff1673ffffffffffffffffffffffffffffffffffffffff16815260200190815260200160002060006101000a81548160ff0219169083151502179055508173ffffffffffffffffffffffffffffffffffffffff16612f0d61362b565b73ffffffffffffffffffffffffffffffffffffffff167f17307eab39ab6107e8899845ad3d59bd9653f200f220920489ca2b5937696c3183604051612f5291906152ff565b60405180910390a35050565b612f6f612f6961362b565b836136ec565b612fae576040517f08c379a0000000000000000000000000000000000000000000000000000000008152600401612fa59061572d565b60405180910390fd5b612fba84848484613f40565b50505050565b60075481565b600660019054906101000a900460ff1681565b61753f6020528060005260406000206000915090505481565b6060612ffd826135bf565b61303c576040517f08c379a0000000000000000000000000000000000000000000000000000000008152600401613033906156ad565b60405180910390fd5b6000613046613f9c565b905060008151116130665760405180602001604052806000815250613091565b8061307084613fb3565b6040516020016130819291906150dc565b6040516020818303038152906040525b915050919050565b600660029054906101000a900460ff1681565b600061754060009054906101000a900460ff1660ff16905090565b600047905090565b600d5481565b6000600560008473ffffffffffffffffffffffffffffffffffffffff1673ffffffffffffffffffffffffffffffffffffffff16815260200190815260200160002060008373ffffffffffffffffffffffffffffffffffffffff1673ffffffffffffffffffffffffffffffffffffffff16815260200190815260200160002060009054906101000a900460ff16905092915050565b617541602052816000526040600020818154811061318657600080fd5b90600052602060002001600091509150505481565b60003373ffffffffffffffffffffffffffffffffffffffff16600c60009054906101000a900473ffffffffffffffffffffffffffffffffffffffff1673ffffffffffffffffffffffffffffffffffffffff161461322d576040517f08c379a00000000000000000000000000000000000000000000000000000000081526004016132249061542d565b60405180910390fd5b61271061ffff1661754060009054906101000a900460ff1660ff1610613288576040517f08c379a000000000000000000000000000000000000000000000000000000000815260040161327f9061578d565b60405180910390fd5b6000600161754060009054906101000a900460ff166132a79190615aa0565b60ff1690506132b68382614114565b61754160008473ffffffffffffffffffffffffffffffffffffffff1673ffffffffffffffffffffffffffffffffffffffff1681526020019081526020016000208190806001815401808255809150506001900390600052602060002001600090919091909150558061753f60008381526020019081526020016000208190555060405180606001604052806000815260200160008152602001600d544261335d9190615a4a565b815250600f82612710811061337557613374615f41565b5b60030201600082015181600001556020820151816001015560408201518160020155905050617540600081819054906101000a900460ff16809291906133ba90615e1e565b91906101000a81548160ff021916908360ff1602179055505080915050919050565b6133e4614491565b60008060005b600b60003373ffffffffffffffffffffffffffffffffffffffff1673ffffffffffffffffffffffffffffffffffffffff16815260200190815260200160002080549050811015613532576000600b60003373ffffffffffffffffffffffffffffffffffffffff1673ffffffffffffffffffffffffffffffffffffffff168152602001908152602001600020828154811061348757613486615f41565b5b9060005260206000209060030201604051806060016040529081600082015481526020016001820160009054906101000a900460ff1660ff1660ff16815260200160028201548152505090506000816020015160ff1614156134fa578060000151846134f39190615a4a565b935061351e565b6001816020015160ff16141561351d5780600001518361351a9190615a4a565b92505b5b50808061352a90615dd5565b9150506133ea565b506000604051806040016040528084815260200183815250905080935050505090565b60007f01ffc9a7000000000000000000000000000000000000000000000000000000007bffffffffffffffffffffffffffffffffffffffffffffffffffffffff1916827bffffffffffffffffffffffffffffffffffffffffffffffffffffffff1916149050919050565b60008073ffffffffffffffffffffffffffffffffffffffff166002600084815260200190815260200160002060009054906101000a900473ffffffffffffffffffffffffffffffffffffffff1673ffffffffffffffffffffffffffffffffffffffff1614159050919050565b600033905090565b816004600083815260200190815260200160002060006101000a81548173ffffffffffffffffffffffffffffffffffffffff021916908373ffffffffffffffffffffffffffffffffffffffff160217905550808273ffffffffffffffffffffffffffffffffffffffff166136a683612490565b73ffffffffffffffffffffffffffffffffffffffff167f8c5be1e5ebec7d5bd14f71427d1e84f3dd0314c0f7b2291e5b200ac8c7c3b92560405160405180910390a45050565b60006136f7826135bf565b613736576040517f08c379a000000000000000000000000000000000000000000000000000000000815260040161372d9061550d565b60405180910390fd5b600061374183612490565b90508073ffffffffffffffffffffffffffffffffffffffff168473ffffffffffffffffffffffffffffffffffffffff1614806137b057508373ffffffffffffffffffffffffffffffffffffffff1661379884610c5f565b73ffffffffffffffffffffffffffffffffffffffff16145b806137c157506137c081856130d5565b5b91505092915050565b8273ffffffffffffffffffffffffffffffffffffffff166137ea82612490565b73ffffffffffffffffffffffffffffffffffffffff1614613840576040517f08c379a00000000000000000000000000000000000000000000000000000000081526004016138379061568d565b60405180910390fd5b600073ffffffffffffffffffffffffffffffffffffffff168273ffffffffffffffffffffffffffffffffffffffff1614156138b0576040517f08c379a00000000000000000000000000000000000000000000000000000000081526004016138a7906154ad565b60405180910390fd5b6138bb8383836142e2565b6138c6600082613633565b6001600360008573ffffffffffffffffffffffffffffffffffffffff1673ffffffffffffffffffffffffffffffffffffffff16815260200190815260200160002060008282546139169190615c03565b925050819055506001600360008473ffffffffffffffffffffffffffffffffffffffff1673ffffffffffffffffffffffffffffffffffffffff168152602001908152602001600020600082825461396d9190615a4a565b92505081905550816002600083815260200190815260200160002060006101000a81548173ffffffffffffffffffffffffffffffffffffffff021916908373ffffffffffffffffffffffffffffffffffffffff160217905550808273ffffffffffffffffffffffffffffffffffffffff168473ffffffffffffffffffffffffffffffffffffffff167fddf252ad1be2c89b69c2b068fc378daa952ba7f163c4a11628f55a4df523b3ef60405160405180910390a4505050565b60008060644461754254604051602001613a41929190615124565b6040516020818303038152906040528051906020012060001c613a649190615e83565b90508060ff1661754254613a789190615a4a565b60ff16617542819055508091505090565b6000808284613a989190615b08565b91508183613aa69190615b75565b84613ab19190615c03565b90509250929050565b7f86384656c60c8909cbb3413e5d14aaae85eda338817c36ff699276a94ba9a8b189898d8d8b8b8b8d8b8b8b604051613afd9b9a9998979695949392919061516b565b60405180910390a184600f8c61ffff166127108110613b1f57613b1e615f41565b5b600302016000016000828254613b359190615c03565b925050819055506000600f8c61ffff166127108110613b5757613b56615f41565b5b600302016000015411613b9f576040517f08c379a0000000000000000000000000000000000000000000000000000000008152600401613b969061576d565b60405180910390fd5b83600f8b61ffff166127108110613bb957613bb8615f41565b5b600302016001016000828254613bcf9190615c03565b925050819055506000600f8b61ffff166127108110613bf157613bf0615f41565b5b600302016001015411613c39576040517f08c379a0000000000000000000000000000000000000000000000000000000008152600401613c30906153cd565b60405180910390fd5b5050505050505050505050565b6000600282613c559190615b39565b9050919050565b60006001613c6983613c46565b613c739190615a12565b9050919050565b60606000821415613cc2576040518060400160405280600181526020017f30000000000000000000000000000000000000000000000000000000000000008152509050613dfe565b600082905060005b60008214613cf4578080613cdd90615dd5565b915050600a82613ced9190615b08565b9150613cca565b60008167ffffffffffffffff811115613d1057613d0f615f70565b5b6040519080825280601f01601f191660200182016040528015613d425781602001600182028036833780820191505090505b50905060008290505b60008614613df657600181613d609190615c03565b90506000600a8088613d729190615b08565b613d7c9190615b75565b87613d879190615c03565b6030613d939190615aa0565b905060008160f81b905080848481518110613db157613db0615f41565b5b60200101907effffffffffffffffffffffffffffffffffffffffffffffffffffffffffffff1916908160001a905350600a88613ded9190615b08565b97505050613d4b565b819450505050505b919050565b60006064600660039054906101000a900460ff1660ff1683613e259190615b75565b613e2f9190615b08565b82613e3a9190615c03565b9050600860009054906101000a900473ffffffffffffffffffffffffffffffffffffffff1673ffffffffffffffffffffffffffffffffffffffff1663a9059cbb33836040518363ffffffff1660e01b8152600401613e99929190615299565b602060405180830381600087803b158015613eb357600080fd5b505af1158015613ec7573d6000803e3d6000fd5b505050506040513d601f19601f82011682018060405250810190613eeb91906147b8565b503373ffffffffffffffffffffffffffffffffffffffff167f11acec8ea502f5c875e157dd1a17389990a9350450464db61ef112521c0d87518284604051613f3492919061584c565b60405180910390a25050565b613f4b8484846137ca565b613f57848484846142e7565b613f96576040517f08c379a0000000000000000000000000000000000000000000000000000000008152600401613f8d9061540d565b60405180910390fd5b50505050565b606060405180602001604052806000815250905090565b60606000821415613ffb576040518060400160405280600181526020017f3000000000000000000000000000000000000000000000000000000000000000815250905061410f565b600082905060005b6000821461402d57808061401690615dd5565b915050600a826140269190615b08565b9150614003565b60008167ffffffffffffffff81111561404957614048615f70565b5b6040519080825280601f01601f19166020018201604052801561407b5781602001600182028036833780820191505090505b5090505b60008514614108576001826140949190615c03565b9150600a856140a39190615e83565b60306140af9190615a4a565b60f81b8183815181106140c5576140c4615f41565b5b60200101907effffffffffffffffffffffffffffffffffffffffffffffffffffffffffffff1916908160001a905350600a856141019190615b08565b945061407f565b8093505050505b919050565b600073ffffffffffffffffffffffffffffffffffffffff168273ffffffffffffffffffffffffffffffffffffffff161415614184576040517f08c379a000000000000000000000000000000000000000000000000000000000815260040161417b906155ed565b60405180910390fd5b61418d816135bf565b156141cd576040517f08c379a00000000000000000000000000000000000000000000000000000000081526004016141c49061546d565b60405180910390fd5b6141d9600083836142e2565b6001600360008473ffffffffffffffffffffffffffffffffffffffff1673ffffffffffffffffffffffffffffffffffffffff16815260200190815260200160002060008282546142299190615a4a565b92505081905550816002600083815260200190815260200160002060006101000a81548173ffffffffffffffffffffffffffffffffffffffff021916908373ffffffffffffffffffffffffffffffffffffffff160217905550808273ffffffffffffffffffffffffffffffffffffffff16600073ffffffffffffffffffffffffffffffffffffffff167fddf252ad1be2c89b69c2b068fc378daa952ba7f163c4a11628f55a4df523b3ef60405160405180910390a45050565b505050565b60006143088473ffffffffffffffffffffffffffffffffffffffff1661447e565b15614471578373ffffffffffffffffffffffffffffffffffffffff1663150b7a0261433161362b565b8786866040518563ffffffff1660e01b8152600401614353949392919061524d565b602060405180830381600087803b15801561436d57600080fd5b505af192505050801561439e57506040513d601f19601f8201168201806040525081019061439b9190614812565b60015b614421573d80600081146143ce576040519150601f19603f3d011682016040523d82523d6000602084013e6143d3565b606091505b50600081511415614419576040517f08c379a00000000000000000000000000000000000000000000000000000000081526004016144109061540d565b60405180910390fd5b805181602001fd5b63150b7a0260e01b7bffffffffffffffffffffffffffffffffffffffffffffffffffffffff1916817bffffffffffffffffffffffffffffffffffffffffffffffffffffffff191614915050614476565b600190505b949350505050565b600080823b905060008111915050919050565b6040518060400160405280600290602082028036833780820191505090505090565b60006144c66144c184615923565b6158fe565b9050828152602081018484840111156144e2576144e1615fa4565b5b6144ed848285615d30565b509392505050565b60008135905061450481616a1f565b92915050565b60008135905061451981616a36565b92915050565b60008151905061452e81616a36565b92915050565b60008135905061454381616a4d565b92915050565b60008151905061455881616a4d565b92915050565b600082601f83011261457357614572615f9f565b5b81356145838482602086016144b3565b91505092915050565b60008135905061459b81616a64565b92915050565b6000813590506145b081616a7b565b92915050565b6000815190506145c581616a7b565b92915050565b6000813590506145da81616a92565b92915050565b6000813590506145ef81616aa9565b92915050565b60006020828403121561460b5761460a615fae565b5b6000614619848285016144f5565b91505092915050565b6000806040838503121561463957614638615fae565b5b6000614647858286016144f5565b9250506020614658858286016144f5565b9150509250929050565b60008060006060848603121561467b5761467a615fae565b5b6000614689868287016144f5565b935050602061469a868287016144f5565b92505060406146ab868287016145a1565b9150509250925092565b600080600080608085870312156146cf576146ce615fae565b5b60006146dd878288016144f5565b94505060206146ee878288016144f5565b93505060406146ff878288016145a1565b925050606085013567ffffffffffffffff8111156147205761471f615fa9565b5b61472c8782880161455e565b91505092959194509250565b6000806040838503121561474f5761474e615fae565b5b600061475d858286016144f5565b925050602061476e8582860161450a565b9150509250929050565b6000806040838503121561478f5761478e615fae565b5b600061479d858286016144f5565b92505060206147ae858286016145a1565b9150509250929050565b6000602082840312156147ce576147cd615fae565b5b60006147dc8482850161451f565b91505092915050565b6000602082840312156147fb576147fa615fae565b5b600061480984828501614534565b91505092915050565b60006020828403121561482857614827615fae565b5b600061483684828501614549565b91505092915050565b60006020828403121561485557614854615fae565b5b60006148638482850161458c565b91505092915050565b60006020828403121561488257614881615fae565b5b6000614890848285016145a1565b91505092915050565b6000602082840312156148af576148ae615fae565b5b60006148bd848285016145b6565b91505092915050565b6000806000606084860312156148df576148de615fae565b5b60006148ed868287016145a1565b93505060206148fe868287016145cb565b925050604061490f868287016145e0565b9150509250925092565b600080604083850312156149305761492f615fae565b5b600061493e858286016145a1565b925050602061494f858286016145e0565b9150509250929050565b60006020828403121561496f5761496e615fae565b5b600061497d848285016145cb565b91505092915050565b60006149928383615098565b60208301905092915050565b6149a781615c37565b82525050565b6149b681615983565b6149c081846159c9565b92506149cb82615954565b8060005b838110156149fc5781516149e38782614986565b96506149ee836159af565b9250506001810190506149cf565b505050505050565b6000614a0f8261598e565b614a1981856159d4565b9350614a248361595e565b8060005b83811015614a55578151614a3c8882614986565b9750614a47836159bc565b925050600181019050614a28565b5085935050505092915050565b614a6b81615c49565b82525050565b6000614a7c82615999565b614a8681856159e5565b9350614a96818560208601615d3f565b614a9f81615fb3565b840191505092915050565b614ab381615cd6565b82525050565b614ac281615ce8565b82525050565b614ad181615cfa565b82525050565b6000614ae2826159a4565b614aec81856159f6565b9350614afc818560208601615d3f565b614b0581615fb3565b840191505092915050565b6000614b1b826159a4565b614b258185615a07565b9350614b35818560208601615d3f565b80840191505092915050565b60008154614b4e81615d72565b614b588186615a07565b94506001821660008114614b735760018114614b8457614bb7565b60ff19831686528186019350614bb7565b614b8d8561596e565b60005b83811015614baf57815481890152600182019150602081019050614b90565b838801955050505b50505092915050565b6000614bcd601e836159f6565b9150614bd882615fc4565b602082019050919050565b6000614bf06045836159f6565b9150614bfb82615fed565b606082019050919050565b6000614c136023836159f6565b9150614c1e82616062565b604082019050919050565b6000614c366032836159f6565b9150614c41826160b1565b604082019050919050565b6000614c596032836159f6565b9150614c6482616100565b604082019050919050565b6000614c7c6008836159f6565b9150614c878261614f565b602082019050919050565b6000614c9f6030836159f6565b9150614caa82616178565b604082019050919050565b6000614cc2601c836159f6565b9150614ccd826161c7565b602082019050919050565b6000614ce56032836159f6565b9150614cf0826161f0565b604082019050919050565b6000614d086024836159f6565b9150614d138261623f565b604082019050919050565b6000614d2b6019836159f6565b9150614d368261628e565b602082019050919050565b6000614d4e6025836159f6565b9150614d59826162b7565b604082019050919050565b6000614d71602c836159f6565b9150614d7c82616306565b604082019050919050565b6000614d946032836159f6565b9150614d9f82616355565b604082019050919050565b6000614db76027836159f6565b9150614dc2826163a4565b604082019050919050565b6000614dda6038836159f6565b9150614de5826163f3565b604082019050919050565b6000614dfd6029836159f6565b9150614e0882616442565b604082019050919050565b6000614e20602a836159f6565b9150614e2b82616491565b604082019050919050565b6000614e436029836159f6565b9150614e4e826164e0565b604082019050919050565b6000614e666020836159f6565b9150614e718261652f565b602082019050919050565b6000614e89602c836159f6565b9150614e9482616558565b604082019050919050565b6000614eac6032836159f6565b9150614eb7826165a7565b604082019050919050565b6000614ecf603d836159f6565b9150614eda826165f6565b604082019050919050565b6000614ef26036836159f6565b9150614efd82616645565b604082019050919050565b6000614f156029836159f6565b9150614f2082616694565b604082019050919050565b6000614f38602f836159f6565b9150614f43826166e3565b604082019050919050565b6000614f5b6016836159f6565b9150614f6682616732565b602082019050919050565b6000614f7e6021836159f6565b9150614f898261675b565b604082019050919050565b6000614fa1601c836159f6565b9150614fac826167aa565b602082019050919050565b6000614fc46031836159f6565b9150614fcf826167d3565b604082019050919050565b6000614fe7602f836159f6565b9150614ff282616822565b604082019050919050565b600061500a6022836159f6565b915061501582616871565b604082019050919050565b600061502d6021836159f6565b9150615038826168c0565b604082019050919050565b60006150506026836159f6565b915061505b8261690f565b604082019050919050565b60006150736097836159f6565b915061507e8261695e565b60a082019050919050565b61509281615c81565b82525050565b6150a181615caf565b82525050565b6150b081615caf565b82525050565b6150c76150c282615caf565b615e48565b82525050565b6150d681615cc9565b82525050565b60006150e88285614b10565b91506150f48284614b10565b91508190509392505050565b600061510c8285614b41565b91506151188284614b10565b91508190509392505050565b600061513082856150b6565b60208201915061514082846150b6565b6020820191508190509392505050565b6000602082019050615165600083018461499e565b92915050565b600061016082019050615181600083018e61499e565b61518e602083018d61499e565b61519b604083018c615089565b6151a8606083018b615089565b6151b5608083018a6150a7565b6151c260a08301896150a7565b6151cf60c08301886150a7565b6151dc60e08301876150a7565b6151ea6101008301866150a7565b6151f86101208301856150a7565b615206610140830184614a62565b9c9b505050505050505050505050565b600060608201905061522b600083018661499e565b615238602083018561499e565b61524560408301846150a7565b949350505050565b6000608082019050615262600083018761499e565b61526f602083018661499e565b61527c60408301856150a7565b818103606083015261528e8184614a71565b905095945050505050565b60006040820190506152ae600083018561499e565b6152bb60208301846150a7565b9392505050565b60006040820190506152d760008301846149ad565b92915050565b600060208201905081810360008301526152f78184614a04565b905092915050565b60006020820190506153146000830184614a62565b92915050565b600060208201905061532f6000830184614aaa565b92915050565b600060208201905061534a6000830184614ab9565b92915050565b60006020820190506153656000830184614ac8565b92915050565b600060208201905081810360008301526153858184614ad7565b905092915050565b600060208201905081810360008301526153a681614bc0565b9050919050565b600060208201905081810360008301526153c681614be3565b9050919050565b600060208201905081810360008301526153e681614c06565b9050919050565b6000602082019050818103600083015261540681614c29565b9050919050565b6000602082019050818103600083015261542681614c4c565b9050919050565b6000602082019050818103600083015261544681614c6f565b9050919050565b6000602082019050818103600083015261546681614c92565b9050919050565b6000602082019050818103600083015261548681614cb5565b9050919050565b600060208201905081810360008301526154a681614cd8565b9050919050565b600060208201905081810360008301526154c681614cfb565b9050919050565b600060208201905081810360008301526154e681614d1e565b9050919050565b6000602082019050818103600083015261550681614d41565b9050919050565b6000602082019050818103600083015261552681614d64565b9050919050565b6000602082019050818103600083015261554681614d87565b9050919050565b6000602082019050818103600083015261556681614daa565b9050919050565b6000602082019050818103600083015261558681614dcd565b9050919050565b600060208201905081810360008301526155a681614df0565b9050919050565b600060208201905081810360008301526155c681614e13565b9050919050565b600060208201905081810360008301526155e681614e36565b9050919050565b6000602082019050818103600083015261560681614e59565b9050919050565b6000602082019050818103600083015261562681614e7c565b9050919050565b6000602082019050818103600083015261564681614e9f565b9050919050565b6000602082019050818103600083015261566681614ec2565b9050919050565b6000602082019050818103600083015261568681614ee5565b9050919050565b600060208201905081810360008301526156a681614f08565b9050919050565b600060208201905081810360008301526156c681614f2b565b9050919050565b600060208201905081810360008301526156e681614f4e565b9050919050565b6000602082019050818103600083015261570681614f71565b9050919050565b6000602082019050818103600083015261572681614f94565b9050919050565b6000602082019050818103600083015261574681614fb7565b9050919050565b6000602082019050818103600083015261576681614fda565b9050919050565b6000602082019050818103600083015261578681614ffd565b9050919050565b600060208201905081810360008301526157a681615020565b9050919050565b600060208201905081810360008301526157c681615043565b9050919050565b600060208201905081810360008301526157e681615066565b9050919050565b60006020820190506158026000830184615089565b92915050565b600060408201905061581d6000830185615089565b61582a6020830184615089565b9392505050565b600060208201905061584660008301846150a7565b92915050565b600060408201905061586160008301856150a7565b61586e60208301846150a7565b9392505050565b600060608201905061588a60008301866150a7565b61589760208301856150a7565b6158a46040830184614a62565b949350505050565b60006060820190506158c160008301866150a7565b6158ce60208301856150a7565b6158db60408301846150a7565b949350505050565b60006020820190506158f860008301846150cd565b92915050565b6000615908615919565b90506159148282615da4565b919050565b6000604051905090565b600067ffffffffffffffff82111561593e5761593d615f70565b5b61594782615fb3565b9050602081019050919050565b6000819050919050565b6000819050602082019050919050565b60008190508160005260206000209050919050565b600060029050919050565b600081519050919050565b600081519050919050565b600081519050919050565b6000602082019050919050565b6000602082019050919050565b600081905092915050565b600082825260208201905092915050565b600082825260208201905092915050565b600082825260208201905092915050565b600081905092915050565b6000615a1d82615c81565b9150615a2883615c81565b92508261ffff03821115615a3f57615a3e615eb4565b5b828201905092915050565b6000615a5582615caf565b9150615a6083615caf565b9250827fffffffffffffffffffffffffffffffffffffffffffffffffffffffffffffffff03821115615a9557615a94615eb4565b5b828201905092915050565b6000615aab82615cc9565b9150615ab683615cc9565b92508260ff03821115615acc57615acb615eb4565b5b828201905092915050565b6000615ae282615c81565b9150615aed83615c81565b925082615afd57615afc615ee3565b5b828204905092915050565b6000615b1382615caf565b9150615b1e83615caf565b925082615b2e57615b2d615ee3565b5b828204905092915050565b6000615b4482615c81565b9150615b4f83615c81565b92508161ffff0483118215151615615b6a57615b69615eb4565b5b828202905092915050565b6000615b8082615caf565b9150615b8b83615caf565b9250817fffffffffffffffffffffffffffffffffffffffffffffffffffffffffffffffff0483118215151615615bc457615bc3615eb4565b5b828202905092915050565b6000615bda82615c81565b9150615be583615c81565b925082821015615bf857615bf7615eb4565b5b828203905092915050565b6000615c0e82615caf565b9150615c1983615caf565b925082821015615c2c57615c2b615eb4565b5b828203905092915050565b6000615c4282615c8f565b9050919050565b60008115159050919050565b60007fffffffff0000000000000000000000000000000000000000000000000000000082169050919050565b600061ffff82169050919050565b600073ffffffffffffffffffffffffffffffffffffffff82169050919050565b6000819050919050565b600063ffffffff82169050919050565b600060ff82169050919050565b6000615ce182615d0c565b9050919050565b6000615cf382615d0c565b9050919050565b6000615d0582615d0c565b9050919050565b6000615d1782615d1e565b9050919050565b6000615d2982615c8f565b9050919050565b82818337600083830152505050565b60005b83811015615d5d578082015181840152602081019050615d42565b83811115615d6c576000848401525b50505050565b60006002820490506001821680615d8a57607f821691505b60208210811415615d9e57615d9d615f12565b5b50919050565b615dad82615fb3565b810181811067ffffffffffffffff82111715615dcc57615dcb615f70565b5b80604052505050565b6000615de082615caf565b91507fffffffffffffffffffffffffffffffffffffffffffffffffffffffffffffffff821415615e1357615e12615eb4565b5b600182019050919050565b6000615e2982615cc9565b915060ff821415615e3d57615e3c615eb4565b5b600182019050919050565b6000819050919050565b6000615e5d82615c81565b9150615e6883615c81565b925082615e7857615e77615ee3565b5b828206905092915050565b6000615e8e82615caf565b9150615e9983615caf565b925082615ea957615ea8615ee3565b5b828206905092915050565b7f4e487b7100000000000000000000000000000000000000000000000000000000600052601160045260246000fd5b7f4e487b7100000000000000000000000000000000000000000000000000000000600052601260045260246000fd5b7f4e487b7100000000000000000000000000000000000000000000000000000000600052602260045260246000fd5b7f4e487b7100000000000000000000000000000000000000000000000000000000600052603260045260246000fd5b7f4e487b7100000000000000000000000000000000000000000000000000000000600052604160045260246000fd5b600080fd5b600080fd5b600080fd5b600080fd5b6000601f19601f8301169050919050565b7f626f792c20646f6e27742061747461636b20796f757273656c6620706c7a0000600082015250565b7f796f75722061747461636b20636f6f6c646f776e206973206e6f7420646f776e60008201527f207965742e20706c656173652074727920616761696e20616674657220636f6f60208201527f6c646f776e000000000000000000000000000000000000000000000000000000604082015250565b7f75686f682c2074686520646566656e7365706f696e747320617265207a65726f60008201527f2e2e2e0000000000000000000000000000000000000000000000000000000000602082015250565b7f796f7520646f6e2774206861766520656e6f7567682073656564636f696e732160008201527f20627579206f7220747261646520736f6d650000000000000000000000000000602082015250565b7f4552433732313a207472616e7366657220746f206e6f6e20455243373231526560008201527f63656976657220696d706c656d656e7465720000000000000000000000000000602082015250565b7f666f6f6b206f6666000000000000000000000000000000000000000000000000600082015250565b7f796f75206861766520746f2073656e6420736f6d652045544820746f2067657460008201527f204b696e67646f6d53656564636f696e00000000000000000000000000000000602082015250565b7f4552433732313a20746f6b656e20616c7265616479206d696e74656400000000600082015250565b7f6f7468657220636f696e207479706573206e6f7420737570706f72746564207960008201527f65742c206d7573742062652030206f7220310000000000000000000000000000602082015250565b7f4552433732313a207472616e7366657220746f20746865207a65726f2061646460008201527f7265737300000000000000000000000000000000000000000000000000000000602082015250565b7f4552433732313a20617070726f766520746f2063616c6c657200000000000000600082015250565b7f7469746c65206964206e6f74207965742061737369676e65642c20676f20676560008201527f74206f6e65000000000000000000000000000000000000000000000000000000602082015250565b7f4552433732313a206f70657261746f7220717565727920666f72206e6f6e657860008201527f697374656e7420746f6b656e0000000000000000000000000000000000000000602082015250565b7f746172676574436f696e2068617320746f20626520303d61747461636b636f6960008201527f6e206f7220313d646566656e7365636f696e0000000000000000000000000000602082015250565b7f796f7520646f206e6f7420686176652074686174206d616e7920646566656e7360008201527f6520636f696e7300000000000000000000000000000000000000000000000000602082015250565b7f4552433732313a20617070726f76652063616c6c6572206973206e6f74206f7760008201527f6e6572206e6f7220617070726f76656420666f7220616c6c0000000000000000602082015250565b7f736f7272792c206f6e6c7920746865206f776e65722063616e2061747461636b60008201527f2068697320626f73730000000000000000000000000000000000000000000000602082015250565b7f4552433732313a2062616c616e636520717565727920666f7220746865207a6560008201527f726f206164647265737300000000000000000000000000000000000000000000602082015250565b7f4552433732313a206f776e657220717565727920666f72206e6f6e657869737460008201527f656e7420746f6b656e0000000000000000000000000000000000000000000000602082015250565b7f4552433732313a206d696e7420746f20746865207a65726f2061646472657373600082015250565b7f4552433732313a20617070726f76656420717565727920666f72206e6f6e657860008201527f697374656e7420746f6b656e0000000000000000000000000000000000000000602082015250565b7f746f2075736520746869732066756e6374696f6e20796f75206e65656420612060008201527f7469746c652120676f20627579206f6e65210000000000000000000000000000602082015250565b7f796f75206e65656420746f2063616c6c20736574417070726f76616c466f724160008201527f6c6c20696e206f7264657220746f20706c617920612067616d652e2e2e000000602082015250565b7f72657665727365206974656d2066756e6374696f6e2e2e2e206974656d206e6f60008201527f7420666f756e6420696e20616464726573733269647300000000000000000000602082015250565b7f4552433732313a207472616e73666572206f6620746f6b656e2074686174206960008201527f73206e6f74206f776e0000000000000000000000000000000000000000000000602082015250565b7f4552433732314d657461646174613a2055524920717565727920666f72206e6f60008201527f6e6578697374656e7420746f6b656e0000000000000000000000000000000000602082015250565b7f6964206973206e6f74207965742061737369676e656400000000000000000000600082015250565b7f4552433732313a20617070726f76616c20746f2063757272656e74206f776e6560008201527f7200000000000000000000000000000000000000000000000000000000000000602082015250565b7f7469746c65206964206973206e6f74207965742061737369676e656400000000600082015250565b7f4552433732313a207472616e736665722063616c6c6572206973206e6f74206f60008201527f776e6572206e6f7220617070726f766564000000000000000000000000000000602082015250565b7f75686f682c2073727920692063616e27742073656e6420616e79206d6f72652060008201527f4b696e67646f6d53656564636f696e0000000000000000000000000000000000602082015250565b7f75686f682c207468652061747461636b706f696e747320617265207a65726f2e60008201527f2e2e000000000000000000000000000000000000000000000000000000000000602082015250565b7f75686f682c206e6f207469746c657320617661696c61626c6520616e796d6f7260008201527f6500000000000000000000000000000000000000000000000000000000000000602082015250565b7f796f7520646f206e6f7420686176652074686174206d616e792061747461636b60008201527f20636f696e730000000000000000000000000000000000000000000000000000602082015250565b7f796f757220626f7373206e6565647320746f20736574417070726f766564466f60008201527f72416c6c20746f207468697320636f6e74726163742c206f746865727769736560208201527f20746865206d656368616e69736d20646f6573206e6f7420776f726b2e20486560408201527f206f6e6c79206561726e73206d6f6e6579206966207468617420617070726f7660608201527f616c20686173206265656e207365742074686f7567682e000000000000000000608082015250565b616a2881615c37565b8114616a3357600080fd5b50565b616a3f81615c49565b8114616a4a57600080fd5b50565b616a5681615c55565b8114616a6157600080fd5b50565b616a6d81615c81565b8114616a7857600080fd5b50565b616a8481615caf565b8114616a8f57600080fd5b50565b616a9b81615cb9565b8114616aa657600080fd5b50565b616ab281615cc9565b8114616abd57600080fd5b5056fea26469706673582212200346a39c6b78ec0b5d78663dece8e3fdeaa6f52a7ccbdc67ec97bd45c2f030cc64736f6c6343000807003368747470733a2f2f7777772e6b696e67646f6d63727970746f2e636f6d2f7469746c65732f",
			"opcodes": "PUSH1 0x80 PUSH1 0x40 MSTORE PUSH1 0x64 PUSH1 0x6 PUSH1 0x0 PUSH2 0x100 EXP DUP2 SLOAD DUP2 PUSH1 0xFF MUL NOT AND SWAP1 DUP4 PUSH1 0xFF AND MUL OR SWAP1 SSTORE POP PUSH1 0xA PUSH1 0x6 PUSH1 0x1 PUSH2 0x100 EXP DUP2 SLOAD DUP2 PUSH1 0xFF MUL NOT AND SWAP1 DUP4 PUSH1 0xFF AND MUL OR SWAP1 SSTORE POP PUSH1 0x8 PUSH1 0x6 PUSH1 0x2 PUSH2 0x100 EXP DUP2 SLOAD DUP2 PUSH1 0xFF MUL NOT AND SWAP1 DUP4 PUSH1 0xFF AND MUL OR SWAP1 SSTORE POP PUSH1 0xA PUSH1 0x6 PUSH1 0x3 PUSH2 0x100 EXP DUP2 SLOAD DUP2 PUSH1 0xFF MUL NOT AND SWAP1 DUP4 PUSH1 0xFF AND MUL OR SWAP1 SSTORE POP PUSH1 0x3C PUSH1 0x7 SSTORE PUSH1 0x3C PUSH1 0xD SSTORE PUSH1 0x40 MLOAD DUP1 PUSH1 0x60 ADD PUSH1 0x40 MSTORE DUP1 PUSH1 0x25 DUP2 MSTORE PUSH1 0x20 ADD PUSH3 0x7057 PUSH1 0x25 SWAP2 CODECOPY PUSH1 0xE SWAP1 DUP1 MLOAD SWAP1 PUSH1 0x20 ADD SWAP1 PUSH3 0xAF SWAP3 SWAP2 SWAP1 PUSH3 0x2D8 JUMP JUMPDEST POP CALLVALUE DUP1 ISZERO PUSH3 0xBD JUMPI PUSH1 0x0 DUP1 REVERT JUMPDEST POP PUSH1 0x40 MLOAD PUSH3 0x707C CODESIZE SUB DUP1 PUSH3 0x707C DUP4 CODECOPY DUP2 DUP2 ADD PUSH1 0x40 MSTORE DUP2 ADD SWAP1 PUSH3 0xE3 SWAP2 SWAP1 PUSH3 0x3CD JUMP JUMPDEST DUP3 DUP3 DUP3 DUP3 DUP3 DUP3 PUSH1 0x40 MLOAD DUP1 PUSH1 0x40 ADD PUSH1 0x40 MSTORE DUP1 PUSH1 0xE DUP2 MSTORE PUSH1 0x20 ADD PUSH32 0x4B696E67646F6D205469746C6573000000000000000000000000000000000000 DUP2 MSTORE POP PUSH1 0x40 MLOAD DUP1 PUSH1 0x40 ADD PUSH1 0x40 MSTORE DUP1 PUSH1 0x3 DUP2 MSTORE PUSH1 0x20 ADD PUSH32 0x4B47440000000000000000000000000000000000000000000000000000000000 DUP2 MSTORE POP DUP2 PUSH1 0x0 SWAP1 DUP1 MLOAD SWAP1 PUSH1 0x20 ADD SWAP1 PUSH3 0x16D SWAP3 SWAP2 SWAP1 PUSH3 0x2D8 JUMP JUMPDEST POP DUP1 PUSH1 0x1 SWAP1 DUP1 MLOAD SWAP1 PUSH1 0x20 ADD SWAP1 PUSH3 0x186 SWAP3 SWAP2 SWAP1 PUSH3 0x2D8 JUMP JUMPDEST POP POP POP DUP3 PUSH1 0x8 PUSH1 0x0 PUSH2 0x100 EXP DUP2 SLOAD DUP2 PUSH20 0xFFFFFFFFFFFFFFFFFFFFFFFFFFFFFFFFFFFFFFFF MUL NOT AND SWAP1 DUP4 PUSH20 0xFFFFFFFFFFFFFFFFFFFFFFFFFFFFFFFFFFFFFFFF AND MUL OR SWAP1 SSTORE POP DUP2 PUSH1 0x9 PUSH1 0x0 PUSH2 0x100 EXP DUP2 SLOAD DUP2 PUSH20 0xFFFFFFFFFFFFFFFFFFFFFFFFFFFFFFFFFFFFFFFF MUL NOT AND SWAP1 DUP4 PUSH20 0xFFFFFFFFFFFFFFFFFFFFFFFFFFFFFFFFFFFFFFFF AND MUL OR SWAP1 SSTORE POP DUP1 PUSH1 0xA PUSH1 0x0 PUSH2 0x100 EXP DUP2 SLOAD DUP2 PUSH20 0xFFFFFFFFFFFFFFFFFFFFFFFFFFFFFFFFFFFFFFFF MUL NOT AND SWAP1 DUP4 PUSH20 0xFFFFFFFFFFFFFFFFFFFFFFFFFFFFFFFFFFFFFFFF AND MUL OR SWAP1 SSTORE POP POP POP POP PUSH3 0x25F PUSH3 0x2D0 PUSH1 0x20 SHL PUSH1 0x20 SHR JUMP JUMPDEST PUSH1 0xC PUSH1 0x0 PUSH2 0x100 EXP DUP2 SLOAD DUP2 PUSH20 0xFFFFFFFFFFFFFFFFFFFFFFFFFFFFFFFFFFFFFFFF MUL NOT AND SWAP1 DUP4 PUSH20 0xFFFFFFFFFFFFFFFFFFFFFFFFFFFFFFFFFFFFFFFF AND MUL OR SWAP1 SSTORE POP PUSH1 0x0 PUSH2 0x7540 PUSH1 0x0 PUSH2 0x100 EXP DUP2 SLOAD DUP2 PUSH1 0xFF MUL NOT AND SWAP1 DUP4 PUSH1 0xFF AND MUL OR SWAP1 SSTORE POP POP POP POP TIMESTAMP PUSH2 0x7542 DUP2 SWAP1 SSTORE POP POP POP POP PUSH3 0x551 JUMP JUMPDEST PUSH1 0x0 CALLER SWAP1 POP SWAP1 JUMP JUMPDEST DUP3 DUP1 SLOAD PUSH3 0x2E6 SWAP1 PUSH3 0x499 JUMP JUMPDEST SWAP1 PUSH1 0x0 MSTORE PUSH1 0x20 PUSH1 0x0 KECCAK256 SWAP1 PUSH1 0x1F ADD PUSH1 0x20 SWAP1 DIV DUP2 ADD SWAP3 DUP3 PUSH3 0x30A JUMPI PUSH1 0x0 DUP6 SSTORE PUSH3 0x356 JUMP JUMPDEST DUP3 PUSH1 0x1F LT PUSH3 0x325 JUMPI DUP1 MLOAD PUSH1 0xFF NOT AND DUP4 DUP1 ADD OR DUP6 SSTORE PUSH3 0x356 JUMP JUMPDEST DUP3 DUP1 ADD PUSH1 0x1 ADD DUP6 SSTORE DUP3 ISZERO PUSH3 0x356 JUMPI SWAP2 DUP3 ADD JUMPDEST DUP3 DUP2 GT ISZERO PUSH3 0x355 JUMPI DUP3 MLOAD DUP3 SSTORE SWAP2 PUSH1 0x20 ADD SWAP2 SWAP1 PUSH1 0x1 ADD SWAP1 PUSH3 0x338 JUMP JUMPDEST JUMPDEST POP SWAP1 POP PUSH3 0x365 SWAP2 SWAP1 PUSH3 0x369 JUMP JUMPDEST POP SWAP1 JUMP JUMPDEST JUMPDEST DUP1 DUP3 GT ISZERO PUSH3 0x384 JUMPI PUSH1 0x0 DUP2 PUSH1 0x0 SWAP1 SSTORE POP PUSH1 0x1 ADD PUSH3 0x36A JUMP JUMPDEST POP SWAP1 JUMP JUMPDEST PUSH1 0x0 DUP2 MLOAD SWAP1 POP PUSH3 0x399 DUP2 PUSH3 0x503 JUMP JUMPDEST SWAP3 SWAP2 POP POP JUMP JUMPDEST PUSH1 0x0 DUP2 MLOAD SWAP1 POP PUSH3 0x3B0 DUP2 PUSH3 0x51D JUMP JUMPDEST SWAP3 SWAP2 POP POP JUMP JUMPDEST PUSH1 0x0 DUP2 MLOAD SWAP1 POP PUSH3 0x3C7 DUP2 PUSH3 0x537 JUMP JUMPDEST SWAP3 SWAP2 POP POP JUMP JUMPDEST PUSH1 0x0 DUP1 PUSH1 0x0 PUSH1 0x60 DUP5 DUP7 SUB SLT ISZERO PUSH3 0x3E9 JUMPI PUSH3 0x3E8 PUSH3 0x4FE JUMP JUMPDEST JUMPDEST PUSH1 0x0 PUSH3 0x3F9 DUP7 DUP3 DUP8 ADD PUSH3 0x3B6 JUMP JUMPDEST SWAP4 POP POP PUSH1 0x20 PUSH3 0x40C DUP7 DUP3 DUP8 ADD PUSH3 0x388 JUMP JUMPDEST SWAP3 POP POP PUSH1 0x40 PUSH3 0x41F DUP7 DUP3 DUP8 ADD PUSH3 0x39F JUMP JUMPDEST SWAP2 POP POP SWAP3 POP SWAP3 POP SWAP3 JUMP JUMPDEST PUSH1 0x0 PUSH3 0x436 DUP3 PUSH3 0x479 JUMP JUMPDEST SWAP1 POP SWAP2 SWAP1 POP JUMP JUMPDEST PUSH1 0x0 PUSH3 0x44A DUP3 PUSH3 0x429 JUMP JUMPDEST SWAP1 POP SWAP2 SWAP1 POP JUMP JUMPDEST PUSH1 0x0 PUSH3 0x45E DUP3 PUSH3 0x429 JUMP JUMPDEST SWAP1 POP SWAP2 SWAP1 POP JUMP JUMPDEST PUSH1 0x0 PUSH3 0x472 DUP3 PUSH3 0x429 JUMP JUMPDEST SWAP1 POP SWAP2 SWAP1 POP JUMP JUMPDEST PUSH1 0x0 PUSH20 0xFFFFFFFFFFFFFFFFFFFFFFFFFFFFFFFFFFFFFFFF DUP3 AND SWAP1 POP SWAP2 SWAP1 POP JUMP JUMPDEST PUSH1 0x0 PUSH1 0x2 DUP3 DIV SWAP1 POP PUSH1 0x1 DUP3 AND DUP1 PUSH3 0x4B2 JUMPI PUSH1 0x7F DUP3 AND SWAP2 POP JUMPDEST PUSH1 0x20 DUP3 LT DUP2 EQ ISZERO PUSH3 0x4C9 JUMPI PUSH3 0x4C8 PUSH3 0x4CF JUMP JUMPDEST JUMPDEST POP SWAP2 SWAP1 POP JUMP JUMPDEST PUSH32 0x4E487B7100000000000000000000000000000000000000000000000000000000 PUSH1 0x0 MSTORE PUSH1 0x22 PUSH1 0x4 MSTORE PUSH1 0x24 PUSH1 0x0 REVERT JUMPDEST PUSH1 0x0 DUP1 REVERT JUMPDEST PUSH3 0x50E DUP2 PUSH3 0x43D JUMP JUMPDEST DUP2 EQ PUSH3 0x51A JUMPI PUSH1 0x0 DUP1 REVERT JUMPDEST POP JUMP JUMPDEST PUSH3 0x528 DUP2 PUSH3 0x451 JUMP JUMPDEST DUP2 EQ PUSH3 0x534 JUMPI PUSH1 0x0 DUP1 REVERT JUMPDEST POP JUMP JUMPDEST PUSH3 0x542 DUP2 PUSH3 0x465 JUMP JUMPDEST DUP2 EQ PUSH3 0x54E JUMPI PUSH1 0x0 DUP1 REVERT JUMPDEST POP JUMP JUMPDEST PUSH2 0x6AF6 DUP1 PUSH3 0x561 PUSH1 0x0 CODECOPY PUSH1 0x0 RETURN INVALID PUSH1 0x80 PUSH1 0x40 MSTORE PUSH1 0x4 CALLDATASIZE LT PUSH2 0x272 JUMPI PUSH1 0x0 CALLDATALOAD PUSH1 0xE0 SHR DUP1 PUSH4 0x6914DB60 GT PUSH2 0x14F JUMPI DUP1 PUSH4 0xC03D5B47 GT PUSH2 0xC1 JUMPI DUP1 PUSH4 0xE046670B GT PUSH2 0x7A JUMPI DUP1 PUSH4 0xE046670B EQ PUSH2 0x9C0 JUMPI DUP1 PUSH4 0xE73961F5 EQ PUSH2 0x9DE JUMPI DUP1 PUSH4 0xE985E9C5 EQ PUSH2 0xA09 JUMPI DUP1 PUSH4 0xF08B7B73 EQ PUSH2 0xA46 JUMPI DUP1 PUSH4 0xF2FB2120 EQ PUSH2 0xA83 JUMPI DUP1 PUSH4 0xFA4FACDB EQ PUSH2 0xAC0 JUMPI PUSH2 0x272 JUMP JUMPDEST DUP1 PUSH4 0xC03D5B47 EQ PUSH2 0x89A JUMPI DUP1 PUSH4 0xC669B710 EQ PUSH2 0x8C5 JUMPI DUP1 PUSH4 0xC6A3550F EQ PUSH2 0x8F0 JUMPI DUP1 PUSH4 0xC87B56DD EQ PUSH2 0x92D JUMPI DUP1 PUSH4 0xD4637DDB EQ PUSH2 0x96A JUMPI DUP1 PUSH4 0xD534D636 EQ PUSH2 0x995 JUMPI PUSH2 0x272 JUMP JUMPDEST DUP1 PUSH4 0x84505E6A GT PUSH2 0x113 JUMPI DUP1 PUSH4 0x84505E6A EQ PUSH2 0x7B0 JUMPI DUP1 PUSH4 0x8ED955B9 EQ PUSH2 0x7DB JUMPI DUP1 PUSH4 0x900294BE EQ PUSH2 0x7F2 JUMPI DUP1 PUSH4 0x95D89B41 EQ PUSH2 0x81D JUMPI DUP1 PUSH4 0xA22CB465 EQ PUSH2 0x848 JUMPI DUP1 PUSH4 0xB88D4FDE EQ PUSH2 0x871 JUMPI PUSH2 0x272 JUMP JUMPDEST DUP1 PUSH4 0x6914DB60 EQ PUSH2 0x6A3 JUMPI DUP1 PUSH4 0x6A7A2FA3 EQ PUSH2 0x6E0 JUMPI DUP1 PUSH4 0x70A08231 EQ PUSH2 0x70B JUMPI DUP1 PUSH4 0x7758429F EQ PUSH2 0x748 JUMPI DUP1 PUSH4 0x7C62539A EQ PUSH2 0x785 JUMPI PUSH2 0x272 JUMP JUMPDEST DUP1 PUSH4 0x2756985C GT PUSH2 0x1E8 JUMPI DUP1 PUSH4 0x429C3EDF GT PUSH2 0x1AC JUMPI DUP1 PUSH4 0x429C3EDF EQ PUSH2 0x56C JUMPI DUP1 PUSH4 0x45405F54 EQ PUSH2 0x595 JUMPI DUP1 PUSH4 0x5053F6B8 EQ PUSH2 0x5BE JUMPI DUP1 PUSH4 0x5BCABF04 EQ PUSH2 0x5FD JUMPI DUP1 PUSH4 0x627CE3B8 EQ PUSH2 0x628 JUMPI DUP1 PUSH4 0x6352211E EQ PUSH2 0x666 JUMPI PUSH2 0x272 JUMP JUMPDEST DUP1 PUSH4 0x2756985C EQ PUSH2 0x487 JUMPI DUP1 PUSH4 0x2C067D6C EQ PUSH2 0x4C4 JUMPI DUP1 PUSH4 0x3BA0B9A9 EQ PUSH2 0x4ED JUMPI DUP1 PUSH4 0x411EE0D0 EQ PUSH2 0x518 JUMPI DUP1 PUSH4 0x42842E0E EQ PUSH2 0x543 JUMPI PUSH2 0x272 JUMP JUMPDEST DUP1 PUSH4 0x13245C95 GT PUSH2 0x23A JUMPI DUP1 PUSH4 0x13245C95 EQ PUSH2 0x34F JUMPI DUP1 PUSH4 0x18160DDD EQ PUSH2 0x38C JUMPI DUP1 PUSH4 0x1A90DFE0 EQ PUSH2 0x3B7 JUMPI DUP1 PUSH4 0x1B4801CC EQ PUSH2 0x3E2 JUMPI DUP1 PUSH4 0x1CF95ED6 EQ PUSH2 0x41F JUMPI DUP1 PUSH4 0x23B872DD EQ PUSH2 0x45E JUMPI PUSH2 0x272 JUMP JUMPDEST DUP1 PUSH4 0x1FFC9A7 EQ PUSH2 0x277 JUMPI DUP1 PUSH4 0x6FDDE03 EQ PUSH2 0x2B4 JUMPI DUP1 PUSH4 0x81812FC EQ PUSH2 0x2DF JUMPI DUP1 PUSH4 0x95EA7B3 EQ PUSH2 0x31C JUMPI DUP1 PUSH4 0x10F7E4ED EQ PUSH2 0x345 JUMPI JUMPDEST PUSH1 0x0 DUP1 REVERT JUMPDEST CALLVALUE DUP1 ISZERO PUSH2 0x283 JUMPI PUSH1 0x0 DUP1 REVERT JUMPDEST POP PUSH2 0x29E PUSH1 0x4 DUP1 CALLDATASIZE SUB DUP2 ADD SWAP1 PUSH2 0x299 SWAP2 SWAP1 PUSH2 0x47E5 JUMP JUMPDEST PUSH2 0xAEB JUMP JUMPDEST PUSH1 0x40 MLOAD PUSH2 0x2AB SWAP2 SWAP1 PUSH2 0x52FF JUMP JUMPDEST PUSH1 0x40 MLOAD DUP1 SWAP2 SUB SWAP1 RETURN JUMPDEST CALLVALUE DUP1 ISZERO PUSH2 0x2C0 JUMPI PUSH1 0x0 DUP1 REVERT JUMPDEST POP PUSH2 0x2C9 PUSH2 0xBCD JUMP JUMPDEST PUSH1 0x40 MLOAD PUSH2 0x2D6 SWAP2 SWAP1 PUSH2 0x536B JUMP JUMPDEST PUSH1 0x40 MLOAD DUP1 SWAP2 SUB SWAP1 RETURN JUMPDEST CALLVALUE DUP1 ISZERO PUSH2 0x2EB JUMPI PUSH1 0x0 DUP1 REVERT JUMPDEST POP PUSH2 0x306 PUSH1 0x4 DUP1 CALLDATASIZE SUB DUP2 ADD SWAP1 PUSH2 0x301 SWAP2 SWAP1 PUSH2 0x486C JUMP JUMPDEST PUSH2 0xC5F JUMP JUMPDEST PUSH1 0x40 MLOAD PUSH2 0x313 SWAP2 SWAP1 PUSH2 0x5150 JUMP JUMPDEST PUSH1 0x40 MLOAD DUP1 SWAP2 SUB SWAP1 RETURN JUMPDEST CALLVALUE DUP1 ISZERO PUSH2 0x328 JUMPI PUSH1 0x0 DUP1 REVERT JUMPDEST POP PUSH2 0x343 PUSH1 0x4 DUP1 CALLDATASIZE SUB DUP2 ADD SWAP1 PUSH2 0x33E SWAP2 SWAP1 PUSH2 0x4778 JUMP JUMPDEST PUSH2 0xCE4 JUMP JUMPDEST STOP JUMPDEST PUSH2 0x34D PUSH2 0xDFC JUMP JUMPDEST STOP JUMPDEST CALLVALUE DUP1 ISZERO PUSH2 0x35B JUMPI PUSH1 0x0 DUP1 REVERT JUMPDEST POP PUSH2 0x376 PUSH1 0x4 DUP1 CALLDATASIZE SUB DUP2 ADD SWAP1 PUSH2 0x371 SWAP2 SWAP1 PUSH2 0x45F5 JUMP JUMPDEST PUSH2 0x10B8 JUMP JUMPDEST PUSH1 0x40 MLOAD PUSH2 0x383 SWAP2 SWAP1 PUSH2 0x52DD JUMP JUMPDEST PUSH1 0x40 MLOAD DUP1 SWAP2 SUB SWAP1 RETURN JUMPDEST CALLVALUE DUP1 ISZERO PUSH2 0x398 JUMPI PUSH1 0x0 DUP1 REVERT JUMPDEST POP PUSH2 0x3A1 PUSH2 0x1150 JUMP JUMPDEST PUSH1 0x40 MLOAD PUSH2 0x3AE SWAP2 SWAP1 PUSH2 0x57ED JUMP JUMPDEST PUSH1 0x40 MLOAD DUP1 SWAP2 SUB SWAP1 RETURN JUMPDEST CALLVALUE DUP1 ISZERO PUSH2 0x3C3 JUMPI PUSH1 0x0 DUP1 REVERT JUMPDEST POP PUSH2 0x3CC PUSH2 0x1156 JUMP JUMPDEST PUSH1 0x40 MLOAD PUSH2 0x3D9 SWAP2 SWAP1 PUSH2 0x536B JUMP JUMPDEST PUSH1 0x40 MLOAD DUP1 SWAP2 SUB SWAP1 RETURN JUMPDEST CALLVALUE DUP1 ISZERO PUSH2 0x3EE JUMPI PUSH1 0x0 DUP1 REVERT JUMPDEST POP PUSH2 0x409 PUSH1 0x4 DUP1 CALLDATASIZE SUB DUP2 ADD SWAP1 PUSH2 0x404 SWAP2 SWAP1 PUSH2 0x45F5 JUMP JUMPDEST PUSH2 0x1193 JUMP JUMPDEST PUSH1 0x40 MLOAD PUSH2 0x416 SWAP2 SWAP1 PUSH2 0x52DD JUMP JUMPDEST PUSH1 0x40 MLOAD DUP1 SWAP2 SUB SWAP1 RETURN JUMPDEST CALLVALUE DUP1 ISZERO PUSH2 0x42B JUMPI PUSH1 0x0 DUP1 REVERT JUMPDEST POP PUSH2 0x446 PUSH1 0x4 DUP1 CALLDATASIZE SUB DUP2 ADD SWAP1 PUSH2 0x441 SWAP2 SWAP1 PUSH2 0x486C JUMP JUMPDEST PUSH2 0x12A6 JUMP JUMPDEST PUSH1 0x40 MLOAD PUSH2 0x455 SWAP4 SWAP3 SWAP2 SWAP1 PUSH2 0x58AC JUMP JUMPDEST PUSH1 0x40 MLOAD DUP1 SWAP2 SUB SWAP1 RETURN JUMPDEST CALLVALUE DUP1 ISZERO PUSH2 0x46A JUMPI PUSH1 0x0 DUP1 REVERT JUMPDEST POP PUSH2 0x485 PUSH1 0x4 DUP1 CALLDATASIZE SUB DUP2 ADD SWAP1 PUSH2 0x480 SWAP2 SWAP1 PUSH2 0x4662 JUMP JUMPDEST PUSH2 0x12D7 JUMP JUMPDEST STOP JUMPDEST CALLVALUE DUP1 ISZERO PUSH2 0x493 JUMPI PUSH1 0x0 DUP1 REVERT JUMPDEST POP PUSH2 0x4AE PUSH1 0x4 DUP1 CALLDATASIZE SUB DUP2 ADD SWAP1 PUSH2 0x4A9 SWAP2 SWAP1 PUSH2 0x486C JUMP JUMPDEST PUSH2 0x1337 JUMP JUMPDEST PUSH1 0x40 MLOAD PUSH2 0x4BB SWAP2 SWAP1 PUSH2 0x52FF JUMP JUMPDEST PUSH1 0x40 MLOAD DUP1 SWAP2 SUB SWAP1 RETURN JUMPDEST CALLVALUE DUP1 ISZERO PUSH2 0x4D0 JUMPI PUSH1 0x0 DUP1 REVERT JUMPDEST POP PUSH2 0x4EB PUSH1 0x4 DUP1 CALLDATASIZE SUB DUP2 ADD SWAP1 PUSH2 0x4E6 SWAP2 SWAP1 PUSH2 0x483F JUMP JUMPDEST PUSH2 0x1566 JUMP JUMPDEST STOP JUMPDEST CALLVALUE DUP1 ISZERO PUSH2 0x4F9 JUMPI PUSH1 0x0 DUP1 REVERT JUMPDEST POP PUSH2 0x502 PUSH2 0x18BB JUMP JUMPDEST PUSH1 0x40 MLOAD PUSH2 0x50F SWAP2 SWAP1 PUSH2 0x58E3 JUMP JUMPDEST PUSH1 0x40 MLOAD DUP1 SWAP2 SUB SWAP1 RETURN JUMPDEST CALLVALUE DUP1 ISZERO PUSH2 0x524 JUMPI PUSH1 0x0 DUP1 REVERT JUMPDEST POP PUSH2 0x52D PUSH2 0x18CE JUMP JUMPDEST PUSH1 0x40 MLOAD PUSH2 0x53A SWAP2 SWAP1 PUSH2 0x5335 JUMP JUMPDEST PUSH1 0x40 MLOAD DUP1 SWAP2 SUB SWAP1 RETURN JUMPDEST CALLVALUE DUP1 ISZERO PUSH2 0x54F JUMPI PUSH1 0x0 DUP1 REVERT JUMPDEST POP PUSH2 0x56A PUSH1 0x4 DUP1 CALLDATASIZE SUB DUP2 ADD SWAP1 PUSH2 0x565 SWAP2 SWAP1 PUSH2 0x4662 JUMP JUMPDEST PUSH2 0x18F4 JUMP JUMPDEST STOP JUMPDEST CALLVALUE DUP1 ISZERO PUSH2 0x578 JUMPI PUSH1 0x0 DUP1 REVERT JUMPDEST POP PUSH2 0x593 PUSH1 0x4 DUP1 CALLDATASIZE SUB DUP2 ADD SWAP1 PUSH2 0x58E SWAP2 SWAP1 PUSH2 0x4919 JUMP JUMPDEST PUSH2 0x1914 JUMP JUMPDEST STOP JUMPDEST CALLVALUE DUP1 ISZERO PUSH2 0x5A1 JUMPI PUSH1 0x0 DUP1 REVERT JUMPDEST POP PUSH2 0x5BC PUSH1 0x4 DUP1 CALLDATASIZE SUB DUP2 ADD SWAP1 PUSH2 0x5B7 SWAP2 SWAP1 PUSH2 0x48C6 JUMP JUMPDEST PUSH2 0x1E10 JUMP JUMPDEST STOP JUMPDEST CALLVALUE DUP1 ISZERO PUSH2 0x5CA JUMPI PUSH1 0x0 DUP1 REVERT JUMPDEST POP PUSH2 0x5E5 PUSH1 0x4 DUP1 CALLDATASIZE SUB DUP2 ADD SWAP1 PUSH2 0x5E0 SWAP2 SWAP1 PUSH2 0x4959 JUMP JUMPDEST PUSH2 0x22A0 JUMP JUMPDEST PUSH1 0x40 MLOAD PUSH2 0x5F4 SWAP4 SWAP3 SWAP2 SWAP1 PUSH2 0x5875 JUMP JUMPDEST PUSH1 0x40 MLOAD DUP1 SWAP2 SUB SWAP1 RETURN JUMPDEST CALLVALUE DUP1 ISZERO PUSH2 0x609 JUMPI PUSH1 0x0 DUP1 REVERT JUMPDEST POP PUSH2 0x612 PUSH2 0x236E JUMP JUMPDEST PUSH1 0x40 MLOAD PUSH2 0x61F SWAP2 SWAP1 PUSH2 0x536B JUMP JUMPDEST PUSH1 0x40 MLOAD DUP1 SWAP2 SUB SWAP1 RETURN JUMPDEST CALLVALUE DUP1 ISZERO PUSH2 0x634 JUMPI PUSH1 0x0 DUP1 REVERT JUMPDEST POP PUSH2 0x64F PUSH1 0x4 DUP1 CALLDATASIZE SUB DUP2 ADD SWAP1 PUSH2 0x64A SWAP2 SWAP1 PUSH2 0x483F JUMP JUMPDEST PUSH2 0x23FC JUMP JUMPDEST PUSH1 0x40 MLOAD PUSH2 0x65D SWAP3 SWAP2 SWAP1 PUSH2 0x5808 JUMP JUMPDEST PUSH1 0x40 MLOAD DUP1 SWAP2 SUB SWAP1 RETURN JUMPDEST CALLVALUE DUP1 ISZERO PUSH2 0x672 JUMPI PUSH1 0x0 DUP1 REVERT JUMPDEST POP PUSH2 0x68D PUSH1 0x4 DUP1 CALLDATASIZE SUB DUP2 ADD SWAP1 PUSH2 0x688 SWAP2 SWAP1 PUSH2 0x486C JUMP JUMPDEST PUSH2 0x2490 JUMP JUMPDEST PUSH1 0x40 MLOAD PUSH2 0x69A SWAP2 SWAP1 PUSH2 0x5150 JUMP JUMPDEST PUSH1 0x40 MLOAD DUP1 SWAP2 SUB SWAP1 RETURN JUMPDEST CALLVALUE DUP1 ISZERO PUSH2 0x6AF JUMPI PUSH1 0x0 DUP1 REVERT JUMPDEST POP PUSH2 0x6CA PUSH1 0x4 DUP1 CALLDATASIZE SUB DUP2 ADD SWAP1 PUSH2 0x6C5 SWAP2 SWAP1 PUSH2 0x486C JUMP JUMPDEST PUSH2 0x2542 JUMP JUMPDEST PUSH1 0x40 MLOAD PUSH2 0x6D7 SWAP2 SWAP1 PUSH2 0x536B JUMP JUMPDEST PUSH1 0x40 MLOAD DUP1 SWAP2 SUB SWAP1 RETURN JUMPDEST CALLVALUE DUP1 ISZERO PUSH2 0x6EC JUMPI PUSH1 0x0 DUP1 REVERT JUMPDEST POP PUSH2 0x6F5 PUSH2 0x2576 JUMP JUMPDEST PUSH1 0x40 MLOAD PUSH2 0x702 SWAP2 SWAP1 PUSH2 0x58E3 JUMP JUMPDEST PUSH1 0x40 MLOAD DUP1 SWAP2 SUB SWAP1 RETURN JUMPDEST CALLVALUE DUP1 ISZERO PUSH2 0x717 JUMPI PUSH1 0x0 DUP1 REVERT JUMPDEST POP PUSH2 0x732 PUSH1 0x4 DUP1 CALLDATASIZE SUB DUP2 ADD SWAP1 PUSH2 0x72D SWAP2 SWAP1 PUSH2 0x45F5 JUMP JUMPDEST PUSH2 0x2589 JUMP JUMPDEST PUSH1 0x40 MLOAD PUSH2 0x73F SWAP2 SWAP1 PUSH2 0x5831 JUMP JUMPDEST PUSH1 0x40 MLOAD DUP1 SWAP2 SUB SWAP1 RETURN JUMPDEST CALLVALUE DUP1 ISZERO PUSH2 0x754 JUMPI PUSH1 0x0 DUP1 REVERT JUMPDEST POP PUSH2 0x76F PUSH1 0x4 DUP1 CALLDATASIZE SUB DUP2 ADD SWAP1 PUSH2 0x76A SWAP2 SWAP1 PUSH2 0x483F JUMP JUMPDEST PUSH2 0x2641 JUMP JUMPDEST PUSH1 0x40 MLOAD PUSH2 0x77C SWAP2 SWAP1 PUSH2 0x57ED JUMP JUMPDEST PUSH1 0x40 MLOAD DUP1 SWAP2 SUB SWAP1 RETURN JUMPDEST CALLVALUE DUP1 ISZERO PUSH2 0x791 JUMPI PUSH1 0x0 DUP1 REVERT JUMPDEST POP PUSH2 0x79A PUSH2 0x270B JUMP JUMPDEST PUSH1 0x40 MLOAD PUSH2 0x7A7 SWAP2 SWAP1 PUSH2 0x531A JUMP JUMPDEST PUSH1 0x40 MLOAD DUP1 SWAP2 SUB SWAP1 RETURN JUMPDEST CALLVALUE DUP1 ISZERO PUSH2 0x7BC JUMPI PUSH1 0x0 DUP1 REVERT JUMPDEST POP PUSH2 0x7C5 PUSH2 0x2731 JUMP JUMPDEST PUSH1 0x40 MLOAD PUSH2 0x7D2 SWAP2 SWAP1 PUSH2 0x52C2 JUMP JUMPDEST PUSH1 0x40 MLOAD DUP1 SWAP2 SUB SWAP1 RETURN JUMPDEST CALLVALUE DUP1 ISZERO PUSH2 0x7E7 JUMPI PUSH1 0x0 DUP1 REVERT JUMPDEST POP PUSH2 0x7F0 PUSH2 0x2904 JUMP JUMPDEST STOP JUMPDEST CALLVALUE DUP1 ISZERO PUSH2 0x7FE JUMPI PUSH1 0x0 DUP1 REVERT JUMPDEST POP PUSH2 0x807 PUSH2 0x2D25 JUMP JUMPDEST PUSH1 0x40 MLOAD PUSH2 0x814 SWAP2 SWAP1 PUSH2 0x5350 JUMP JUMPDEST PUSH1 0x40 MLOAD DUP1 SWAP2 SUB SWAP1 RETURN JUMPDEST CALLVALUE DUP1 ISZERO PUSH2 0x829 JUMPI PUSH1 0x0 DUP1 REVERT JUMPDEST POP PUSH2 0x832 PUSH2 0x2D4B JUMP JUMPDEST PUSH1 0x40 MLOAD PUSH2 0x83F SWAP2 SWAP1 PUSH2 0x536B JUMP JUMPDEST PUSH1 0x40 MLOAD DUP1 SWAP2 SUB SWAP1 RETURN JUMPDEST CALLVALUE DUP1 ISZERO PUSH2 0x854 JUMPI PUSH1 0x0 DUP1 REVERT JUMPDEST POP PUSH2 0x86F PUSH1 0x4 DUP1 CALLDATASIZE SUB DUP2 ADD SWAP1 PUSH2 0x86A SWAP2 SWAP1 PUSH2 0x4738 JUMP JUMPDEST PUSH2 0x2DDD JUMP JUMPDEST STOP JUMPDEST CALLVALUE DUP1 ISZERO PUSH2 0x87D JUMPI PUSH1 0x0 DUP1 REVERT JUMPDEST POP PUSH2 0x898 PUSH1 0x4 DUP1 CALLDATASIZE SUB DUP2 ADD SWAP1 PUSH2 0x893 SWAP2 SWAP1 PUSH2 0x46B5 JUMP JUMPDEST PUSH2 0x2F5E JUMP JUMPDEST STOP JUMPDEST CALLVALUE DUP1 ISZERO PUSH2 0x8A6 JUMPI PUSH1 0x0 DUP1 REVERT JUMPDEST POP PUSH2 0x8AF PUSH2 0x2FC0 JUMP JUMPDEST PUSH1 0x40 MLOAD PUSH2 0x8BC SWAP2 SWAP1 PUSH2 0x5831 JUMP JUMPDEST PUSH1 0x40 MLOAD DUP1 SWAP2 SUB SWAP1 RETURN JUMPDEST CALLVALUE DUP1 ISZERO PUSH2 0x8D1 JUMPI PUSH1 0x0 DUP1 REVERT JUMPDEST POP PUSH2 0x8DA PUSH2 0x2FC6 JUMP JUMPDEST PUSH1 0x40 MLOAD PUSH2 0x8E7 SWAP2 SWAP1 PUSH2 0x58E3 JUMP JUMPDEST PUSH1 0x40 MLOAD DUP1 SWAP2 SUB SWAP1 RETURN JUMPDEST CALLVALUE DUP1 ISZERO PUSH2 0x8FC JUMPI PUSH1 0x0 DUP1 REVERT JUMPDEST POP PUSH2 0x917 PUSH1 0x4 DUP1 CALLDATASIZE SUB DUP2 ADD SWAP1 PUSH2 0x912 SWAP2 SWAP1 PUSH2 0x486C JUMP JUMPDEST PUSH2 0x2FD9 JUMP JUMPDEST PUSH1 0x40 MLOAD PUSH2 0x924 SWAP2 SWAP1 PUSH2 0x5831 JUMP JUMPDEST PUSH1 0x40 MLOAD DUP1 SWAP2 SUB SWAP1 RETURN JUMPDEST CALLVALUE DUP1 ISZERO PUSH2 0x939 JUMPI PUSH1 0x0 DUP1 REVERT JUMPDEST POP PUSH2 0x954 PUSH1 0x4 DUP1 CALLDATASIZE SUB DUP2 ADD SWAP1 PUSH2 0x94F SWAP2 SWAP1 PUSH2 0x486C JUMP JUMPDEST PUSH2 0x2FF2 JUMP JUMPDEST PUSH1 0x40 MLOAD PUSH2 0x961 SWAP2 SWAP1 PUSH2 0x536B JUMP JUMPDEST PUSH1 0x40 MLOAD DUP1 SWAP2 SUB SWAP1 RETURN JUMPDEST CALLVALUE DUP1 ISZERO PUSH2 0x976 JUMPI PUSH1 0x0 DUP1 REVERT JUMPDEST POP PUSH2 0x97F PUSH2 0x3099 JUMP JUMPDEST PUSH1 0x40 MLOAD PUSH2 0x98C SWAP2 SWAP1 PUSH2 0x58E3 JUMP JUMPDEST PUSH1 0x40 MLOAD DUP1 SWAP2 SUB SWAP1 RETURN JUMPDEST CALLVALUE DUP1 ISZERO PUSH2 0x9A1 JUMPI PUSH1 0x0 DUP1 REVERT JUMPDEST POP PUSH2 0x9AA PUSH2 0x30AC JUMP JUMPDEST PUSH1 0x40 MLOAD PUSH2 0x9B7 SWAP2 SWAP1 PUSH2 0x5831 JUMP JUMPDEST PUSH1 0x40 MLOAD DUP1 SWAP2 SUB SWAP1 RETURN JUMPDEST PUSH2 0x9C8 PUSH2 0x30C7 JUMP JUMPDEST PUSH1 0x40 MLOAD PUSH2 0x9D5 SWAP2 SWAP1 PUSH2 0x5831 JUMP JUMPDEST PUSH1 0x40 MLOAD DUP1 SWAP2 SUB SWAP1 RETURN JUMPDEST CALLVALUE DUP1 ISZERO PUSH2 0x9EA JUMPI PUSH1 0x0 DUP1 REVERT JUMPDEST POP PUSH2 0x9F3 PUSH2 0x30CF JUMP JUMPDEST PUSH1 0x40 MLOAD PUSH2 0xA00 SWAP2 SWAP1 PUSH2 0x5831 JUMP JUMPDEST PUSH1 0x40 MLOAD DUP1 SWAP2 SUB SWAP1 RETURN JUMPDEST CALLVALUE DUP1 ISZERO PUSH2 0xA15 JUMPI PUSH1 0x0 DUP1 REVERT JUMPDEST POP PUSH2 0xA30 PUSH1 0x4 DUP1 CALLDATASIZE SUB DUP2 ADD SWAP1 PUSH2 0xA2B SWAP2 SWAP1 PUSH2 0x4622 JUMP JUMPDEST PUSH2 0x30D5 JUMP JUMPDEST PUSH1 0x40 MLOAD PUSH2 0xA3D SWAP2 SWAP1 PUSH2 0x52FF JUMP JUMPDEST PUSH1 0x40 MLOAD DUP1 SWAP2 SUB SWAP1 RETURN JUMPDEST CALLVALUE DUP1 ISZERO PUSH2 0xA52 JUMPI PUSH1 0x0 DUP1 REVERT JUMPDEST POP PUSH2 0xA6D PUSH1 0x4 DUP1 CALLDATASIZE SUB DUP2 ADD SWAP1 PUSH2 0xA68 SWAP2 SWAP1 PUSH2 0x4778 JUMP JUMPDEST PUSH2 0x3169 JUMP JUMPDEST PUSH1 0x40 MLOAD PUSH2 0xA7A SWAP2 SWAP1 PUSH2 0x5831 JUMP JUMPDEST PUSH1 0x40 MLOAD DUP1 SWAP2 SUB SWAP1 RETURN JUMPDEST CALLVALUE DUP1 ISZERO PUSH2 0xA8F JUMPI PUSH1 0x0 DUP1 REVERT JUMPDEST POP PUSH2 0xAAA PUSH1 0x4 DUP1 CALLDATASIZE SUB DUP2 ADD SWAP1 PUSH2 0xAA5 SWAP2 SWAP1 PUSH2 0x45F5 JUMP JUMPDEST PUSH2 0x319B JUMP JUMPDEST PUSH1 0x40 MLOAD PUSH2 0xAB7 SWAP2 SWAP1 PUSH2 0x5831 JUMP JUMPDEST PUSH1 0x40 MLOAD DUP1 SWAP2 SUB SWAP1 RETURN JUMPDEST CALLVALUE DUP1 ISZERO PUSH2 0xACC JUMPI PUSH1 0x0 DUP1 REVERT JUMPDEST POP PUSH2 0xAD5 PUSH2 0x33DC JUMP JUMPDEST PUSH1 0x40 MLOAD PUSH2 0xAE2 SWAP2 SWAP1 PUSH2 0x52C2 JUMP JUMPDEST PUSH1 0x40 MLOAD DUP1 SWAP2 SUB SWAP1 RETURN JUMPDEST PUSH1 0x0 PUSH32 0x80AC58CD00000000000000000000000000000000000000000000000000000000 PUSH28 0xFFFFFFFFFFFFFFFFFFFFFFFFFFFFFFFFFFFFFFFFFFFFFFFFFFFFFFFF NOT AND DUP3 PUSH28 0xFFFFFFFFFFFFFFFFFFFFFFFFFFFFFFFFFFFFFFFFFFFFFFFFFFFFFFFF NOT AND EQ DUP1 PUSH2 0xBB6 JUMPI POP PUSH32 0x5B5E139F00000000000000000000000000000000000000000000000000000000 PUSH28 0xFFFFFFFFFFFFFFFFFFFFFFFFFFFFFFFFFFFFFFFFFFFFFFFFFFFFFFFF NOT AND DUP3 PUSH28 0xFFFFFFFFFFFFFFFFFFFFFFFFFFFFFFFFFFFFFFFFFFFFFFFFFFFFFFFF NOT AND EQ JUMPDEST DUP1 PUSH2 0xBC6 JUMPI POP PUSH2 0xBC5 DUP3 PUSH2 0x3555 JUMP JUMPDEST JUMPDEST SWAP1 POP SWAP2 SWAP1 POP JUMP JUMPDEST PUSH1 0x60 PUSH1 0x0 DUP1 SLOAD PUSH2 0xBDC SWAP1 PUSH2 0x5D72 JUMP JUMPDEST DUP1 PUSH1 0x1F ADD PUSH1 0x20 DUP1 SWAP2 DIV MUL PUSH1 0x20 ADD PUSH1 0x40 MLOAD SWAP1 DUP2 ADD PUSH1 0x40 MSTORE DUP1 SWAP3 SWAP2 SWAP1 DUP2 DUP2 MSTORE PUSH1 0x20 ADD DUP3 DUP1 SLOAD PUSH2 0xC08 SWAP1 PUSH2 0x5D72 JUMP JUMPDEST DUP1 ISZERO PUSH2 0xC55 JUMPI DUP1 PUSH1 0x1F LT PUSH2 0xC2A JUMPI PUSH2 0x100 DUP1 DUP4 SLOAD DIV MUL DUP4 MSTORE SWAP2 PUSH1 0x20 ADD SWAP2 PUSH2 0xC55 JUMP JUMPDEST DUP3 ADD SWAP2 SWAP1 PUSH1 0x0 MSTORE PUSH1 0x20 PUSH1 0x0 KECCAK256 SWAP1 JUMPDEST DUP2 SLOAD DUP2 MSTORE SWAP1 PUSH1 0x1 ADD SWAP1 PUSH1 0x20 ADD DUP1 DUP4 GT PUSH2 0xC38 JUMPI DUP3 SWAP1 SUB PUSH1 0x1F AND DUP3 ADD SWAP2 JUMPDEST POP POP POP POP POP SWAP1 POP SWAP1 JUMP JUMPDEST PUSH1 0x0 PUSH2 0xC6A DUP3 PUSH2 0x35BF JUMP JUMPDEST PUSH2 0xCA9 JUMPI PUSH1 0x40 MLOAD PUSH32 0x8C379A000000000000000000000000000000000000000000000000000000000 DUP2 MSTORE PUSH1 0x4 ADD PUSH2 0xCA0 SWAP1 PUSH2 0x560D JUMP JUMPDEST PUSH1 0x40 MLOAD DUP1 SWAP2 SUB SWAP1 REVERT JUMPDEST PUSH1 0x4 PUSH1 0x0 DUP4 DUP2 MSTORE PUSH1 0x20 ADD SWAP1 DUP2 MSTORE PUSH1 0x20 ADD PUSH1 0x0 KECCAK256 PUSH1 0x0 SWAP1 SLOAD SWAP1 PUSH2 0x100 EXP SWAP1 DIV PUSH20 0xFFFFFFFFFFFFFFFFFFFFFFFFFFFFFFFFFFFFFFFF AND SWAP1 POP SWAP2 SWAP1 POP JUMP JUMPDEST PUSH1 0x0 PUSH2 0xCEF DUP3 PUSH2 0x2490 JUMP JUMPDEST SWAP1 POP DUP1 PUSH20 0xFFFFFFFFFFFFFFFFFFFFFFFFFFFFFFFFFFFFFFFF AND DUP4 PUSH20 0xFFFFFFFFFFFFFFFFFFFFFFFFFFFFFFFFFFFFFFFF AND EQ ISZERO PUSH2 0xD60 JUMPI PUSH1 0x40 MLOAD PUSH32 0x8C379A000000000000000000000000000000000000000000000000000000000 DUP2 MSTORE PUSH1 0x4 ADD PUSH2 0xD57 SWAP1 PUSH2 0x56ED JUMP JUMPDEST PUSH1 0x40 MLOAD DUP1 SWAP2 SUB SWAP1 REVERT JUMPDEST DUP1 PUSH20 0xFFFFFFFFFFFFFFFFFFFFFFFFFFFFFFFFFFFFFFFF AND PUSH2 0xD7F PUSH2 0x362B JUMP JUMPDEST PUSH20 0xFFFFFFFFFFFFFFFFFFFFFFFFFFFFFFFFFFFFFFFF AND EQ DUP1 PUSH2 0xDAE JUMPI POP PUSH2 0xDAD DUP2 PUSH2 0xDA8 PUSH2 0x362B JUMP JUMPDEST PUSH2 0x30D5 JUMP JUMPDEST JUMPDEST PUSH2 0xDED JUMPI PUSH1 0x40 MLOAD PUSH32 0x8C379A000000000000000000000000000000000000000000000000000000000 DUP2 MSTORE PUSH1 0x4 ADD PUSH2 0xDE4 SWAP1 PUSH2 0x556D JUMP JUMPDEST PUSH1 0x40 MLOAD DUP1 SWAP2 SUB SWAP1 REVERT JUMPDEST PUSH2 0xDF7 DUP4 DUP4 PUSH2 0x3633 JUMP JUMPDEST POP POP POP JUMP JUMPDEST PUSH1 0x0 PUSH1 0x8 PUSH1 0x0 SWAP1 SLOAD SWAP1 PUSH2 0x100 EXP SWAP1 DIV PUSH20 0xFFFFFFFFFFFFFFFFFFFFFFFFFFFFFFFFFFFFFFFF AND PUSH20 0xFFFFFFFFFFFFFFFFFFFFFFFFFFFFFFFFFFFFFFFF AND PUSH4 0x70A08231 ADDRESS PUSH1 0x40 MLOAD DUP3 PUSH4 0xFFFFFFFF AND PUSH1 0xE0 SHL DUP2 MSTORE PUSH1 0x4 ADD PUSH2 0xE59 SWAP2 SWAP1 PUSH2 0x5150 JUMP JUMPDEST PUSH1 0x20 PUSH1 0x40 MLOAD DUP1 DUP4 SUB DUP2 DUP7 DUP1 EXTCODESIZE ISZERO DUP1 ISZERO PUSH2 0xE71 JUMPI PUSH1 0x0 DUP1 REVERT JUMPDEST POP GAS STATICCALL ISZERO DUP1 ISZERO PUSH2 0xE85 JUMPI RETURNDATASIZE PUSH1 0x0 DUP1 RETURNDATACOPY RETURNDATASIZE PUSH1 0x0 REVERT JUMPDEST POP POP POP POP PUSH1 0x40 MLOAD RETURNDATASIZE PUSH1 0x1F NOT PUSH1 0x1F DUP3 ADD AND DUP3 ADD DUP1 PUSH1 0x40 MSTORE POP DUP2 ADD SWAP1 PUSH2 0xEA9 SWAP2 SWAP1 PUSH2 0x4899 JUMP JUMPDEST GT PUSH2 0xEB3 JUMPI PUSH1 0x0 DUP1 REVERT JUMPDEST PUSH1 0x0 CALLVALUE GT PUSH2 0xEF6 JUMPI PUSH1 0x40 MLOAD PUSH32 0x8C379A000000000000000000000000000000000000000000000000000000000 DUP2 MSTORE PUSH1 0x4 ADD PUSH2 0xEED SWAP1 PUSH2 0x544D JUMP JUMPDEST PUSH1 0x40 MLOAD DUP1 SWAP2 SUB SWAP1 REVERT JUMPDEST PUSH1 0x0 PUSH1 0x8 PUSH1 0x0 SWAP1 SLOAD SWAP1 PUSH2 0x100 EXP SWAP1 DIV PUSH20 0xFFFFFFFFFFFFFFFFFFFFFFFFFFFFFFFFFFFFFFFF AND PUSH20 0xFFFFFFFFFFFFFFFFFFFFFFFFFFFFFFFFFFFFFFFF AND PUSH4 0x70A08231 ADDRESS PUSH1 0x40 MLOAD DUP3 PUSH4 0xFFFFFFFF AND PUSH1 0xE0 SHL DUP2 MSTORE PUSH1 0x4 ADD PUSH2 0xF53 SWAP2 SWAP1 PUSH2 0x5150 JUMP JUMPDEST PUSH1 0x20 PUSH1 0x40 MLOAD DUP1 DUP4 SUB DUP2 DUP7 DUP1 EXTCODESIZE ISZERO DUP1 ISZERO PUSH2 0xF6B JUMPI PUSH1 0x0 DUP1 REVERT JUMPDEST POP GAS STATICCALL ISZERO DUP1 ISZERO PUSH2 0xF7F JUMPI RETURNDATASIZE PUSH1 0x0 DUP1 RETURNDATACOPY RETURNDATASIZE PUSH1 0x0 REVERT JUMPDEST POP POP POP POP PUSH1 0x40 MLOAD RETURNDATASIZE PUSH1 0x1F NOT PUSH1 0x1F DUP3 ADD AND DUP3 ADD DUP1 PUSH1 0x40 MSTORE POP DUP2 ADD SWAP1 PUSH2 0xFA3 SWAP2 SWAP1 PUSH2 0x4899 JUMP JUMPDEST GT PUSH2 0xFE3 JUMPI PUSH1 0x40 MLOAD PUSH32 0x8C379A000000000000000000000000000000000000000000000000000000000 DUP2 MSTORE PUSH1 0x4 ADD PUSH2 0xFDA SWAP1 PUSH2 0x574D JUMP JUMPDEST PUSH1 0x40 MLOAD DUP1 SWAP2 SUB SWAP1 REVERT JUMPDEST PUSH1 0x0 PUSH1 0x6 PUSH1 0x0 SWAP1 SLOAD SWAP1 PUSH2 0x100 EXP SWAP1 DIV PUSH1 0xFF AND PUSH1 0xFF AND CALLVALUE PUSH2 0x1003 SWAP2 SWAP1 PUSH2 0x5B75 JUMP JUMPDEST SWAP1 POP PUSH1 0x8 PUSH1 0x0 SWAP1 SLOAD SWAP1 PUSH2 0x100 EXP SWAP1 DIV PUSH20 0xFFFFFFFFFFFFFFFFFFFFFFFFFFFFFFFFFFFFFFFF AND PUSH20 0xFFFFFFFFFFFFFFFFFFFFFFFFFFFFFFFFFFFFFFFF AND PUSH4 0xA9059CBB CALLER DUP4 PUSH1 0x40 MLOAD DUP4 PUSH4 0xFFFFFFFF AND PUSH1 0xE0 SHL DUP2 MSTORE PUSH1 0x4 ADD PUSH2 0x1062 SWAP3 SWAP2 SWAP1 PUSH2 0x5299 JUMP JUMPDEST PUSH1 0x20 PUSH1 0x40 MLOAD DUP1 DUP4 SUB DUP2 PUSH1 0x0 DUP8 DUP1 EXTCODESIZE ISZERO DUP1 ISZERO PUSH2 0x107C JUMPI PUSH1 0x0 DUP1 REVERT JUMPDEST POP GAS CALL ISZERO DUP1 ISZERO PUSH2 0x1090 JUMPI RETURNDATASIZE PUSH1 0x0 DUP1 RETURNDATACOPY RETURNDATASIZE PUSH1 0x0 REVERT JUMPDEST POP POP POP POP PUSH1 0x40 MLOAD RETURNDATASIZE PUSH1 0x1F NOT PUSH1 0x1F DUP3 ADD AND DUP3 ADD DUP1 PUSH1 0x40 MSTORE POP DUP2 ADD SWAP1 PUSH2 0x10B4 SWAP2 SWAP1 PUSH2 0x47B8 JUMP JUMPDEST POP POP JUMP JUMPDEST PUSH1 0x60 PUSH2 0x7541 PUSH1 0x0 DUP4 PUSH20 0xFFFFFFFFFFFFFFFFFFFFFFFFFFFFFFFFFFFFFFFF AND PUSH20 0xFFFFFFFFFFFFFFFFFFFFFFFFFFFFFFFFFFFFFFFF AND DUP2 MSTORE PUSH1 0x20 ADD SWAP1 DUP2 MSTORE PUSH1 0x20 ADD PUSH1 0x0 KECCAK256 DUP1 SLOAD DUP1 PUSH1 0x20 MUL PUSH1 0x20 ADD PUSH1 0x40 MLOAD SWAP1 DUP2 ADD PUSH1 0x40 MSTORE DUP1 SWAP3 SWAP2 SWAP1 DUP2 DUP2 MSTORE PUSH1 0x20 ADD DUP3 DUP1 SLOAD DUP1 ISZERO PUSH2 0x1144 JUMPI PUSH1 0x20 MUL DUP3 ADD SWAP2 SWAP1 PUSH1 0x0 MSTORE PUSH1 0x20 PUSH1 0x0 KECCAK256 SWAP1 JUMPDEST DUP2 SLOAD DUP2 MSTORE PUSH1 0x20 ADD SWAP1 PUSH1 0x1 ADD SWAP1 DUP1 DUP4 GT PUSH2 0x1130 JUMPI JUMPDEST POP POP POP POP POP SWAP1 POP SWAP2 SWAP1 POP JUMP JUMPDEST PUSH2 0x2710 DUP2 JUMP JUMPDEST PUSH1 0x60 PUSH1 0x40 MLOAD DUP1 PUSH1 0x40 ADD PUSH1 0x40 MSTORE DUP1 PUSH1 0x6 DUP2 MSTORE PUSH1 0x20 ADD PUSH32 0x6675636B20750000000000000000000000000000000000000000000000000000 DUP2 MSTORE POP SWAP1 POP SWAP1 JUMP JUMPDEST PUSH1 0x60 PUSH1 0x0 PUSH2 0x7541 PUSH1 0x0 DUP5 PUSH20 0xFFFFFFFFFFFFFFFFFFFFFFFFFFFFFFFFFFFFFFFF AND PUSH20 0xFFFFFFFFFFFFFFFFFFFFFFFFFFFFFFFFFFFFFFFF AND DUP2 MSTORE PUSH1 0x20 ADD SWAP1 DUP2 MSTORE PUSH1 0x20 ADD PUSH1 0x0 KECCAK256 DUP1 SLOAD DUP1 PUSH1 0x20 MUL PUSH1 0x20 ADD PUSH1 0x40 MLOAD SWAP1 DUP2 ADD PUSH1 0x40 MSTORE DUP1 SWAP3 SWAP2 SWAP1 DUP2 DUP2 MSTORE PUSH1 0x20 ADD DUP3 DUP1 SLOAD DUP1 ISZERO PUSH2 0x1221 JUMPI PUSH1 0x20 MUL DUP3 ADD SWAP2 SWAP1 PUSH1 0x0 MSTORE PUSH1 0x20 PUSH1 0x0 KECCAK256 SWAP1 JUMPDEST DUP2 SLOAD DUP2 MSTORE PUSH1 0x20 ADD SWAP1 PUSH1 0x1 ADD SWAP1 DUP1 DUP4 GT PUSH2 0x120D JUMPI JUMPDEST POP POP POP POP POP SWAP1 POP PUSH1 0x0 DUP2 MLOAD EQ PUSH2 0x12A0 JUMPI PUSH1 0x0 JUMPDEST DUP2 MLOAD DUP2 LT ISZERO PUSH2 0x129E JUMPI PUSH2 0x753F PUSH1 0x0 DUP4 DUP4 DUP2 MLOAD DUP2 LT PUSH2 0x1255 JUMPI PUSH2 0x1254 PUSH2 0x5F41 JUMP JUMPDEST JUMPDEST PUSH1 0x20 MUL PUSH1 0x20 ADD ADD MLOAD DUP2 MSTORE PUSH1 0x20 ADD SWAP1 DUP2 MSTORE PUSH1 0x20 ADD PUSH1 0x0 KECCAK256 SLOAD DUP4 DUP3 DUP2 MLOAD DUP2 LT PUSH2 0x127F JUMPI PUSH2 0x127E PUSH2 0x5F41 JUMP JUMPDEST JUMPDEST PUSH1 0x20 MUL PUSH1 0x20 ADD ADD DUP2 DUP2 MSTORE POP POP DUP1 DUP1 PUSH2 0x1296 SWAP1 PUSH2 0x5DD5 JUMP JUMPDEST SWAP2 POP POP PUSH2 0x1234 JUMP JUMPDEST POP JUMPDEST POP SWAP2 SWAP1 POP JUMP JUMPDEST PUSH1 0xF DUP2 PUSH2 0x2710 DUP2 LT PUSH2 0x12B7 JUMPI PUSH1 0x0 DUP1 REVERT JUMPDEST PUSH1 0x3 MUL ADD PUSH1 0x0 SWAP2 POP SWAP1 POP DUP1 PUSH1 0x0 ADD SLOAD SWAP1 DUP1 PUSH1 0x1 ADD SLOAD SWAP1 DUP1 PUSH1 0x2 ADD SLOAD SWAP1 POP DUP4 JUMP JUMPDEST PUSH2 0x12E8 PUSH2 0x12E2 PUSH2 0x362B JUMP JUMPDEST DUP3 PUSH2 0x36EC JUMP JUMPDEST PUSH2 0x1327 JUMPI PUSH1 0x40 MLOAD PUSH32 0x8C379A000000000000000000000000000000000000000000000000000000000 DUP2 MSTORE PUSH1 0x4 ADD PUSH2 0x131E SWAP1 PUSH2 0x572D JUMP JUMPDEST PUSH1 0x40 MLOAD DUP1 SWAP2 SUB SWAP1 REVERT JUMPDEST PUSH2 0x1332 DUP4 DUP4 DUP4 PUSH2 0x37CA JUMP JUMPDEST POP POP POP JUMP JUMPDEST PUSH1 0x0 CALLER PUSH20 0xFFFFFFFFFFFFFFFFFFFFFFFFFFFFFFFFFFFFFFFF AND PUSH1 0xC PUSH1 0x0 SWAP1 SLOAD SWAP1 PUSH2 0x100 EXP SWAP1 DIV PUSH20 0xFFFFFFFFFFFFFFFFFFFFFFFFFFFFFFFFFFFFFFFF AND PUSH20 0xFFFFFFFFFFFFFFFFFFFFFFFFFFFFFFFFFFFFFFFF AND EQ PUSH2 0x13C9 JUMPI PUSH1 0x40 MLOAD PUSH32 0x8C379A000000000000000000000000000000000000000000000000000000000 DUP2 MSTORE PUSH1 0x4 ADD PUSH2 0x13C0 SWAP1 PUSH2 0x542D JUMP JUMPDEST PUSH1 0x40 MLOAD DUP1 SWAP2 SUB SWAP1 REVERT JUMPDEST PUSH1 0x0 PUSH2 0x13D4 DUP4 PUSH2 0x2490 JUMP JUMPDEST SWAP1 POP PUSH2 0x13E1 DUP2 ADDRESS DUP6 PUSH2 0x37CA JUMP JUMPDEST PUSH1 0x0 PUSH2 0x1A0A SWAP1 POP PUSH1 0x0 JUMPDEST PUSH2 0x7541 PUSH1 0x0 DUP5 PUSH20 0xFFFFFFFFFFFFFFFFFFFFFFFFFFFFFFFFFFFFFFFF AND PUSH20 0xFFFFFFFFFFFFFFFFFFFFFFFFFFFFFFFFFFFFFFFF AND DUP2 MSTORE PUSH1 0x20 ADD SWAP1 DUP2 MSTORE PUSH1 0x20 ADD PUSH1 0x0 KECCAK256 DUP1 SLOAD SWAP1 POP DUP2 LT ISZERO PUSH2 0x14B5 JUMPI DUP5 PUSH2 0x7541 PUSH1 0x0 DUP6 PUSH20 0xFFFFFFFFFFFFFFFFFFFFFFFFFFFFFFFFFFFFFFFF AND PUSH20 0xFFFFFFFFFFFFFFFFFFFFFFFFFFFFFFFFFFFFFFFF AND DUP2 MSTORE PUSH1 0x20 ADD SWAP1 DUP2 MSTORE PUSH1 0x20 ADD PUSH1 0x0 KECCAK256 DUP3 DUP2 SLOAD DUP2 LT PUSH2 0x1489 JUMPI PUSH2 0x1488 PUSH2 0x5F41 JUMP JUMPDEST JUMPDEST SWAP1 PUSH1 0x0 MSTORE PUSH1 0x20 PUSH1 0x0 KECCAK256 ADD SLOAD EQ ISZERO PUSH2 0x14A2 JUMPI DUP1 SWAP2 POP PUSH2 0x14B5 JUMP JUMPDEST DUP1 DUP1 PUSH2 0x14AD SWAP1 PUSH2 0x5DD5 JUMP JUMPDEST SWAP2 POP POP PUSH2 0x13EB JUMP JUMPDEST POP PUSH2 0x1A0A DUP2 EQ ISZERO PUSH2 0x14FB JUMPI PUSH1 0x40 MLOAD PUSH32 0x8C379A000000000000000000000000000000000000000000000000000000000 DUP2 MSTORE PUSH1 0x4 ADD PUSH2 0x14F2 SWAP1 PUSH2 0x566D JUMP JUMPDEST PUSH1 0x40 MLOAD DUP1 SWAP2 SUB SWAP1 REVERT JUMPDEST PUSH2 0x7541 PUSH1 0x0 DUP4 PUSH20 0xFFFFFFFFFFFFFFFFFFFFFFFFFFFFFFFFFFFFFFFF AND PUSH20 0xFFFFFFFFFFFFFFFFFFFFFFFFFFFFFFFFFFFFFFFF AND DUP2 MSTORE PUSH1 0x20 ADD SWAP1 DUP2 MSTORE PUSH1 0x20 ADD PUSH1 0x0 KECCAK256 DUP2 DUP2 SLOAD DUP2 LT PUSH2 0x154D JUMPI PUSH2 0x154C PUSH2 0x5F41 JUMP JUMPDEST JUMPDEST SWAP1 PUSH1 0x0 MSTORE PUSH1 0x20 PUSH1 0x0 KECCAK256 ADD PUSH1 0x0 SWAP1 SSTORE PUSH1 0x1 SWAP3 POP POP POP SWAP2 SWAP1 POP JUMP JUMPDEST PUSH1 0x0 PUSH2 0x1571 CALLER PUSH2 0x2589 JUMP JUMPDEST GT PUSH2 0x15B1 JUMPI PUSH1 0x40 MLOAD PUSH32 0x8C379A000000000000000000000000000000000000000000000000000000000 DUP2 MSTORE PUSH1 0x4 ADD PUSH2 0x15A8 SWAP1 PUSH2 0x562D JUMP JUMPDEST PUSH1 0x40 MLOAD DUP1 SWAP2 SUB SWAP1 REVERT JUMPDEST PUSH2 0x15BB CALLER ADDRESS PUSH2 0x30D5 JUMP JUMPDEST PUSH2 0x15FA JUMPI PUSH1 0x40 MLOAD PUSH32 0x8C379A000000000000000000000000000000000000000000000000000000000 DUP2 MSTORE PUSH1 0x4 ADD PUSH2 0x15F1 SWAP1 PUSH2 0x564D JUMP JUMPDEST PUSH1 0x40 MLOAD DUP1 SWAP2 SUB SWAP1 REVERT JUMPDEST CALLER PUSH20 0xFFFFFFFFFFFFFFFFFFFFFFFFFFFFFFFFFFFFFFFF AND PUSH2 0x161E DUP3 PUSH2 0xFFFF AND PUSH2 0x2490 JUMP JUMPDEST PUSH20 0xFFFFFFFFFFFFFFFFFFFFFFFFFFFFFFFFFFFFFFFF AND EQ PUSH2 0x1674 JUMPI PUSH1 0x40 MLOAD PUSH32 0x8C379A000000000000000000000000000000000000000000000000000000000 DUP2 MSTORE PUSH1 0x4 ADD PUSH2 0x166B SWAP1 PUSH2 0x558D JUMP JUMPDEST PUSH1 0x40 MLOAD DUP1 SWAP2 SUB SWAP1 REVERT JUMPDEST PUSH1 0x0 PUSH2 0x167F DUP3 PUSH2 0x2641 JUMP JUMPDEST SWAP1 POP PUSH1 0x0 PUSH2 0x1690 DUP3 PUSH2 0xFFFF AND PUSH2 0x2490 JUMP JUMPDEST SWAP1 POP PUSH2 0x169C DUP2 ADDRESS PUSH2 0x30D5 JUMP JUMPDEST PUSH2 0x16DB JUMPI PUSH1 0x40 MLOAD PUSH32 0x8C379A000000000000000000000000000000000000000000000000000000000 DUP2 MSTORE PUSH1 0x4 ADD PUSH2 0x16D2 SWAP1 PUSH2 0x57CD JUMP JUMPDEST PUSH1 0x40 MLOAD DUP1 SWAP2 SUB SWAP1 REVERT JUMPDEST CALLER PUSH20 0xFFFFFFFFFFFFFFFFFFFFFFFFFFFFFFFFFFFFFFFF AND DUP2 PUSH20 0xFFFFFFFFFFFFFFFFFFFFFFFFFFFFFFFFFFFFFFFF AND EQ ISZERO PUSH2 0x174A JUMPI PUSH1 0x40 MLOAD PUSH32 0x8C379A000000000000000000000000000000000000000000000000000000000 DUP2 MSTORE PUSH1 0x4 ADD PUSH2 0x1741 SWAP1 PUSH2 0x538D JUMP JUMPDEST PUSH1 0x40 MLOAD DUP1 SWAP2 SUB SWAP1 REVERT JUMPDEST PUSH1 0x0 DUP1 PUSH2 0x175A DUP6 PUSH2 0xFFFF AND PUSH2 0x22A0 JUMP JUMPDEST SWAP3 POP POP SWAP2 POP DUP1 PUSH2 0x179F JUMPI PUSH1 0x40 MLOAD PUSH32 0x8C379A000000000000000000000000000000000000000000000000000000000 DUP2 MSTORE PUSH1 0x4 ADD PUSH2 0x1796 SWAP1 PUSH2 0x53AD JUMP JUMPDEST PUSH1 0x40 MLOAD DUP1 SWAP2 SUB SWAP1 REVERT JUMPDEST PUSH1 0x0 PUSH2 0x17AE DUP6 PUSH2 0xFFFF AND PUSH2 0x22A0 JUMP JUMPDEST POP SWAP2 POP POP PUSH1 0x0 PUSH1 0xA PUSH1 0xF DUP4 PUSH2 0x17C3 SWAP2 SWAP1 PUSH2 0x5B75 JUMP JUMPDEST PUSH2 0x17CD SWAP2 SWAP1 PUSH2 0x5B08 JUMP JUMPDEST SWAP1 POP PUSH1 0x0 PUSH2 0x17D9 PUSH2 0x3A26 JUMP JUMPDEST SWAP1 POP PUSH1 0x0 DUP1 PUSH2 0x17E8 DUP8 DUP6 PUSH2 0x3A89 JUMP JUMPDEST SWAP2 POP SWAP2 POP PUSH1 0x0 DUP1 PUSH1 0x0 PUSH1 0x3 DUP6 GT ISZERO PUSH2 0x180A JUMPI DUP8 SWAP2 POP PUSH1 0x0 SWAP3 POP PUSH1 0x1 SWAP1 POP PUSH2 0x1899 JUMP JUMPDEST PUSH1 0x2 DUP6 GT ISZERO PUSH2 0x184A JUMPI DUP8 SWAP2 POP PUSH1 0x1 SWAP1 POP PUSH1 0xA DUP11 PUSH2 0x1827 SWAP2 SWAP1 PUSH2 0x5B08 JUMP JUMPDEST SWAP3 POP PUSH1 0x5A DUP7 PUSH1 0xFF AND GT ISZERO PUSH2 0x1845 JUMPI PUSH1 0x2 DUP9 PUSH2 0x1842 SWAP2 SWAP1 PUSH2 0x5B08 JUMP JUMPDEST SWAP2 POP JUMPDEST PUSH2 0x1898 JUMP JUMPDEST PUSH1 0x1 DUP6 GT DUP1 ISZERO PUSH2 0x185A JUMPI POP PUSH1 0x5 DUP5 GT JUMPDEST ISZERO PUSH2 0x1886 JUMPI PUSH1 0x1 SWAP1 POP PUSH1 0x2 DUP9 PUSH2 0x1870 SWAP2 SWAP1 PUSH2 0x5B08 JUMP JUMPDEST SWAP2 POP PUSH1 0x2 DUP11 PUSH2 0x187F SWAP2 SWAP1 PUSH2 0x5B08 JUMP JUMPDEST SWAP3 POP PUSH2 0x1897 JUMP JUMPDEST PUSH1 0x0 SWAP1 POP DUP6 PUSH1 0xFF AND SWAP2 POP DUP6 PUSH1 0xFF AND SWAP3 POP JUMPDEST JUMPDEST JUMPDEST PUSH2 0x18AC DUP14 DUP14 CALLER DUP15 DUP15 DUP14 DUP10 DUP10 DUP14 DUP14 DUP12 PUSH2 0x3ABA JUMP JUMPDEST POP POP POP POP POP POP POP POP POP POP POP POP POP JUMP JUMPDEST PUSH1 0x6 PUSH1 0x0 SWAP1 SLOAD SWAP1 PUSH2 0x100 EXP SWAP1 DIV PUSH1 0xFF AND DUP2 JUMP JUMPDEST PUSH1 0xA PUSH1 0x0 SWAP1 SLOAD SWAP1 PUSH2 0x100 EXP SWAP1 DIV PUSH20 0xFFFFFFFFFFFFFFFFFFFFFFFFFFFFFFFFFFFFFFFF AND DUP2 JUMP JUMPDEST PUSH2 0x190F DUP4 DUP4 DUP4 PUSH1 0x40 MLOAD DUP1 PUSH1 0x20 ADD PUSH1 0x40 MSTORE DUP1 PUSH1 0x0 DUP2 MSTORE POP PUSH2 0x2F5E JUMP JUMPDEST POP POP POP JUMP JUMPDEST PUSH1 0x0 PUSH1 0x9 PUSH1 0x0 SWAP1 SLOAD SWAP1 PUSH2 0x100 EXP SWAP1 DIV PUSH20 0xFFFFFFFFFFFFFFFFFFFFFFFFFFFFFFFFFFFFFFFF AND PUSH20 0xFFFFFFFFFFFFFFFFFFFFFFFFFFFFFFFFFFFFFFFF AND PUSH4 0x70A08231 ADDRESS PUSH1 0x40 MLOAD DUP3 PUSH4 0xFFFFFFFF AND PUSH1 0xE0 SHL DUP2 MSTORE PUSH1 0x4 ADD PUSH2 0x1971 SWAP2 SWAP1 PUSH2 0x5150 JUMP JUMPDEST PUSH1 0x20 PUSH1 0x40 MLOAD DUP1 DUP4 SUB DUP2 DUP7 DUP1 EXTCODESIZE ISZERO DUP1 ISZERO PUSH2 0x1989 JUMPI PUSH1 0x0 DUP1 REVERT JUMPDEST POP GAS STATICCALL ISZERO DUP1 ISZERO PUSH2 0x199D JUMPI RETURNDATASIZE PUSH1 0x0 DUP1 RETURNDATACOPY RETURNDATASIZE PUSH1 0x0 REVERT JUMPDEST POP POP POP POP PUSH1 0x40 MLOAD RETURNDATASIZE PUSH1 0x1F NOT PUSH1 0x1F DUP3 ADD AND DUP3 ADD DUP1 PUSH1 0x40 MSTORE POP DUP2 ADD SWAP1 PUSH2 0x19C1 SWAP2 SWAP1 PUSH2 0x4899 JUMP JUMPDEST GT PUSH2 0x19CB JUMPI PUSH1 0x0 DUP1 REVERT JUMPDEST PUSH1 0x0 PUSH1 0xA PUSH1 0x0 SWAP1 SLOAD SWAP1 PUSH2 0x100 EXP SWAP1 DIV PUSH20 0xFFFFFFFFFFFFFFFFFFFFFFFFFFFFFFFFFFFFFFFF AND PUSH20 0xFFFFFFFFFFFFFFFFFFFFFFFFFFFFFFFFFFFFFFFF AND PUSH4 0x70A08231 ADDRESS PUSH1 0x40 MLOAD DUP3 PUSH4 0xFFFFFFFF AND PUSH1 0xE0 SHL DUP2 MSTORE PUSH1 0x4 ADD PUSH2 0x1A28 SWAP2 SWAP1 PUSH2 0x5150 JUMP JUMPDEST PUSH1 0x20 PUSH1 0x40 MLOAD DUP1 DUP4 SUB DUP2 DUP7 DUP1 EXTCODESIZE ISZERO DUP1 ISZERO PUSH2 0x1A40 JUMPI PUSH1 0x0 DUP1 REVERT JUMPDEST POP GAS STATICCALL ISZERO DUP1 ISZERO PUSH2 0x1A54 JUMPI RETURNDATASIZE PUSH1 0x0 DUP1 RETURNDATACOPY RETURNDATASIZE PUSH1 0x0 REVERT JUMPDEST POP POP POP POP PUSH1 0x40 MLOAD RETURNDATASIZE PUSH1 0x1F NOT PUSH1 0x1F DUP3 ADD AND DUP3 ADD DUP1 PUSH1 0x40 MSTORE POP DUP2 ADD SWAP1 PUSH2 0x1A78 SWAP2 SWAP1 PUSH2 0x4899 JUMP JUMPDEST GT PUSH2 0x1A82 JUMPI PUSH1 0x0 DUP1 REVERT JUMPDEST PUSH1 0x0 PUSH1 0x8 PUSH1 0x0 SWAP1 SLOAD SWAP1 PUSH2 0x100 EXP SWAP1 DIV PUSH20 0xFFFFFFFFFFFFFFFFFFFFFFFFFFFFFFFFFFFFFFFF AND PUSH20 0xFFFFFFFFFFFFFFFFFFFFFFFFFFFFFFFFFFFFFFFF AND PUSH4 0x70A08231 CALLER PUSH1 0x40 MLOAD DUP3 PUSH4 0xFFFFFFFF AND PUSH1 0xE0 SHL DUP2 MSTORE PUSH1 0x4 ADD PUSH2 0x1ADF SWAP2 SWAP1 PUSH2 0x5150 JUMP JUMPDEST PUSH1 0x20 PUSH1 0x40 MLOAD DUP1 DUP4 SUB DUP2 DUP7 DUP1 EXTCODESIZE ISZERO DUP1 ISZERO PUSH2 0x1AF7 JUMPI PUSH1 0x0 DUP1 REVERT JUMPDEST POP GAS STATICCALL ISZERO DUP1 ISZERO PUSH2 0x1B0B JUMPI RETURNDATASIZE PUSH1 0x0 DUP1 RETURNDATACOPY RETURNDATASIZE PUSH1 0x0 REVERT JUMPDEST POP POP POP POP PUSH1 0x40 MLOAD RETURNDATASIZE PUSH1 0x1F NOT PUSH1 0x1F DUP3 ADD AND DUP3 ADD DUP1 PUSH1 0x40 MSTORE POP DUP2 ADD SWAP1 PUSH2 0x1B2F SWAP2 SWAP1 PUSH2 0x4899 JUMP JUMPDEST SWAP1 POP DUP3 DUP2 LT ISZERO DUP1 ISZERO PUSH2 0x1B41 JUMPI POP PUSH1 0x0 DUP4 GT JUMPDEST PUSH2 0x1B80 JUMPI PUSH1 0x40 MLOAD PUSH32 0x8C379A000000000000000000000000000000000000000000000000000000000 DUP2 MSTORE PUSH1 0x4 ADD PUSH2 0x1B77 SWAP1 PUSH2 0x53ED JUMP JUMPDEST PUSH1 0x40 MLOAD DUP1 SWAP2 SUB SWAP1 REVERT JUMPDEST PUSH1 0x0 DUP3 PUSH1 0xFF AND EQ DUP1 PUSH2 0x1B95 JUMPI POP PUSH1 0x1 DUP3 PUSH1 0xFF AND EQ JUMPDEST PUSH2 0x1BD4 JUMPI PUSH1 0x40 MLOAD PUSH32 0x8C379A000000000000000000000000000000000000000000000000000000000 DUP2 MSTORE PUSH1 0x4 ADD PUSH2 0x1BCB SWAP1 PUSH2 0x552D JUMP JUMPDEST PUSH1 0x40 MLOAD DUP1 SWAP2 SUB SWAP1 REVERT JUMPDEST PUSH1 0x0 DUP3 PUSH1 0xFF AND EQ ISZERO PUSH2 0x1C33 JUMPI CALLER PUSH20 0xFFFFFFFFFFFFFFFFFFFFFFFFFFFFFFFFFFFFFFFF AND PUSH32 0x44D00596AEDD88FCA0607C9A84113FD638C9A070D5EF8D77C072080B688D8E34 DUP5 PUSH1 0x40 MLOAD PUSH2 0x1C26 SWAP2 SWAP1 PUSH2 0x5831 JUMP JUMPDEST PUSH1 0x40 MLOAD DUP1 SWAP2 SUB SWAP1 LOG2 PUSH2 0x1C8F JUMP JUMPDEST PUSH1 0x1 DUP3 PUSH1 0xFF AND EQ ISZERO PUSH2 0x1C8E JUMPI CALLER PUSH20 0xFFFFFFFFFFFFFFFFFFFFFFFFFFFFFFFFFFFFFFFF AND PUSH32 0x49B4D6E22C9904766197183F9DC1F362CEFB04F39E3850A8B7D83FF2C26216F DUP5 PUSH1 0x40 MLOAD PUSH2 0x1C85 SWAP2 SWAP1 PUSH2 0x5831 JUMP JUMPDEST PUSH1 0x40 MLOAD DUP1 SWAP2 SUB SWAP1 LOG2 JUMPDEST JUMPDEST PUSH1 0x8 PUSH1 0x0 SWAP1 SLOAD SWAP1 PUSH2 0x100 EXP SWAP1 DIV PUSH20 0xFFFFFFFFFFFFFFFFFFFFFFFFFFFFFFFFFFFFFFFF AND PUSH20 0xFFFFFFFFFFFFFFFFFFFFFFFFFFFFFFFFFFFFFFFF AND PUSH4 0x23B872DD CALLER ADDRESS DUP7 PUSH1 0x40 MLOAD DUP5 PUSH4 0xFFFFFFFF AND PUSH1 0xE0 SHL DUP2 MSTORE PUSH1 0x4 ADD PUSH2 0x1CEE SWAP4 SWAP3 SWAP2 SWAP1 PUSH2 0x5216 JUMP JUMPDEST PUSH1 0x20 PUSH1 0x40 MLOAD DUP1 DUP4 SUB DUP2 PUSH1 0x0 DUP8 DUP1 EXTCODESIZE ISZERO DUP1 ISZERO PUSH2 0x1D08 JUMPI PUSH1 0x0 DUP1 REVERT JUMPDEST POP GAS CALL ISZERO DUP1 ISZERO PUSH2 0x1D1C JUMPI RETURNDATASIZE PUSH1 0x0 DUP1 RETURNDATACOPY RETURNDATASIZE PUSH1 0x0 REVERT JUMPDEST POP POP POP POP PUSH1 0x40 MLOAD RETURNDATASIZE PUSH1 0x1F NOT PUSH1 0x1F DUP3 ADD AND DUP3 ADD DUP1 PUSH1 0x40 MSTORE POP DUP2 ADD SWAP1 PUSH2 0x1D40 SWAP2 SWAP1 PUSH2 0x47B8 JUMP JUMPDEST POP PUSH1 0xB PUSH1 0x0 CALLER PUSH20 0xFFFFFFFFFFFFFFFFFFFFFFFFFFFFFFFFFFFFFFFF AND PUSH20 0xFFFFFFFFFFFFFFFFFFFFFFFFFFFFFFFFFFFFFFFF AND DUP2 MSTORE PUSH1 0x20 ADD SWAP1 DUP2 MSTORE PUSH1 0x20 ADD PUSH1 0x0 KECCAK256 PUSH1 0x40 MLOAD DUP1 PUSH1 0x60 ADD PUSH1 0x40 MSTORE DUP1 DUP6 DUP2 MSTORE PUSH1 0x20 ADD DUP5 PUSH1 0xFF AND DUP2 MSTORE PUSH1 0x20 ADD PUSH1 0x7 SLOAD TIMESTAMP PUSH2 0x1DA8 SWAP2 SWAP1 PUSH2 0x5A4A JUMP JUMPDEST DUP2 MSTORE POP SWAP1 DUP1 PUSH1 0x1 DUP2 SLOAD ADD DUP1 DUP3 SSTORE DUP1 SWAP2 POP POP PUSH1 0x1 SWAP1 SUB SWAP1 PUSH1 0x0 MSTORE PUSH1 0x20 PUSH1 0x0 KECCAK256 SWAP1 PUSH1 0x3 MUL ADD PUSH1 0x0 SWAP1 SWAP2 SWAP1 SWAP2 SWAP1 SWAP2 POP PUSH1 0x0 DUP3 ADD MLOAD DUP2 PUSH1 0x0 ADD SSTORE PUSH1 0x20 DUP3 ADD MLOAD DUP2 PUSH1 0x1 ADD PUSH1 0x0 PUSH2 0x100 EXP DUP2 SLOAD DUP2 PUSH1 0xFF MUL NOT AND SWAP1 DUP4 PUSH1 0xFF AND MUL OR SWAP1 SSTORE POP PUSH1 0x40 DUP3 ADD MLOAD DUP2 PUSH1 0x2 ADD SSTORE POP POP POP POP POP JUMP JUMPDEST PUSH1 0x0 PUSH2 0x1E1A PUSH2 0x30AC JUMP JUMPDEST SWAP1 POP DUP3 PUSH4 0xFFFFFFFF AND PUSH1 0x0 LT DUP1 ISZERO PUSH2 0x1E38 JUMPI POP DUP1 DUP4 PUSH4 0xFFFFFFFF AND GT ISZERO JUMPDEST PUSH2 0x1E77 JUMPI PUSH1 0x40 MLOAD PUSH32 0x8C379A000000000000000000000000000000000000000000000000000000000 DUP2 MSTORE PUSH1 0x4 ADD PUSH2 0x1E6E SWAP1 PUSH2 0x570D JUMP JUMPDEST PUSH1 0x40 MLOAD DUP1 SWAP2 SUB SWAP1 REVERT JUMPDEST PUSH1 0x0 DUP3 PUSH1 0xFF AND EQ DUP1 PUSH2 0x1E8C JUMPI POP PUSH1 0x1 DUP3 PUSH1 0xFF AND EQ JUMPDEST PUSH2 0x1ECB JUMPI PUSH1 0x40 MLOAD PUSH32 0x8C379A000000000000000000000000000000000000000000000000000000000 DUP2 MSTORE PUSH1 0x4 ADD PUSH2 0x1EC2 SWAP1 PUSH2 0x548D JUMP JUMPDEST PUSH1 0x40 MLOAD DUP1 SWAP2 SUB SWAP1 REVERT JUMPDEST PUSH1 0x0 DUP3 PUSH1 0xFF AND EQ ISZERO PUSH2 0x20B4 JUMPI DUP4 PUSH1 0x9 PUSH1 0x0 SWAP1 SLOAD SWAP1 PUSH2 0x100 EXP SWAP1 DIV PUSH20 0xFFFFFFFFFFFFFFFFFFFFFFFFFFFFFFFFFFFFFFFF AND PUSH20 0xFFFFFFFFFFFFFFFFFFFFFFFFFFFFFFFFFFFFFFFF AND PUSH4 0x70A08231 CALLER PUSH1 0x40 MLOAD DUP3 PUSH4 0xFFFFFFFF AND PUSH1 0xE0 SHL DUP2 MSTORE PUSH1 0x4 ADD PUSH2 0x1F33 SWAP2 SWAP1 PUSH2 0x5150 JUMP JUMPDEST PUSH1 0x20 PUSH1 0x40 MLOAD DUP1 DUP4 SUB DUP2 DUP7 DUP1 EXTCODESIZE ISZERO DUP1 ISZERO PUSH2 0x1F4B JUMPI PUSH1 0x0 DUP1 REVERT JUMPDEST POP GAS STATICCALL ISZERO DUP1 ISZERO PUSH2 0x1F5F JUMPI RETURNDATASIZE PUSH1 0x0 DUP1 RETURNDATACOPY RETURNDATASIZE PUSH1 0x0 REVERT JUMPDEST POP POP POP POP PUSH1 0x40 MLOAD RETURNDATASIZE PUSH1 0x1F NOT PUSH1 0x1F DUP3 ADD AND DUP3 ADD DUP1 PUSH1 0x40 MSTORE POP DUP2 ADD SWAP1 PUSH2 0x1F83 SWAP2 SWAP1 PUSH2 0x4899 JUMP JUMPDEST LT ISZERO PUSH2 0x1FC4 JUMPI PUSH1 0x40 MLOAD PUSH32 0x8C379A000000000000000000000000000000000000000000000000000000000 DUP2 MSTORE PUSH1 0x4 ADD PUSH2 0x1FBB SWAP1 PUSH2 0x57AD JUMP JUMPDEST PUSH1 0x40 MLOAD DUP1 SWAP2 SUB SWAP1 REVERT JUMPDEST PUSH1 0x9 PUSH1 0x0 SWAP1 SLOAD SWAP1 PUSH2 0x100 EXP SWAP1 DIV PUSH20 0xFFFFFFFFFFFFFFFFFFFFFFFFFFFFFFFFFFFFFFFF AND PUSH20 0xFFFFFFFFFFFFFFFFFFFFFFFFFFFFFFFFFFFFFFFF AND PUSH4 0x23B872DD CALLER ADDRESS DUP8 PUSH1 0x40 MLOAD DUP5 PUSH4 0xFFFFFFFF AND PUSH1 0xE0 SHL DUP2 MSTORE PUSH1 0x4 ADD PUSH2 0x2023 SWAP4 SWAP3 SWAP2 SWAP1 PUSH2 0x5216 JUMP JUMPDEST PUSH1 0x20 PUSH1 0x40 MLOAD DUP1 DUP4 SUB DUP2 PUSH1 0x0 DUP8 DUP1 EXTCODESIZE ISZERO DUP1 ISZERO PUSH2 0x203D JUMPI PUSH1 0x0 DUP1 REVERT JUMPDEST POP GAS CALL ISZERO DUP1 ISZERO PUSH2 0x2051 JUMPI RETURNDATASIZE PUSH1 0x0 DUP1 RETURNDATACOPY RETURNDATASIZE PUSH1 0x0 REVERT JUMPDEST POP POP POP POP PUSH1 0x40 MLOAD RETURNDATASIZE PUSH1 0x1F NOT PUSH1 0x1F DUP3 ADD AND DUP3 ADD DUP1 PUSH1 0x40 MSTORE POP DUP2 ADD SWAP1 PUSH2 0x2075 SWAP2 SWAP1 PUSH2 0x47B8 JUMP JUMPDEST POP DUP4 PUSH1 0xF DUP5 PUSH4 0xFFFFFFFF AND PUSH2 0x2710 DUP2 LT PUSH2 0x2092 JUMPI PUSH2 0x2091 PUSH2 0x5F41 JUMP JUMPDEST JUMPDEST PUSH1 0x3 MUL ADD PUSH1 0x0 ADD PUSH1 0x0 DUP3 DUP3 SLOAD PUSH2 0x20A8 SWAP2 SWAP1 PUSH2 0x5A4A JUMP JUMPDEST SWAP3 POP POP DUP2 SWAP1 SSTORE POP PUSH2 0x229A JUMP JUMPDEST PUSH1 0x1 DUP3 PUSH1 0xFF AND EQ ISZERO PUSH2 0x2299 JUMPI DUP4 PUSH1 0xA PUSH1 0x0 SWAP1 SLOAD SWAP1 PUSH2 0x100 EXP SWAP1 DIV PUSH20 0xFFFFFFFFFFFFFFFFFFFFFFFFFFFFFFFFFFFFFFFF AND PUSH20 0xFFFFFFFFFFFFFFFFFFFFFFFFFFFFFFFFFFFFFFFF AND PUSH4 0x70A08231 CALLER PUSH1 0x40 MLOAD DUP3 PUSH4 0xFFFFFFFF AND PUSH1 0xE0 SHL DUP2 MSTORE PUSH1 0x4 ADD PUSH2 0x211C SWAP2 SWAP1 PUSH2 0x5150 JUMP JUMPDEST PUSH1 0x20 PUSH1 0x40 MLOAD DUP1 DUP4 SUB DUP2 DUP7 DUP1 EXTCODESIZE ISZERO DUP1 ISZERO PUSH2 0x2134 JUMPI PUSH1 0x0 DUP1 REVERT JUMPDEST POP GAS STATICCALL ISZERO DUP1 ISZERO PUSH2 0x2148 JUMPI RETURNDATASIZE PUSH1 0x0 DUP1 RETURNDATACOPY RETURNDATASIZE PUSH1 0x0 REVERT JUMPDEST POP POP POP POP PUSH1 0x40 MLOAD RETURNDATASIZE PUSH1 0x1F NOT PUSH1 0x1F DUP3 ADD AND DUP3 ADD DUP1 PUSH1 0x40 MSTORE POP DUP2 ADD SWAP1 PUSH2 0x216C SWAP2 SWAP1 PUSH2 0x4899 JUMP JUMPDEST LT ISZERO PUSH2 0x21AD JUMPI PUSH1 0x40 MLOAD PUSH32 0x8C379A000000000000000000000000000000000000000000000000000000000 DUP2 MSTORE PUSH1 0x4 ADD PUSH2 0x21A4 SWAP1 PUSH2 0x554D JUMP JUMPDEST PUSH1 0x40 MLOAD DUP1 SWAP2 SUB SWAP1 REVERT JUMPDEST PUSH1 0xA PUSH1 0x0 SWAP1 SLOAD SWAP1 PUSH2 0x100 EXP SWAP1 DIV PUSH20 0xFFFFFFFFFFFFFFFFFFFFFFFFFFFFFFFFFFFFFFFF AND PUSH20 0xFFFFFFFFFFFFFFFFFFFFFFFFFFFFFFFFFFFFFFFF AND PUSH4 0x23B872DD CALLER ADDRESS DUP8 PUSH1 0x40 MLOAD DUP5 PUSH4 0xFFFFFFFF AND PUSH1 0xE0 SHL DUP2 MSTORE PUSH1 0x4 ADD PUSH2 0x220C SWAP4 SWAP3 SWAP2 SWAP1 PUSH2 0x5216 JUMP JUMPDEST PUSH1 0x20 PUSH1 0x40 MLOAD DUP1 DUP4 SUB DUP2 PUSH1 0x0 DUP8 DUP1 EXTCODESIZE ISZERO DUP1 ISZERO PUSH2 0x2226 JUMPI PUSH1 0x0 DUP1 REVERT JUMPDEST POP GAS CALL ISZERO DUP1 ISZERO PUSH2 0x223A JUMPI RETURNDATASIZE PUSH1 0x0 DUP1 RETURNDATACOPY RETURNDATASIZE PUSH1 0x0 REVERT JUMPDEST POP POP POP POP PUSH1 0x40 MLOAD RETURNDATASIZE PUSH1 0x1F NOT PUSH1 0x1F DUP3 ADD AND DUP3 ADD DUP1 PUSH1 0x40 MSTORE POP DUP2 ADD SWAP1 PUSH2 0x225E SWAP2 SWAP1 PUSH2 0x47B8 JUMP JUMPDEST POP DUP4 PUSH1 0xF DUP5 PUSH4 0xFFFFFFFF AND PUSH2 0x2710 DUP2 LT PUSH2 0x227B JUMPI PUSH2 0x227A PUSH2 0x5F41 JUMP JUMPDEST JUMPDEST PUSH1 0x3 MUL ADD PUSH1 0x1 ADD PUSH1 0x0 DUP3 DUP3 SLOAD PUSH2 0x2291 SWAP2 SWAP1 PUSH2 0x5A4A JUMP JUMPDEST SWAP3 POP POP DUP2 SWAP1 SSTORE POP JUMPDEST JUMPDEST POP POP POP POP JUMP JUMPDEST PUSH1 0x0 DUP1 PUSH1 0x0 PUSH2 0x22AD PUSH2 0x30AC JUMP JUMPDEST DUP5 PUSH4 0xFFFFFFFF AND GT ISZERO PUSH2 0x22F5 JUMPI PUSH1 0x40 MLOAD PUSH32 0x8C379A000000000000000000000000000000000000000000000000000000000 DUP2 MSTORE PUSH1 0x4 ADD PUSH2 0x22EC SWAP1 PUSH2 0x54ED JUMP JUMPDEST PUSH1 0x40 MLOAD DUP1 SWAP2 SUB SWAP1 REVERT JUMPDEST PUSH1 0xF DUP5 PUSH4 0xFFFFFFFF AND PUSH2 0x2710 DUP2 LT PUSH2 0x2310 JUMPI PUSH2 0x230F PUSH2 0x5F41 JUMP JUMPDEST JUMPDEST PUSH1 0x3 MUL ADD PUSH1 0x0 ADD SLOAD SWAP3 POP PUSH1 0xF DUP5 PUSH4 0xFFFFFFFF AND PUSH2 0x2710 DUP2 LT PUSH2 0x2335 JUMPI PUSH2 0x2334 PUSH2 0x5F41 JUMP JUMPDEST JUMPDEST PUSH1 0x3 MUL ADD PUSH1 0x1 ADD SLOAD SWAP2 POP TIMESTAMP PUSH1 0xF DUP6 PUSH4 0xFFFFFFFF AND PUSH2 0x2710 DUP2 LT PUSH2 0x235B JUMPI PUSH2 0x235A PUSH2 0x5F41 JUMP JUMPDEST JUMPDEST PUSH1 0x3 MUL ADD PUSH1 0x2 ADD SLOAD LT ISZERO SWAP1 POP SWAP2 SWAP4 SWAP1 SWAP3 POP JUMP JUMPDEST PUSH1 0xE DUP1 SLOAD PUSH2 0x237B SWAP1 PUSH2 0x5D72 JUMP JUMPDEST DUP1 PUSH1 0x1F ADD PUSH1 0x20 DUP1 SWAP2 DIV MUL PUSH1 0x20 ADD PUSH1 0x40 MLOAD SWAP1 DUP2 ADD PUSH1 0x40 MSTORE DUP1 SWAP3 SWAP2 SWAP1 DUP2 DUP2 MSTORE PUSH1 0x20 ADD DUP3 DUP1 SLOAD PUSH2 0x23A7 SWAP1 PUSH2 0x5D72 JUMP JUMPDEST DUP1 ISZERO PUSH2 0x23F4 JUMPI DUP1 PUSH1 0x1F LT PUSH2 0x23C9 JUMPI PUSH2 0x100 DUP1 DUP4 SLOAD DIV MUL DUP4 MSTORE SWAP2 PUSH1 0x20 ADD SWAP2 PUSH2 0x23F4 JUMP JUMPDEST DUP3 ADD SWAP2 SWAP1 PUSH1 0x0 MSTORE PUSH1 0x20 PUSH1 0x0 KECCAK256 SWAP1 JUMPDEST DUP2 SLOAD DUP2 MSTORE SWAP1 PUSH1 0x1 ADD SWAP1 PUSH1 0x20 ADD DUP1 DUP4 GT PUSH2 0x23D7 JUMPI DUP3 SWAP1 SUB PUSH1 0x1F AND DUP3 ADD SWAP2 JUMPDEST POP POP POP POP POP DUP2 JUMP JUMPDEST PUSH1 0x0 DUP1 PUSH1 0x0 PUSH2 0x2409 PUSH2 0x30AC JUMP JUMPDEST SWAP1 POP DUP1 DUP5 PUSH2 0xFFFF AND GT ISZERO PUSH2 0x2452 JUMPI PUSH1 0x40 MLOAD PUSH32 0x8C379A000000000000000000000000000000000000000000000000000000000 DUP2 MSTORE PUSH1 0x4 ADD PUSH2 0x2449 SWAP1 PUSH2 0x56CD JUMP JUMPDEST PUSH1 0x40 MLOAD DUP1 SWAP2 SUB SWAP1 REVERT JUMPDEST PUSH2 0x245B DUP5 PUSH2 0x3C46 JUMP JUMPDEST SWAP3 POP PUSH2 0x2466 DUP5 PUSH2 0x3C5C JUMP JUMPDEST SWAP2 POP DUP1 DUP4 PUSH2 0xFFFF AND GT ISZERO PUSH2 0x2479 JUMPI PUSH1 0x0 SWAP3 POP JUMPDEST DUP1 DUP3 PUSH2 0xFFFF AND GT ISZERO PUSH2 0x248A JUMPI PUSH1 0x0 SWAP2 POP JUMPDEST POP SWAP2 POP SWAP2 JUMP JUMPDEST PUSH1 0x0 DUP1 PUSH1 0x2 PUSH1 0x0 DUP5 DUP2 MSTORE PUSH1 0x20 ADD SWAP1 DUP2 MSTORE PUSH1 0x20 ADD PUSH1 0x0 KECCAK256 PUSH1 0x0 SWAP1 SLOAD SWAP1 PUSH2 0x100 EXP SWAP1 DIV PUSH20 0xFFFFFFFFFFFFFFFFFFFFFFFFFFFFFFFFFFFFFFFF AND SWAP1 POP PUSH1 0x0 PUSH20 0xFFFFFFFFFFFFFFFFFFFFFFFFFFFFFFFFFFFFFFFF AND DUP2 PUSH20 0xFFFFFFFFFFFFFFFFFFFFFFFFFFFFFFFFFFFFFFFF AND EQ ISZERO PUSH2 0x2539 JUMPI PUSH1 0x40 MLOAD PUSH32 0x8C379A000000000000000000000000000000000000000000000000000000000 DUP2 MSTORE PUSH1 0x4 ADD PUSH2 0x2530 SWAP1 PUSH2 0x55CD JUMP JUMPDEST PUSH1 0x40 MLOAD DUP1 SWAP2 SUB SWAP1 REVERT JUMPDEST DUP1 SWAP2 POP POP SWAP2 SWAP1 POP JUMP JUMPDEST PUSH1 0x60 PUSH1 0xE PUSH2 0x254F DUP4 PUSH2 0x3C7A JUMP JUMPDEST PUSH1 0x40 MLOAD PUSH1 0x20 ADD PUSH2 0x2560 SWAP3 SWAP2 SWAP1 PUSH2 0x5100 JUMP JUMPDEST PUSH1 0x40 MLOAD PUSH1 0x20 DUP2 DUP4 SUB SUB DUP2 MSTORE SWAP1 PUSH1 0x40 MSTORE SWAP1 POP SWAP2 SWAP1 POP JUMP JUMPDEST PUSH1 0x6 PUSH1 0x3 SWAP1 SLOAD SWAP1 PUSH2 0x100 EXP SWAP1 DIV PUSH1 0xFF AND DUP2 JUMP JUMPDEST PUSH1 0x0 DUP1 PUSH20 0xFFFFFFFFFFFFFFFFFFFFFFFFFFFFFFFFFFFFFFFF AND DUP3 PUSH20 0xFFFFFFFFFFFFFFFFFFFFFFFFFFFFFFFFFFFFFFFF AND EQ ISZERO PUSH2 0x25FA JUMPI PUSH1 0x40 MLOAD PUSH32 0x8C379A000000000000000000000000000000000000000000000000000000000 DUP2 MSTORE PUSH1 0x4 ADD PUSH2 0x25F1 SWAP1 PUSH2 0x55AD JUMP JUMPDEST PUSH1 0x40 MLOAD DUP1 SWAP2 SUB SWAP1 REVERT JUMPDEST PUSH1 0x3 PUSH1 0x0 DUP4 PUSH20 0xFFFFFFFFFFFFFFFFFFFFFFFFFFFFFFFFFFFFFFFF AND PUSH20 0xFFFFFFFFFFFFFFFFFFFFFFFFFFFFFFFFFFFFFFFF AND DUP2 MSTORE PUSH1 0x20 ADD SWAP1 DUP2 MSTORE PUSH1 0x20 ADD PUSH1 0x0 KECCAK256 SLOAD SWAP1 POP SWAP2 SWAP1 POP JUMP JUMPDEST PUSH1 0x0 DUP1 PUSH2 0x264C PUSH2 0x30AC JUMP JUMPDEST SWAP1 POP DUP3 PUSH2 0xFFFF AND PUSH1 0x0 LT DUP1 ISZERO PUSH2 0x2666 JUMPI POP DUP1 DUP4 PUSH2 0xFFFF AND GT ISZERO JUMPDEST PUSH2 0x26A5 JUMPI PUSH1 0x40 MLOAD PUSH32 0x8C379A000000000000000000000000000000000000000000000000000000000 DUP2 MSTORE PUSH1 0x4 ADD PUSH2 0x269C SWAP1 PUSH2 0x56CD JUMP JUMPDEST PUSH1 0x40 MLOAD DUP1 SWAP2 SUB SWAP1 REVERT JUMPDEST PUSH1 0x1 DUP4 PUSH2 0xFFFF AND EQ ISZERO PUSH2 0x26BB JUMPI PUSH1 0x0 SWAP2 POP PUSH2 0x2705 JUMP JUMPDEST PUSH1 0x0 PUSH1 0x2 DUP5 PUSH2 0x26CA SWAP2 SWAP1 PUSH2 0x5E52 JUMP JUMPDEST PUSH2 0xFFFF AND EQ ISZERO PUSH2 0x26E8 JUMPI PUSH1 0x2 DUP4 PUSH2 0x26E1 SWAP2 SWAP1 PUSH2 0x5AD7 JUMP JUMPDEST SWAP2 POP PUSH2 0x2704 JUMP JUMPDEST PUSH1 0x2 PUSH1 0x1 DUP5 PUSH2 0x26F7 SWAP2 SWAP1 PUSH2 0x5BCF JUMP JUMPDEST PUSH2 0x2701 SWAP2 SWAP1 PUSH2 0x5AD7 JUMP JUMPDEST SWAP2 POP JUMPDEST JUMPDEST POP SWAP2 SWAP1 POP JUMP JUMPDEST PUSH1 0x9 PUSH1 0x0 SWAP1 SLOAD SWAP1 PUSH2 0x100 EXP SWAP1 DIV PUSH20 0xFFFFFFFFFFFFFFFFFFFFFFFFFFFFFFFFFFFFFFFF AND DUP2 JUMP JUMPDEST PUSH2 0x2739 PUSH2 0x4491 JUMP JUMPDEST PUSH1 0x0 JUMPDEST PUSH1 0xB PUSH1 0x0 CALLER PUSH20 0xFFFFFFFFFFFFFFFFFFFFFFFFFFFFFFFFFFFFFFFF AND PUSH20 0xFFFFFFFFFFFFFFFFFFFFFFFFFFFFFFFFFFFFFFFF AND DUP2 MSTORE PUSH1 0x20 ADD SWAP1 DUP2 MSTORE PUSH1 0x20 ADD PUSH1 0x0 KECCAK256 DUP1 SLOAD SWAP1 POP DUP2 LT ISZERO PUSH2 0x2900 JUMPI PUSH1 0x0 PUSH1 0xB PUSH1 0x0 CALLER PUSH20 0xFFFFFFFFFFFFFFFFFFFFFFFFFFFFFFFFFFFFFFFF AND PUSH20 0xFFFFFFFFFFFFFFFFFFFFFFFFFFFFFFFFFFFFFFFF AND DUP2 MSTORE PUSH1 0x20 ADD SWAP1 DUP2 MSTORE PUSH1 0x20 ADD PUSH1 0x0 KECCAK256 DUP3 DUP2 SLOAD DUP2 LT PUSH2 0x27D9 JUMPI PUSH2 0x27D8 PUSH2 0x5F41 JUMP JUMPDEST JUMPDEST SWAP1 PUSH1 0x0 MSTORE PUSH1 0x20 PUSH1 0x0 KECCAK256 SWAP1 PUSH1 0x3 MUL ADD PUSH1 0x40 MLOAD DUP1 PUSH1 0x60 ADD PUSH1 0x40 MSTORE SWAP1 DUP2 PUSH1 0x0 DUP3 ADD SLOAD DUP2 MSTORE PUSH1 0x20 ADD PUSH1 0x1 DUP3 ADD PUSH1 0x0 SWAP1 SLOAD SWAP1 PUSH2 0x100 EXP SWAP1 DIV PUSH1 0xFF AND PUSH1 0xFF AND PUSH1 0xFF AND DUP2 MSTORE PUSH1 0x20 ADD PUSH1 0x2 DUP3 ADD SLOAD DUP2 MSTORE POP POP SWAP1 POP PUSH1 0x0 DUP2 PUSH1 0x20 ADD MLOAD PUSH1 0xFF AND EQ ISZERO PUSH2 0x288A JUMPI TIMESTAMP DUP2 PUSH1 0x40 ADD MLOAD GT ISZERO PUSH2 0x2865 JUMPI PUSH1 0x16 DUP4 PUSH1 0x0 PUSH1 0x2 DUP2 LT PUSH2 0x2857 JUMPI PUSH2 0x2856 PUSH2 0x5F41 JUMP JUMPDEST JUMPDEST PUSH1 0x20 MUL ADD DUP2 DUP2 MSTORE POP POP PUSH2 0x2885 JUMP JUMPDEST PUSH1 0x0 DUP4 PUSH1 0x0 PUSH1 0x2 DUP2 LT PUSH2 0x287B JUMPI PUSH2 0x287A PUSH2 0x5F41 JUMP JUMPDEST JUMPDEST PUSH1 0x20 MUL ADD DUP2 DUP2 MSTORE POP POP JUMPDEST PUSH2 0x28EC JUMP JUMPDEST PUSH1 0x1 DUP2 PUSH1 0x20 ADD MLOAD PUSH1 0xFF AND EQ ISZERO PUSH2 0x28EB JUMPI TIMESTAMP DUP2 PUSH1 0x40 ADD MLOAD GT ISZERO PUSH2 0x28CA JUMPI PUSH1 0x17 DUP4 PUSH1 0x1 PUSH1 0x2 DUP2 LT PUSH2 0x28BC JUMPI PUSH2 0x28BB PUSH2 0x5F41 JUMP JUMPDEST JUMPDEST PUSH1 0x20 MUL ADD DUP2 DUP2 MSTORE POP POP PUSH2 0x28EA JUMP JUMPDEST PUSH1 0x0 DUP4 PUSH1 0x1 PUSH1 0x2 DUP2 LT PUSH2 0x28E0 JUMPI PUSH2 0x28DF PUSH2 0x5F41 JUMP JUMPDEST JUMPDEST PUSH1 0x20 MUL ADD DUP2 DUP2 MSTORE POP POP JUMPDEST JUMPDEST JUMPDEST POP DUP1 DUP1 PUSH2 0x28F8 SWAP1 PUSH2 0x5DD5 JUMP JUMPDEST SWAP2 POP POP PUSH2 0x273C JUMP JUMPDEST POP SWAP1 JUMP JUMPDEST PUSH1 0x0 JUMPDEST PUSH1 0xB PUSH1 0x0 CALLER PUSH20 0xFFFFFFFFFFFFFFFFFFFFFFFFFFFFFFFFFFFFFFFF AND PUSH20 0xFFFFFFFFFFFFFFFFFFFFFFFFFFFFFFFFFFFFFFFF AND DUP2 MSTORE PUSH1 0x20 ADD SWAP1 DUP2 MSTORE PUSH1 0x20 ADD PUSH1 0x0 KECCAK256 DUP1 SLOAD SWAP1 POP DUP2 LT ISZERO PUSH2 0x2D22 JUMPI PUSH1 0x0 PUSH1 0xB PUSH1 0x0 CALLER PUSH20 0xFFFFFFFFFFFFFFFFFFFFFFFFFFFFFFFFFFFFFFFF AND PUSH20 0xFFFFFFFFFFFFFFFFFFFFFFFFFFFFFFFFFFFFFFFF AND DUP2 MSTORE PUSH1 0x20 ADD SWAP1 DUP2 MSTORE PUSH1 0x20 ADD PUSH1 0x0 KECCAK256 DUP3 DUP2 SLOAD DUP2 LT PUSH2 0x29A4 JUMPI PUSH2 0x29A3 PUSH2 0x5F41 JUMP JUMPDEST JUMPDEST SWAP1 PUSH1 0x0 MSTORE PUSH1 0x20 PUSH1 0x0 KECCAK256 SWAP1 PUSH1 0x3 MUL ADD PUSH1 0x40 MLOAD DUP1 PUSH1 0x60 ADD PUSH1 0x40 MSTORE SWAP1 DUP2 PUSH1 0x0 DUP3 ADD SLOAD DUP2 MSTORE PUSH1 0x20 ADD PUSH1 0x1 DUP3 ADD PUSH1 0x0 SWAP1 SLOAD SWAP1 PUSH2 0x100 EXP SWAP1 DIV PUSH1 0xFF AND PUSH1 0xFF AND PUSH1 0xFF AND DUP2 MSTORE PUSH1 0x20 ADD PUSH1 0x2 DUP3 ADD SLOAD DUP2 MSTORE POP POP SWAP1 POP TIMESTAMP DUP2 PUSH1 0x40 ADD MLOAD LT ISZERO PUSH2 0x2D0E JUMPI PUSH1 0x0 DUP2 PUSH1 0x20 ADD MLOAD PUSH1 0xFF AND EQ ISZERO PUSH2 0x2B43 JUMPI PUSH1 0x0 PUSH1 0x6 PUSH1 0x1 SWAP1 SLOAD SWAP1 PUSH2 0x100 EXP SWAP1 DIV PUSH1 0xFF AND PUSH1 0xFF AND DUP3 PUSH1 0x0 ADD MLOAD PUSH2 0x2A30 SWAP2 SWAP1 PUSH2 0x5B08 JUMP JUMPDEST SWAP1 POP PUSH2 0x2A3F DUP3 PUSH1 0x0 ADD MLOAD PUSH2 0x3E03 JUMP JUMPDEST PUSH1 0x9 PUSH1 0x0 SWAP1 SLOAD SWAP1 PUSH2 0x100 EXP SWAP1 DIV PUSH20 0xFFFFFFFFFFFFFFFFFFFFFFFFFFFFFFFFFFFFFFFF AND PUSH20 0xFFFFFFFFFFFFFFFFFFFFFFFFFFFFFFFFFFFFFFFF AND PUSH4 0xA9059CBB CALLER DUP4 PUSH1 0x40 MLOAD DUP4 PUSH4 0xFFFFFFFF AND PUSH1 0xE0 SHL DUP2 MSTORE PUSH1 0x4 ADD PUSH2 0x2A9C SWAP3 SWAP2 SWAP1 PUSH2 0x5299 JUMP JUMPDEST PUSH1 0x20 PUSH1 0x40 MLOAD DUP1 DUP4 SUB DUP2 PUSH1 0x0 DUP8 DUP1 EXTCODESIZE ISZERO DUP1 ISZERO PUSH2 0x2AB6 JUMPI PUSH1 0x0 DUP1 REVERT JUMPDEST POP GAS CALL ISZERO DUP1 ISZERO PUSH2 0x2ACA JUMPI RETURNDATASIZE PUSH1 0x0 DUP1 RETURNDATACOPY RETURNDATASIZE PUSH1 0x0 REVERT JUMPDEST POP POP POP POP PUSH1 0x40 MLOAD RETURNDATASIZE PUSH1 0x1F NOT PUSH1 0x1F DUP3 ADD AND DUP3 ADD DUP1 PUSH1 0x40 MSTORE POP DUP2 ADD SWAP1 PUSH2 0x2AEE SWAP2 SWAP1 PUSH2 0x47B8 JUMP JUMPDEST POP CALLER PUSH20 0xFFFFFFFFFFFFFFFFFFFFFFFFFFFFFFFFFFFFFFFF AND PUSH32 0x9FD4A9248425079A398923CD20DAA8E0C103907FB89DB4707CB4F2CC343F9546 DUP3 PUSH1 0x40 MLOAD PUSH2 0x2B35 SWAP2 SWAP1 PUSH2 0x5831 JUMP JUMPDEST PUSH1 0x40 MLOAD DUP1 SWAP2 SUB SWAP1 LOG2 POP PUSH2 0x2C87 JUMP JUMPDEST PUSH1 0x1 DUP2 PUSH1 0x20 ADD MLOAD PUSH1 0xFF AND EQ ISZERO PUSH2 0x2C86 JUMPI PUSH1 0x0 PUSH1 0x6 PUSH1 0x2 SWAP1 SLOAD SWAP1 PUSH2 0x100 EXP SWAP1 DIV PUSH1 0xFF AND PUSH1 0xFF AND DUP3 PUSH1 0x0 ADD MLOAD PUSH2 0x2B77 SWAP2 SWAP1 PUSH2 0x5B08 JUMP JUMPDEST SWAP1 POP PUSH2 0x2B86 DUP3 PUSH1 0x0 ADD MLOAD PUSH2 0x3E03 JUMP JUMPDEST PUSH1 0xA PUSH1 0x0 SWAP1 SLOAD SWAP1 PUSH2 0x100 EXP SWAP1 DIV PUSH20 0xFFFFFFFFFFFFFFFFFFFFFFFFFFFFFFFFFFFFFFFF AND PUSH20 0xFFFFFFFFFFFFFFFFFFFFFFFFFFFFFFFFFFFFFFFF AND PUSH4 0xA9059CBB CALLER DUP4 PUSH1 0x40 MLOAD DUP4 PUSH4 0xFFFFFFFF AND PUSH1 0xE0 SHL DUP2 MSTORE PUSH1 0x4 ADD PUSH2 0x2BE3 SWAP3 SWAP2 SWAP1 PUSH2 0x5299 JUMP JUMPDEST PUSH1 0x20 PUSH1 0x40 MLOAD DUP1 DUP4 SUB DUP2 PUSH1 0x0 DUP8 DUP1 EXTCODESIZE ISZERO DUP1 ISZERO PUSH2 0x2BFD JUMPI PUSH1 0x0 DUP1 REVERT JUMPDEST POP GAS CALL ISZERO DUP1 ISZERO PUSH2 0x2C11 JUMPI RETURNDATASIZE PUSH1 0x0 DUP1 RETURNDATACOPY RETURNDATASIZE PUSH1 0x0 REVERT JUMPDEST POP POP POP POP PUSH1 0x40 MLOAD RETURNDATASIZE PUSH1 0x1F NOT PUSH1 0x1F DUP3 ADD AND DUP3 ADD DUP1 PUSH1 0x40 MSTORE POP DUP2 ADD SWAP1 PUSH2 0x2C35 SWAP2 SWAP1 PUSH2 0x47B8 JUMP JUMPDEST POP CALLER PUSH20 0xFFFFFFFFFFFFFFFFFFFFFFFFFFFFFFFFFFFFFFFF AND PUSH32 0xD62AEB2DF4F1C7A0C59E15C0DCA22CCBCBE42AD0D0DBF99A22C0AD2551C5A155 DUP3 PUSH1 0x40 MLOAD PUSH2 0x2C7C SWAP2 SWAP1 PUSH2 0x5831 JUMP JUMPDEST PUSH1 0x40 MLOAD DUP1 SWAP2 SUB SWAP1 LOG2 POP JUMPDEST JUMPDEST PUSH1 0xB PUSH1 0x0 CALLER PUSH20 0xFFFFFFFFFFFFFFFFFFFFFFFFFFFFFFFFFFFFFFFF AND PUSH20 0xFFFFFFFFFFFFFFFFFFFFFFFFFFFFFFFFFFFFFFFF AND DUP2 MSTORE PUSH1 0x20 ADD SWAP1 DUP2 MSTORE PUSH1 0x20 ADD PUSH1 0x0 KECCAK256 DUP3 DUP2 SLOAD DUP2 LT PUSH2 0x2CD8 JUMPI PUSH2 0x2CD7 PUSH2 0x5F41 JUMP JUMPDEST JUMPDEST SWAP1 PUSH1 0x0 MSTORE PUSH1 0x20 PUSH1 0x0 KECCAK256 SWAP1 PUSH1 0x3 MUL ADD PUSH1 0x0 DUP1 DUP3 ADD PUSH1 0x0 SWAP1 SSTORE PUSH1 0x1 DUP3 ADD PUSH1 0x0 PUSH2 0x100 EXP DUP2 SLOAD SWAP1 PUSH1 0xFF MUL NOT AND SWAP1 SSTORE PUSH1 0x2 DUP3 ADD PUSH1 0x0 SWAP1 SSTORE POP POP JUMPDEST POP DUP1 DUP1 PUSH2 0x2D1A SWAP1 PUSH2 0x5DD5 JUMP JUMPDEST SWAP2 POP POP PUSH2 0x2907 JUMP JUMPDEST POP JUMP JUMPDEST PUSH1 0x8 PUSH1 0x0 SWAP1 SLOAD SWAP1 PUSH2 0x100 EXP SWAP1 DIV PUSH20 0xFFFFFFFFFFFFFFFFFFFFFFFFFFFFFFFFFFFFFFFF AND DUP2 JUMP JUMPDEST PUSH1 0x60 PUSH1 0x1 DUP1 SLOAD PUSH2 0x2D5A SWAP1 PUSH2 0x5D72 JUMP JUMPDEST DUP1 PUSH1 0x1F ADD PUSH1 0x20 DUP1 SWAP2 DIV MUL PUSH1 0x20 ADD PUSH1 0x40 MLOAD SWAP1 DUP2 ADD PUSH1 0x40 MSTORE DUP1 SWAP3 SWAP2 SWAP1 DUP2 DUP2 MSTORE PUSH1 0x20 ADD DUP3 DUP1 SLOAD PUSH2 0x2D86 SWAP1 PUSH2 0x5D72 JUMP JUMPDEST DUP1 ISZERO PUSH2 0x2DD3 JUMPI DUP1 PUSH1 0x1F LT PUSH2 0x2DA8 JUMPI PUSH2 0x100 DUP1 DUP4 SLOAD DIV MUL DUP4 MSTORE SWAP2 PUSH1 0x20 ADD SWAP2 PUSH2 0x2DD3 JUMP JUMPDEST DUP3 ADD SWAP2 SWAP1 PUSH1 0x0 MSTORE PUSH1 0x20 PUSH1 0x0 KECCAK256 SWAP1 JUMPDEST DUP2 SLOAD DUP2 MSTORE SWAP1 PUSH1 0x1 ADD SWAP1 PUSH1 0x20 ADD DUP1 DUP4 GT PUSH2 0x2DB6 JUMPI DUP3 SWAP1 SUB PUSH1 0x1F AND DUP3 ADD SWAP2 JUMPDEST POP POP POP POP POP SWAP1 POP SWAP1 JUMP JUMPDEST PUSH2 0x2DE5 PUSH2 0x362B JUMP JUMPDEST PUSH20 0xFFFFFFFFFFFFFFFFFFFFFFFFFFFFFFFFFFFFFFFF AND DUP3 PUSH20 0xFFFFFFFFFFFFFFFFFFFFFFFFFFFFFFFFFFFFFFFF AND EQ ISZERO PUSH2 0x2E53 JUMPI PUSH1 0x40 MLOAD PUSH32 0x8C379A000000000000000000000000000000000000000000000000000000000 DUP2 MSTORE PUSH1 0x4 ADD PUSH2 0x2E4A SWAP1 PUSH2 0x54CD JUMP JUMPDEST PUSH1 0x40 MLOAD DUP1 SWAP2 SUB SWAP1 REVERT JUMPDEST DUP1 PUSH1 0x5 PUSH1 0x0 PUSH2 0x2E60 PUSH2 0x362B JUMP JUMPDEST PUSH20 0xFFFFFFFFFFFFFFFFFFFFFFFFFFFFFFFFFFFFFFFF AND PUSH20 0xFFFFFFFFFFFFFFFFFFFFFFFFFFFFFFFFFFFFFFFF AND DUP2 MSTORE PUSH1 0x20 ADD SWAP1 DUP2 MSTORE PUSH1 0x20 ADD PUSH1 0x0 KECCAK256 PUSH1 0x0 DUP5 PUSH20 0xFFFFFFFFFFFFFFFFFFFFFFFFFFFFFFFFFFFFFFFF AND PUSH20 0xFFFFFFFFFFFFFFFFFFFFFFFFFFFFFFFFFFFFFFFF AND DUP2 MSTORE PUSH1 0x20 ADD SWAP1 DUP2 MSTORE PUSH1 0x20 ADD PUSH1 0x0 KECCAK256 PUSH1 0x0 PUSH2 0x100 EXP DUP2 SLOAD DUP2 PUSH1 0xFF MUL NOT AND SWAP1 DUP4 ISZERO ISZERO MUL OR SWAP1 SSTORE POP DUP2 PUSH20 0xFFFFFFFFFFFFFFFFFFFFFFFFFFFFFFFFFFFFFFFF AND PUSH2 0x2F0D PUSH2 0x362B JUMP JUMPDEST PUSH20 0xFFFFFFFFFFFFFFFFFFFFFFFFFFFFFFFFFFFFFFFF AND PUSH32 0x17307EAB39AB6107E8899845AD3D59BD9653F200F220920489CA2B5937696C31 DUP4 PUSH1 0x40 MLOAD PUSH2 0x2F52 SWAP2 SWAP1 PUSH2 0x52FF JUMP JUMPDEST PUSH1 0x40 MLOAD DUP1 SWAP2 SUB SWAP1 LOG3 POP POP JUMP JUMPDEST PUSH2 0x2F6F PUSH2 0x2F69 PUSH2 0x362B JUMP JUMPDEST DUP4 PUSH2 0x36EC JUMP JUMPDEST PUSH2 0x2FAE JUMPI PUSH1 0x40 MLOAD PUSH32 0x8C379A000000000000000000000000000000000000000000000000000000000 DUP2 MSTORE PUSH1 0x4 ADD PUSH2 0x2FA5 SWAP1 PUSH2 0x572D JUMP JUMPDEST PUSH1 0x40 MLOAD DUP1 SWAP2 SUB SWAP1 REVERT JUMPDEST PUSH2 0x2FBA DUP5 DUP5 DUP5 DUP5 PUSH2 0x3F40 JUMP JUMPDEST POP POP POP POP JUMP JUMPDEST PUSH1 0x7 SLOAD DUP2 JUMP JUMPDEST PUSH1 0x6 PUSH1 0x1 SWAP1 SLOAD SWAP1 PUSH2 0x100 EXP SWAP1 DIV PUSH1 0xFF AND DUP2 JUMP JUMPDEST PUSH2 0x753F PUSH1 0x20 MSTORE DUP1 PUSH1 0x0 MSTORE PUSH1 0x40 PUSH1 0x0 KECCAK256 PUSH1 0x0 SWAP2 POP SWAP1 POP SLOAD DUP2 JUMP JUMPDEST PUSH1 0x60 PUSH2 0x2FFD DUP3 PUSH2 0x35BF JUMP JUMPDEST PUSH2 0x303C JUMPI PUSH1 0x40 MLOAD PUSH32 0x8C379A000000000000000000000000000000000000000000000000000000000 DUP2 MSTORE PUSH1 0x4 ADD PUSH2 0x3033 SWAP1 PUSH2 0x56AD JUMP JUMPDEST PUSH1 0x40 MLOAD DUP1 SWAP2 SUB SWAP1 REVERT JUMPDEST PUSH1 0x0 PUSH2 0x3046 PUSH2 0x3F9C JUMP JUMPDEST SWAP1 POP PUSH1 0x0 DUP2 MLOAD GT PUSH2 0x3066 JUMPI PUSH1 0x40 MLOAD DUP1 PUSH1 0x20 ADD PUSH1 0x40 MSTORE DUP1 PUSH1 0x0 DUP2 MSTORE POP PUSH2 0x3091 JUMP JUMPDEST DUP1 PUSH2 0x3070 DUP5 PUSH2 0x3FB3 JUMP JUMPDEST PUSH1 0x40 MLOAD PUSH1 0x20 ADD PUSH2 0x3081 SWAP3 SWAP2 SWAP1 PUSH2 0x50DC JUMP JUMPDEST PUSH1 0x40 MLOAD PUSH1 0x20 DUP2 DUP4 SUB SUB DUP2 MSTORE SWAP1 PUSH1 0x40 MSTORE JUMPDEST SWAP2 POP POP SWAP2 SWAP1 POP JUMP JUMPDEST PUSH1 0x6 PUSH1 0x2 SWAP1 SLOAD SWAP1 PUSH2 0x100 EXP SWAP1 DIV PUSH1 0xFF AND DUP2 JUMP JUMPDEST PUSH1 0x0 PUSH2 0x7540 PUSH1 0x0 SWAP1 SLOAD SWAP1 PUSH2 0x100 EXP SWAP1 DIV PUSH1 0xFF AND PUSH1 0xFF AND SWAP1 POP SWAP1 JUMP JUMPDEST PUSH1 0x0 SELFBALANCE SWAP1 POP SWAP1 JUMP JUMPDEST PUSH1 0xD SLOAD DUP2 JUMP JUMPDEST PUSH1 0x0 PUSH1 0x5 PUSH1 0x0 DUP5 PUSH20 0xFFFFFFFFFFFFFFFFFFFFFFFFFFFFFFFFFFFFFFFF AND PUSH20 0xFFFFFFFFFFFFFFFFFFFFFFFFFFFFFFFFFFFFFFFF AND DUP2 MSTORE PUSH1 0x20 ADD SWAP1 DUP2 MSTORE PUSH1 0x20 ADD PUSH1 0x0 KECCAK256 PUSH1 0x0 DUP4 PUSH20 0xFFFFFFFFFFFFFFFFFFFFFFFFFFFFFFFFFFFFFFFF AND PUSH20 0xFFFFFFFFFFFFFFFFFFFFFFFFFFFFFFFFFFFFFFFF AND DUP2 MSTORE PUSH1 0x20 ADD SWAP1 DUP2 MSTORE PUSH1 0x20 ADD PUSH1 0x0 KECCAK256 PUSH1 0x0 SWAP1 SLOAD SWAP1 PUSH2 0x100 EXP SWAP1 DIV PUSH1 0xFF AND SWAP1 POP SWAP3 SWAP2 POP POP JUMP JUMPDEST PUSH2 0x7541 PUSH1 0x20 MSTORE DUP2 PUSH1 0x0 MSTORE PUSH1 0x40 PUSH1 0x0 KECCAK256 DUP2 DUP2 SLOAD DUP2 LT PUSH2 0x3186 JUMPI PUSH1 0x0 DUP1 REVERT JUMPDEST SWAP1 PUSH1 0x0 MSTORE PUSH1 0x20 PUSH1 0x0 KECCAK256 ADD PUSH1 0x0 SWAP2 POP SWAP2 POP POP SLOAD DUP2 JUMP JUMPDEST PUSH1 0x0 CALLER PUSH20 0xFFFFFFFFFFFFFFFFFFFFFFFFFFFFFFFFFFFFFFFF AND PUSH1 0xC PUSH1 0x0 SWAP1 SLOAD SWAP1 PUSH2 0x100 EXP SWAP1 DIV PUSH20 0xFFFFFFFFFFFFFFFFFFFFFFFFFFFFFFFFFFFFFFFF AND PUSH20 0xFFFFFFFFFFFFFFFFFFFFFFFFFFFFFFFFFFFFFFFF AND EQ PUSH2 0x322D JUMPI PUSH1 0x40 MLOAD PUSH32 0x8C379A000000000000000000000000000000000000000000000000000000000 DUP2 MSTORE PUSH1 0x4 ADD PUSH2 0x3224 SWAP1 PUSH2 0x542D JUMP JUMPDEST PUSH1 0x40 MLOAD DUP1 SWAP2 SUB SWAP1 REVERT JUMPDEST PUSH2 0x2710 PUSH2 0xFFFF AND PUSH2 0x7540 PUSH1 0x0 SWAP1 SLOAD SWAP1 PUSH2 0x100 EXP SWAP1 DIV PUSH1 0xFF AND PUSH1 0xFF AND LT PUSH2 0x3288 JUMPI PUSH1 0x40 MLOAD PUSH32 0x8C379A000000000000000000000000000000000000000000000000000000000 DUP2 MSTORE PUSH1 0x4 ADD PUSH2 0x327F SWAP1 PUSH2 0x578D JUMP JUMPDEST PUSH1 0x40 MLOAD DUP1 SWAP2 SUB SWAP1 REVERT JUMPDEST PUSH1 0x0 PUSH1 0x1 PUSH2 0x7540 PUSH1 0x0 SWAP1 SLOAD SWAP1 PUSH2 0x100 EXP SWAP1 DIV PUSH1 0xFF AND PUSH2 0x32A7 SWAP2 SWAP1 PUSH2 0x5AA0 JUMP JUMPDEST PUSH1 0xFF AND SWAP1 POP PUSH2 0x32B6 DUP4 DUP3 PUSH2 0x4114 JUMP JUMPDEST PUSH2 0x7541 PUSH1 0x0 DUP5 PUSH20 0xFFFFFFFFFFFFFFFFFFFFFFFFFFFFFFFFFFFFFFFF AND PUSH20 0xFFFFFFFFFFFFFFFFFFFFFFFFFFFFFFFFFFFFFFFF AND DUP2 MSTORE PUSH1 0x20 ADD SWAP1 DUP2 MSTORE PUSH1 0x20 ADD PUSH1 0x0 KECCAK256 DUP2 SWAP1 DUP1 PUSH1 0x1 DUP2 SLOAD ADD DUP1 DUP3 SSTORE DUP1 SWAP2 POP POP PUSH1 0x1 SWAP1 SUB SWAP1 PUSH1 0x0 MSTORE PUSH1 0x20 PUSH1 0x0 KECCAK256 ADD PUSH1 0x0 SWAP1 SWAP2 SWAP1 SWAP2 SWAP1 SWAP2 POP SSTORE DUP1 PUSH2 0x753F PUSH1 0x0 DUP4 DUP2 MSTORE PUSH1 0x20 ADD SWAP1 DUP2 MSTORE PUSH1 0x20 ADD PUSH1 0x0 KECCAK256 DUP2 SWAP1 SSTORE POP PUSH1 0x40 MLOAD DUP1 PUSH1 0x60 ADD PUSH1 0x40 MSTORE DUP1 PUSH1 0x0 DUP2 MSTORE PUSH1 0x20 ADD PUSH1 0x0 DUP2 MSTORE PUSH1 0x20 ADD PUSH1 0xD SLOAD TIMESTAMP PUSH2 0x335D SWAP2 SWAP1 PUSH2 0x5A4A JUMP JUMPDEST DUP2 MSTORE POP PUSH1 0xF DUP3 PUSH2 0x2710 DUP2 LT PUSH2 0x3375 JUMPI PUSH2 0x3374 PUSH2 0x5F41 JUMP JUMPDEST JUMPDEST PUSH1 0x3 MUL ADD PUSH1 0x0 DUP3 ADD MLOAD DUP2 PUSH1 0x0 ADD SSTORE PUSH1 0x20 DUP3 ADD MLOAD DUP2 PUSH1 0x1 ADD SSTORE PUSH1 0x40 DUP3 ADD MLOAD DUP2 PUSH1 0x2 ADD SSTORE SWAP1 POP POP PUSH2 0x7540 PUSH1 0x0 DUP2 DUP2 SWAP1 SLOAD SWAP1 PUSH2 0x100 EXP SWAP1 DIV PUSH1 0xFF AND DUP1 SWAP3 SWAP2 SWAP1 PUSH2 0x33BA SWAP1 PUSH2 0x5E1E JUMP JUMPDEST SWAP2 SWAP1 PUSH2 0x100 EXP DUP2 SLOAD DUP2 PUSH1 0xFF MUL NOT AND SWAP1 DUP4 PUSH1 0xFF AND MUL OR SWAP1 SSTORE POP POP DUP1 SWAP2 POP POP SWAP2 SWAP1 POP JUMP JUMPDEST PUSH2 0x33E4 PUSH2 0x4491 JUMP JUMPDEST PUSH1 0x0 DUP1 PUSH1 0x0 JUMPDEST PUSH1 0xB PUSH1 0x0 CALLER PUSH20 0xFFFFFFFFFFFFFFFFFFFFFFFFFFFFFFFFFFFFFFFF AND PUSH20 0xFFFFFFFFFFFFFFFFFFFFFFFFFFFFFFFFFFFFFFFF AND DUP2 MSTORE PUSH1 0x20 ADD SWAP1 DUP2 MSTORE PUSH1 0x20 ADD PUSH1 0x0 KECCAK256 DUP1 SLOAD SWAP1 POP DUP2 LT ISZERO PUSH2 0x3532 JUMPI PUSH1 0x0 PUSH1 0xB PUSH1 0x0 CALLER PUSH20 0xFFFFFFFFFFFFFFFFFFFFFFFFFFFFFFFFFFFFFFFF AND PUSH20 0xFFFFFFFFFFFFFFFFFFFFFFFFFFFFFFFFFFFFFFFF AND DUP2 MSTORE PUSH1 0x20 ADD SWAP1 DUP2 MSTORE PUSH1 0x20 ADD PUSH1 0x0 KECCAK256 DUP3 DUP2 SLOAD DUP2 LT PUSH2 0x3487 JUMPI PUSH2 0x3486 PUSH2 0x5F41 JUMP JUMPDEST JUMPDEST SWAP1 PUSH1 0x0 MSTORE PUSH1 0x20 PUSH1 0x0 KECCAK256 SWAP1 PUSH1 0x3 MUL ADD PUSH1 0x40 MLOAD DUP1 PUSH1 0x60 ADD PUSH1 0x40 MSTORE SWAP1 DUP2 PUSH1 0x0 DUP3 ADD SLOAD DUP2 MSTORE PUSH1 0x20 ADD PUSH1 0x1 DUP3 ADD PUSH1 0x0 SWAP1 SLOAD SWAP1 PUSH2 0x100 EXP SWAP1 DIV PUSH1 0xFF AND PUSH1 0xFF AND PUSH1 0xFF AND DUP2 MSTORE PUSH1 0x20 ADD PUSH1 0x2 DUP3 ADD SLOAD DUP2 MSTORE POP POP SWAP1 POP PUSH1 0x0 DUP2 PUSH1 0x20 ADD MLOAD PUSH1 0xFF AND EQ ISZERO PUSH2 0x34FA JUMPI DUP1 PUSH1 0x0 ADD MLOAD DUP5 PUSH2 0x34F3 SWAP2 SWAP1 PUSH2 0x5A4A JUMP JUMPDEST SWAP4 POP PUSH2 0x351E JUMP JUMPDEST PUSH1 0x1 DUP2 PUSH1 0x20 ADD MLOAD PUSH1 0xFF AND EQ ISZERO PUSH2 0x351D JUMPI DUP1 PUSH1 0x0 ADD MLOAD DUP4 PUSH2 0x351A SWAP2 SWAP1 PUSH2 0x5A4A JUMP JUMPDEST SWAP3 POP JUMPDEST JUMPDEST POP DUP1 DUP1 PUSH2 0x352A SWAP1 PUSH2 0x5DD5 JUMP JUMPDEST SWAP2 POP POP PUSH2 0x33EA JUMP JUMPDEST POP PUSH1 0x0 PUSH1 0x40 MLOAD DUP1 PUSH1 0x40 ADD PUSH1 0x40 MSTORE DUP1 DUP5 DUP2 MSTORE PUSH1 0x20 ADD DUP4 DUP2 MSTORE POP SWAP1 POP DUP1 SWAP4 POP POP POP POP SWAP1 JUMP JUMPDEST PUSH1 0x0 PUSH32 0x1FFC9A700000000000000000000000000000000000000000000000000000000 PUSH28 0xFFFFFFFFFFFFFFFFFFFFFFFFFFFFFFFFFFFFFFFFFFFFFFFFFFFFFFFF NOT AND DUP3 PUSH28 0xFFFFFFFFFFFFFFFFFFFFFFFFFFFFFFFFFFFFFFFFFFFFFFFFFFFFFFFF NOT AND EQ SWAP1 POP SWAP2 SWAP1 POP JUMP JUMPDEST PUSH1 0x0 DUP1 PUSH20 0xFFFFFFFFFFFFFFFFFFFFFFFFFFFFFFFFFFFFFFFF AND PUSH1 0x2 PUSH1 0x0 DUP5 DUP2 MSTORE PUSH1 0x20 ADD SWAP1 DUP2 MSTORE PUSH1 0x20 ADD PUSH1 0x0 KECCAK256 PUSH1 0x0 SWAP1 SLOAD SWAP1 PUSH2 0x100 EXP SWAP1 DIV PUSH20 0xFFFFFFFFFFFFFFFFFFFFFFFFFFFFFFFFFFFFFFFF AND PUSH20 0xFFFFFFFFFFFFFFFFFFFFFFFFFFFFFFFFFFFFFFFF AND EQ ISZERO SWAP1 POP SWAP2 SWAP1 POP JUMP JUMPDEST PUSH1 0x0 CALLER SWAP1 POP SWAP1 JUMP JUMPDEST DUP2 PUSH1 0x4 PUSH1 0x0 DUP4 DUP2 MSTORE PUSH1 0x20 ADD SWAP1 DUP2 MSTORE PUSH1 0x20 ADD PUSH1 0x0 KECCAK256 PUSH1 0x0 PUSH2 0x100 EXP DUP2 SLOAD DUP2 PUSH20 0xFFFFFFFFFFFFFFFFFFFFFFFFFFFFFFFFFFFFFFFF MUL NOT AND SWAP1 DUP4 PUSH20 0xFFFFFFFFFFFFFFFFFFFFFFFFFFFFFFFFFFFFFFFF AND MUL OR SWAP1 SSTORE POP DUP1 DUP3 PUSH20 0xFFFFFFFFFFFFFFFFFFFFFFFFFFFFFFFFFFFFFFFF AND PUSH2 0x36A6 DUP4 PUSH2 0x2490 JUMP JUMPDEST PUSH20 0xFFFFFFFFFFFFFFFFFFFFFFFFFFFFFFFFFFFFFFFF AND PUSH32 0x8C5BE1E5EBEC7D5BD14F71427D1E84F3DD0314C0F7B2291E5B200AC8C7C3B925 PUSH1 0x40 MLOAD PUSH1 0x40 MLOAD DUP1 SWAP2 SUB SWAP1 LOG4 POP POP JUMP JUMPDEST PUSH1 0x0 PUSH2 0x36F7 DUP3 PUSH2 0x35BF JUMP JUMPDEST PUSH2 0x3736 JUMPI PUSH1 0x40 MLOAD PUSH32 0x8C379A000000000000000000000000000000000000000000000000000000000 DUP2 MSTORE PUSH1 0x4 ADD PUSH2 0x372D SWAP1 PUSH2 0x550D JUMP JUMPDEST PUSH1 0x40 MLOAD DUP1 SWAP2 SUB SWAP1 REVERT JUMPDEST PUSH1 0x0 PUSH2 0x3741 DUP4 PUSH2 0x2490 JUMP JUMPDEST SWAP1 POP DUP1 PUSH20 0xFFFFFFFFFFFFFFFFFFFFFFFFFFFFFFFFFFFFFFFF AND DUP5 PUSH20 0xFFFFFFFFFFFFFFFFFFFFFFFFFFFFFFFFFFFFFFFF AND EQ DUP1 PUSH2 0x37B0 JUMPI POP DUP4 PUSH20 0xFFFFFFFFFFFFFFFFFFFFFFFFFFFFFFFFFFFFFFFF AND PUSH2 0x3798 DUP5 PUSH2 0xC5F JUMP JUMPDEST PUSH20 0xFFFFFFFFFFFFFFFFFFFFFFFFFFFFFFFFFFFFFFFF AND EQ JUMPDEST DUP1 PUSH2 0x37C1 JUMPI POP PUSH2 0x37C0 DUP2 DUP6 PUSH2 0x30D5 JUMP JUMPDEST JUMPDEST SWAP2 POP POP SWAP3 SWAP2 POP POP JUMP JUMPDEST DUP3 PUSH20 0xFFFFFFFFFFFFFFFFFFFFFFFFFFFFFFFFFFFFFFFF AND PUSH2 0x37EA DUP3 PUSH2 0x2490 JUMP JUMPDEST PUSH20 0xFFFFFFFFFFFFFFFFFFFFFFFFFFFFFFFFFFFFFFFF AND EQ PUSH2 0x3840 JUMPI PUSH1 0x40 MLOAD PUSH32 0x8C379A000000000000000000000000000000000000000000000000000000000 DUP2 MSTORE PUSH1 0x4 ADD PUSH2 0x3837 SWAP1 PUSH2 0x568D JUMP JUMPDEST PUSH1 0x40 MLOAD DUP1 SWAP2 SUB SWAP1 REVERT JUMPDEST PUSH1 0x0 PUSH20 0xFFFFFFFFFFFFFFFFFFFFFFFFFFFFFFFFFFFFFFFF AND DUP3 PUSH20 0xFFFFFFFFFFFFFFFFFFFFFFFFFFFFFFFFFFFFFFFF AND EQ ISZERO PUSH2 0x38B0 JUMPI PUSH1 0x40 MLOAD PUSH32 0x8C379A000000000000000000000000000000000000000000000000000000000 DUP2 MSTORE PUSH1 0x4 ADD PUSH2 0x38A7 SWAP1 PUSH2 0x54AD JUMP JUMPDEST PUSH1 0x40 MLOAD DUP1 SWAP2 SUB SWAP1 REVERT JUMPDEST PUSH2 0x38BB DUP4 DUP4 DUP4 PUSH2 0x42E2 JUMP JUMPDEST PUSH2 0x38C6 PUSH1 0x0 DUP3 PUSH2 0x3633 JUMP JUMPDEST PUSH1 0x1 PUSH1 0x3 PUSH1 0x0 DUP6 PUSH20 0xFFFFFFFFFFFFFFFFFFFFFFFFFFFFFFFFFFFFFFFF AND PUSH20 0xFFFFFFFFFFFFFFFFFFFFFFFFFFFFFFFFFFFFFFFF AND DUP2 MSTORE PUSH1 0x20 ADD SWAP1 DUP2 MSTORE PUSH1 0x20 ADD PUSH1 0x0 KECCAK256 PUSH1 0x0 DUP3 DUP3 SLOAD PUSH2 0x3916 SWAP2 SWAP1 PUSH2 0x5C03 JUMP JUMPDEST SWAP3 POP POP DUP2 SWAP1 SSTORE POP PUSH1 0x1 PUSH1 0x3 PUSH1 0x0 DUP5 PUSH20 0xFFFFFFFFFFFFFFFFFFFFFFFFFFFFFFFFFFFFFFFF AND PUSH20 0xFFFFFFFFFFFFFFFFFFFFFFFFFFFFFFFFFFFFFFFF AND DUP2 MSTORE PUSH1 0x20 ADD SWAP1 DUP2 MSTORE PUSH1 0x20 ADD PUSH1 0x0 KECCAK256 PUSH1 0x0 DUP3 DUP3 SLOAD PUSH2 0x396D SWAP2 SWAP1 PUSH2 0x5A4A JUMP JUMPDEST SWAP3 POP POP DUP2 SWAP1 SSTORE POP DUP2 PUSH1 0x2 PUSH1 0x0 DUP4 DUP2 MSTORE PUSH1 0x20 ADD SWAP1 DUP2 MSTORE PUSH1 0x20 ADD PUSH1 0x0 KECCAK256 PUSH1 0x0 PUSH2 0x100 EXP DUP2 SLOAD DUP2 PUSH20 0xFFFFFFFFFFFFFFFFFFFFFFFFFFFFFFFFFFFFFFFF MUL NOT AND SWAP1 DUP4 PUSH20 0xFFFFFFFFFFFFFFFFFFFFFFFFFFFFFFFFFFFFFFFF AND MUL OR SWAP1 SSTORE POP DUP1 DUP3 PUSH20 0xFFFFFFFFFFFFFFFFFFFFFFFFFFFFFFFFFFFFFFFF AND DUP5 PUSH20 0xFFFFFFFFFFFFFFFFFFFFFFFFFFFFFFFFFFFFFFFF AND PUSH32 0xDDF252AD1BE2C89B69C2B068FC378DAA952BA7F163C4A11628F55A4DF523B3EF PUSH1 0x40 MLOAD PUSH1 0x40 MLOAD DUP1 SWAP2 SUB SWAP1 LOG4 POP POP POP JUMP JUMPDEST PUSH1 0x0 DUP1 PUSH1 0x64 DIFFICULTY PUSH2 0x7542 SLOAD PUSH1 0x40 MLOAD PUSH1 0x20 ADD PUSH2 0x3A41 SWAP3 SWAP2 SWAP1 PUSH2 0x5124 JUMP JUMPDEST PUSH1 0x40 MLOAD PUSH1 0x20 DUP2 DUP4 SUB SUB DUP2 MSTORE SWAP1 PUSH1 0x40 MSTORE DUP1 MLOAD SWAP1 PUSH1 0x20 ADD KECCAK256 PUSH1 0x0 SHR PUSH2 0x3A64 SWAP2 SWAP1 PUSH2 0x5E83 JUMP JUMPDEST SWAP1 POP DUP1 PUSH1 0xFF AND PUSH2 0x7542 SLOAD PUSH2 0x3A78 SWAP2 SWAP1 PUSH2 0x5A4A JUMP JUMPDEST PUSH1 0xFF AND PUSH2 0x7542 DUP2 SWAP1 SSTORE POP DUP1 SWAP2 POP POP SWAP1 JUMP JUMPDEST PUSH1 0x0 DUP1 DUP3 DUP5 PUSH2 0x3A98 SWAP2 SWAP1 PUSH2 0x5B08 JUMP JUMPDEST SWAP2 POP DUP2 DUP4 PUSH2 0x3AA6 SWAP2 SWAP1 PUSH2 0x5B75 JUMP JUMPDEST DUP5 PUSH2 0x3AB1 SWAP2 SWAP1 PUSH2 0x5C03 JUMP JUMPDEST SWAP1 POP SWAP3 POP SWAP3 SWAP1 POP JUMP JUMPDEST PUSH32 0x86384656C60C8909CBB3413E5D14AAAE85EDA338817C36FF699276A94BA9A8B1 DUP10 DUP10 DUP14 DUP14 DUP12 DUP12 DUP12 DUP14 DUP12 DUP12 DUP12 PUSH1 0x40 MLOAD PUSH2 0x3AFD SWAP12 SWAP11 SWAP10 SWAP9 SWAP8 SWAP7 SWAP6 SWAP5 SWAP4 SWAP3 SWAP2 SWAP1 PUSH2 0x516B JUMP JUMPDEST PUSH1 0x40 MLOAD DUP1 SWAP2 SUB SWAP1 LOG1 DUP5 PUSH1 0xF DUP13 PUSH2 0xFFFF AND PUSH2 0x2710 DUP2 LT PUSH2 0x3B1F JUMPI PUSH2 0x3B1E PUSH2 0x5F41 JUMP JUMPDEST JUMPDEST PUSH1 0x3 MUL ADD PUSH1 0x0 ADD PUSH1 0x0 DUP3 DUP3 SLOAD PUSH2 0x3B35 SWAP2 SWAP1 PUSH2 0x5C03 JUMP JUMPDEST SWAP3 POP POP DUP2 SWAP1 SSTORE POP PUSH1 0x0 PUSH1 0xF DUP13 PUSH2 0xFFFF AND PUSH2 0x2710 DUP2 LT PUSH2 0x3B57 JUMPI PUSH2 0x3B56 PUSH2 0x5F41 JUMP JUMPDEST JUMPDEST PUSH1 0x3 MUL ADD PUSH1 0x0 ADD SLOAD GT PUSH2 0x3B9F JUMPI PUSH1 0x40 MLOAD PUSH32 0x8C379A000000000000000000000000000000000000000000000000000000000 DUP2 MSTORE PUSH1 0x4 ADD PUSH2 0x3B96 SWAP1 PUSH2 0x576D JUMP JUMPDEST PUSH1 0x40 MLOAD DUP1 SWAP2 SUB SWAP1 REVERT JUMPDEST DUP4 PUSH1 0xF DUP12 PUSH2 0xFFFF AND PUSH2 0x2710 DUP2 LT PUSH2 0x3BB9 JUMPI PUSH2 0x3BB8 PUSH2 0x5F41 JUMP JUMPDEST JUMPDEST PUSH1 0x3 MUL ADD PUSH1 0x1 ADD PUSH1 0x0 DUP3 DUP3 SLOAD PUSH2 0x3BCF SWAP2 SWAP1 PUSH2 0x5C03 JUMP JUMPDEST SWAP3 POP POP DUP2 SWAP1 SSTORE POP PUSH1 0x0 PUSH1 0xF DUP12 PUSH2 0xFFFF AND PUSH2 0x2710 DUP2 LT PUSH2 0x3BF1 JUMPI PUSH2 0x3BF0 PUSH2 0x5F41 JUMP JUMPDEST JUMPDEST PUSH1 0x3 MUL ADD PUSH1 0x1 ADD SLOAD GT PUSH2 0x3C39 JUMPI PUSH1 0x40 MLOAD PUSH32 0x8C379A000000000000000000000000000000000000000000000000000000000 DUP2 MSTORE PUSH1 0x4 ADD PUSH2 0x3C30 SWAP1 PUSH2 0x53CD JUMP JUMPDEST PUSH1 0x40 MLOAD DUP1 SWAP2 SUB SWAP1 REVERT JUMPDEST POP POP POP POP POP POP POP POP POP POP POP JUMP JUMPDEST PUSH1 0x0 PUSH1 0x2 DUP3 PUSH2 0x3C55 SWAP2 SWAP1 PUSH2 0x5B39 JUMP JUMPDEST SWAP1 POP SWAP2 SWAP1 POP JUMP JUMPDEST PUSH1 0x0 PUSH1 0x1 PUSH2 0x3C69 DUP4 PUSH2 0x3C46 JUMP JUMPDEST PUSH2 0x3C73 SWAP2 SWAP1 PUSH2 0x5A12 JUMP JUMPDEST SWAP1 POP SWAP2 SWAP1 POP JUMP JUMPDEST PUSH1 0x60 PUSH1 0x0 DUP3 EQ ISZERO PUSH2 0x3CC2 JUMPI PUSH1 0x40 MLOAD DUP1 PUSH1 0x40 ADD PUSH1 0x40 MSTORE DUP1 PUSH1 0x1 DUP2 MSTORE PUSH1 0x20 ADD PUSH32 0x3000000000000000000000000000000000000000000000000000000000000000 DUP2 MSTORE POP SWAP1 POP PUSH2 0x3DFE JUMP JUMPDEST PUSH1 0x0 DUP3 SWAP1 POP PUSH1 0x0 JUMPDEST PUSH1 0x0 DUP3 EQ PUSH2 0x3CF4 JUMPI DUP1 DUP1 PUSH2 0x3CDD SWAP1 PUSH2 0x5DD5 JUMP JUMPDEST SWAP2 POP POP PUSH1 0xA DUP3 PUSH2 0x3CED SWAP2 SWAP1 PUSH2 0x5B08 JUMP JUMPDEST SWAP2 POP PUSH2 0x3CCA JUMP JUMPDEST PUSH1 0x0 DUP2 PUSH8 0xFFFFFFFFFFFFFFFF DUP2 GT ISZERO PUSH2 0x3D10 JUMPI PUSH2 0x3D0F PUSH2 0x5F70 JUMP JUMPDEST JUMPDEST PUSH1 0x40 MLOAD SWAP1 DUP1 DUP3 MSTORE DUP1 PUSH1 0x1F ADD PUSH1 0x1F NOT AND PUSH1 0x20 ADD DUP3 ADD PUSH1 0x40 MSTORE DUP1 ISZERO PUSH2 0x3D42 JUMPI DUP2 PUSH1 0x20 ADD PUSH1 0x1 DUP3 MUL DUP1 CALLDATASIZE DUP4 CALLDATACOPY DUP1 DUP3 ADD SWAP2 POP POP SWAP1 POP JUMPDEST POP SWAP1 POP PUSH1 0x0 DUP3 SWAP1 POP JUMPDEST PUSH1 0x0 DUP7 EQ PUSH2 0x3DF6 JUMPI PUSH1 0x1 DUP2 PUSH2 0x3D60 SWAP2 SWAP1 PUSH2 0x5C03 JUMP JUMPDEST SWAP1 POP PUSH1 0x0 PUSH1 0xA DUP1 DUP9 PUSH2 0x3D72 SWAP2 SWAP1 PUSH2 0x5B08 JUMP JUMPDEST PUSH2 0x3D7C SWAP2 SWAP1 PUSH2 0x5B75 JUMP JUMPDEST DUP8 PUSH2 0x3D87 SWAP2 SWAP1 PUSH2 0x5C03 JUMP JUMPDEST PUSH1 0x30 PUSH2 0x3D93 SWAP2 SWAP1 PUSH2 0x5AA0 JUMP JUMPDEST SWAP1 POP PUSH1 0x0 DUP2 PUSH1 0xF8 SHL SWAP1 POP DUP1 DUP5 DUP5 DUP2 MLOAD DUP2 LT PUSH2 0x3DB1 JUMPI PUSH2 0x3DB0 PUSH2 0x5F41 JUMP JUMPDEST JUMPDEST PUSH1 0x20 ADD ADD SWAP1 PUSH31 0xFFFFFFFFFFFFFFFFFFFFFFFFFFFFFFFFFFFFFFFFFFFFFFFFFFFFFFFFFFFFFF NOT AND SWAP1 DUP2 PUSH1 0x0 BYTE SWAP1 MSTORE8 POP PUSH1 0xA DUP9 PUSH2 0x3DED SWAP2 SWAP1 PUSH2 0x5B08 JUMP JUMPDEST SWAP8 POP POP POP PUSH2 0x3D4B JUMP JUMPDEST DUP2 SWAP5 POP POP POP POP POP JUMPDEST SWAP2 SWAP1 POP JUMP JUMPDEST PUSH1 0x0 PUSH1 0x64 PUSH1 0x6 PUSH1 0x3 SWAP1 SLOAD SWAP1 PUSH2 0x100 EXP SWAP1 DIV PUSH1 0xFF AND PUSH1 0xFF AND DUP4 PUSH2 0x3E25 SWAP2 SWAP1 PUSH2 0x5B75 JUMP JUMPDEST PUSH2 0x3E2F SWAP2 SWAP1 PUSH2 0x5B08 JUMP JUMPDEST DUP3 PUSH2 0x3E3A SWAP2 SWAP1 PUSH2 0x5C03 JUMP JUMPDEST SWAP1 POP PUSH1 0x8 PUSH1 0x0 SWAP1 SLOAD SWAP1 PUSH2 0x100 EXP SWAP1 DIV PUSH20 0xFFFFFFFFFFFFFFFFFFFFFFFFFFFFFFFFFFFFFFFF AND PUSH20 0xFFFFFFFFFFFFFFFFFFFFFFFFFFFFFFFFFFFFFFFF AND PUSH4 0xA9059CBB CALLER DUP4 PUSH1 0x40 MLOAD DUP4 PUSH4 0xFFFFFFFF AND PUSH1 0xE0 SHL DUP2 MSTORE PUSH1 0x4 ADD PUSH2 0x3E99 SWAP3 SWAP2 SWAP1 PUSH2 0x5299 JUMP JUMPDEST PUSH1 0x20 PUSH1 0x40 MLOAD DUP1 DUP4 SUB DUP2 PUSH1 0x0 DUP8 DUP1 EXTCODESIZE ISZERO DUP1 ISZERO PUSH2 0x3EB3 JUMPI PUSH1 0x0 DUP1 REVERT JUMPDEST POP GAS CALL ISZERO DUP1 ISZERO PUSH2 0x3EC7 JUMPI RETURNDATASIZE PUSH1 0x0 DUP1 RETURNDATACOPY RETURNDATASIZE PUSH1 0x0 REVERT JUMPDEST POP POP POP POP PUSH1 0x40 MLOAD RETURNDATASIZE PUSH1 0x1F NOT PUSH1 0x1F DUP3 ADD AND DUP3 ADD DUP1 PUSH1 0x40 MSTORE POP DUP2 ADD SWAP1 PUSH2 0x3EEB SWAP2 SWAP1 PUSH2 0x47B8 JUMP JUMPDEST POP CALLER PUSH20 0xFFFFFFFFFFFFFFFFFFFFFFFFFFFFFFFFFFFFFFFF AND PUSH32 0x11ACEC8EA502F5C875E157DD1A17389990A9350450464DB61EF112521C0D8751 DUP3 DUP5 PUSH1 0x40 MLOAD PUSH2 0x3F34 SWAP3 SWAP2 SWAP1 PUSH2 0x584C JUMP JUMPDEST PUSH1 0x40 MLOAD DUP1 SWAP2 SUB SWAP1 LOG2 POP POP JUMP JUMPDEST PUSH2 0x3F4B DUP5 DUP5 DUP5 PUSH2 0x37CA JUMP JUMPDEST PUSH2 0x3F57 DUP5 DUP5 DUP5 DUP5 PUSH2 0x42E7 JUMP JUMPDEST PUSH2 0x3F96 JUMPI PUSH1 0x40 MLOAD PUSH32 0x8C379A000000000000000000000000000000000000000000000000000000000 DUP2 MSTORE PUSH1 0x4 ADD PUSH2 0x3F8D SWAP1 PUSH2 0x540D JUMP JUMPDEST PUSH1 0x40 MLOAD DUP1 SWAP2 SUB SWAP1 REVERT JUMPDEST POP POP POP POP JUMP JUMPDEST PUSH1 0x60 PUSH1 0x40 MLOAD DUP1 PUSH1 0x20 ADD PUSH1 0x40 MSTORE DUP1 PUSH1 0x0 DUP2 MSTORE POP SWAP1 POP SWAP1 JUMP JUMPDEST PUSH1 0x60 PUSH1 0x0 DUP3 EQ ISZERO PUSH2 0x3FFB JUMPI PUSH1 0x40 MLOAD DUP1 PUSH1 0x40 ADD PUSH1 0x40 MSTORE DUP1 PUSH1 0x1 DUP2 MSTORE PUSH1 0x20 ADD PUSH32 0x3000000000000000000000000000000000000000000000000000000000000000 DUP2 MSTORE POP SWAP1 POP PUSH2 0x410F JUMP JUMPDEST PUSH1 0x0 DUP3 SWAP1 POP PUSH1 0x0 JUMPDEST PUSH1 0x0 DUP3 EQ PUSH2 0x402D JUMPI DUP1 DUP1 PUSH2 0x4016 SWAP1 PUSH2 0x5DD5 JUMP JUMPDEST SWAP2 POP POP PUSH1 0xA DUP3 PUSH2 0x4026 SWAP2 SWAP1 PUSH2 0x5B08 JUMP JUMPDEST SWAP2 POP PUSH2 0x4003 JUMP JUMPDEST PUSH1 0x0 DUP2 PUSH8 0xFFFFFFFFFFFFFFFF DUP2 GT ISZERO PUSH2 0x4049 JUMPI PUSH2 0x4048 PUSH2 0x5F70 JUMP JUMPDEST JUMPDEST PUSH1 0x40 MLOAD SWAP1 DUP1 DUP3 MSTORE DUP1 PUSH1 0x1F ADD PUSH1 0x1F NOT AND PUSH1 0x20 ADD DUP3 ADD PUSH1 0x40 MSTORE DUP1 ISZERO PUSH2 0x407B JUMPI DUP2 PUSH1 0x20 ADD PUSH1 0x1 DUP3 MUL DUP1 CALLDATASIZE DUP4 CALLDATACOPY DUP1 DUP3 ADD SWAP2 POP POP SWAP1 POP JUMPDEST POP SWAP1 POP JUMPDEST PUSH1 0x0 DUP6 EQ PUSH2 0x4108 JUMPI PUSH1 0x1 DUP3 PUSH2 0x4094 SWAP2 SWAP1 PUSH2 0x5C03 JUMP JUMPDEST SWAP2 POP PUSH1 0xA DUP6 PUSH2 0x40A3 SWAP2 SWAP1 PUSH2 0x5E83 JUMP JUMPDEST PUSH1 0x30 PUSH2 0x40AF SWAP2 SWAP1 PUSH2 0x5A4A JUMP JUMPDEST PUSH1 0xF8 SHL DUP2 DUP4 DUP2 MLOAD DUP2 LT PUSH2 0x40C5 JUMPI PUSH2 0x40C4 PUSH2 0x5F41 JUMP JUMPDEST JUMPDEST PUSH1 0x20 ADD ADD SWAP1 PUSH31 0xFFFFFFFFFFFFFFFFFFFFFFFFFFFFFFFFFFFFFFFFFFFFFFFFFFFFFFFFFFFFFF NOT AND SWAP1 DUP2 PUSH1 0x0 BYTE SWAP1 MSTORE8 POP PUSH1 0xA DUP6 PUSH2 0x4101 SWAP2 SWAP1 PUSH2 0x5B08 JUMP JUMPDEST SWAP5 POP PUSH2 0x407F JUMP JUMPDEST DUP1 SWAP4 POP POP POP POP JUMPDEST SWAP2 SWAP1 POP JUMP JUMPDEST PUSH1 0x0 PUSH20 0xFFFFFFFFFFFFFFFFFFFFFFFFFFFFFFFFFFFFFFFF AND DUP3 PUSH20 0xFFFFFFFFFFFFFFFFFFFFFFFFFFFFFFFFFFFFFFFF AND EQ ISZERO PUSH2 0x4184 JUMPI PUSH1 0x40 MLOAD PUSH32 0x8C379A000000000000000000000000000000000000000000000000000000000 DUP2 MSTORE PUSH1 0x4 ADD PUSH2 0x417B SWAP1 PUSH2 0x55ED JUMP JUMPDEST PUSH1 0x40 MLOAD DUP1 SWAP2 SUB SWAP1 REVERT JUMPDEST PUSH2 0x418D DUP2 PUSH2 0x35BF JUMP JUMPDEST ISZERO PUSH2 0x41CD JUMPI PUSH1 0x40 MLOAD PUSH32 0x8C379A000000000000000000000000000000000000000000000000000000000 DUP2 MSTORE PUSH1 0x4 ADD PUSH2 0x41C4 SWAP1 PUSH2 0x546D JUMP JUMPDEST PUSH1 0x40 MLOAD DUP1 SWAP2 SUB SWAP1 REVERT JUMPDEST PUSH2 0x41D9 PUSH1 0x0 DUP4 DUP4 PUSH2 0x42E2 JUMP JUMPDEST PUSH1 0x1 PUSH1 0x3 PUSH1 0x0 DUP5 PUSH20 0xFFFFFFFFFFFFFFFFFFFFFFFFFFFFFFFFFFFFFFFF AND PUSH20 0xFFFFFFFFFFFFFFFFFFFFFFFFFFFFFFFFFFFFFFFF AND DUP2 MSTORE PUSH1 0x20 ADD SWAP1 DUP2 MSTORE PUSH1 0x20 ADD PUSH1 0x0 KECCAK256 PUSH1 0x0 DUP3 DUP3 SLOAD PUSH2 0x4229 SWAP2 SWAP1 PUSH2 0x5A4A JUMP JUMPDEST SWAP3 POP POP DUP2 SWAP1 SSTORE POP DUP2 PUSH1 0x2 PUSH1 0x0 DUP4 DUP2 MSTORE PUSH1 0x20 ADD SWAP1 DUP2 MSTORE PUSH1 0x20 ADD PUSH1 0x0 KECCAK256 PUSH1 0x0 PUSH2 0x100 EXP DUP2 SLOAD DUP2 PUSH20 0xFFFFFFFFFFFFFFFFFFFFFFFFFFFFFFFFFFFFFFFF MUL NOT AND SWAP1 DUP4 PUSH20 0xFFFFFFFFFFFFFFFFFFFFFFFFFFFFFFFFFFFFFFFF AND MUL OR SWAP1 SSTORE POP DUP1 DUP3 PUSH20 0xFFFFFFFFFFFFFFFFFFFFFFFFFFFFFFFFFFFFFFFF AND PUSH1 0x0 PUSH20 0xFFFFFFFFFFFFFFFFFFFFFFFFFFFFFFFFFFFFFFFF AND PUSH32 0xDDF252AD1BE2C89B69C2B068FC378DAA952BA7F163C4A11628F55A4DF523B3EF PUSH1 0x40 MLOAD PUSH1 0x40 MLOAD DUP1 SWAP2 SUB SWAP1 LOG4 POP POP JUMP JUMPDEST POP POP POP JUMP JUMPDEST PUSH1 0x0 PUSH2 0x4308 DUP5 PUSH20 0xFFFFFFFFFFFFFFFFFFFFFFFFFFFFFFFFFFFFFFFF AND PUSH2 0x447E JUMP JUMPDEST ISZERO PUSH2 0x4471 JUMPI DUP4 PUSH20 0xFFFFFFFFFFFFFFFFFFFFFFFFFFFFFFFFFFFFFFFF AND PUSH4 0x150B7A02 PUSH2 0x4331 PUSH2 0x362B JUMP JUMPDEST DUP8 DUP7 DUP7 PUSH1 0x40 MLOAD DUP6 PUSH4 0xFFFFFFFF AND PUSH1 0xE0 SHL DUP2 MSTORE PUSH1 0x4 ADD PUSH2 0x4353 SWAP5 SWAP4 SWAP3 SWAP2 SWAP1 PUSH2 0x524D JUMP JUMPDEST PUSH1 0x20 PUSH1 0x40 MLOAD DUP1 DUP4 SUB DUP2 PUSH1 0x0 DUP8 DUP1 EXTCODESIZE ISZERO DUP1 ISZERO PUSH2 0x436D JUMPI PUSH1 0x0 DUP1 REVERT JUMPDEST POP GAS CALL SWAP3 POP POP POP DUP1 ISZERO PUSH2 0x439E JUMPI POP PUSH1 0x40 MLOAD RETURNDATASIZE PUSH1 0x1F NOT PUSH1 0x1F DUP3 ADD AND DUP3 ADD DUP1 PUSH1 0x40 MSTORE POP DUP2 ADD SWAP1 PUSH2 0x439B SWAP2 SWAP1 PUSH2 0x4812 JUMP JUMPDEST PUSH1 0x1 JUMPDEST PUSH2 0x4421 JUMPI RETURNDATASIZE DUP1 PUSH1 0x0 DUP2 EQ PUSH2 0x43CE JUMPI PUSH1 0x40 MLOAD SWAP2 POP PUSH1 0x1F NOT PUSH1 0x3F RETURNDATASIZE ADD AND DUP3 ADD PUSH1 0x40 MSTORE RETURNDATASIZE DUP3 MSTORE RETURNDATASIZE PUSH1 0x0 PUSH1 0x20 DUP5 ADD RETURNDATACOPY PUSH2 0x43D3 JUMP JUMPDEST PUSH1 0x60 SWAP2 POP JUMPDEST POP PUSH1 0x0 DUP2 MLOAD EQ ISZERO PUSH2 0x4419 JUMPI PUSH1 0x40 MLOAD PUSH32 0x8C379A000000000000000000000000000000000000000000000000000000000 DUP2 MSTORE PUSH1 0x4 ADD PUSH2 0x4410 SWAP1 PUSH2 0x540D JUMP JUMPDEST PUSH1 0x40 MLOAD DUP1 SWAP2 SUB SWAP1 REVERT JUMPDEST DUP1 MLOAD DUP2 PUSH1 0x20 ADD REVERT JUMPDEST PUSH4 0x150B7A02 PUSH1 0xE0 SHL PUSH28 0xFFFFFFFFFFFFFFFFFFFFFFFFFFFFFFFFFFFFFFFFFFFFFFFFFFFFFFFF NOT AND DUP2 PUSH28 0xFFFFFFFFFFFFFFFFFFFFFFFFFFFFFFFFFFFFFFFFFFFFFFFFFFFFFFFF NOT AND EQ SWAP2 POP POP PUSH2 0x4476 JUMP JUMPDEST PUSH1 0x1 SWAP1 POP JUMPDEST SWAP5 SWAP4 POP POP POP POP JUMP JUMPDEST PUSH1 0x0 DUP1 DUP3 EXTCODESIZE SWAP1 POP PUSH1 0x0 DUP2 GT SWAP2 POP POP SWAP2 SWAP1 POP JUMP JUMPDEST PUSH1 0x40 MLOAD DUP1 PUSH1 0x40 ADD PUSH1 0x40 MSTORE DUP1 PUSH1 0x2 SWAP1 PUSH1 0x20 DUP3 MUL DUP1 CALLDATASIZE DUP4 CALLDATACOPY DUP1 DUP3 ADD SWAP2 POP POP SWAP1 POP POP SWAP1 JUMP JUMPDEST PUSH1 0x0 PUSH2 0x44C6 PUSH2 0x44C1 DUP5 PUSH2 0x5923 JUMP JUMPDEST PUSH2 0x58FE JUMP JUMPDEST SWAP1 POP DUP3 DUP2 MSTORE PUSH1 0x20 DUP2 ADD DUP5 DUP5 DUP5 ADD GT ISZERO PUSH2 0x44E2 JUMPI PUSH2 0x44E1 PUSH2 0x5FA4 JUMP JUMPDEST JUMPDEST PUSH2 0x44ED DUP5 DUP3 DUP6 PUSH2 0x5D30 JUMP JUMPDEST POP SWAP4 SWAP3 POP POP POP JUMP JUMPDEST PUSH1 0x0 DUP2 CALLDATALOAD SWAP1 POP PUSH2 0x4504 DUP2 PUSH2 0x6A1F JUMP JUMPDEST SWAP3 SWAP2 POP POP JUMP JUMPDEST PUSH1 0x0 DUP2 CALLDATALOAD SWAP1 POP PUSH2 0x4519 DUP2 PUSH2 0x6A36 JUMP JUMPDEST SWAP3 SWAP2 POP POP JUMP JUMPDEST PUSH1 0x0 DUP2 MLOAD SWAP1 POP PUSH2 0x452E DUP2 PUSH2 0x6A36 JUMP JUMPDEST SWAP3 SWAP2 POP POP JUMP JUMPDEST PUSH1 0x0 DUP2 CALLDATALOAD SWAP1 POP PUSH2 0x4543 DUP2 PUSH2 0x6A4D JUMP JUMPDEST SWAP3 SWAP2 POP POP JUMP JUMPDEST PUSH1 0x0 DUP2 MLOAD SWAP1 POP PUSH2 0x4558 DUP2 PUSH2 0x6A4D JUMP JUMPDEST SWAP3 SWAP2 POP POP JUMP JUMPDEST PUSH1 0x0 DUP3 PUSH1 0x1F DUP4 ADD SLT PUSH2 0x4573 JUMPI PUSH2 0x4572 PUSH2 0x5F9F JUMP JUMPDEST JUMPDEST DUP2 CALLDATALOAD PUSH2 0x4583 DUP5 DUP3 PUSH1 0x20 DUP7 ADD PUSH2 0x44B3 JUMP JUMPDEST SWAP2 POP POP SWAP3 SWAP2 POP POP JUMP JUMPDEST PUSH1 0x0 DUP2 CALLDATALOAD SWAP1 POP PUSH2 0x459B DUP2 PUSH2 0x6A64 JUMP JUMPDEST SWAP3 SWAP2 POP POP JUMP JUMPDEST PUSH1 0x0 DUP2 CALLDATALOAD SWAP1 POP PUSH2 0x45B0 DUP2 PUSH2 0x6A7B JUMP JUMPDEST SWAP3 SWAP2 POP POP JUMP JUMPDEST PUSH1 0x0 DUP2 MLOAD SWAP1 POP PUSH2 0x45C5 DUP2 PUSH2 0x6A7B JUMP JUMPDEST SWAP3 SWAP2 POP POP JUMP JUMPDEST PUSH1 0x0 DUP2 CALLDATALOAD SWAP1 POP PUSH2 0x45DA DUP2 PUSH2 0x6A92 JUMP JUMPDEST SWAP3 SWAP2 POP POP JUMP JUMPDEST PUSH1 0x0 DUP2 CALLDATALOAD SWAP1 POP PUSH2 0x45EF DUP2 PUSH2 0x6AA9 JUMP JUMPDEST SWAP3 SWAP2 POP POP JUMP JUMPDEST PUSH1 0x0 PUSH1 0x20 DUP3 DUP5 SUB SLT ISZERO PUSH2 0x460B JUMPI PUSH2 0x460A PUSH2 0x5FAE JUMP JUMPDEST JUMPDEST PUSH1 0x0 PUSH2 0x4619 DUP5 DUP3 DUP6 ADD PUSH2 0x44F5 JUMP JUMPDEST SWAP2 POP POP SWAP3 SWAP2 POP POP JUMP JUMPDEST PUSH1 0x0 DUP1 PUSH1 0x40 DUP4 DUP6 SUB SLT ISZERO PUSH2 0x4639 JUMPI PUSH2 0x4638 PUSH2 0x5FAE JUMP JUMPDEST JUMPDEST PUSH1 0x0 PUSH2 0x4647 DUP6 DUP3 DUP7 ADD PUSH2 0x44F5 JUMP JUMPDEST SWAP3 POP POP PUSH1 0x20 PUSH2 0x4658 DUP6 DUP3 DUP7 ADD PUSH2 0x44F5 JUMP JUMPDEST SWAP2 POP POP SWAP3 POP SWAP3 SWAP1 POP JUMP JUMPDEST PUSH1 0x0 DUP1 PUSH1 0x0 PUSH1 0x60 DUP5 DUP7 SUB SLT ISZERO PUSH2 0x467B JUMPI PUSH2 0x467A PUSH2 0x5FAE JUMP JUMPDEST JUMPDEST PUSH1 0x0 PUSH2 0x4689 DUP7 DUP3 DUP8 ADD PUSH2 0x44F5 JUMP JUMPDEST SWAP4 POP POP PUSH1 0x20 PUSH2 0x469A DUP7 DUP3 DUP8 ADD PUSH2 0x44F5 JUMP JUMPDEST SWAP3 POP POP PUSH1 0x40 PUSH2 0x46AB DUP7 DUP3 DUP8 ADD PUSH2 0x45A1 JUMP JUMPDEST SWAP2 POP POP SWAP3 POP SWAP3 POP SWAP3 JUMP JUMPDEST PUSH1 0x0 DUP1 PUSH1 0x0 DUP1 PUSH1 0x80 DUP6 DUP8 SUB SLT ISZERO PUSH2 0x46CF JUMPI PUSH2 0x46CE PUSH2 0x5FAE JUMP JUMPDEST JUMPDEST PUSH1 0x0 PUSH2 0x46DD DUP8 DUP3 DUP9 ADD PUSH2 0x44F5 JUMP JUMPDEST SWAP5 POP POP PUSH1 0x20 PUSH2 0x46EE DUP8 DUP3 DUP9 ADD PUSH2 0x44F5 JUMP JUMPDEST SWAP4 POP POP PUSH1 0x40 PUSH2 0x46FF DUP8 DUP3 DUP9 ADD PUSH2 0x45A1 JUMP JUMPDEST SWAP3 POP POP PUSH1 0x60 DUP6 ADD CALLDATALOAD PUSH8 0xFFFFFFFFFFFFFFFF DUP2 GT ISZERO PUSH2 0x4720 JUMPI PUSH2 0x471F PUSH2 0x5FA9 JUMP JUMPDEST JUMPDEST PUSH2 0x472C DUP8 DUP3 DUP9 ADD PUSH2 0x455E JUMP JUMPDEST SWAP2 POP POP SWAP3 SWAP6 SWAP2 SWAP5 POP SWAP3 POP JUMP JUMPDEST PUSH1 0x0 DUP1 PUSH1 0x40 DUP4 DUP6 SUB SLT ISZERO PUSH2 0x474F JUMPI PUSH2 0x474E PUSH2 0x5FAE JUMP JUMPDEST JUMPDEST PUSH1 0x0 PUSH2 0x475D DUP6 DUP3 DUP7 ADD PUSH2 0x44F5 JUMP JUMPDEST SWAP3 POP POP PUSH1 0x20 PUSH2 0x476E DUP6 DUP3 DUP7 ADD PUSH2 0x450A JUMP JUMPDEST SWAP2 POP POP SWAP3 POP SWAP3 SWAP1 POP JUMP JUMPDEST PUSH1 0x0 DUP1 PUSH1 0x40 DUP4 DUP6 SUB SLT ISZERO PUSH2 0x478F JUMPI PUSH2 0x478E PUSH2 0x5FAE JUMP JUMPDEST JUMPDEST PUSH1 0x0 PUSH2 0x479D DUP6 DUP3 DUP7 ADD PUSH2 0x44F5 JUMP JUMPDEST SWAP3 POP POP PUSH1 0x20 PUSH2 0x47AE DUP6 DUP3 DUP7 ADD PUSH2 0x45A1 JUMP JUMPDEST SWAP2 POP POP SWAP3 POP SWAP3 SWAP1 POP JUMP JUMPDEST PUSH1 0x0 PUSH1 0x20 DUP3 DUP5 SUB SLT ISZERO PUSH2 0x47CE JUMPI PUSH2 0x47CD PUSH2 0x5FAE JUMP JUMPDEST JUMPDEST PUSH1 0x0 PUSH2 0x47DC DUP5 DUP3 DUP6 ADD PUSH2 0x451F JUMP JUMPDEST SWAP2 POP POP SWAP3 SWAP2 POP POP JUMP JUMPDEST PUSH1 0x0 PUSH1 0x20 DUP3 DUP5 SUB SLT ISZERO PUSH2 0x47FB JUMPI PUSH2 0x47FA PUSH2 0x5FAE JUMP JUMPDEST JUMPDEST PUSH1 0x0 PUSH2 0x4809 DUP5 DUP3 DUP6 ADD PUSH2 0x4534 JUMP JUMPDEST SWAP2 POP POP SWAP3 SWAP2 POP POP JUMP JUMPDEST PUSH1 0x0 PUSH1 0x20 DUP3 DUP5 SUB SLT ISZERO PUSH2 0x4828 JUMPI PUSH2 0x4827 PUSH2 0x5FAE JUMP JUMPDEST JUMPDEST PUSH1 0x0 PUSH2 0x4836 DUP5 DUP3 DUP6 ADD PUSH2 0x4549 JUMP JUMPDEST SWAP2 POP POP SWAP3 SWAP2 POP POP JUMP JUMPDEST PUSH1 0x0 PUSH1 0x20 DUP3 DUP5 SUB SLT ISZERO PUSH2 0x4855 JUMPI PUSH2 0x4854 PUSH2 0x5FAE JUMP JUMPDEST JUMPDEST PUSH1 0x0 PUSH2 0x4863 DUP5 DUP3 DUP6 ADD PUSH2 0x458C JUMP JUMPDEST SWAP2 POP POP SWAP3 SWAP2 POP POP JUMP JUMPDEST PUSH1 0x0 PUSH1 0x20 DUP3 DUP5 SUB SLT ISZERO PUSH2 0x4882 JUMPI PUSH2 0x4881 PUSH2 0x5FAE JUMP JUMPDEST JUMPDEST PUSH1 0x0 PUSH2 0x4890 DUP5 DUP3 DUP6 ADD PUSH2 0x45A1 JUMP JUMPDEST SWAP2 POP POP SWAP3 SWAP2 POP POP JUMP JUMPDEST PUSH1 0x0 PUSH1 0x20 DUP3 DUP5 SUB SLT ISZERO PUSH2 0x48AF JUMPI PUSH2 0x48AE PUSH2 0x5FAE JUMP JUMPDEST JUMPDEST PUSH1 0x0 PUSH2 0x48BD DUP5 DUP3 DUP6 ADD PUSH2 0x45B6 JUMP JUMPDEST SWAP2 POP POP SWAP3 SWAP2 POP POP JUMP JUMPDEST PUSH1 0x0 DUP1 PUSH1 0x0 PUSH1 0x60 DUP5 DUP7 SUB SLT ISZERO PUSH2 0x48DF JUMPI PUSH2 0x48DE PUSH2 0x5FAE JUMP JUMPDEST JUMPDEST PUSH1 0x0 PUSH2 0x48ED DUP7 DUP3 DUP8 ADD PUSH2 0x45A1 JUMP JUMPDEST SWAP4 POP POP PUSH1 0x20 PUSH2 0x48FE DUP7 DUP3 DUP8 ADD PUSH2 0x45CB JUMP JUMPDEST SWAP3 POP POP PUSH1 0x40 PUSH2 0x490F DUP7 DUP3 DUP8 ADD PUSH2 0x45E0 JUMP JUMPDEST SWAP2 POP POP SWAP3 POP SWAP3 POP SWAP3 JUMP JUMPDEST PUSH1 0x0 DUP1 PUSH1 0x40 DUP4 DUP6 SUB SLT ISZERO PUSH2 0x4930 JUMPI PUSH2 0x492F PUSH2 0x5FAE JUMP JUMPDEST JUMPDEST PUSH1 0x0 PUSH2 0x493E DUP6 DUP3 DUP7 ADD PUSH2 0x45A1 JUMP JUMPDEST SWAP3 POP POP PUSH1 0x20 PUSH2 0x494F DUP6 DUP3 DUP7 ADD PUSH2 0x45E0 JUMP JUMPDEST SWAP2 POP POP SWAP3 POP SWAP3 SWAP1 POP JUMP JUMPDEST PUSH1 0x0 PUSH1 0x20 DUP3 DUP5 SUB SLT ISZERO PUSH2 0x496F JUMPI PUSH2 0x496E PUSH2 0x5FAE JUMP JUMPDEST JUMPDEST PUSH1 0x0 PUSH2 0x497D DUP5 DUP3 DUP6 ADD PUSH2 0x45CB JUMP JUMPDEST SWAP2 POP POP SWAP3 SWAP2 POP POP JUMP JUMPDEST PUSH1 0x0 PUSH2 0x4992 DUP4 DUP4 PUSH2 0x5098 JUMP JUMPDEST PUSH1 0x20 DUP4 ADD SWAP1 POP SWAP3 SWAP2 POP POP JUMP JUMPDEST PUSH2 0x49A7 DUP2 PUSH2 0x5C37 JUMP JUMPDEST DUP3 MSTORE POP POP JUMP JUMPDEST PUSH2 0x49B6 DUP2 PUSH2 0x5983 JUMP JUMPDEST PUSH2 0x49C0 DUP2 DUP5 PUSH2 0x59C9 JUMP JUMPDEST SWAP3 POP PUSH2 0x49CB DUP3 PUSH2 0x5954 JUMP JUMPDEST DUP1 PUSH1 0x0 JUMPDEST DUP4 DUP2 LT ISZERO PUSH2 0x49FC JUMPI DUP2 MLOAD PUSH2 0x49E3 DUP8 DUP3 PUSH2 0x4986 JUMP JUMPDEST SWAP7 POP PUSH2 0x49EE DUP4 PUSH2 0x59AF JUMP JUMPDEST SWAP3 POP POP PUSH1 0x1 DUP2 ADD SWAP1 POP PUSH2 0x49CF JUMP JUMPDEST POP POP POP POP POP POP JUMP JUMPDEST PUSH1 0x0 PUSH2 0x4A0F DUP3 PUSH2 0x598E JUMP JUMPDEST PUSH2 0x4A19 DUP2 DUP6 PUSH2 0x59D4 JUMP JUMPDEST SWAP4 POP PUSH2 0x4A24 DUP4 PUSH2 0x595E JUMP JUMPDEST DUP1 PUSH1 0x0 JUMPDEST DUP4 DUP2 LT ISZERO PUSH2 0x4A55 JUMPI DUP2 MLOAD PUSH2 0x4A3C DUP9 DUP3 PUSH2 0x4986 JUMP JUMPDEST SWAP8 POP PUSH2 0x4A47 DUP4 PUSH2 0x59BC JUMP JUMPDEST SWAP3 POP POP PUSH1 0x1 DUP2 ADD SWAP1 POP PUSH2 0x4A28 JUMP JUMPDEST POP DUP6 SWAP4 POP POP POP POP SWAP3 SWAP2 POP POP JUMP JUMPDEST PUSH2 0x4A6B DUP2 PUSH2 0x5C49 JUMP JUMPDEST DUP3 MSTORE POP POP JUMP JUMPDEST PUSH1 0x0 PUSH2 0x4A7C DUP3 PUSH2 0x5999 JUMP JUMPDEST PUSH2 0x4A86 DUP2 DUP6 PUSH2 0x59E5 JUMP JUMPDEST SWAP4 POP PUSH2 0x4A96 DUP2 DUP6 PUSH1 0x20 DUP7 ADD PUSH2 0x5D3F JUMP JUMPDEST PUSH2 0x4A9F DUP2 PUSH2 0x5FB3 JUMP JUMPDEST DUP5 ADD SWAP2 POP POP SWAP3 SWAP2 POP POP JUMP JUMPDEST PUSH2 0x4AB3 DUP2 PUSH2 0x5CD6 JUMP JUMPDEST DUP3 MSTORE POP POP JUMP JUMPDEST PUSH2 0x4AC2 DUP2 PUSH2 0x5CE8 JUMP JUMPDEST DUP3 MSTORE POP POP JUMP JUMPDEST PUSH2 0x4AD1 DUP2 PUSH2 0x5CFA JUMP JUMPDEST DUP3 MSTORE POP POP JUMP JUMPDEST PUSH1 0x0 PUSH2 0x4AE2 DUP3 PUSH2 0x59A4 JUMP JUMPDEST PUSH2 0x4AEC DUP2 DUP6 PUSH2 0x59F6 JUMP JUMPDEST SWAP4 POP PUSH2 0x4AFC DUP2 DUP6 PUSH1 0x20 DUP7 ADD PUSH2 0x5D3F JUMP JUMPDEST PUSH2 0x4B05 DUP2 PUSH2 0x5FB3 JUMP JUMPDEST DUP5 ADD SWAP2 POP POP SWAP3 SWAP2 POP POP JUMP JUMPDEST PUSH1 0x0 PUSH2 0x4B1B DUP3 PUSH2 0x59A4 JUMP JUMPDEST PUSH2 0x4B25 DUP2 DUP6 PUSH2 0x5A07 JUMP JUMPDEST SWAP4 POP PUSH2 0x4B35 DUP2 DUP6 PUSH1 0x20 DUP7 ADD PUSH2 0x5D3F JUMP JUMPDEST DUP1 DUP5 ADD SWAP2 POP POP SWAP3 SWAP2 POP POP JUMP JUMPDEST PUSH1 0x0 DUP2 SLOAD PUSH2 0x4B4E DUP2 PUSH2 0x5D72 JUMP JUMPDEST PUSH2 0x4B58 DUP2 DUP7 PUSH2 0x5A07 JUMP JUMPDEST SWAP5 POP PUSH1 0x1 DUP3 AND PUSH1 0x0 DUP2 EQ PUSH2 0x4B73 JUMPI PUSH1 0x1 DUP2 EQ PUSH2 0x4B84 JUMPI PUSH2 0x4BB7 JUMP JUMPDEST PUSH1 0xFF NOT DUP4 AND DUP7 MSTORE DUP2 DUP7 ADD SWAP4 POP PUSH2 0x4BB7 JUMP JUMPDEST PUSH2 0x4B8D DUP6 PUSH2 0x596E JUMP JUMPDEST PUSH1 0x0 JUMPDEST DUP4 DUP2 LT ISZERO PUSH2 0x4BAF JUMPI DUP2 SLOAD DUP2 DUP10 ADD MSTORE PUSH1 0x1 DUP3 ADD SWAP2 POP PUSH1 0x20 DUP2 ADD SWAP1 POP PUSH2 0x4B90 JUMP JUMPDEST DUP4 DUP9 ADD SWAP6 POP POP POP JUMPDEST POP POP POP SWAP3 SWAP2 POP POP JUMP JUMPDEST PUSH1 0x0 PUSH2 0x4BCD PUSH1 0x1E DUP4 PUSH2 0x59F6 JUMP JUMPDEST SWAP2 POP PUSH2 0x4BD8 DUP3 PUSH2 0x5FC4 JUMP JUMPDEST PUSH1 0x20 DUP3 ADD SWAP1 POP SWAP2 SWAP1 POP JUMP JUMPDEST PUSH1 0x0 PUSH2 0x4BF0 PUSH1 0x45 DUP4 PUSH2 0x59F6 JUMP JUMPDEST SWAP2 POP PUSH2 0x4BFB DUP3 PUSH2 0x5FED JUMP JUMPDEST PUSH1 0x60 DUP3 ADD SWAP1 POP SWAP2 SWAP1 POP JUMP JUMPDEST PUSH1 0x0 PUSH2 0x4C13 PUSH1 0x23 DUP4 PUSH2 0x59F6 JUMP JUMPDEST SWAP2 POP PUSH2 0x4C1E DUP3 PUSH2 0x6062 JUMP JUMPDEST PUSH1 0x40 DUP3 ADD SWAP1 POP SWAP2 SWAP1 POP JUMP JUMPDEST PUSH1 0x0 PUSH2 0x4C36 PUSH1 0x32 DUP4 PUSH2 0x59F6 JUMP JUMPDEST SWAP2 POP PUSH2 0x4C41 DUP3 PUSH2 0x60B1 JUMP JUMPDEST PUSH1 0x40 DUP3 ADD SWAP1 POP SWAP2 SWAP1 POP JUMP JUMPDEST PUSH1 0x0 PUSH2 0x4C59 PUSH1 0x32 DUP4 PUSH2 0x59F6 JUMP JUMPDEST SWAP2 POP PUSH2 0x4C64 DUP3 PUSH2 0x6100 JUMP JUMPDEST PUSH1 0x40 DUP3 ADD SWAP1 POP SWAP2 SWAP1 POP JUMP JUMPDEST PUSH1 0x0 PUSH2 0x4C7C PUSH1 0x8 DUP4 PUSH2 0x59F6 JUMP JUMPDEST SWAP2 POP PUSH2 0x4C87 DUP3 PUSH2 0x614F JUMP JUMPDEST PUSH1 0x20 DUP3 ADD SWAP1 POP SWAP2 SWAP1 POP JUMP JUMPDEST PUSH1 0x0 PUSH2 0x4C9F PUSH1 0x30 DUP4 PUSH2 0x59F6 JUMP JUMPDEST SWAP2 POP PUSH2 0x4CAA DUP3 PUSH2 0x6178 JUMP JUMPDEST PUSH1 0x40 DUP3 ADD SWAP1 POP SWAP2 SWAP1 POP JUMP JUMPDEST PUSH1 0x0 PUSH2 0x4CC2 PUSH1 0x1C DUP4 PUSH2 0x59F6 JUMP JUMPDEST SWAP2 POP PUSH2 0x4CCD DUP3 PUSH2 0x61C7 JUMP JUMPDEST PUSH1 0x20 DUP3 ADD SWAP1 POP SWAP2 SWAP1 POP JUMP JUMPDEST PUSH1 0x0 PUSH2 0x4CE5 PUSH1 0x32 DUP4 PUSH2 0x59F6 JUMP JUMPDEST SWAP2 POP PUSH2 0x4CF0 DUP3 PUSH2 0x61F0 JUMP JUMPDEST PUSH1 0x40 DUP3 ADD SWAP1 POP SWAP2 SWAP1 POP JUMP JUMPDEST PUSH1 0x0 PUSH2 0x4D08 PUSH1 0x24 DUP4 PUSH2 0x59F6 JUMP JUMPDEST SWAP2 POP PUSH2 0x4D13 DUP3 PUSH2 0x623F JUMP JUMPDEST PUSH1 0x40 DUP3 ADD SWAP1 POP SWAP2 SWAP1 POP JUMP JUMPDEST PUSH1 0x0 PUSH2 0x4D2B PUSH1 0x19 DUP4 PUSH2 0x59F6 JUMP JUMPDEST SWAP2 POP PUSH2 0x4D36 DUP3 PUSH2 0x628E JUMP JUMPDEST PUSH1 0x20 DUP3 ADD SWAP1 POP SWAP2 SWAP1 POP JUMP JUMPDEST PUSH1 0x0 PUSH2 0x4D4E PUSH1 0x25 DUP4 PUSH2 0x59F6 JUMP JUMPDEST SWAP2 POP PUSH2 0x4D59 DUP3 PUSH2 0x62B7 JUMP JUMPDEST PUSH1 0x40 DUP3 ADD SWAP1 POP SWAP2 SWAP1 POP JUMP JUMPDEST PUSH1 0x0 PUSH2 0x4D71 PUSH1 0x2C DUP4 PUSH2 0x59F6 JUMP JUMPDEST SWAP2 POP PUSH2 0x4D7C DUP3 PUSH2 0x6306 JUMP JUMPDEST PUSH1 0x40 DUP3 ADD SWAP1 POP SWAP2 SWAP1 POP JUMP JUMPDEST PUSH1 0x0 PUSH2 0x4D94 PUSH1 0x32 DUP4 PUSH2 0x59F6 JUMP JUMPDEST SWAP2 POP PUSH2 0x4D9F DUP3 PUSH2 0x6355 JUMP JUMPDEST PUSH1 0x40 DUP3 ADD SWAP1 POP SWAP2 SWAP1 POP JUMP JUMPDEST PUSH1 0x0 PUSH2 0x4DB7 PUSH1 0x27 DUP4 PUSH2 0x59F6 JUMP JUMPDEST SWAP2 POP PUSH2 0x4DC2 DUP3 PUSH2 0x63A4 JUMP JUMPDEST PUSH1 0x40 DUP3 ADD SWAP1 POP SWAP2 SWAP1 POP JUMP JUMPDEST PUSH1 0x0 PUSH2 0x4DDA PUSH1 0x38 DUP4 PUSH2 0x59F6 JUMP JUMPDEST SWAP2 POP PUSH2 0x4DE5 DUP3 PUSH2 0x63F3 JUMP JUMPDEST PUSH1 0x40 DUP3 ADD SWAP1 POP SWAP2 SWAP1 POP JUMP JUMPDEST PUSH1 0x0 PUSH2 0x4DFD PUSH1 0x29 DUP4 PUSH2 0x59F6 JUMP JUMPDEST SWAP2 POP PUSH2 0x4E08 DUP3 PUSH2 0x6442 JUMP JUMPDEST PUSH1 0x40 DUP3 ADD SWAP1 POP SWAP2 SWAP1 POP JUMP JUMPDEST PUSH1 0x0 PUSH2 0x4E20 PUSH1 0x2A DUP4 PUSH2 0x59F6 JUMP JUMPDEST SWAP2 POP PUSH2 0x4E2B DUP3 PUSH2 0x6491 JUMP JUMPDEST PUSH1 0x40 DUP3 ADD SWAP1 POP SWAP2 SWAP1 POP JUMP JUMPDEST PUSH1 0x0 PUSH2 0x4E43 PUSH1 0x29 DUP4 PUSH2 0x59F6 JUMP JUMPDEST SWAP2 POP PUSH2 0x4E4E DUP3 PUSH2 0x64E0 JUMP JUMPDEST PUSH1 0x40 DUP3 ADD SWAP1 POP SWAP2 SWAP1 POP JUMP JUMPDEST PUSH1 0x0 PUSH2 0x4E66 PUSH1 0x20 DUP4 PUSH2 0x59F6 JUMP JUMPDEST SWAP2 POP PUSH2 0x4E71 DUP3 PUSH2 0x652F JUMP JUMPDEST PUSH1 0x20 DUP3 ADD SWAP1 POP SWAP2 SWAP1 POP JUMP JUMPDEST PUSH1 0x0 PUSH2 0x4E89 PUSH1 0x2C DUP4 PUSH2 0x59F6 JUMP JUMPDEST SWAP2 POP PUSH2 0x4E94 DUP3 PUSH2 0x6558 JUMP JUMPDEST PUSH1 0x40 DUP3 ADD SWAP1 POP SWAP2 SWAP1 POP JUMP JUMPDEST PUSH1 0x0 PUSH2 0x4EAC PUSH1 0x32 DUP4 PUSH2 0x59F6 JUMP JUMPDEST SWAP2 POP PUSH2 0x4EB7 DUP3 PUSH2 0x65A7 JUMP JUMPDEST PUSH1 0x40 DUP3 ADD SWAP1 POP SWAP2 SWAP1 POP JUMP JUMPDEST PUSH1 0x0 PUSH2 0x4ECF PUSH1 0x3D DUP4 PUSH2 0x59F6 JUMP JUMPDEST SWAP2 POP PUSH2 0x4EDA DUP3 PUSH2 0x65F6 JUMP JUMPDEST PUSH1 0x40 DUP3 ADD SWAP1 POP SWAP2 SWAP1 POP JUMP JUMPDEST PUSH1 0x0 PUSH2 0x4EF2 PUSH1 0x36 DUP4 PUSH2 0x59F6 JUMP JUMPDEST SWAP2 POP PUSH2 0x4EFD DUP3 PUSH2 0x6645 JUMP JUMPDEST PUSH1 0x40 DUP3 ADD SWAP1 POP SWAP2 SWAP1 POP JUMP JUMPDEST PUSH1 0x0 PUSH2 0x4F15 PUSH1 0x29 DUP4 PUSH2 0x59F6 JUMP JUMPDEST SWAP2 POP PUSH2 0x4F20 DUP3 PUSH2 0x6694 JUMP JUMPDEST PUSH1 0x40 DUP3 ADD SWAP1 POP SWAP2 SWAP1 POP JUMP JUMPDEST PUSH1 0x0 PUSH2 0x4F38 PUSH1 0x2F DUP4 PUSH2 0x59F6 JUMP JUMPDEST SWAP2 POP PUSH2 0x4F43 DUP3 PUSH2 0x66E3 JUMP JUMPDEST PUSH1 0x40 DUP3 ADD SWAP1 POP SWAP2 SWAP1 POP JUMP JUMPDEST PUSH1 0x0 PUSH2 0x4F5B PUSH1 0x16 DUP4 PUSH2 0x59F6 JUMP JUMPDEST SWAP2 POP PUSH2 0x4F66 DUP3 PUSH2 0x6732 JUMP JUMPDEST PUSH1 0x20 DUP3 ADD SWAP1 POP SWAP2 SWAP1 POP JUMP JUMPDEST PUSH1 0x0 PUSH2 0x4F7E PUSH1 0x21 DUP4 PUSH2 0x59F6 JUMP JUMPDEST SWAP2 POP PUSH2 0x4F89 DUP3 PUSH2 0x675B JUMP JUMPDEST PUSH1 0x40 DUP3 ADD SWAP1 POP SWAP2 SWAP1 POP JUMP JUMPDEST PUSH1 0x0 PUSH2 0x4FA1 PUSH1 0x1C DUP4 PUSH2 0x59F6 JUMP JUMPDEST SWAP2 POP PUSH2 0x4FAC DUP3 PUSH2 0x67AA JUMP JUMPDEST PUSH1 0x20 DUP3 ADD SWAP1 POP SWAP2 SWAP1 POP JUMP JUMPDEST PUSH1 0x0 PUSH2 0x4FC4 PUSH1 0x31 DUP4 PUSH2 0x59F6 JUMP JUMPDEST SWAP2 POP PUSH2 0x4FCF DUP3 PUSH2 0x67D3 JUMP JUMPDEST PUSH1 0x40 DUP3 ADD SWAP1 POP SWAP2 SWAP1 POP JUMP JUMPDEST PUSH1 0x0 PUSH2 0x4FE7 PUSH1 0x2F DUP4 PUSH2 0x59F6 JUMP JUMPDEST SWAP2 POP PUSH2 0x4FF2 DUP3 PUSH2 0x6822 JUMP JUMPDEST PUSH1 0x40 DUP3 ADD SWAP1 POP SWAP2 SWAP1 POP JUMP JUMPDEST PUSH1 0x0 PUSH2 0x500A PUSH1 0x22 DUP4 PUSH2 0x59F6 JUMP JUMPDEST SWAP2 POP PUSH2 0x5015 DUP3 PUSH2 0x6871 JUMP JUMPDEST PUSH1 0x40 DUP3 ADD SWAP1 POP SWAP2 SWAP1 POP JUMP JUMPDEST PUSH1 0x0 PUSH2 0x502D PUSH1 0x21 DUP4 PUSH2 0x59F6 JUMP JUMPDEST SWAP2 POP PUSH2 0x5038 DUP3 PUSH2 0x68C0 JUMP JUMPDEST PUSH1 0x40 DUP3 ADD SWAP1 POP SWAP2 SWAP1 POP JUMP JUMPDEST PUSH1 0x0 PUSH2 0x5050 PUSH1 0x26 DUP4 PUSH2 0x59F6 JUMP JUMPDEST SWAP2 POP PUSH2 0x505B DUP3 PUSH2 0x690F JUMP JUMPDEST PUSH1 0x40 DUP3 ADD SWAP1 POP SWAP2 SWAP1 POP JUMP JUMPDEST PUSH1 0x0 PUSH2 0x5073 PUSH1 0x97 DUP4 PUSH2 0x59F6 JUMP JUMPDEST SWAP2 POP PUSH2 0x507E DUP3 PUSH2 0x695E JUMP JUMPDEST PUSH1 0xA0 DUP3 ADD SWAP1 POP SWAP2 SWAP1 POP JUMP JUMPDEST PUSH2 0x5092 DUP2 PUSH2 0x5C81 JUMP JUMPDEST DUP3 MSTORE POP POP JUMP JUMPDEST PUSH2 0x50A1 DUP2 PUSH2 0x5CAF JUMP JUMPDEST DUP3 MSTORE POP POP JUMP JUMPDEST PUSH2 0x50B0 DUP2 PUSH2 0x5CAF JUMP JUMPDEST DUP3 MSTORE POP POP JUMP JUMPDEST PUSH2 0x50C7 PUSH2 0x50C2 DUP3 PUSH2 0x5CAF JUMP JUMPDEST PUSH2 0x5E48 JUMP JUMPDEST DUP3 MSTORE POP POP JUMP JUMPDEST PUSH2 0x50D6 DUP2 PUSH2 0x5CC9 JUMP JUMPDEST DUP3 MSTORE POP POP JUMP JUMPDEST PUSH1 0x0 PUSH2 0x50E8 DUP3 DUP6 PUSH2 0x4B10 JUMP JUMPDEST SWAP2 POP PUSH2 0x50F4 DUP3 DUP5 PUSH2 0x4B10 JUMP JUMPDEST SWAP2 POP DUP2 SWAP1 POP SWAP4 SWAP3 POP POP POP JUMP JUMPDEST PUSH1 0x0 PUSH2 0x510C DUP3 DUP6 PUSH2 0x4B41 JUMP JUMPDEST SWAP2 POP PUSH2 0x5118 DUP3 DUP5 PUSH2 0x4B10 JUMP JUMPDEST SWAP2 POP DUP2 SWAP1 POP SWAP4 SWAP3 POP POP POP JUMP JUMPDEST PUSH1 0x0 PUSH2 0x5130 DUP3 DUP6 PUSH2 0x50B6 JUMP JUMPDEST PUSH1 0x20 DUP3 ADD SWAP2 POP PUSH2 0x5140 DUP3 DUP5 PUSH2 0x50B6 JUMP JUMPDEST PUSH1 0x20 DUP3 ADD SWAP2 POP DUP2 SWAP1 POP SWAP4 SWAP3 POP POP POP JUMP JUMPDEST PUSH1 0x0 PUSH1 0x20 DUP3 ADD SWAP1 POP PUSH2 0x5165 PUSH1 0x0 DUP4 ADD DUP5 PUSH2 0x499E JUMP JUMPDEST SWAP3 SWAP2 POP POP JUMP JUMPDEST PUSH1 0x0 PUSH2 0x160 DUP3 ADD SWAP1 POP PUSH2 0x5181 PUSH1 0x0 DUP4 ADD DUP15 PUSH2 0x499E JUMP JUMPDEST PUSH2 0x518E PUSH1 0x20 DUP4 ADD DUP14 PUSH2 0x499E JUMP JUMPDEST PUSH2 0x519B PUSH1 0x40 DUP4 ADD DUP13 PUSH2 0x5089 JUMP JUMPDEST PUSH2 0x51A8 PUSH1 0x60 DUP4 ADD DUP12 PUSH2 0x5089 JUMP JUMPDEST PUSH2 0x51B5 PUSH1 0x80 DUP4 ADD DUP11 PUSH2 0x50A7 JUMP JUMPDEST PUSH2 0x51C2 PUSH1 0xA0 DUP4 ADD DUP10 PUSH2 0x50A7 JUMP JUMPDEST PUSH2 0x51CF PUSH1 0xC0 DUP4 ADD DUP9 PUSH2 0x50A7 JUMP JUMPDEST PUSH2 0x51DC PUSH1 0xE0 DUP4 ADD DUP8 PUSH2 0x50A7 JUMP JUMPDEST PUSH2 0x51EA PUSH2 0x100 DUP4 ADD DUP7 PUSH2 0x50A7 JUMP JUMPDEST PUSH2 0x51F8 PUSH2 0x120 DUP4 ADD DUP6 PUSH2 0x50A7 JUMP JUMPDEST PUSH2 0x5206 PUSH2 0x140 DUP4 ADD DUP5 PUSH2 0x4A62 JUMP JUMPDEST SWAP13 SWAP12 POP POP POP POP POP POP POP POP POP POP POP POP JUMP JUMPDEST PUSH1 0x0 PUSH1 0x60 DUP3 ADD SWAP1 POP PUSH2 0x522B PUSH1 0x0 DUP4 ADD DUP7 PUSH2 0x499E JUMP JUMPDEST PUSH2 0x5238 PUSH1 0x20 DUP4 ADD DUP6 PUSH2 0x499E JUMP JUMPDEST PUSH2 0x5245 PUSH1 0x40 DUP4 ADD DUP5 PUSH2 0x50A7 JUMP JUMPDEST SWAP5 SWAP4 POP POP POP POP JUMP JUMPDEST PUSH1 0x0 PUSH1 0x80 DUP3 ADD SWAP1 POP PUSH2 0x5262 PUSH1 0x0 DUP4 ADD DUP8 PUSH2 0x499E JUMP JUMPDEST PUSH2 0x526F PUSH1 0x20 DUP4 ADD DUP7 PUSH2 0x499E JUMP JUMPDEST PUSH2 0x527C PUSH1 0x40 DUP4 ADD DUP6 PUSH2 0x50A7 JUMP JUMPDEST DUP2 DUP2 SUB PUSH1 0x60 DUP4 ADD MSTORE PUSH2 0x528E DUP2 DUP5 PUSH2 0x4A71 JUMP JUMPDEST SWAP1 POP SWAP6 SWAP5 POP POP POP POP POP JUMP JUMPDEST PUSH1 0x0 PUSH1 0x40 DUP3 ADD SWAP1 POP PUSH2 0x52AE PUSH1 0x0 DUP4 ADD DUP6 PUSH2 0x499E JUMP JUMPDEST PUSH2 0x52BB PUSH1 0x20 DUP4 ADD DUP5 PUSH2 0x50A7 JUMP JUMPDEST SWAP4 SWAP3 POP POP POP JUMP JUMPDEST PUSH1 0x0 PUSH1 0x40 DUP3 ADD SWAP1 POP PUSH2 0x52D7 PUSH1 0x0 DUP4 ADD DUP5 PUSH2 0x49AD JUMP JUMPDEST SWAP3 SWAP2 POP POP JUMP JUMPDEST PUSH1 0x0 PUSH1 0x20 DUP3 ADD SWAP1 POP DUP2 DUP2 SUB PUSH1 0x0 DUP4 ADD MSTORE PUSH2 0x52F7 DUP2 DUP5 PUSH2 0x4A04 JUMP JUMPDEST SWAP1 POP SWAP3 SWAP2 POP POP JUMP JUMPDEST PUSH1 0x0 PUSH1 0x20 DUP3 ADD SWAP1 POP PUSH2 0x5314 PUSH1 0x0 DUP4 ADD DUP5 PUSH2 0x4A62 JUMP JUMPDEST SWAP3 SWAP2 POP POP JUMP JUMPDEST PUSH1 0x0 PUSH1 0x20 DUP3 ADD SWAP1 POP PUSH2 0x532F PUSH1 0x0 DUP4 ADD DUP5 PUSH2 0x4AAA JUMP JUMPDEST SWAP3 SWAP2 POP POP JUMP JUMPDEST PUSH1 0x0 PUSH1 0x20 DUP3 ADD SWAP1 POP PUSH2 0x534A PUSH1 0x0 DUP4 ADD DUP5 PUSH2 0x4AB9 JUMP JUMPDEST SWAP3 SWAP2 POP POP JUMP JUMPDEST PUSH1 0x0 PUSH1 0x20 DUP3 ADD SWAP1 POP PUSH2 0x5365 PUSH1 0x0 DUP4 ADD DUP5 PUSH2 0x4AC8 JUMP JUMPDEST SWAP3 SWAP2 POP POP JUMP JUMPDEST PUSH1 0x0 PUSH1 0x20 DUP3 ADD SWAP1 POP DUP2 DUP2 SUB PUSH1 0x0 DUP4 ADD MSTORE PUSH2 0x5385 DUP2 DUP5 PUSH2 0x4AD7 JUMP JUMPDEST SWAP1 POP SWAP3 SWAP2 POP POP JUMP JUMPDEST PUSH1 0x0 PUSH1 0x20 DUP3 ADD SWAP1 POP DUP2 DUP2 SUB PUSH1 0x0 DUP4 ADD MSTORE PUSH2 0x53A6 DUP2 PUSH2 0x4BC0 JUMP JUMPDEST SWAP1 POP SWAP2 SWAP1 POP JUMP JUMPDEST PUSH1 0x0 PUSH1 0x20 DUP3 ADD SWAP1 POP DUP2 DUP2 SUB PUSH1 0x0 DUP4 ADD MSTORE PUSH2 0x53C6 DUP2 PUSH2 0x4BE3 JUMP JUMPDEST SWAP1 POP SWAP2 SWAP1 POP JUMP JUMPDEST PUSH1 0x0 PUSH1 0x20 DUP3 ADD SWAP1 POP DUP2 DUP2 SUB PUSH1 0x0 DUP4 ADD MSTORE PUSH2 0x53E6 DUP2 PUSH2 0x4C06 JUMP JUMPDEST SWAP1 POP SWAP2 SWAP1 POP JUMP JUMPDEST PUSH1 0x0 PUSH1 0x20 DUP3 ADD SWAP1 POP DUP2 DUP2 SUB PUSH1 0x0 DUP4 ADD MSTORE PUSH2 0x5406 DUP2 PUSH2 0x4C29 JUMP JUMPDEST SWAP1 POP SWAP2 SWAP1 POP JUMP JUMPDEST PUSH1 0x0 PUSH1 0x20 DUP3 ADD SWAP1 POP DUP2 DUP2 SUB PUSH1 0x0 DUP4 ADD MSTORE PUSH2 0x5426 DUP2 PUSH2 0x4C4C JUMP JUMPDEST SWAP1 POP SWAP2 SWAP1 POP JUMP JUMPDEST PUSH1 0x0 PUSH1 0x20 DUP3 ADD SWAP1 POP DUP2 DUP2 SUB PUSH1 0x0 DUP4 ADD MSTORE PUSH2 0x5446 DUP2 PUSH2 0x4C6F JUMP JUMPDEST SWAP1 POP SWAP2 SWAP1 POP JUMP JUMPDEST PUSH1 0x0 PUSH1 0x20 DUP3 ADD SWAP1 POP DUP2 DUP2 SUB PUSH1 0x0 DUP4 ADD MSTORE PUSH2 0x5466 DUP2 PUSH2 0x4C92 JUMP JUMPDEST SWAP1 POP SWAP2 SWAP1 POP JUMP JUMPDEST PUSH1 0x0 PUSH1 0x20 DUP3 ADD SWAP1 POP DUP2 DUP2 SUB PUSH1 0x0 DUP4 ADD MSTORE PUSH2 0x5486 DUP2 PUSH2 0x4CB5 JUMP JUMPDEST SWAP1 POP SWAP2 SWAP1 POP JUMP JUMPDEST PUSH1 0x0 PUSH1 0x20 DUP3 ADD SWAP1 POP DUP2 DUP2 SUB PUSH1 0x0 DUP4 ADD MSTORE PUSH2 0x54A6 DUP2 PUSH2 0x4CD8 JUMP JUMPDEST SWAP1 POP SWAP2 SWAP1 POP JUMP JUMPDEST PUSH1 0x0 PUSH1 0x20 DUP3 ADD SWAP1 POP DUP2 DUP2 SUB PUSH1 0x0 DUP4 ADD MSTORE PUSH2 0x54C6 DUP2 PUSH2 0x4CFB JUMP JUMPDEST SWAP1 POP SWAP2 SWAP1 POP JUMP JUMPDEST PUSH1 0x0 PUSH1 0x20 DUP3 ADD SWAP1 POP DUP2 DUP2 SUB PUSH1 0x0 DUP4 ADD MSTORE PUSH2 0x54E6 DUP2 PUSH2 0x4D1E JUMP JUMPDEST SWAP1 POP SWAP2 SWAP1 POP JUMP JUMPDEST PUSH1 0x0 PUSH1 0x20 DUP3 ADD SWAP1 POP DUP2 DUP2 SUB PUSH1 0x0 DUP4 ADD MSTORE PUSH2 0x5506 DUP2 PUSH2 0x4D41 JUMP JUMPDEST SWAP1 POP SWAP2 SWAP1 POP JUMP JUMPDEST PUSH1 0x0 PUSH1 0x20 DUP3 ADD SWAP1 POP DUP2 DUP2 SUB PUSH1 0x0 DUP4 ADD MSTORE PUSH2 0x5526 DUP2 PUSH2 0x4D64 JUMP JUMPDEST SWAP1 POP SWAP2 SWAP1 POP JUMP JUMPDEST PUSH1 0x0 PUSH1 0x20 DUP3 ADD SWAP1 POP DUP2 DUP2 SUB PUSH1 0x0 DUP4 ADD MSTORE PUSH2 0x5546 DUP2 PUSH2 0x4D87 JUMP JUMPDEST SWAP1 POP SWAP2 SWAP1 POP JUMP JUMPDEST PUSH1 0x0 PUSH1 0x20 DUP3 ADD SWAP1 POP DUP2 DUP2 SUB PUSH1 0x0 DUP4 ADD MSTORE PUSH2 0x5566 DUP2 PUSH2 0x4DAA JUMP JUMPDEST SWAP1 POP SWAP2 SWAP1 POP JUMP JUMPDEST PUSH1 0x0 PUSH1 0x20 DUP3 ADD SWAP1 POP DUP2 DUP2 SUB PUSH1 0x0 DUP4 ADD MSTORE PUSH2 0x5586 DUP2 PUSH2 0x4DCD JUMP JUMPDEST SWAP1 POP SWAP2 SWAP1 POP JUMP JUMPDEST PUSH1 0x0 PUSH1 0x20 DUP3 ADD SWAP1 POP DUP2 DUP2 SUB PUSH1 0x0 DUP4 ADD MSTORE PUSH2 0x55A6 DUP2 PUSH2 0x4DF0 JUMP JUMPDEST SWAP1 POP SWAP2 SWAP1 POP JUMP JUMPDEST PUSH1 0x0 PUSH1 0x20 DUP3 ADD SWAP1 POP DUP2 DUP2 SUB PUSH1 0x0 DUP4 ADD MSTORE PUSH2 0x55C6 DUP2 PUSH2 0x4E13 JUMP JUMPDEST SWAP1 POP SWAP2 SWAP1 POP JUMP JUMPDEST PUSH1 0x0 PUSH1 0x20 DUP3 ADD SWAP1 POP DUP2 DUP2 SUB PUSH1 0x0 DUP4 ADD MSTORE PUSH2 0x55E6 DUP2 PUSH2 0x4E36 JUMP JUMPDEST SWAP1 POP SWAP2 SWAP1 POP JUMP JUMPDEST PUSH1 0x0 PUSH1 0x20 DUP3 ADD SWAP1 POP DUP2 DUP2 SUB PUSH1 0x0 DUP4 ADD MSTORE PUSH2 0x5606 DUP2 PUSH2 0x4E59 JUMP JUMPDEST SWAP1 POP SWAP2 SWAP1 POP JUMP JUMPDEST PUSH1 0x0 PUSH1 0x20 DUP3 ADD SWAP1 POP DUP2 DUP2 SUB PUSH1 0x0 DUP4 ADD MSTORE PUSH2 0x5626 DUP2 PUSH2 0x4E7C JUMP JUMPDEST SWAP1 POP SWAP2 SWAP1 POP JUMP JUMPDEST PUSH1 0x0 PUSH1 0x20 DUP3 ADD SWAP1 POP DUP2 DUP2 SUB PUSH1 0x0 DUP4 ADD MSTORE PUSH2 0x5646 DUP2 PUSH2 0x4E9F JUMP JUMPDEST SWAP1 POP SWAP2 SWAP1 POP JUMP JUMPDEST PUSH1 0x0 PUSH1 0x20 DUP3 ADD SWAP1 POP DUP2 DUP2 SUB PUSH1 0x0 DUP4 ADD MSTORE PUSH2 0x5666 DUP2 PUSH2 0x4EC2 JUMP JUMPDEST SWAP1 POP SWAP2 SWAP1 POP JUMP JUMPDEST PUSH1 0x0 PUSH1 0x20 DUP3 ADD SWAP1 POP DUP2 DUP2 SUB PUSH1 0x0 DUP4 ADD MSTORE PUSH2 0x5686 DUP2 PUSH2 0x4EE5 JUMP JUMPDEST SWAP1 POP SWAP2 SWAP1 POP JUMP JUMPDEST PUSH1 0x0 PUSH1 0x20 DUP3 ADD SWAP1 POP DUP2 DUP2 SUB PUSH1 0x0 DUP4 ADD MSTORE PUSH2 0x56A6 DUP2 PUSH2 0x4F08 JUMP JUMPDEST SWAP1 POP SWAP2 SWAP1 POP JUMP JUMPDEST PUSH1 0x0 PUSH1 0x20 DUP3 ADD SWAP1 POP DUP2 DUP2 SUB PUSH1 0x0 DUP4 ADD MSTORE PUSH2 0x56C6 DUP2 PUSH2 0x4F2B JUMP JUMPDEST SWAP1 POP SWAP2 SWAP1 POP JUMP JUMPDEST PUSH1 0x0 PUSH1 0x20 DUP3 ADD SWAP1 POP DUP2 DUP2 SUB PUSH1 0x0 DUP4 ADD MSTORE PUSH2 0x56E6 DUP2 PUSH2 0x4F4E JUMP JUMPDEST SWAP1 POP SWAP2 SWAP1 POP JUMP JUMPDEST PUSH1 0x0 PUSH1 0x20 DUP3 ADD SWAP1 POP DUP2 DUP2 SUB PUSH1 0x0 DUP4 ADD MSTORE PUSH2 0x5706 DUP2 PUSH2 0x4F71 JUMP JUMPDEST SWAP1 POP SWAP2 SWAP1 POP JUMP JUMPDEST PUSH1 0x0 PUSH1 0x20 DUP3 ADD SWAP1 POP DUP2 DUP2 SUB PUSH1 0x0 DUP4 ADD MSTORE PUSH2 0x5726 DUP2 PUSH2 0x4F94 JUMP JUMPDEST SWAP1 POP SWAP2 SWAP1 POP JUMP JUMPDEST PUSH1 0x0 PUSH1 0x20 DUP3 ADD SWAP1 POP DUP2 DUP2 SUB PUSH1 0x0 DUP4 ADD MSTORE PUSH2 0x5746 DUP2 PUSH2 0x4FB7 JUMP JUMPDEST SWAP1 POP SWAP2 SWAP1 POP JUMP JUMPDEST PUSH1 0x0 PUSH1 0x20 DUP3 ADD SWAP1 POP DUP2 DUP2 SUB PUSH1 0x0 DUP4 ADD MSTORE PUSH2 0x5766 DUP2 PUSH2 0x4FDA JUMP JUMPDEST SWAP1 POP SWAP2 SWAP1 POP JUMP JUMPDEST PUSH1 0x0 PUSH1 0x20 DUP3 ADD SWAP1 POP DUP2 DUP2 SUB PUSH1 0x0 DUP4 ADD MSTORE PUSH2 0x5786 DUP2 PUSH2 0x4FFD JUMP JUMPDEST SWAP1 POP SWAP2 SWAP1 POP JUMP JUMPDEST PUSH1 0x0 PUSH1 0x20 DUP3 ADD SWAP1 POP DUP2 DUP2 SUB PUSH1 0x0 DUP4 ADD MSTORE PUSH2 0x57A6 DUP2 PUSH2 0x5020 JUMP JUMPDEST SWAP1 POP SWAP2 SWAP1 POP JUMP JUMPDEST PUSH1 0x0 PUSH1 0x20 DUP3 ADD SWAP1 POP DUP2 DUP2 SUB PUSH1 0x0 DUP4 ADD MSTORE PUSH2 0x57C6 DUP2 PUSH2 0x5043 JUMP JUMPDEST SWAP1 POP SWAP2 SWAP1 POP JUMP JUMPDEST PUSH1 0x0 PUSH1 0x20 DUP3 ADD SWAP1 POP DUP2 DUP2 SUB PUSH1 0x0 DUP4 ADD MSTORE PUSH2 0x57E6 DUP2 PUSH2 0x5066 JUMP JUMPDEST SWAP1 POP SWAP2 SWAP1 POP JUMP JUMPDEST PUSH1 0x0 PUSH1 0x20 DUP3 ADD SWAP1 POP PUSH2 0x5802 PUSH1 0x0 DUP4 ADD DUP5 PUSH2 0x5089 JUMP JUMPDEST SWAP3 SWAP2 POP POP JUMP JUMPDEST PUSH1 0x0 PUSH1 0x40 DUP3 ADD SWAP1 POP PUSH2 0x581D PUSH1 0x0 DUP4 ADD DUP6 PUSH2 0x5089 JUMP JUMPDEST PUSH2 0x582A PUSH1 0x20 DUP4 ADD DUP5 PUSH2 0x5089 JUMP JUMPDEST SWAP4 SWAP3 POP POP POP JUMP JUMPDEST PUSH1 0x0 PUSH1 0x20 DUP3 ADD SWAP1 POP PUSH2 0x5846 PUSH1 0x0 DUP4 ADD DUP5 PUSH2 0x50A7 JUMP JUMPDEST SWAP3 SWAP2 POP POP JUMP JUMPDEST PUSH1 0x0 PUSH1 0x40 DUP3 ADD SWAP1 POP PUSH2 0x5861 PUSH1 0x0 DUP4 ADD DUP6 PUSH2 0x50A7 JUMP JUMPDEST PUSH2 0x586E PUSH1 0x20 DUP4 ADD DUP5 PUSH2 0x50A7 JUMP JUMPDEST SWAP4 SWAP3 POP POP POP JUMP JUMPDEST PUSH1 0x0 PUSH1 0x60 DUP3 ADD SWAP1 POP PUSH2 0x588A PUSH1 0x0 DUP4 ADD DUP7 PUSH2 0x50A7 JUMP JUMPDEST PUSH2 0x5897 PUSH1 0x20 DUP4 ADD DUP6 PUSH2 0x50A7 JUMP JUMPDEST PUSH2 0x58A4 PUSH1 0x40 DUP4 ADD DUP5 PUSH2 0x4A62 JUMP JUMPDEST SWAP5 SWAP4 POP POP POP POP JUMP JUMPDEST PUSH1 0x0 PUSH1 0x60 DUP3 ADD SWAP1 POP PUSH2 0x58C1 PUSH1 0x0 DUP4 ADD DUP7 PUSH2 0x50A7 JUMP JUMPDEST PUSH2 0x58CE PUSH1 0x20 DUP4 ADD DUP6 PUSH2 0x50A7 JUMP JUMPDEST PUSH2 0x58DB PUSH1 0x40 DUP4 ADD DUP5 PUSH2 0x50A7 JUMP JUMPDEST SWAP5 SWAP4 POP POP POP POP JUMP JUMPDEST PUSH1 0x0 PUSH1 0x20 DUP3 ADD SWAP1 POP PUSH2 0x58F8 PUSH1 0x0 DUP4 ADD DUP5 PUSH2 0x50CD JUMP JUMPDEST SWAP3 SWAP2 POP POP JUMP JUMPDEST PUSH1 0x0 PUSH2 0x5908 PUSH2 0x5919 JUMP JUMPDEST SWAP1 POP PUSH2 0x5914 DUP3 DUP3 PUSH2 0x5DA4 JUMP JUMPDEST SWAP2 SWAP1 POP JUMP JUMPDEST PUSH1 0x0 PUSH1 0x40 MLOAD SWAP1 POP SWAP1 JUMP JUMPDEST PUSH1 0x0 PUSH8 0xFFFFFFFFFFFFFFFF DUP3 GT ISZERO PUSH2 0x593E JUMPI PUSH2 0x593D PUSH2 0x5F70 JUMP JUMPDEST JUMPDEST PUSH2 0x5947 DUP3 PUSH2 0x5FB3 JUMP JUMPDEST SWAP1 POP PUSH1 0x20 DUP2 ADD SWAP1 POP SWAP2 SWAP1 POP JUMP JUMPDEST PUSH1 0x0 DUP2 SWAP1 POP SWAP2 SWAP1 POP JUMP JUMPDEST PUSH1 0x0 DUP2 SWAP1 POP PUSH1 0x20 DUP3 ADD SWAP1 POP SWAP2 SWAP1 POP JUMP JUMPDEST PUSH1 0x0 DUP2 SWAP1 POP DUP2 PUSH1 0x0 MSTORE PUSH1 0x20 PUSH1 0x0 KECCAK256 SWAP1 POP SWAP2 SWAP1 POP JUMP JUMPDEST PUSH1 0x0 PUSH1 0x2 SWAP1 POP SWAP2 SWAP1 POP JUMP JUMPDEST PUSH1 0x0 DUP2 MLOAD SWAP1 POP SWAP2 SWAP1 POP JUMP JUMPDEST PUSH1 0x0 DUP2 MLOAD SWAP1 POP SWAP2 SWAP1 POP JUMP JUMPDEST PUSH1 0x0 DUP2 MLOAD SWAP1 POP SWAP2 SWAP1 POP JUMP JUMPDEST PUSH1 0x0 PUSH1 0x20 DUP3 ADD SWAP1 POP SWAP2 SWAP1 POP JUMP JUMPDEST PUSH1 0x0 PUSH1 0x20 DUP3 ADD SWAP1 POP SWAP2 SWAP1 POP JUMP JUMPDEST PUSH1 0x0 DUP2 SWAP1 POP SWAP3 SWAP2 POP POP JUMP JUMPDEST PUSH1 0x0 DUP3 DUP3 MSTORE PUSH1 0x20 DUP3 ADD SWAP1 POP SWAP3 SWAP2 POP POP JUMP JUMPDEST PUSH1 0x0 DUP3 DUP3 MSTORE PUSH1 0x20 DUP3 ADD SWAP1 POP SWAP3 SWAP2 POP POP JUMP JUMPDEST PUSH1 0x0 DUP3 DUP3 MSTORE PUSH1 0x20 DUP3 ADD SWAP1 POP SWAP3 SWAP2 POP POP JUMP JUMPDEST PUSH1 0x0 DUP2 SWAP1 POP SWAP3 SWAP2 POP POP JUMP JUMPDEST PUSH1 0x0 PUSH2 0x5A1D DUP3 PUSH2 0x5C81 JUMP JUMPDEST SWAP2 POP PUSH2 0x5A28 DUP4 PUSH2 0x5C81 JUMP JUMPDEST SWAP3 POP DUP3 PUSH2 0xFFFF SUB DUP3 GT ISZERO PUSH2 0x5A3F JUMPI PUSH2 0x5A3E PUSH2 0x5EB4 JUMP JUMPDEST JUMPDEST DUP3 DUP3 ADD SWAP1 POP SWAP3 SWAP2 POP POP JUMP JUMPDEST PUSH1 0x0 PUSH2 0x5A55 DUP3 PUSH2 0x5CAF JUMP JUMPDEST SWAP2 POP PUSH2 0x5A60 DUP4 PUSH2 0x5CAF JUMP JUMPDEST SWAP3 POP DUP3 PUSH32 0xFFFFFFFFFFFFFFFFFFFFFFFFFFFFFFFFFFFFFFFFFFFFFFFFFFFFFFFFFFFFFFFF SUB DUP3 GT ISZERO PUSH2 0x5A95 JUMPI PUSH2 0x5A94 PUSH2 0x5EB4 JUMP JUMPDEST JUMPDEST DUP3 DUP3 ADD SWAP1 POP SWAP3 SWAP2 POP POP JUMP JUMPDEST PUSH1 0x0 PUSH2 0x5AAB DUP3 PUSH2 0x5CC9 JUMP JUMPDEST SWAP2 POP PUSH2 0x5AB6 DUP4 PUSH2 0x5CC9 JUMP JUMPDEST SWAP3 POP DUP3 PUSH1 0xFF SUB DUP3 GT ISZERO PUSH2 0x5ACC JUMPI PUSH2 0x5ACB PUSH2 0x5EB4 JUMP JUMPDEST JUMPDEST DUP3 DUP3 ADD SWAP1 POP SWAP3 SWAP2 POP POP JUMP JUMPDEST PUSH1 0x0 PUSH2 0x5AE2 DUP3 PUSH2 0x5C81 JUMP JUMPDEST SWAP2 POP PUSH2 0x5AED DUP4 PUSH2 0x5C81 JUMP JUMPDEST SWAP3 POP DUP3 PUSH2 0x5AFD JUMPI PUSH2 0x5AFC PUSH2 0x5EE3 JUMP JUMPDEST JUMPDEST DUP3 DUP3 DIV SWAP1 POP SWAP3 SWAP2 POP POP JUMP JUMPDEST PUSH1 0x0 PUSH2 0x5B13 DUP3 PUSH2 0x5CAF JUMP JUMPDEST SWAP2 POP PUSH2 0x5B1E DUP4 PUSH2 0x5CAF JUMP JUMPDEST SWAP3 POP DUP3 PUSH2 0x5B2E JUMPI PUSH2 0x5B2D PUSH2 0x5EE3 JUMP JUMPDEST JUMPDEST DUP3 DUP3 DIV SWAP1 POP SWAP3 SWAP2 POP POP JUMP JUMPDEST PUSH1 0x0 PUSH2 0x5B44 DUP3 PUSH2 0x5C81 JUMP JUMPDEST SWAP2 POP PUSH2 0x5B4F DUP4 PUSH2 0x5C81 JUMP JUMPDEST SWAP3 POP DUP2 PUSH2 0xFFFF DIV DUP4 GT DUP3 ISZERO ISZERO AND ISZERO PUSH2 0x5B6A JUMPI PUSH2 0x5B69 PUSH2 0x5EB4 JUMP JUMPDEST JUMPDEST DUP3 DUP3 MUL SWAP1 POP SWAP3 SWAP2 POP POP JUMP JUMPDEST PUSH1 0x0 PUSH2 0x5B80 DUP3 PUSH2 0x5CAF JUMP JUMPDEST SWAP2 POP PUSH2 0x5B8B DUP4 PUSH2 0x5CAF JUMP JUMPDEST SWAP3 POP DUP2 PUSH32 0xFFFFFFFFFFFFFFFFFFFFFFFFFFFFFFFFFFFFFFFFFFFFFFFFFFFFFFFFFFFFFFFF DIV DUP4 GT DUP3 ISZERO ISZERO AND ISZERO PUSH2 0x5BC4 JUMPI PUSH2 0x5BC3 PUSH2 0x5EB4 JUMP JUMPDEST JUMPDEST DUP3 DUP3 MUL SWAP1 POP SWAP3 SWAP2 POP POP JUMP JUMPDEST PUSH1 0x0 PUSH2 0x5BDA DUP3 PUSH2 0x5C81 JUMP JUMPDEST SWAP2 POP PUSH2 0x5BE5 DUP4 PUSH2 0x5C81 JUMP JUMPDEST SWAP3 POP DUP3 DUP3 LT ISZERO PUSH2 0x5BF8 JUMPI PUSH2 0x5BF7 PUSH2 0x5EB4 JUMP JUMPDEST JUMPDEST DUP3 DUP3 SUB SWAP1 POP SWAP3 SWAP2 POP POP JUMP JUMPDEST PUSH1 0x0 PUSH2 0x5C0E DUP3 PUSH2 0x5CAF JUMP JUMPDEST SWAP2 POP PUSH2 0x5C19 DUP4 PUSH2 0x5CAF JUMP JUMPDEST SWAP3 POP DUP3 DUP3 LT ISZERO PUSH2 0x5C2C JUMPI PUSH2 0x5C2B PUSH2 0x5EB4 JUMP JUMPDEST JUMPDEST DUP3 DUP3 SUB SWAP1 POP SWAP3 SWAP2 POP POP JUMP JUMPDEST PUSH1 0x0 PUSH2 0x5C42 DUP3 PUSH2 0x5C8F JUMP JUMPDEST SWAP1 POP SWAP2 SWAP1 POP JUMP JUMPDEST PUSH1 0x0 DUP2 ISZERO ISZERO SWAP1 POP SWAP2 SWAP1 POP JUMP JUMPDEST PUSH1 0x0 PUSH32 0xFFFFFFFF00000000000000000000000000000000000000000000000000000000 DUP3 AND SWAP1 POP SWAP2 SWAP1 POP JUMP JUMPDEST PUSH1 0x0 PUSH2 0xFFFF DUP3 AND SWAP1 POP SWAP2 SWAP1 POP JUMP JUMPDEST PUSH1 0x0 PUSH20 0xFFFFFFFFFFFFFFFFFFFFFFFFFFFFFFFFFFFFFFFF DUP3 AND SWAP1 POP SWAP2 SWAP1 POP JUMP JUMPDEST PUSH1 0x0 DUP2 SWAP1 POP SWAP2 SWAP1 POP JUMP JUMPDEST PUSH1 0x0 PUSH4 0xFFFFFFFF DUP3 AND SWAP1 POP SWAP2 SWAP1 POP JUMP JUMPDEST PUSH1 0x0 PUSH1 0xFF DUP3 AND SWAP1 POP SWAP2 SWAP1 POP JUMP JUMPDEST PUSH1 0x0 PUSH2 0x5CE1 DUP3 PUSH2 0x5D0C JUMP JUMPDEST SWAP1 POP SWAP2 SWAP1 POP JUMP JUMPDEST PUSH1 0x0 PUSH2 0x5CF3 DUP3 PUSH2 0x5D0C JUMP JUMPDEST SWAP1 POP SWAP2 SWAP1 POP JUMP JUMPDEST PUSH1 0x0 PUSH2 0x5D05 DUP3 PUSH2 0x5D0C JUMP JUMPDEST SWAP1 POP SWAP2 SWAP1 POP JUMP JUMPDEST PUSH1 0x0 PUSH2 0x5D17 DUP3 PUSH2 0x5D1E JUMP JUMPDEST SWAP1 POP SWAP2 SWAP1 POP JUMP JUMPDEST PUSH1 0x0 PUSH2 0x5D29 DUP3 PUSH2 0x5C8F JUMP JUMPDEST SWAP1 POP SWAP2 SWAP1 POP JUMP JUMPDEST DUP3 DUP2 DUP4 CALLDATACOPY PUSH1 0x0 DUP4 DUP4 ADD MSTORE POP POP POP JUMP JUMPDEST PUSH1 0x0 JUMPDEST DUP4 DUP2 LT ISZERO PUSH2 0x5D5D JUMPI DUP1 DUP3 ADD MLOAD DUP2 DUP5 ADD MSTORE PUSH1 0x20 DUP2 ADD SWAP1 POP PUSH2 0x5D42 JUMP JUMPDEST DUP4 DUP2 GT ISZERO PUSH2 0x5D6C JUMPI PUSH1 0x0 DUP5 DUP5 ADD MSTORE JUMPDEST POP POP POP POP JUMP JUMPDEST PUSH1 0x0 PUSH1 0x2 DUP3 DIV SWAP1 POP PUSH1 0x1 DUP3 AND DUP1 PUSH2 0x5D8A JUMPI PUSH1 0x7F DUP3 AND SWAP2 POP JUMPDEST PUSH1 0x20 DUP3 LT DUP2 EQ ISZERO PUSH2 0x5D9E JUMPI PUSH2 0x5D9D PUSH2 0x5F12 JUMP JUMPDEST JUMPDEST POP SWAP2 SWAP1 POP JUMP JUMPDEST PUSH2 0x5DAD DUP3 PUSH2 0x5FB3 JUMP JUMPDEST DUP2 ADD DUP2 DUP2 LT PUSH8 0xFFFFFFFFFFFFFFFF DUP3 GT OR ISZERO PUSH2 0x5DCC JUMPI PUSH2 0x5DCB PUSH2 0x5F70 JUMP JUMPDEST JUMPDEST DUP1 PUSH1 0x40 MSTORE POP POP POP JUMP JUMPDEST PUSH1 0x0 PUSH2 0x5DE0 DUP3 PUSH2 0x5CAF JUMP JUMPDEST SWAP2 POP PUSH32 0xFFFFFFFFFFFFFFFFFFFFFFFFFFFFFFFFFFFFFFFFFFFFFFFFFFFFFFFFFFFFFFFF DUP3 EQ ISZERO PUSH2 0x5E13 JUMPI PUSH2 0x5E12 PUSH2 0x5EB4 JUMP JUMPDEST JUMPDEST PUSH1 0x1 DUP3 ADD SWAP1 POP SWAP2 SWAP1 POP JUMP JUMPDEST PUSH1 0x0 PUSH2 0x5E29 DUP3 PUSH2 0x5CC9 JUMP JUMPDEST SWAP2 POP PUSH1 0xFF DUP3 EQ ISZERO PUSH2 0x5E3D JUMPI PUSH2 0x5E3C PUSH2 0x5EB4 JUMP JUMPDEST JUMPDEST PUSH1 0x1 DUP3 ADD SWAP1 POP SWAP2 SWAP1 POP JUMP JUMPDEST PUSH1 0x0 DUP2 SWAP1 POP SWAP2 SWAP1 POP JUMP JUMPDEST PUSH1 0x0 PUSH2 0x5E5D DUP3 PUSH2 0x5C81 JUMP JUMPDEST SWAP2 POP PUSH2 0x5E68 DUP4 PUSH2 0x5C81 JUMP JUMPDEST SWAP3 POP DUP3 PUSH2 0x5E78 JUMPI PUSH2 0x5E77 PUSH2 0x5EE3 JUMP JUMPDEST JUMPDEST DUP3 DUP3 MOD SWAP1 POP SWAP3 SWAP2 POP POP JUMP JUMPDEST PUSH1 0x0 PUSH2 0x5E8E DUP3 PUSH2 0x5CAF JUMP JUMPDEST SWAP2 POP PUSH2 0x5E99 DUP4 PUSH2 0x5CAF JUMP JUMPDEST SWAP3 POP DUP3 PUSH2 0x5EA9 JUMPI PUSH2 0x5EA8 PUSH2 0x5EE3 JUMP JUMPDEST JUMPDEST DUP3 DUP3 MOD SWAP1 POP SWAP3 SWAP2 POP POP JUMP JUMPDEST PUSH32 0x4E487B7100000000000000000000000000000000000000000000000000000000 PUSH1 0x0 MSTORE PUSH1 0x11 PUSH1 0x4 MSTORE PUSH1 0x24 PUSH1 0x0 REVERT JUMPDEST PUSH32 0x4E487B7100000000000000000000000000000000000000000000000000000000 PUSH1 0x0 MSTORE PUSH1 0x12 PUSH1 0x4 MSTORE PUSH1 0x24 PUSH1 0x0 REVERT JUMPDEST PUSH32 0x4E487B7100000000000000000000000000000000000000000000000000000000 PUSH1 0x0 MSTORE PUSH1 0x22 PUSH1 0x4 MSTORE PUSH1 0x24 PUSH1 0x0 REVERT JUMPDEST PUSH32 0x4E487B7100000000000000000000000000000000000000000000000000000000 PUSH1 0x0 MSTORE PUSH1 0x32 PUSH1 0x4 MSTORE PUSH1 0x24 PUSH1 0x0 REVERT JUMPDEST PUSH32 0x4E487B7100000000000000000000000000000000000000000000000000000000 PUSH1 0x0 MSTORE PUSH1 0x41 PUSH1 0x4 MSTORE PUSH1 0x24 PUSH1 0x0 REVERT JUMPDEST PUSH1 0x0 DUP1 REVERT JUMPDEST PUSH1 0x0 DUP1 REVERT JUMPDEST PUSH1 0x0 DUP1 REVERT JUMPDEST PUSH1 0x0 DUP1 REVERT JUMPDEST PUSH1 0x0 PUSH1 0x1F NOT PUSH1 0x1F DUP4 ADD AND SWAP1 POP SWAP2 SWAP1 POP JUMP JUMPDEST PUSH32 0x626F792C20646F6E27742061747461636B20796F757273656C6620706C7A0000 PUSH1 0x0 DUP3 ADD MSTORE POP JUMP JUMPDEST PUSH32 0x796F75722061747461636B20636F6F6C646F776E206973206E6F7420646F776E PUSH1 0x0 DUP3 ADD MSTORE PUSH32 0x207965742E20706C656173652074727920616761696E20616674657220636F6F PUSH1 0x20 DUP3 ADD MSTORE PUSH32 0x6C646F776E000000000000000000000000000000000000000000000000000000 PUSH1 0x40 DUP3 ADD MSTORE POP JUMP JUMPDEST PUSH32 0x75686F682C2074686520646566656E7365706F696E747320617265207A65726F PUSH1 0x0 DUP3 ADD MSTORE PUSH32 0x2E2E2E0000000000000000000000000000000000000000000000000000000000 PUSH1 0x20 DUP3 ADD MSTORE POP JUMP JUMPDEST PUSH32 0x796F7520646F6E2774206861766520656E6F7567682073656564636F696E7321 PUSH1 0x0 DUP3 ADD MSTORE PUSH32 0x20627579206F7220747261646520736F6D650000000000000000000000000000 PUSH1 0x20 DUP3 ADD MSTORE POP JUMP JUMPDEST PUSH32 0x4552433732313A207472616E7366657220746F206E6F6E204552433732315265 PUSH1 0x0 DUP3 ADD MSTORE PUSH32 0x63656976657220696D706C656D656E7465720000000000000000000000000000 PUSH1 0x20 DUP3 ADD MSTORE POP JUMP JUMPDEST PUSH32 0x666F6F6B206F6666000000000000000000000000000000000000000000000000 PUSH1 0x0 DUP3 ADD MSTORE POP JUMP JUMPDEST PUSH32 0x796F75206861766520746F2073656E6420736F6D652045544820746F20676574 PUSH1 0x0 DUP3 ADD MSTORE PUSH32 0x204B696E67646F6D53656564636F696E00000000000000000000000000000000 PUSH1 0x20 DUP3 ADD MSTORE POP JUMP JUMPDEST PUSH32 0x4552433732313A20746F6B656E20616C7265616479206D696E74656400000000 PUSH1 0x0 DUP3 ADD MSTORE POP JUMP JUMPDEST PUSH32 0x6F7468657220636F696E207479706573206E6F7420737570706F727465642079 PUSH1 0x0 DUP3 ADD MSTORE PUSH32 0x65742C206D7573742062652030206F7220310000000000000000000000000000 PUSH1 0x20 DUP3 ADD MSTORE POP JUMP JUMPDEST PUSH32 0x4552433732313A207472616E7366657220746F20746865207A65726F20616464 PUSH1 0x0 DUP3 ADD MSTORE PUSH32 0x7265737300000000000000000000000000000000000000000000000000000000 PUSH1 0x20 DUP3 ADD MSTORE POP JUMP JUMPDEST PUSH32 0x4552433732313A20617070726F766520746F2063616C6C657200000000000000 PUSH1 0x0 DUP3 ADD MSTORE POP JUMP JUMPDEST PUSH32 0x7469746C65206964206E6F74207965742061737369676E65642C20676F206765 PUSH1 0x0 DUP3 ADD MSTORE PUSH32 0x74206F6E65000000000000000000000000000000000000000000000000000000 PUSH1 0x20 DUP3 ADD MSTORE POP JUMP JUMPDEST PUSH32 0x4552433732313A206F70657261746F7220717565727920666F72206E6F6E6578 PUSH1 0x0 DUP3 ADD MSTORE PUSH32 0x697374656E7420746F6B656E0000000000000000000000000000000000000000 PUSH1 0x20 DUP3 ADD MSTORE POP JUMP JUMPDEST PUSH32 0x746172676574436F696E2068617320746F20626520303D61747461636B636F69 PUSH1 0x0 DUP3 ADD MSTORE PUSH32 0x6E206F7220313D646566656E7365636F696E0000000000000000000000000000 PUSH1 0x20 DUP3 ADD MSTORE POP JUMP JUMPDEST PUSH32 0x796F7520646F206E6F7420686176652074686174206D616E7920646566656E73 PUSH1 0x0 DUP3 ADD MSTORE PUSH32 0x6520636F696E7300000000000000000000000000000000000000000000000000 PUSH1 0x20 DUP3 ADD MSTORE POP JUMP JUMPDEST PUSH32 0x4552433732313A20617070726F76652063616C6C6572206973206E6F74206F77 PUSH1 0x0 DUP3 ADD MSTORE PUSH32 0x6E6572206E6F7220617070726F76656420666F7220616C6C0000000000000000 PUSH1 0x20 DUP3 ADD MSTORE POP JUMP JUMPDEST PUSH32 0x736F7272792C206F6E6C7920746865206F776E65722063616E2061747461636B PUSH1 0x0 DUP3 ADD MSTORE PUSH32 0x2068697320626F73730000000000000000000000000000000000000000000000 PUSH1 0x20 DUP3 ADD MSTORE POP JUMP JUMPDEST PUSH32 0x4552433732313A2062616C616E636520717565727920666F7220746865207A65 PUSH1 0x0 DUP3 ADD MSTORE PUSH32 0x726F206164647265737300000000000000000000000000000000000000000000 PUSH1 0x20 DUP3 ADD MSTORE POP JUMP JUMPDEST PUSH32 0x4552433732313A206F776E657220717565727920666F72206E6F6E6578697374 PUSH1 0x0 DUP3 ADD MSTORE PUSH32 0x656E7420746F6B656E0000000000000000000000000000000000000000000000 PUSH1 0x20 DUP3 ADD MSTORE POP JUMP JUMPDEST PUSH32 0x4552433732313A206D696E7420746F20746865207A65726F2061646472657373 PUSH1 0x0 DUP3 ADD MSTORE POP JUMP JUMPDEST PUSH32 0x4552433732313A20617070726F76656420717565727920666F72206E6F6E6578 PUSH1 0x0 DUP3 ADD MSTORE PUSH32 0x697374656E7420746F6B656E0000000000000000000000000000000000000000 PUSH1 0x20 DUP3 ADD MSTORE POP JUMP JUMPDEST PUSH32 0x746F2075736520746869732066756E6374696F6E20796F75206E656564206120 PUSH1 0x0 DUP3 ADD MSTORE PUSH32 0x7469746C652120676F20627579206F6E65210000000000000000000000000000 PUSH1 0x20 DUP3 ADD MSTORE POP JUMP JUMPDEST PUSH32 0x796F75206E65656420746F2063616C6C20736574417070726F76616C466F7241 PUSH1 0x0 DUP3 ADD MSTORE PUSH32 0x6C6C20696E206F7264657220746F20706C617920612067616D652E2E2E000000 PUSH1 0x20 DUP3 ADD MSTORE POP JUMP JUMPDEST PUSH32 0x72657665727365206974656D2066756E6374696F6E2E2E2E206974656D206E6F PUSH1 0x0 DUP3 ADD MSTORE PUSH32 0x7420666F756E6420696E20616464726573733269647300000000000000000000 PUSH1 0x20 DUP3 ADD MSTORE POP JUMP JUMPDEST PUSH32 0x4552433732313A207472616E73666572206F6620746F6B656E20746861742069 PUSH1 0x0 DUP3 ADD MSTORE PUSH32 0x73206E6F74206F776E0000000000000000000000000000000000000000000000 PUSH1 0x20 DUP3 ADD MSTORE POP JUMP JUMPDEST PUSH32 0x4552433732314D657461646174613A2055524920717565727920666F72206E6F PUSH1 0x0 DUP3 ADD MSTORE PUSH32 0x6E6578697374656E7420746F6B656E0000000000000000000000000000000000 PUSH1 0x20 DUP3 ADD MSTORE POP JUMP JUMPDEST PUSH32 0x6964206973206E6F74207965742061737369676E656400000000000000000000 PUSH1 0x0 DUP3 ADD MSTORE POP JUMP JUMPDEST PUSH32 0x4552433732313A20617070726F76616C20746F2063757272656E74206F776E65 PUSH1 0x0 DUP3 ADD MSTORE PUSH32 0x7200000000000000000000000000000000000000000000000000000000000000 PUSH1 0x20 DUP3 ADD MSTORE POP JUMP JUMPDEST PUSH32 0x7469746C65206964206973206E6F74207965742061737369676E656400000000 PUSH1 0x0 DUP3 ADD MSTORE POP JUMP JUMPDEST PUSH32 0x4552433732313A207472616E736665722063616C6C6572206973206E6F74206F PUSH1 0x0 DUP3 ADD MSTORE PUSH32 0x776E6572206E6F7220617070726F766564000000000000000000000000000000 PUSH1 0x20 DUP3 ADD MSTORE POP JUMP JUMPDEST PUSH32 0x75686F682C2073727920692063616E27742073656E6420616E79206D6F726520 PUSH1 0x0 DUP3 ADD MSTORE PUSH32 0x4B696E67646F6D53656564636F696E0000000000000000000000000000000000 PUSH1 0x20 DUP3 ADD MSTORE POP JUMP JUMPDEST PUSH32 0x75686F682C207468652061747461636B706F696E747320617265207A65726F2E PUSH1 0x0 DUP3 ADD MSTORE PUSH32 0x2E2E000000000000000000000000000000000000000000000000000000000000 PUSH1 0x20 DUP3 ADD MSTORE POP JUMP JUMPDEST PUSH32 0x75686F682C206E6F207469746C657320617661696C61626C6520616E796D6F72 PUSH1 0x0 DUP3 ADD MSTORE PUSH32 0x6500000000000000000000000000000000000000000000000000000000000000 PUSH1 0x20 DUP3 ADD MSTORE POP JUMP JUMPDEST PUSH32 0x796F7520646F206E6F7420686176652074686174206D616E792061747461636B PUSH1 0x0 DUP3 ADD MSTORE PUSH32 0x20636F696E730000000000000000000000000000000000000000000000000000 PUSH1 0x20 DUP3 ADD MSTORE POP JUMP JUMPDEST PUSH32 0x796F757220626F7373206E6565647320746F20736574417070726F766564466F PUSH1 0x0 DUP3 ADD MSTORE PUSH32 0x72416C6C20746F207468697320636F6E74726163742C206F7468657277697365 PUSH1 0x20 DUP3 ADD MSTORE PUSH32 0x20746865206D656368616E69736D20646F6573206E6F7420776F726B2E204865 PUSH1 0x40 DUP3 ADD MSTORE PUSH32 0x206F6E6C79206561726E73206D6F6E6579206966207468617420617070726F76 PUSH1 0x60 DUP3 ADD MSTORE PUSH32 0x616C20686173206265656E207365742074686F7567682E000000000000000000 PUSH1 0x80 DUP3 ADD MSTORE POP JUMP JUMPDEST PUSH2 0x6A28 DUP2 PUSH2 0x5C37 JUMP JUMPDEST DUP2 EQ PUSH2 0x6A33 JUMPI PUSH1 0x0 DUP1 REVERT JUMPDEST POP JUMP JUMPDEST PUSH2 0x6A3F DUP2 PUSH2 0x5C49 JUMP JUMPDEST DUP2 EQ PUSH2 0x6A4A JUMPI PUSH1 0x0 DUP1 REVERT JUMPDEST POP JUMP JUMPDEST PUSH2 0x6A56 DUP2 PUSH2 0x5C55 JUMP JUMPDEST DUP2 EQ PUSH2 0x6A61 JUMPI PUSH1 0x0 DUP1 REVERT JUMPDEST POP JUMP JUMPDEST PUSH2 0x6A6D DUP2 PUSH2 0x5C81 JUMP JUMPDEST DUP2 EQ PUSH2 0x6A78 JUMPI PUSH1 0x0 DUP1 REVERT JUMPDEST POP JUMP JUMPDEST PUSH2 0x6A84 DUP2 PUSH2 0x5CAF JUMP JUMPDEST DUP2 EQ PUSH2 0x6A8F JUMPI PUSH1 0x0 DUP1 REVERT JUMPDEST POP JUMP JUMPDEST PUSH2 0x6A9B DUP2 PUSH2 0x5CB9 JUMP JUMPDEST DUP2 EQ PUSH2 0x6AA6 JUMPI PUSH1 0x0 DUP1 REVERT JUMPDEST POP JUMP JUMPDEST PUSH2 0x6AB2 DUP2 PUSH2 0x5CC9 JUMP JUMPDEST DUP2 EQ PUSH2 0x6ABD JUMPI PUSH1 0x0 DUP1 REVERT JUMPDEST POP JUMP INVALID LOG2 PUSH5 0x6970667358 0x22 SLT KECCAK256 SUB CHAINID LOG3 SWAP13 PUSH12 0x78EC0B5D78663DECE8E3FDEA 0xA6 CREATE2 0x2A PUSH29 0xCBDC67EC97BD45C2F030CC64736F6C6343000807003368747470733A2F 0x2F PUSH24 0x77772E6B696E67646F6D63727970746F2E636F6D2F746974 PUSH13 0x65732F00000000000000000000 "
		},
		"gasEstimates": {
			"creation": {
				"codeDepositCost": "5476400",
				"executionCost": "infinite",
				"totalCost": "infinite"
			},
			"external": {
				"address2ids(address,uint256)": "infinite",
				"approve(address,uint256)": "infinite",
				"assignMilitaryToTitle(uint256,uint32,uint8)": "infinite",
				"attackBoss(uint16)": "infinite",
				"attackCooldown()": "2495",
				"awardItem(address)": "infinite",
				"balanceOf(address)": "2969",
				"baseUrl()": "infinite",
				"buyForETH()": "infinite",
				"currentPosition()": "2634",
				"exchangeRate()": "2561",
				"exchangeRate_Attackpoints()": "2588",
				"exchangeRate_Burnpct()": "2589",
				"exchangeRate_Defensepoints()": "2654",
				"getApproved(uint256)": "5251",
				"getBoss(uint16)": "infinite",
				"getCurrentStakes()": "infinite",
				"getServants(uint16)": "infinite",
				"getTimeUntilStakingDone()": "infinite",
				"getTitleStats(uint32)": "infinite",
				"harvestAll()": "infinite",
				"isApprovedForAll(address,address)": "infinite",
				"justSendETH()": "359",
				"kgdat()": "2734",
				"kgddf()": "2712",
				"kgdsc()": "2689",
				"kingdomtitles(uint256)": "infinite",
				"name()": "infinite",
				"ownerOf(uint256)": "3132",
				"plantSeeds(uint256,uint8)": "infinite",
				"returnIdsOfAddress(address)": "infinite",
				"returnRanksOfTitles(address)": "infinite",
				"reverseItem(uint256)": "infinite",
				"safeTransferFrom(address,address,uint256)": "infinite",
				"safeTransferFrom(address,address,uint256,bytes)": "infinite",
				"setApprovalForAll(address,bool)": "infinite",
				"stakingPeriod()": "2474",
				"supportsInterface(bytes4)": "820",
				"symbol()": "infinite",
				"titleId2Rank(uint256)": "infinite",
				"tokenMetadata(uint256)": "infinite",
				"tokenURI(uint256)": "3440",
				"totalSupply()": "403",
				"transferFrom(address,address,uint256)": "infinite",
				"updateCheck()": "infinite"
			},
			"internal": {
				"_attackResults(uint16,uint16,address,address,uint256,uint256,uint256,uint256,uint256,uint256,bool)": "infinite",
				"_divide(uint256,uint256)": "infinite",
				"_getLeftChild(uint16)": "infinite",
				"_getRightChild(uint16)": "infinite",
				"_random()": "infinite"
			}
		},
		"methodIdentifiers": {
			"address2ids(address,uint256)": "f08b7b73",
			"approve(address,uint256)": "095ea7b3",
			"assignMilitaryToTitle(uint256,uint32,uint8)": "45405f54",
			"attackBoss(uint16)": "2c067d6c",
			"attackCooldown()": "e73961f5",
			"awardItem(address)": "f2fb2120",
			"balanceOf(address)": "70a08231",
			"baseUrl()": "5bcabf04",
			"buyForETH()": "10f7e4ed",
			"currentPosition()": "d534d636",
			"exchangeRate()": "3ba0b9a9",
			"exchangeRate_Attackpoints()": "c669b710",
			"exchangeRate_Burnpct()": "6a7a2fa3",
			"exchangeRate_Defensepoints()": "d4637ddb",
			"getApproved(uint256)": "081812fc",
			"getBoss(uint16)": "7758429f",
			"getCurrentStakes()": "fa4facdb",
			"getServants(uint16)": "627ce3b8",
			"getTimeUntilStakingDone()": "84505e6a",
			"getTitleStats(uint32)": "5053f6b8",
			"harvestAll()": "8ed955b9",
			"isApprovedForAll(address,address)": "e985e9c5",
			"justSendETH()": "e046670b",
			"kgdat()": "7c62539a",
			"kgddf()": "411ee0d0",
			"kgdsc()": "900294be",
			"kingdomtitles(uint256)": "1cf95ed6",
			"name()": "06fdde03",
			"ownerOf(uint256)": "6352211e",
			"plantSeeds(uint256,uint8)": "429c3edf",
			"returnIdsOfAddress(address)": "13245c95",
			"returnRanksOfTitles(address)": "1b4801cc",
			"reverseItem(uint256)": "2756985c",
			"safeTransferFrom(address,address,uint256)": "42842e0e",
			"safeTransferFrom(address,address,uint256,bytes)": "b88d4fde",
			"setApprovalForAll(address,bool)": "a22cb465",
			"stakingPeriod()": "c03d5b47",
			"supportsInterface(bytes4)": "01ffc9a7",
			"symbol()": "95d89b41",
			"titleId2Rank(uint256)": "c6a3550f",
			"tokenMetadata(uint256)": "6914db60",
			"tokenURI(uint256)": "c87b56dd",
			"totalSupply()": "18160ddd",
			"transferFrom(address,address,uint256)": "23b872dd",
			"updateCheck()": "1a90dfe0"
		}
	},
	"abi": [
		{
			"inputs": [
				{
					"internalType": "contract KingdomSeedCoin",
					"name": "kgdsc",
					"type": "address"
				},
				{
					"internalType": "contract KingdomAttackCoin",
					"name": "kgdat",
					"type": "address"
				},
				{
					"internalType": "contract KingdomDefenseCoin",
					"name": "kgddf",
					"type": "address"
				}
			],
			"stateMutability": "nonpayable",
			"type": "constructor"
		},
		{
			"anonymous": false,
			"inputs": [
				{
					"indexed": true,
					"internalType": "address",
					"name": "owner",
					"type": "address"
				},
				{
					"indexed": true,
					"internalType": "address",
					"name": "approved",
					"type": "address"
				},
				{
					"indexed": true,
					"internalType": "uint256",
					"name": "tokenId",
					"type": "uint256"
				}
			],
			"name": "Approval",
			"type": "event"
		},
		{
			"anonymous": false,
			"inputs": [
				{
					"indexed": true,
					"internalType": "address",
					"name": "owner",
					"type": "address"
				},
				{
					"indexed": true,
					"internalType": "address",
					"name": "operator",
					"type": "address"
				},
				{
					"indexed": false,
					"internalType": "bool",
					"name": "approved",
					"type": "bool"
				}
			],
			"name": "ApprovalForAll",
			"type": "event"
		},
		{
			"anonymous": false,
			"inputs": [
				{
					"indexed": false,
					"internalType": "address",
					"name": "attacker",
					"type": "address"
				},
				{
					"indexed": false,
					"internalType": "address",
					"name": "defender",
					"type": "address"
				},
				{
					"indexed": false,
					"internalType": "uint16",
					"name": "attacker_id",
					"type": "uint16"
				},
				{
					"indexed": false,
					"internalType": "uint16",
					"name": "defender_id",
					"type": "uint16"
				},
				{
					"indexed": false,
					"internalType": "uint256",
					"name": "attackPointsBefore",
					"type": "uint256"
				},
				{
					"indexed": false,
					"internalType": "uint256",
					"name": "defensePointsBefore",
					"type": "uint256"
				},
				{
					"indexed": false,
					"internalType": "uint256",
					"name": "deadAttackers",
					"type": "uint256"
				},
				{
					"indexed": false,
					"internalType": "uint256",
					"name": "deadDefenders",
					"type": "uint256"
				},
				{
					"indexed": false,
					"internalType": "uint256",
					"name": "denominator",
					"type": "uint256"
				},
				{
					"indexed": false,
					"internalType": "uint256",
					"name": "remainder",
					"type": "uint256"
				},
				{
					"indexed": false,
					"internalType": "bool",
					"name": "won",
					"type": "bool"
				}
			],
			"name": "Attack",
			"type": "event"
		},
		{
			"anonymous": false,
			"inputs": [
				{
					"indexed": true,
					"internalType": "address",
					"name": "_to",
					"type": "address"
				},
				{
					"indexed": false,
					"internalType": "uint256",
					"name": "_amount",
					"type": "uint256"
				}
			],
			"name": "HarvestAttackPoints",
			"type": "event"
		},
		{
			"anonymous": false,
			"inputs": [
				{
					"indexed": true,
					"internalType": "address",
					"name": "_to",
					"type": "address"
				},
				{
					"indexed": false,
					"internalType": "uint256",
					"name": "_amount",
					"type": "uint256"
				}
			],
			"name": "HarvestDefensePoints",
			"type": "event"
		},
		{
			"anonymous": false,
			"inputs": [
				{
					"indexed": true,
					"internalType": "address",
					"name": "_to",
					"type": "address"
				},
				{
					"indexed": false,
					"internalType": "uint256",
					"name": "_amount",
					"type": "uint256"
				},
				{
					"indexed": false,
					"internalType": "uint256",
					"name": "_beforeBurn",
					"type": "uint256"
				}
			],
			"name": "HarvestRemainingSeedCoins",
			"type": "event"
		},
		{
			"anonymous": false,
			"inputs": [
				{
					"indexed": false,
					"internalType": "uint256",
					"name": "error",
					"type": "uint256"
				}
			],
			"name": "Log",
			"type": "event"
		},
		{
			"anonymous": false,
			"inputs": [
				{
					"indexed": false,
					"internalType": "address",
					"name": "attacker",
					"type": "address"
				},
				{
					"indexed": false,
					"internalType": "address",
					"name": "defender",
					"type": "address"
				},
				{
					"indexed": false,
					"internalType": "uint16",
					"name": "new_attacker_id",
					"type": "uint16"
				}
			],
			"name": "Sacked",
			"type": "event"
		},
		{
			"anonymous": false,
			"inputs": [
				{
					"indexed": true,
					"internalType": "address",
					"name": "from",
					"type": "address"
				},
				{
					"indexed": true,
					"internalType": "address",
					"name": "to",
					"type": "address"
				},
				{
					"indexed": true,
					"internalType": "uint256",
					"name": "tokenId",
					"type": "uint256"
				}
			],
			"name": "Transfer",
			"type": "event"
		},
		{
			"anonymous": false,
			"inputs": [
				{
					"indexed": true,
					"internalType": "address",
					"name": "_from",
					"type": "address"
				},
				{
					"indexed": false,
					"internalType": "uint256",
					"name": "_amount",
					"type": "uint256"
				}
			],
			"name": "enterStakingAttackPoints",
			"type": "event"
		},
		{
			"anonymous": false,
			"inputs": [
				{
					"indexed": true,
					"internalType": "address",
					"name": "_from",
					"type": "address"
				},
				{
					"indexed": false,
					"internalType": "uint256",
					"name": "_amount",
					"type": "uint256"
				}
			],
			"name": "enterStakingDefensePoints",
			"type": "event"
		},
		{
			"inputs": [
				{
					"internalType": "address",
					"name": "",
					"type": "address"
				},
				{
					"internalType": "uint256",
					"name": "",
					"type": "uint256"
				}
			],
			"name": "address2ids",
			"outputs": [
				{
					"internalType": "uint256",
					"name": "",
					"type": "uint256"
				}
			],
			"stateMutability": "view",
			"type": "function"
		},
		{
			"inputs": [
				{
					"internalType": "address",
					"name": "to",
					"type": "address"
				},
				{
					"internalType": "uint256",
					"name": "tokenId",
					"type": "uint256"
				}
			],
			"name": "approve",
			"outputs": [],
			"stateMutability": "nonpayable",
			"type": "function"
		},
		{
			"inputs": [
				{
					"internalType": "uint256",
					"name": "nrCoins",
					"type": "uint256"
				},
				{
					"internalType": "uint32",
					"name": "titleId",
					"type": "uint32"
				},
				{
					"internalType": "uint8",
					"name": "coinType",
					"type": "uint8"
				}
			],
			"name": "assignMilitaryToTitle",
			"outputs": [],
			"stateMutability": "nonpayable",
			"type": "function"
		},
		{
			"inputs": [
				{
					"internalType": "uint16",
					"name": "titleId",
					"type": "uint16"
				}
			],
			"name": "attackBoss",
			"outputs": [],
			"stateMutability": "nonpayable",
			"type": "function"
		},
		{
			"inputs": [],
			"name": "attackCooldown",
			"outputs": [
				{
					"internalType": "uint256",
					"name": "",
					"type": "uint256"
				}
			],
			"stateMutability": "view",
			"type": "function"
		},
		{
			"inputs": [
				{
					"internalType": "address",
					"name": "player",
					"type": "address"
				}
			],
			"name": "awardItem",
			"outputs": [
				{
					"internalType": "uint256",
					"name": "",
					"type": "uint256"
				}
			],
			"stateMutability": "nonpayable",
			"type": "function"
		},
		{
			"inputs": [
				{
					"internalType": "address",
					"name": "owner",
					"type": "address"
				}
			],
			"name": "balanceOf",
			"outputs": [
				{
					"internalType": "uint256",
					"name": "",
					"type": "uint256"
				}
			],
			"stateMutability": "view",
			"type": "function"
		},
		{
			"inputs": [],
			"name": "baseUrl",
			"outputs": [
				{
					"internalType": "string",
					"name": "",
					"type": "string"
				}
			],
			"stateMutability": "view",
			"type": "function"
		},
		{
			"inputs": [],
			"name": "buyForETH",
			"outputs": [],
			"stateMutability": "payable",
			"type": "function"
		},
		{
			"inputs": [],
			"name": "currentPosition",
			"outputs": [
				{
					"internalType": "uint256",
					"name": "",
					"type": "uint256"
				}
			],
			"stateMutability": "view",
			"type": "function"
		},
		{
			"inputs": [],
			"name": "exchangeRate",
			"outputs": [
				{
					"internalType": "uint8",
					"name": "",
					"type": "uint8"
				}
			],
			"stateMutability": "view",
			"type": "function"
		},
		{
			"inputs": [],
			"name": "exchangeRate_Attackpoints",
			"outputs": [
				{
					"internalType": "uint8",
					"name": "",
					"type": "uint8"
				}
			],
			"stateMutability": "view",
			"type": "function"
		},
		{
			"inputs": [],
			"name": "exchangeRate_Burnpct",
			"outputs": [
				{
					"internalType": "uint8",
					"name": "",
					"type": "uint8"
				}
			],
			"stateMutability": "view",
			"type": "function"
		},
		{
			"inputs": [],
			"name": "exchangeRate_Defensepoints",
			"outputs": [
				{
					"internalType": "uint8",
					"name": "",
					"type": "uint8"
				}
			],
			"stateMutability": "view",
			"type": "function"
		},
		{
			"inputs": [
				{
					"internalType": "uint256",
					"name": "tokenId",
					"type": "uint256"
				}
			],
			"name": "getApproved",
			"outputs": [
				{
					"internalType": "address",
					"name": "",
					"type": "address"
				}
			],
			"stateMutability": "view",
			"type": "function"
		},
		{
			"inputs": [
				{
					"internalType": "uint16",
					"name": "id",
					"type": "uint16"
				}
			],
			"name": "getBoss",
			"outputs": [
				{
					"internalType": "uint16",
					"name": "bossid",
					"type": "uint16"
				}
			],
			"stateMutability": "view",
			"type": "function"
		},
		{
			"inputs": [],
			"name": "getCurrentStakes",
			"outputs": [
				{
					"internalType": "uint256[2]",
					"name": "",
					"type": "uint256[2]"
				}
			],
			"stateMutability": "view",
			"type": "function"
		},
		{
			"inputs": [
				{
					"internalType": "uint16",
					"name": "id",
					"type": "uint16"
				}
			],
			"name": "getServants",
			"outputs": [
				{
					"internalType": "uint16",
					"name": "left",
					"type": "uint16"
				},
				{
					"internalType": "uint16",
					"name": "right",
					"type": "uint16"
				}
			],
			"stateMutability": "view",
			"type": "function"
		},
		{
			"inputs": [],
			"name": "getTimeUntilStakingDone",
			"outputs": [
				{
					"internalType": "uint256[2]",
					"name": "timeuntildone",
					"type": "uint256[2]"
				}
			],
			"stateMutability": "view",
			"type": "function"
		},
		{
			"inputs": [
				{
					"internalType": "uint32",
					"name": "titleId",
					"type": "uint32"
				}
			],
			"name": "getTitleStats",
			"outputs": [
				{
					"internalType": "uint256",
					"name": "attackPoints",
					"type": "uint256"
				},
				{
					"internalType": "uint256",
					"name": "defensePoints",
					"type": "uint256"
				},
				{
					"internalType": "bool",
					"name": "ready4attack",
					"type": "bool"
				}
			],
			"stateMutability": "view",
			"type": "function"
		},
		{
			"inputs": [],
			"name": "harvestAll",
			"outputs": [],
			"stateMutability": "nonpayable",
			"type": "function"
		},
		{
			"inputs": [
				{
					"internalType": "address",
					"name": "owner",
					"type": "address"
				},
				{
					"internalType": "address",
					"name": "operator",
					"type": "address"
				}
			],
			"name": "isApprovedForAll",
			"outputs": [
				{
					"internalType": "bool",
					"name": "",
					"type": "bool"
				}
			],
			"stateMutability": "view",
			"type": "function"
		},
		{
			"inputs": [],
			"name": "justSendETH",
			"outputs": [
				{
					"internalType": "uint256",
					"name": "",
					"type": "uint256"
				}
			],
			"stateMutability": "payable",
			"type": "function"
		},
		{
			"inputs": [],
			"name": "kgdat",
			"outputs": [
				{
					"internalType": "contract KingdomAttackCoin",
					"name": "",
					"type": "address"
				}
			],
			"stateMutability": "view",
			"type": "function"
		},
		{
			"inputs": [],
			"name": "kgddf",
			"outputs": [
				{
					"internalType": "contract KingdomDefenseCoin",
					"name": "",
					"type": "address"
				}
			],
			"stateMutability": "view",
			"type": "function"
		},
		{
			"inputs": [],
			"name": "kgdsc",
			"outputs": [
				{
					"internalType": "contract KingdomSeedCoin",
					"name": "",
					"type": "address"
				}
			],
			"stateMutability": "view",
			"type": "function"
		},
		{
			"inputs": [
				{
					"internalType": "uint256",
					"name": "",
					"type": "uint256"
				}
			],
			"name": "kingdomtitles",
			"outputs": [
				{
					"internalType": "uint256",
					"name": "attackPoints",
					"type": "uint256"
				},
				{
					"internalType": "uint256",
					"name": "defensePoints",
					"type": "uint256"
				},
				{
					"internalType": "uint256",
					"name": "readyTimeAttack",
					"type": "uint256"
				}
			],
			"stateMutability": "view",
			"type": "function"
		},
		{
			"inputs": [],
			"name": "name",
			"outputs": [
				{
					"internalType": "string",
					"name": "",
					"type": "string"
				}
			],
			"stateMutability": "view",
			"type": "function"
		},
		{
			"inputs": [
				{
					"internalType": "uint256",
					"name": "tokenId",
					"type": "uint256"
				}
			],
			"name": "ownerOf",
			"outputs": [
				{
					"internalType": "address",
					"name": "",
					"type": "address"
				}
			],
			"stateMutability": "view",
			"type": "function"
		},
		{
			"inputs": [
				{
					"internalType": "uint256",
					"name": "nrSeedCoins",
					"type": "uint256"
				},
				{
					"internalType": "uint8",
					"name": "targetCoin",
					"type": "uint8"
				}
			],
			"name": "plantSeeds",
			"outputs": [],
			"stateMutability": "nonpayable",
			"type": "function"
		},
		{
			"inputs": [
				{
					"internalType": "address",
					"name": "_own",
					"type": "address"
				}
			],
			"name": "returnIdsOfAddress",
			"outputs": [
				{
					"internalType": "uint256[]",
					"name": "ownedIds",
					"type": "uint256[]"
				}
			],
			"stateMutability": "view",
			"type": "function"
		},
		{
			"inputs": [
				{
					"internalType": "address",
					"name": "_own",
					"type": "address"
				}
			],
			"name": "returnRanksOfTitles",
			"outputs": [
				{
					"internalType": "uint256[]",
					"name": "ranksOfIds",
					"type": "uint256[]"
				}
			],
			"stateMutability": "view",
			"type": "function"
		},
		{
			"inputs": [
				{
					"internalType": "uint256",
					"name": "itemId",
					"type": "uint256"
				}
			],
			"name": "reverseItem",
			"outputs": [
				{
					"internalType": "bool",
					"name": "",
					"type": "bool"
				}
			],
			"stateMutability": "nonpayable",
			"type": "function"
		},
		{
			"inputs": [
				{
					"internalType": "address",
					"name": "from",
					"type": "address"
				},
				{
					"internalType": "address",
					"name": "to",
					"type": "address"
				},
				{
					"internalType": "uint256",
					"name": "tokenId",
					"type": "uint256"
				}
			],
			"name": "safeTransferFrom",
			"outputs": [],
			"stateMutability": "nonpayable",
			"type": "function"
		},
		{
			"inputs": [
				{
					"internalType": "address",
					"name": "from",
					"type": "address"
				},
				{
					"internalType": "address",
					"name": "to",
					"type": "address"
				},
				{
					"internalType": "uint256",
					"name": "tokenId",
					"type": "uint256"
				},
				{
					"internalType": "bytes",
					"name": "_data",
					"type": "bytes"
				}
			],
			"name": "safeTransferFrom",
			"outputs": [],
			"stateMutability": "nonpayable",
			"type": "function"
		},
		{
			"inputs": [
				{
					"internalType": "address",
					"name": "operator",
					"type": "address"
				},
				{
					"internalType": "bool",
					"name": "approved",
					"type": "bool"
				}
			],
			"name": "setApprovalForAll",
			"outputs": [],
			"stateMutability": "nonpayable",
			"type": "function"
		},
		{
			"inputs": [],
			"name": "stakingPeriod",
			"outputs": [
				{
					"internalType": "uint256",
					"name": "",
					"type": "uint256"
				}
			],
			"stateMutability": "view",
			"type": "function"
		},
		{
			"inputs": [
				{
					"internalType": "bytes4",
					"name": "interfaceId",
					"type": "bytes4"
				}
			],
			"name": "supportsInterface",
			"outputs": [
				{
					"internalType": "bool",
					"name": "",
					"type": "bool"
				}
			],
			"stateMutability": "view",
			"type": "function"
		},
		{
			"inputs": [],
			"name": "symbol",
			"outputs": [
				{
					"internalType": "string",
					"name": "",
					"type": "string"
				}
			],
			"stateMutability": "view",
			"type": "function"
		},
		{
			"inputs": [
				{
					"internalType": "uint256",
					"name": "",
					"type": "uint256"
				}
			],
			"name": "titleId2Rank",
			"outputs": [
				{
					"internalType": "uint256",
					"name": "",
					"type": "uint256"
				}
			],
			"stateMutability": "view",
			"type": "function"
		},
		{
			"inputs": [
				{
					"internalType": "uint256",
					"name": "_tokenId",
					"type": "uint256"
				}
			],
			"name": "tokenMetadata",
			"outputs": [
				{
					"internalType": "string",
					"name": "infoUrl",
					"type": "string"
				}
			],
			"stateMutability": "view",
			"type": "function"
		},
		{
			"inputs": [
				{
					"internalType": "uint256",
					"name": "tokenId",
					"type": "uint256"
				}
			],
			"name": "tokenURI",
			"outputs": [
				{
					"internalType": "string",
					"name": "",
					"type": "string"
				}
			],
			"stateMutability": "view",
			"type": "function"
		},
		{
			"inputs": [],
			"name": "totalSupply",
			"outputs": [
				{
					"internalType": "uint16",
					"name": "",
					"type": "uint16"
				}
			],
			"stateMutability": "view",
			"type": "function"
		},
		{
			"inputs": [
				{
					"internalType": "address",
					"name": "from",
					"type": "address"
				},
				{
					"internalType": "address",
					"name": "to",
					"type": "address"
				},
				{
					"internalType": "uint256",
					"name": "tokenId",
					"type": "uint256"
				}
			],
			"name": "transferFrom",
			"outputs": [],
			"stateMutability": "nonpayable",
			"type": "function"
		},
		{
			"inputs": [],
			"name": "updateCheck",
			"outputs": [
				{
					"internalType": "string",
					"name": "",
					"type": "string"
				}
			],
			"stateMutability": "pure",
			"type": "function"
		}
	]
}