{
	"data": {
		"bytecode": {
			"linkReferences": {},
			"object": "6080604052600a600660146101000a81548160ff021916908360ff160217905550600a600660156101000a81548160ff021916908360ff1602179055506008600660166101000a81548160ff021916908360ff160217905550600a600660176101000a81548160ff021916908360ff160217905550603c600755600060085560006009556000600a553480156200009557600080fd5b5060405162007ecc38038062007ecc8339818101604052810190620000bb919062000429565b8282828282826040518060400160405280600e81526020017f4b696e67646f6d205469746c65730000000000000000000000000000000000008152506040518060400160405280600381526020017f4b4744000000000000000000000000000000000000000000000000000000000081525081600090805190602001906200014592919062000334565b5080600190805190602001906200015e92919062000334565b50505062000181620001756200026660201b60201c565b6200026e60201b60201c565b82600b60006101000a81548173ffffffffffffffffffffffffffffffffffffffff021916908373ffffffffffffffffffffffffffffffffffffffff16021790555081600c60006101000a81548173ffffffffffffffffffffffffffffffffffffffff021916908373ffffffffffffffffffffffffffffffffffffffff16021790555080600d60006101000a81548173ffffffffffffffffffffffffffffffffffffffff021916908373ffffffffffffffffffffffffffffffffffffffff16021790555050505060006201118281905550505050426201118481905550505050620005ad565b600033905090565b6000600660009054906101000a900473ffffffffffffffffffffffffffffffffffffffff16905081600660006101000a81548173ffffffffffffffffffffffffffffffffffffffff021916908373ffffffffffffffffffffffffffffffffffffffff1602179055508173ffffffffffffffffffffffffffffffffffffffff168173ffffffffffffffffffffffffffffffffffffffff167f8be0079c531659141344cd1fd0a4f28419497f9722a3daafe3b4186f6b6457e060405160405180910390a35050565b8280546200034290620004f5565b90600052602060002090601f016020900481019282620003665760008555620003b2565b82601f106200038157805160ff1916838001178555620003b2565b82800160010185558215620003b2579182015b82811115620003b157825182559160200191906001019062000394565b5b509050620003c19190620003c5565b5090565b5b80821115620003e0576000816000905550600101620003c6565b5090565b600081519050620003f5816200055f565b92915050565b6000815190506200040c8162000579565b92915050565b600081519050620004238162000593565b92915050565b6000806000606084860312156200044557620004446200055a565b5b6000620004558682870162000412565b93505060206200046886828701620003e4565b92505060406200047b86828701620003fb565b9150509250925092565b60006200049282620004d5565b9050919050565b6000620004a68262000485565b9050919050565b6000620004ba8262000485565b9050919050565b6000620004ce8262000485565b9050919050565b600073ffffffffffffffffffffffffffffffffffffffff82169050919050565b600060028204905060018216806200050e57607f821691505b602082108114156200052557620005246200052b565b5b50919050565b7f4e487b7100000000000000000000000000000000000000000000000000000000600052602260045260246000fd5b600080fd5b6200056a8162000499565b81146200057657600080fd5b50565b6200058481620004ad565b81146200059057600080fd5b50565b6200059e81620004c1565b8114620005aa57600080fd5b50565b61790f80620005bd6000396000f3fe60806040526004361061034f5760003560e01c80637c62539a116101c6578063c669b710116100f7578063e985e9c511610095578063f2fb21201161006f578063f2fb212014610cbb578063f2fde38b14610cf8578063f4fd44f114610d21578063fa4facdb14610d5e5761034f565b8063e985e9c514610c16578063eb8fd9a314610c53578063f08b7b7314610c7e5761034f565b8063d534d636116100d1578063d534d63614610b65578063e046670b14610b90578063e10270c614610bae578063e73961f514610beb5761034f565b8063c669b71014610ad2578063c87b56dd14610afd578063d4637ddb14610b3a5761034f565b8063900294be11610164578063b88d4fde1161013e578063b88d4fde14610a04578063c03d5b4714610a2d578063c398314914610a58578063c4a3a1fc14610a955761034f565b8063900294be1461098557806395d89b41146109b0578063a22cb465146109db5761034f565b806384505e6a116101a057806384505e6a146108db578063853eab57146109065780638da5cb5b1461092f5780638ed955b91461095a5761034f565b80637c62539a14610848578063802bea6e14610873578063839b9205146108b05761034f565b806323b872dd116102a0578063437ace211161023e5780636352211e116102185780636352211e1461078c5780636a7a2fa3146107c957806370a08231146107f4578063715018a6146108315761034f565b8063437ace21146106e15780635bcabf04146107235780635e1bb5461461074e5761034f565b80633ba0b9a91161027a5780633ba0b9a914610639578063411ee0d01461066457806342842e0e1461068f578063429c3edf146106b85761034f565b806323b872dd14610596578063266c79ef146105bf5780632756985c146105fc5761034f565b8063081812fc1161030d57806310f7e4ed116102e757806310f7e4ed146104e157806316807e15146104eb57806318160ddd146105285780631cf95ed6146105535761034f565b8063081812fc146104505780630895ba531461048d578063095ea7b3146104b85761034f565b80620a51801461035457806301ffc9a71461037f5780630251b7d2146103bc5780630619f932146103d357806306fdde03146103fc578063073077ec14610427575b600080fd5b34801561036057600080fd5b50610369610d89565b6040516103769190616746565b60405180910390f35b34801561038b57600080fd5b506103a660048036038101906103a19190615763565b610d8f565b6040516103b3919061621d565b60405180910390f35b3480156103c857600080fd5b506103d1610e71565b005b3480156103df57600080fd5b506103fa60048036038101906103f591906157bd565b61110c565b005b34801561040857600080fd5b50610411611536565b60405161041e9190616289565b60405180910390f35b34801561043357600080fd5b5061044e6004803603810190610449919061586a565b6115c8565b005b34801561045c57600080fd5b50610477600480360381019061047291906157bd565b6119ee565b6040516104849190616047565b60405180910390f35b34801561049957600080fd5b506104a2611a73565b6040516104af9190616746565b60405180910390f35b3480156104c457600080fd5b506104df60048036038101906104da91906156f6565b611a78565b005b6104e9611b90565b005b3480156104f757600080fd5b50610512600480360381019061050d91906157bd565b611e4c565b60405161051f9190616746565b60405180910390f35b34801561053457600080fd5b5061053d611e9a565b60405161054a919061672b565b60405180910390f35b34801561055f57600080fd5b5061057a600480360381019061057591906157bd565b611ea0565b60405161058d97969594939291906167eb565b60405180910390f35b3480156105a257600080fd5b506105bd60048036038101906105b891906155e0565b611ee9565b005b3480156105cb57600080fd5b506105e660048036038101906105e191906157bd565b611f49565b6040516105f39190616746565b60405180910390f35b34801561060857600080fd5b50610623600480360381019061061e91906157bd565b612011565b604051610630919061621d565b60405180910390f35b34801561064557600080fd5b5061064e61222f565b60405161065b919061685a565b60405180910390f35b34801561067057600080fd5b50610679612242565b6040516106869190616253565b60405180910390f35b34801561069b57600080fd5b506106b660048036038101906106b191906155e0565b612268565b005b3480156106c457600080fd5b506106df60048036038101906106da91906158bd565b612288565b005b3480156106ed57600080fd5b50610708600480360381019061070391906157bd565b612784565b60405161071a9695949392919061678a565b60405180910390f35b34801561072f57600080fd5b5061073861289d565b6040516107459190616289565b60405180910390f35b34801561075a57600080fd5b50610775600480360381019061077091906157bd565b6128b9565b604051610783929190616761565b60405180910390f35b34801561079857600080fd5b506107b360048036038101906107ae91906157bd565b612941565b6040516107c09190616047565b60405180910390f35b3480156107d557600080fd5b506107de6129f3565b6040516107eb919061685a565b60405180910390f35b34801561080057600080fd5b5061081b60048036038101906108169190615573565b612a06565b6040516108289190616746565b60405180910390f35b34801561083d57600080fd5b50610846612abe565b005b34801561085457600080fd5b5061085d612b46565b60405161086a9190616238565b60405180910390f35b34801561087f57600080fd5b5061089a600480360381019061089591906157bd565b612b6c565b6040516108a79190616746565b60405180910390f35b3480156108bc57600080fd5b506108c5612b8b565b6040516108d29190616746565b60405180910390f35b3480156108e757600080fd5b506108f0612b91565b6040516108fd91906161e0565b60405180910390f35b34801561091257600080fd5b5061092d60048036038101906109289190615817565b612e30565b005b34801561093b57600080fd5b50610944613310565b6040516109519190616047565b60405180910390f35b34801561096657600080fd5b5061096f61333a565b60405161097c919061621d565b60405180910390f35b34801561099157600080fd5b5061099a613761565b6040516109a7919061626e565b60405180910390f35b3480156109bc57600080fd5b506109c5613787565b6040516109d29190616289565b60405180910390f35b3480156109e757600080fd5b50610a0260048036038101906109fd91906156b6565b613819565b005b348015610a1057600080fd5b50610a2b6004803603810190610a269190615633565b61399a565b005b348015610a3957600080fd5b50610a426139fc565b604051610a4f9190616746565b60405180910390f35b348015610a6457600080fd5b50610a7f6004803603810190610a7a91906157bd565b613a02565b604051610a8c9190616746565b60405180910390f35b348015610aa157600080fd5b50610abc6004803603810190610ab79190615573565b613a21565b604051610ac991906161fb565b60405180910390f35b348015610ade57600080fd5b50610ae7613aba565b604051610af4919061685a565b60405180910390f35b348015610b0957600080fd5b50610b246004803603810190610b1f91906157bd565b613acd565b604051610b319190616289565b60405180910390f35b348015610b4657600080fd5b50610b4f613b60565b604051610b5c919061685a565b60405180910390f35b348015610b7157600080fd5b50610b7a613b73565b604051610b879190616746565b60405180910390f35b610b98613b7f565b604051610ba59190616746565b60405180910390f35b348015610bba57600080fd5b50610bd56004803603810190610bd09190615573565b613b87565b604051610be291906161fb565b60405180910390f35b348015610bf757600080fd5b50610c00613cee565b604051610c0d9190616746565b60405180910390f35b348015610c2257600080fd5b50610c3d6004803603810190610c3891906155a0565b613cf3565b604051610c4a919061621d565b60405180910390f35b348015610c5f57600080fd5b50610c68613d87565b604051610c759190616746565b60405180910390f35b348015610c8a57600080fd5b50610ca56004803603810190610ca091906156f6565b613d8d565b604051610cb29190616746565b60405180910390f35b348015610cc757600080fd5b50610ce26004803603810190610cdd9190615573565b613dc0565b604051610cef9190616746565b60405180910390f35b348015610d0457600080fd5b50610d1f6004803603810190610d1a9190615573565b614014565b005b348015610d2d57600080fd5b50610d486004803603810190610d4391906157bd565b61410c565b604051610d559190616746565b60405180910390f35b348015610d6a57600080fd5b50610d73614126565b604051610d8091906161e0565b60405180910390f35b60095481565b60007f80ac58cd000000000000000000000000000000000000000000000000000000007bffffffffffffffffffffffffffffffffffffffffffffffffffffffff1916827bffffffffffffffffffffffffffffffffffffffffffffffffffffffff19161480610e5a57507f5b5e139f000000000000000000000000000000000000000000000000000000007bffffffffffffffffffffffffffffffffffffffffffffffffffffffff1916827bffffffffffffffffffffffffffffffffffffffffffffffffffffffff1916145b80610e6a5750610e69826142c9565b5b9050919050565b610e79614333565b73ffffffffffffffffffffffffffffffffffffffff16610e97613310565b73ffffffffffffffffffffffffffffffffffffffff1614610eed576040517f08c379a0000000000000000000000000000000000000000000000000000000008152600401610ee49061658b565b60405180910390fd5b60005b6201118254811015611109576000610f0782612941565b905060006011836127108110610f2057610f1f616d6f565b5b6007020160000154905060006011846127108110610f4157610f40616d6f565b5b60070201600101549050600e60405180606001604052808573ffffffffffffffffffffffffffffffffffffffff168152602001848152602001600060ff16815250908060018154018082558091505060019003906000526020600020906003020160009091909190915060008201518160000160006101000a81548173ffffffffffffffffffffffffffffffffffffffff021916908373ffffffffffffffffffffffffffffffffffffffff1602179055506020820151816001015560408201518160020160006101000a81548160ff021916908360ff1602179055505050600e60405180606001604052808573ffffffffffffffffffffffffffffffffffffffff168152602001838152602001600160ff16815250908060018154018082558091505060019003906000526020600020906003020160009091909190915060008201518160000160006101000a81548173ffffffffffffffffffffffffffffffffffffffff021916908373ffffffffffffffffffffffffffffffffffffffff1602179055506020820151816001015560408201518160020160006101000a81548160ff021916908360ff1602179055505050505050808061110190616c5e565b915050610ef0565b50565b600061111733612a06565b11611157576040517f08c379a000000000000000000000000000000000000000000000000000000000815260040161114e9061656b565b60405180910390fd5b3373ffffffffffffffffffffffffffffffffffffffff1661117782612941565b73ffffffffffffffffffffffffffffffffffffffff16146111cd576040517f08c379a00000000000000000000000000000000000000000000000000000000081526004016111c49061666b565b60405180910390fd5b60006040518061016001604052806000151581526020018381526020016111f384613a02565b815260200161120961120485613a02565b612941565b73ffffffffffffffffffffffffffffffffffffffff1681526020016000815260200160008152602001600015158152602001600081526020016000815260200160008152602001600081525090503373ffffffffffffffffffffffffffffffffffffffff16816060015173ffffffffffffffffffffffffffffffffffffffff1614156112ca576040517f08c379a00000000000000000000000000000000000000000000000000000000081526004016112c1906162ab565b60405180910390fd5b6112d382612784565b90919293509050508360e0018460c0018561012001838152508315151515815250838152505050506113088160400151612784565b909192939450909192509091505082610100018361014001828152508281525050506000600a826101400151600f8461010001516113469190616a32565b6113509190616a32565b61135a9190616a01565b905060008261012001518360e001516113739190616a32565b9050600061137f61433b565b905060008061138e848661439b565b9150915060038211156113cb578561010001518660a0018181525050600086608001818152505060018660000190151590811515815250506114c0565b6002821115611438578561010001518660a00181815250506001866000019015159081151581525050600a8660e001516114059190616a01565b866080018181525050605a8311156114335760028661010001516114299190616a01565b8660a00181815250505b6114bf565b6001821180156114485750600581115b1561149857600186600001901515908115158152505060028661010001516114709190616a01565b8660a001818152505060028660e0015161148a9190616a01565b8660800181815250506114be565b6000866000019015159081151581525050828660a0018181525050828660800181815250505b5b5b7fe1f1c5edc3d4d1e770d4de5770da4dd058cc5e6a71a2830d5743e8062cd8fa093387606001518989604001518a60e001518b61010001518c608001518d60a001518e6000015160405161151c9998979695949392919061612a565b60405180910390a161152d866143cc565b50505050505050565b60606000805461154590616bfb565b80601f016020809104026020016040519081016040528092919081815260200182805461157190616bfb565b80156115be5780601f10611593576101008083540402835291602001916115be565b820191906000526020600020905b8154815290600101906020018083116115a157829003601f168201915b5050505050905090565b6115d78263ffffffff166145e4565b611616576040517f08c379a000000000000000000000000000000000000000000000000000000000815260040161160d9061632b565b60405180910390fd5b3373ffffffffffffffffffffffffffffffffffffffff1661163c8363ffffffff16612941565b73ffffffffffffffffffffffffffffffffffffffff1614611692576040517f08c379a0000000000000000000000000000000000000000000000000000000008152600401611689906165eb565b60405180910390fd5b60008310156116d6576040517f08c379a00000000000000000000000000000000000000000000000000000000081526004016116cd9061640b565b60405180910390fd5b60008160ff1614806116eb575060018160ff16145b61172a576040517f08c379a0000000000000000000000000000000000000000000000000000000008152600401611721906163ab565b60405180910390fd5b60008160ff16141561188b578260118363ffffffff16612710811061175257611751616d6f565b5b6007020160000154101561179b576040517f08c379a00000000000000000000000000000000000000000000000000000000081526004016117929061670b565b60405180910390fd5b600c60009054906101000a900473ffffffffffffffffffffffffffffffffffffffff1673ffffffffffffffffffffffffffffffffffffffff166323b872dd3033866040518463ffffffff1660e01b81526004016117fa93929190616062565b602060405180830381600087803b15801561181457600080fd5b505af1158015611828573d6000803e3d6000fd5b505050506040513d601f19601f8201168201806040525081019061184c9190615736565b508260118363ffffffff16612710811061186957611868616d6f565b5b60070201600001600082825461187f9190616a8c565b925050819055506119e9565b60018160ff1614156119e8578260118363ffffffff1661271081106118b3576118b2616d6f565b5b600702016001015410156118fc576040517f08c379a00000000000000000000000000000000000000000000000000000000081526004016118f39061648b565b60405180910390fd5b600d60009054906101000a900473ffffffffffffffffffffffffffffffffffffffff1673ffffffffffffffffffffffffffffffffffffffff166323b872dd3033866040518463ffffffff1660e01b815260040161195b93929190616062565b602060405180830381600087803b15801561197557600080fd5b505af1158015611989573d6000803e3d6000fd5b505050506040513d601f19601f820116820180604052508101906119ad9190615736565b508260118363ffffffff1661271081106119ca576119c9616d6f565b5b6007020160010160008282546119e09190616a8c565b925050819055505b5b505050565b60006119f9826145e4565b611a38576040517f08c379a0000000000000000000000000000000000000000000000000000000008152600401611a2f9061654b565b60405180910390fd5b6004600083815260200190815260200160002060009054906101000a900473ffffffffffffffffffffffffffffffffffffffff169050919050565b603c81565b6000611a8382612941565b90508073ffffffffffffffffffffffffffffffffffffffff168373ffffffffffffffffffffffffffffffffffffffff161415611af4576040517f08c379a0000000000000000000000000000000000000000000000000000000008152600401611aeb9061662b565b60405180910390fd5b8073ffffffffffffffffffffffffffffffffffffffff16611b13614333565b73ffffffffffffffffffffffffffffffffffffffff161480611b425750611b4181611b3c614333565b613cf3565b5b611b81576040517f08c379a0000000000000000000000000000000000000000000000000000000008152600401611b78906164ab565b60405180910390fd5b611b8b8383614650565b505050565b6000600b60009054906101000a900473ffffffffffffffffffffffffffffffffffffffff1673ffffffffffffffffffffffffffffffffffffffff166370a08231306040518263ffffffff1660e01b8152600401611bed9190616047565b60206040518083038186803b158015611c0557600080fd5b505afa158015611c19573d6000803e3d6000fd5b505050506040513d601f19601f82011682018060405250810190611c3d91906157ea565b11611c4757600080fd5b60003411611c8a576040517f08c379a0000000000000000000000000000000000000000000000000000000008152600401611c819061636b565b60405180910390fd5b6000600b60009054906101000a900473ffffffffffffffffffffffffffffffffffffffff1673ffffffffffffffffffffffffffffffffffffffff166370a08231306040518263ffffffff1660e01b8152600401611ce79190616047565b60206040518083038186803b158015611cff57600080fd5b505afa158015611d13573d6000803e3d6000fd5b505050506040513d601f19601f82011682018060405250810190611d3791906157ea565b11611d77576040517f08c379a0000000000000000000000000000000000000000000000000000000008152600401611d6e906166ab565b60405180910390fd5b6000600660149054906101000a900460ff1660ff1634611d979190616a32565b9050600b60009054906101000a900473ffffffffffffffffffffffffffffffffffffffff1673ffffffffffffffffffffffffffffffffffffffff1663a9059cbb33836040518363ffffffff1660e01b8152600401611df69291906161b7565b602060405180830381600087803b158015611e1057600080fd5b505af1158015611e24573d6000803e3d6000fd5b505050506040513d601f19601f82011682018060405250810190611e489190615736565b5050565b6000805b6201118254811015611e945782620111816000838152602001908152602001600020541415611e8157809150611e94565b8080611e8c90616c5e565b915050611e50565b50919050565b61271081565b6011816127108110611eb157600080fd5b600702016000915090508060000154908060010154908060020154908060030154908060040154908060050154908060060154905087565b611efa611ef4614333565b82614709565b611f39576040517f08c379a0000000000000000000000000000000000000000000000000000000008152600401611f309061664b565b60405180910390fd5b611f448383836147e7565b505050565b600080611f54613b73565b9050826000108015611f665750808311155b611fa5576040517f08c379a0000000000000000000000000000000000000000000000000000000008152600401611f9c9061660b565b60405180910390fd5b6000611fb084612b6c565b90506001811415611fc4576000925061200a565b6000600285611fd39190616cb1565b1415611fed57600281611fe69190616a01565b9250612009565b6002600182611ffc9190616a8c565b6120069190616a01565b92505b5b5050919050565b600061201b614333565b73ffffffffffffffffffffffffffffffffffffffff16612039613310565b73ffffffffffffffffffffffffffffffffffffffff161461208f576040517f08c379a00000000000000000000000000000000000000000000000000000000081526004016120869061658b565b60405180910390fd5b600061209a83612941565b90506120a78130856147e7565b6000611a0a905060005b6201118360008473ffffffffffffffffffffffffffffffffffffffff1673ffffffffffffffffffffffffffffffffffffffff1681526020019081526020016000208054905081101561217d57846201118360008573ffffffffffffffffffffffffffffffffffffffff1673ffffffffffffffffffffffffffffffffffffffff168152602001908152602001600020828154811061215157612150616d6f565b5b9060005260206000200154141561216a5780915061217d565b808061217590616c5e565b9150506120b1565b50611a0a8114156121c3576040517f08c379a00000000000000000000000000000000000000000000000000000000081526004016121ba906165ab565b60405180910390fd5b6201118360008373ffffffffffffffffffffffffffffffffffffffff1673ffffffffffffffffffffffffffffffffffffffff168152602001908152602001600020818154811061221657612215616d6f565b5b9060005260206000200160009055600192505050919050565b600660149054906101000a900460ff1681565b600d60009054906101000a900473ffffffffffffffffffffffffffffffffffffffff1681565b6122838383836040518060200160405280600081525061399a565b505050565b6000600c60009054906101000a900473ffffffffffffffffffffffffffffffffffffffff1673ffffffffffffffffffffffffffffffffffffffff166370a08231306040518263ffffffff1660e01b81526004016122e59190616047565b60206040518083038186803b1580156122fd57600080fd5b505afa158015612311573d6000803e3d6000fd5b505050506040513d601f19601f8201168201806040525081019061233591906157ea565b1161233f57600080fd5b6000600d60009054906101000a900473ffffffffffffffffffffffffffffffffffffffff1673ffffffffffffffffffffffffffffffffffffffff166370a08231306040518263ffffffff1660e01b815260040161239c9190616047565b60206040518083038186803b1580156123b457600080fd5b505afa1580156123c8573d6000803e3d6000fd5b505050506040513d601f19601f820116820180604052508101906123ec91906157ea565b116123f657600080fd5b6000600b60009054906101000a900473ffffffffffffffffffffffffffffffffffffffff1673ffffffffffffffffffffffffffffffffffffffff166370a08231336040518263ffffffff1660e01b81526004016124539190616047565b60206040518083038186803b15801561246b57600080fd5b505afa15801561247f573d6000803e3d6000fd5b505050506040513d601f19601f820116820180604052508101906124a391906157ea565b90508281101580156124b55750600083115b6124f4576040517f08c379a00000000000000000000000000000000000000000000000000000000081526004016124eb906162eb565b60405180910390fd5b60008260ff161480612509575060018260ff16145b612548576040517f08c379a000000000000000000000000000000000000000000000000000000000815260040161253f9061646b565b60405180910390fd5b60008260ff1614156125a7573373ffffffffffffffffffffffffffffffffffffffff167f44d00596aedd88fca0607c9a84113fd638c9a070d5ef8d77c072080b688d8e348460405161259a9190616746565b60405180910390a2612603565b60018260ff161415612602573373ffffffffffffffffffffffffffffffffffffffff167f049b4d6e22c9904766197183f9dc1f362cefb04f39e3850a8b7d83ff2c26216f846040516125f99190616746565b60405180910390a25b5b600b60009054906101000a900473ffffffffffffffffffffffffffffffffffffffff1673ffffffffffffffffffffffffffffffffffffffff166323b872dd3330866040518463ffffffff1660e01b815260040161266293929190616062565b602060405180830381600087803b15801561267c57600080fd5b505af1158015612690573d6000803e3d6000fd5b505050506040513d601f19601f820116820180604052508101906126b49190615736565b50601060003373ffffffffffffffffffffffffffffffffffffffff1673ffffffffffffffffffffffffffffffffffffffff16815260200190815260200160002060405180606001604052808581526020018460ff1681526020016007544261271c9190616974565b81525090806001815401808255809150506001900390600052602060002090600302016000909190919091506000820151816000015560208201518160010160006101000a81548160ff021916908360ff160217905550604082015181600201555050505050565b600080600080600080612795613b73565b8711156127d7576040517f08c379a00000000000000000000000000000000000000000000000000000000081526004016127ce9061642b565b60405180910390fd5b60118761271081106127ec576127eb616d6f565b5b60070201600001549550601187612710811061280b5761280a616d6f565b5b6007020160010154945042601188612710811061282b5761282a616d6f565b5b600702016002015410159350601187612710811061284c5761284b616d6f565b5b60070201600401549250601187612710811061286b5761286a616d6f565b5b60070201600501549150601187612710811061288a57612889616d6f565b5b6007020160060154905091939550919395565b6040518060600160405280602581526020016178b56025913981565b60008060006128c6613b73565b90508084111561290b576040517f08c379a00000000000000000000000000000000000000000000000000000000081526004016129029061660b565b60405180910390fd5b61291484614a43565b925061291f84614a59565b91508083111561292e57600092505b8082111561293b57600091505b50915091565b6000806002600084815260200190815260200160002060009054906101000a900473ffffffffffffffffffffffffffffffffffffffff169050600073ffffffffffffffffffffffffffffffffffffffff168173ffffffffffffffffffffffffffffffffffffffff1614156129ea576040517f08c379a00000000000000000000000000000000000000000000000000000000081526004016129e1906164eb565b60405180910390fd5b80915050919050565b600660179054906101000a900460ff1681565b60008073ffffffffffffffffffffffffffffffffffffffff168273ffffffffffffffffffffffffffffffffffffffff161415612a77576040517f08c379a0000000000000000000000000000000000000000000000000000000008152600401612a6e906164cb565b60405180910390fd5b600360008373ffffffffffffffffffffffffffffffffffffffff1673ffffffffffffffffffffffffffffffffffffffff168152602001908152602001600020549050919050565b612ac6614333565b73ffffffffffffffffffffffffffffffffffffffff16612ae4613310565b73ffffffffffffffffffffffffffffffffffffffff1614612b3a576040517f08c379a0000000000000000000000000000000000000000000000000000000008152600401612b319061658b565b60405180910390fd5b612b446000614a77565b565b600c60009054906101000a900473ffffffffffffffffffffffffffffffffffffffff1681565b6000620111816000838152602001908152602001600020549050919050565b600a5481565b612b99615424565b60405180606001604052806298967f81526020016298967f81526020016000815250905060005b601060003373ffffffffffffffffffffffffffffffffffffffff1673ffffffffffffffffffffffffffffffffffffffff16815260200190815260200160002080549050811015612e2c576000601060003373ffffffffffffffffffffffffffffffffffffffff1673ffffffffffffffffffffffffffffffffffffffff1681526020019081526020016000208281548110612c5d57612c5c616d6f565b5b9060005260206000209060030201604051806060016040529081600082015481526020016001820160009054906101000a900460ff1660ff1660ff1681526020016002820154815250509050600081604001511415612cbc5750612e19565b82600260038110612cd057612ccf616d6f565b5b602002018051809190612ce290616c5e565b815250506000816020015160ff161415612d80574281604001511115612d5b576000428260400151612d149190616a8c565b905083600060038110612d2a57612d29616d6f565b5b6020020151811015612d55578084600060038110612d4b57612d4a616d6f565b5b6020020181815250505b50612d7b565b600083600060038110612d7157612d70616d6f565b5b6020020181815250505b612e17565b6001816020015160ff161415612e16574281604001511115612df5576000428260400151612dae9190616a8c565b905083600060038110612dc457612dc3616d6f565b5b6020020151811015612def578084600160038110612de557612de4616d6f565b5b6020020181815250505b50612e15565b600083600160038110612e0b57612e0a616d6f565b5b6020020181815250505b5b5b505b8080612e2490616c5e565b915050612bc0565b5090565b612e3f8263ffffffff166145e4565b612e7e576040517f08c379a0000000000000000000000000000000000000000000000000000000008152600401612e759061632b565b60405180910390fd5b60008311612ec1576040517f08c379a0000000000000000000000000000000000000000000000000000000008152600401612eb89061668b565b60405180910390fd5b6000811480612ed05750600181145b612f0f576040517f08c379a0000000000000000000000000000000000000000000000000000000008152600401612f06906163ab565b60405180910390fd5b60008114156130f55782600c60009054906101000a900473ffffffffffffffffffffffffffffffffffffffff1673ffffffffffffffffffffffffffffffffffffffff166370a08231336040518263ffffffff1660e01b8152600401612f749190616047565b60206040518083038186803b158015612f8c57600080fd5b505afa158015612fa0573d6000803e3d6000fd5b505050506040513d601f19601f82011682018060405250810190612fc491906157ea565b1015613005576040517f08c379a0000000000000000000000000000000000000000000000000000000008152600401612ffc9061670b565b60405180910390fd5b600c60009054906101000a900473ffffffffffffffffffffffffffffffffffffffff1673ffffffffffffffffffffffffffffffffffffffff166323b872dd3330866040518463ffffffff1660e01b815260040161306493929190616062565b602060405180830381600087803b15801561307e57600080fd5b505af1158015613092573d6000803e3d6000fd5b505050506040513d601f19601f820116820180604052508101906130b69190615736565b508260118363ffffffff1661271081106130d3576130d2616d6f565b5b6007020160000160008282546130e99190616974565b925050819055506132d8565b60018114156132d75782600d60009054906101000a900473ffffffffffffffffffffffffffffffffffffffff1673ffffffffffffffffffffffffffffffffffffffff166370a08231336040518263ffffffff1660e01b815260040161315a9190616047565b60206040518083038186803b15801561317257600080fd5b505afa158015613186573d6000803e3d6000fd5b505050506040513d601f19601f820116820180604052508101906131aa91906157ea565b10156131eb576040517f08c379a00000000000000000000000000000000000000000000000000000000081526004016131e29061648b565b60405180910390fd5b600d60009054906101000a900473ffffffffffffffffffffffffffffffffffffffff1673ffffffffffffffffffffffffffffffffffffffff166323b872dd3330866040518463ffffffff1660e01b815260040161324a93929190616062565b602060405180830381600087803b15801561326457600080fd5b505af1158015613278573d6000803e3d6000fd5b505050506040513d601f19601f8201168201806040525081019061329c9190615736565b508260118363ffffffff1661271081106132b9576132b8616d6f565b5b6007020160010160008282546132cf9190616974565b925050819055505b5b603c426132e59190616974565b60118363ffffffff166127108110613300576132ff616d6f565b5b6007020160030181905550505050565b6000600660009054906101000a900473ffffffffffffffffffffffffffffffffffffffff16905090565b6000805b601060003373ffffffffffffffffffffffffffffffffffffffff1673ffffffffffffffffffffffffffffffffffffffff1681526020019081526020016000208054905081101561375d576000601060003373ffffffffffffffffffffffffffffffffffffffff1673ffffffffffffffffffffffffffffffffffffffff16815260200190815260200160002082815481106133db576133da616d6f565b5b9060005260206000209060030201604051806060016040529081600082015481526020016001820160009054906101000a900460ff1660ff1660ff16815260200160028201548152505090504281604001511015613749576000816020015160ff16141561357a576000600660159054906101000a900460ff1660ff1682600001516134679190616a01565b90506134768260000151614b3d565b600c60009054906101000a900473ffffffffffffffffffffffffffffffffffffffff1673ffffffffffffffffffffffffffffffffffffffff1663a9059cbb33836040518363ffffffff1660e01b81526004016134d39291906161b7565b602060405180830381600087803b1580156134ed57600080fd5b505af1158015613501573d6000803e3d6000fd5b505050506040513d601f19601f820116820180604052508101906135259190615736565b503373ffffffffffffffffffffffffffffffffffffffff167f9fd4a9248425079a398923cd20daa8e0c103907fb89db4707cb4f2cc343f95468260405161356c9190616746565b60405180910390a2506136be565b6001816020015160ff1614156136bd576000600660169054906101000a900460ff1660ff1682600001516135ae9190616a01565b90506135bd8260000151614b3d565b600d60009054906101000a900473ffffffffffffffffffffffffffffffffffffffff1673ffffffffffffffffffffffffffffffffffffffff1663a9059cbb33836040518363ffffffff1660e01b815260040161361a9291906161b7565b602060405180830381600087803b15801561363457600080fd5b505af1158015613648573d6000803e3d6000fd5b505050506040513d601f19601f8201168201806040525081019061366c9190615736565b503373ffffffffffffffffffffffffffffffffffffffff167fd62aeb2df4f1c7a0c59e15c0dca22ccbcbe42ad0d0dbf99a22c0ad2551c5a155826040516136b39190616746565b60405180910390a2505b5b601060003373ffffffffffffffffffffffffffffffffffffffff1673ffffffffffffffffffffffffffffffffffffffff168152602001908152602001600020828154811061370f5761370e616d6f565b5b90600052602060002090600302016000808201600090556001820160006101000a81549060ff021916905560028201600090555050600192505b50808061375590616c5e565b91505061333e565b5090565b600b60009054906101000a900473ffffffffffffffffffffffffffffffffffffffff1681565b60606001805461379690616bfb565b80601f01602080910402602001604051908101604052809291908181526020018280546137c290616bfb565b801561380f5780601f106137e45761010080835404028352916020019161380f565b820191906000526020600020905b8154815290600101906020018083116137f257829003601f168201915b5050505050905090565b613821614333565b73ffffffffffffffffffffffffffffffffffffffff168273ffffffffffffffffffffffffffffffffffffffff16141561388f576040517f08c379a0000000000000000000000000000000000000000000000000000000008152600401613886906163eb565b60405180910390fd5b806005600061389c614333565b73ffffffffffffffffffffffffffffffffffffffff1673ffffffffffffffffffffffffffffffffffffffff16815260200190815260200160002060008473ffffffffffffffffffffffffffffffffffffffff1673ffffffffffffffffffffffffffffffffffffffff16815260200190815260200160002060006101000a81548160ff0219169083151502179055508173ffffffffffffffffffffffffffffffffffffffff16613949614333565b73ffffffffffffffffffffffffffffffffffffffff167f17307eab39ab6107e8899845ad3d59bd9653f200f220920489ca2b5937696c318360405161398e919061621d565b60405180910390a35050565b6139ab6139a5614333565b83614709565b6139ea576040517f08c379a00000000000000000000000000000000000000000000000000000000081526004016139e19061664b565b60405180910390fd5b6139f684848484614c7a565b50505050565b60075481565b600080613a0e83611f49565b9050613a1981611e4c565b915050919050565b60606201118360008373ffffffffffffffffffffffffffffffffffffffff1673ffffffffffffffffffffffffffffffffffffffff168152602001908152602001600020805480602002602001604051908101604052809291908181526020018280548015613aae57602002820191906000526020600020905b815481526020019060010190808311613a9a575b50505050509050919050565b600660159054906101000a900460ff1681565b6060613ad8826145e4565b613b17576040517f08c379a0000000000000000000000000000000000000000000000000000000008152600401613b0e9061652b565b60405180910390fd5b6040518060600160405280602581526020016178b560259139613b3983614cd6565b604051602001613b4a929190615ff7565b6040516020818303038152906040529050919050565b600660169054906101000a900460ff1681565b60006201118254905090565b600047905090565b606060006201118360008473ffffffffffffffffffffffffffffffffffffffff1673ffffffffffffffffffffffffffffffffffffffff168152602001908152602001600020805480602002602001604051908101604052809291908181526020018280548015613c1657602002820191906000526020600020905b815481526020019060010190808311613c02575b505050505090506000815167ffffffffffffffff811115613c3a57613c39616d9e565b5b604051908082528060200260200182016040528015613c685781602001602082028036833780820191505090505b5090506000825114613ce45760005b8251811015613ce257620111816000848381518110613c9957613c98616d6f565b5b6020026020010151815260200190815260200160002054828281518110613cc357613cc2616d6f565b5b6020026020010181815250508080613cda90616c5e565b915050613c77565b505b8092505050919050565b603c81565b6000600560008473ffffffffffffffffffffffffffffffffffffffff1673ffffffffffffffffffffffffffffffffffffffff16815260200190815260200160002060008373ffffffffffffffffffffffffffffffffffffffff1673ffffffffffffffffffffffffffffffffffffffff16815260200190815260200160002060009054906101000a900460ff16905092915050565b60085481565b620111836020528160005260406000208181548110613dab57600080fd5b90600052602060002001600091509150505481565b6000613dca614333565b73ffffffffffffffffffffffffffffffffffffffff16613de8613310565b73ffffffffffffffffffffffffffffffffffffffff1614613e3e576040517f08c379a0000000000000000000000000000000000000000000000000000000008152600401613e359061658b565b60405180910390fd5b61271061ffff16620111825410613e8a576040517f08c379a0000000000000000000000000000000000000000000000000000000008152600401613e81906166eb565b60405180910390fd5b600060016201118254613e9d9190616974565b9050613ea98382614e5f565b6201118360008473ffffffffffffffffffffffffffffffffffffffff1673ffffffffffffffffffffffffffffffffffffffff16815260200190815260200160002081908060018154018082558091505060019003906000526020600020016000909190919091505580620111816000838152602001908152602001600020819055506000806000613f3984614e7d565b9250925092506040518060e001604052806000815260200160008152602001603c42613f659190616974565b8152602001603c42613f779190616974565b8152602001848152602001838152602001828152506011856127108110613fa157613fa0616d6f565b5b60070201600082015181600001556020820151816001015560408201518160020155606082015181600301556080820151816004015560a0820151816005015560c0820151816006015590505062011182600081548092919061400390616c5e565b919050555083945050505050919050565b61401c614333565b73ffffffffffffffffffffffffffffffffffffffff1661403a613310565b73ffffffffffffffffffffffffffffffffffffffff1614614090576040517f08c379a00000000000000000000000000000000000000000000000000000000081526004016140879061658b565b60405180910390fd5b600073ffffffffffffffffffffffffffffffffffffffff168173ffffffffffffffffffffffffffffffffffffffff161415614100576040517f08c379a00000000000000000000000000000000000000000000000000000000081526004016140f79061634b565b60405180910390fd5b61410981614a77565b50565b620111816020528060005260406000206000915090505481565b61412e615424565b6000806000805b601060003373ffffffffffffffffffffffffffffffffffffffff1673ffffffffffffffffffffffffffffffffffffffff1681526020019081526020016000208054905081101561429f576000601060003373ffffffffffffffffffffffffffffffffffffffff1673ffffffffffffffffffffffffffffffffffffffff16815260200190815260200160002082815481106141d2576141d1616d6f565b5b9060005260206000209060030201604051806060016040529081600082015481526020016001820160009054906101000a900460ff1660ff1660ff1681526020016002820154815250509050600081604001511415614231575061428c565b828061423c90616c5e565b9350506000816020015160ff1614156142665780600001518561425f9190616974565b945061428a565b6001816020015160ff161415614289578060000151846142869190616974565b93505b5b505b808061429790616c5e565b915050614135565b50600060405180606001604052808581526020018481526020018381525090508094505050505090565b60007f01ffc9a7000000000000000000000000000000000000000000000000000000007bffffffffffffffffffffffffffffffffffffffffffffffffffffffff1916827bffffffffffffffffffffffffffffffffffffffffffffffffffffffff1916149050919050565b600033905090565b600080606444620111845460405160200161435792919061601b565b6040516020818303038152906040528051906020012060001c61437a9190616cb1565b905080620111845461438c9190616974565b62011184819055508091505090565b60008082846143aa9190616a01565b915081836143b89190616a32565b846143c39190616a8c565b90509250929050565b80608001516011826020015161271081106143ea576143e9616d6f565b5b6007020160000160008282546144009190616a8c565b92505081905550600060118260200151612710811061442257614421616d6f565b5b60070201600001541161446a576040517f08c379a0000000000000000000000000000000000000000000000000000000008152600401614461906166cb565b60405180910390fd5b8060a0015160118260400151612710811061448857614487616d6f565b5b60070201600101600082825461449e9190616a8c565b9250508190555060006011826040015161271081106144c0576144bf616d6f565b5b600702016001015411614508576040517f08c379a00000000000000000000000000000000000000000000000000000000081526004016144ff906162cb565b60405180910390fd5b8060000151156145e157600062011181600083604001518152602001908152602001600020549050620111816000836020015181526020019081526020016000205462011181600084604001518152602001908152602001600020819055508062011181600084602001518152602001908152602001600020819055507f613181c93c2a39a642abf3636c19505e28200a1a2e1ab682c50373f15308df623383606001518362011181600087602001518152602001908152602001600020546040516145d794939291906160e5565b60405180910390a1505b50565b60008073ffffffffffffffffffffffffffffffffffffffff166002600084815260200190815260200160002060009054906101000a900473ffffffffffffffffffffffffffffffffffffffff1673ffffffffffffffffffffffffffffffffffffffff1614159050919050565b816004600083815260200190815260200160002060006101000a81548173ffffffffffffffffffffffffffffffffffffffff021916908373ffffffffffffffffffffffffffffffffffffffff160217905550808273ffffffffffffffffffffffffffffffffffffffff166146c383612941565b73ffffffffffffffffffffffffffffffffffffffff167f8c5be1e5ebec7d5bd14f71427d1e84f3dd0314c0f7b2291e5b200ac8c7c3b92560405160405180910390a45050565b6000614714826145e4565b614753576040517f08c379a000000000000000000000000000000000000000000000000000000000815260040161474a9061644b565b60405180910390fd5b600061475e83612941565b90508073ffffffffffffffffffffffffffffffffffffffff168473ffffffffffffffffffffffffffffffffffffffff1614806147cd57508373ffffffffffffffffffffffffffffffffffffffff166147b5846119ee565b73ffffffffffffffffffffffffffffffffffffffff16145b806147de57506147dd8185613cf3565b5b91505092915050565b8273ffffffffffffffffffffffffffffffffffffffff1661480782612941565b73ffffffffffffffffffffffffffffffffffffffff161461485d576040517f08c379a0000000000000000000000000000000000000000000000000000000008152600401614854906165cb565b60405180910390fd5b600073ffffffffffffffffffffffffffffffffffffffff168273ffffffffffffffffffffffffffffffffffffffff1614156148cd576040517f08c379a00000000000000000000000000000000000000000000000000000000081526004016148c4906163cb565b60405180910390fd5b6148d883838361504c565b6148e3600082614650565b6001600360008573ffffffffffffffffffffffffffffffffffffffff1673ffffffffffffffffffffffffffffffffffffffff16815260200190815260200160002060008282546149339190616a8c565b925050819055506001600360008473ffffffffffffffffffffffffffffffffffffffff1673ffffffffffffffffffffffffffffffffffffffff168152602001908152602001600020600082825461498a9190616974565b92505081905550816002600083815260200190815260200160002060006101000a81548173ffffffffffffffffffffffffffffffffffffffff021916908373ffffffffffffffffffffffffffffffffffffffff160217905550808273ffffffffffffffffffffffffffffffffffffffff168473ffffffffffffffffffffffffffffffffffffffff167fddf252ad1be2c89b69c2b068fc378daa952ba7f163c4a11628f55a4df523b3ef60405160405180910390a4505050565b6000600282614a529190616a32565b9050919050565b60006001614a6683614a43565b614a709190616974565b9050919050565b6000600660009054906101000a900473ffffffffffffffffffffffffffffffffffffffff16905081600660006101000a81548173ffffffffffffffffffffffffffffffffffffffff021916908373ffffffffffffffffffffffffffffffffffffffff1602179055508173ffffffffffffffffffffffffffffffffffffffff168173ffffffffffffffffffffffffffffffffffffffff167f8be0079c531659141344cd1fd0a4f28419497f9722a3daafe3b4186f6b6457e060405160405180910390a35050565b60006064600660179054906101000a900460ff1660ff1683614b5f9190616a32565b614b699190616a01565b82614b749190616a8c565b9050600b60009054906101000a900473ffffffffffffffffffffffffffffffffffffffff1673ffffffffffffffffffffffffffffffffffffffff1663a9059cbb33836040518363ffffffff1660e01b8152600401614bd39291906161b7565b602060405180830381600087803b158015614bed57600080fd5b505af1158015614c01573d6000803e3d6000fd5b505050506040513d601f19601f82011682018060405250810190614c259190615736565b503373ffffffffffffffffffffffffffffffffffffffff167f11acec8ea502f5c875e157dd1a17389990a9350450464db61ef112521c0d87518284604051614c6e929190616761565b60405180910390a25050565b614c858484846147e7565b614c9184848484615051565b614cd0576040517f08c379a0000000000000000000000000000000000000000000000000000000008152600401614cc79061630b565b60405180910390fd5b50505050565b60606000821415614d1e576040518060400160405280600181526020017f30000000000000000000000000000000000000000000000000000000000000008152509050614e5a565b600082905060005b60008214614d50578080614d3990616c5e565b915050600a82614d499190616a01565b9150614d26565b60008167ffffffffffffffff811115614d6c57614d6b616d9e565b5b6040519080825280601f01601f191660200182016040528015614d9e5781602001600182028036833780820191505090505b50905060008290505b60008614614e5257600181614dbc9190616a8c565b90506000600a8088614dce9190616a01565b614dd89190616a32565b87614de39190616a8c565b6030614def91906169ca565b905060008160f81b905080848481518110614e0d57614e0c616d6f565b5b60200101907effffffffffffffffffffffffffffffffffffffffffffffffffffffffffffff1916908160001a905350600a88614e499190616a01565b97505050614da7565b819450505050505b919050565b614e798282604051806020016040528060008152506151e8565b5050565b600080600080606461013a86614e939190616974565b614e9d9190616cb1565b905060006064604887614eb09190616974565b614eba9190616cb1565b90506000606461998288614ece9190616974565b614ed89190616cb1565b9050600a9550600a9450600a9350605f8310614f1957605f83614efb9190616a8c565b6006614f079190616a32565b86614f129190616974565b9550614f73565b60508310614f405760508387614f2f9190616974565b614f399190616a8c565b9550614f72565b82601411158015614f515750601e83105b15614f7157600f8387614f649190616974565b614f6e9190616a8c565b95505b5b5b605f8210614fa657605f82614f889190616a8c565b6006614f949190616a32565b85614f9f9190616974565b9450615000565b60508310614fcd5760508286614fbc9190616974565b614fc69190616a8c565b9450614fff565b81600a11158015614fde5750601e82105b15614ffe5760058286614ff19190616974565b614ffb9190616a8c565b94505b5b5b6050811061502757605081856150169190616974565b6150209190616a8c565b9350615042565b600a816150349190616a01565b8461503f9190616974565b93505b5050509193909250565b505050565b60006150728473ffffffffffffffffffffffffffffffffffffffff16615243565b156151db578373ffffffffffffffffffffffffffffffffffffffff1663150b7a0261509b614333565b8786866040518563ffffffff1660e01b81526004016150bd9493929190616099565b602060405180830381600087803b1580156150d757600080fd5b505af192505050801561510857506040513d601f19601f820116820180604052508101906151059190615790565b60015b61518b573d8060008114615138576040519150601f19603f3d011682016040523d82523d6000602084013e61513d565b606091505b50600081511415615183576040517f08c379a000000000000000000000000000000000000000000000000000000000815260040161517a9061630b565b60405180910390fd5b805181602001fd5b63150b7a0260e01b7bffffffffffffffffffffffffffffffffffffffffffffffffffffffff1916817bffffffffffffffffffffffffffffffffffffffffffffffffffffffff1916149150506151e0565b600190505b949350505050565b6151f28383615256565b6151ff6000848484615051565b61523e576040517f08c379a00000000000000000000000000000000000000000000000000000000081526004016152359061630b565b60405180910390fd5b505050565b600080823b905060008111915050919050565b600073ffffffffffffffffffffffffffffffffffffffff168273ffffffffffffffffffffffffffffffffffffffff1614156152c6576040517f08c379a00000000000000000000000000000000000000000000000000000000081526004016152bd9061650b565b60405180910390fd5b6152cf816145e4565b1561530f576040517f08c379a00000000000000000000000000000000000000000000000000000000081526004016153069061638b565b60405180910390fd5b61531b6000838361504c565b6001600360008473ffffffffffffffffffffffffffffffffffffffff1673ffffffffffffffffffffffffffffffffffffffff168152602001908152602001600020600082825461536b9190616974565b92505081905550816002600083815260200190815260200160002060006101000a81548173ffffffffffffffffffffffffffffffffffffffff021916908373ffffffffffffffffffffffffffffffffffffffff160217905550808273ffffffffffffffffffffffffffffffffffffffff16600073ffffffffffffffffffffffffffffffffffffffff167fddf252ad1be2c89b69c2b068fc378daa952ba7f163c4a11628f55a4df523b3ef60405160405180910390a45050565b6040518060600160405280600390602082028036833780820191505090505090565b60006154596154548461689a565b616875565b90508281526020810184848401111561547557615474616dd2565b5b615480848285616bb9565b509392505050565b6000813590506154978161782a565b92915050565b6000813590506154ac81617841565b92915050565b6000815190506154c181617841565b92915050565b6000813590506154d681617858565b92915050565b6000815190506154eb81617858565b92915050565b600082601f83011261550657615505616dcd565b5b8135615516848260208601615446565b91505092915050565b60008135905061552e8161786f565b92915050565b6000815190506155438161786f565b92915050565b60008135905061555881617886565b92915050565b60008135905061556d8161789d565b92915050565b60006020828403121561558957615588616ddc565b5b600061559784828501615488565b91505092915050565b600080604083850312156155b7576155b6616ddc565b5b60006155c585828601615488565b92505060206155d685828601615488565b9150509250929050565b6000806000606084860312156155f9576155f8616ddc565b5b600061560786828701615488565b935050602061561886828701615488565b92505060406156298682870161551f565b9150509250925092565b6000806000806080858703121561564d5761564c616ddc565b5b600061565b87828801615488565b945050602061566c87828801615488565b935050604061567d8782880161551f565b925050606085013567ffffffffffffffff81111561569e5761569d616dd7565b5b6156aa878288016154f1565b91505092959194509250565b600080604083850312156156cd576156cc616ddc565b5b60006156db85828601615488565b92505060206156ec8582860161549d565b9150509250929050565b6000806040838503121561570d5761570c616ddc565b5b600061571b85828601615488565b925050602061572c8582860161551f565b9150509250929050565b60006020828403121561574c5761574b616ddc565b5b600061575a848285016154b2565b91505092915050565b60006020828403121561577957615778616ddc565b5b6000615787848285016154c7565b91505092915050565b6000602082840312156157a6576157a5616ddc565b5b60006157b4848285016154dc565b91505092915050565b6000602082840312156157d3576157d2616ddc565b5b60006157e18482850161551f565b91505092915050565b600060208284031215615800576157ff616ddc565b5b600061580e84828501615534565b91505092915050565b6000806000606084860312156158305761582f616ddc565b5b600061583e8682870161551f565b935050602061584f86828701615549565b92505060406158608682870161551f565b9150509250925092565b60008060006060848603121561588357615882616ddc565b5b60006158918682870161551f565b93505060206158a286828701615549565b92505060406158b38682870161555e565b9150509250925092565b600080604083850312156158d4576158d3616ddc565b5b60006158e28582860161551f565b92505060206158f38582860161555e565b9150509250929050565b60006159098383615fb3565b60208301905092915050565b61591e81616ac0565b82525050565b61592d816168e5565b615937818461692b565b9250615942826168cb565b8060005b8381101561597357815161595a87826158fd565b965061596583616911565b925050600181019050615946565b505050505050565b6000615986826168f0565b6159908185616936565b935061599b836168d5565b8060005b838110156159cc5781516159b388826158fd565b97506159be8361691e565b92505060018101905061599f565b5085935050505092915050565b6159e281616ad2565b82525050565b60006159f3826168fb565b6159fd8185616947565b9350615a0d818560208601616bc8565b615a1681616de1565b840191505092915050565b615a2a81616b5f565b82525050565b615a3981616b71565b82525050565b615a4881616b83565b82525050565b6000615a5982616906565b615a638185616958565b9350615a73818560208601616bc8565b615a7c81616de1565b840191505092915050565b6000615a9282616906565b615a9c8185616969565b9350615aac818560208601616bc8565b80840191505092915050565b6000615ac5601e83616958565b9150615ad082616df2565b602082019050919050565b6000615ae8602383616958565b9150615af382616e1b565b604082019050919050565b6000615b0b603283616958565b9150615b1682616e6a565b604082019050919050565b6000615b2e603283616958565b9150615b3982616eb9565b604082019050919050565b6000615b51601983616958565b9150615b5c82616f08565b602082019050919050565b6000615b74602683616958565b9150615b7f82616f31565b604082019050919050565b6000615b97603083616958565b9150615ba282616f80565b604082019050919050565b6000615bba601c83616958565b9150615bc582616fcf565b602082019050919050565b6000615bdd603283616958565b9150615be882616ff8565b604082019050919050565b6000615c00602483616958565b9150615c0b82617047565b604082019050919050565b6000615c23601983616958565b9150615c2e82617096565b602082019050919050565b6000615c46602f83616958565b9150615c51826170bf565b604082019050919050565b6000615c69602583616958565b9150615c748261710e565b604082019050919050565b6000615c8c602c83616958565b9150615c978261715d565b604082019050919050565b6000615caf603283616958565b9150615cba826171ac565b604082019050919050565b6000615cd2602783616958565b9150615cdd826171fb565b604082019050919050565b6000615cf5603883616958565b9150615d008261724a565b604082019050919050565b6000615d18602a83616958565b9150615d2382617299565b604082019050919050565b6000615d3b602983616958565b9150615d46826172e8565b604082019050919050565b6000615d5e602083616958565b9150615d6982617337565b602082019050919050565b6000615d81603183616958565b9150615d8c82617360565b604082019050919050565b6000615da4602c83616958565b9150615daf826173af565b604082019050919050565b6000615dc7603283616958565b9150615dd2826173fe565b604082019050919050565b6000615dea602083616958565b9150615df58261744d565b602082019050919050565b6000615e0d603683616958565b9150615e1882617476565b604082019050919050565b6000615e30602983616958565b9150615e3b826174c5565b604082019050919050565b6000615e53604683616958565b9150615e5e82617514565b606082019050919050565b6000615e76601683616958565b9150615e8182617589565b602082019050919050565b6000615e99602183616958565b9150615ea4826175b2565b604082019050919050565b6000615ebc603183616958565b9150615ec782617601565b604082019050919050565b6000615edf603483616958565b9150615eea82617650565b604082019050919050565b6000615f02602283616958565b9150615f0d8261769f565b604082019050919050565b6000615f25602f83616958565b9150615f30826176ee565b604082019050919050565b6000615f48602283616958565b9150615f538261773d565b604082019050919050565b6000615f6b602183616958565b9150615f768261778c565b604082019050919050565b6000615f8e602683616958565b9150615f99826177db565b604082019050919050565b615fad81616b0a565b82525050565b615fbc81616b38565b82525050565b615fcb81616b38565b82525050565b615fe2615fdd82616b38565b616ca7565b82525050565b615ff181616b52565b82525050565b60006160038285615a87565b915061600f8284615a87565b91508190509392505050565b60006160278285615fd1565b6020820191506160378284615fd1565b6020820191508190509392505050565b600060208201905061605c6000830184615915565b92915050565b60006060820190506160776000830186615915565b6160846020830185615915565b6160916040830184615fc2565b949350505050565b60006080820190506160ae6000830187615915565b6160bb6020830186615915565b6160c86040830185615fc2565b81810360608301526160da81846159e8565b905095945050505050565b60006080820190506160fa6000830187615915565b6161076020830186615915565b6161146040830185615fc2565b6161216060830184615fc2565b95945050505050565b600061012082019050616140600083018c615915565b61614d602083018b615915565b61615a604083018a615fc2565b6161676060830189615fc2565b6161746080830188615fc2565b61618160a0830187615fc2565b61618e60c0830186615fc2565b61619b60e0830185615fc2565b6161a96101008301846159d9565b9a9950505050505050505050565b60006040820190506161cc6000830185615915565b6161d96020830184615fc2565b9392505050565b60006060820190506161f56000830184615924565b92915050565b60006020820190508181036000830152616215818461597b565b905092915050565b600060208201905061623260008301846159d9565b92915050565b600060208201905061624d6000830184615a21565b92915050565b60006020820190506162686000830184615a30565b92915050565b60006020820190506162836000830184615a3f565b92915050565b600060208201905081810360008301526162a38184615a4e565b905092915050565b600060208201905081810360008301526162c481615ab8565b9050919050565b600060208201905081810360008301526162e481615adb565b9050919050565b6000602082019050818103600083015261630481615afe565b9050919050565b6000602082019050818103600083015261632481615b21565b9050919050565b6000602082019050818103600083015261634481615b44565b9050919050565b6000602082019050818103600083015261636481615b67565b9050919050565b6000602082019050818103600083015261638481615b8a565b9050919050565b600060208201905081810360008301526163a481615bad565b9050919050565b600060208201905081810360008301526163c481615bd0565b9050919050565b600060208201905081810360008301526163e481615bf3565b9050919050565b6000602082019050818103600083015261640481615c16565b9050919050565b6000602082019050818103600083015261642481615c39565b9050919050565b6000602082019050818103600083015261644481615c5c565b9050919050565b6000602082019050818103600083015261646481615c7f565b9050919050565b6000602082019050818103600083015261648481615ca2565b9050919050565b600060208201905081810360008301526164a481615cc5565b9050919050565b600060208201905081810360008301526164c481615ce8565b9050919050565b600060208201905081810360008301526164e481615d0b565b9050919050565b6000602082019050818103600083015261650481615d2e565b9050919050565b6000602082019050818103600083015261652481615d51565b9050919050565b6000602082019050818103600083015261654481615d74565b9050919050565b6000602082019050818103600083015261656481615d97565b9050919050565b6000602082019050818103600083015261658481615dba565b9050919050565b600060208201905081810360008301526165a481615ddd565b9050919050565b600060208201905081810360008301526165c481615e00565b9050919050565b600060208201905081810360008301526165e481615e23565b9050919050565b6000602082019050818103600083015261660481615e46565b9050919050565b6000602082019050818103600083015261662481615e69565b9050919050565b6000602082019050818103600083015261664481615e8c565b9050919050565b6000602082019050818103600083015261666481615eaf565b9050919050565b6000602082019050818103600083015261668481615ed2565b9050919050565b600060208201905081810360008301526166a481615ef5565b9050919050565b600060208201905081810360008301526166c481615f18565b9050919050565b600060208201905081810360008301526166e481615f3b565b9050919050565b6000602082019050818103600083015261670481615f5e565b9050919050565b6000602082019050818103600083015261672481615f81565b9050919050565b60006020820190506167406000830184615fa4565b92915050565b600060208201905061675b6000830184615fc2565b92915050565b60006040820190506167766000830185615fc2565b6167836020830184615fc2565b9392505050565b600060c08201905061679f6000830189615fc2565b6167ac6020830188615fc2565b6167b960408301876159d9565b6167c66060830186615fc2565b6167d36080830185615fc2565b6167e060a0830184615fc2565b979650505050505050565b600060e082019050616800600083018a615fc2565b61680d6020830189615fc2565b61681a6040830188615fc2565b6168276060830187615fc2565b6168346080830186615fc2565b61684160a0830185615fc2565b61684e60c0830184615fc2565b98975050505050505050565b600060208201905061686f6000830184615fe8565b92915050565b600061687f616890565b905061688b8282616c2d565b919050565b6000604051905090565b600067ffffffffffffffff8211156168b5576168b4616d9e565b5b6168be82616de1565b9050602081019050919050565b6000819050919050565b6000819050602082019050919050565b600060039050919050565b600081519050919050565b600081519050919050565b600081519050919050565b6000602082019050919050565b6000602082019050919050565b600081905092915050565b600082825260208201905092915050565b600082825260208201905092915050565b600082825260208201905092915050565b600081905092915050565b600061697f82616b38565b915061698a83616b38565b9250827fffffffffffffffffffffffffffffffffffffffffffffffffffffffffffffffff038211156169bf576169be616ce2565b5b828201905092915050565b60006169d582616b52565b91506169e083616b52565b92508260ff038211156169f6576169f5616ce2565b5b828201905092915050565b6000616a0c82616b38565b9150616a1783616b38565b925082616a2757616a26616d11565b5b828204905092915050565b6000616a3d82616b38565b9150616a4883616b38565b9250817fffffffffffffffffffffffffffffffffffffffffffffffffffffffffffffffff0483118215151615616a8157616a80616ce2565b5b828202905092915050565b6000616a9782616b38565b9150616aa283616b38565b925082821015616ab557616ab4616ce2565b5b828203905092915050565b6000616acb82616b18565b9050919050565b60008115159050919050565b60007fffffffff0000000000000000000000000000000000000000000000000000000082169050919050565b600061ffff82169050919050565b600073ffffffffffffffffffffffffffffffffffffffff82169050919050565b6000819050919050565b600063ffffffff82169050919050565b600060ff82169050919050565b6000616b6a82616b95565b9050919050565b6000616b7c82616b95565b9050919050565b6000616b8e82616b95565b9050919050565b6000616ba082616ba7565b9050919050565b6000616bb282616b18565b9050919050565b82818337600083830152505050565b60005b83811015616be6578082015181840152602081019050616bcb565b83811115616bf5576000848401525b50505050565b60006002820490506001821680616c1357607f821691505b60208210811415616c2757616c26616d40565b5b50919050565b616c3682616de1565b810181811067ffffffffffffffff82111715616c5557616c54616d9e565b5b80604052505050565b6000616c6982616b38565b91507fffffffffffffffffffffffffffffffffffffffffffffffffffffffffffffffff821415616c9c57616c9b616ce2565b5b600182019050919050565b6000819050919050565b6000616cbc82616b38565b9150616cc783616b38565b925082616cd757616cd6616d11565b5b828206905092915050565b7f4e487b7100000000000000000000000000000000000000000000000000000000600052601160045260246000fd5b7f4e487b7100000000000000000000000000000000000000000000000000000000600052601260045260246000fd5b7f4e487b7100000000000000000000000000000000000000000000000000000000600052602260045260246000fd5b7f4e487b7100000000000000000000000000000000000000000000000000000000600052603260045260246000fd5b7f4e487b7100000000000000000000000000000000000000000000000000000000600052604160045260246000fd5b600080fd5b600080fd5b600080fd5b600080fd5b6000601f19601f8301169050919050565b7f626f792c20646f6e27742061747461636b20796f757273656c6620706c7a0000600082015250565b7f75686f682c2074686520646566656e7365706f696e747320617265207a65726f60008201527f2e2e2e0000000000000000000000000000000000000000000000000000000000602082015250565b7f796f7520646f6e2774206861766520656e6f7567682073656564636f696e732160008201527f20627579206f7220747261646520736f6d650000000000000000000000000000602082015250565b7f4552433732313a207472616e7366657220746f206e6f6e20455243373231526560008201527f63656976657220696d706c656d656e7465720000000000000000000000000000602082015250565b7f7469746c652028746f6b656e29206e6f6e6578697374656e7400000000000000600082015250565b7f4f776e61626c653a206e6577206f776e657220697320746865207a65726f206160008201527f6464726573730000000000000000000000000000000000000000000000000000602082015250565b7f796f75206861766520746f2073656e6420736f6d652045544820746f2067657460008201527f204b696e67646f6d53656564636f696e00000000000000000000000000000000602082015250565b7f4552433732313a20746f6b656e20616c7265616479206d696e74656400000000600082015250565b7f6f7468657220636f696e207479706573206e6f7420737570706f72746564207960008201527f65742c206d7573742062652030206f7220310000000000000000000000000000602082015250565b7f4552433732313a207472616e7366657220746f20746865207a65726f2061646460008201527f7265737300000000000000000000000000000000000000000000000000000000602082015250565b7f4552433732313a20617070726f766520746f2063616c6c657200000000000000600082015250565b7f796f75206e65656420746f207769746864726177206120706f7369746976652060008201527f616d6f756e74206f6620636f696e730000000000000000000000000000000000602082015250565b7f7469746c65206964206e6f74207965742061737369676e65642c20676f20676560008201527f74206f6e65000000000000000000000000000000000000000000000000000000602082015250565b7f4552433732313a206f70657261746f7220717565727920666f72206e6f6e657860008201527f697374656e7420746f6b656e0000000000000000000000000000000000000000602082015250565b7f746172676574436f696e2068617320746f20626520303d61747461636b636f6960008201527f6e206f7220313d646566656e7365636f696e0000000000000000000000000000602082015250565b7f796f7520646f206e6f7420686176652074686174206d616e7920646566656e7360008201527f6520636f696e7300000000000000000000000000000000000000000000000000602082015250565b7f4552433732313a20617070726f76652063616c6c6572206973206e6f74206f7760008201527f6e6572206e6f7220617070726f76656420666f7220616c6c0000000000000000602082015250565b7f4552433732313a2062616c616e636520717565727920666f7220746865207a6560008201527f726f206164647265737300000000000000000000000000000000000000000000602082015250565b7f4552433732313a206f776e657220717565727920666f72206e6f6e657869737460008201527f656e7420746f6b656e0000000000000000000000000000000000000000000000602082015250565b7f4552433732313a206d696e7420746f20746865207a65726f2061646472657373600082015250565b7f45524337323155524953746f726167653a2055524920717565727920666f722060008201527f6e6f6e6578697374656e7420746f6b656e000000000000000000000000000000602082015250565b7f4552433732313a20617070726f76656420717565727920666f72206e6f6e657860008201527f697374656e7420746f6b656e0000000000000000000000000000000000000000602082015250565b7f746f2075736520746869732066756e6374696f6e20796f75206e65656420612060008201527f7469746c652120676f20627579206f6e65210000000000000000000000000000602082015250565b7f4f776e61626c653a2063616c6c6572206973206e6f7420746865206f776e6572600082015250565b7f72657665727365206974656d2066756e6374696f6e2e2e2e206974656d206e6f60008201527f7420666f756e6420696e20616464726573733269647300000000000000000000602082015250565b7f4552433732313a207472616e73666572206f6620746f6b656e2074686174206960008201527f73206e6f74206f776e0000000000000000000000000000000000000000000000602082015250565b7f796f752063616e206e6f74207769746864726177204d696c697461727920667260008201527f6f6d2061207469746c65207468617420646f6573206e6f742062656c6f6e672060208201527f746f20796f750000000000000000000000000000000000000000000000000000604082015250565b7f6964206973206e6f74207965742061737369676e656400000000000000000000600082015250565b7f4552433732313a20617070726f76616c20746f2063757272656e74206f776e6560008201527f7200000000000000000000000000000000000000000000000000000000000000602082015250565b7f4552433732313a207472616e736665722063616c6c6572206973206e6f74206f60008201527f776e6572206e6f7220617070726f766564000000000000000000000000000000602082015250565b7f736f7272792c206f6e6c7920746865206f776e6572206f662061207469746c6560008201527f2063616e2061747461636b2068697320626f7373000000000000000000000000602082015250565b7f796f75206e65656420746f2061737369676e206174206c65617374203120636f60008201527f696e000000000000000000000000000000000000000000000000000000000000602082015250565b7f75686f682c2073727920692063616e27742073656e6420616e79206d6f72652060008201527f4b696e67646f6d53656564636f696e0000000000000000000000000000000000602082015250565b7f75686f682c207468652061747461636b706f696e747320617265207a65726f2e60008201527f2e2e000000000000000000000000000000000000000000000000000000000000602082015250565b7f75686f682c206e6f207469746c657320617661696c61626c6520616e796d6f7260008201527f6500000000000000000000000000000000000000000000000000000000000000602082015250565b7f796f7520646f206e6f7420686176652074686174206d616e792061747461636b60008201527f20636f696e730000000000000000000000000000000000000000000000000000602082015250565b61783381616ac0565b811461783e57600080fd5b50565b61784a81616ad2565b811461785557600080fd5b50565b61786181616ade565b811461786c57600080fd5b50565b61787881616b38565b811461788357600080fd5b50565b61788f81616b42565b811461789a57600080fd5b50565b6178a681616b52565b81146178b157600080fd5b5056fe68747470733a2f2f7777772e6b696e67646f6d63727970746f2e636f6d2f7469746c65732fa264697066735822122068c85e959fd75656f355dee8830e13644eebd39487b922babf6c3bceaeb4812f64736f6c63430008070033",
			"opcodes": "PUSH1 0x80 PUSH1 0x40 MSTORE PUSH1 0xA PUSH1 0x6 PUSH1 0x14 PUSH2 0x100 EXP DUP2 SLOAD DUP2 PUSH1 0xFF MUL NOT AND SWAP1 DUP4 PUSH1 0xFF AND MUL OR SWAP1 SSTORE POP PUSH1 0xA PUSH1 0x6 PUSH1 0x15 PUSH2 0x100 EXP DUP2 SLOAD DUP2 PUSH1 0xFF MUL NOT AND SWAP1 DUP4 PUSH1 0xFF AND MUL OR SWAP1 SSTORE POP PUSH1 0x8 PUSH1 0x6 PUSH1 0x16 PUSH2 0x100 EXP DUP2 SLOAD DUP2 PUSH1 0xFF MUL NOT AND SWAP1 DUP4 PUSH1 0xFF AND MUL OR SWAP1 SSTORE POP PUSH1 0xA PUSH1 0x6 PUSH1 0x17 PUSH2 0x100 EXP DUP2 SLOAD DUP2 PUSH1 0xFF MUL NOT AND SWAP1 DUP4 PUSH1 0xFF AND MUL OR SWAP1 SSTORE POP PUSH1 0x3C PUSH1 0x7 SSTORE PUSH1 0x0 PUSH1 0x8 SSTORE PUSH1 0x0 PUSH1 0x9 SSTORE PUSH1 0x0 PUSH1 0xA SSTORE CALLVALUE DUP1 ISZERO PUSH3 0x95 JUMPI PUSH1 0x0 DUP1 REVERT JUMPDEST POP PUSH1 0x40 MLOAD PUSH3 0x7ECC CODESIZE SUB DUP1 PUSH3 0x7ECC DUP4 CODECOPY DUP2 DUP2 ADD PUSH1 0x40 MSTORE DUP2 ADD SWAP1 PUSH3 0xBB SWAP2 SWAP1 PUSH3 0x429 JUMP JUMPDEST DUP3 DUP3 DUP3 DUP3 DUP3 DUP3 PUSH1 0x40 MLOAD DUP1 PUSH1 0x40 ADD PUSH1 0x40 MSTORE DUP1 PUSH1 0xE DUP2 MSTORE PUSH1 0x20 ADD PUSH32 0x4B696E67646F6D205469746C6573000000000000000000000000000000000000 DUP2 MSTORE POP PUSH1 0x40 MLOAD DUP1 PUSH1 0x40 ADD PUSH1 0x40 MSTORE DUP1 PUSH1 0x3 DUP2 MSTORE PUSH1 0x20 ADD PUSH32 0x4B47440000000000000000000000000000000000000000000000000000000000 DUP2 MSTORE POP DUP2 PUSH1 0x0 SWAP1 DUP1 MLOAD SWAP1 PUSH1 0x20 ADD SWAP1 PUSH3 0x145 SWAP3 SWAP2 SWAP1 PUSH3 0x334 JUMP JUMPDEST POP DUP1 PUSH1 0x1 SWAP1 DUP1 MLOAD SWAP1 PUSH1 0x20 ADD SWAP1 PUSH3 0x15E SWAP3 SWAP2 SWAP1 PUSH3 0x334 JUMP JUMPDEST POP POP POP PUSH3 0x181 PUSH3 0x175 PUSH3 0x266 PUSH1 0x20 SHL PUSH1 0x20 SHR JUMP JUMPDEST PUSH3 0x26E PUSH1 0x20 SHL PUSH1 0x20 SHR JUMP JUMPDEST DUP3 PUSH1 0xB PUSH1 0x0 PUSH2 0x100 EXP DUP2 SLOAD DUP2 PUSH20 0xFFFFFFFFFFFFFFFFFFFFFFFFFFFFFFFFFFFFFFFF MUL NOT AND SWAP1 DUP4 PUSH20 0xFFFFFFFFFFFFFFFFFFFFFFFFFFFFFFFFFFFFFFFF AND MUL OR SWAP1 SSTORE POP DUP2 PUSH1 0xC PUSH1 0x0 PUSH2 0x100 EXP DUP2 SLOAD DUP2 PUSH20 0xFFFFFFFFFFFFFFFFFFFFFFFFFFFFFFFFFFFFFFFF MUL NOT AND SWAP1 DUP4 PUSH20 0xFFFFFFFFFFFFFFFFFFFFFFFFFFFFFFFFFFFFFFFF AND MUL OR SWAP1 SSTORE POP DUP1 PUSH1 0xD PUSH1 0x0 PUSH2 0x100 EXP DUP2 SLOAD DUP2 PUSH20 0xFFFFFFFFFFFFFFFFFFFFFFFFFFFFFFFFFFFFFFFF MUL NOT AND SWAP1 DUP4 PUSH20 0xFFFFFFFFFFFFFFFFFFFFFFFFFFFFFFFFFFFFFFFF AND MUL OR SWAP1 SSTORE POP POP POP POP PUSH1 0x0 PUSH3 0x11182 DUP2 SWAP1 SSTORE POP POP POP POP TIMESTAMP PUSH3 0x11184 DUP2 SWAP1 SSTORE POP POP POP POP PUSH3 0x5AD JUMP JUMPDEST PUSH1 0x0 CALLER SWAP1 POP SWAP1 JUMP JUMPDEST PUSH1 0x0 PUSH1 0x6 PUSH1 0x0 SWAP1 SLOAD SWAP1 PUSH2 0x100 EXP SWAP1 DIV PUSH20 0xFFFFFFFFFFFFFFFFFFFFFFFFFFFFFFFFFFFFFFFF AND SWAP1 POP DUP2 PUSH1 0x6 PUSH1 0x0 PUSH2 0x100 EXP DUP2 SLOAD DUP2 PUSH20 0xFFFFFFFFFFFFFFFFFFFFFFFFFFFFFFFFFFFFFFFF MUL NOT AND SWAP1 DUP4 PUSH20 0xFFFFFFFFFFFFFFFFFFFFFFFFFFFFFFFFFFFFFFFF AND MUL OR SWAP1 SSTORE POP DUP2 PUSH20 0xFFFFFFFFFFFFFFFFFFFFFFFFFFFFFFFFFFFFFFFF AND DUP2 PUSH20 0xFFFFFFFFFFFFFFFFFFFFFFFFFFFFFFFFFFFFFFFF AND PUSH32 0x8BE0079C531659141344CD1FD0A4F28419497F9722A3DAAFE3B4186F6B6457E0 PUSH1 0x40 MLOAD PUSH1 0x40 MLOAD DUP1 SWAP2 SUB SWAP1 LOG3 POP POP JUMP JUMPDEST DUP3 DUP1 SLOAD PUSH3 0x342 SWAP1 PUSH3 0x4F5 JUMP JUMPDEST SWAP1 PUSH1 0x0 MSTORE PUSH1 0x20 PUSH1 0x0 KECCAK256 SWAP1 PUSH1 0x1F ADD PUSH1 0x20 SWAP1 DIV DUP2 ADD SWAP3 DUP3 PUSH3 0x366 JUMPI PUSH1 0x0 DUP6 SSTORE PUSH3 0x3B2 JUMP JUMPDEST DUP3 PUSH1 0x1F LT PUSH3 0x381 JUMPI DUP1 MLOAD PUSH1 0xFF NOT AND DUP4 DUP1 ADD OR DUP6 SSTORE PUSH3 0x3B2 JUMP JUMPDEST DUP3 DUP1 ADD PUSH1 0x1 ADD DUP6 SSTORE DUP3 ISZERO PUSH3 0x3B2 JUMPI SWAP2 DUP3 ADD JUMPDEST DUP3 DUP2 GT ISZERO PUSH3 0x3B1 JUMPI DUP3 MLOAD DUP3 SSTORE SWAP2 PUSH1 0x20 ADD SWAP2 SWAP1 PUSH1 0x1 ADD SWAP1 PUSH3 0x394 JUMP JUMPDEST JUMPDEST POP SWAP1 POP PUSH3 0x3C1 SWAP2 SWAP1 PUSH3 0x3C5 JUMP JUMPDEST POP SWAP1 JUMP JUMPDEST JUMPDEST DUP1 DUP3 GT ISZERO PUSH3 0x3E0 JUMPI PUSH1 0x0 DUP2 PUSH1 0x0 SWAP1 SSTORE POP PUSH1 0x1 ADD PUSH3 0x3C6 JUMP JUMPDEST POP SWAP1 JUMP JUMPDEST PUSH1 0x0 DUP2 MLOAD SWAP1 POP PUSH3 0x3F5 DUP2 PUSH3 0x55F JUMP JUMPDEST SWAP3 SWAP2 POP POP JUMP JUMPDEST PUSH1 0x0 DUP2 MLOAD SWAP1 POP PUSH3 0x40C DUP2 PUSH3 0x579 JUMP JUMPDEST SWAP3 SWAP2 POP POP JUMP JUMPDEST PUSH1 0x0 DUP2 MLOAD SWAP1 POP PUSH3 0x423 DUP2 PUSH3 0x593 JUMP JUMPDEST SWAP3 SWAP2 POP POP JUMP JUMPDEST PUSH1 0x0 DUP1 PUSH1 0x0 PUSH1 0x60 DUP5 DUP7 SUB SLT ISZERO PUSH3 0x445 JUMPI PUSH3 0x444 PUSH3 0x55A JUMP JUMPDEST JUMPDEST PUSH1 0x0 PUSH3 0x455 DUP7 DUP3 DUP8 ADD PUSH3 0x412 JUMP JUMPDEST SWAP4 POP POP PUSH1 0x20 PUSH3 0x468 DUP7 DUP3 DUP8 ADD PUSH3 0x3E4 JUMP JUMPDEST SWAP3 POP POP PUSH1 0x40 PUSH3 0x47B DUP7 DUP3 DUP8 ADD PUSH3 0x3FB JUMP JUMPDEST SWAP2 POP POP SWAP3 POP SWAP3 POP SWAP3 JUMP JUMPDEST PUSH1 0x0 PUSH3 0x492 DUP3 PUSH3 0x4D5 JUMP JUMPDEST SWAP1 POP SWAP2 SWAP1 POP JUMP JUMPDEST PUSH1 0x0 PUSH3 0x4A6 DUP3 PUSH3 0x485 JUMP JUMPDEST SWAP1 POP SWAP2 SWAP1 POP JUMP JUMPDEST PUSH1 0x0 PUSH3 0x4BA DUP3 PUSH3 0x485 JUMP JUMPDEST SWAP1 POP SWAP2 SWAP1 POP JUMP JUMPDEST PUSH1 0x0 PUSH3 0x4CE DUP3 PUSH3 0x485 JUMP JUMPDEST SWAP1 POP SWAP2 SWAP1 POP JUMP JUMPDEST PUSH1 0x0 PUSH20 0xFFFFFFFFFFFFFFFFFFFFFFFFFFFFFFFFFFFFFFFF DUP3 AND SWAP1 POP SWAP2 SWAP1 POP JUMP JUMPDEST PUSH1 0x0 PUSH1 0x2 DUP3 DIV SWAP1 POP PUSH1 0x1 DUP3 AND DUP1 PUSH3 0x50E JUMPI PUSH1 0x7F DUP3 AND SWAP2 POP JUMPDEST PUSH1 0x20 DUP3 LT DUP2 EQ ISZERO PUSH3 0x525 JUMPI PUSH3 0x524 PUSH3 0x52B JUMP JUMPDEST JUMPDEST POP SWAP2 SWAP1 POP JUMP JUMPDEST PUSH32 0x4E487B7100000000000000000000000000000000000000000000000000000000 PUSH1 0x0 MSTORE PUSH1 0x22 PUSH1 0x4 MSTORE PUSH1 0x24 PUSH1 0x0 REVERT JUMPDEST PUSH1 0x0 DUP1 REVERT JUMPDEST PUSH3 0x56A DUP2 PUSH3 0x499 JUMP JUMPDEST DUP2 EQ PUSH3 0x576 JUMPI PUSH1 0x0 DUP1 REVERT JUMPDEST POP JUMP JUMPDEST PUSH3 0x584 DUP2 PUSH3 0x4AD JUMP JUMPDEST DUP2 EQ PUSH3 0x590 JUMPI PUSH1 0x0 DUP1 REVERT JUMPDEST POP JUMP JUMPDEST PUSH3 0x59E DUP2 PUSH3 0x4C1 JUMP JUMPDEST DUP2 EQ PUSH3 0x5AA JUMPI PUSH1 0x0 DUP1 REVERT JUMPDEST POP JUMP JUMPDEST PUSH2 0x790F DUP1 PUSH3 0x5BD PUSH1 0x0 CODECOPY PUSH1 0x0 RETURN INVALID PUSH1 0x80 PUSH1 0x40 MSTORE PUSH1 0x4 CALLDATASIZE LT PUSH2 0x34F JUMPI PUSH1 0x0 CALLDATALOAD PUSH1 0xE0 SHR DUP1 PUSH4 0x7C62539A GT PUSH2 0x1C6 JUMPI DUP1 PUSH4 0xC669B710 GT PUSH2 0xF7 JUMPI DUP1 PUSH4 0xE985E9C5 GT PUSH2 0x95 JUMPI DUP1 PUSH4 0xF2FB2120 GT PUSH2 0x6F JUMPI DUP1 PUSH4 0xF2FB2120 EQ PUSH2 0xCBB JUMPI DUP1 PUSH4 0xF2FDE38B EQ PUSH2 0xCF8 JUMPI DUP1 PUSH4 0xF4FD44F1 EQ PUSH2 0xD21 JUMPI DUP1 PUSH4 0xFA4FACDB EQ PUSH2 0xD5E JUMPI PUSH2 0x34F JUMP JUMPDEST DUP1 PUSH4 0xE985E9C5 EQ PUSH2 0xC16 JUMPI DUP1 PUSH4 0xEB8FD9A3 EQ PUSH2 0xC53 JUMPI DUP1 PUSH4 0xF08B7B73 EQ PUSH2 0xC7E JUMPI PUSH2 0x34F JUMP JUMPDEST DUP1 PUSH4 0xD534D636 GT PUSH2 0xD1 JUMPI DUP1 PUSH4 0xD534D636 EQ PUSH2 0xB65 JUMPI DUP1 PUSH4 0xE046670B EQ PUSH2 0xB90 JUMPI DUP1 PUSH4 0xE10270C6 EQ PUSH2 0xBAE JUMPI DUP1 PUSH4 0xE73961F5 EQ PUSH2 0xBEB JUMPI PUSH2 0x34F JUMP JUMPDEST DUP1 PUSH4 0xC669B710 EQ PUSH2 0xAD2 JUMPI DUP1 PUSH4 0xC87B56DD EQ PUSH2 0xAFD JUMPI DUP1 PUSH4 0xD4637DDB EQ PUSH2 0xB3A JUMPI PUSH2 0x34F JUMP JUMPDEST DUP1 PUSH4 0x900294BE GT PUSH2 0x164 JUMPI DUP1 PUSH4 0xB88D4FDE GT PUSH2 0x13E JUMPI DUP1 PUSH4 0xB88D4FDE EQ PUSH2 0xA04 JUMPI DUP1 PUSH4 0xC03D5B47 EQ PUSH2 0xA2D JUMPI DUP1 PUSH4 0xC3983149 EQ PUSH2 0xA58 JUMPI DUP1 PUSH4 0xC4A3A1FC EQ PUSH2 0xA95 JUMPI PUSH2 0x34F JUMP JUMPDEST DUP1 PUSH4 0x900294BE EQ PUSH2 0x985 JUMPI DUP1 PUSH4 0x95D89B41 EQ PUSH2 0x9B0 JUMPI DUP1 PUSH4 0xA22CB465 EQ PUSH2 0x9DB JUMPI PUSH2 0x34F JUMP JUMPDEST DUP1 PUSH4 0x84505E6A GT PUSH2 0x1A0 JUMPI DUP1 PUSH4 0x84505E6A EQ PUSH2 0x8DB JUMPI DUP1 PUSH4 0x853EAB57 EQ PUSH2 0x906 JUMPI DUP1 PUSH4 0x8DA5CB5B EQ PUSH2 0x92F JUMPI DUP1 PUSH4 0x8ED955B9 EQ PUSH2 0x95A JUMPI PUSH2 0x34F JUMP JUMPDEST DUP1 PUSH4 0x7C62539A EQ PUSH2 0x848 JUMPI DUP1 PUSH4 0x802BEA6E EQ PUSH2 0x873 JUMPI DUP1 PUSH4 0x839B9205 EQ PUSH2 0x8B0 JUMPI PUSH2 0x34F JUMP JUMPDEST DUP1 PUSH4 0x23B872DD GT PUSH2 0x2A0 JUMPI DUP1 PUSH4 0x437ACE21 GT PUSH2 0x23E JUMPI DUP1 PUSH4 0x6352211E GT PUSH2 0x218 JUMPI DUP1 PUSH4 0x6352211E EQ PUSH2 0x78C JUMPI DUP1 PUSH4 0x6A7A2FA3 EQ PUSH2 0x7C9 JUMPI DUP1 PUSH4 0x70A08231 EQ PUSH2 0x7F4 JUMPI DUP1 PUSH4 0x715018A6 EQ PUSH2 0x831 JUMPI PUSH2 0x34F JUMP JUMPDEST DUP1 PUSH4 0x437ACE21 EQ PUSH2 0x6E1 JUMPI DUP1 PUSH4 0x5BCABF04 EQ PUSH2 0x723 JUMPI DUP1 PUSH4 0x5E1BB546 EQ PUSH2 0x74E JUMPI PUSH2 0x34F JUMP JUMPDEST DUP1 PUSH4 0x3BA0B9A9 GT PUSH2 0x27A JUMPI DUP1 PUSH4 0x3BA0B9A9 EQ PUSH2 0x639 JUMPI DUP1 PUSH4 0x411EE0D0 EQ PUSH2 0x664 JUMPI DUP1 PUSH4 0x42842E0E EQ PUSH2 0x68F JUMPI DUP1 PUSH4 0x429C3EDF EQ PUSH2 0x6B8 JUMPI PUSH2 0x34F JUMP JUMPDEST DUP1 PUSH4 0x23B872DD EQ PUSH2 0x596 JUMPI DUP1 PUSH4 0x266C79EF EQ PUSH2 0x5BF JUMPI DUP1 PUSH4 0x2756985C EQ PUSH2 0x5FC JUMPI PUSH2 0x34F JUMP JUMPDEST DUP1 PUSH4 0x81812FC GT PUSH2 0x30D JUMPI DUP1 PUSH4 0x10F7E4ED GT PUSH2 0x2E7 JUMPI DUP1 PUSH4 0x10F7E4ED EQ PUSH2 0x4E1 JUMPI DUP1 PUSH4 0x16807E15 EQ PUSH2 0x4EB JUMPI DUP1 PUSH4 0x18160DDD EQ PUSH2 0x528 JUMPI DUP1 PUSH4 0x1CF95ED6 EQ PUSH2 0x553 JUMPI PUSH2 0x34F JUMP JUMPDEST DUP1 PUSH4 0x81812FC EQ PUSH2 0x450 JUMPI DUP1 PUSH4 0x895BA53 EQ PUSH2 0x48D JUMPI DUP1 PUSH4 0x95EA7B3 EQ PUSH2 0x4B8 JUMPI PUSH2 0x34F JUMP JUMPDEST DUP1 PUSH3 0xA5180 EQ PUSH2 0x354 JUMPI DUP1 PUSH4 0x1FFC9A7 EQ PUSH2 0x37F JUMPI DUP1 PUSH4 0x251B7D2 EQ PUSH2 0x3BC JUMPI DUP1 PUSH4 0x619F932 EQ PUSH2 0x3D3 JUMPI DUP1 PUSH4 0x6FDDE03 EQ PUSH2 0x3FC JUMPI DUP1 PUSH4 0x73077EC EQ PUSH2 0x427 JUMPI JUMPDEST PUSH1 0x0 DUP1 REVERT JUMPDEST CALLVALUE DUP1 ISZERO PUSH2 0x360 JUMPI PUSH1 0x0 DUP1 REVERT JUMPDEST POP PUSH2 0x369 PUSH2 0xD89 JUMP JUMPDEST PUSH1 0x40 MLOAD PUSH2 0x376 SWAP2 SWAP1 PUSH2 0x6746 JUMP JUMPDEST PUSH1 0x40 MLOAD DUP1 SWAP2 SUB SWAP1 RETURN JUMPDEST CALLVALUE DUP1 ISZERO PUSH2 0x38B JUMPI PUSH1 0x0 DUP1 REVERT JUMPDEST POP PUSH2 0x3A6 PUSH1 0x4 DUP1 CALLDATASIZE SUB DUP2 ADD SWAP1 PUSH2 0x3A1 SWAP2 SWAP1 PUSH2 0x5763 JUMP JUMPDEST PUSH2 0xD8F JUMP JUMPDEST PUSH1 0x40 MLOAD PUSH2 0x3B3 SWAP2 SWAP1 PUSH2 0x621D JUMP JUMPDEST PUSH1 0x40 MLOAD DUP1 SWAP2 SUB SWAP1 RETURN JUMPDEST CALLVALUE DUP1 ISZERO PUSH2 0x3C8 JUMPI PUSH1 0x0 DUP1 REVERT JUMPDEST POP PUSH2 0x3D1 PUSH2 0xE71 JUMP JUMPDEST STOP JUMPDEST CALLVALUE DUP1 ISZERO PUSH2 0x3DF JUMPI PUSH1 0x0 DUP1 REVERT JUMPDEST POP PUSH2 0x3FA PUSH1 0x4 DUP1 CALLDATASIZE SUB DUP2 ADD SWAP1 PUSH2 0x3F5 SWAP2 SWAP1 PUSH2 0x57BD JUMP JUMPDEST PUSH2 0x110C JUMP JUMPDEST STOP JUMPDEST CALLVALUE DUP1 ISZERO PUSH2 0x408 JUMPI PUSH1 0x0 DUP1 REVERT JUMPDEST POP PUSH2 0x411 PUSH2 0x1536 JUMP JUMPDEST PUSH1 0x40 MLOAD PUSH2 0x41E SWAP2 SWAP1 PUSH2 0x6289 JUMP JUMPDEST PUSH1 0x40 MLOAD DUP1 SWAP2 SUB SWAP1 RETURN JUMPDEST CALLVALUE DUP1 ISZERO PUSH2 0x433 JUMPI PUSH1 0x0 DUP1 REVERT JUMPDEST POP PUSH2 0x44E PUSH1 0x4 DUP1 CALLDATASIZE SUB DUP2 ADD SWAP1 PUSH2 0x449 SWAP2 SWAP1 PUSH2 0x586A JUMP JUMPDEST PUSH2 0x15C8 JUMP JUMPDEST STOP JUMPDEST CALLVALUE DUP1 ISZERO PUSH2 0x45C JUMPI PUSH1 0x0 DUP1 REVERT JUMPDEST POP PUSH2 0x477 PUSH1 0x4 DUP1 CALLDATASIZE SUB DUP2 ADD SWAP1 PUSH2 0x472 SWAP2 SWAP1 PUSH2 0x57BD JUMP JUMPDEST PUSH2 0x19EE JUMP JUMPDEST PUSH1 0x40 MLOAD PUSH2 0x484 SWAP2 SWAP1 PUSH2 0x6047 JUMP JUMPDEST PUSH1 0x40 MLOAD DUP1 SWAP2 SUB SWAP1 RETURN JUMPDEST CALLVALUE DUP1 ISZERO PUSH2 0x499 JUMPI PUSH1 0x0 DUP1 REVERT JUMPDEST POP PUSH2 0x4A2 PUSH2 0x1A73 JUMP JUMPDEST PUSH1 0x40 MLOAD PUSH2 0x4AF SWAP2 SWAP1 PUSH2 0x6746 JUMP JUMPDEST PUSH1 0x40 MLOAD DUP1 SWAP2 SUB SWAP1 RETURN JUMPDEST CALLVALUE DUP1 ISZERO PUSH2 0x4C4 JUMPI PUSH1 0x0 DUP1 REVERT JUMPDEST POP PUSH2 0x4DF PUSH1 0x4 DUP1 CALLDATASIZE SUB DUP2 ADD SWAP1 PUSH2 0x4DA SWAP2 SWAP1 PUSH2 0x56F6 JUMP JUMPDEST PUSH2 0x1A78 JUMP JUMPDEST STOP JUMPDEST PUSH2 0x4E9 PUSH2 0x1B90 JUMP JUMPDEST STOP JUMPDEST CALLVALUE DUP1 ISZERO PUSH2 0x4F7 JUMPI PUSH1 0x0 DUP1 REVERT JUMPDEST POP PUSH2 0x512 PUSH1 0x4 DUP1 CALLDATASIZE SUB DUP2 ADD SWAP1 PUSH2 0x50D SWAP2 SWAP1 PUSH2 0x57BD JUMP JUMPDEST PUSH2 0x1E4C JUMP JUMPDEST PUSH1 0x40 MLOAD PUSH2 0x51F SWAP2 SWAP1 PUSH2 0x6746 JUMP JUMPDEST PUSH1 0x40 MLOAD DUP1 SWAP2 SUB SWAP1 RETURN JUMPDEST CALLVALUE DUP1 ISZERO PUSH2 0x534 JUMPI PUSH1 0x0 DUP1 REVERT JUMPDEST POP PUSH2 0x53D PUSH2 0x1E9A JUMP JUMPDEST PUSH1 0x40 MLOAD PUSH2 0x54A SWAP2 SWAP1 PUSH2 0x672B JUMP JUMPDEST PUSH1 0x40 MLOAD DUP1 SWAP2 SUB SWAP1 RETURN JUMPDEST CALLVALUE DUP1 ISZERO PUSH2 0x55F JUMPI PUSH1 0x0 DUP1 REVERT JUMPDEST POP PUSH2 0x57A PUSH1 0x4 DUP1 CALLDATASIZE SUB DUP2 ADD SWAP1 PUSH2 0x575 SWAP2 SWAP1 PUSH2 0x57BD JUMP JUMPDEST PUSH2 0x1EA0 JUMP JUMPDEST PUSH1 0x40 MLOAD PUSH2 0x58D SWAP8 SWAP7 SWAP6 SWAP5 SWAP4 SWAP3 SWAP2 SWAP1 PUSH2 0x67EB JUMP JUMPDEST PUSH1 0x40 MLOAD DUP1 SWAP2 SUB SWAP1 RETURN JUMPDEST CALLVALUE DUP1 ISZERO PUSH2 0x5A2 JUMPI PUSH1 0x0 DUP1 REVERT JUMPDEST POP PUSH2 0x5BD PUSH1 0x4 DUP1 CALLDATASIZE SUB DUP2 ADD SWAP1 PUSH2 0x5B8 SWAP2 SWAP1 PUSH2 0x55E0 JUMP JUMPDEST PUSH2 0x1EE9 JUMP JUMPDEST STOP JUMPDEST CALLVALUE DUP1 ISZERO PUSH2 0x5CB JUMPI PUSH1 0x0 DUP1 REVERT JUMPDEST POP PUSH2 0x5E6 PUSH1 0x4 DUP1 CALLDATASIZE SUB DUP2 ADD SWAP1 PUSH2 0x5E1 SWAP2 SWAP1 PUSH2 0x57BD JUMP JUMPDEST PUSH2 0x1F49 JUMP JUMPDEST PUSH1 0x40 MLOAD PUSH2 0x5F3 SWAP2 SWAP1 PUSH2 0x6746 JUMP JUMPDEST PUSH1 0x40 MLOAD DUP1 SWAP2 SUB SWAP1 RETURN JUMPDEST CALLVALUE DUP1 ISZERO PUSH2 0x608 JUMPI PUSH1 0x0 DUP1 REVERT JUMPDEST POP PUSH2 0x623 PUSH1 0x4 DUP1 CALLDATASIZE SUB DUP2 ADD SWAP1 PUSH2 0x61E SWAP2 SWAP1 PUSH2 0x57BD JUMP JUMPDEST PUSH2 0x2011 JUMP JUMPDEST PUSH1 0x40 MLOAD PUSH2 0x630 SWAP2 SWAP1 PUSH2 0x621D JUMP JUMPDEST PUSH1 0x40 MLOAD DUP1 SWAP2 SUB SWAP1 RETURN JUMPDEST CALLVALUE DUP1 ISZERO PUSH2 0x645 JUMPI PUSH1 0x0 DUP1 REVERT JUMPDEST POP PUSH2 0x64E PUSH2 0x222F JUMP JUMPDEST PUSH1 0x40 MLOAD PUSH2 0x65B SWAP2 SWAP1 PUSH2 0x685A JUMP JUMPDEST PUSH1 0x40 MLOAD DUP1 SWAP2 SUB SWAP1 RETURN JUMPDEST CALLVALUE DUP1 ISZERO PUSH2 0x670 JUMPI PUSH1 0x0 DUP1 REVERT JUMPDEST POP PUSH2 0x679 PUSH2 0x2242 JUMP JUMPDEST PUSH1 0x40 MLOAD PUSH2 0x686 SWAP2 SWAP1 PUSH2 0x6253 JUMP JUMPDEST PUSH1 0x40 MLOAD DUP1 SWAP2 SUB SWAP1 RETURN JUMPDEST CALLVALUE DUP1 ISZERO PUSH2 0x69B JUMPI PUSH1 0x0 DUP1 REVERT JUMPDEST POP PUSH2 0x6B6 PUSH1 0x4 DUP1 CALLDATASIZE SUB DUP2 ADD SWAP1 PUSH2 0x6B1 SWAP2 SWAP1 PUSH2 0x55E0 JUMP JUMPDEST PUSH2 0x2268 JUMP JUMPDEST STOP JUMPDEST CALLVALUE DUP1 ISZERO PUSH2 0x6C4 JUMPI PUSH1 0x0 DUP1 REVERT JUMPDEST POP PUSH2 0x6DF PUSH1 0x4 DUP1 CALLDATASIZE SUB DUP2 ADD SWAP1 PUSH2 0x6DA SWAP2 SWAP1 PUSH2 0x58BD JUMP JUMPDEST PUSH2 0x2288 JUMP JUMPDEST STOP JUMPDEST CALLVALUE DUP1 ISZERO PUSH2 0x6ED JUMPI PUSH1 0x0 DUP1 REVERT JUMPDEST POP PUSH2 0x708 PUSH1 0x4 DUP1 CALLDATASIZE SUB DUP2 ADD SWAP1 PUSH2 0x703 SWAP2 SWAP1 PUSH2 0x57BD JUMP JUMPDEST PUSH2 0x2784 JUMP JUMPDEST PUSH1 0x40 MLOAD PUSH2 0x71A SWAP7 SWAP6 SWAP5 SWAP4 SWAP3 SWAP2 SWAP1 PUSH2 0x678A JUMP JUMPDEST PUSH1 0x40 MLOAD DUP1 SWAP2 SUB SWAP1 RETURN JUMPDEST CALLVALUE DUP1 ISZERO PUSH2 0x72F JUMPI PUSH1 0x0 DUP1 REVERT JUMPDEST POP PUSH2 0x738 PUSH2 0x289D JUMP JUMPDEST PUSH1 0x40 MLOAD PUSH2 0x745 SWAP2 SWAP1 PUSH2 0x6289 JUMP JUMPDEST PUSH1 0x40 MLOAD DUP1 SWAP2 SUB SWAP1 RETURN JUMPDEST CALLVALUE DUP1 ISZERO PUSH2 0x75A JUMPI PUSH1 0x0 DUP1 REVERT JUMPDEST POP PUSH2 0x775 PUSH1 0x4 DUP1 CALLDATASIZE SUB DUP2 ADD SWAP1 PUSH2 0x770 SWAP2 SWAP1 PUSH2 0x57BD JUMP JUMPDEST PUSH2 0x28B9 JUMP JUMPDEST PUSH1 0x40 MLOAD PUSH2 0x783 SWAP3 SWAP2 SWAP1 PUSH2 0x6761 JUMP JUMPDEST PUSH1 0x40 MLOAD DUP1 SWAP2 SUB SWAP1 RETURN JUMPDEST CALLVALUE DUP1 ISZERO PUSH2 0x798 JUMPI PUSH1 0x0 DUP1 REVERT JUMPDEST POP PUSH2 0x7B3 PUSH1 0x4 DUP1 CALLDATASIZE SUB DUP2 ADD SWAP1 PUSH2 0x7AE SWAP2 SWAP1 PUSH2 0x57BD JUMP JUMPDEST PUSH2 0x2941 JUMP JUMPDEST PUSH1 0x40 MLOAD PUSH2 0x7C0 SWAP2 SWAP1 PUSH2 0x6047 JUMP JUMPDEST PUSH1 0x40 MLOAD DUP1 SWAP2 SUB SWAP1 RETURN JUMPDEST CALLVALUE DUP1 ISZERO PUSH2 0x7D5 JUMPI PUSH1 0x0 DUP1 REVERT JUMPDEST POP PUSH2 0x7DE PUSH2 0x29F3 JUMP JUMPDEST PUSH1 0x40 MLOAD PUSH2 0x7EB SWAP2 SWAP1 PUSH2 0x685A JUMP JUMPDEST PUSH1 0x40 MLOAD DUP1 SWAP2 SUB SWAP1 RETURN JUMPDEST CALLVALUE DUP1 ISZERO PUSH2 0x800 JUMPI PUSH1 0x0 DUP1 REVERT JUMPDEST POP PUSH2 0x81B PUSH1 0x4 DUP1 CALLDATASIZE SUB DUP2 ADD SWAP1 PUSH2 0x816 SWAP2 SWAP1 PUSH2 0x5573 JUMP JUMPDEST PUSH2 0x2A06 JUMP JUMPDEST PUSH1 0x40 MLOAD PUSH2 0x828 SWAP2 SWAP1 PUSH2 0x6746 JUMP JUMPDEST PUSH1 0x40 MLOAD DUP1 SWAP2 SUB SWAP1 RETURN JUMPDEST CALLVALUE DUP1 ISZERO PUSH2 0x83D JUMPI PUSH1 0x0 DUP1 REVERT JUMPDEST POP PUSH2 0x846 PUSH2 0x2ABE JUMP JUMPDEST STOP JUMPDEST CALLVALUE DUP1 ISZERO PUSH2 0x854 JUMPI PUSH1 0x0 DUP1 REVERT JUMPDEST POP PUSH2 0x85D PUSH2 0x2B46 JUMP JUMPDEST PUSH1 0x40 MLOAD PUSH2 0x86A SWAP2 SWAP1 PUSH2 0x6238 JUMP JUMPDEST PUSH1 0x40 MLOAD DUP1 SWAP2 SUB SWAP1 RETURN JUMPDEST CALLVALUE DUP1 ISZERO PUSH2 0x87F JUMPI PUSH1 0x0 DUP1 REVERT JUMPDEST POP PUSH2 0x89A PUSH1 0x4 DUP1 CALLDATASIZE SUB DUP2 ADD SWAP1 PUSH2 0x895 SWAP2 SWAP1 PUSH2 0x57BD JUMP JUMPDEST PUSH2 0x2B6C JUMP JUMPDEST PUSH1 0x40 MLOAD PUSH2 0x8A7 SWAP2 SWAP1 PUSH2 0x6746 JUMP JUMPDEST PUSH1 0x40 MLOAD DUP1 SWAP2 SUB SWAP1 RETURN JUMPDEST CALLVALUE DUP1 ISZERO PUSH2 0x8BC JUMPI PUSH1 0x0 DUP1 REVERT JUMPDEST POP PUSH2 0x8C5 PUSH2 0x2B8B JUMP JUMPDEST PUSH1 0x40 MLOAD PUSH2 0x8D2 SWAP2 SWAP1 PUSH2 0x6746 JUMP JUMPDEST PUSH1 0x40 MLOAD DUP1 SWAP2 SUB SWAP1 RETURN JUMPDEST CALLVALUE DUP1 ISZERO PUSH2 0x8E7 JUMPI PUSH1 0x0 DUP1 REVERT JUMPDEST POP PUSH2 0x8F0 PUSH2 0x2B91 JUMP JUMPDEST PUSH1 0x40 MLOAD PUSH2 0x8FD SWAP2 SWAP1 PUSH2 0x61E0 JUMP JUMPDEST PUSH1 0x40 MLOAD DUP1 SWAP2 SUB SWAP1 RETURN JUMPDEST CALLVALUE DUP1 ISZERO PUSH2 0x912 JUMPI PUSH1 0x0 DUP1 REVERT JUMPDEST POP PUSH2 0x92D PUSH1 0x4 DUP1 CALLDATASIZE SUB DUP2 ADD SWAP1 PUSH2 0x928 SWAP2 SWAP1 PUSH2 0x5817 JUMP JUMPDEST PUSH2 0x2E30 JUMP JUMPDEST STOP JUMPDEST CALLVALUE DUP1 ISZERO PUSH2 0x93B JUMPI PUSH1 0x0 DUP1 REVERT JUMPDEST POP PUSH2 0x944 PUSH2 0x3310 JUMP JUMPDEST PUSH1 0x40 MLOAD PUSH2 0x951 SWAP2 SWAP1 PUSH2 0x6047 JUMP JUMPDEST PUSH1 0x40 MLOAD DUP1 SWAP2 SUB SWAP1 RETURN JUMPDEST CALLVALUE DUP1 ISZERO PUSH2 0x966 JUMPI PUSH1 0x0 DUP1 REVERT JUMPDEST POP PUSH2 0x96F PUSH2 0x333A JUMP JUMPDEST PUSH1 0x40 MLOAD PUSH2 0x97C SWAP2 SWAP1 PUSH2 0x621D JUMP JUMPDEST PUSH1 0x40 MLOAD DUP1 SWAP2 SUB SWAP1 RETURN JUMPDEST CALLVALUE DUP1 ISZERO PUSH2 0x991 JUMPI PUSH1 0x0 DUP1 REVERT JUMPDEST POP PUSH2 0x99A PUSH2 0x3761 JUMP JUMPDEST PUSH1 0x40 MLOAD PUSH2 0x9A7 SWAP2 SWAP1 PUSH2 0x626E JUMP JUMPDEST PUSH1 0x40 MLOAD DUP1 SWAP2 SUB SWAP1 RETURN JUMPDEST CALLVALUE DUP1 ISZERO PUSH2 0x9BC JUMPI PUSH1 0x0 DUP1 REVERT JUMPDEST POP PUSH2 0x9C5 PUSH2 0x3787 JUMP JUMPDEST PUSH1 0x40 MLOAD PUSH2 0x9D2 SWAP2 SWAP1 PUSH2 0x6289 JUMP JUMPDEST PUSH1 0x40 MLOAD DUP1 SWAP2 SUB SWAP1 RETURN JUMPDEST CALLVALUE DUP1 ISZERO PUSH2 0x9E7 JUMPI PUSH1 0x0 DUP1 REVERT JUMPDEST POP PUSH2 0xA02 PUSH1 0x4 DUP1 CALLDATASIZE SUB DUP2 ADD SWAP1 PUSH2 0x9FD SWAP2 SWAP1 PUSH2 0x56B6 JUMP JUMPDEST PUSH2 0x3819 JUMP JUMPDEST STOP JUMPDEST CALLVALUE DUP1 ISZERO PUSH2 0xA10 JUMPI PUSH1 0x0 DUP1 REVERT JUMPDEST POP PUSH2 0xA2B PUSH1 0x4 DUP1 CALLDATASIZE SUB DUP2 ADD SWAP1 PUSH2 0xA26 SWAP2 SWAP1 PUSH2 0x5633 JUMP JUMPDEST PUSH2 0x399A JUMP JUMPDEST STOP JUMPDEST CALLVALUE DUP1 ISZERO PUSH2 0xA39 JUMPI PUSH1 0x0 DUP1 REVERT JUMPDEST POP PUSH2 0xA42 PUSH2 0x39FC JUMP JUMPDEST PUSH1 0x40 MLOAD PUSH2 0xA4F SWAP2 SWAP1 PUSH2 0x6746 JUMP JUMPDEST PUSH1 0x40 MLOAD DUP1 SWAP2 SUB SWAP1 RETURN JUMPDEST CALLVALUE DUP1 ISZERO PUSH2 0xA64 JUMPI PUSH1 0x0 DUP1 REVERT JUMPDEST POP PUSH2 0xA7F PUSH1 0x4 DUP1 CALLDATASIZE SUB DUP2 ADD SWAP1 PUSH2 0xA7A SWAP2 SWAP1 PUSH2 0x57BD JUMP JUMPDEST PUSH2 0x3A02 JUMP JUMPDEST PUSH1 0x40 MLOAD PUSH2 0xA8C SWAP2 SWAP1 PUSH2 0x6746 JUMP JUMPDEST PUSH1 0x40 MLOAD DUP1 SWAP2 SUB SWAP1 RETURN JUMPDEST CALLVALUE DUP1 ISZERO PUSH2 0xAA1 JUMPI PUSH1 0x0 DUP1 REVERT JUMPDEST POP PUSH2 0xABC PUSH1 0x4 DUP1 CALLDATASIZE SUB DUP2 ADD SWAP1 PUSH2 0xAB7 SWAP2 SWAP1 PUSH2 0x5573 JUMP JUMPDEST PUSH2 0x3A21 JUMP JUMPDEST PUSH1 0x40 MLOAD PUSH2 0xAC9 SWAP2 SWAP1 PUSH2 0x61FB JUMP JUMPDEST PUSH1 0x40 MLOAD DUP1 SWAP2 SUB SWAP1 RETURN JUMPDEST CALLVALUE DUP1 ISZERO PUSH2 0xADE JUMPI PUSH1 0x0 DUP1 REVERT JUMPDEST POP PUSH2 0xAE7 PUSH2 0x3ABA JUMP JUMPDEST PUSH1 0x40 MLOAD PUSH2 0xAF4 SWAP2 SWAP1 PUSH2 0x685A JUMP JUMPDEST PUSH1 0x40 MLOAD DUP1 SWAP2 SUB SWAP1 RETURN JUMPDEST CALLVALUE DUP1 ISZERO PUSH2 0xB09 JUMPI PUSH1 0x0 DUP1 REVERT JUMPDEST POP PUSH2 0xB24 PUSH1 0x4 DUP1 CALLDATASIZE SUB DUP2 ADD SWAP1 PUSH2 0xB1F SWAP2 SWAP1 PUSH2 0x57BD JUMP JUMPDEST PUSH2 0x3ACD JUMP JUMPDEST PUSH1 0x40 MLOAD PUSH2 0xB31 SWAP2 SWAP1 PUSH2 0x6289 JUMP JUMPDEST PUSH1 0x40 MLOAD DUP1 SWAP2 SUB SWAP1 RETURN JUMPDEST CALLVALUE DUP1 ISZERO PUSH2 0xB46 JUMPI PUSH1 0x0 DUP1 REVERT JUMPDEST POP PUSH2 0xB4F PUSH2 0x3B60 JUMP JUMPDEST PUSH1 0x40 MLOAD PUSH2 0xB5C SWAP2 SWAP1 PUSH2 0x685A JUMP JUMPDEST PUSH1 0x40 MLOAD DUP1 SWAP2 SUB SWAP1 RETURN JUMPDEST CALLVALUE DUP1 ISZERO PUSH2 0xB71 JUMPI PUSH1 0x0 DUP1 REVERT JUMPDEST POP PUSH2 0xB7A PUSH2 0x3B73 JUMP JUMPDEST PUSH1 0x40 MLOAD PUSH2 0xB87 SWAP2 SWAP1 PUSH2 0x6746 JUMP JUMPDEST PUSH1 0x40 MLOAD DUP1 SWAP2 SUB SWAP1 RETURN JUMPDEST PUSH2 0xB98 PUSH2 0x3B7F JUMP JUMPDEST PUSH1 0x40 MLOAD PUSH2 0xBA5 SWAP2 SWAP1 PUSH2 0x6746 JUMP JUMPDEST PUSH1 0x40 MLOAD DUP1 SWAP2 SUB SWAP1 RETURN JUMPDEST CALLVALUE DUP1 ISZERO PUSH2 0xBBA JUMPI PUSH1 0x0 DUP1 REVERT JUMPDEST POP PUSH2 0xBD5 PUSH1 0x4 DUP1 CALLDATASIZE SUB DUP2 ADD SWAP1 PUSH2 0xBD0 SWAP2 SWAP1 PUSH2 0x5573 JUMP JUMPDEST PUSH2 0x3B87 JUMP JUMPDEST PUSH1 0x40 MLOAD PUSH2 0xBE2 SWAP2 SWAP1 PUSH2 0x61FB JUMP JUMPDEST PUSH1 0x40 MLOAD DUP1 SWAP2 SUB SWAP1 RETURN JUMPDEST CALLVALUE DUP1 ISZERO PUSH2 0xBF7 JUMPI PUSH1 0x0 DUP1 REVERT JUMPDEST POP PUSH2 0xC00 PUSH2 0x3CEE JUMP JUMPDEST PUSH1 0x40 MLOAD PUSH2 0xC0D SWAP2 SWAP1 PUSH2 0x6746 JUMP JUMPDEST PUSH1 0x40 MLOAD DUP1 SWAP2 SUB SWAP1 RETURN JUMPDEST CALLVALUE DUP1 ISZERO PUSH2 0xC22 JUMPI PUSH1 0x0 DUP1 REVERT JUMPDEST POP PUSH2 0xC3D PUSH1 0x4 DUP1 CALLDATASIZE SUB DUP2 ADD SWAP1 PUSH2 0xC38 SWAP2 SWAP1 PUSH2 0x55A0 JUMP JUMPDEST PUSH2 0x3CF3 JUMP JUMPDEST PUSH1 0x40 MLOAD PUSH2 0xC4A SWAP2 SWAP1 PUSH2 0x621D JUMP JUMPDEST PUSH1 0x40 MLOAD DUP1 SWAP2 SUB SWAP1 RETURN JUMPDEST CALLVALUE DUP1 ISZERO PUSH2 0xC5F JUMPI PUSH1 0x0 DUP1 REVERT JUMPDEST POP PUSH2 0xC68 PUSH2 0x3D87 JUMP JUMPDEST PUSH1 0x40 MLOAD PUSH2 0xC75 SWAP2 SWAP1 PUSH2 0x6746 JUMP JUMPDEST PUSH1 0x40 MLOAD DUP1 SWAP2 SUB SWAP1 RETURN JUMPDEST CALLVALUE DUP1 ISZERO PUSH2 0xC8A JUMPI PUSH1 0x0 DUP1 REVERT JUMPDEST POP PUSH2 0xCA5 PUSH1 0x4 DUP1 CALLDATASIZE SUB DUP2 ADD SWAP1 PUSH2 0xCA0 SWAP2 SWAP1 PUSH2 0x56F6 JUMP JUMPDEST PUSH2 0x3D8D JUMP JUMPDEST PUSH1 0x40 MLOAD PUSH2 0xCB2 SWAP2 SWAP1 PUSH2 0x6746 JUMP JUMPDEST PUSH1 0x40 MLOAD DUP1 SWAP2 SUB SWAP1 RETURN JUMPDEST CALLVALUE DUP1 ISZERO PUSH2 0xCC7 JUMPI PUSH1 0x0 DUP1 REVERT JUMPDEST POP PUSH2 0xCE2 PUSH1 0x4 DUP1 CALLDATASIZE SUB DUP2 ADD SWAP1 PUSH2 0xCDD SWAP2 SWAP1 PUSH2 0x5573 JUMP JUMPDEST PUSH2 0x3DC0 JUMP JUMPDEST PUSH1 0x40 MLOAD PUSH2 0xCEF SWAP2 SWAP1 PUSH2 0x6746 JUMP JUMPDEST PUSH1 0x40 MLOAD DUP1 SWAP2 SUB SWAP1 RETURN JUMPDEST CALLVALUE DUP1 ISZERO PUSH2 0xD04 JUMPI PUSH1 0x0 DUP1 REVERT JUMPDEST POP PUSH2 0xD1F PUSH1 0x4 DUP1 CALLDATASIZE SUB DUP2 ADD SWAP1 PUSH2 0xD1A SWAP2 SWAP1 PUSH2 0x5573 JUMP JUMPDEST PUSH2 0x4014 JUMP JUMPDEST STOP JUMPDEST CALLVALUE DUP1 ISZERO PUSH2 0xD2D JUMPI PUSH1 0x0 DUP1 REVERT JUMPDEST POP PUSH2 0xD48 PUSH1 0x4 DUP1 CALLDATASIZE SUB DUP2 ADD SWAP1 PUSH2 0xD43 SWAP2 SWAP1 PUSH2 0x57BD JUMP JUMPDEST PUSH2 0x410C JUMP JUMPDEST PUSH1 0x40 MLOAD PUSH2 0xD55 SWAP2 SWAP1 PUSH2 0x6746 JUMP JUMPDEST PUSH1 0x40 MLOAD DUP1 SWAP2 SUB SWAP1 RETURN JUMPDEST CALLVALUE DUP1 ISZERO PUSH2 0xD6A JUMPI PUSH1 0x0 DUP1 REVERT JUMPDEST POP PUSH2 0xD73 PUSH2 0x4126 JUMP JUMPDEST PUSH1 0x40 MLOAD PUSH2 0xD80 SWAP2 SWAP1 PUSH2 0x61E0 JUMP JUMPDEST PUSH1 0x40 MLOAD DUP1 SWAP2 SUB SWAP1 RETURN JUMPDEST PUSH1 0x9 SLOAD DUP2 JUMP JUMPDEST PUSH1 0x0 PUSH32 0x80AC58CD00000000000000000000000000000000000000000000000000000000 PUSH28 0xFFFFFFFFFFFFFFFFFFFFFFFFFFFFFFFFFFFFFFFFFFFFFFFFFFFFFFFF NOT AND DUP3 PUSH28 0xFFFFFFFFFFFFFFFFFFFFFFFFFFFFFFFFFFFFFFFFFFFFFFFFFFFFFFFF NOT AND EQ DUP1 PUSH2 0xE5A JUMPI POP PUSH32 0x5B5E139F00000000000000000000000000000000000000000000000000000000 PUSH28 0xFFFFFFFFFFFFFFFFFFFFFFFFFFFFFFFFFFFFFFFFFFFFFFFFFFFFFFFF NOT AND DUP3 PUSH28 0xFFFFFFFFFFFFFFFFFFFFFFFFFFFFFFFFFFFFFFFFFFFFFFFFFFFFFFFF NOT AND EQ JUMPDEST DUP1 PUSH2 0xE6A JUMPI POP PUSH2 0xE69 DUP3 PUSH2 0x42C9 JUMP JUMPDEST JUMPDEST SWAP1 POP SWAP2 SWAP1 POP JUMP JUMPDEST PUSH2 0xE79 PUSH2 0x4333 JUMP JUMPDEST PUSH20 0xFFFFFFFFFFFFFFFFFFFFFFFFFFFFFFFFFFFFFFFF AND PUSH2 0xE97 PUSH2 0x3310 JUMP JUMPDEST PUSH20 0xFFFFFFFFFFFFFFFFFFFFFFFFFFFFFFFFFFFFFFFF AND EQ PUSH2 0xEED JUMPI PUSH1 0x40 MLOAD PUSH32 0x8C379A000000000000000000000000000000000000000000000000000000000 DUP2 MSTORE PUSH1 0x4 ADD PUSH2 0xEE4 SWAP1 PUSH2 0x658B JUMP JUMPDEST PUSH1 0x40 MLOAD DUP1 SWAP2 SUB SWAP1 REVERT JUMPDEST PUSH1 0x0 JUMPDEST PUSH3 0x11182 SLOAD DUP2 LT ISZERO PUSH2 0x1109 JUMPI PUSH1 0x0 PUSH2 0xF07 DUP3 PUSH2 0x2941 JUMP JUMPDEST SWAP1 POP PUSH1 0x0 PUSH1 0x11 DUP4 PUSH2 0x2710 DUP2 LT PUSH2 0xF20 JUMPI PUSH2 0xF1F PUSH2 0x6D6F JUMP JUMPDEST JUMPDEST PUSH1 0x7 MUL ADD PUSH1 0x0 ADD SLOAD SWAP1 POP PUSH1 0x0 PUSH1 0x11 DUP5 PUSH2 0x2710 DUP2 LT PUSH2 0xF41 JUMPI PUSH2 0xF40 PUSH2 0x6D6F JUMP JUMPDEST JUMPDEST PUSH1 0x7 MUL ADD PUSH1 0x1 ADD SLOAD SWAP1 POP PUSH1 0xE PUSH1 0x40 MLOAD DUP1 PUSH1 0x60 ADD PUSH1 0x40 MSTORE DUP1 DUP6 PUSH20 0xFFFFFFFFFFFFFFFFFFFFFFFFFFFFFFFFFFFFFFFF AND DUP2 MSTORE PUSH1 0x20 ADD DUP5 DUP2 MSTORE PUSH1 0x20 ADD PUSH1 0x0 PUSH1 0xFF AND DUP2 MSTORE POP SWAP1 DUP1 PUSH1 0x1 DUP2 SLOAD ADD DUP1 DUP3 SSTORE DUP1 SWAP2 POP POP PUSH1 0x1 SWAP1 SUB SWAP1 PUSH1 0x0 MSTORE PUSH1 0x20 PUSH1 0x0 KECCAK256 SWAP1 PUSH1 0x3 MUL ADD PUSH1 0x0 SWAP1 SWAP2 SWAP1 SWAP2 SWAP1 SWAP2 POP PUSH1 0x0 DUP3 ADD MLOAD DUP2 PUSH1 0x0 ADD PUSH1 0x0 PUSH2 0x100 EXP DUP2 SLOAD DUP2 PUSH20 0xFFFFFFFFFFFFFFFFFFFFFFFFFFFFFFFFFFFFFFFF MUL NOT AND SWAP1 DUP4 PUSH20 0xFFFFFFFFFFFFFFFFFFFFFFFFFFFFFFFFFFFFFFFF AND MUL OR SWAP1 SSTORE POP PUSH1 0x20 DUP3 ADD MLOAD DUP2 PUSH1 0x1 ADD SSTORE PUSH1 0x40 DUP3 ADD MLOAD DUP2 PUSH1 0x2 ADD PUSH1 0x0 PUSH2 0x100 EXP DUP2 SLOAD DUP2 PUSH1 0xFF MUL NOT AND SWAP1 DUP4 PUSH1 0xFF AND MUL OR SWAP1 SSTORE POP POP POP PUSH1 0xE PUSH1 0x40 MLOAD DUP1 PUSH1 0x60 ADD PUSH1 0x40 MSTORE DUP1 DUP6 PUSH20 0xFFFFFFFFFFFFFFFFFFFFFFFFFFFFFFFFFFFFFFFF AND DUP2 MSTORE PUSH1 0x20 ADD DUP4 DUP2 MSTORE PUSH1 0x20 ADD PUSH1 0x1 PUSH1 0xFF AND DUP2 MSTORE POP SWAP1 DUP1 PUSH1 0x1 DUP2 SLOAD ADD DUP1 DUP3 SSTORE DUP1 SWAP2 POP POP PUSH1 0x1 SWAP1 SUB SWAP1 PUSH1 0x0 MSTORE PUSH1 0x20 PUSH1 0x0 KECCAK256 SWAP1 PUSH1 0x3 MUL ADD PUSH1 0x0 SWAP1 SWAP2 SWAP1 SWAP2 SWAP1 SWAP2 POP PUSH1 0x0 DUP3 ADD MLOAD DUP2 PUSH1 0x0 ADD PUSH1 0x0 PUSH2 0x100 EXP DUP2 SLOAD DUP2 PUSH20 0xFFFFFFFFFFFFFFFFFFFFFFFFFFFFFFFFFFFFFFFF MUL NOT AND SWAP1 DUP4 PUSH20 0xFFFFFFFFFFFFFFFFFFFFFFFFFFFFFFFFFFFFFFFF AND MUL OR SWAP1 SSTORE POP PUSH1 0x20 DUP3 ADD MLOAD DUP2 PUSH1 0x1 ADD SSTORE PUSH1 0x40 DUP3 ADD MLOAD DUP2 PUSH1 0x2 ADD PUSH1 0x0 PUSH2 0x100 EXP DUP2 SLOAD DUP2 PUSH1 0xFF MUL NOT AND SWAP1 DUP4 PUSH1 0xFF AND MUL OR SWAP1 SSTORE POP POP POP POP POP POP DUP1 DUP1 PUSH2 0x1101 SWAP1 PUSH2 0x6C5E JUMP JUMPDEST SWAP2 POP POP PUSH2 0xEF0 JUMP JUMPDEST POP JUMP JUMPDEST PUSH1 0x0 PUSH2 0x1117 CALLER PUSH2 0x2A06 JUMP JUMPDEST GT PUSH2 0x1157 JUMPI PUSH1 0x40 MLOAD PUSH32 0x8C379A000000000000000000000000000000000000000000000000000000000 DUP2 MSTORE PUSH1 0x4 ADD PUSH2 0x114E SWAP1 PUSH2 0x656B JUMP JUMPDEST PUSH1 0x40 MLOAD DUP1 SWAP2 SUB SWAP1 REVERT JUMPDEST CALLER PUSH20 0xFFFFFFFFFFFFFFFFFFFFFFFFFFFFFFFFFFFFFFFF AND PUSH2 0x1177 DUP3 PUSH2 0x2941 JUMP JUMPDEST PUSH20 0xFFFFFFFFFFFFFFFFFFFFFFFFFFFFFFFFFFFFFFFF AND EQ PUSH2 0x11CD JUMPI PUSH1 0x40 MLOAD PUSH32 0x8C379A000000000000000000000000000000000000000000000000000000000 DUP2 MSTORE PUSH1 0x4 ADD PUSH2 0x11C4 SWAP1 PUSH2 0x666B JUMP JUMPDEST PUSH1 0x40 MLOAD DUP1 SWAP2 SUB SWAP1 REVERT JUMPDEST PUSH1 0x0 PUSH1 0x40 MLOAD DUP1 PUSH2 0x160 ADD PUSH1 0x40 MSTORE DUP1 PUSH1 0x0 ISZERO ISZERO DUP2 MSTORE PUSH1 0x20 ADD DUP4 DUP2 MSTORE PUSH1 0x20 ADD PUSH2 0x11F3 DUP5 PUSH2 0x3A02 JUMP JUMPDEST DUP2 MSTORE PUSH1 0x20 ADD PUSH2 0x1209 PUSH2 0x1204 DUP6 PUSH2 0x3A02 JUMP JUMPDEST PUSH2 0x2941 JUMP JUMPDEST PUSH20 0xFFFFFFFFFFFFFFFFFFFFFFFFFFFFFFFFFFFFFFFF AND DUP2 MSTORE PUSH1 0x20 ADD PUSH1 0x0 DUP2 MSTORE PUSH1 0x20 ADD PUSH1 0x0 DUP2 MSTORE PUSH1 0x20 ADD PUSH1 0x0 ISZERO ISZERO DUP2 MSTORE PUSH1 0x20 ADD PUSH1 0x0 DUP2 MSTORE PUSH1 0x20 ADD PUSH1 0x0 DUP2 MSTORE PUSH1 0x20 ADD PUSH1 0x0 DUP2 MSTORE PUSH1 0x20 ADD PUSH1 0x0 DUP2 MSTORE POP SWAP1 POP CALLER PUSH20 0xFFFFFFFFFFFFFFFFFFFFFFFFFFFFFFFFFFFFFFFF AND DUP2 PUSH1 0x60 ADD MLOAD PUSH20 0xFFFFFFFFFFFFFFFFFFFFFFFFFFFFFFFFFFFFFFFF AND EQ ISZERO PUSH2 0x12CA JUMPI PUSH1 0x40 MLOAD PUSH32 0x8C379A000000000000000000000000000000000000000000000000000000000 DUP2 MSTORE PUSH1 0x4 ADD PUSH2 0x12C1 SWAP1 PUSH2 0x62AB JUMP JUMPDEST PUSH1 0x40 MLOAD DUP1 SWAP2 SUB SWAP1 REVERT JUMPDEST PUSH2 0x12D3 DUP3 PUSH2 0x2784 JUMP JUMPDEST SWAP1 SWAP2 SWAP3 SWAP4 POP SWAP1 POP POP DUP4 PUSH1 0xE0 ADD DUP5 PUSH1 0xC0 ADD DUP6 PUSH2 0x120 ADD DUP4 DUP2 MSTORE POP DUP4 ISZERO ISZERO ISZERO ISZERO DUP2 MSTORE POP DUP4 DUP2 MSTORE POP POP POP POP PUSH2 0x1308 DUP2 PUSH1 0x40 ADD MLOAD PUSH2 0x2784 JUMP JUMPDEST SWAP1 SWAP2 SWAP3 SWAP4 SWAP5 POP SWAP1 SWAP2 SWAP3 POP SWAP1 SWAP2 POP POP DUP3 PUSH2 0x100 ADD DUP4 PUSH2 0x140 ADD DUP3 DUP2 MSTORE POP DUP3 DUP2 MSTORE POP POP POP PUSH1 0x0 PUSH1 0xA DUP3 PUSH2 0x140 ADD MLOAD PUSH1 0xF DUP5 PUSH2 0x100 ADD MLOAD PUSH2 0x1346 SWAP2 SWAP1 PUSH2 0x6A32 JUMP JUMPDEST PUSH2 0x1350 SWAP2 SWAP1 PUSH2 0x6A32 JUMP JUMPDEST PUSH2 0x135A SWAP2 SWAP1 PUSH2 0x6A01 JUMP JUMPDEST SWAP1 POP PUSH1 0x0 DUP3 PUSH2 0x120 ADD MLOAD DUP4 PUSH1 0xE0 ADD MLOAD PUSH2 0x1373 SWAP2 SWAP1 PUSH2 0x6A32 JUMP JUMPDEST SWAP1 POP PUSH1 0x0 PUSH2 0x137F PUSH2 0x433B JUMP JUMPDEST SWAP1 POP PUSH1 0x0 DUP1 PUSH2 0x138E DUP5 DUP7 PUSH2 0x439B JUMP JUMPDEST SWAP2 POP SWAP2 POP PUSH1 0x3 DUP3 GT ISZERO PUSH2 0x13CB JUMPI DUP6 PUSH2 0x100 ADD MLOAD DUP7 PUSH1 0xA0 ADD DUP2 DUP2 MSTORE POP POP PUSH1 0x0 DUP7 PUSH1 0x80 ADD DUP2 DUP2 MSTORE POP POP PUSH1 0x1 DUP7 PUSH1 0x0 ADD SWAP1 ISZERO ISZERO SWAP1 DUP2 ISZERO ISZERO DUP2 MSTORE POP POP PUSH2 0x14C0 JUMP JUMPDEST PUSH1 0x2 DUP3 GT ISZERO PUSH2 0x1438 JUMPI DUP6 PUSH2 0x100 ADD MLOAD DUP7 PUSH1 0xA0 ADD DUP2 DUP2 MSTORE POP POP PUSH1 0x1 DUP7 PUSH1 0x0 ADD SWAP1 ISZERO ISZERO SWAP1 DUP2 ISZERO ISZERO DUP2 MSTORE POP POP PUSH1 0xA DUP7 PUSH1 0xE0 ADD MLOAD PUSH2 0x1405 SWAP2 SWAP1 PUSH2 0x6A01 JUMP JUMPDEST DUP7 PUSH1 0x80 ADD DUP2 DUP2 MSTORE POP POP PUSH1 0x5A DUP4 GT ISZERO PUSH2 0x1433 JUMPI PUSH1 0x2 DUP7 PUSH2 0x100 ADD MLOAD PUSH2 0x1429 SWAP2 SWAP1 PUSH2 0x6A01 JUMP JUMPDEST DUP7 PUSH1 0xA0 ADD DUP2 DUP2 MSTORE POP POP JUMPDEST PUSH2 0x14BF JUMP JUMPDEST PUSH1 0x1 DUP3 GT DUP1 ISZERO PUSH2 0x1448 JUMPI POP PUSH1 0x5 DUP2 GT JUMPDEST ISZERO PUSH2 0x1498 JUMPI PUSH1 0x1 DUP7 PUSH1 0x0 ADD SWAP1 ISZERO ISZERO SWAP1 DUP2 ISZERO ISZERO DUP2 MSTORE POP POP PUSH1 0x2 DUP7 PUSH2 0x100 ADD MLOAD PUSH2 0x1470 SWAP2 SWAP1 PUSH2 0x6A01 JUMP JUMPDEST DUP7 PUSH1 0xA0 ADD DUP2 DUP2 MSTORE POP POP PUSH1 0x2 DUP7 PUSH1 0xE0 ADD MLOAD PUSH2 0x148A SWAP2 SWAP1 PUSH2 0x6A01 JUMP JUMPDEST DUP7 PUSH1 0x80 ADD DUP2 DUP2 MSTORE POP POP PUSH2 0x14BE JUMP JUMPDEST PUSH1 0x0 DUP7 PUSH1 0x0 ADD SWAP1 ISZERO ISZERO SWAP1 DUP2 ISZERO ISZERO DUP2 MSTORE POP POP DUP3 DUP7 PUSH1 0xA0 ADD DUP2 DUP2 MSTORE POP POP DUP3 DUP7 PUSH1 0x80 ADD DUP2 DUP2 MSTORE POP POP JUMPDEST JUMPDEST JUMPDEST PUSH32 0xE1F1C5EDC3D4D1E770D4DE5770DA4DD058CC5E6A71A2830D5743E8062CD8FA09 CALLER DUP8 PUSH1 0x60 ADD MLOAD DUP10 DUP10 PUSH1 0x40 ADD MLOAD DUP11 PUSH1 0xE0 ADD MLOAD DUP12 PUSH2 0x100 ADD MLOAD DUP13 PUSH1 0x80 ADD MLOAD DUP14 PUSH1 0xA0 ADD MLOAD DUP15 PUSH1 0x0 ADD MLOAD PUSH1 0x40 MLOAD PUSH2 0x151C SWAP10 SWAP9 SWAP8 SWAP7 SWAP6 SWAP5 SWAP4 SWAP3 SWAP2 SWAP1 PUSH2 0x612A JUMP JUMPDEST PUSH1 0x40 MLOAD DUP1 SWAP2 SUB SWAP1 LOG1 PUSH2 0x152D DUP7 PUSH2 0x43CC JUMP JUMPDEST POP POP POP POP POP POP POP JUMP JUMPDEST PUSH1 0x60 PUSH1 0x0 DUP1 SLOAD PUSH2 0x1545 SWAP1 PUSH2 0x6BFB JUMP JUMPDEST DUP1 PUSH1 0x1F ADD PUSH1 0x20 DUP1 SWAP2 DIV MUL PUSH1 0x20 ADD PUSH1 0x40 MLOAD SWAP1 DUP2 ADD PUSH1 0x40 MSTORE DUP1 SWAP3 SWAP2 SWAP1 DUP2 DUP2 MSTORE PUSH1 0x20 ADD DUP3 DUP1 SLOAD PUSH2 0x1571 SWAP1 PUSH2 0x6BFB JUMP JUMPDEST DUP1 ISZERO PUSH2 0x15BE JUMPI DUP1 PUSH1 0x1F LT PUSH2 0x1593 JUMPI PUSH2 0x100 DUP1 DUP4 SLOAD DIV MUL DUP4 MSTORE SWAP2 PUSH1 0x20 ADD SWAP2 PUSH2 0x15BE JUMP JUMPDEST DUP3 ADD SWAP2 SWAP1 PUSH1 0x0 MSTORE PUSH1 0x20 PUSH1 0x0 KECCAK256 SWAP1 JUMPDEST DUP2 SLOAD DUP2 MSTORE SWAP1 PUSH1 0x1 ADD SWAP1 PUSH1 0x20 ADD DUP1 DUP4 GT PUSH2 0x15A1 JUMPI DUP3 SWAP1 SUB PUSH1 0x1F AND DUP3 ADD SWAP2 JUMPDEST POP POP POP POP POP SWAP1 POP SWAP1 JUMP JUMPDEST PUSH2 0x15D7 DUP3 PUSH4 0xFFFFFFFF AND PUSH2 0x45E4 JUMP JUMPDEST PUSH2 0x1616 JUMPI PUSH1 0x40 MLOAD PUSH32 0x8C379A000000000000000000000000000000000000000000000000000000000 DUP2 MSTORE PUSH1 0x4 ADD PUSH2 0x160D SWAP1 PUSH2 0x632B JUMP JUMPDEST PUSH1 0x40 MLOAD DUP1 SWAP2 SUB SWAP1 REVERT JUMPDEST CALLER PUSH20 0xFFFFFFFFFFFFFFFFFFFFFFFFFFFFFFFFFFFFFFFF AND PUSH2 0x163C DUP4 PUSH4 0xFFFFFFFF AND PUSH2 0x2941 JUMP JUMPDEST PUSH20 0xFFFFFFFFFFFFFFFFFFFFFFFFFFFFFFFFFFFFFFFF AND EQ PUSH2 0x1692 JUMPI PUSH1 0x40 MLOAD PUSH32 0x8C379A000000000000000000000000000000000000000000000000000000000 DUP2 MSTORE PUSH1 0x4 ADD PUSH2 0x1689 SWAP1 PUSH2 0x65EB JUMP JUMPDEST PUSH1 0x40 MLOAD DUP1 SWAP2 SUB SWAP1 REVERT JUMPDEST PUSH1 0x0 DUP4 LT ISZERO PUSH2 0x16D6 JUMPI PUSH1 0x40 MLOAD PUSH32 0x8C379A000000000000000000000000000000000000000000000000000000000 DUP2 MSTORE PUSH1 0x4 ADD PUSH2 0x16CD SWAP1 PUSH2 0x640B JUMP JUMPDEST PUSH1 0x40 MLOAD DUP1 SWAP2 SUB SWAP1 REVERT JUMPDEST PUSH1 0x0 DUP2 PUSH1 0xFF AND EQ DUP1 PUSH2 0x16EB JUMPI POP PUSH1 0x1 DUP2 PUSH1 0xFF AND EQ JUMPDEST PUSH2 0x172A JUMPI PUSH1 0x40 MLOAD PUSH32 0x8C379A000000000000000000000000000000000000000000000000000000000 DUP2 MSTORE PUSH1 0x4 ADD PUSH2 0x1721 SWAP1 PUSH2 0x63AB JUMP JUMPDEST PUSH1 0x40 MLOAD DUP1 SWAP2 SUB SWAP1 REVERT JUMPDEST PUSH1 0x0 DUP2 PUSH1 0xFF AND EQ ISZERO PUSH2 0x188B JUMPI DUP3 PUSH1 0x11 DUP4 PUSH4 0xFFFFFFFF AND PUSH2 0x2710 DUP2 LT PUSH2 0x1752 JUMPI PUSH2 0x1751 PUSH2 0x6D6F JUMP JUMPDEST JUMPDEST PUSH1 0x7 MUL ADD PUSH1 0x0 ADD SLOAD LT ISZERO PUSH2 0x179B JUMPI PUSH1 0x40 MLOAD PUSH32 0x8C379A000000000000000000000000000000000000000000000000000000000 DUP2 MSTORE PUSH1 0x4 ADD PUSH2 0x1792 SWAP1 PUSH2 0x670B JUMP JUMPDEST PUSH1 0x40 MLOAD DUP1 SWAP2 SUB SWAP1 REVERT JUMPDEST PUSH1 0xC PUSH1 0x0 SWAP1 SLOAD SWAP1 PUSH2 0x100 EXP SWAP1 DIV PUSH20 0xFFFFFFFFFFFFFFFFFFFFFFFFFFFFFFFFFFFFFFFF AND PUSH20 0xFFFFFFFFFFFFFFFFFFFFFFFFFFFFFFFFFFFFFFFF AND PUSH4 0x23B872DD ADDRESS CALLER DUP7 PUSH1 0x40 MLOAD DUP5 PUSH4 0xFFFFFFFF AND PUSH1 0xE0 SHL DUP2 MSTORE PUSH1 0x4 ADD PUSH2 0x17FA SWAP4 SWAP3 SWAP2 SWAP1 PUSH2 0x6062 JUMP JUMPDEST PUSH1 0x20 PUSH1 0x40 MLOAD DUP1 DUP4 SUB DUP2 PUSH1 0x0 DUP8 DUP1 EXTCODESIZE ISZERO DUP1 ISZERO PUSH2 0x1814 JUMPI PUSH1 0x0 DUP1 REVERT JUMPDEST POP GAS CALL ISZERO DUP1 ISZERO PUSH2 0x1828 JUMPI RETURNDATASIZE PUSH1 0x0 DUP1 RETURNDATACOPY RETURNDATASIZE PUSH1 0x0 REVERT JUMPDEST POP POP POP POP PUSH1 0x40 MLOAD RETURNDATASIZE PUSH1 0x1F NOT PUSH1 0x1F DUP3 ADD AND DUP3 ADD DUP1 PUSH1 0x40 MSTORE POP DUP2 ADD SWAP1 PUSH2 0x184C SWAP2 SWAP1 PUSH2 0x5736 JUMP JUMPDEST POP DUP3 PUSH1 0x11 DUP4 PUSH4 0xFFFFFFFF AND PUSH2 0x2710 DUP2 LT PUSH2 0x1869 JUMPI PUSH2 0x1868 PUSH2 0x6D6F JUMP JUMPDEST JUMPDEST PUSH1 0x7 MUL ADD PUSH1 0x0 ADD PUSH1 0x0 DUP3 DUP3 SLOAD PUSH2 0x187F SWAP2 SWAP1 PUSH2 0x6A8C JUMP JUMPDEST SWAP3 POP POP DUP2 SWAP1 SSTORE POP PUSH2 0x19E9 JUMP JUMPDEST PUSH1 0x1 DUP2 PUSH1 0xFF AND EQ ISZERO PUSH2 0x19E8 JUMPI DUP3 PUSH1 0x11 DUP4 PUSH4 0xFFFFFFFF AND PUSH2 0x2710 DUP2 LT PUSH2 0x18B3 JUMPI PUSH2 0x18B2 PUSH2 0x6D6F JUMP JUMPDEST JUMPDEST PUSH1 0x7 MUL ADD PUSH1 0x1 ADD SLOAD LT ISZERO PUSH2 0x18FC JUMPI PUSH1 0x40 MLOAD PUSH32 0x8C379A000000000000000000000000000000000000000000000000000000000 DUP2 MSTORE PUSH1 0x4 ADD PUSH2 0x18F3 SWAP1 PUSH2 0x648B JUMP JUMPDEST PUSH1 0x40 MLOAD DUP1 SWAP2 SUB SWAP1 REVERT JUMPDEST PUSH1 0xD PUSH1 0x0 SWAP1 SLOAD SWAP1 PUSH2 0x100 EXP SWAP1 DIV PUSH20 0xFFFFFFFFFFFFFFFFFFFFFFFFFFFFFFFFFFFFFFFF AND PUSH20 0xFFFFFFFFFFFFFFFFFFFFFFFFFFFFFFFFFFFFFFFF AND PUSH4 0x23B872DD ADDRESS CALLER DUP7 PUSH1 0x40 MLOAD DUP5 PUSH4 0xFFFFFFFF AND PUSH1 0xE0 SHL DUP2 MSTORE PUSH1 0x4 ADD PUSH2 0x195B SWAP4 SWAP3 SWAP2 SWAP1 PUSH2 0x6062 JUMP JUMPDEST PUSH1 0x20 PUSH1 0x40 MLOAD DUP1 DUP4 SUB DUP2 PUSH1 0x0 DUP8 DUP1 EXTCODESIZE ISZERO DUP1 ISZERO PUSH2 0x1975 JUMPI PUSH1 0x0 DUP1 REVERT JUMPDEST POP GAS CALL ISZERO DUP1 ISZERO PUSH2 0x1989 JUMPI RETURNDATASIZE PUSH1 0x0 DUP1 RETURNDATACOPY RETURNDATASIZE PUSH1 0x0 REVERT JUMPDEST POP POP POP POP PUSH1 0x40 MLOAD RETURNDATASIZE PUSH1 0x1F NOT PUSH1 0x1F DUP3 ADD AND DUP3 ADD DUP1 PUSH1 0x40 MSTORE POP DUP2 ADD SWAP1 PUSH2 0x19AD SWAP2 SWAP1 PUSH2 0x5736 JUMP JUMPDEST POP DUP3 PUSH1 0x11 DUP4 PUSH4 0xFFFFFFFF AND PUSH2 0x2710 DUP2 LT PUSH2 0x19CA JUMPI PUSH2 0x19C9 PUSH2 0x6D6F JUMP JUMPDEST JUMPDEST PUSH1 0x7 MUL ADD PUSH1 0x1 ADD PUSH1 0x0 DUP3 DUP3 SLOAD PUSH2 0x19E0 SWAP2 SWAP1 PUSH2 0x6A8C JUMP JUMPDEST SWAP3 POP POP DUP2 SWAP1 SSTORE POP JUMPDEST JUMPDEST POP POP POP JUMP JUMPDEST PUSH1 0x0 PUSH2 0x19F9 DUP3 PUSH2 0x45E4 JUMP JUMPDEST PUSH2 0x1A38 JUMPI PUSH1 0x40 MLOAD PUSH32 0x8C379A000000000000000000000000000000000000000000000000000000000 DUP2 MSTORE PUSH1 0x4 ADD PUSH2 0x1A2F SWAP1 PUSH2 0x654B JUMP JUMPDEST PUSH1 0x40 MLOAD DUP1 SWAP2 SUB SWAP1 REVERT JUMPDEST PUSH1 0x4 PUSH1 0x0 DUP4 DUP2 MSTORE PUSH1 0x20 ADD SWAP1 DUP2 MSTORE PUSH1 0x20 ADD PUSH1 0x0 KECCAK256 PUSH1 0x0 SWAP1 SLOAD SWAP1 PUSH2 0x100 EXP SWAP1 DIV PUSH20 0xFFFFFFFFFFFFFFFFFFFFFFFFFFFFFFFFFFFFFFFF AND SWAP1 POP SWAP2 SWAP1 POP JUMP JUMPDEST PUSH1 0x3C DUP2 JUMP JUMPDEST PUSH1 0x0 PUSH2 0x1A83 DUP3 PUSH2 0x2941 JUMP JUMPDEST SWAP1 POP DUP1 PUSH20 0xFFFFFFFFFFFFFFFFFFFFFFFFFFFFFFFFFFFFFFFF AND DUP4 PUSH20 0xFFFFFFFFFFFFFFFFFFFFFFFFFFFFFFFFFFFFFFFF AND EQ ISZERO PUSH2 0x1AF4 JUMPI PUSH1 0x40 MLOAD PUSH32 0x8C379A000000000000000000000000000000000000000000000000000000000 DUP2 MSTORE PUSH1 0x4 ADD PUSH2 0x1AEB SWAP1 PUSH2 0x662B JUMP JUMPDEST PUSH1 0x40 MLOAD DUP1 SWAP2 SUB SWAP1 REVERT JUMPDEST DUP1 PUSH20 0xFFFFFFFFFFFFFFFFFFFFFFFFFFFFFFFFFFFFFFFF AND PUSH2 0x1B13 PUSH2 0x4333 JUMP JUMPDEST PUSH20 0xFFFFFFFFFFFFFFFFFFFFFFFFFFFFFFFFFFFFFFFF AND EQ DUP1 PUSH2 0x1B42 JUMPI POP PUSH2 0x1B41 DUP2 PUSH2 0x1B3C PUSH2 0x4333 JUMP JUMPDEST PUSH2 0x3CF3 JUMP JUMPDEST JUMPDEST PUSH2 0x1B81 JUMPI PUSH1 0x40 MLOAD PUSH32 0x8C379A000000000000000000000000000000000000000000000000000000000 DUP2 MSTORE PUSH1 0x4 ADD PUSH2 0x1B78 SWAP1 PUSH2 0x64AB JUMP JUMPDEST PUSH1 0x40 MLOAD DUP1 SWAP2 SUB SWAP1 REVERT JUMPDEST PUSH2 0x1B8B DUP4 DUP4 PUSH2 0x4650 JUMP JUMPDEST POP POP POP JUMP JUMPDEST PUSH1 0x0 PUSH1 0xB PUSH1 0x0 SWAP1 SLOAD SWAP1 PUSH2 0x100 EXP SWAP1 DIV PUSH20 0xFFFFFFFFFFFFFFFFFFFFFFFFFFFFFFFFFFFFFFFF AND PUSH20 0xFFFFFFFFFFFFFFFFFFFFFFFFFFFFFFFFFFFFFFFF AND PUSH4 0x70A08231 ADDRESS PUSH1 0x40 MLOAD DUP3 PUSH4 0xFFFFFFFF AND PUSH1 0xE0 SHL DUP2 MSTORE PUSH1 0x4 ADD PUSH2 0x1BED SWAP2 SWAP1 PUSH2 0x6047 JUMP JUMPDEST PUSH1 0x20 PUSH1 0x40 MLOAD DUP1 DUP4 SUB DUP2 DUP7 DUP1 EXTCODESIZE ISZERO DUP1 ISZERO PUSH2 0x1C05 JUMPI PUSH1 0x0 DUP1 REVERT JUMPDEST POP GAS STATICCALL ISZERO DUP1 ISZERO PUSH2 0x1C19 JUMPI RETURNDATASIZE PUSH1 0x0 DUP1 RETURNDATACOPY RETURNDATASIZE PUSH1 0x0 REVERT JUMPDEST POP POP POP POP PUSH1 0x40 MLOAD RETURNDATASIZE PUSH1 0x1F NOT PUSH1 0x1F DUP3 ADD AND DUP3 ADD DUP1 PUSH1 0x40 MSTORE POP DUP2 ADD SWAP1 PUSH2 0x1C3D SWAP2 SWAP1 PUSH2 0x57EA JUMP JUMPDEST GT PUSH2 0x1C47 JUMPI PUSH1 0x0 DUP1 REVERT JUMPDEST PUSH1 0x0 CALLVALUE GT PUSH2 0x1C8A JUMPI PUSH1 0x40 MLOAD PUSH32 0x8C379A000000000000000000000000000000000000000000000000000000000 DUP2 MSTORE PUSH1 0x4 ADD PUSH2 0x1C81 SWAP1 PUSH2 0x636B JUMP JUMPDEST PUSH1 0x40 MLOAD DUP1 SWAP2 SUB SWAP1 REVERT JUMPDEST PUSH1 0x0 PUSH1 0xB PUSH1 0x0 SWAP1 SLOAD SWAP1 PUSH2 0x100 EXP SWAP1 DIV PUSH20 0xFFFFFFFFFFFFFFFFFFFFFFFFFFFFFFFFFFFFFFFF AND PUSH20 0xFFFFFFFFFFFFFFFFFFFFFFFFFFFFFFFFFFFFFFFF AND PUSH4 0x70A08231 ADDRESS PUSH1 0x40 MLOAD DUP3 PUSH4 0xFFFFFFFF AND PUSH1 0xE0 SHL DUP2 MSTORE PUSH1 0x4 ADD PUSH2 0x1CE7 SWAP2 SWAP1 PUSH2 0x6047 JUMP JUMPDEST PUSH1 0x20 PUSH1 0x40 MLOAD DUP1 DUP4 SUB DUP2 DUP7 DUP1 EXTCODESIZE ISZERO DUP1 ISZERO PUSH2 0x1CFF JUMPI PUSH1 0x0 DUP1 REVERT JUMPDEST POP GAS STATICCALL ISZERO DUP1 ISZERO PUSH2 0x1D13 JUMPI RETURNDATASIZE PUSH1 0x0 DUP1 RETURNDATACOPY RETURNDATASIZE PUSH1 0x0 REVERT JUMPDEST POP POP POP POP PUSH1 0x40 MLOAD RETURNDATASIZE PUSH1 0x1F NOT PUSH1 0x1F DUP3 ADD AND DUP3 ADD DUP1 PUSH1 0x40 MSTORE POP DUP2 ADD SWAP1 PUSH2 0x1D37 SWAP2 SWAP1 PUSH2 0x57EA JUMP JUMPDEST GT PUSH2 0x1D77 JUMPI PUSH1 0x40 MLOAD PUSH32 0x8C379A000000000000000000000000000000000000000000000000000000000 DUP2 MSTORE PUSH1 0x4 ADD PUSH2 0x1D6E SWAP1 PUSH2 0x66AB JUMP JUMPDEST PUSH1 0x40 MLOAD DUP1 SWAP2 SUB SWAP1 REVERT JUMPDEST PUSH1 0x0 PUSH1 0x6 PUSH1 0x14 SWAP1 SLOAD SWAP1 PUSH2 0x100 EXP SWAP1 DIV PUSH1 0xFF AND PUSH1 0xFF AND CALLVALUE PUSH2 0x1D97 SWAP2 SWAP1 PUSH2 0x6A32 JUMP JUMPDEST SWAP1 POP PUSH1 0xB PUSH1 0x0 SWAP1 SLOAD SWAP1 PUSH2 0x100 EXP SWAP1 DIV PUSH20 0xFFFFFFFFFFFFFFFFFFFFFFFFFFFFFFFFFFFFFFFF AND PUSH20 0xFFFFFFFFFFFFFFFFFFFFFFFFFFFFFFFFFFFFFFFF AND PUSH4 0xA9059CBB CALLER DUP4 PUSH1 0x40 MLOAD DUP4 PUSH4 0xFFFFFFFF AND PUSH1 0xE0 SHL DUP2 MSTORE PUSH1 0x4 ADD PUSH2 0x1DF6 SWAP3 SWAP2 SWAP1 PUSH2 0x61B7 JUMP JUMPDEST PUSH1 0x20 PUSH1 0x40 MLOAD DUP1 DUP4 SUB DUP2 PUSH1 0x0 DUP8 DUP1 EXTCODESIZE ISZERO DUP1 ISZERO PUSH2 0x1E10 JUMPI PUSH1 0x0 DUP1 REVERT JUMPDEST POP GAS CALL ISZERO DUP1 ISZERO PUSH2 0x1E24 JUMPI RETURNDATASIZE PUSH1 0x0 DUP1 RETURNDATACOPY RETURNDATASIZE PUSH1 0x0 REVERT JUMPDEST POP POP POP POP PUSH1 0x40 MLOAD RETURNDATASIZE PUSH1 0x1F NOT PUSH1 0x1F DUP3 ADD AND DUP3 ADD DUP1 PUSH1 0x40 MSTORE POP DUP2 ADD SWAP1 PUSH2 0x1E48 SWAP2 SWAP1 PUSH2 0x5736 JUMP JUMPDEST POP POP JUMP JUMPDEST PUSH1 0x0 DUP1 JUMPDEST PUSH3 0x11182 SLOAD DUP2 LT ISZERO PUSH2 0x1E94 JUMPI DUP3 PUSH3 0x11181 PUSH1 0x0 DUP4 DUP2 MSTORE PUSH1 0x20 ADD SWAP1 DUP2 MSTORE PUSH1 0x20 ADD PUSH1 0x0 KECCAK256 SLOAD EQ ISZERO PUSH2 0x1E81 JUMPI DUP1 SWAP2 POP PUSH2 0x1E94 JUMP JUMPDEST DUP1 DUP1 PUSH2 0x1E8C SWAP1 PUSH2 0x6C5E JUMP JUMPDEST SWAP2 POP POP PUSH2 0x1E50 JUMP JUMPDEST POP SWAP2 SWAP1 POP JUMP JUMPDEST PUSH2 0x2710 DUP2 JUMP JUMPDEST PUSH1 0x11 DUP2 PUSH2 0x2710 DUP2 LT PUSH2 0x1EB1 JUMPI PUSH1 0x0 DUP1 REVERT JUMPDEST PUSH1 0x7 MUL ADD PUSH1 0x0 SWAP2 POP SWAP1 POP DUP1 PUSH1 0x0 ADD SLOAD SWAP1 DUP1 PUSH1 0x1 ADD SLOAD SWAP1 DUP1 PUSH1 0x2 ADD SLOAD SWAP1 DUP1 PUSH1 0x3 ADD SLOAD SWAP1 DUP1 PUSH1 0x4 ADD SLOAD SWAP1 DUP1 PUSH1 0x5 ADD SLOAD SWAP1 DUP1 PUSH1 0x6 ADD SLOAD SWAP1 POP DUP8 JUMP JUMPDEST PUSH2 0x1EFA PUSH2 0x1EF4 PUSH2 0x4333 JUMP JUMPDEST DUP3 PUSH2 0x4709 JUMP JUMPDEST PUSH2 0x1F39 JUMPI PUSH1 0x40 MLOAD PUSH32 0x8C379A000000000000000000000000000000000000000000000000000000000 DUP2 MSTORE PUSH1 0x4 ADD PUSH2 0x1F30 SWAP1 PUSH2 0x664B JUMP JUMPDEST PUSH1 0x40 MLOAD DUP1 SWAP2 SUB SWAP1 REVERT JUMPDEST PUSH2 0x1F44 DUP4 DUP4 DUP4 PUSH2 0x47E7 JUMP JUMPDEST POP POP POP JUMP JUMPDEST PUSH1 0x0 DUP1 PUSH2 0x1F54 PUSH2 0x3B73 JUMP JUMPDEST SWAP1 POP DUP3 PUSH1 0x0 LT DUP1 ISZERO PUSH2 0x1F66 JUMPI POP DUP1 DUP4 GT ISZERO JUMPDEST PUSH2 0x1FA5 JUMPI PUSH1 0x40 MLOAD PUSH32 0x8C379A000000000000000000000000000000000000000000000000000000000 DUP2 MSTORE PUSH1 0x4 ADD PUSH2 0x1F9C SWAP1 PUSH2 0x660B JUMP JUMPDEST PUSH1 0x40 MLOAD DUP1 SWAP2 SUB SWAP1 REVERT JUMPDEST PUSH1 0x0 PUSH2 0x1FB0 DUP5 PUSH2 0x2B6C JUMP JUMPDEST SWAP1 POP PUSH1 0x1 DUP2 EQ ISZERO PUSH2 0x1FC4 JUMPI PUSH1 0x0 SWAP3 POP PUSH2 0x200A JUMP JUMPDEST PUSH1 0x0 PUSH1 0x2 DUP6 PUSH2 0x1FD3 SWAP2 SWAP1 PUSH2 0x6CB1 JUMP JUMPDEST EQ ISZERO PUSH2 0x1FED JUMPI PUSH1 0x2 DUP2 PUSH2 0x1FE6 SWAP2 SWAP1 PUSH2 0x6A01 JUMP JUMPDEST SWAP3 POP PUSH2 0x2009 JUMP JUMPDEST PUSH1 0x2 PUSH1 0x1 DUP3 PUSH2 0x1FFC SWAP2 SWAP1 PUSH2 0x6A8C JUMP JUMPDEST PUSH2 0x2006 SWAP2 SWAP1 PUSH2 0x6A01 JUMP JUMPDEST SWAP3 POP JUMPDEST JUMPDEST POP POP SWAP2 SWAP1 POP JUMP JUMPDEST PUSH1 0x0 PUSH2 0x201B PUSH2 0x4333 JUMP JUMPDEST PUSH20 0xFFFFFFFFFFFFFFFFFFFFFFFFFFFFFFFFFFFFFFFF AND PUSH2 0x2039 PUSH2 0x3310 JUMP JUMPDEST PUSH20 0xFFFFFFFFFFFFFFFFFFFFFFFFFFFFFFFFFFFFFFFF AND EQ PUSH2 0x208F JUMPI PUSH1 0x40 MLOAD PUSH32 0x8C379A000000000000000000000000000000000000000000000000000000000 DUP2 MSTORE PUSH1 0x4 ADD PUSH2 0x2086 SWAP1 PUSH2 0x658B JUMP JUMPDEST PUSH1 0x40 MLOAD DUP1 SWAP2 SUB SWAP1 REVERT JUMPDEST PUSH1 0x0 PUSH2 0x209A DUP4 PUSH2 0x2941 JUMP JUMPDEST SWAP1 POP PUSH2 0x20A7 DUP2 ADDRESS DUP6 PUSH2 0x47E7 JUMP JUMPDEST PUSH1 0x0 PUSH2 0x1A0A SWAP1 POP PUSH1 0x0 JUMPDEST PUSH3 0x11183 PUSH1 0x0 DUP5 PUSH20 0xFFFFFFFFFFFFFFFFFFFFFFFFFFFFFFFFFFFFFFFF AND PUSH20 0xFFFFFFFFFFFFFFFFFFFFFFFFFFFFFFFFFFFFFFFF AND DUP2 MSTORE PUSH1 0x20 ADD SWAP1 DUP2 MSTORE PUSH1 0x20 ADD PUSH1 0x0 KECCAK256 DUP1 SLOAD SWAP1 POP DUP2 LT ISZERO PUSH2 0x217D JUMPI DUP5 PUSH3 0x11183 PUSH1 0x0 DUP6 PUSH20 0xFFFFFFFFFFFFFFFFFFFFFFFFFFFFFFFFFFFFFFFF AND PUSH20 0xFFFFFFFFFFFFFFFFFFFFFFFFFFFFFFFFFFFFFFFF AND DUP2 MSTORE PUSH1 0x20 ADD SWAP1 DUP2 MSTORE PUSH1 0x20 ADD PUSH1 0x0 KECCAK256 DUP3 DUP2 SLOAD DUP2 LT PUSH2 0x2151 JUMPI PUSH2 0x2150 PUSH2 0x6D6F JUMP JUMPDEST JUMPDEST SWAP1 PUSH1 0x0 MSTORE PUSH1 0x20 PUSH1 0x0 KECCAK256 ADD SLOAD EQ ISZERO PUSH2 0x216A JUMPI DUP1 SWAP2 POP PUSH2 0x217D JUMP JUMPDEST DUP1 DUP1 PUSH2 0x2175 SWAP1 PUSH2 0x6C5E JUMP JUMPDEST SWAP2 POP POP PUSH2 0x20B1 JUMP JUMPDEST POP PUSH2 0x1A0A DUP2 EQ ISZERO PUSH2 0x21C3 JUMPI PUSH1 0x40 MLOAD PUSH32 0x8C379A000000000000000000000000000000000000000000000000000000000 DUP2 MSTORE PUSH1 0x4 ADD PUSH2 0x21BA SWAP1 PUSH2 0x65AB JUMP JUMPDEST PUSH1 0x40 MLOAD DUP1 SWAP2 SUB SWAP1 REVERT JUMPDEST PUSH3 0x11183 PUSH1 0x0 DUP4 PUSH20 0xFFFFFFFFFFFFFFFFFFFFFFFFFFFFFFFFFFFFFFFF AND PUSH20 0xFFFFFFFFFFFFFFFFFFFFFFFFFFFFFFFFFFFFFFFF AND DUP2 MSTORE PUSH1 0x20 ADD SWAP1 DUP2 MSTORE PUSH1 0x20 ADD PUSH1 0x0 KECCAK256 DUP2 DUP2 SLOAD DUP2 LT PUSH2 0x2216 JUMPI PUSH2 0x2215 PUSH2 0x6D6F JUMP JUMPDEST JUMPDEST SWAP1 PUSH1 0x0 MSTORE PUSH1 0x20 PUSH1 0x0 KECCAK256 ADD PUSH1 0x0 SWAP1 SSTORE PUSH1 0x1 SWAP3 POP POP POP SWAP2 SWAP1 POP JUMP JUMPDEST PUSH1 0x6 PUSH1 0x14 SWAP1 SLOAD SWAP1 PUSH2 0x100 EXP SWAP1 DIV PUSH1 0xFF AND DUP2 JUMP JUMPDEST PUSH1 0xD PUSH1 0x0 SWAP1 SLOAD SWAP1 PUSH2 0x100 EXP SWAP1 DIV PUSH20 0xFFFFFFFFFFFFFFFFFFFFFFFFFFFFFFFFFFFFFFFF AND DUP2 JUMP JUMPDEST PUSH2 0x2283 DUP4 DUP4 DUP4 PUSH1 0x40 MLOAD DUP1 PUSH1 0x20 ADD PUSH1 0x40 MSTORE DUP1 PUSH1 0x0 DUP2 MSTORE POP PUSH2 0x399A JUMP JUMPDEST POP POP POP JUMP JUMPDEST PUSH1 0x0 PUSH1 0xC PUSH1 0x0 SWAP1 SLOAD SWAP1 PUSH2 0x100 EXP SWAP1 DIV PUSH20 0xFFFFFFFFFFFFFFFFFFFFFFFFFFFFFFFFFFFFFFFF AND PUSH20 0xFFFFFFFFFFFFFFFFFFFFFFFFFFFFFFFFFFFFFFFF AND PUSH4 0x70A08231 ADDRESS PUSH1 0x40 MLOAD DUP3 PUSH4 0xFFFFFFFF AND PUSH1 0xE0 SHL DUP2 MSTORE PUSH1 0x4 ADD PUSH2 0x22E5 SWAP2 SWAP1 PUSH2 0x6047 JUMP JUMPDEST PUSH1 0x20 PUSH1 0x40 MLOAD DUP1 DUP4 SUB DUP2 DUP7 DUP1 EXTCODESIZE ISZERO DUP1 ISZERO PUSH2 0x22FD JUMPI PUSH1 0x0 DUP1 REVERT JUMPDEST POP GAS STATICCALL ISZERO DUP1 ISZERO PUSH2 0x2311 JUMPI RETURNDATASIZE PUSH1 0x0 DUP1 RETURNDATACOPY RETURNDATASIZE PUSH1 0x0 REVERT JUMPDEST POP POP POP POP PUSH1 0x40 MLOAD RETURNDATASIZE PUSH1 0x1F NOT PUSH1 0x1F DUP3 ADD AND DUP3 ADD DUP1 PUSH1 0x40 MSTORE POP DUP2 ADD SWAP1 PUSH2 0x2335 SWAP2 SWAP1 PUSH2 0x57EA JUMP JUMPDEST GT PUSH2 0x233F JUMPI PUSH1 0x0 DUP1 REVERT JUMPDEST PUSH1 0x0 PUSH1 0xD PUSH1 0x0 SWAP1 SLOAD SWAP1 PUSH2 0x100 EXP SWAP1 DIV PUSH20 0xFFFFFFFFFFFFFFFFFFFFFFFFFFFFFFFFFFFFFFFF AND PUSH20 0xFFFFFFFFFFFFFFFFFFFFFFFFFFFFFFFFFFFFFFFF AND PUSH4 0x70A08231 ADDRESS PUSH1 0x40 MLOAD DUP3 PUSH4 0xFFFFFFFF AND PUSH1 0xE0 SHL DUP2 MSTORE PUSH1 0x4 ADD PUSH2 0x239C SWAP2 SWAP1 PUSH2 0x6047 JUMP JUMPDEST PUSH1 0x20 PUSH1 0x40 MLOAD DUP1 DUP4 SUB DUP2 DUP7 DUP1 EXTCODESIZE ISZERO DUP1 ISZERO PUSH2 0x23B4 JUMPI PUSH1 0x0 DUP1 REVERT JUMPDEST POP GAS STATICCALL ISZERO DUP1 ISZERO PUSH2 0x23C8 JUMPI RETURNDATASIZE PUSH1 0x0 DUP1 RETURNDATACOPY RETURNDATASIZE PUSH1 0x0 REVERT JUMPDEST POP POP POP POP PUSH1 0x40 MLOAD RETURNDATASIZE PUSH1 0x1F NOT PUSH1 0x1F DUP3 ADD AND DUP3 ADD DUP1 PUSH1 0x40 MSTORE POP DUP2 ADD SWAP1 PUSH2 0x23EC SWAP2 SWAP1 PUSH2 0x57EA JUMP JUMPDEST GT PUSH2 0x23F6 JUMPI PUSH1 0x0 DUP1 REVERT JUMPDEST PUSH1 0x0 PUSH1 0xB PUSH1 0x0 SWAP1 SLOAD SWAP1 PUSH2 0x100 EXP SWAP1 DIV PUSH20 0xFFFFFFFFFFFFFFFFFFFFFFFFFFFFFFFFFFFFFFFF AND PUSH20 0xFFFFFFFFFFFFFFFFFFFFFFFFFFFFFFFFFFFFFFFF AND PUSH4 0x70A08231 CALLER PUSH1 0x40 MLOAD DUP3 PUSH4 0xFFFFFFFF AND PUSH1 0xE0 SHL DUP2 MSTORE PUSH1 0x4 ADD PUSH2 0x2453 SWAP2 SWAP1 PUSH2 0x6047 JUMP JUMPDEST PUSH1 0x20 PUSH1 0x40 MLOAD DUP1 DUP4 SUB DUP2 DUP7 DUP1 EXTCODESIZE ISZERO DUP1 ISZERO PUSH2 0x246B JUMPI PUSH1 0x0 DUP1 REVERT JUMPDEST POP GAS STATICCALL ISZERO DUP1 ISZERO PUSH2 0x247F JUMPI RETURNDATASIZE PUSH1 0x0 DUP1 RETURNDATACOPY RETURNDATASIZE PUSH1 0x0 REVERT JUMPDEST POP POP POP POP PUSH1 0x40 MLOAD RETURNDATASIZE PUSH1 0x1F NOT PUSH1 0x1F DUP3 ADD AND DUP3 ADD DUP1 PUSH1 0x40 MSTORE POP DUP2 ADD SWAP1 PUSH2 0x24A3 SWAP2 SWAP1 PUSH2 0x57EA JUMP JUMPDEST SWAP1 POP DUP3 DUP2 LT ISZERO DUP1 ISZERO PUSH2 0x24B5 JUMPI POP PUSH1 0x0 DUP4 GT JUMPDEST PUSH2 0x24F4 JUMPI PUSH1 0x40 MLOAD PUSH32 0x8C379A000000000000000000000000000000000000000000000000000000000 DUP2 MSTORE PUSH1 0x4 ADD PUSH2 0x24EB SWAP1 PUSH2 0x62EB JUMP JUMPDEST PUSH1 0x40 MLOAD DUP1 SWAP2 SUB SWAP1 REVERT JUMPDEST PUSH1 0x0 DUP3 PUSH1 0xFF AND EQ DUP1 PUSH2 0x2509 JUMPI POP PUSH1 0x1 DUP3 PUSH1 0xFF AND EQ JUMPDEST PUSH2 0x2548 JUMPI PUSH1 0x40 MLOAD PUSH32 0x8C379A000000000000000000000000000000000000000000000000000000000 DUP2 MSTORE PUSH1 0x4 ADD PUSH2 0x253F SWAP1 PUSH2 0x646B JUMP JUMPDEST PUSH1 0x40 MLOAD DUP1 SWAP2 SUB SWAP1 REVERT JUMPDEST PUSH1 0x0 DUP3 PUSH1 0xFF AND EQ ISZERO PUSH2 0x25A7 JUMPI CALLER PUSH20 0xFFFFFFFFFFFFFFFFFFFFFFFFFFFFFFFFFFFFFFFF AND PUSH32 0x44D00596AEDD88FCA0607C9A84113FD638C9A070D5EF8D77C072080B688D8E34 DUP5 PUSH1 0x40 MLOAD PUSH2 0x259A SWAP2 SWAP1 PUSH2 0x6746 JUMP JUMPDEST PUSH1 0x40 MLOAD DUP1 SWAP2 SUB SWAP1 LOG2 PUSH2 0x2603 JUMP JUMPDEST PUSH1 0x1 DUP3 PUSH1 0xFF AND EQ ISZERO PUSH2 0x2602 JUMPI CALLER PUSH20 0xFFFFFFFFFFFFFFFFFFFFFFFFFFFFFFFFFFFFFFFF AND PUSH32 0x49B4D6E22C9904766197183F9DC1F362CEFB04F39E3850A8B7D83FF2C26216F DUP5 PUSH1 0x40 MLOAD PUSH2 0x25F9 SWAP2 SWAP1 PUSH2 0x6746 JUMP JUMPDEST PUSH1 0x40 MLOAD DUP1 SWAP2 SUB SWAP1 LOG2 JUMPDEST JUMPDEST PUSH1 0xB PUSH1 0x0 SWAP1 SLOAD SWAP1 PUSH2 0x100 EXP SWAP1 DIV PUSH20 0xFFFFFFFFFFFFFFFFFFFFFFFFFFFFFFFFFFFFFFFF AND PUSH20 0xFFFFFFFFFFFFFFFFFFFFFFFFFFFFFFFFFFFFFFFF AND PUSH4 0x23B872DD CALLER ADDRESS DUP7 PUSH1 0x40 MLOAD DUP5 PUSH4 0xFFFFFFFF AND PUSH1 0xE0 SHL DUP2 MSTORE PUSH1 0x4 ADD PUSH2 0x2662 SWAP4 SWAP3 SWAP2 SWAP1 PUSH2 0x6062 JUMP JUMPDEST PUSH1 0x20 PUSH1 0x40 MLOAD DUP1 DUP4 SUB DUP2 PUSH1 0x0 DUP8 DUP1 EXTCODESIZE ISZERO DUP1 ISZERO PUSH2 0x267C JUMPI PUSH1 0x0 DUP1 REVERT JUMPDEST POP GAS CALL ISZERO DUP1 ISZERO PUSH2 0x2690 JUMPI RETURNDATASIZE PUSH1 0x0 DUP1 RETURNDATACOPY RETURNDATASIZE PUSH1 0x0 REVERT JUMPDEST POP POP POP POP PUSH1 0x40 MLOAD RETURNDATASIZE PUSH1 0x1F NOT PUSH1 0x1F DUP3 ADD AND DUP3 ADD DUP1 PUSH1 0x40 MSTORE POP DUP2 ADD SWAP1 PUSH2 0x26B4 SWAP2 SWAP1 PUSH2 0x5736 JUMP JUMPDEST POP PUSH1 0x10 PUSH1 0x0 CALLER PUSH20 0xFFFFFFFFFFFFFFFFFFFFFFFFFFFFFFFFFFFFFFFF AND PUSH20 0xFFFFFFFFFFFFFFFFFFFFFFFFFFFFFFFFFFFFFFFF AND DUP2 MSTORE PUSH1 0x20 ADD SWAP1 DUP2 MSTORE PUSH1 0x20 ADD PUSH1 0x0 KECCAK256 PUSH1 0x40 MLOAD DUP1 PUSH1 0x60 ADD PUSH1 0x40 MSTORE DUP1 DUP6 DUP2 MSTORE PUSH1 0x20 ADD DUP5 PUSH1 0xFF AND DUP2 MSTORE PUSH1 0x20 ADD PUSH1 0x7 SLOAD TIMESTAMP PUSH2 0x271C SWAP2 SWAP1 PUSH2 0x6974 JUMP JUMPDEST DUP2 MSTORE POP SWAP1 DUP1 PUSH1 0x1 DUP2 SLOAD ADD DUP1 DUP3 SSTORE DUP1 SWAP2 POP POP PUSH1 0x1 SWAP1 SUB SWAP1 PUSH1 0x0 MSTORE PUSH1 0x20 PUSH1 0x0 KECCAK256 SWAP1 PUSH1 0x3 MUL ADD PUSH1 0x0 SWAP1 SWAP2 SWAP1 SWAP2 SWAP1 SWAP2 POP PUSH1 0x0 DUP3 ADD MLOAD DUP2 PUSH1 0x0 ADD SSTORE PUSH1 0x20 DUP3 ADD MLOAD DUP2 PUSH1 0x1 ADD PUSH1 0x0 PUSH2 0x100 EXP DUP2 SLOAD DUP2 PUSH1 0xFF MUL NOT AND SWAP1 DUP4 PUSH1 0xFF AND MUL OR SWAP1 SSTORE POP PUSH1 0x40 DUP3 ADD MLOAD DUP2 PUSH1 0x2 ADD SSTORE POP POP POP POP POP JUMP JUMPDEST PUSH1 0x0 DUP1 PUSH1 0x0 DUP1 PUSH1 0x0 DUP1 PUSH2 0x2795 PUSH2 0x3B73 JUMP JUMPDEST DUP8 GT ISZERO PUSH2 0x27D7 JUMPI PUSH1 0x40 MLOAD PUSH32 0x8C379A000000000000000000000000000000000000000000000000000000000 DUP2 MSTORE PUSH1 0x4 ADD PUSH2 0x27CE SWAP1 PUSH2 0x642B JUMP JUMPDEST PUSH1 0x40 MLOAD DUP1 SWAP2 SUB SWAP1 REVERT JUMPDEST PUSH1 0x11 DUP8 PUSH2 0x2710 DUP2 LT PUSH2 0x27EC JUMPI PUSH2 0x27EB PUSH2 0x6D6F JUMP JUMPDEST JUMPDEST PUSH1 0x7 MUL ADD PUSH1 0x0 ADD SLOAD SWAP6 POP PUSH1 0x11 DUP8 PUSH2 0x2710 DUP2 LT PUSH2 0x280B JUMPI PUSH2 0x280A PUSH2 0x6D6F JUMP JUMPDEST JUMPDEST PUSH1 0x7 MUL ADD PUSH1 0x1 ADD SLOAD SWAP5 POP TIMESTAMP PUSH1 0x11 DUP9 PUSH2 0x2710 DUP2 LT PUSH2 0x282B JUMPI PUSH2 0x282A PUSH2 0x6D6F JUMP JUMPDEST JUMPDEST PUSH1 0x7 MUL ADD PUSH1 0x2 ADD SLOAD LT ISZERO SWAP4 POP PUSH1 0x11 DUP8 PUSH2 0x2710 DUP2 LT PUSH2 0x284C JUMPI PUSH2 0x284B PUSH2 0x6D6F JUMP JUMPDEST JUMPDEST PUSH1 0x7 MUL ADD PUSH1 0x4 ADD SLOAD SWAP3 POP PUSH1 0x11 DUP8 PUSH2 0x2710 DUP2 LT PUSH2 0x286B JUMPI PUSH2 0x286A PUSH2 0x6D6F JUMP JUMPDEST JUMPDEST PUSH1 0x7 MUL ADD PUSH1 0x5 ADD SLOAD SWAP2 POP PUSH1 0x11 DUP8 PUSH2 0x2710 DUP2 LT PUSH2 0x288A JUMPI PUSH2 0x2889 PUSH2 0x6D6F JUMP JUMPDEST JUMPDEST PUSH1 0x7 MUL ADD PUSH1 0x6 ADD SLOAD SWAP1 POP SWAP2 SWAP4 SWAP6 POP SWAP2 SWAP4 SWAP6 JUMP JUMPDEST PUSH1 0x40 MLOAD DUP1 PUSH1 0x60 ADD PUSH1 0x40 MSTORE DUP1 PUSH1 0x25 DUP2 MSTORE PUSH1 0x20 ADD PUSH2 0x78B5 PUSH1 0x25 SWAP2 CODECOPY DUP2 JUMP JUMPDEST PUSH1 0x0 DUP1 PUSH1 0x0 PUSH2 0x28C6 PUSH2 0x3B73 JUMP JUMPDEST SWAP1 POP DUP1 DUP5 GT ISZERO PUSH2 0x290B JUMPI PUSH1 0x40 MLOAD PUSH32 0x8C379A000000000000000000000000000000000000000000000000000000000 DUP2 MSTORE PUSH1 0x4 ADD PUSH2 0x2902 SWAP1 PUSH2 0x660B JUMP JUMPDEST PUSH1 0x40 MLOAD DUP1 SWAP2 SUB SWAP1 REVERT JUMPDEST PUSH2 0x2914 DUP5 PUSH2 0x4A43 JUMP JUMPDEST SWAP3 POP PUSH2 0x291F DUP5 PUSH2 0x4A59 JUMP JUMPDEST SWAP2 POP DUP1 DUP4 GT ISZERO PUSH2 0x292E JUMPI PUSH1 0x0 SWAP3 POP JUMPDEST DUP1 DUP3 GT ISZERO PUSH2 0x293B JUMPI PUSH1 0x0 SWAP2 POP JUMPDEST POP SWAP2 POP SWAP2 JUMP JUMPDEST PUSH1 0x0 DUP1 PUSH1 0x2 PUSH1 0x0 DUP5 DUP2 MSTORE PUSH1 0x20 ADD SWAP1 DUP2 MSTORE PUSH1 0x20 ADD PUSH1 0x0 KECCAK256 PUSH1 0x0 SWAP1 SLOAD SWAP1 PUSH2 0x100 EXP SWAP1 DIV PUSH20 0xFFFFFFFFFFFFFFFFFFFFFFFFFFFFFFFFFFFFFFFF AND SWAP1 POP PUSH1 0x0 PUSH20 0xFFFFFFFFFFFFFFFFFFFFFFFFFFFFFFFFFFFFFFFF AND DUP2 PUSH20 0xFFFFFFFFFFFFFFFFFFFFFFFFFFFFFFFFFFFFFFFF AND EQ ISZERO PUSH2 0x29EA JUMPI PUSH1 0x40 MLOAD PUSH32 0x8C379A000000000000000000000000000000000000000000000000000000000 DUP2 MSTORE PUSH1 0x4 ADD PUSH2 0x29E1 SWAP1 PUSH2 0x64EB JUMP JUMPDEST PUSH1 0x40 MLOAD DUP1 SWAP2 SUB SWAP1 REVERT JUMPDEST DUP1 SWAP2 POP POP SWAP2 SWAP1 POP JUMP JUMPDEST PUSH1 0x6 PUSH1 0x17 SWAP1 SLOAD SWAP1 PUSH2 0x100 EXP SWAP1 DIV PUSH1 0xFF AND DUP2 JUMP JUMPDEST PUSH1 0x0 DUP1 PUSH20 0xFFFFFFFFFFFFFFFFFFFFFFFFFFFFFFFFFFFFFFFF AND DUP3 PUSH20 0xFFFFFFFFFFFFFFFFFFFFFFFFFFFFFFFFFFFFFFFF AND EQ ISZERO PUSH2 0x2A77 JUMPI PUSH1 0x40 MLOAD PUSH32 0x8C379A000000000000000000000000000000000000000000000000000000000 DUP2 MSTORE PUSH1 0x4 ADD PUSH2 0x2A6E SWAP1 PUSH2 0x64CB JUMP JUMPDEST PUSH1 0x40 MLOAD DUP1 SWAP2 SUB SWAP1 REVERT JUMPDEST PUSH1 0x3 PUSH1 0x0 DUP4 PUSH20 0xFFFFFFFFFFFFFFFFFFFFFFFFFFFFFFFFFFFFFFFF AND PUSH20 0xFFFFFFFFFFFFFFFFFFFFFFFFFFFFFFFFFFFFFFFF AND DUP2 MSTORE PUSH1 0x20 ADD SWAP1 DUP2 MSTORE PUSH1 0x20 ADD PUSH1 0x0 KECCAK256 SLOAD SWAP1 POP SWAP2 SWAP1 POP JUMP JUMPDEST PUSH2 0x2AC6 PUSH2 0x4333 JUMP JUMPDEST PUSH20 0xFFFFFFFFFFFFFFFFFFFFFFFFFFFFFFFFFFFFFFFF AND PUSH2 0x2AE4 PUSH2 0x3310 JUMP JUMPDEST PUSH20 0xFFFFFFFFFFFFFFFFFFFFFFFFFFFFFFFFFFFFFFFF AND EQ PUSH2 0x2B3A JUMPI PUSH1 0x40 MLOAD PUSH32 0x8C379A000000000000000000000000000000000000000000000000000000000 DUP2 MSTORE PUSH1 0x4 ADD PUSH2 0x2B31 SWAP1 PUSH2 0x658B JUMP JUMPDEST PUSH1 0x40 MLOAD DUP1 SWAP2 SUB SWAP1 REVERT JUMPDEST PUSH2 0x2B44 PUSH1 0x0 PUSH2 0x4A77 JUMP JUMPDEST JUMP JUMPDEST PUSH1 0xC PUSH1 0x0 SWAP1 SLOAD SWAP1 PUSH2 0x100 EXP SWAP1 DIV PUSH20 0xFFFFFFFFFFFFFFFFFFFFFFFFFFFFFFFFFFFFFFFF AND DUP2 JUMP JUMPDEST PUSH1 0x0 PUSH3 0x11181 PUSH1 0x0 DUP4 DUP2 MSTORE PUSH1 0x20 ADD SWAP1 DUP2 MSTORE PUSH1 0x20 ADD PUSH1 0x0 KECCAK256 SLOAD SWAP1 POP SWAP2 SWAP1 POP JUMP JUMPDEST PUSH1 0xA SLOAD DUP2 JUMP JUMPDEST PUSH2 0x2B99 PUSH2 0x5424 JUMP JUMPDEST PUSH1 0x40 MLOAD DUP1 PUSH1 0x60 ADD PUSH1 0x40 MSTORE DUP1 PUSH3 0x98967F DUP2 MSTORE PUSH1 0x20 ADD PUSH3 0x98967F DUP2 MSTORE PUSH1 0x20 ADD PUSH1 0x0 DUP2 MSTORE POP SWAP1 POP PUSH1 0x0 JUMPDEST PUSH1 0x10 PUSH1 0x0 CALLER PUSH20 0xFFFFFFFFFFFFFFFFFFFFFFFFFFFFFFFFFFFFFFFF AND PUSH20 0xFFFFFFFFFFFFFFFFFFFFFFFFFFFFFFFFFFFFFFFF AND DUP2 MSTORE PUSH1 0x20 ADD SWAP1 DUP2 MSTORE PUSH1 0x20 ADD PUSH1 0x0 KECCAK256 DUP1 SLOAD SWAP1 POP DUP2 LT ISZERO PUSH2 0x2E2C JUMPI PUSH1 0x0 PUSH1 0x10 PUSH1 0x0 CALLER PUSH20 0xFFFFFFFFFFFFFFFFFFFFFFFFFFFFFFFFFFFFFFFF AND PUSH20 0xFFFFFFFFFFFFFFFFFFFFFFFFFFFFFFFFFFFFFFFF AND DUP2 MSTORE PUSH1 0x20 ADD SWAP1 DUP2 MSTORE PUSH1 0x20 ADD PUSH1 0x0 KECCAK256 DUP3 DUP2 SLOAD DUP2 LT PUSH2 0x2C5D JUMPI PUSH2 0x2C5C PUSH2 0x6D6F JUMP JUMPDEST JUMPDEST SWAP1 PUSH1 0x0 MSTORE PUSH1 0x20 PUSH1 0x0 KECCAK256 SWAP1 PUSH1 0x3 MUL ADD PUSH1 0x40 MLOAD DUP1 PUSH1 0x60 ADD PUSH1 0x40 MSTORE SWAP1 DUP2 PUSH1 0x0 DUP3 ADD SLOAD DUP2 MSTORE PUSH1 0x20 ADD PUSH1 0x1 DUP3 ADD PUSH1 0x0 SWAP1 SLOAD SWAP1 PUSH2 0x100 EXP SWAP1 DIV PUSH1 0xFF AND PUSH1 0xFF AND PUSH1 0xFF AND DUP2 MSTORE PUSH1 0x20 ADD PUSH1 0x2 DUP3 ADD SLOAD DUP2 MSTORE POP POP SWAP1 POP PUSH1 0x0 DUP2 PUSH1 0x40 ADD MLOAD EQ ISZERO PUSH2 0x2CBC JUMPI POP PUSH2 0x2E19 JUMP JUMPDEST DUP3 PUSH1 0x2 PUSH1 0x3 DUP2 LT PUSH2 0x2CD0 JUMPI PUSH2 0x2CCF PUSH2 0x6D6F JUMP JUMPDEST JUMPDEST PUSH1 0x20 MUL ADD DUP1 MLOAD DUP1 SWAP2 SWAP1 PUSH2 0x2CE2 SWAP1 PUSH2 0x6C5E JUMP JUMPDEST DUP2 MSTORE POP POP PUSH1 0x0 DUP2 PUSH1 0x20 ADD MLOAD PUSH1 0xFF AND EQ ISZERO PUSH2 0x2D80 JUMPI TIMESTAMP DUP2 PUSH1 0x40 ADD MLOAD GT ISZERO PUSH2 0x2D5B JUMPI PUSH1 0x0 TIMESTAMP DUP3 PUSH1 0x40 ADD MLOAD PUSH2 0x2D14 SWAP2 SWAP1 PUSH2 0x6A8C JUMP JUMPDEST SWAP1 POP DUP4 PUSH1 0x0 PUSH1 0x3 DUP2 LT PUSH2 0x2D2A JUMPI PUSH2 0x2D29 PUSH2 0x6D6F JUMP JUMPDEST JUMPDEST PUSH1 0x20 MUL ADD MLOAD DUP2 LT ISZERO PUSH2 0x2D55 JUMPI DUP1 DUP5 PUSH1 0x0 PUSH1 0x3 DUP2 LT PUSH2 0x2D4B JUMPI PUSH2 0x2D4A PUSH2 0x6D6F JUMP JUMPDEST JUMPDEST PUSH1 0x20 MUL ADD DUP2 DUP2 MSTORE POP POP JUMPDEST POP PUSH2 0x2D7B JUMP JUMPDEST PUSH1 0x0 DUP4 PUSH1 0x0 PUSH1 0x3 DUP2 LT PUSH2 0x2D71 JUMPI PUSH2 0x2D70 PUSH2 0x6D6F JUMP JUMPDEST JUMPDEST PUSH1 0x20 MUL ADD DUP2 DUP2 MSTORE POP POP JUMPDEST PUSH2 0x2E17 JUMP JUMPDEST PUSH1 0x1 DUP2 PUSH1 0x20 ADD MLOAD PUSH1 0xFF AND EQ ISZERO PUSH2 0x2E16 JUMPI TIMESTAMP DUP2 PUSH1 0x40 ADD MLOAD GT ISZERO PUSH2 0x2DF5 JUMPI PUSH1 0x0 TIMESTAMP DUP3 PUSH1 0x40 ADD MLOAD PUSH2 0x2DAE SWAP2 SWAP1 PUSH2 0x6A8C JUMP JUMPDEST SWAP1 POP DUP4 PUSH1 0x0 PUSH1 0x3 DUP2 LT PUSH2 0x2DC4 JUMPI PUSH2 0x2DC3 PUSH2 0x6D6F JUMP JUMPDEST JUMPDEST PUSH1 0x20 MUL ADD MLOAD DUP2 LT ISZERO PUSH2 0x2DEF JUMPI DUP1 DUP5 PUSH1 0x1 PUSH1 0x3 DUP2 LT PUSH2 0x2DE5 JUMPI PUSH2 0x2DE4 PUSH2 0x6D6F JUMP JUMPDEST JUMPDEST PUSH1 0x20 MUL ADD DUP2 DUP2 MSTORE POP POP JUMPDEST POP PUSH2 0x2E15 JUMP JUMPDEST PUSH1 0x0 DUP4 PUSH1 0x1 PUSH1 0x3 DUP2 LT PUSH2 0x2E0B JUMPI PUSH2 0x2E0A PUSH2 0x6D6F JUMP JUMPDEST JUMPDEST PUSH1 0x20 MUL ADD DUP2 DUP2 MSTORE POP POP JUMPDEST JUMPDEST JUMPDEST POP JUMPDEST DUP1 DUP1 PUSH2 0x2E24 SWAP1 PUSH2 0x6C5E JUMP JUMPDEST SWAP2 POP POP PUSH2 0x2BC0 JUMP JUMPDEST POP SWAP1 JUMP JUMPDEST PUSH2 0x2E3F DUP3 PUSH4 0xFFFFFFFF AND PUSH2 0x45E4 JUMP JUMPDEST PUSH2 0x2E7E JUMPI PUSH1 0x40 MLOAD PUSH32 0x8C379A000000000000000000000000000000000000000000000000000000000 DUP2 MSTORE PUSH1 0x4 ADD PUSH2 0x2E75 SWAP1 PUSH2 0x632B JUMP JUMPDEST PUSH1 0x40 MLOAD DUP1 SWAP2 SUB SWAP1 REVERT JUMPDEST PUSH1 0x0 DUP4 GT PUSH2 0x2EC1 JUMPI PUSH1 0x40 MLOAD PUSH32 0x8C379A000000000000000000000000000000000000000000000000000000000 DUP2 MSTORE PUSH1 0x4 ADD PUSH2 0x2EB8 SWAP1 PUSH2 0x668B JUMP JUMPDEST PUSH1 0x40 MLOAD DUP1 SWAP2 SUB SWAP1 REVERT JUMPDEST PUSH1 0x0 DUP2 EQ DUP1 PUSH2 0x2ED0 JUMPI POP PUSH1 0x1 DUP2 EQ JUMPDEST PUSH2 0x2F0F JUMPI PUSH1 0x40 MLOAD PUSH32 0x8C379A000000000000000000000000000000000000000000000000000000000 DUP2 MSTORE PUSH1 0x4 ADD PUSH2 0x2F06 SWAP1 PUSH2 0x63AB JUMP JUMPDEST PUSH1 0x40 MLOAD DUP1 SWAP2 SUB SWAP1 REVERT JUMPDEST PUSH1 0x0 DUP2 EQ ISZERO PUSH2 0x30F5 JUMPI DUP3 PUSH1 0xC PUSH1 0x0 SWAP1 SLOAD SWAP1 PUSH2 0x100 EXP SWAP1 DIV PUSH20 0xFFFFFFFFFFFFFFFFFFFFFFFFFFFFFFFFFFFFFFFF AND PUSH20 0xFFFFFFFFFFFFFFFFFFFFFFFFFFFFFFFFFFFFFFFF AND PUSH4 0x70A08231 CALLER PUSH1 0x40 MLOAD DUP3 PUSH4 0xFFFFFFFF AND PUSH1 0xE0 SHL DUP2 MSTORE PUSH1 0x4 ADD PUSH2 0x2F74 SWAP2 SWAP1 PUSH2 0x6047 JUMP JUMPDEST PUSH1 0x20 PUSH1 0x40 MLOAD DUP1 DUP4 SUB DUP2 DUP7 DUP1 EXTCODESIZE ISZERO DUP1 ISZERO PUSH2 0x2F8C JUMPI PUSH1 0x0 DUP1 REVERT JUMPDEST POP GAS STATICCALL ISZERO DUP1 ISZERO PUSH2 0x2FA0 JUMPI RETURNDATASIZE PUSH1 0x0 DUP1 RETURNDATACOPY RETURNDATASIZE PUSH1 0x0 REVERT JUMPDEST POP POP POP POP PUSH1 0x40 MLOAD RETURNDATASIZE PUSH1 0x1F NOT PUSH1 0x1F DUP3 ADD AND DUP3 ADD DUP1 PUSH1 0x40 MSTORE POP DUP2 ADD SWAP1 PUSH2 0x2FC4 SWAP2 SWAP1 PUSH2 0x57EA JUMP JUMPDEST LT ISZERO PUSH2 0x3005 JUMPI PUSH1 0x40 MLOAD PUSH32 0x8C379A000000000000000000000000000000000000000000000000000000000 DUP2 MSTORE PUSH1 0x4 ADD PUSH2 0x2FFC SWAP1 PUSH2 0x670B JUMP JUMPDEST PUSH1 0x40 MLOAD DUP1 SWAP2 SUB SWAP1 REVERT JUMPDEST PUSH1 0xC PUSH1 0x0 SWAP1 SLOAD SWAP1 PUSH2 0x100 EXP SWAP1 DIV PUSH20 0xFFFFFFFFFFFFFFFFFFFFFFFFFFFFFFFFFFFFFFFF AND PUSH20 0xFFFFFFFFFFFFFFFFFFFFFFFFFFFFFFFFFFFFFFFF AND PUSH4 0x23B872DD CALLER ADDRESS DUP7 PUSH1 0x40 MLOAD DUP5 PUSH4 0xFFFFFFFF AND PUSH1 0xE0 SHL DUP2 MSTORE PUSH1 0x4 ADD PUSH2 0x3064 SWAP4 SWAP3 SWAP2 SWAP1 PUSH2 0x6062 JUMP JUMPDEST PUSH1 0x20 PUSH1 0x40 MLOAD DUP1 DUP4 SUB DUP2 PUSH1 0x0 DUP8 DUP1 EXTCODESIZE ISZERO DUP1 ISZERO PUSH2 0x307E JUMPI PUSH1 0x0 DUP1 REVERT JUMPDEST POP GAS CALL ISZERO DUP1 ISZERO PUSH2 0x3092 JUMPI RETURNDATASIZE PUSH1 0x0 DUP1 RETURNDATACOPY RETURNDATASIZE PUSH1 0x0 REVERT JUMPDEST POP POP POP POP PUSH1 0x40 MLOAD RETURNDATASIZE PUSH1 0x1F NOT PUSH1 0x1F DUP3 ADD AND DUP3 ADD DUP1 PUSH1 0x40 MSTORE POP DUP2 ADD SWAP1 PUSH2 0x30B6 SWAP2 SWAP1 PUSH2 0x5736 JUMP JUMPDEST POP DUP3 PUSH1 0x11 DUP4 PUSH4 0xFFFFFFFF AND PUSH2 0x2710 DUP2 LT PUSH2 0x30D3 JUMPI PUSH2 0x30D2 PUSH2 0x6D6F JUMP JUMPDEST JUMPDEST PUSH1 0x7 MUL ADD PUSH1 0x0 ADD PUSH1 0x0 DUP3 DUP3 SLOAD PUSH2 0x30E9 SWAP2 SWAP1 PUSH2 0x6974 JUMP JUMPDEST SWAP3 POP POP DUP2 SWAP1 SSTORE POP PUSH2 0x32D8 JUMP JUMPDEST PUSH1 0x1 DUP2 EQ ISZERO PUSH2 0x32D7 JUMPI DUP3 PUSH1 0xD PUSH1 0x0 SWAP1 SLOAD SWAP1 PUSH2 0x100 EXP SWAP1 DIV PUSH20 0xFFFFFFFFFFFFFFFFFFFFFFFFFFFFFFFFFFFFFFFF AND PUSH20 0xFFFFFFFFFFFFFFFFFFFFFFFFFFFFFFFFFFFFFFFF AND PUSH4 0x70A08231 CALLER PUSH1 0x40 MLOAD DUP3 PUSH4 0xFFFFFFFF AND PUSH1 0xE0 SHL DUP2 MSTORE PUSH1 0x4 ADD PUSH2 0x315A SWAP2 SWAP1 PUSH2 0x6047 JUMP JUMPDEST PUSH1 0x20 PUSH1 0x40 MLOAD DUP1 DUP4 SUB DUP2 DUP7 DUP1 EXTCODESIZE ISZERO DUP1 ISZERO PUSH2 0x3172 JUMPI PUSH1 0x0 DUP1 REVERT JUMPDEST POP GAS STATICCALL ISZERO DUP1 ISZERO PUSH2 0x3186 JUMPI RETURNDATASIZE PUSH1 0x0 DUP1 RETURNDATACOPY RETURNDATASIZE PUSH1 0x0 REVERT JUMPDEST POP POP POP POP PUSH1 0x40 MLOAD RETURNDATASIZE PUSH1 0x1F NOT PUSH1 0x1F DUP3 ADD AND DUP3 ADD DUP1 PUSH1 0x40 MSTORE POP DUP2 ADD SWAP1 PUSH2 0x31AA SWAP2 SWAP1 PUSH2 0x57EA JUMP JUMPDEST LT ISZERO PUSH2 0x31EB JUMPI PUSH1 0x40 MLOAD PUSH32 0x8C379A000000000000000000000000000000000000000000000000000000000 DUP2 MSTORE PUSH1 0x4 ADD PUSH2 0x31E2 SWAP1 PUSH2 0x648B JUMP JUMPDEST PUSH1 0x40 MLOAD DUP1 SWAP2 SUB SWAP1 REVERT JUMPDEST PUSH1 0xD PUSH1 0x0 SWAP1 SLOAD SWAP1 PUSH2 0x100 EXP SWAP1 DIV PUSH20 0xFFFFFFFFFFFFFFFFFFFFFFFFFFFFFFFFFFFFFFFF AND PUSH20 0xFFFFFFFFFFFFFFFFFFFFFFFFFFFFFFFFFFFFFFFF AND PUSH4 0x23B872DD CALLER ADDRESS DUP7 PUSH1 0x40 MLOAD DUP5 PUSH4 0xFFFFFFFF AND PUSH1 0xE0 SHL DUP2 MSTORE PUSH1 0x4 ADD PUSH2 0x324A SWAP4 SWAP3 SWAP2 SWAP1 PUSH2 0x6062 JUMP JUMPDEST PUSH1 0x20 PUSH1 0x40 MLOAD DUP1 DUP4 SUB DUP2 PUSH1 0x0 DUP8 DUP1 EXTCODESIZE ISZERO DUP1 ISZERO PUSH2 0x3264 JUMPI PUSH1 0x0 DUP1 REVERT JUMPDEST POP GAS CALL ISZERO DUP1 ISZERO PUSH2 0x3278 JUMPI RETURNDATASIZE PUSH1 0x0 DUP1 RETURNDATACOPY RETURNDATASIZE PUSH1 0x0 REVERT JUMPDEST POP POP POP POP PUSH1 0x40 MLOAD RETURNDATASIZE PUSH1 0x1F NOT PUSH1 0x1F DUP3 ADD AND DUP3 ADD DUP1 PUSH1 0x40 MSTORE POP DUP2 ADD SWAP1 PUSH2 0x329C SWAP2 SWAP1 PUSH2 0x5736 JUMP JUMPDEST POP DUP3 PUSH1 0x11 DUP4 PUSH4 0xFFFFFFFF AND PUSH2 0x2710 DUP2 LT PUSH2 0x32B9 JUMPI PUSH2 0x32B8 PUSH2 0x6D6F JUMP JUMPDEST JUMPDEST PUSH1 0x7 MUL ADD PUSH1 0x1 ADD PUSH1 0x0 DUP3 DUP3 SLOAD PUSH2 0x32CF SWAP2 SWAP1 PUSH2 0x6974 JUMP JUMPDEST SWAP3 POP POP DUP2 SWAP1 SSTORE POP JUMPDEST JUMPDEST PUSH1 0x3C TIMESTAMP PUSH2 0x32E5 SWAP2 SWAP1 PUSH2 0x6974 JUMP JUMPDEST PUSH1 0x11 DUP4 PUSH4 0xFFFFFFFF AND PUSH2 0x2710 DUP2 LT PUSH2 0x3300 JUMPI PUSH2 0x32FF PUSH2 0x6D6F JUMP JUMPDEST JUMPDEST PUSH1 0x7 MUL ADD PUSH1 0x3 ADD DUP2 SWAP1 SSTORE POP POP POP POP JUMP JUMPDEST PUSH1 0x0 PUSH1 0x6 PUSH1 0x0 SWAP1 SLOAD SWAP1 PUSH2 0x100 EXP SWAP1 DIV PUSH20 0xFFFFFFFFFFFFFFFFFFFFFFFFFFFFFFFFFFFFFFFF AND SWAP1 POP SWAP1 JUMP JUMPDEST PUSH1 0x0 DUP1 JUMPDEST PUSH1 0x10 PUSH1 0x0 CALLER PUSH20 0xFFFFFFFFFFFFFFFFFFFFFFFFFFFFFFFFFFFFFFFF AND PUSH20 0xFFFFFFFFFFFFFFFFFFFFFFFFFFFFFFFFFFFFFFFF AND DUP2 MSTORE PUSH1 0x20 ADD SWAP1 DUP2 MSTORE PUSH1 0x20 ADD PUSH1 0x0 KECCAK256 DUP1 SLOAD SWAP1 POP DUP2 LT ISZERO PUSH2 0x375D JUMPI PUSH1 0x0 PUSH1 0x10 PUSH1 0x0 CALLER PUSH20 0xFFFFFFFFFFFFFFFFFFFFFFFFFFFFFFFFFFFFFFFF AND PUSH20 0xFFFFFFFFFFFFFFFFFFFFFFFFFFFFFFFFFFFFFFFF AND DUP2 MSTORE PUSH1 0x20 ADD SWAP1 DUP2 MSTORE PUSH1 0x20 ADD PUSH1 0x0 KECCAK256 DUP3 DUP2 SLOAD DUP2 LT PUSH2 0x33DB JUMPI PUSH2 0x33DA PUSH2 0x6D6F JUMP JUMPDEST JUMPDEST SWAP1 PUSH1 0x0 MSTORE PUSH1 0x20 PUSH1 0x0 KECCAK256 SWAP1 PUSH1 0x3 MUL ADD PUSH1 0x40 MLOAD DUP1 PUSH1 0x60 ADD PUSH1 0x40 MSTORE SWAP1 DUP2 PUSH1 0x0 DUP3 ADD SLOAD DUP2 MSTORE PUSH1 0x20 ADD PUSH1 0x1 DUP3 ADD PUSH1 0x0 SWAP1 SLOAD SWAP1 PUSH2 0x100 EXP SWAP1 DIV PUSH1 0xFF AND PUSH1 0xFF AND PUSH1 0xFF AND DUP2 MSTORE PUSH1 0x20 ADD PUSH1 0x2 DUP3 ADD SLOAD DUP2 MSTORE POP POP SWAP1 POP TIMESTAMP DUP2 PUSH1 0x40 ADD MLOAD LT ISZERO PUSH2 0x3749 JUMPI PUSH1 0x0 DUP2 PUSH1 0x20 ADD MLOAD PUSH1 0xFF AND EQ ISZERO PUSH2 0x357A JUMPI PUSH1 0x0 PUSH1 0x6 PUSH1 0x15 SWAP1 SLOAD SWAP1 PUSH2 0x100 EXP SWAP1 DIV PUSH1 0xFF AND PUSH1 0xFF AND DUP3 PUSH1 0x0 ADD MLOAD PUSH2 0x3467 SWAP2 SWAP1 PUSH2 0x6A01 JUMP JUMPDEST SWAP1 POP PUSH2 0x3476 DUP3 PUSH1 0x0 ADD MLOAD PUSH2 0x4B3D JUMP JUMPDEST PUSH1 0xC PUSH1 0x0 SWAP1 SLOAD SWAP1 PUSH2 0x100 EXP SWAP1 DIV PUSH20 0xFFFFFFFFFFFFFFFFFFFFFFFFFFFFFFFFFFFFFFFF AND PUSH20 0xFFFFFFFFFFFFFFFFFFFFFFFFFFFFFFFFFFFFFFFF AND PUSH4 0xA9059CBB CALLER DUP4 PUSH1 0x40 MLOAD DUP4 PUSH4 0xFFFFFFFF AND PUSH1 0xE0 SHL DUP2 MSTORE PUSH1 0x4 ADD PUSH2 0x34D3 SWAP3 SWAP2 SWAP1 PUSH2 0x61B7 JUMP JUMPDEST PUSH1 0x20 PUSH1 0x40 MLOAD DUP1 DUP4 SUB DUP2 PUSH1 0x0 DUP8 DUP1 EXTCODESIZE ISZERO DUP1 ISZERO PUSH2 0x34ED JUMPI PUSH1 0x0 DUP1 REVERT JUMPDEST POP GAS CALL ISZERO DUP1 ISZERO PUSH2 0x3501 JUMPI RETURNDATASIZE PUSH1 0x0 DUP1 RETURNDATACOPY RETURNDATASIZE PUSH1 0x0 REVERT JUMPDEST POP POP POP POP PUSH1 0x40 MLOAD RETURNDATASIZE PUSH1 0x1F NOT PUSH1 0x1F DUP3 ADD AND DUP3 ADD DUP1 PUSH1 0x40 MSTORE POP DUP2 ADD SWAP1 PUSH2 0x3525 SWAP2 SWAP1 PUSH2 0x5736 JUMP JUMPDEST POP CALLER PUSH20 0xFFFFFFFFFFFFFFFFFFFFFFFFFFFFFFFFFFFFFFFF AND PUSH32 0x9FD4A9248425079A398923CD20DAA8E0C103907FB89DB4707CB4F2CC343F9546 DUP3 PUSH1 0x40 MLOAD PUSH2 0x356C SWAP2 SWAP1 PUSH2 0x6746 JUMP JUMPDEST PUSH1 0x40 MLOAD DUP1 SWAP2 SUB SWAP1 LOG2 POP PUSH2 0x36BE JUMP JUMPDEST PUSH1 0x1 DUP2 PUSH1 0x20 ADD MLOAD PUSH1 0xFF AND EQ ISZERO PUSH2 0x36BD JUMPI PUSH1 0x0 PUSH1 0x6 PUSH1 0x16 SWAP1 SLOAD SWAP1 PUSH2 0x100 EXP SWAP1 DIV PUSH1 0xFF AND PUSH1 0xFF AND DUP3 PUSH1 0x0 ADD MLOAD PUSH2 0x35AE SWAP2 SWAP1 PUSH2 0x6A01 JUMP JUMPDEST SWAP1 POP PUSH2 0x35BD DUP3 PUSH1 0x0 ADD MLOAD PUSH2 0x4B3D JUMP JUMPDEST PUSH1 0xD PUSH1 0x0 SWAP1 SLOAD SWAP1 PUSH2 0x100 EXP SWAP1 DIV PUSH20 0xFFFFFFFFFFFFFFFFFFFFFFFFFFFFFFFFFFFFFFFF AND PUSH20 0xFFFFFFFFFFFFFFFFFFFFFFFFFFFFFFFFFFFFFFFF AND PUSH4 0xA9059CBB CALLER DUP4 PUSH1 0x40 MLOAD DUP4 PUSH4 0xFFFFFFFF AND PUSH1 0xE0 SHL DUP2 MSTORE PUSH1 0x4 ADD PUSH2 0x361A SWAP3 SWAP2 SWAP1 PUSH2 0x61B7 JUMP JUMPDEST PUSH1 0x20 PUSH1 0x40 MLOAD DUP1 DUP4 SUB DUP2 PUSH1 0x0 DUP8 DUP1 EXTCODESIZE ISZERO DUP1 ISZERO PUSH2 0x3634 JUMPI PUSH1 0x0 DUP1 REVERT JUMPDEST POP GAS CALL ISZERO DUP1 ISZERO PUSH2 0x3648 JUMPI RETURNDATASIZE PUSH1 0x0 DUP1 RETURNDATACOPY RETURNDATASIZE PUSH1 0x0 REVERT JUMPDEST POP POP POP POP PUSH1 0x40 MLOAD RETURNDATASIZE PUSH1 0x1F NOT PUSH1 0x1F DUP3 ADD AND DUP3 ADD DUP1 PUSH1 0x40 MSTORE POP DUP2 ADD SWAP1 PUSH2 0x366C SWAP2 SWAP1 PUSH2 0x5736 JUMP JUMPDEST POP CALLER PUSH20 0xFFFFFFFFFFFFFFFFFFFFFFFFFFFFFFFFFFFFFFFF AND PUSH32 0xD62AEB2DF4F1C7A0C59E15C0DCA22CCBCBE42AD0D0DBF99A22C0AD2551C5A155 DUP3 PUSH1 0x40 MLOAD PUSH2 0x36B3 SWAP2 SWAP1 PUSH2 0x6746 JUMP JUMPDEST PUSH1 0x40 MLOAD DUP1 SWAP2 SUB SWAP1 LOG2 POP JUMPDEST JUMPDEST PUSH1 0x10 PUSH1 0x0 CALLER PUSH20 0xFFFFFFFFFFFFFFFFFFFFFFFFFFFFFFFFFFFFFFFF AND PUSH20 0xFFFFFFFFFFFFFFFFFFFFFFFFFFFFFFFFFFFFFFFF AND DUP2 MSTORE PUSH1 0x20 ADD SWAP1 DUP2 MSTORE PUSH1 0x20 ADD PUSH1 0x0 KECCAK256 DUP3 DUP2 SLOAD DUP2 LT PUSH2 0x370F JUMPI PUSH2 0x370E PUSH2 0x6D6F JUMP JUMPDEST JUMPDEST SWAP1 PUSH1 0x0 MSTORE PUSH1 0x20 PUSH1 0x0 KECCAK256 SWAP1 PUSH1 0x3 MUL ADD PUSH1 0x0 DUP1 DUP3 ADD PUSH1 0x0 SWAP1 SSTORE PUSH1 0x1 DUP3 ADD PUSH1 0x0 PUSH2 0x100 EXP DUP2 SLOAD SWAP1 PUSH1 0xFF MUL NOT AND SWAP1 SSTORE PUSH1 0x2 DUP3 ADD PUSH1 0x0 SWAP1 SSTORE POP POP PUSH1 0x1 SWAP3 POP JUMPDEST POP DUP1 DUP1 PUSH2 0x3755 SWAP1 PUSH2 0x6C5E JUMP JUMPDEST SWAP2 POP POP PUSH2 0x333E JUMP JUMPDEST POP SWAP1 JUMP JUMPDEST PUSH1 0xB PUSH1 0x0 SWAP1 SLOAD SWAP1 PUSH2 0x100 EXP SWAP1 DIV PUSH20 0xFFFFFFFFFFFFFFFFFFFFFFFFFFFFFFFFFFFFFFFF AND DUP2 JUMP JUMPDEST PUSH1 0x60 PUSH1 0x1 DUP1 SLOAD PUSH2 0x3796 SWAP1 PUSH2 0x6BFB JUMP JUMPDEST DUP1 PUSH1 0x1F ADD PUSH1 0x20 DUP1 SWAP2 DIV MUL PUSH1 0x20 ADD PUSH1 0x40 MLOAD SWAP1 DUP2 ADD PUSH1 0x40 MSTORE DUP1 SWAP3 SWAP2 SWAP1 DUP2 DUP2 MSTORE PUSH1 0x20 ADD DUP3 DUP1 SLOAD PUSH2 0x37C2 SWAP1 PUSH2 0x6BFB JUMP JUMPDEST DUP1 ISZERO PUSH2 0x380F JUMPI DUP1 PUSH1 0x1F LT PUSH2 0x37E4 JUMPI PUSH2 0x100 DUP1 DUP4 SLOAD DIV MUL DUP4 MSTORE SWAP2 PUSH1 0x20 ADD SWAP2 PUSH2 0x380F JUMP JUMPDEST DUP3 ADD SWAP2 SWAP1 PUSH1 0x0 MSTORE PUSH1 0x20 PUSH1 0x0 KECCAK256 SWAP1 JUMPDEST DUP2 SLOAD DUP2 MSTORE SWAP1 PUSH1 0x1 ADD SWAP1 PUSH1 0x20 ADD DUP1 DUP4 GT PUSH2 0x37F2 JUMPI DUP3 SWAP1 SUB PUSH1 0x1F AND DUP3 ADD SWAP2 JUMPDEST POP POP POP POP POP SWAP1 POP SWAP1 JUMP JUMPDEST PUSH2 0x3821 PUSH2 0x4333 JUMP JUMPDEST PUSH20 0xFFFFFFFFFFFFFFFFFFFFFFFFFFFFFFFFFFFFFFFF AND DUP3 PUSH20 0xFFFFFFFFFFFFFFFFFFFFFFFFFFFFFFFFFFFFFFFF AND EQ ISZERO PUSH2 0x388F JUMPI PUSH1 0x40 MLOAD PUSH32 0x8C379A000000000000000000000000000000000000000000000000000000000 DUP2 MSTORE PUSH1 0x4 ADD PUSH2 0x3886 SWAP1 PUSH2 0x63EB JUMP JUMPDEST PUSH1 0x40 MLOAD DUP1 SWAP2 SUB SWAP1 REVERT JUMPDEST DUP1 PUSH1 0x5 PUSH1 0x0 PUSH2 0x389C PUSH2 0x4333 JUMP JUMPDEST PUSH20 0xFFFFFFFFFFFFFFFFFFFFFFFFFFFFFFFFFFFFFFFF AND PUSH20 0xFFFFFFFFFFFFFFFFFFFFFFFFFFFFFFFFFFFFFFFF AND DUP2 MSTORE PUSH1 0x20 ADD SWAP1 DUP2 MSTORE PUSH1 0x20 ADD PUSH1 0x0 KECCAK256 PUSH1 0x0 DUP5 PUSH20 0xFFFFFFFFFFFFFFFFFFFFFFFFFFFFFFFFFFFFFFFF AND PUSH20 0xFFFFFFFFFFFFFFFFFFFFFFFFFFFFFFFFFFFFFFFF AND DUP2 MSTORE PUSH1 0x20 ADD SWAP1 DUP2 MSTORE PUSH1 0x20 ADD PUSH1 0x0 KECCAK256 PUSH1 0x0 PUSH2 0x100 EXP DUP2 SLOAD DUP2 PUSH1 0xFF MUL NOT AND SWAP1 DUP4 ISZERO ISZERO MUL OR SWAP1 SSTORE POP DUP2 PUSH20 0xFFFFFFFFFFFFFFFFFFFFFFFFFFFFFFFFFFFFFFFF AND PUSH2 0x3949 PUSH2 0x4333 JUMP JUMPDEST PUSH20 0xFFFFFFFFFFFFFFFFFFFFFFFFFFFFFFFFFFFFFFFF AND PUSH32 0x17307EAB39AB6107E8899845AD3D59BD9653F200F220920489CA2B5937696C31 DUP4 PUSH1 0x40 MLOAD PUSH2 0x398E SWAP2 SWAP1 PUSH2 0x621D JUMP JUMPDEST PUSH1 0x40 MLOAD DUP1 SWAP2 SUB SWAP1 LOG3 POP POP JUMP JUMPDEST PUSH2 0x39AB PUSH2 0x39A5 PUSH2 0x4333 JUMP JUMPDEST DUP4 PUSH2 0x4709 JUMP JUMPDEST PUSH2 0x39EA JUMPI PUSH1 0x40 MLOAD PUSH32 0x8C379A000000000000000000000000000000000000000000000000000000000 DUP2 MSTORE PUSH1 0x4 ADD PUSH2 0x39E1 SWAP1 PUSH2 0x664B JUMP JUMPDEST PUSH1 0x40 MLOAD DUP1 SWAP2 SUB SWAP1 REVERT JUMPDEST PUSH2 0x39F6 DUP5 DUP5 DUP5 DUP5 PUSH2 0x4C7A JUMP JUMPDEST POP POP POP POP JUMP JUMPDEST PUSH1 0x7 SLOAD DUP2 JUMP JUMPDEST PUSH1 0x0 DUP1 PUSH2 0x3A0E DUP4 PUSH2 0x1F49 JUMP JUMPDEST SWAP1 POP PUSH2 0x3A19 DUP2 PUSH2 0x1E4C JUMP JUMPDEST SWAP2 POP POP SWAP2 SWAP1 POP JUMP JUMPDEST PUSH1 0x60 PUSH3 0x11183 PUSH1 0x0 DUP4 PUSH20 0xFFFFFFFFFFFFFFFFFFFFFFFFFFFFFFFFFFFFFFFF AND PUSH20 0xFFFFFFFFFFFFFFFFFFFFFFFFFFFFFFFFFFFFFFFF AND DUP2 MSTORE PUSH1 0x20 ADD SWAP1 DUP2 MSTORE PUSH1 0x20 ADD PUSH1 0x0 KECCAK256 DUP1 SLOAD DUP1 PUSH1 0x20 MUL PUSH1 0x20 ADD PUSH1 0x40 MLOAD SWAP1 DUP2 ADD PUSH1 0x40 MSTORE DUP1 SWAP3 SWAP2 SWAP1 DUP2 DUP2 MSTORE PUSH1 0x20 ADD DUP3 DUP1 SLOAD DUP1 ISZERO PUSH2 0x3AAE JUMPI PUSH1 0x20 MUL DUP3 ADD SWAP2 SWAP1 PUSH1 0x0 MSTORE PUSH1 0x20 PUSH1 0x0 KECCAK256 SWAP1 JUMPDEST DUP2 SLOAD DUP2 MSTORE PUSH1 0x20 ADD SWAP1 PUSH1 0x1 ADD SWAP1 DUP1 DUP4 GT PUSH2 0x3A9A JUMPI JUMPDEST POP POP POP POP POP SWAP1 POP SWAP2 SWAP1 POP JUMP JUMPDEST PUSH1 0x6 PUSH1 0x15 SWAP1 SLOAD SWAP1 PUSH2 0x100 EXP SWAP1 DIV PUSH1 0xFF AND DUP2 JUMP JUMPDEST PUSH1 0x60 PUSH2 0x3AD8 DUP3 PUSH2 0x45E4 JUMP JUMPDEST PUSH2 0x3B17 JUMPI PUSH1 0x40 MLOAD PUSH32 0x8C379A000000000000000000000000000000000000000000000000000000000 DUP2 MSTORE PUSH1 0x4 ADD PUSH2 0x3B0E SWAP1 PUSH2 0x652B JUMP JUMPDEST PUSH1 0x40 MLOAD DUP1 SWAP2 SUB SWAP1 REVERT JUMPDEST PUSH1 0x40 MLOAD DUP1 PUSH1 0x60 ADD PUSH1 0x40 MSTORE DUP1 PUSH1 0x25 DUP2 MSTORE PUSH1 0x20 ADD PUSH2 0x78B5 PUSH1 0x25 SWAP2 CODECOPY PUSH2 0x3B39 DUP4 PUSH2 0x4CD6 JUMP JUMPDEST PUSH1 0x40 MLOAD PUSH1 0x20 ADD PUSH2 0x3B4A SWAP3 SWAP2 SWAP1 PUSH2 0x5FF7 JUMP JUMPDEST PUSH1 0x40 MLOAD PUSH1 0x20 DUP2 DUP4 SUB SUB DUP2 MSTORE SWAP1 PUSH1 0x40 MSTORE SWAP1 POP SWAP2 SWAP1 POP JUMP JUMPDEST PUSH1 0x6 PUSH1 0x16 SWAP1 SLOAD SWAP1 PUSH2 0x100 EXP SWAP1 DIV PUSH1 0xFF AND DUP2 JUMP JUMPDEST PUSH1 0x0 PUSH3 0x11182 SLOAD SWAP1 POP SWAP1 JUMP JUMPDEST PUSH1 0x0 SELFBALANCE SWAP1 POP SWAP1 JUMP JUMPDEST PUSH1 0x60 PUSH1 0x0 PUSH3 0x11183 PUSH1 0x0 DUP5 PUSH20 0xFFFFFFFFFFFFFFFFFFFFFFFFFFFFFFFFFFFFFFFF AND PUSH20 0xFFFFFFFFFFFFFFFFFFFFFFFFFFFFFFFFFFFFFFFF AND DUP2 MSTORE PUSH1 0x20 ADD SWAP1 DUP2 MSTORE PUSH1 0x20 ADD PUSH1 0x0 KECCAK256 DUP1 SLOAD DUP1 PUSH1 0x20 MUL PUSH1 0x20 ADD PUSH1 0x40 MLOAD SWAP1 DUP2 ADD PUSH1 0x40 MSTORE DUP1 SWAP3 SWAP2 SWAP1 DUP2 DUP2 MSTORE PUSH1 0x20 ADD DUP3 DUP1 SLOAD DUP1 ISZERO PUSH2 0x3C16 JUMPI PUSH1 0x20 MUL DUP3 ADD SWAP2 SWAP1 PUSH1 0x0 MSTORE PUSH1 0x20 PUSH1 0x0 KECCAK256 SWAP1 JUMPDEST DUP2 SLOAD DUP2 MSTORE PUSH1 0x20 ADD SWAP1 PUSH1 0x1 ADD SWAP1 DUP1 DUP4 GT PUSH2 0x3C02 JUMPI JUMPDEST POP POP POP POP POP SWAP1 POP PUSH1 0x0 DUP2 MLOAD PUSH8 0xFFFFFFFFFFFFFFFF DUP2 GT ISZERO PUSH2 0x3C3A JUMPI PUSH2 0x3C39 PUSH2 0x6D9E JUMP JUMPDEST JUMPDEST PUSH1 0x40 MLOAD SWAP1 DUP1 DUP3 MSTORE DUP1 PUSH1 0x20 MUL PUSH1 0x20 ADD DUP3 ADD PUSH1 0x40 MSTORE DUP1 ISZERO PUSH2 0x3C68 JUMPI DUP2 PUSH1 0x20 ADD PUSH1 0x20 DUP3 MUL DUP1 CALLDATASIZE DUP4 CALLDATACOPY DUP1 DUP3 ADD SWAP2 POP POP SWAP1 POP JUMPDEST POP SWAP1 POP PUSH1 0x0 DUP3 MLOAD EQ PUSH2 0x3CE4 JUMPI PUSH1 0x0 JUMPDEST DUP3 MLOAD DUP2 LT ISZERO PUSH2 0x3CE2 JUMPI PUSH3 0x11181 PUSH1 0x0 DUP5 DUP4 DUP2 MLOAD DUP2 LT PUSH2 0x3C99 JUMPI PUSH2 0x3C98 PUSH2 0x6D6F JUMP JUMPDEST JUMPDEST PUSH1 0x20 MUL PUSH1 0x20 ADD ADD MLOAD DUP2 MSTORE PUSH1 0x20 ADD SWAP1 DUP2 MSTORE PUSH1 0x20 ADD PUSH1 0x0 KECCAK256 SLOAD DUP3 DUP3 DUP2 MLOAD DUP2 LT PUSH2 0x3CC3 JUMPI PUSH2 0x3CC2 PUSH2 0x6D6F JUMP JUMPDEST JUMPDEST PUSH1 0x20 MUL PUSH1 0x20 ADD ADD DUP2 DUP2 MSTORE POP POP DUP1 DUP1 PUSH2 0x3CDA SWAP1 PUSH2 0x6C5E JUMP JUMPDEST SWAP2 POP POP PUSH2 0x3C77 JUMP JUMPDEST POP JUMPDEST DUP1 SWAP3 POP POP POP SWAP2 SWAP1 POP JUMP JUMPDEST PUSH1 0x3C DUP2 JUMP JUMPDEST PUSH1 0x0 PUSH1 0x5 PUSH1 0x0 DUP5 PUSH20 0xFFFFFFFFFFFFFFFFFFFFFFFFFFFFFFFFFFFFFFFF AND PUSH20 0xFFFFFFFFFFFFFFFFFFFFFFFFFFFFFFFFFFFFFFFF AND DUP2 MSTORE PUSH1 0x20 ADD SWAP1 DUP2 MSTORE PUSH1 0x20 ADD PUSH1 0x0 KECCAK256 PUSH1 0x0 DUP4 PUSH20 0xFFFFFFFFFFFFFFFFFFFFFFFFFFFFFFFFFFFFFFFF AND PUSH20 0xFFFFFFFFFFFFFFFFFFFFFFFFFFFFFFFFFFFFFFFF AND DUP2 MSTORE PUSH1 0x20 ADD SWAP1 DUP2 MSTORE PUSH1 0x20 ADD PUSH1 0x0 KECCAK256 PUSH1 0x0 SWAP1 SLOAD SWAP1 PUSH2 0x100 EXP SWAP1 DIV PUSH1 0xFF AND SWAP1 POP SWAP3 SWAP2 POP POP JUMP JUMPDEST PUSH1 0x8 SLOAD DUP2 JUMP JUMPDEST PUSH3 0x11183 PUSH1 0x20 MSTORE DUP2 PUSH1 0x0 MSTORE PUSH1 0x40 PUSH1 0x0 KECCAK256 DUP2 DUP2 SLOAD DUP2 LT PUSH2 0x3DAB JUMPI PUSH1 0x0 DUP1 REVERT JUMPDEST SWAP1 PUSH1 0x0 MSTORE PUSH1 0x20 PUSH1 0x0 KECCAK256 ADD PUSH1 0x0 SWAP2 POP SWAP2 POP POP SLOAD DUP2 JUMP JUMPDEST PUSH1 0x0 PUSH2 0x3DCA PUSH2 0x4333 JUMP JUMPDEST PUSH20 0xFFFFFFFFFFFFFFFFFFFFFFFFFFFFFFFFFFFFFFFF AND PUSH2 0x3DE8 PUSH2 0x3310 JUMP JUMPDEST PUSH20 0xFFFFFFFFFFFFFFFFFFFFFFFFFFFFFFFFFFFFFFFF AND EQ PUSH2 0x3E3E JUMPI PUSH1 0x40 MLOAD PUSH32 0x8C379A000000000000000000000000000000000000000000000000000000000 DUP2 MSTORE PUSH1 0x4 ADD PUSH2 0x3E35 SWAP1 PUSH2 0x658B JUMP JUMPDEST PUSH1 0x40 MLOAD DUP1 SWAP2 SUB SWAP1 REVERT JUMPDEST PUSH2 0x2710 PUSH2 0xFFFF AND PUSH3 0x11182 SLOAD LT PUSH2 0x3E8A JUMPI PUSH1 0x40 MLOAD PUSH32 0x8C379A000000000000000000000000000000000000000000000000000000000 DUP2 MSTORE PUSH1 0x4 ADD PUSH2 0x3E81 SWAP1 PUSH2 0x66EB JUMP JUMPDEST PUSH1 0x40 MLOAD DUP1 SWAP2 SUB SWAP1 REVERT JUMPDEST PUSH1 0x0 PUSH1 0x1 PUSH3 0x11182 SLOAD PUSH2 0x3E9D SWAP2 SWAP1 PUSH2 0x6974 JUMP JUMPDEST SWAP1 POP PUSH2 0x3EA9 DUP4 DUP3 PUSH2 0x4E5F JUMP JUMPDEST PUSH3 0x11183 PUSH1 0x0 DUP5 PUSH20 0xFFFFFFFFFFFFFFFFFFFFFFFFFFFFFFFFFFFFFFFF AND PUSH20 0xFFFFFFFFFFFFFFFFFFFFFFFFFFFFFFFFFFFFFFFF AND DUP2 MSTORE PUSH1 0x20 ADD SWAP1 DUP2 MSTORE PUSH1 0x20 ADD PUSH1 0x0 KECCAK256 DUP2 SWAP1 DUP1 PUSH1 0x1 DUP2 SLOAD ADD DUP1 DUP3 SSTORE DUP1 SWAP2 POP POP PUSH1 0x1 SWAP1 SUB SWAP1 PUSH1 0x0 MSTORE PUSH1 0x20 PUSH1 0x0 KECCAK256 ADD PUSH1 0x0 SWAP1 SWAP2 SWAP1 SWAP2 SWAP1 SWAP2 POP SSTORE DUP1 PUSH3 0x11181 PUSH1 0x0 DUP4 DUP2 MSTORE PUSH1 0x20 ADD SWAP1 DUP2 MSTORE PUSH1 0x20 ADD PUSH1 0x0 KECCAK256 DUP2 SWAP1 SSTORE POP PUSH1 0x0 DUP1 PUSH1 0x0 PUSH2 0x3F39 DUP5 PUSH2 0x4E7D JUMP JUMPDEST SWAP3 POP SWAP3 POP SWAP3 POP PUSH1 0x40 MLOAD DUP1 PUSH1 0xE0 ADD PUSH1 0x40 MSTORE DUP1 PUSH1 0x0 DUP2 MSTORE PUSH1 0x20 ADD PUSH1 0x0 DUP2 MSTORE PUSH1 0x20 ADD PUSH1 0x3C TIMESTAMP PUSH2 0x3F65 SWAP2 SWAP1 PUSH2 0x6974 JUMP JUMPDEST DUP2 MSTORE PUSH1 0x20 ADD PUSH1 0x3C TIMESTAMP PUSH2 0x3F77 SWAP2 SWAP1 PUSH2 0x6974 JUMP JUMPDEST DUP2 MSTORE PUSH1 0x20 ADD DUP5 DUP2 MSTORE PUSH1 0x20 ADD DUP4 DUP2 MSTORE PUSH1 0x20 ADD DUP3 DUP2 MSTORE POP PUSH1 0x11 DUP6 PUSH2 0x2710 DUP2 LT PUSH2 0x3FA1 JUMPI PUSH2 0x3FA0 PUSH2 0x6D6F JUMP JUMPDEST JUMPDEST PUSH1 0x7 MUL ADD PUSH1 0x0 DUP3 ADD MLOAD DUP2 PUSH1 0x0 ADD SSTORE PUSH1 0x20 DUP3 ADD MLOAD DUP2 PUSH1 0x1 ADD SSTORE PUSH1 0x40 DUP3 ADD MLOAD DUP2 PUSH1 0x2 ADD SSTORE PUSH1 0x60 DUP3 ADD MLOAD DUP2 PUSH1 0x3 ADD SSTORE PUSH1 0x80 DUP3 ADD MLOAD DUP2 PUSH1 0x4 ADD SSTORE PUSH1 0xA0 DUP3 ADD MLOAD DUP2 PUSH1 0x5 ADD SSTORE PUSH1 0xC0 DUP3 ADD MLOAD DUP2 PUSH1 0x6 ADD SSTORE SWAP1 POP POP PUSH3 0x11182 PUSH1 0x0 DUP2 SLOAD DUP1 SWAP3 SWAP2 SWAP1 PUSH2 0x4003 SWAP1 PUSH2 0x6C5E JUMP JUMPDEST SWAP2 SWAP1 POP SSTORE POP DUP4 SWAP5 POP POP POP POP POP SWAP2 SWAP1 POP JUMP JUMPDEST PUSH2 0x401C PUSH2 0x4333 JUMP JUMPDEST PUSH20 0xFFFFFFFFFFFFFFFFFFFFFFFFFFFFFFFFFFFFFFFF AND PUSH2 0x403A PUSH2 0x3310 JUMP JUMPDEST PUSH20 0xFFFFFFFFFFFFFFFFFFFFFFFFFFFFFFFFFFFFFFFF AND EQ PUSH2 0x4090 JUMPI PUSH1 0x40 MLOAD PUSH32 0x8C379A000000000000000000000000000000000000000000000000000000000 DUP2 MSTORE PUSH1 0x4 ADD PUSH2 0x4087 SWAP1 PUSH2 0x658B JUMP JUMPDEST PUSH1 0x40 MLOAD DUP1 SWAP2 SUB SWAP1 REVERT JUMPDEST PUSH1 0x0 PUSH20 0xFFFFFFFFFFFFFFFFFFFFFFFFFFFFFFFFFFFFFFFF AND DUP2 PUSH20 0xFFFFFFFFFFFFFFFFFFFFFFFFFFFFFFFFFFFFFFFF AND EQ ISZERO PUSH2 0x4100 JUMPI PUSH1 0x40 MLOAD PUSH32 0x8C379A000000000000000000000000000000000000000000000000000000000 DUP2 MSTORE PUSH1 0x4 ADD PUSH2 0x40F7 SWAP1 PUSH2 0x634B JUMP JUMPDEST PUSH1 0x40 MLOAD DUP1 SWAP2 SUB SWAP1 REVERT JUMPDEST PUSH2 0x4109 DUP2 PUSH2 0x4A77 JUMP JUMPDEST POP JUMP JUMPDEST PUSH3 0x11181 PUSH1 0x20 MSTORE DUP1 PUSH1 0x0 MSTORE PUSH1 0x40 PUSH1 0x0 KECCAK256 PUSH1 0x0 SWAP2 POP SWAP1 POP SLOAD DUP2 JUMP JUMPDEST PUSH2 0x412E PUSH2 0x5424 JUMP JUMPDEST PUSH1 0x0 DUP1 PUSH1 0x0 DUP1 JUMPDEST PUSH1 0x10 PUSH1 0x0 CALLER PUSH20 0xFFFFFFFFFFFFFFFFFFFFFFFFFFFFFFFFFFFFFFFF AND PUSH20 0xFFFFFFFFFFFFFFFFFFFFFFFFFFFFFFFFFFFFFFFF AND DUP2 MSTORE PUSH1 0x20 ADD SWAP1 DUP2 MSTORE PUSH1 0x20 ADD PUSH1 0x0 KECCAK256 DUP1 SLOAD SWAP1 POP DUP2 LT ISZERO PUSH2 0x429F JUMPI PUSH1 0x0 PUSH1 0x10 PUSH1 0x0 CALLER PUSH20 0xFFFFFFFFFFFFFFFFFFFFFFFFFFFFFFFFFFFFFFFF AND PUSH20 0xFFFFFFFFFFFFFFFFFFFFFFFFFFFFFFFFFFFFFFFF AND DUP2 MSTORE PUSH1 0x20 ADD SWAP1 DUP2 MSTORE PUSH1 0x20 ADD PUSH1 0x0 KECCAK256 DUP3 DUP2 SLOAD DUP2 LT PUSH2 0x41D2 JUMPI PUSH2 0x41D1 PUSH2 0x6D6F JUMP JUMPDEST JUMPDEST SWAP1 PUSH1 0x0 MSTORE PUSH1 0x20 PUSH1 0x0 KECCAK256 SWAP1 PUSH1 0x3 MUL ADD PUSH1 0x40 MLOAD DUP1 PUSH1 0x60 ADD PUSH1 0x40 MSTORE SWAP1 DUP2 PUSH1 0x0 DUP3 ADD SLOAD DUP2 MSTORE PUSH1 0x20 ADD PUSH1 0x1 DUP3 ADD PUSH1 0x0 SWAP1 SLOAD SWAP1 PUSH2 0x100 EXP SWAP1 DIV PUSH1 0xFF AND PUSH1 0xFF AND PUSH1 0xFF AND DUP2 MSTORE PUSH1 0x20 ADD PUSH1 0x2 DUP3 ADD SLOAD DUP2 MSTORE POP POP SWAP1 POP PUSH1 0x0 DUP2 PUSH1 0x40 ADD MLOAD EQ ISZERO PUSH2 0x4231 JUMPI POP PUSH2 0x428C JUMP JUMPDEST DUP3 DUP1 PUSH2 0x423C SWAP1 PUSH2 0x6C5E JUMP JUMPDEST SWAP4 POP POP PUSH1 0x0 DUP2 PUSH1 0x20 ADD MLOAD PUSH1 0xFF AND EQ ISZERO PUSH2 0x4266 JUMPI DUP1 PUSH1 0x0 ADD MLOAD DUP6 PUSH2 0x425F SWAP2 SWAP1 PUSH2 0x6974 JUMP JUMPDEST SWAP5 POP PUSH2 0x428A JUMP JUMPDEST PUSH1 0x1 DUP2 PUSH1 0x20 ADD MLOAD PUSH1 0xFF AND EQ ISZERO PUSH2 0x4289 JUMPI DUP1 PUSH1 0x0 ADD MLOAD DUP5 PUSH2 0x4286 SWAP2 SWAP1 PUSH2 0x6974 JUMP JUMPDEST SWAP4 POP JUMPDEST JUMPDEST POP JUMPDEST DUP1 DUP1 PUSH2 0x4297 SWAP1 PUSH2 0x6C5E JUMP JUMPDEST SWAP2 POP POP PUSH2 0x4135 JUMP JUMPDEST POP PUSH1 0x0 PUSH1 0x40 MLOAD DUP1 PUSH1 0x60 ADD PUSH1 0x40 MSTORE DUP1 DUP6 DUP2 MSTORE PUSH1 0x20 ADD DUP5 DUP2 MSTORE PUSH1 0x20 ADD DUP4 DUP2 MSTORE POP SWAP1 POP DUP1 SWAP5 POP POP POP POP POP SWAP1 JUMP JUMPDEST PUSH1 0x0 PUSH32 0x1FFC9A700000000000000000000000000000000000000000000000000000000 PUSH28 0xFFFFFFFFFFFFFFFFFFFFFFFFFFFFFFFFFFFFFFFFFFFFFFFFFFFFFFFF NOT AND DUP3 PUSH28 0xFFFFFFFFFFFFFFFFFFFFFFFFFFFFFFFFFFFFFFFFFFFFFFFFFFFFFFFF NOT AND EQ SWAP1 POP SWAP2 SWAP1 POP JUMP JUMPDEST PUSH1 0x0 CALLER SWAP1 POP SWAP1 JUMP JUMPDEST PUSH1 0x0 DUP1 PUSH1 0x64 DIFFICULTY PUSH3 0x11184 SLOAD PUSH1 0x40 MLOAD PUSH1 0x20 ADD PUSH2 0x4357 SWAP3 SWAP2 SWAP1 PUSH2 0x601B JUMP JUMPDEST PUSH1 0x40 MLOAD PUSH1 0x20 DUP2 DUP4 SUB SUB DUP2 MSTORE SWAP1 PUSH1 0x40 MSTORE DUP1 MLOAD SWAP1 PUSH1 0x20 ADD KECCAK256 PUSH1 0x0 SHR PUSH2 0x437A SWAP2 SWAP1 PUSH2 0x6CB1 JUMP JUMPDEST SWAP1 POP DUP1 PUSH3 0x11184 SLOAD PUSH2 0x438C SWAP2 SWAP1 PUSH2 0x6974 JUMP JUMPDEST PUSH3 0x11184 DUP2 SWAP1 SSTORE POP DUP1 SWAP2 POP POP SWAP1 JUMP JUMPDEST PUSH1 0x0 DUP1 DUP3 DUP5 PUSH2 0x43AA SWAP2 SWAP1 PUSH2 0x6A01 JUMP JUMPDEST SWAP2 POP DUP2 DUP4 PUSH2 0x43B8 SWAP2 SWAP1 PUSH2 0x6A32 JUMP JUMPDEST DUP5 PUSH2 0x43C3 SWAP2 SWAP1 PUSH2 0x6A8C JUMP JUMPDEST SWAP1 POP SWAP3 POP SWAP3 SWAP1 POP JUMP JUMPDEST DUP1 PUSH1 0x80 ADD MLOAD PUSH1 0x11 DUP3 PUSH1 0x20 ADD MLOAD PUSH2 0x2710 DUP2 LT PUSH2 0x43EA JUMPI PUSH2 0x43E9 PUSH2 0x6D6F JUMP JUMPDEST JUMPDEST PUSH1 0x7 MUL ADD PUSH1 0x0 ADD PUSH1 0x0 DUP3 DUP3 SLOAD PUSH2 0x4400 SWAP2 SWAP1 PUSH2 0x6A8C JUMP JUMPDEST SWAP3 POP POP DUP2 SWAP1 SSTORE POP PUSH1 0x0 PUSH1 0x11 DUP3 PUSH1 0x20 ADD MLOAD PUSH2 0x2710 DUP2 LT PUSH2 0x4422 JUMPI PUSH2 0x4421 PUSH2 0x6D6F JUMP JUMPDEST JUMPDEST PUSH1 0x7 MUL ADD PUSH1 0x0 ADD SLOAD GT PUSH2 0x446A JUMPI PUSH1 0x40 MLOAD PUSH32 0x8C379A000000000000000000000000000000000000000000000000000000000 DUP2 MSTORE PUSH1 0x4 ADD PUSH2 0x4461 SWAP1 PUSH2 0x66CB JUMP JUMPDEST PUSH1 0x40 MLOAD DUP1 SWAP2 SUB SWAP1 REVERT JUMPDEST DUP1 PUSH1 0xA0 ADD MLOAD PUSH1 0x11 DUP3 PUSH1 0x40 ADD MLOAD PUSH2 0x2710 DUP2 LT PUSH2 0x4488 JUMPI PUSH2 0x4487 PUSH2 0x6D6F JUMP JUMPDEST JUMPDEST PUSH1 0x7 MUL ADD PUSH1 0x1 ADD PUSH1 0x0 DUP3 DUP3 SLOAD PUSH2 0x449E SWAP2 SWAP1 PUSH2 0x6A8C JUMP JUMPDEST SWAP3 POP POP DUP2 SWAP1 SSTORE POP PUSH1 0x0 PUSH1 0x11 DUP3 PUSH1 0x40 ADD MLOAD PUSH2 0x2710 DUP2 LT PUSH2 0x44C0 JUMPI PUSH2 0x44BF PUSH2 0x6D6F JUMP JUMPDEST JUMPDEST PUSH1 0x7 MUL ADD PUSH1 0x1 ADD SLOAD GT PUSH2 0x4508 JUMPI PUSH1 0x40 MLOAD PUSH32 0x8C379A000000000000000000000000000000000000000000000000000000000 DUP2 MSTORE PUSH1 0x4 ADD PUSH2 0x44FF SWAP1 PUSH2 0x62CB JUMP JUMPDEST PUSH1 0x40 MLOAD DUP1 SWAP2 SUB SWAP1 REVERT JUMPDEST DUP1 PUSH1 0x0 ADD MLOAD ISZERO PUSH2 0x45E1 JUMPI PUSH1 0x0 PUSH3 0x11181 PUSH1 0x0 DUP4 PUSH1 0x40 ADD MLOAD DUP2 MSTORE PUSH1 0x20 ADD SWAP1 DUP2 MSTORE PUSH1 0x20 ADD PUSH1 0x0 KECCAK256 SLOAD SWAP1 POP PUSH3 0x11181 PUSH1 0x0 DUP4 PUSH1 0x20 ADD MLOAD DUP2 MSTORE PUSH1 0x20 ADD SWAP1 DUP2 MSTORE PUSH1 0x20 ADD PUSH1 0x0 KECCAK256 SLOAD PUSH3 0x11181 PUSH1 0x0 DUP5 PUSH1 0x40 ADD MLOAD DUP2 MSTORE PUSH1 0x20 ADD SWAP1 DUP2 MSTORE PUSH1 0x20 ADD PUSH1 0x0 KECCAK256 DUP2 SWAP1 SSTORE POP DUP1 PUSH3 0x11181 PUSH1 0x0 DUP5 PUSH1 0x20 ADD MLOAD DUP2 MSTORE PUSH1 0x20 ADD SWAP1 DUP2 MSTORE PUSH1 0x20 ADD PUSH1 0x0 KECCAK256 DUP2 SWAP1 SSTORE POP PUSH32 0x613181C93C2A39A642ABF3636C19505E28200A1A2E1AB682C50373F15308DF62 CALLER DUP4 PUSH1 0x60 ADD MLOAD DUP4 PUSH3 0x11181 PUSH1 0x0 DUP8 PUSH1 0x20 ADD MLOAD DUP2 MSTORE PUSH1 0x20 ADD SWAP1 DUP2 MSTORE PUSH1 0x20 ADD PUSH1 0x0 KECCAK256 SLOAD PUSH1 0x40 MLOAD PUSH2 0x45D7 SWAP5 SWAP4 SWAP3 SWAP2 SWAP1 PUSH2 0x60E5 JUMP JUMPDEST PUSH1 0x40 MLOAD DUP1 SWAP2 SUB SWAP1 LOG1 POP JUMPDEST POP JUMP JUMPDEST PUSH1 0x0 DUP1 PUSH20 0xFFFFFFFFFFFFFFFFFFFFFFFFFFFFFFFFFFFFFFFF AND PUSH1 0x2 PUSH1 0x0 DUP5 DUP2 MSTORE PUSH1 0x20 ADD SWAP1 DUP2 MSTORE PUSH1 0x20 ADD PUSH1 0x0 KECCAK256 PUSH1 0x0 SWAP1 SLOAD SWAP1 PUSH2 0x100 EXP SWAP1 DIV PUSH20 0xFFFFFFFFFFFFFFFFFFFFFFFFFFFFFFFFFFFFFFFF AND PUSH20 0xFFFFFFFFFFFFFFFFFFFFFFFFFFFFFFFFFFFFFFFF AND EQ ISZERO SWAP1 POP SWAP2 SWAP1 POP JUMP JUMPDEST DUP2 PUSH1 0x4 PUSH1 0x0 DUP4 DUP2 MSTORE PUSH1 0x20 ADD SWAP1 DUP2 MSTORE PUSH1 0x20 ADD PUSH1 0x0 KECCAK256 PUSH1 0x0 PUSH2 0x100 EXP DUP2 SLOAD DUP2 PUSH20 0xFFFFFFFFFFFFFFFFFFFFFFFFFFFFFFFFFFFFFFFF MUL NOT AND SWAP1 DUP4 PUSH20 0xFFFFFFFFFFFFFFFFFFFFFFFFFFFFFFFFFFFFFFFF AND MUL OR SWAP1 SSTORE POP DUP1 DUP3 PUSH20 0xFFFFFFFFFFFFFFFFFFFFFFFFFFFFFFFFFFFFFFFF AND PUSH2 0x46C3 DUP4 PUSH2 0x2941 JUMP JUMPDEST PUSH20 0xFFFFFFFFFFFFFFFFFFFFFFFFFFFFFFFFFFFFFFFF AND PUSH32 0x8C5BE1E5EBEC7D5BD14F71427D1E84F3DD0314C0F7B2291E5B200AC8C7C3B925 PUSH1 0x40 MLOAD PUSH1 0x40 MLOAD DUP1 SWAP2 SUB SWAP1 LOG4 POP POP JUMP JUMPDEST PUSH1 0x0 PUSH2 0x4714 DUP3 PUSH2 0x45E4 JUMP JUMPDEST PUSH2 0x4753 JUMPI PUSH1 0x40 MLOAD PUSH32 0x8C379A000000000000000000000000000000000000000000000000000000000 DUP2 MSTORE PUSH1 0x4 ADD PUSH2 0x474A SWAP1 PUSH2 0x644B JUMP JUMPDEST PUSH1 0x40 MLOAD DUP1 SWAP2 SUB SWAP1 REVERT JUMPDEST PUSH1 0x0 PUSH2 0x475E DUP4 PUSH2 0x2941 JUMP JUMPDEST SWAP1 POP DUP1 PUSH20 0xFFFFFFFFFFFFFFFFFFFFFFFFFFFFFFFFFFFFFFFF AND DUP5 PUSH20 0xFFFFFFFFFFFFFFFFFFFFFFFFFFFFFFFFFFFFFFFF AND EQ DUP1 PUSH2 0x47CD JUMPI POP DUP4 PUSH20 0xFFFFFFFFFFFFFFFFFFFFFFFFFFFFFFFFFFFFFFFF AND PUSH2 0x47B5 DUP5 PUSH2 0x19EE JUMP JUMPDEST PUSH20 0xFFFFFFFFFFFFFFFFFFFFFFFFFFFFFFFFFFFFFFFF AND EQ JUMPDEST DUP1 PUSH2 0x47DE JUMPI POP PUSH2 0x47DD DUP2 DUP6 PUSH2 0x3CF3 JUMP JUMPDEST JUMPDEST SWAP2 POP POP SWAP3 SWAP2 POP POP JUMP JUMPDEST DUP3 PUSH20 0xFFFFFFFFFFFFFFFFFFFFFFFFFFFFFFFFFFFFFFFF AND PUSH2 0x4807 DUP3 PUSH2 0x2941 JUMP JUMPDEST PUSH20 0xFFFFFFFFFFFFFFFFFFFFFFFFFFFFFFFFFFFFFFFF AND EQ PUSH2 0x485D JUMPI PUSH1 0x40 MLOAD PUSH32 0x8C379A000000000000000000000000000000000000000000000000000000000 DUP2 MSTORE PUSH1 0x4 ADD PUSH2 0x4854 SWAP1 PUSH2 0x65CB JUMP JUMPDEST PUSH1 0x40 MLOAD DUP1 SWAP2 SUB SWAP1 REVERT JUMPDEST PUSH1 0x0 PUSH20 0xFFFFFFFFFFFFFFFFFFFFFFFFFFFFFFFFFFFFFFFF AND DUP3 PUSH20 0xFFFFFFFFFFFFFFFFFFFFFFFFFFFFFFFFFFFFFFFF AND EQ ISZERO PUSH2 0x48CD JUMPI PUSH1 0x40 MLOAD PUSH32 0x8C379A000000000000000000000000000000000000000000000000000000000 DUP2 MSTORE PUSH1 0x4 ADD PUSH2 0x48C4 SWAP1 PUSH2 0x63CB JUMP JUMPDEST PUSH1 0x40 MLOAD DUP1 SWAP2 SUB SWAP1 REVERT JUMPDEST PUSH2 0x48D8 DUP4 DUP4 DUP4 PUSH2 0x504C JUMP JUMPDEST PUSH2 0x48E3 PUSH1 0x0 DUP3 PUSH2 0x4650 JUMP JUMPDEST PUSH1 0x1 PUSH1 0x3 PUSH1 0x0 DUP6 PUSH20 0xFFFFFFFFFFFFFFFFFFFFFFFFFFFFFFFFFFFFFFFF AND PUSH20 0xFFFFFFFFFFFFFFFFFFFFFFFFFFFFFFFFFFFFFFFF AND DUP2 MSTORE PUSH1 0x20 ADD SWAP1 DUP2 MSTORE PUSH1 0x20 ADD PUSH1 0x0 KECCAK256 PUSH1 0x0 DUP3 DUP3 SLOAD PUSH2 0x4933 SWAP2 SWAP1 PUSH2 0x6A8C JUMP JUMPDEST SWAP3 POP POP DUP2 SWAP1 SSTORE POP PUSH1 0x1 PUSH1 0x3 PUSH1 0x0 DUP5 PUSH20 0xFFFFFFFFFFFFFFFFFFFFFFFFFFFFFFFFFFFFFFFF AND PUSH20 0xFFFFFFFFFFFFFFFFFFFFFFFFFFFFFFFFFFFFFFFF AND DUP2 MSTORE PUSH1 0x20 ADD SWAP1 DUP2 MSTORE PUSH1 0x20 ADD PUSH1 0x0 KECCAK256 PUSH1 0x0 DUP3 DUP3 SLOAD PUSH2 0x498A SWAP2 SWAP1 PUSH2 0x6974 JUMP JUMPDEST SWAP3 POP POP DUP2 SWAP1 SSTORE POP DUP2 PUSH1 0x2 PUSH1 0x0 DUP4 DUP2 MSTORE PUSH1 0x20 ADD SWAP1 DUP2 MSTORE PUSH1 0x20 ADD PUSH1 0x0 KECCAK256 PUSH1 0x0 PUSH2 0x100 EXP DUP2 SLOAD DUP2 PUSH20 0xFFFFFFFFFFFFFFFFFFFFFFFFFFFFFFFFFFFFFFFF MUL NOT AND SWAP1 DUP4 PUSH20 0xFFFFFFFFFFFFFFFFFFFFFFFFFFFFFFFFFFFFFFFF AND MUL OR SWAP1 SSTORE POP DUP1 DUP3 PUSH20 0xFFFFFFFFFFFFFFFFFFFFFFFFFFFFFFFFFFFFFFFF AND DUP5 PUSH20 0xFFFFFFFFFFFFFFFFFFFFFFFFFFFFFFFFFFFFFFFF AND PUSH32 0xDDF252AD1BE2C89B69C2B068FC378DAA952BA7F163C4A11628F55A4DF523B3EF PUSH1 0x40 MLOAD PUSH1 0x40 MLOAD DUP1 SWAP2 SUB SWAP1 LOG4 POP POP POP JUMP JUMPDEST PUSH1 0x0 PUSH1 0x2 DUP3 PUSH2 0x4A52 SWAP2 SWAP1 PUSH2 0x6A32 JUMP JUMPDEST SWAP1 POP SWAP2 SWAP1 POP JUMP JUMPDEST PUSH1 0x0 PUSH1 0x1 PUSH2 0x4A66 DUP4 PUSH2 0x4A43 JUMP JUMPDEST PUSH2 0x4A70 SWAP2 SWAP1 PUSH2 0x6974 JUMP JUMPDEST SWAP1 POP SWAP2 SWAP1 POP JUMP JUMPDEST PUSH1 0x0 PUSH1 0x6 PUSH1 0x0 SWAP1 SLOAD SWAP1 PUSH2 0x100 EXP SWAP1 DIV PUSH20 0xFFFFFFFFFFFFFFFFFFFFFFFFFFFFFFFFFFFFFFFF AND SWAP1 POP DUP2 PUSH1 0x6 PUSH1 0x0 PUSH2 0x100 EXP DUP2 SLOAD DUP2 PUSH20 0xFFFFFFFFFFFFFFFFFFFFFFFFFFFFFFFFFFFFFFFF MUL NOT AND SWAP1 DUP4 PUSH20 0xFFFFFFFFFFFFFFFFFFFFFFFFFFFFFFFFFFFFFFFF AND MUL OR SWAP1 SSTORE POP DUP2 PUSH20 0xFFFFFFFFFFFFFFFFFFFFFFFFFFFFFFFFFFFFFFFF AND DUP2 PUSH20 0xFFFFFFFFFFFFFFFFFFFFFFFFFFFFFFFFFFFFFFFF AND PUSH32 0x8BE0079C531659141344CD1FD0A4F28419497F9722A3DAAFE3B4186F6B6457E0 PUSH1 0x40 MLOAD PUSH1 0x40 MLOAD DUP1 SWAP2 SUB SWAP1 LOG3 POP POP JUMP JUMPDEST PUSH1 0x0 PUSH1 0x64 PUSH1 0x6 PUSH1 0x17 SWAP1 SLOAD SWAP1 PUSH2 0x100 EXP SWAP1 DIV PUSH1 0xFF AND PUSH1 0xFF AND DUP4 PUSH2 0x4B5F SWAP2 SWAP1 PUSH2 0x6A32 JUMP JUMPDEST PUSH2 0x4B69 SWAP2 SWAP1 PUSH2 0x6A01 JUMP JUMPDEST DUP3 PUSH2 0x4B74 SWAP2 SWAP1 PUSH2 0x6A8C JUMP JUMPDEST SWAP1 POP PUSH1 0xB PUSH1 0x0 SWAP1 SLOAD SWAP1 PUSH2 0x100 EXP SWAP1 DIV PUSH20 0xFFFFFFFFFFFFFFFFFFFFFFFFFFFFFFFFFFFFFFFF AND PUSH20 0xFFFFFFFFFFFFFFFFFFFFFFFFFFFFFFFFFFFFFFFF AND PUSH4 0xA9059CBB CALLER DUP4 PUSH1 0x40 MLOAD DUP4 PUSH4 0xFFFFFFFF AND PUSH1 0xE0 SHL DUP2 MSTORE PUSH1 0x4 ADD PUSH2 0x4BD3 SWAP3 SWAP2 SWAP1 PUSH2 0x61B7 JUMP JUMPDEST PUSH1 0x20 PUSH1 0x40 MLOAD DUP1 DUP4 SUB DUP2 PUSH1 0x0 DUP8 DUP1 EXTCODESIZE ISZERO DUP1 ISZERO PUSH2 0x4BED JUMPI PUSH1 0x0 DUP1 REVERT JUMPDEST POP GAS CALL ISZERO DUP1 ISZERO PUSH2 0x4C01 JUMPI RETURNDATASIZE PUSH1 0x0 DUP1 RETURNDATACOPY RETURNDATASIZE PUSH1 0x0 REVERT JUMPDEST POP POP POP POP PUSH1 0x40 MLOAD RETURNDATASIZE PUSH1 0x1F NOT PUSH1 0x1F DUP3 ADD AND DUP3 ADD DUP1 PUSH1 0x40 MSTORE POP DUP2 ADD SWAP1 PUSH2 0x4C25 SWAP2 SWAP1 PUSH2 0x5736 JUMP JUMPDEST POP CALLER PUSH20 0xFFFFFFFFFFFFFFFFFFFFFFFFFFFFFFFFFFFFFFFF AND PUSH32 0x11ACEC8EA502F5C875E157DD1A17389990A9350450464DB61EF112521C0D8751 DUP3 DUP5 PUSH1 0x40 MLOAD PUSH2 0x4C6E SWAP3 SWAP2 SWAP1 PUSH2 0x6761 JUMP JUMPDEST PUSH1 0x40 MLOAD DUP1 SWAP2 SUB SWAP1 LOG2 POP POP JUMP JUMPDEST PUSH2 0x4C85 DUP5 DUP5 DUP5 PUSH2 0x47E7 JUMP JUMPDEST PUSH2 0x4C91 DUP5 DUP5 DUP5 DUP5 PUSH2 0x5051 JUMP JUMPDEST PUSH2 0x4CD0 JUMPI PUSH1 0x40 MLOAD PUSH32 0x8C379A000000000000000000000000000000000000000000000000000000000 DUP2 MSTORE PUSH1 0x4 ADD PUSH2 0x4CC7 SWAP1 PUSH2 0x630B JUMP JUMPDEST PUSH1 0x40 MLOAD DUP1 SWAP2 SUB SWAP1 REVERT JUMPDEST POP POP POP POP JUMP JUMPDEST PUSH1 0x60 PUSH1 0x0 DUP3 EQ ISZERO PUSH2 0x4D1E JUMPI PUSH1 0x40 MLOAD DUP1 PUSH1 0x40 ADD PUSH1 0x40 MSTORE DUP1 PUSH1 0x1 DUP2 MSTORE PUSH1 0x20 ADD PUSH32 0x3000000000000000000000000000000000000000000000000000000000000000 DUP2 MSTORE POP SWAP1 POP PUSH2 0x4E5A JUMP JUMPDEST PUSH1 0x0 DUP3 SWAP1 POP PUSH1 0x0 JUMPDEST PUSH1 0x0 DUP3 EQ PUSH2 0x4D50 JUMPI DUP1 DUP1 PUSH2 0x4D39 SWAP1 PUSH2 0x6C5E JUMP JUMPDEST SWAP2 POP POP PUSH1 0xA DUP3 PUSH2 0x4D49 SWAP2 SWAP1 PUSH2 0x6A01 JUMP JUMPDEST SWAP2 POP PUSH2 0x4D26 JUMP JUMPDEST PUSH1 0x0 DUP2 PUSH8 0xFFFFFFFFFFFFFFFF DUP2 GT ISZERO PUSH2 0x4D6C JUMPI PUSH2 0x4D6B PUSH2 0x6D9E JUMP JUMPDEST JUMPDEST PUSH1 0x40 MLOAD SWAP1 DUP1 DUP3 MSTORE DUP1 PUSH1 0x1F ADD PUSH1 0x1F NOT AND PUSH1 0x20 ADD DUP3 ADD PUSH1 0x40 MSTORE DUP1 ISZERO PUSH2 0x4D9E JUMPI DUP2 PUSH1 0x20 ADD PUSH1 0x1 DUP3 MUL DUP1 CALLDATASIZE DUP4 CALLDATACOPY DUP1 DUP3 ADD SWAP2 POP POP SWAP1 POP JUMPDEST POP SWAP1 POP PUSH1 0x0 DUP3 SWAP1 POP JUMPDEST PUSH1 0x0 DUP7 EQ PUSH2 0x4E52 JUMPI PUSH1 0x1 DUP2 PUSH2 0x4DBC SWAP2 SWAP1 PUSH2 0x6A8C JUMP JUMPDEST SWAP1 POP PUSH1 0x0 PUSH1 0xA DUP1 DUP9 PUSH2 0x4DCE SWAP2 SWAP1 PUSH2 0x6A01 JUMP JUMPDEST PUSH2 0x4DD8 SWAP2 SWAP1 PUSH2 0x6A32 JUMP JUMPDEST DUP8 PUSH2 0x4DE3 SWAP2 SWAP1 PUSH2 0x6A8C JUMP JUMPDEST PUSH1 0x30 PUSH2 0x4DEF SWAP2 SWAP1 PUSH2 0x69CA JUMP JUMPDEST SWAP1 POP PUSH1 0x0 DUP2 PUSH1 0xF8 SHL SWAP1 POP DUP1 DUP5 DUP5 DUP2 MLOAD DUP2 LT PUSH2 0x4E0D JUMPI PUSH2 0x4E0C PUSH2 0x6D6F JUMP JUMPDEST JUMPDEST PUSH1 0x20 ADD ADD SWAP1 PUSH31 0xFFFFFFFFFFFFFFFFFFFFFFFFFFFFFFFFFFFFFFFFFFFFFFFFFFFFFFFFFFFFFF NOT AND SWAP1 DUP2 PUSH1 0x0 BYTE SWAP1 MSTORE8 POP PUSH1 0xA DUP9 PUSH2 0x4E49 SWAP2 SWAP1 PUSH2 0x6A01 JUMP JUMPDEST SWAP8 POP POP POP PUSH2 0x4DA7 JUMP JUMPDEST DUP2 SWAP5 POP POP POP POP POP JUMPDEST SWAP2 SWAP1 POP JUMP JUMPDEST PUSH2 0x4E79 DUP3 DUP3 PUSH1 0x40 MLOAD DUP1 PUSH1 0x20 ADD PUSH1 0x40 MSTORE DUP1 PUSH1 0x0 DUP2 MSTORE POP PUSH2 0x51E8 JUMP JUMPDEST POP POP JUMP JUMPDEST PUSH1 0x0 DUP1 PUSH1 0x0 DUP1 PUSH1 0x64 PUSH2 0x13A DUP7 PUSH2 0x4E93 SWAP2 SWAP1 PUSH2 0x6974 JUMP JUMPDEST PUSH2 0x4E9D SWAP2 SWAP1 PUSH2 0x6CB1 JUMP JUMPDEST SWAP1 POP PUSH1 0x0 PUSH1 0x64 PUSH1 0x48 DUP8 PUSH2 0x4EB0 SWAP2 SWAP1 PUSH2 0x6974 JUMP JUMPDEST PUSH2 0x4EBA SWAP2 SWAP1 PUSH2 0x6CB1 JUMP JUMPDEST SWAP1 POP PUSH1 0x0 PUSH1 0x64 PUSH2 0x9982 DUP9 PUSH2 0x4ECE SWAP2 SWAP1 PUSH2 0x6974 JUMP JUMPDEST PUSH2 0x4ED8 SWAP2 SWAP1 PUSH2 0x6CB1 JUMP JUMPDEST SWAP1 POP PUSH1 0xA SWAP6 POP PUSH1 0xA SWAP5 POP PUSH1 0xA SWAP4 POP PUSH1 0x5F DUP4 LT PUSH2 0x4F19 JUMPI PUSH1 0x5F DUP4 PUSH2 0x4EFB SWAP2 SWAP1 PUSH2 0x6A8C JUMP JUMPDEST PUSH1 0x6 PUSH2 0x4F07 SWAP2 SWAP1 PUSH2 0x6A32 JUMP JUMPDEST DUP7 PUSH2 0x4F12 SWAP2 SWAP1 PUSH2 0x6974 JUMP JUMPDEST SWAP6 POP PUSH2 0x4F73 JUMP JUMPDEST PUSH1 0x50 DUP4 LT PUSH2 0x4F40 JUMPI PUSH1 0x50 DUP4 DUP8 PUSH2 0x4F2F SWAP2 SWAP1 PUSH2 0x6974 JUMP JUMPDEST PUSH2 0x4F39 SWAP2 SWAP1 PUSH2 0x6A8C JUMP JUMPDEST SWAP6 POP PUSH2 0x4F72 JUMP JUMPDEST DUP3 PUSH1 0x14 GT ISZERO DUP1 ISZERO PUSH2 0x4F51 JUMPI POP PUSH1 0x1E DUP4 LT JUMPDEST ISZERO PUSH2 0x4F71 JUMPI PUSH1 0xF DUP4 DUP8 PUSH2 0x4F64 SWAP2 SWAP1 PUSH2 0x6974 JUMP JUMPDEST PUSH2 0x4F6E SWAP2 SWAP1 PUSH2 0x6A8C JUMP JUMPDEST SWAP6 POP JUMPDEST JUMPDEST JUMPDEST PUSH1 0x5F DUP3 LT PUSH2 0x4FA6 JUMPI PUSH1 0x5F DUP3 PUSH2 0x4F88 SWAP2 SWAP1 PUSH2 0x6A8C JUMP JUMPDEST PUSH1 0x6 PUSH2 0x4F94 SWAP2 SWAP1 PUSH2 0x6A32 JUMP JUMPDEST DUP6 PUSH2 0x4F9F SWAP2 SWAP1 PUSH2 0x6974 JUMP JUMPDEST SWAP5 POP PUSH2 0x5000 JUMP JUMPDEST PUSH1 0x50 DUP4 LT PUSH2 0x4FCD JUMPI PUSH1 0x50 DUP3 DUP7 PUSH2 0x4FBC SWAP2 SWAP1 PUSH2 0x6974 JUMP JUMPDEST PUSH2 0x4FC6 SWAP2 SWAP1 PUSH2 0x6A8C JUMP JUMPDEST SWAP5 POP PUSH2 0x4FFF JUMP JUMPDEST DUP2 PUSH1 0xA GT ISZERO DUP1 ISZERO PUSH2 0x4FDE JUMPI POP PUSH1 0x1E DUP3 LT JUMPDEST ISZERO PUSH2 0x4FFE JUMPI PUSH1 0x5 DUP3 DUP7 PUSH2 0x4FF1 SWAP2 SWAP1 PUSH2 0x6974 JUMP JUMPDEST PUSH2 0x4FFB SWAP2 SWAP1 PUSH2 0x6A8C JUMP JUMPDEST SWAP5 POP JUMPDEST JUMPDEST JUMPDEST PUSH1 0x50 DUP2 LT PUSH2 0x5027 JUMPI PUSH1 0x50 DUP2 DUP6 PUSH2 0x5016 SWAP2 SWAP1 PUSH2 0x6974 JUMP JUMPDEST PUSH2 0x5020 SWAP2 SWAP1 PUSH2 0x6A8C JUMP JUMPDEST SWAP4 POP PUSH2 0x5042 JUMP JUMPDEST PUSH1 0xA DUP2 PUSH2 0x5034 SWAP2 SWAP1 PUSH2 0x6A01 JUMP JUMPDEST DUP5 PUSH2 0x503F SWAP2 SWAP1 PUSH2 0x6974 JUMP JUMPDEST SWAP4 POP JUMPDEST POP POP POP SWAP2 SWAP4 SWAP1 SWAP3 POP JUMP JUMPDEST POP POP POP JUMP JUMPDEST PUSH1 0x0 PUSH2 0x5072 DUP5 PUSH20 0xFFFFFFFFFFFFFFFFFFFFFFFFFFFFFFFFFFFFFFFF AND PUSH2 0x5243 JUMP JUMPDEST ISZERO PUSH2 0x51DB JUMPI DUP4 PUSH20 0xFFFFFFFFFFFFFFFFFFFFFFFFFFFFFFFFFFFFFFFF AND PUSH4 0x150B7A02 PUSH2 0x509B PUSH2 0x4333 JUMP JUMPDEST DUP8 DUP7 DUP7 PUSH1 0x40 MLOAD DUP6 PUSH4 0xFFFFFFFF AND PUSH1 0xE0 SHL DUP2 MSTORE PUSH1 0x4 ADD PUSH2 0x50BD SWAP5 SWAP4 SWAP3 SWAP2 SWAP1 PUSH2 0x6099 JUMP JUMPDEST PUSH1 0x20 PUSH1 0x40 MLOAD DUP1 DUP4 SUB DUP2 PUSH1 0x0 DUP8 DUP1 EXTCODESIZE ISZERO DUP1 ISZERO PUSH2 0x50D7 JUMPI PUSH1 0x0 DUP1 REVERT JUMPDEST POP GAS CALL SWAP3 POP POP POP DUP1 ISZERO PUSH2 0x5108 JUMPI POP PUSH1 0x40 MLOAD RETURNDATASIZE PUSH1 0x1F NOT PUSH1 0x1F DUP3 ADD AND DUP3 ADD DUP1 PUSH1 0x40 MSTORE POP DUP2 ADD SWAP1 PUSH2 0x5105 SWAP2 SWAP1 PUSH2 0x5790 JUMP JUMPDEST PUSH1 0x1 JUMPDEST PUSH2 0x518B JUMPI RETURNDATASIZE DUP1 PUSH1 0x0 DUP2 EQ PUSH2 0x5138 JUMPI PUSH1 0x40 MLOAD SWAP2 POP PUSH1 0x1F NOT PUSH1 0x3F RETURNDATASIZE ADD AND DUP3 ADD PUSH1 0x40 MSTORE RETURNDATASIZE DUP3 MSTORE RETURNDATASIZE PUSH1 0x0 PUSH1 0x20 DUP5 ADD RETURNDATACOPY PUSH2 0x513D JUMP JUMPDEST PUSH1 0x60 SWAP2 POP JUMPDEST POP PUSH1 0x0 DUP2 MLOAD EQ ISZERO PUSH2 0x5183 JUMPI PUSH1 0x40 MLOAD PUSH32 0x8C379A000000000000000000000000000000000000000000000000000000000 DUP2 MSTORE PUSH1 0x4 ADD PUSH2 0x517A SWAP1 PUSH2 0x630B JUMP JUMPDEST PUSH1 0x40 MLOAD DUP1 SWAP2 SUB SWAP1 REVERT JUMPDEST DUP1 MLOAD DUP2 PUSH1 0x20 ADD REVERT JUMPDEST PUSH4 0x150B7A02 PUSH1 0xE0 SHL PUSH28 0xFFFFFFFFFFFFFFFFFFFFFFFFFFFFFFFFFFFFFFFFFFFFFFFFFFFFFFFF NOT AND DUP2 PUSH28 0xFFFFFFFFFFFFFFFFFFFFFFFFFFFFFFFFFFFFFFFFFFFFFFFFFFFFFFFF NOT AND EQ SWAP2 POP POP PUSH2 0x51E0 JUMP JUMPDEST PUSH1 0x1 SWAP1 POP JUMPDEST SWAP5 SWAP4 POP POP POP POP JUMP JUMPDEST PUSH2 0x51F2 DUP4 DUP4 PUSH2 0x5256 JUMP JUMPDEST PUSH2 0x51FF PUSH1 0x0 DUP5 DUP5 DUP5 PUSH2 0x5051 JUMP JUMPDEST PUSH2 0x523E JUMPI PUSH1 0x40 MLOAD PUSH32 0x8C379A000000000000000000000000000000000000000000000000000000000 DUP2 MSTORE PUSH1 0x4 ADD PUSH2 0x5235 SWAP1 PUSH2 0x630B JUMP JUMPDEST PUSH1 0x40 MLOAD DUP1 SWAP2 SUB SWAP1 REVERT JUMPDEST POP POP POP JUMP JUMPDEST PUSH1 0x0 DUP1 DUP3 EXTCODESIZE SWAP1 POP PUSH1 0x0 DUP2 GT SWAP2 POP POP SWAP2 SWAP1 POP JUMP JUMPDEST PUSH1 0x0 PUSH20 0xFFFFFFFFFFFFFFFFFFFFFFFFFFFFFFFFFFFFFFFF AND DUP3 PUSH20 0xFFFFFFFFFFFFFFFFFFFFFFFFFFFFFFFFFFFFFFFF AND EQ ISZERO PUSH2 0x52C6 JUMPI PUSH1 0x40 MLOAD PUSH32 0x8C379A000000000000000000000000000000000000000000000000000000000 DUP2 MSTORE PUSH1 0x4 ADD PUSH2 0x52BD SWAP1 PUSH2 0x650B JUMP JUMPDEST PUSH1 0x40 MLOAD DUP1 SWAP2 SUB SWAP1 REVERT JUMPDEST PUSH2 0x52CF DUP2 PUSH2 0x45E4 JUMP JUMPDEST ISZERO PUSH2 0x530F JUMPI PUSH1 0x40 MLOAD PUSH32 0x8C379A000000000000000000000000000000000000000000000000000000000 DUP2 MSTORE PUSH1 0x4 ADD PUSH2 0x5306 SWAP1 PUSH2 0x638B JUMP JUMPDEST PUSH1 0x40 MLOAD DUP1 SWAP2 SUB SWAP1 REVERT JUMPDEST PUSH2 0x531B PUSH1 0x0 DUP4 DUP4 PUSH2 0x504C JUMP JUMPDEST PUSH1 0x1 PUSH1 0x3 PUSH1 0x0 DUP5 PUSH20 0xFFFFFFFFFFFFFFFFFFFFFFFFFFFFFFFFFFFFFFFF AND PUSH20 0xFFFFFFFFFFFFFFFFFFFFFFFFFFFFFFFFFFFFFFFF AND DUP2 MSTORE PUSH1 0x20 ADD SWAP1 DUP2 MSTORE PUSH1 0x20 ADD PUSH1 0x0 KECCAK256 PUSH1 0x0 DUP3 DUP3 SLOAD PUSH2 0x536B SWAP2 SWAP1 PUSH2 0x6974 JUMP JUMPDEST SWAP3 POP POP DUP2 SWAP1 SSTORE POP DUP2 PUSH1 0x2 PUSH1 0x0 DUP4 DUP2 MSTORE PUSH1 0x20 ADD SWAP1 DUP2 MSTORE PUSH1 0x20 ADD PUSH1 0x0 KECCAK256 PUSH1 0x0 PUSH2 0x100 EXP DUP2 SLOAD DUP2 PUSH20 0xFFFFFFFFFFFFFFFFFFFFFFFFFFFFFFFFFFFFFFFF MUL NOT AND SWAP1 DUP4 PUSH20 0xFFFFFFFFFFFFFFFFFFFFFFFFFFFFFFFFFFFFFFFF AND MUL OR SWAP1 SSTORE POP DUP1 DUP3 PUSH20 0xFFFFFFFFFFFFFFFFFFFFFFFFFFFFFFFFFFFFFFFF AND PUSH1 0x0 PUSH20 0xFFFFFFFFFFFFFFFFFFFFFFFFFFFFFFFFFFFFFFFF AND PUSH32 0xDDF252AD1BE2C89B69C2B068FC378DAA952BA7F163C4A11628F55A4DF523B3EF PUSH1 0x40 MLOAD PUSH1 0x40 MLOAD DUP1 SWAP2 SUB SWAP1 LOG4 POP POP JUMP JUMPDEST PUSH1 0x40 MLOAD DUP1 PUSH1 0x60 ADD PUSH1 0x40 MSTORE DUP1 PUSH1 0x3 SWAP1 PUSH1 0x20 DUP3 MUL DUP1 CALLDATASIZE DUP4 CALLDATACOPY DUP1 DUP3 ADD SWAP2 POP POP SWAP1 POP POP SWAP1 JUMP JUMPDEST PUSH1 0x0 PUSH2 0x5459 PUSH2 0x5454 DUP5 PUSH2 0x689A JUMP JUMPDEST PUSH2 0x6875 JUMP JUMPDEST SWAP1 POP DUP3 DUP2 MSTORE PUSH1 0x20 DUP2 ADD DUP5 DUP5 DUP5 ADD GT ISZERO PUSH2 0x5475 JUMPI PUSH2 0x5474 PUSH2 0x6DD2 JUMP JUMPDEST JUMPDEST PUSH2 0x5480 DUP5 DUP3 DUP6 PUSH2 0x6BB9 JUMP JUMPDEST POP SWAP4 SWAP3 POP POP POP JUMP JUMPDEST PUSH1 0x0 DUP2 CALLDATALOAD SWAP1 POP PUSH2 0x5497 DUP2 PUSH2 0x782A JUMP JUMPDEST SWAP3 SWAP2 POP POP JUMP JUMPDEST PUSH1 0x0 DUP2 CALLDATALOAD SWAP1 POP PUSH2 0x54AC DUP2 PUSH2 0x7841 JUMP JUMPDEST SWAP3 SWAP2 POP POP JUMP JUMPDEST PUSH1 0x0 DUP2 MLOAD SWAP1 POP PUSH2 0x54C1 DUP2 PUSH2 0x7841 JUMP JUMPDEST SWAP3 SWAP2 POP POP JUMP JUMPDEST PUSH1 0x0 DUP2 CALLDATALOAD SWAP1 POP PUSH2 0x54D6 DUP2 PUSH2 0x7858 JUMP JUMPDEST SWAP3 SWAP2 POP POP JUMP JUMPDEST PUSH1 0x0 DUP2 MLOAD SWAP1 POP PUSH2 0x54EB DUP2 PUSH2 0x7858 JUMP JUMPDEST SWAP3 SWAP2 POP POP JUMP JUMPDEST PUSH1 0x0 DUP3 PUSH1 0x1F DUP4 ADD SLT PUSH2 0x5506 JUMPI PUSH2 0x5505 PUSH2 0x6DCD JUMP JUMPDEST JUMPDEST DUP2 CALLDATALOAD PUSH2 0x5516 DUP5 DUP3 PUSH1 0x20 DUP7 ADD PUSH2 0x5446 JUMP JUMPDEST SWAP2 POP POP SWAP3 SWAP2 POP POP JUMP JUMPDEST PUSH1 0x0 DUP2 CALLDATALOAD SWAP1 POP PUSH2 0x552E DUP2 PUSH2 0x786F JUMP JUMPDEST SWAP3 SWAP2 POP POP JUMP JUMPDEST PUSH1 0x0 DUP2 MLOAD SWAP1 POP PUSH2 0x5543 DUP2 PUSH2 0x786F JUMP JUMPDEST SWAP3 SWAP2 POP POP JUMP JUMPDEST PUSH1 0x0 DUP2 CALLDATALOAD SWAP1 POP PUSH2 0x5558 DUP2 PUSH2 0x7886 JUMP JUMPDEST SWAP3 SWAP2 POP POP JUMP JUMPDEST PUSH1 0x0 DUP2 CALLDATALOAD SWAP1 POP PUSH2 0x556D DUP2 PUSH2 0x789D JUMP JUMPDEST SWAP3 SWAP2 POP POP JUMP JUMPDEST PUSH1 0x0 PUSH1 0x20 DUP3 DUP5 SUB SLT ISZERO PUSH2 0x5589 JUMPI PUSH2 0x5588 PUSH2 0x6DDC JUMP JUMPDEST JUMPDEST PUSH1 0x0 PUSH2 0x5597 DUP5 DUP3 DUP6 ADD PUSH2 0x5488 JUMP JUMPDEST SWAP2 POP POP SWAP3 SWAP2 POP POP JUMP JUMPDEST PUSH1 0x0 DUP1 PUSH1 0x40 DUP4 DUP6 SUB SLT ISZERO PUSH2 0x55B7 JUMPI PUSH2 0x55B6 PUSH2 0x6DDC JUMP JUMPDEST JUMPDEST PUSH1 0x0 PUSH2 0x55C5 DUP6 DUP3 DUP7 ADD PUSH2 0x5488 JUMP JUMPDEST SWAP3 POP POP PUSH1 0x20 PUSH2 0x55D6 DUP6 DUP3 DUP7 ADD PUSH2 0x5488 JUMP JUMPDEST SWAP2 POP POP SWAP3 POP SWAP3 SWAP1 POP JUMP JUMPDEST PUSH1 0x0 DUP1 PUSH1 0x0 PUSH1 0x60 DUP5 DUP7 SUB SLT ISZERO PUSH2 0x55F9 JUMPI PUSH2 0x55F8 PUSH2 0x6DDC JUMP JUMPDEST JUMPDEST PUSH1 0x0 PUSH2 0x5607 DUP7 DUP3 DUP8 ADD PUSH2 0x5488 JUMP JUMPDEST SWAP4 POP POP PUSH1 0x20 PUSH2 0x5618 DUP7 DUP3 DUP8 ADD PUSH2 0x5488 JUMP JUMPDEST SWAP3 POP POP PUSH1 0x40 PUSH2 0x5629 DUP7 DUP3 DUP8 ADD PUSH2 0x551F JUMP JUMPDEST SWAP2 POP POP SWAP3 POP SWAP3 POP SWAP3 JUMP JUMPDEST PUSH1 0x0 DUP1 PUSH1 0x0 DUP1 PUSH1 0x80 DUP6 DUP8 SUB SLT ISZERO PUSH2 0x564D JUMPI PUSH2 0x564C PUSH2 0x6DDC JUMP JUMPDEST JUMPDEST PUSH1 0x0 PUSH2 0x565B DUP8 DUP3 DUP9 ADD PUSH2 0x5488 JUMP JUMPDEST SWAP5 POP POP PUSH1 0x20 PUSH2 0x566C DUP8 DUP3 DUP9 ADD PUSH2 0x5488 JUMP JUMPDEST SWAP4 POP POP PUSH1 0x40 PUSH2 0x567D DUP8 DUP3 DUP9 ADD PUSH2 0x551F JUMP JUMPDEST SWAP3 POP POP PUSH1 0x60 DUP6 ADD CALLDATALOAD PUSH8 0xFFFFFFFFFFFFFFFF DUP2 GT ISZERO PUSH2 0x569E JUMPI PUSH2 0x569D PUSH2 0x6DD7 JUMP JUMPDEST JUMPDEST PUSH2 0x56AA DUP8 DUP3 DUP9 ADD PUSH2 0x54F1 JUMP JUMPDEST SWAP2 POP POP SWAP3 SWAP6 SWAP2 SWAP5 POP SWAP3 POP JUMP JUMPDEST PUSH1 0x0 DUP1 PUSH1 0x40 DUP4 DUP6 SUB SLT ISZERO PUSH2 0x56CD JUMPI PUSH2 0x56CC PUSH2 0x6DDC JUMP JUMPDEST JUMPDEST PUSH1 0x0 PUSH2 0x56DB DUP6 DUP3 DUP7 ADD PUSH2 0x5488 JUMP JUMPDEST SWAP3 POP POP PUSH1 0x20 PUSH2 0x56EC DUP6 DUP3 DUP7 ADD PUSH2 0x549D JUMP JUMPDEST SWAP2 POP POP SWAP3 POP SWAP3 SWAP1 POP JUMP JUMPDEST PUSH1 0x0 DUP1 PUSH1 0x40 DUP4 DUP6 SUB SLT ISZERO PUSH2 0x570D JUMPI PUSH2 0x570C PUSH2 0x6DDC JUMP JUMPDEST JUMPDEST PUSH1 0x0 PUSH2 0x571B DUP6 DUP3 DUP7 ADD PUSH2 0x5488 JUMP JUMPDEST SWAP3 POP POP PUSH1 0x20 PUSH2 0x572C DUP6 DUP3 DUP7 ADD PUSH2 0x551F JUMP JUMPDEST SWAP2 POP POP SWAP3 POP SWAP3 SWAP1 POP JUMP JUMPDEST PUSH1 0x0 PUSH1 0x20 DUP3 DUP5 SUB SLT ISZERO PUSH2 0x574C JUMPI PUSH2 0x574B PUSH2 0x6DDC JUMP JUMPDEST JUMPDEST PUSH1 0x0 PUSH2 0x575A DUP5 DUP3 DUP6 ADD PUSH2 0x54B2 JUMP JUMPDEST SWAP2 POP POP SWAP3 SWAP2 POP POP JUMP JUMPDEST PUSH1 0x0 PUSH1 0x20 DUP3 DUP5 SUB SLT ISZERO PUSH2 0x5779 JUMPI PUSH2 0x5778 PUSH2 0x6DDC JUMP JUMPDEST JUMPDEST PUSH1 0x0 PUSH2 0x5787 DUP5 DUP3 DUP6 ADD PUSH2 0x54C7 JUMP JUMPDEST SWAP2 POP POP SWAP3 SWAP2 POP POP JUMP JUMPDEST PUSH1 0x0 PUSH1 0x20 DUP3 DUP5 SUB SLT ISZERO PUSH2 0x57A6 JUMPI PUSH2 0x57A5 PUSH2 0x6DDC JUMP JUMPDEST JUMPDEST PUSH1 0x0 PUSH2 0x57B4 DUP5 DUP3 DUP6 ADD PUSH2 0x54DC JUMP JUMPDEST SWAP2 POP POP SWAP3 SWAP2 POP POP JUMP JUMPDEST PUSH1 0x0 PUSH1 0x20 DUP3 DUP5 SUB SLT ISZERO PUSH2 0x57D3 JUMPI PUSH2 0x57D2 PUSH2 0x6DDC JUMP JUMPDEST JUMPDEST PUSH1 0x0 PUSH2 0x57E1 DUP5 DUP3 DUP6 ADD PUSH2 0x551F JUMP JUMPDEST SWAP2 POP POP SWAP3 SWAP2 POP POP JUMP JUMPDEST PUSH1 0x0 PUSH1 0x20 DUP3 DUP5 SUB SLT ISZERO PUSH2 0x5800 JUMPI PUSH2 0x57FF PUSH2 0x6DDC JUMP JUMPDEST JUMPDEST PUSH1 0x0 PUSH2 0x580E DUP5 DUP3 DUP6 ADD PUSH2 0x5534 JUMP JUMPDEST SWAP2 POP POP SWAP3 SWAP2 POP POP JUMP JUMPDEST PUSH1 0x0 DUP1 PUSH1 0x0 PUSH1 0x60 DUP5 DUP7 SUB SLT ISZERO PUSH2 0x5830 JUMPI PUSH2 0x582F PUSH2 0x6DDC JUMP JUMPDEST JUMPDEST PUSH1 0x0 PUSH2 0x583E DUP7 DUP3 DUP8 ADD PUSH2 0x551F JUMP JUMPDEST SWAP4 POP POP PUSH1 0x20 PUSH2 0x584F DUP7 DUP3 DUP8 ADD PUSH2 0x5549 JUMP JUMPDEST SWAP3 POP POP PUSH1 0x40 PUSH2 0x5860 DUP7 DUP3 DUP8 ADD PUSH2 0x551F JUMP JUMPDEST SWAP2 POP POP SWAP3 POP SWAP3 POP SWAP3 JUMP JUMPDEST PUSH1 0x0 DUP1 PUSH1 0x0 PUSH1 0x60 DUP5 DUP7 SUB SLT ISZERO PUSH2 0x5883 JUMPI PUSH2 0x5882 PUSH2 0x6DDC JUMP JUMPDEST JUMPDEST PUSH1 0x0 PUSH2 0x5891 DUP7 DUP3 DUP8 ADD PUSH2 0x551F JUMP JUMPDEST SWAP4 POP POP PUSH1 0x20 PUSH2 0x58A2 DUP7 DUP3 DUP8 ADD PUSH2 0x5549 JUMP JUMPDEST SWAP3 POP POP PUSH1 0x40 PUSH2 0x58B3 DUP7 DUP3 DUP8 ADD PUSH2 0x555E JUMP JUMPDEST SWAP2 POP POP SWAP3 POP SWAP3 POP SWAP3 JUMP JUMPDEST PUSH1 0x0 DUP1 PUSH1 0x40 DUP4 DUP6 SUB SLT ISZERO PUSH2 0x58D4 JUMPI PUSH2 0x58D3 PUSH2 0x6DDC JUMP JUMPDEST JUMPDEST PUSH1 0x0 PUSH2 0x58E2 DUP6 DUP3 DUP7 ADD PUSH2 0x551F JUMP JUMPDEST SWAP3 POP POP PUSH1 0x20 PUSH2 0x58F3 DUP6 DUP3 DUP7 ADD PUSH2 0x555E JUMP JUMPDEST SWAP2 POP POP SWAP3 POP SWAP3 SWAP1 POP JUMP JUMPDEST PUSH1 0x0 PUSH2 0x5909 DUP4 DUP4 PUSH2 0x5FB3 JUMP JUMPDEST PUSH1 0x20 DUP4 ADD SWAP1 POP SWAP3 SWAP2 POP POP JUMP JUMPDEST PUSH2 0x591E DUP2 PUSH2 0x6AC0 JUMP JUMPDEST DUP3 MSTORE POP POP JUMP JUMPDEST PUSH2 0x592D DUP2 PUSH2 0x68E5 JUMP JUMPDEST PUSH2 0x5937 DUP2 DUP5 PUSH2 0x692B JUMP JUMPDEST SWAP3 POP PUSH2 0x5942 DUP3 PUSH2 0x68CB JUMP JUMPDEST DUP1 PUSH1 0x0 JUMPDEST DUP4 DUP2 LT ISZERO PUSH2 0x5973 JUMPI DUP2 MLOAD PUSH2 0x595A DUP8 DUP3 PUSH2 0x58FD JUMP JUMPDEST SWAP7 POP PUSH2 0x5965 DUP4 PUSH2 0x6911 JUMP JUMPDEST SWAP3 POP POP PUSH1 0x1 DUP2 ADD SWAP1 POP PUSH2 0x5946 JUMP JUMPDEST POP POP POP POP POP POP JUMP JUMPDEST PUSH1 0x0 PUSH2 0x5986 DUP3 PUSH2 0x68F0 JUMP JUMPDEST PUSH2 0x5990 DUP2 DUP6 PUSH2 0x6936 JUMP JUMPDEST SWAP4 POP PUSH2 0x599B DUP4 PUSH2 0x68D5 JUMP JUMPDEST DUP1 PUSH1 0x0 JUMPDEST DUP4 DUP2 LT ISZERO PUSH2 0x59CC JUMPI DUP2 MLOAD PUSH2 0x59B3 DUP9 DUP3 PUSH2 0x58FD JUMP JUMPDEST SWAP8 POP PUSH2 0x59BE DUP4 PUSH2 0x691E JUMP JUMPDEST SWAP3 POP POP PUSH1 0x1 DUP2 ADD SWAP1 POP PUSH2 0x599F JUMP JUMPDEST POP DUP6 SWAP4 POP POP POP POP SWAP3 SWAP2 POP POP JUMP JUMPDEST PUSH2 0x59E2 DUP2 PUSH2 0x6AD2 JUMP JUMPDEST DUP3 MSTORE POP POP JUMP JUMPDEST PUSH1 0x0 PUSH2 0x59F3 DUP3 PUSH2 0x68FB JUMP JUMPDEST PUSH2 0x59FD DUP2 DUP6 PUSH2 0x6947 JUMP JUMPDEST SWAP4 POP PUSH2 0x5A0D DUP2 DUP6 PUSH1 0x20 DUP7 ADD PUSH2 0x6BC8 JUMP JUMPDEST PUSH2 0x5A16 DUP2 PUSH2 0x6DE1 JUMP JUMPDEST DUP5 ADD SWAP2 POP POP SWAP3 SWAP2 POP POP JUMP JUMPDEST PUSH2 0x5A2A DUP2 PUSH2 0x6B5F JUMP JUMPDEST DUP3 MSTORE POP POP JUMP JUMPDEST PUSH2 0x5A39 DUP2 PUSH2 0x6B71 JUMP JUMPDEST DUP3 MSTORE POP POP JUMP JUMPDEST PUSH2 0x5A48 DUP2 PUSH2 0x6B83 JUMP JUMPDEST DUP3 MSTORE POP POP JUMP JUMPDEST PUSH1 0x0 PUSH2 0x5A59 DUP3 PUSH2 0x6906 JUMP JUMPDEST PUSH2 0x5A63 DUP2 DUP6 PUSH2 0x6958 JUMP JUMPDEST SWAP4 POP PUSH2 0x5A73 DUP2 DUP6 PUSH1 0x20 DUP7 ADD PUSH2 0x6BC8 JUMP JUMPDEST PUSH2 0x5A7C DUP2 PUSH2 0x6DE1 JUMP JUMPDEST DUP5 ADD SWAP2 POP POP SWAP3 SWAP2 POP POP JUMP JUMPDEST PUSH1 0x0 PUSH2 0x5A92 DUP3 PUSH2 0x6906 JUMP JUMPDEST PUSH2 0x5A9C DUP2 DUP6 PUSH2 0x6969 JUMP JUMPDEST SWAP4 POP PUSH2 0x5AAC DUP2 DUP6 PUSH1 0x20 DUP7 ADD PUSH2 0x6BC8 JUMP JUMPDEST DUP1 DUP5 ADD SWAP2 POP POP SWAP3 SWAP2 POP POP JUMP JUMPDEST PUSH1 0x0 PUSH2 0x5AC5 PUSH1 0x1E DUP4 PUSH2 0x6958 JUMP JUMPDEST SWAP2 POP PUSH2 0x5AD0 DUP3 PUSH2 0x6DF2 JUMP JUMPDEST PUSH1 0x20 DUP3 ADD SWAP1 POP SWAP2 SWAP1 POP JUMP JUMPDEST PUSH1 0x0 PUSH2 0x5AE8 PUSH1 0x23 DUP4 PUSH2 0x6958 JUMP JUMPDEST SWAP2 POP PUSH2 0x5AF3 DUP3 PUSH2 0x6E1B JUMP JUMPDEST PUSH1 0x40 DUP3 ADD SWAP1 POP SWAP2 SWAP1 POP JUMP JUMPDEST PUSH1 0x0 PUSH2 0x5B0B PUSH1 0x32 DUP4 PUSH2 0x6958 JUMP JUMPDEST SWAP2 POP PUSH2 0x5B16 DUP3 PUSH2 0x6E6A JUMP JUMPDEST PUSH1 0x40 DUP3 ADD SWAP1 POP SWAP2 SWAP1 POP JUMP JUMPDEST PUSH1 0x0 PUSH2 0x5B2E PUSH1 0x32 DUP4 PUSH2 0x6958 JUMP JUMPDEST SWAP2 POP PUSH2 0x5B39 DUP3 PUSH2 0x6EB9 JUMP JUMPDEST PUSH1 0x40 DUP3 ADD SWAP1 POP SWAP2 SWAP1 POP JUMP JUMPDEST PUSH1 0x0 PUSH2 0x5B51 PUSH1 0x19 DUP4 PUSH2 0x6958 JUMP JUMPDEST SWAP2 POP PUSH2 0x5B5C DUP3 PUSH2 0x6F08 JUMP JUMPDEST PUSH1 0x20 DUP3 ADD SWAP1 POP SWAP2 SWAP1 POP JUMP JUMPDEST PUSH1 0x0 PUSH2 0x5B74 PUSH1 0x26 DUP4 PUSH2 0x6958 JUMP JUMPDEST SWAP2 POP PUSH2 0x5B7F DUP3 PUSH2 0x6F31 JUMP JUMPDEST PUSH1 0x40 DUP3 ADD SWAP1 POP SWAP2 SWAP1 POP JUMP JUMPDEST PUSH1 0x0 PUSH2 0x5B97 PUSH1 0x30 DUP4 PUSH2 0x6958 JUMP JUMPDEST SWAP2 POP PUSH2 0x5BA2 DUP3 PUSH2 0x6F80 JUMP JUMPDEST PUSH1 0x40 DUP3 ADD SWAP1 POP SWAP2 SWAP1 POP JUMP JUMPDEST PUSH1 0x0 PUSH2 0x5BBA PUSH1 0x1C DUP4 PUSH2 0x6958 JUMP JUMPDEST SWAP2 POP PUSH2 0x5BC5 DUP3 PUSH2 0x6FCF JUMP JUMPDEST PUSH1 0x20 DUP3 ADD SWAP1 POP SWAP2 SWAP1 POP JUMP JUMPDEST PUSH1 0x0 PUSH2 0x5BDD PUSH1 0x32 DUP4 PUSH2 0x6958 JUMP JUMPDEST SWAP2 POP PUSH2 0x5BE8 DUP3 PUSH2 0x6FF8 JUMP JUMPDEST PUSH1 0x40 DUP3 ADD SWAP1 POP SWAP2 SWAP1 POP JUMP JUMPDEST PUSH1 0x0 PUSH2 0x5C00 PUSH1 0x24 DUP4 PUSH2 0x6958 JUMP JUMPDEST SWAP2 POP PUSH2 0x5C0B DUP3 PUSH2 0x7047 JUMP JUMPDEST PUSH1 0x40 DUP3 ADD SWAP1 POP SWAP2 SWAP1 POP JUMP JUMPDEST PUSH1 0x0 PUSH2 0x5C23 PUSH1 0x19 DUP4 PUSH2 0x6958 JUMP JUMPDEST SWAP2 POP PUSH2 0x5C2E DUP3 PUSH2 0x7096 JUMP JUMPDEST PUSH1 0x20 DUP3 ADD SWAP1 POP SWAP2 SWAP1 POP JUMP JUMPDEST PUSH1 0x0 PUSH2 0x5C46 PUSH1 0x2F DUP4 PUSH2 0x6958 JUMP JUMPDEST SWAP2 POP PUSH2 0x5C51 DUP3 PUSH2 0x70BF JUMP JUMPDEST PUSH1 0x40 DUP3 ADD SWAP1 POP SWAP2 SWAP1 POP JUMP JUMPDEST PUSH1 0x0 PUSH2 0x5C69 PUSH1 0x25 DUP4 PUSH2 0x6958 JUMP JUMPDEST SWAP2 POP PUSH2 0x5C74 DUP3 PUSH2 0x710E JUMP JUMPDEST PUSH1 0x40 DUP3 ADD SWAP1 POP SWAP2 SWAP1 POP JUMP JUMPDEST PUSH1 0x0 PUSH2 0x5C8C PUSH1 0x2C DUP4 PUSH2 0x6958 JUMP JUMPDEST SWAP2 POP PUSH2 0x5C97 DUP3 PUSH2 0x715D JUMP JUMPDEST PUSH1 0x40 DUP3 ADD SWAP1 POP SWAP2 SWAP1 POP JUMP JUMPDEST PUSH1 0x0 PUSH2 0x5CAF PUSH1 0x32 DUP4 PUSH2 0x6958 JUMP JUMPDEST SWAP2 POP PUSH2 0x5CBA DUP3 PUSH2 0x71AC JUMP JUMPDEST PUSH1 0x40 DUP3 ADD SWAP1 POP SWAP2 SWAP1 POP JUMP JUMPDEST PUSH1 0x0 PUSH2 0x5CD2 PUSH1 0x27 DUP4 PUSH2 0x6958 JUMP JUMPDEST SWAP2 POP PUSH2 0x5CDD DUP3 PUSH2 0x71FB JUMP JUMPDEST PUSH1 0x40 DUP3 ADD SWAP1 POP SWAP2 SWAP1 POP JUMP JUMPDEST PUSH1 0x0 PUSH2 0x5CF5 PUSH1 0x38 DUP4 PUSH2 0x6958 JUMP JUMPDEST SWAP2 POP PUSH2 0x5D00 DUP3 PUSH2 0x724A JUMP JUMPDEST PUSH1 0x40 DUP3 ADD SWAP1 POP SWAP2 SWAP1 POP JUMP JUMPDEST PUSH1 0x0 PUSH2 0x5D18 PUSH1 0x2A DUP4 PUSH2 0x6958 JUMP JUMPDEST SWAP2 POP PUSH2 0x5D23 DUP3 PUSH2 0x7299 JUMP JUMPDEST PUSH1 0x40 DUP3 ADD SWAP1 POP SWAP2 SWAP1 POP JUMP JUMPDEST PUSH1 0x0 PUSH2 0x5D3B PUSH1 0x29 DUP4 PUSH2 0x6958 JUMP JUMPDEST SWAP2 POP PUSH2 0x5D46 DUP3 PUSH2 0x72E8 JUMP JUMPDEST PUSH1 0x40 DUP3 ADD SWAP1 POP SWAP2 SWAP1 POP JUMP JUMPDEST PUSH1 0x0 PUSH2 0x5D5E PUSH1 0x20 DUP4 PUSH2 0x6958 JUMP JUMPDEST SWAP2 POP PUSH2 0x5D69 DUP3 PUSH2 0x7337 JUMP JUMPDEST PUSH1 0x20 DUP3 ADD SWAP1 POP SWAP2 SWAP1 POP JUMP JUMPDEST PUSH1 0x0 PUSH2 0x5D81 PUSH1 0x31 DUP4 PUSH2 0x6958 JUMP JUMPDEST SWAP2 POP PUSH2 0x5D8C DUP3 PUSH2 0x7360 JUMP JUMPDEST PUSH1 0x40 DUP3 ADD SWAP1 POP SWAP2 SWAP1 POP JUMP JUMPDEST PUSH1 0x0 PUSH2 0x5DA4 PUSH1 0x2C DUP4 PUSH2 0x6958 JUMP JUMPDEST SWAP2 POP PUSH2 0x5DAF DUP3 PUSH2 0x73AF JUMP JUMPDEST PUSH1 0x40 DUP3 ADD SWAP1 POP SWAP2 SWAP1 POP JUMP JUMPDEST PUSH1 0x0 PUSH2 0x5DC7 PUSH1 0x32 DUP4 PUSH2 0x6958 JUMP JUMPDEST SWAP2 POP PUSH2 0x5DD2 DUP3 PUSH2 0x73FE JUMP JUMPDEST PUSH1 0x40 DUP3 ADD SWAP1 POP SWAP2 SWAP1 POP JUMP JUMPDEST PUSH1 0x0 PUSH2 0x5DEA PUSH1 0x20 DUP4 PUSH2 0x6958 JUMP JUMPDEST SWAP2 POP PUSH2 0x5DF5 DUP3 PUSH2 0x744D JUMP JUMPDEST PUSH1 0x20 DUP3 ADD SWAP1 POP SWAP2 SWAP1 POP JUMP JUMPDEST PUSH1 0x0 PUSH2 0x5E0D PUSH1 0x36 DUP4 PUSH2 0x6958 JUMP JUMPDEST SWAP2 POP PUSH2 0x5E18 DUP3 PUSH2 0x7476 JUMP JUMPDEST PUSH1 0x40 DUP3 ADD SWAP1 POP SWAP2 SWAP1 POP JUMP JUMPDEST PUSH1 0x0 PUSH2 0x5E30 PUSH1 0x29 DUP4 PUSH2 0x6958 JUMP JUMPDEST SWAP2 POP PUSH2 0x5E3B DUP3 PUSH2 0x74C5 JUMP JUMPDEST PUSH1 0x40 DUP3 ADD SWAP1 POP SWAP2 SWAP1 POP JUMP JUMPDEST PUSH1 0x0 PUSH2 0x5E53 PUSH1 0x46 DUP4 PUSH2 0x6958 JUMP JUMPDEST SWAP2 POP PUSH2 0x5E5E DUP3 PUSH2 0x7514 JUMP JUMPDEST PUSH1 0x60 DUP3 ADD SWAP1 POP SWAP2 SWAP1 POP JUMP JUMPDEST PUSH1 0x0 PUSH2 0x5E76 PUSH1 0x16 DUP4 PUSH2 0x6958 JUMP JUMPDEST SWAP2 POP PUSH2 0x5E81 DUP3 PUSH2 0x7589 JUMP JUMPDEST PUSH1 0x20 DUP3 ADD SWAP1 POP SWAP2 SWAP1 POP JUMP JUMPDEST PUSH1 0x0 PUSH2 0x5E99 PUSH1 0x21 DUP4 PUSH2 0x6958 JUMP JUMPDEST SWAP2 POP PUSH2 0x5EA4 DUP3 PUSH2 0x75B2 JUMP JUMPDEST PUSH1 0x40 DUP3 ADD SWAP1 POP SWAP2 SWAP1 POP JUMP JUMPDEST PUSH1 0x0 PUSH2 0x5EBC PUSH1 0x31 DUP4 PUSH2 0x6958 JUMP JUMPDEST SWAP2 POP PUSH2 0x5EC7 DUP3 PUSH2 0x7601 JUMP JUMPDEST PUSH1 0x40 DUP3 ADD SWAP1 POP SWAP2 SWAP1 POP JUMP JUMPDEST PUSH1 0x0 PUSH2 0x5EDF PUSH1 0x34 DUP4 PUSH2 0x6958 JUMP JUMPDEST SWAP2 POP PUSH2 0x5EEA DUP3 PUSH2 0x7650 JUMP JUMPDEST PUSH1 0x40 DUP3 ADD SWAP1 POP SWAP2 SWAP1 POP JUMP JUMPDEST PUSH1 0x0 PUSH2 0x5F02 PUSH1 0x22 DUP4 PUSH2 0x6958 JUMP JUMPDEST SWAP2 POP PUSH2 0x5F0D DUP3 PUSH2 0x769F JUMP JUMPDEST PUSH1 0x40 DUP3 ADD SWAP1 POP SWAP2 SWAP1 POP JUMP JUMPDEST PUSH1 0x0 PUSH2 0x5F25 PUSH1 0x2F DUP4 PUSH2 0x6958 JUMP JUMPDEST SWAP2 POP PUSH2 0x5F30 DUP3 PUSH2 0x76EE JUMP JUMPDEST PUSH1 0x40 DUP3 ADD SWAP1 POP SWAP2 SWAP1 POP JUMP JUMPDEST PUSH1 0x0 PUSH2 0x5F48 PUSH1 0x22 DUP4 PUSH2 0x6958 JUMP JUMPDEST SWAP2 POP PUSH2 0x5F53 DUP3 PUSH2 0x773D JUMP JUMPDEST PUSH1 0x40 DUP3 ADD SWAP1 POP SWAP2 SWAP1 POP JUMP JUMPDEST PUSH1 0x0 PUSH2 0x5F6B PUSH1 0x21 DUP4 PUSH2 0x6958 JUMP JUMPDEST SWAP2 POP PUSH2 0x5F76 DUP3 PUSH2 0x778C JUMP JUMPDEST PUSH1 0x40 DUP3 ADD SWAP1 POP SWAP2 SWAP1 POP JUMP JUMPDEST PUSH1 0x0 PUSH2 0x5F8E PUSH1 0x26 DUP4 PUSH2 0x6958 JUMP JUMPDEST SWAP2 POP PUSH2 0x5F99 DUP3 PUSH2 0x77DB JUMP JUMPDEST PUSH1 0x40 DUP3 ADD SWAP1 POP SWAP2 SWAP1 POP JUMP JUMPDEST PUSH2 0x5FAD DUP2 PUSH2 0x6B0A JUMP JUMPDEST DUP3 MSTORE POP POP JUMP JUMPDEST PUSH2 0x5FBC DUP2 PUSH2 0x6B38 JUMP JUMPDEST DUP3 MSTORE POP POP JUMP JUMPDEST PUSH2 0x5FCB DUP2 PUSH2 0x6B38 JUMP JUMPDEST DUP3 MSTORE POP POP JUMP JUMPDEST PUSH2 0x5FE2 PUSH2 0x5FDD DUP3 PUSH2 0x6B38 JUMP JUMPDEST PUSH2 0x6CA7 JUMP JUMPDEST DUP3 MSTORE POP POP JUMP JUMPDEST PUSH2 0x5FF1 DUP2 PUSH2 0x6B52 JUMP JUMPDEST DUP3 MSTORE POP POP JUMP JUMPDEST PUSH1 0x0 PUSH2 0x6003 DUP3 DUP6 PUSH2 0x5A87 JUMP JUMPDEST SWAP2 POP PUSH2 0x600F DUP3 DUP5 PUSH2 0x5A87 JUMP JUMPDEST SWAP2 POP DUP2 SWAP1 POP SWAP4 SWAP3 POP POP POP JUMP JUMPDEST PUSH1 0x0 PUSH2 0x6027 DUP3 DUP6 PUSH2 0x5FD1 JUMP JUMPDEST PUSH1 0x20 DUP3 ADD SWAP2 POP PUSH2 0x6037 DUP3 DUP5 PUSH2 0x5FD1 JUMP JUMPDEST PUSH1 0x20 DUP3 ADD SWAP2 POP DUP2 SWAP1 POP SWAP4 SWAP3 POP POP POP JUMP JUMPDEST PUSH1 0x0 PUSH1 0x20 DUP3 ADD SWAP1 POP PUSH2 0x605C PUSH1 0x0 DUP4 ADD DUP5 PUSH2 0x5915 JUMP JUMPDEST SWAP3 SWAP2 POP POP JUMP JUMPDEST PUSH1 0x0 PUSH1 0x60 DUP3 ADD SWAP1 POP PUSH2 0x6077 PUSH1 0x0 DUP4 ADD DUP7 PUSH2 0x5915 JUMP JUMPDEST PUSH2 0x6084 PUSH1 0x20 DUP4 ADD DUP6 PUSH2 0x5915 JUMP JUMPDEST PUSH2 0x6091 PUSH1 0x40 DUP4 ADD DUP5 PUSH2 0x5FC2 JUMP JUMPDEST SWAP5 SWAP4 POP POP POP POP JUMP JUMPDEST PUSH1 0x0 PUSH1 0x80 DUP3 ADD SWAP1 POP PUSH2 0x60AE PUSH1 0x0 DUP4 ADD DUP8 PUSH2 0x5915 JUMP JUMPDEST PUSH2 0x60BB PUSH1 0x20 DUP4 ADD DUP7 PUSH2 0x5915 JUMP JUMPDEST PUSH2 0x60C8 PUSH1 0x40 DUP4 ADD DUP6 PUSH2 0x5FC2 JUMP JUMPDEST DUP2 DUP2 SUB PUSH1 0x60 DUP4 ADD MSTORE PUSH2 0x60DA DUP2 DUP5 PUSH2 0x59E8 JUMP JUMPDEST SWAP1 POP SWAP6 SWAP5 POP POP POP POP POP JUMP JUMPDEST PUSH1 0x0 PUSH1 0x80 DUP3 ADD SWAP1 POP PUSH2 0x60FA PUSH1 0x0 DUP4 ADD DUP8 PUSH2 0x5915 JUMP JUMPDEST PUSH2 0x6107 PUSH1 0x20 DUP4 ADD DUP7 PUSH2 0x5915 JUMP JUMPDEST PUSH2 0x6114 PUSH1 0x40 DUP4 ADD DUP6 PUSH2 0x5FC2 JUMP JUMPDEST PUSH2 0x6121 PUSH1 0x60 DUP4 ADD DUP5 PUSH2 0x5FC2 JUMP JUMPDEST SWAP6 SWAP5 POP POP POP POP POP JUMP JUMPDEST PUSH1 0x0 PUSH2 0x120 DUP3 ADD SWAP1 POP PUSH2 0x6140 PUSH1 0x0 DUP4 ADD DUP13 PUSH2 0x5915 JUMP JUMPDEST PUSH2 0x614D PUSH1 0x20 DUP4 ADD DUP12 PUSH2 0x5915 JUMP JUMPDEST PUSH2 0x615A PUSH1 0x40 DUP4 ADD DUP11 PUSH2 0x5FC2 JUMP JUMPDEST PUSH2 0x6167 PUSH1 0x60 DUP4 ADD DUP10 PUSH2 0x5FC2 JUMP JUMPDEST PUSH2 0x6174 PUSH1 0x80 DUP4 ADD DUP9 PUSH2 0x5FC2 JUMP JUMPDEST PUSH2 0x6181 PUSH1 0xA0 DUP4 ADD DUP8 PUSH2 0x5FC2 JUMP JUMPDEST PUSH2 0x618E PUSH1 0xC0 DUP4 ADD DUP7 PUSH2 0x5FC2 JUMP JUMPDEST PUSH2 0x619B PUSH1 0xE0 DUP4 ADD DUP6 PUSH2 0x5FC2 JUMP JUMPDEST PUSH2 0x61A9 PUSH2 0x100 DUP4 ADD DUP5 PUSH2 0x59D9 JUMP JUMPDEST SWAP11 SWAP10 POP POP POP POP POP POP POP POP POP POP JUMP JUMPDEST PUSH1 0x0 PUSH1 0x40 DUP3 ADD SWAP1 POP PUSH2 0x61CC PUSH1 0x0 DUP4 ADD DUP6 PUSH2 0x5915 JUMP JUMPDEST PUSH2 0x61D9 PUSH1 0x20 DUP4 ADD DUP5 PUSH2 0x5FC2 JUMP JUMPDEST SWAP4 SWAP3 POP POP POP JUMP JUMPDEST PUSH1 0x0 PUSH1 0x60 DUP3 ADD SWAP1 POP PUSH2 0x61F5 PUSH1 0x0 DUP4 ADD DUP5 PUSH2 0x5924 JUMP JUMPDEST SWAP3 SWAP2 POP POP JUMP JUMPDEST PUSH1 0x0 PUSH1 0x20 DUP3 ADD SWAP1 POP DUP2 DUP2 SUB PUSH1 0x0 DUP4 ADD MSTORE PUSH2 0x6215 DUP2 DUP5 PUSH2 0x597B JUMP JUMPDEST SWAP1 POP SWAP3 SWAP2 POP POP JUMP JUMPDEST PUSH1 0x0 PUSH1 0x20 DUP3 ADD SWAP1 POP PUSH2 0x6232 PUSH1 0x0 DUP4 ADD DUP5 PUSH2 0x59D9 JUMP JUMPDEST SWAP3 SWAP2 POP POP JUMP JUMPDEST PUSH1 0x0 PUSH1 0x20 DUP3 ADD SWAP1 POP PUSH2 0x624D PUSH1 0x0 DUP4 ADD DUP5 PUSH2 0x5A21 JUMP JUMPDEST SWAP3 SWAP2 POP POP JUMP JUMPDEST PUSH1 0x0 PUSH1 0x20 DUP3 ADD SWAP1 POP PUSH2 0x6268 PUSH1 0x0 DUP4 ADD DUP5 PUSH2 0x5A30 JUMP JUMPDEST SWAP3 SWAP2 POP POP JUMP JUMPDEST PUSH1 0x0 PUSH1 0x20 DUP3 ADD SWAP1 POP PUSH2 0x6283 PUSH1 0x0 DUP4 ADD DUP5 PUSH2 0x5A3F JUMP JUMPDEST SWAP3 SWAP2 POP POP JUMP JUMPDEST PUSH1 0x0 PUSH1 0x20 DUP3 ADD SWAP1 POP DUP2 DUP2 SUB PUSH1 0x0 DUP4 ADD MSTORE PUSH2 0x62A3 DUP2 DUP5 PUSH2 0x5A4E JUMP JUMPDEST SWAP1 POP SWAP3 SWAP2 POP POP JUMP JUMPDEST PUSH1 0x0 PUSH1 0x20 DUP3 ADD SWAP1 POP DUP2 DUP2 SUB PUSH1 0x0 DUP4 ADD MSTORE PUSH2 0x62C4 DUP2 PUSH2 0x5AB8 JUMP JUMPDEST SWAP1 POP SWAP2 SWAP1 POP JUMP JUMPDEST PUSH1 0x0 PUSH1 0x20 DUP3 ADD SWAP1 POP DUP2 DUP2 SUB PUSH1 0x0 DUP4 ADD MSTORE PUSH2 0x62E4 DUP2 PUSH2 0x5ADB JUMP JUMPDEST SWAP1 POP SWAP2 SWAP1 POP JUMP JUMPDEST PUSH1 0x0 PUSH1 0x20 DUP3 ADD SWAP1 POP DUP2 DUP2 SUB PUSH1 0x0 DUP4 ADD MSTORE PUSH2 0x6304 DUP2 PUSH2 0x5AFE JUMP JUMPDEST SWAP1 POP SWAP2 SWAP1 POP JUMP JUMPDEST PUSH1 0x0 PUSH1 0x20 DUP3 ADD SWAP1 POP DUP2 DUP2 SUB PUSH1 0x0 DUP4 ADD MSTORE PUSH2 0x6324 DUP2 PUSH2 0x5B21 JUMP JUMPDEST SWAP1 POP SWAP2 SWAP1 POP JUMP JUMPDEST PUSH1 0x0 PUSH1 0x20 DUP3 ADD SWAP1 POP DUP2 DUP2 SUB PUSH1 0x0 DUP4 ADD MSTORE PUSH2 0x6344 DUP2 PUSH2 0x5B44 JUMP JUMPDEST SWAP1 POP SWAP2 SWAP1 POP JUMP JUMPDEST PUSH1 0x0 PUSH1 0x20 DUP3 ADD SWAP1 POP DUP2 DUP2 SUB PUSH1 0x0 DUP4 ADD MSTORE PUSH2 0x6364 DUP2 PUSH2 0x5B67 JUMP JUMPDEST SWAP1 POP SWAP2 SWAP1 POP JUMP JUMPDEST PUSH1 0x0 PUSH1 0x20 DUP3 ADD SWAP1 POP DUP2 DUP2 SUB PUSH1 0x0 DUP4 ADD MSTORE PUSH2 0x6384 DUP2 PUSH2 0x5B8A JUMP JUMPDEST SWAP1 POP SWAP2 SWAP1 POP JUMP JUMPDEST PUSH1 0x0 PUSH1 0x20 DUP3 ADD SWAP1 POP DUP2 DUP2 SUB PUSH1 0x0 DUP4 ADD MSTORE PUSH2 0x63A4 DUP2 PUSH2 0x5BAD JUMP JUMPDEST SWAP1 POP SWAP2 SWAP1 POP JUMP JUMPDEST PUSH1 0x0 PUSH1 0x20 DUP3 ADD SWAP1 POP DUP2 DUP2 SUB PUSH1 0x0 DUP4 ADD MSTORE PUSH2 0x63C4 DUP2 PUSH2 0x5BD0 JUMP JUMPDEST SWAP1 POP SWAP2 SWAP1 POP JUMP JUMPDEST PUSH1 0x0 PUSH1 0x20 DUP3 ADD SWAP1 POP DUP2 DUP2 SUB PUSH1 0x0 DUP4 ADD MSTORE PUSH2 0x63E4 DUP2 PUSH2 0x5BF3 JUMP JUMPDEST SWAP1 POP SWAP2 SWAP1 POP JUMP JUMPDEST PUSH1 0x0 PUSH1 0x20 DUP3 ADD SWAP1 POP DUP2 DUP2 SUB PUSH1 0x0 DUP4 ADD MSTORE PUSH2 0x6404 DUP2 PUSH2 0x5C16 JUMP JUMPDEST SWAP1 POP SWAP2 SWAP1 POP JUMP JUMPDEST PUSH1 0x0 PUSH1 0x20 DUP3 ADD SWAP1 POP DUP2 DUP2 SUB PUSH1 0x0 DUP4 ADD MSTORE PUSH2 0x6424 DUP2 PUSH2 0x5C39 JUMP JUMPDEST SWAP1 POP SWAP2 SWAP1 POP JUMP JUMPDEST PUSH1 0x0 PUSH1 0x20 DUP3 ADD SWAP1 POP DUP2 DUP2 SUB PUSH1 0x0 DUP4 ADD MSTORE PUSH2 0x6444 DUP2 PUSH2 0x5C5C JUMP JUMPDEST SWAP1 POP SWAP2 SWAP1 POP JUMP JUMPDEST PUSH1 0x0 PUSH1 0x20 DUP3 ADD SWAP1 POP DUP2 DUP2 SUB PUSH1 0x0 DUP4 ADD MSTORE PUSH2 0x6464 DUP2 PUSH2 0x5C7F JUMP JUMPDEST SWAP1 POP SWAP2 SWAP1 POP JUMP JUMPDEST PUSH1 0x0 PUSH1 0x20 DUP3 ADD SWAP1 POP DUP2 DUP2 SUB PUSH1 0x0 DUP4 ADD MSTORE PUSH2 0x6484 DUP2 PUSH2 0x5CA2 JUMP JUMPDEST SWAP1 POP SWAP2 SWAP1 POP JUMP JUMPDEST PUSH1 0x0 PUSH1 0x20 DUP3 ADD SWAP1 POP DUP2 DUP2 SUB PUSH1 0x0 DUP4 ADD MSTORE PUSH2 0x64A4 DUP2 PUSH2 0x5CC5 JUMP JUMPDEST SWAP1 POP SWAP2 SWAP1 POP JUMP JUMPDEST PUSH1 0x0 PUSH1 0x20 DUP3 ADD SWAP1 POP DUP2 DUP2 SUB PUSH1 0x0 DUP4 ADD MSTORE PUSH2 0x64C4 DUP2 PUSH2 0x5CE8 JUMP JUMPDEST SWAP1 POP SWAP2 SWAP1 POP JUMP JUMPDEST PUSH1 0x0 PUSH1 0x20 DUP3 ADD SWAP1 POP DUP2 DUP2 SUB PUSH1 0x0 DUP4 ADD MSTORE PUSH2 0x64E4 DUP2 PUSH2 0x5D0B JUMP JUMPDEST SWAP1 POP SWAP2 SWAP1 POP JUMP JUMPDEST PUSH1 0x0 PUSH1 0x20 DUP3 ADD SWAP1 POP DUP2 DUP2 SUB PUSH1 0x0 DUP4 ADD MSTORE PUSH2 0x6504 DUP2 PUSH2 0x5D2E JUMP JUMPDEST SWAP1 POP SWAP2 SWAP1 POP JUMP JUMPDEST PUSH1 0x0 PUSH1 0x20 DUP3 ADD SWAP1 POP DUP2 DUP2 SUB PUSH1 0x0 DUP4 ADD MSTORE PUSH2 0x6524 DUP2 PUSH2 0x5D51 JUMP JUMPDEST SWAP1 POP SWAP2 SWAP1 POP JUMP JUMPDEST PUSH1 0x0 PUSH1 0x20 DUP3 ADD SWAP1 POP DUP2 DUP2 SUB PUSH1 0x0 DUP4 ADD MSTORE PUSH2 0x6544 DUP2 PUSH2 0x5D74 JUMP JUMPDEST SWAP1 POP SWAP2 SWAP1 POP JUMP JUMPDEST PUSH1 0x0 PUSH1 0x20 DUP3 ADD SWAP1 POP DUP2 DUP2 SUB PUSH1 0x0 DUP4 ADD MSTORE PUSH2 0x6564 DUP2 PUSH2 0x5D97 JUMP JUMPDEST SWAP1 POP SWAP2 SWAP1 POP JUMP JUMPDEST PUSH1 0x0 PUSH1 0x20 DUP3 ADD SWAP1 POP DUP2 DUP2 SUB PUSH1 0x0 DUP4 ADD MSTORE PUSH2 0x6584 DUP2 PUSH2 0x5DBA JUMP JUMPDEST SWAP1 POP SWAP2 SWAP1 POP JUMP JUMPDEST PUSH1 0x0 PUSH1 0x20 DUP3 ADD SWAP1 POP DUP2 DUP2 SUB PUSH1 0x0 DUP4 ADD MSTORE PUSH2 0x65A4 DUP2 PUSH2 0x5DDD JUMP JUMPDEST SWAP1 POP SWAP2 SWAP1 POP JUMP JUMPDEST PUSH1 0x0 PUSH1 0x20 DUP3 ADD SWAP1 POP DUP2 DUP2 SUB PUSH1 0x0 DUP4 ADD MSTORE PUSH2 0x65C4 DUP2 PUSH2 0x5E00 JUMP JUMPDEST SWAP1 POP SWAP2 SWAP1 POP JUMP JUMPDEST PUSH1 0x0 PUSH1 0x20 DUP3 ADD SWAP1 POP DUP2 DUP2 SUB PUSH1 0x0 DUP4 ADD MSTORE PUSH2 0x65E4 DUP2 PUSH2 0x5E23 JUMP JUMPDEST SWAP1 POP SWAP2 SWAP1 POP JUMP JUMPDEST PUSH1 0x0 PUSH1 0x20 DUP3 ADD SWAP1 POP DUP2 DUP2 SUB PUSH1 0x0 DUP4 ADD MSTORE PUSH2 0x6604 DUP2 PUSH2 0x5E46 JUMP JUMPDEST SWAP1 POP SWAP2 SWAP1 POP JUMP JUMPDEST PUSH1 0x0 PUSH1 0x20 DUP3 ADD SWAP1 POP DUP2 DUP2 SUB PUSH1 0x0 DUP4 ADD MSTORE PUSH2 0x6624 DUP2 PUSH2 0x5E69 JUMP JUMPDEST SWAP1 POP SWAP2 SWAP1 POP JUMP JUMPDEST PUSH1 0x0 PUSH1 0x20 DUP3 ADD SWAP1 POP DUP2 DUP2 SUB PUSH1 0x0 DUP4 ADD MSTORE PUSH2 0x6644 DUP2 PUSH2 0x5E8C JUMP JUMPDEST SWAP1 POP SWAP2 SWAP1 POP JUMP JUMPDEST PUSH1 0x0 PUSH1 0x20 DUP3 ADD SWAP1 POP DUP2 DUP2 SUB PUSH1 0x0 DUP4 ADD MSTORE PUSH2 0x6664 DUP2 PUSH2 0x5EAF JUMP JUMPDEST SWAP1 POP SWAP2 SWAP1 POP JUMP JUMPDEST PUSH1 0x0 PUSH1 0x20 DUP3 ADD SWAP1 POP DUP2 DUP2 SUB PUSH1 0x0 DUP4 ADD MSTORE PUSH2 0x6684 DUP2 PUSH2 0x5ED2 JUMP JUMPDEST SWAP1 POP SWAP2 SWAP1 POP JUMP JUMPDEST PUSH1 0x0 PUSH1 0x20 DUP3 ADD SWAP1 POP DUP2 DUP2 SUB PUSH1 0x0 DUP4 ADD MSTORE PUSH2 0x66A4 DUP2 PUSH2 0x5EF5 JUMP JUMPDEST SWAP1 POP SWAP2 SWAP1 POP JUMP JUMPDEST PUSH1 0x0 PUSH1 0x20 DUP3 ADD SWAP1 POP DUP2 DUP2 SUB PUSH1 0x0 DUP4 ADD MSTORE PUSH2 0x66C4 DUP2 PUSH2 0x5F18 JUMP JUMPDEST SWAP1 POP SWAP2 SWAP1 POP JUMP JUMPDEST PUSH1 0x0 PUSH1 0x20 DUP3 ADD SWAP1 POP DUP2 DUP2 SUB PUSH1 0x0 DUP4 ADD MSTORE PUSH2 0x66E4 DUP2 PUSH2 0x5F3B JUMP JUMPDEST SWAP1 POP SWAP2 SWAP1 POP JUMP JUMPDEST PUSH1 0x0 PUSH1 0x20 DUP3 ADD SWAP1 POP DUP2 DUP2 SUB PUSH1 0x0 DUP4 ADD MSTORE PUSH2 0x6704 DUP2 PUSH2 0x5F5E JUMP JUMPDEST SWAP1 POP SWAP2 SWAP1 POP JUMP JUMPDEST PUSH1 0x0 PUSH1 0x20 DUP3 ADD SWAP1 POP DUP2 DUP2 SUB PUSH1 0x0 DUP4 ADD MSTORE PUSH2 0x6724 DUP2 PUSH2 0x5F81 JUMP JUMPDEST SWAP1 POP SWAP2 SWAP1 POP JUMP JUMPDEST PUSH1 0x0 PUSH1 0x20 DUP3 ADD SWAP1 POP PUSH2 0x6740 PUSH1 0x0 DUP4 ADD DUP5 PUSH2 0x5FA4 JUMP JUMPDEST SWAP3 SWAP2 POP POP JUMP JUMPDEST PUSH1 0x0 PUSH1 0x20 DUP3 ADD SWAP1 POP PUSH2 0x675B PUSH1 0x0 DUP4 ADD DUP5 PUSH2 0x5FC2 JUMP JUMPDEST SWAP3 SWAP2 POP POP JUMP JUMPDEST PUSH1 0x0 PUSH1 0x40 DUP3 ADD SWAP1 POP PUSH2 0x6776 PUSH1 0x0 DUP4 ADD DUP6 PUSH2 0x5FC2 JUMP JUMPDEST PUSH2 0x6783 PUSH1 0x20 DUP4 ADD DUP5 PUSH2 0x5FC2 JUMP JUMPDEST SWAP4 SWAP3 POP POP POP JUMP JUMPDEST PUSH1 0x0 PUSH1 0xC0 DUP3 ADD SWAP1 POP PUSH2 0x679F PUSH1 0x0 DUP4 ADD DUP10 PUSH2 0x5FC2 JUMP JUMPDEST PUSH2 0x67AC PUSH1 0x20 DUP4 ADD DUP9 PUSH2 0x5FC2 JUMP JUMPDEST PUSH2 0x67B9 PUSH1 0x40 DUP4 ADD DUP8 PUSH2 0x59D9 JUMP JUMPDEST PUSH2 0x67C6 PUSH1 0x60 DUP4 ADD DUP7 PUSH2 0x5FC2 JUMP JUMPDEST PUSH2 0x67D3 PUSH1 0x80 DUP4 ADD DUP6 PUSH2 0x5FC2 JUMP JUMPDEST PUSH2 0x67E0 PUSH1 0xA0 DUP4 ADD DUP5 PUSH2 0x5FC2 JUMP JUMPDEST SWAP8 SWAP7 POP POP POP POP POP POP POP JUMP JUMPDEST PUSH1 0x0 PUSH1 0xE0 DUP3 ADD SWAP1 POP PUSH2 0x6800 PUSH1 0x0 DUP4 ADD DUP11 PUSH2 0x5FC2 JUMP JUMPDEST PUSH2 0x680D PUSH1 0x20 DUP4 ADD DUP10 PUSH2 0x5FC2 JUMP JUMPDEST PUSH2 0x681A PUSH1 0x40 DUP4 ADD DUP9 PUSH2 0x5FC2 JUMP JUMPDEST PUSH2 0x6827 PUSH1 0x60 DUP4 ADD DUP8 PUSH2 0x5FC2 JUMP JUMPDEST PUSH2 0x6834 PUSH1 0x80 DUP4 ADD DUP7 PUSH2 0x5FC2 JUMP JUMPDEST PUSH2 0x6841 PUSH1 0xA0 DUP4 ADD DUP6 PUSH2 0x5FC2 JUMP JUMPDEST PUSH2 0x684E PUSH1 0xC0 DUP4 ADD DUP5 PUSH2 0x5FC2 JUMP JUMPDEST SWAP9 SWAP8 POP POP POP POP POP POP POP POP JUMP JUMPDEST PUSH1 0x0 PUSH1 0x20 DUP3 ADD SWAP1 POP PUSH2 0x686F PUSH1 0x0 DUP4 ADD DUP5 PUSH2 0x5FE8 JUMP JUMPDEST SWAP3 SWAP2 POP POP JUMP JUMPDEST PUSH1 0x0 PUSH2 0x687F PUSH2 0x6890 JUMP JUMPDEST SWAP1 POP PUSH2 0x688B DUP3 DUP3 PUSH2 0x6C2D JUMP JUMPDEST SWAP2 SWAP1 POP JUMP JUMPDEST PUSH1 0x0 PUSH1 0x40 MLOAD SWAP1 POP SWAP1 JUMP JUMPDEST PUSH1 0x0 PUSH8 0xFFFFFFFFFFFFFFFF DUP3 GT ISZERO PUSH2 0x68B5 JUMPI PUSH2 0x68B4 PUSH2 0x6D9E JUMP JUMPDEST JUMPDEST PUSH2 0x68BE DUP3 PUSH2 0x6DE1 JUMP JUMPDEST SWAP1 POP PUSH1 0x20 DUP2 ADD SWAP1 POP SWAP2 SWAP1 POP JUMP JUMPDEST PUSH1 0x0 DUP2 SWAP1 POP SWAP2 SWAP1 POP JUMP JUMPDEST PUSH1 0x0 DUP2 SWAP1 POP PUSH1 0x20 DUP3 ADD SWAP1 POP SWAP2 SWAP1 POP JUMP JUMPDEST PUSH1 0x0 PUSH1 0x3 SWAP1 POP SWAP2 SWAP1 POP JUMP JUMPDEST PUSH1 0x0 DUP2 MLOAD SWAP1 POP SWAP2 SWAP1 POP JUMP JUMPDEST PUSH1 0x0 DUP2 MLOAD SWAP1 POP SWAP2 SWAP1 POP JUMP JUMPDEST PUSH1 0x0 DUP2 MLOAD SWAP1 POP SWAP2 SWAP1 POP JUMP JUMPDEST PUSH1 0x0 PUSH1 0x20 DUP3 ADD SWAP1 POP SWAP2 SWAP1 POP JUMP JUMPDEST PUSH1 0x0 PUSH1 0x20 DUP3 ADD SWAP1 POP SWAP2 SWAP1 POP JUMP JUMPDEST PUSH1 0x0 DUP2 SWAP1 POP SWAP3 SWAP2 POP POP JUMP JUMPDEST PUSH1 0x0 DUP3 DUP3 MSTORE PUSH1 0x20 DUP3 ADD SWAP1 POP SWAP3 SWAP2 POP POP JUMP JUMPDEST PUSH1 0x0 DUP3 DUP3 MSTORE PUSH1 0x20 DUP3 ADD SWAP1 POP SWAP3 SWAP2 POP POP JUMP JUMPDEST PUSH1 0x0 DUP3 DUP3 MSTORE PUSH1 0x20 DUP3 ADD SWAP1 POP SWAP3 SWAP2 POP POP JUMP JUMPDEST PUSH1 0x0 DUP2 SWAP1 POP SWAP3 SWAP2 POP POP JUMP JUMPDEST PUSH1 0x0 PUSH2 0x697F DUP3 PUSH2 0x6B38 JUMP JUMPDEST SWAP2 POP PUSH2 0x698A DUP4 PUSH2 0x6B38 JUMP JUMPDEST SWAP3 POP DUP3 PUSH32 0xFFFFFFFFFFFFFFFFFFFFFFFFFFFFFFFFFFFFFFFFFFFFFFFFFFFFFFFFFFFFFFFF SUB DUP3 GT ISZERO PUSH2 0x69BF JUMPI PUSH2 0x69BE PUSH2 0x6CE2 JUMP JUMPDEST JUMPDEST DUP3 DUP3 ADD SWAP1 POP SWAP3 SWAP2 POP POP JUMP JUMPDEST PUSH1 0x0 PUSH2 0x69D5 DUP3 PUSH2 0x6B52 JUMP JUMPDEST SWAP2 POP PUSH2 0x69E0 DUP4 PUSH2 0x6B52 JUMP JUMPDEST SWAP3 POP DUP3 PUSH1 0xFF SUB DUP3 GT ISZERO PUSH2 0x69F6 JUMPI PUSH2 0x69F5 PUSH2 0x6CE2 JUMP JUMPDEST JUMPDEST DUP3 DUP3 ADD SWAP1 POP SWAP3 SWAP2 POP POP JUMP JUMPDEST PUSH1 0x0 PUSH2 0x6A0C DUP3 PUSH2 0x6B38 JUMP JUMPDEST SWAP2 POP PUSH2 0x6A17 DUP4 PUSH2 0x6B38 JUMP JUMPDEST SWAP3 POP DUP3 PUSH2 0x6A27 JUMPI PUSH2 0x6A26 PUSH2 0x6D11 JUMP JUMPDEST JUMPDEST DUP3 DUP3 DIV SWAP1 POP SWAP3 SWAP2 POP POP JUMP JUMPDEST PUSH1 0x0 PUSH2 0x6A3D DUP3 PUSH2 0x6B38 JUMP JUMPDEST SWAP2 POP PUSH2 0x6A48 DUP4 PUSH2 0x6B38 JUMP JUMPDEST SWAP3 POP DUP2 PUSH32 0xFFFFFFFFFFFFFFFFFFFFFFFFFFFFFFFFFFFFFFFFFFFFFFFFFFFFFFFFFFFFFFFF DIV DUP4 GT DUP3 ISZERO ISZERO AND ISZERO PUSH2 0x6A81 JUMPI PUSH2 0x6A80 PUSH2 0x6CE2 JUMP JUMPDEST JUMPDEST DUP3 DUP3 MUL SWAP1 POP SWAP3 SWAP2 POP POP JUMP JUMPDEST PUSH1 0x0 PUSH2 0x6A97 DUP3 PUSH2 0x6B38 JUMP JUMPDEST SWAP2 POP PUSH2 0x6AA2 DUP4 PUSH2 0x6B38 JUMP JUMPDEST SWAP3 POP DUP3 DUP3 LT ISZERO PUSH2 0x6AB5 JUMPI PUSH2 0x6AB4 PUSH2 0x6CE2 JUMP JUMPDEST JUMPDEST DUP3 DUP3 SUB SWAP1 POP SWAP3 SWAP2 POP POP JUMP JUMPDEST PUSH1 0x0 PUSH2 0x6ACB DUP3 PUSH2 0x6B18 JUMP JUMPDEST SWAP1 POP SWAP2 SWAP1 POP JUMP JUMPDEST PUSH1 0x0 DUP2 ISZERO ISZERO SWAP1 POP SWAP2 SWAP1 POP JUMP JUMPDEST PUSH1 0x0 PUSH32 0xFFFFFFFF00000000000000000000000000000000000000000000000000000000 DUP3 AND SWAP1 POP SWAP2 SWAP1 POP JUMP JUMPDEST PUSH1 0x0 PUSH2 0xFFFF DUP3 AND SWAP1 POP SWAP2 SWAP1 POP JUMP JUMPDEST PUSH1 0x0 PUSH20 0xFFFFFFFFFFFFFFFFFFFFFFFFFFFFFFFFFFFFFFFF DUP3 AND SWAP1 POP SWAP2 SWAP1 POP JUMP JUMPDEST PUSH1 0x0 DUP2 SWAP1 POP SWAP2 SWAP1 POP JUMP JUMPDEST PUSH1 0x0 PUSH4 0xFFFFFFFF DUP3 AND SWAP1 POP SWAP2 SWAP1 POP JUMP JUMPDEST PUSH1 0x0 PUSH1 0xFF DUP3 AND SWAP1 POP SWAP2 SWAP1 POP JUMP JUMPDEST PUSH1 0x0 PUSH2 0x6B6A DUP3 PUSH2 0x6B95 JUMP JUMPDEST SWAP1 POP SWAP2 SWAP1 POP JUMP JUMPDEST PUSH1 0x0 PUSH2 0x6B7C DUP3 PUSH2 0x6B95 JUMP JUMPDEST SWAP1 POP SWAP2 SWAP1 POP JUMP JUMPDEST PUSH1 0x0 PUSH2 0x6B8E DUP3 PUSH2 0x6B95 JUMP JUMPDEST SWAP1 POP SWAP2 SWAP1 POP JUMP JUMPDEST PUSH1 0x0 PUSH2 0x6BA0 DUP3 PUSH2 0x6BA7 JUMP JUMPDEST SWAP1 POP SWAP2 SWAP1 POP JUMP JUMPDEST PUSH1 0x0 PUSH2 0x6BB2 DUP3 PUSH2 0x6B18 JUMP JUMPDEST SWAP1 POP SWAP2 SWAP1 POP JUMP JUMPDEST DUP3 DUP2 DUP4 CALLDATACOPY PUSH1 0x0 DUP4 DUP4 ADD MSTORE POP POP POP JUMP JUMPDEST PUSH1 0x0 JUMPDEST DUP4 DUP2 LT ISZERO PUSH2 0x6BE6 JUMPI DUP1 DUP3 ADD MLOAD DUP2 DUP5 ADD MSTORE PUSH1 0x20 DUP2 ADD SWAP1 POP PUSH2 0x6BCB JUMP JUMPDEST DUP4 DUP2 GT ISZERO PUSH2 0x6BF5 JUMPI PUSH1 0x0 DUP5 DUP5 ADD MSTORE JUMPDEST POP POP POP POP JUMP JUMPDEST PUSH1 0x0 PUSH1 0x2 DUP3 DIV SWAP1 POP PUSH1 0x1 DUP3 AND DUP1 PUSH2 0x6C13 JUMPI PUSH1 0x7F DUP3 AND SWAP2 POP JUMPDEST PUSH1 0x20 DUP3 LT DUP2 EQ ISZERO PUSH2 0x6C27 JUMPI PUSH2 0x6C26 PUSH2 0x6D40 JUMP JUMPDEST JUMPDEST POP SWAP2 SWAP1 POP JUMP JUMPDEST PUSH2 0x6C36 DUP3 PUSH2 0x6DE1 JUMP JUMPDEST DUP2 ADD DUP2 DUP2 LT PUSH8 0xFFFFFFFFFFFFFFFF DUP3 GT OR ISZERO PUSH2 0x6C55 JUMPI PUSH2 0x6C54 PUSH2 0x6D9E JUMP JUMPDEST JUMPDEST DUP1 PUSH1 0x40 MSTORE POP POP POP JUMP JUMPDEST PUSH1 0x0 PUSH2 0x6C69 DUP3 PUSH2 0x6B38 JUMP JUMPDEST SWAP2 POP PUSH32 0xFFFFFFFFFFFFFFFFFFFFFFFFFFFFFFFFFFFFFFFFFFFFFFFFFFFFFFFFFFFFFFFF DUP3 EQ ISZERO PUSH2 0x6C9C JUMPI PUSH2 0x6C9B PUSH2 0x6CE2 JUMP JUMPDEST JUMPDEST PUSH1 0x1 DUP3 ADD SWAP1 POP SWAP2 SWAP1 POP JUMP JUMPDEST PUSH1 0x0 DUP2 SWAP1 POP SWAP2 SWAP1 POP JUMP JUMPDEST PUSH1 0x0 PUSH2 0x6CBC DUP3 PUSH2 0x6B38 JUMP JUMPDEST SWAP2 POP PUSH2 0x6CC7 DUP4 PUSH2 0x6B38 JUMP JUMPDEST SWAP3 POP DUP3 PUSH2 0x6CD7 JUMPI PUSH2 0x6CD6 PUSH2 0x6D11 JUMP JUMPDEST JUMPDEST DUP3 DUP3 MOD SWAP1 POP SWAP3 SWAP2 POP POP JUMP JUMPDEST PUSH32 0x4E487B7100000000000000000000000000000000000000000000000000000000 PUSH1 0x0 MSTORE PUSH1 0x11 PUSH1 0x4 MSTORE PUSH1 0x24 PUSH1 0x0 REVERT JUMPDEST PUSH32 0x4E487B7100000000000000000000000000000000000000000000000000000000 PUSH1 0x0 MSTORE PUSH1 0x12 PUSH1 0x4 MSTORE PUSH1 0x24 PUSH1 0x0 REVERT JUMPDEST PUSH32 0x4E487B7100000000000000000000000000000000000000000000000000000000 PUSH1 0x0 MSTORE PUSH1 0x22 PUSH1 0x4 MSTORE PUSH1 0x24 PUSH1 0x0 REVERT JUMPDEST PUSH32 0x4E487B7100000000000000000000000000000000000000000000000000000000 PUSH1 0x0 MSTORE PUSH1 0x32 PUSH1 0x4 MSTORE PUSH1 0x24 PUSH1 0x0 REVERT JUMPDEST PUSH32 0x4E487B7100000000000000000000000000000000000000000000000000000000 PUSH1 0x0 MSTORE PUSH1 0x41 PUSH1 0x4 MSTORE PUSH1 0x24 PUSH1 0x0 REVERT JUMPDEST PUSH1 0x0 DUP1 REVERT JUMPDEST PUSH1 0x0 DUP1 REVERT JUMPDEST PUSH1 0x0 DUP1 REVERT JUMPDEST PUSH1 0x0 DUP1 REVERT JUMPDEST PUSH1 0x0 PUSH1 0x1F NOT PUSH1 0x1F DUP4 ADD AND SWAP1 POP SWAP2 SWAP1 POP JUMP JUMPDEST PUSH32 0x626F792C20646F6E27742061747461636B20796F757273656C6620706C7A0000 PUSH1 0x0 DUP3 ADD MSTORE POP JUMP JUMPDEST PUSH32 0x75686F682C2074686520646566656E7365706F696E747320617265207A65726F PUSH1 0x0 DUP3 ADD MSTORE PUSH32 0x2E2E2E0000000000000000000000000000000000000000000000000000000000 PUSH1 0x20 DUP3 ADD MSTORE POP JUMP JUMPDEST PUSH32 0x796F7520646F6E2774206861766520656E6F7567682073656564636F696E7321 PUSH1 0x0 DUP3 ADD MSTORE PUSH32 0x20627579206F7220747261646520736F6D650000000000000000000000000000 PUSH1 0x20 DUP3 ADD MSTORE POP JUMP JUMPDEST PUSH32 0x4552433732313A207472616E7366657220746F206E6F6E204552433732315265 PUSH1 0x0 DUP3 ADD MSTORE PUSH32 0x63656976657220696D706C656D656E7465720000000000000000000000000000 PUSH1 0x20 DUP3 ADD MSTORE POP JUMP JUMPDEST PUSH32 0x7469746C652028746F6B656E29206E6F6E6578697374656E7400000000000000 PUSH1 0x0 DUP3 ADD MSTORE POP JUMP JUMPDEST PUSH32 0x4F776E61626C653A206E6577206F776E657220697320746865207A65726F2061 PUSH1 0x0 DUP3 ADD MSTORE PUSH32 0x6464726573730000000000000000000000000000000000000000000000000000 PUSH1 0x20 DUP3 ADD MSTORE POP JUMP JUMPDEST PUSH32 0x796F75206861766520746F2073656E6420736F6D652045544820746F20676574 PUSH1 0x0 DUP3 ADD MSTORE PUSH32 0x204B696E67646F6D53656564636F696E00000000000000000000000000000000 PUSH1 0x20 DUP3 ADD MSTORE POP JUMP JUMPDEST PUSH32 0x4552433732313A20746F6B656E20616C7265616479206D696E74656400000000 PUSH1 0x0 DUP3 ADD MSTORE POP JUMP JUMPDEST PUSH32 0x6F7468657220636F696E207479706573206E6F7420737570706F727465642079 PUSH1 0x0 DUP3 ADD MSTORE PUSH32 0x65742C206D7573742062652030206F7220310000000000000000000000000000 PUSH1 0x20 DUP3 ADD MSTORE POP JUMP JUMPDEST PUSH32 0x4552433732313A207472616E7366657220746F20746865207A65726F20616464 PUSH1 0x0 DUP3 ADD MSTORE PUSH32 0x7265737300000000000000000000000000000000000000000000000000000000 PUSH1 0x20 DUP3 ADD MSTORE POP JUMP JUMPDEST PUSH32 0x4552433732313A20617070726F766520746F2063616C6C657200000000000000 PUSH1 0x0 DUP3 ADD MSTORE POP JUMP JUMPDEST PUSH32 0x796F75206E65656420746F207769746864726177206120706F73697469766520 PUSH1 0x0 DUP3 ADD MSTORE PUSH32 0x616D6F756E74206F6620636F696E730000000000000000000000000000000000 PUSH1 0x20 DUP3 ADD MSTORE POP JUMP JUMPDEST PUSH32 0x7469746C65206964206E6F74207965742061737369676E65642C20676F206765 PUSH1 0x0 DUP3 ADD MSTORE PUSH32 0x74206F6E65000000000000000000000000000000000000000000000000000000 PUSH1 0x20 DUP3 ADD MSTORE POP JUMP JUMPDEST PUSH32 0x4552433732313A206F70657261746F7220717565727920666F72206E6F6E6578 PUSH1 0x0 DUP3 ADD MSTORE PUSH32 0x697374656E7420746F6B656E0000000000000000000000000000000000000000 PUSH1 0x20 DUP3 ADD MSTORE POP JUMP JUMPDEST PUSH32 0x746172676574436F696E2068617320746F20626520303D61747461636B636F69 PUSH1 0x0 DUP3 ADD MSTORE PUSH32 0x6E206F7220313D646566656E7365636F696E0000000000000000000000000000 PUSH1 0x20 DUP3 ADD MSTORE POP JUMP JUMPDEST PUSH32 0x796F7520646F206E6F7420686176652074686174206D616E7920646566656E73 PUSH1 0x0 DUP3 ADD MSTORE PUSH32 0x6520636F696E7300000000000000000000000000000000000000000000000000 PUSH1 0x20 DUP3 ADD MSTORE POP JUMP JUMPDEST PUSH32 0x4552433732313A20617070726F76652063616C6C6572206973206E6F74206F77 PUSH1 0x0 DUP3 ADD MSTORE PUSH32 0x6E6572206E6F7220617070726F76656420666F7220616C6C0000000000000000 PUSH1 0x20 DUP3 ADD MSTORE POP JUMP JUMPDEST PUSH32 0x4552433732313A2062616C616E636520717565727920666F7220746865207A65 PUSH1 0x0 DUP3 ADD MSTORE PUSH32 0x726F206164647265737300000000000000000000000000000000000000000000 PUSH1 0x20 DUP3 ADD MSTORE POP JUMP JUMPDEST PUSH32 0x4552433732313A206F776E657220717565727920666F72206E6F6E6578697374 PUSH1 0x0 DUP3 ADD MSTORE PUSH32 0x656E7420746F6B656E0000000000000000000000000000000000000000000000 PUSH1 0x20 DUP3 ADD MSTORE POP JUMP JUMPDEST PUSH32 0x4552433732313A206D696E7420746F20746865207A65726F2061646472657373 PUSH1 0x0 DUP3 ADD MSTORE POP JUMP JUMPDEST PUSH32 0x45524337323155524953746F726167653A2055524920717565727920666F7220 PUSH1 0x0 DUP3 ADD MSTORE PUSH32 0x6E6F6E6578697374656E7420746F6B656E000000000000000000000000000000 PUSH1 0x20 DUP3 ADD MSTORE POP JUMP JUMPDEST PUSH32 0x4552433732313A20617070726F76656420717565727920666F72206E6F6E6578 PUSH1 0x0 DUP3 ADD MSTORE PUSH32 0x697374656E7420746F6B656E0000000000000000000000000000000000000000 PUSH1 0x20 DUP3 ADD MSTORE POP JUMP JUMPDEST PUSH32 0x746F2075736520746869732066756E6374696F6E20796F75206E656564206120 PUSH1 0x0 DUP3 ADD MSTORE PUSH32 0x7469746C652120676F20627579206F6E65210000000000000000000000000000 PUSH1 0x20 DUP3 ADD MSTORE POP JUMP JUMPDEST PUSH32 0x4F776E61626C653A2063616C6C6572206973206E6F7420746865206F776E6572 PUSH1 0x0 DUP3 ADD MSTORE POP JUMP JUMPDEST PUSH32 0x72657665727365206974656D2066756E6374696F6E2E2E2E206974656D206E6F PUSH1 0x0 DUP3 ADD MSTORE PUSH32 0x7420666F756E6420696E20616464726573733269647300000000000000000000 PUSH1 0x20 DUP3 ADD MSTORE POP JUMP JUMPDEST PUSH32 0x4552433732313A207472616E73666572206F6620746F6B656E20746861742069 PUSH1 0x0 DUP3 ADD MSTORE PUSH32 0x73206E6F74206F776E0000000000000000000000000000000000000000000000 PUSH1 0x20 DUP3 ADD MSTORE POP JUMP JUMPDEST PUSH32 0x796F752063616E206E6F74207769746864726177204D696C6974617279206672 PUSH1 0x0 DUP3 ADD MSTORE PUSH32 0x6F6D2061207469746C65207468617420646F6573206E6F742062656C6F6E6720 PUSH1 0x20 DUP3 ADD MSTORE PUSH32 0x746F20796F750000000000000000000000000000000000000000000000000000 PUSH1 0x40 DUP3 ADD MSTORE POP JUMP JUMPDEST PUSH32 0x6964206973206E6F74207965742061737369676E656400000000000000000000 PUSH1 0x0 DUP3 ADD MSTORE POP JUMP JUMPDEST PUSH32 0x4552433732313A20617070726F76616C20746F2063757272656E74206F776E65 PUSH1 0x0 DUP3 ADD MSTORE PUSH32 0x7200000000000000000000000000000000000000000000000000000000000000 PUSH1 0x20 DUP3 ADD MSTORE POP JUMP JUMPDEST PUSH32 0x4552433732313A207472616E736665722063616C6C6572206973206E6F74206F PUSH1 0x0 DUP3 ADD MSTORE PUSH32 0x776E6572206E6F7220617070726F766564000000000000000000000000000000 PUSH1 0x20 DUP3 ADD MSTORE POP JUMP JUMPDEST PUSH32 0x736F7272792C206F6E6C7920746865206F776E6572206F662061207469746C65 PUSH1 0x0 DUP3 ADD MSTORE PUSH32 0x2063616E2061747461636B2068697320626F7373000000000000000000000000 PUSH1 0x20 DUP3 ADD MSTORE POP JUMP JUMPDEST PUSH32 0x796F75206E65656420746F2061737369676E206174206C65617374203120636F PUSH1 0x0 DUP3 ADD MSTORE PUSH32 0x696E000000000000000000000000000000000000000000000000000000000000 PUSH1 0x20 DUP3 ADD MSTORE POP JUMP JUMPDEST PUSH32 0x75686F682C2073727920692063616E27742073656E6420616E79206D6F726520 PUSH1 0x0 DUP3 ADD MSTORE PUSH32 0x4B696E67646F6D53656564636F696E0000000000000000000000000000000000 PUSH1 0x20 DUP3 ADD MSTORE POP JUMP JUMPDEST PUSH32 0x75686F682C207468652061747461636B706F696E747320617265207A65726F2E PUSH1 0x0 DUP3 ADD MSTORE PUSH32 0x2E2E000000000000000000000000000000000000000000000000000000000000 PUSH1 0x20 DUP3 ADD MSTORE POP JUMP JUMPDEST PUSH32 0x75686F682C206E6F207469746C657320617661696C61626C6520616E796D6F72 PUSH1 0x0 DUP3 ADD MSTORE PUSH32 0x6500000000000000000000000000000000000000000000000000000000000000 PUSH1 0x20 DUP3 ADD MSTORE POP JUMP JUMPDEST PUSH32 0x796F7520646F206E6F7420686176652074686174206D616E792061747461636B PUSH1 0x0 DUP3 ADD MSTORE PUSH32 0x20636F696E730000000000000000000000000000000000000000000000000000 PUSH1 0x20 DUP3 ADD MSTORE POP JUMP JUMPDEST PUSH2 0x7833 DUP2 PUSH2 0x6AC0 JUMP JUMPDEST DUP2 EQ PUSH2 0x783E JUMPI PUSH1 0x0 DUP1 REVERT JUMPDEST POP JUMP JUMPDEST PUSH2 0x784A DUP2 PUSH2 0x6AD2 JUMP JUMPDEST DUP2 EQ PUSH2 0x7855 JUMPI PUSH1 0x0 DUP1 REVERT JUMPDEST POP JUMP JUMPDEST PUSH2 0x7861 DUP2 PUSH2 0x6ADE JUMP JUMPDEST DUP2 EQ PUSH2 0x786C JUMPI PUSH1 0x0 DUP1 REVERT JUMPDEST POP JUMP JUMPDEST PUSH2 0x7878 DUP2 PUSH2 0x6B38 JUMP JUMPDEST DUP2 EQ PUSH2 0x7883 JUMPI PUSH1 0x0 DUP1 REVERT JUMPDEST POP JUMP JUMPDEST PUSH2 0x788F DUP2 PUSH2 0x6B42 JUMP JUMPDEST DUP2 EQ PUSH2 0x789A JUMPI PUSH1 0x0 DUP1 REVERT JUMPDEST POP JUMP JUMPDEST PUSH2 0x78A6 DUP2 PUSH2 0x6B52 JUMP JUMPDEST DUP2 EQ PUSH2 0x78B1 JUMPI PUSH1 0x0 DUP1 REVERT JUMPDEST POP JUMP INVALID PUSH9 0x747470733A2F2F7777 PUSH24 0x2E6B696E67646F6D63727970746F2E636F6D2F7469746C65 PUSH20 0x2FA264697066735822122068C85E959FD75656F3 SSTORE 0xDE 0xE8 DUP4 0xE SGT PUSH5 0x4EEBD39487 0xB9 0x22 0xBA 0xBF PUSH13 0x3BCEAEB4812F64736F6C634300 ADDMOD SMOD STOP CALLER "
		},
		"gasEstimates": {
			"creation": {
				"codeDepositCost": "6198200",
				"executionCost": "infinite",
				"totalCost": "infinite"
			},
			"external": {
				"address2ids(address,uint256)": "infinite",
				"approve(address,uint256)": "infinite",
				"assignMilitaryToTitle(uint256,uint32,uint256)": "infinite",
				"attackBoss(uint256)": "infinite",
				"attackCooldown()": "462",
				"awardItem(address)": "infinite",
				"balanceLastMonth_kgdat()": "2476",
				"balanceLastMonth_kgddf()": "2542",
				"balanceLastMonth_kgdsc()": "2518",
				"balanceOf(address)": "2990",
				"baseUrl()": "infinite",
				"buyForETH()": "infinite",
				"currentPosition()": "2504",
				"exchangeRate()": "2589",
				"exchangeRate_Attackpoints()": "2589",
				"exchangeRate_Burnpct()": "2610",
				"exchangeRate_Defensepoints()": "2633",
				"getApproved(uint256)": "5229",
				"getBossId(uint256)": "infinite",
				"getBossRank(uint256)": "infinite",
				"getCurrentStakes()": "infinite",
				"getIdOfRank(uint256)": "infinite",
				"getIdsOfAddress(address)": "infinite",
				"getRankOfId(uint256)": "infinite",
				"getRanksOfAddress(address)": "infinite",
				"getServants(uint256)": "infinite",
				"getTimeUntilStakingDone()": "infinite",
				"getTitleStats(uint256)": "infinite",
				"harvestAll()": "infinite",
				"isApprovedForAll(address,address)": "infinite",
				"justSendETH()": "404",
				"kgdat()": "2669",
				"kgddf()": "2690",
				"kgdsc()": "2668",
				"kingdomtitles(uint256)": "infinite",
				"name()": "infinite",
				"owner()": "2634",
				"ownerOf(uint256)": "3044",
				"payOutDividends()": "infinite",
				"plantSeeds(uint256,uint8)": "infinite",
				"readyTimeStakeCooldown()": "420",
				"renounceOwnership()": "30507",
				"reverseItem(uint256)": "infinite",
				"safeTransferFrom(address,address,uint256)": "infinite",
				"safeTransferFrom(address,address,uint256,bytes)": "infinite",
				"setApprovalForAll(address,bool)": "infinite",
				"stakingPeriod()": "2518",
				"supportsInterface(bytes4)": "842",
				"symbol()": "infinite",
				"title2Rank(uint256)": "infinite",
				"tokenURI(uint256)": "infinite",
				"totalSupply()": "447",
				"transferFrom(address,address,uint256)": "infinite",
				"transferOwnership(address)": "30811",
				"withdrawMilitaryFromTitle(uint256,uint32,uint8)": "infinite"
			},
			"internal": {
				"_divide(uint256,uint256)": "infinite",
				"_getLeftChild(uint256)": "infinite",
				"_getRightChild(uint256)": "infinite",
				"_handleSacking(struct KingdomGameMechanic.AttackResult memory)": "infinite",
				"_random()": "infinite"
			}
		},
		"methodIdentifiers": {
			"address2ids(address,uint256)": "f08b7b73",
			"approve(address,uint256)": "095ea7b3",
			"assignMilitaryToTitle(uint256,uint32,uint256)": "853eab57",
			"attackBoss(uint256)": "0619f932",
			"attackCooldown()": "e73961f5",
			"awardItem(address)": "f2fb2120",
			"balanceLastMonth_kgdat()": "000a5180",
			"balanceLastMonth_kgddf()": "839b9205",
			"balanceLastMonth_kgdsc()": "eb8fd9a3",
			"balanceOf(address)": "70a08231",
			"baseUrl()": "5bcabf04",
			"buyForETH()": "10f7e4ed",
			"currentPosition()": "d534d636",
			"exchangeRate()": "3ba0b9a9",
			"exchangeRate_Attackpoints()": "c669b710",
			"exchangeRate_Burnpct()": "6a7a2fa3",
			"exchangeRate_Defensepoints()": "d4637ddb",
			"getApproved(uint256)": "081812fc",
			"getBossId(uint256)": "c3983149",
			"getBossRank(uint256)": "266c79ef",
			"getCurrentStakes()": "fa4facdb",
			"getIdOfRank(uint256)": "16807e15",
			"getIdsOfAddress(address)": "c4a3a1fc",
			"getRankOfId(uint256)": "802bea6e",
			"getRanksOfAddress(address)": "e10270c6",
			"getServants(uint256)": "5e1bb546",
			"getTimeUntilStakingDone()": "84505e6a",
			"getTitleStats(uint256)": "437ace21",
			"harvestAll()": "8ed955b9",
			"isApprovedForAll(address,address)": "e985e9c5",
			"justSendETH()": "e046670b",
			"kgdat()": "7c62539a",
			"kgddf()": "411ee0d0",
			"kgdsc()": "900294be",
			"kingdomtitles(uint256)": "1cf95ed6",
			"name()": "06fdde03",
			"owner()": "8da5cb5b",
			"ownerOf(uint256)": "6352211e",
			"payOutDividends()": "0251b7d2",
			"plantSeeds(uint256,uint8)": "429c3edf",
			"readyTimeStakeCooldown()": "0895ba53",
			"renounceOwnership()": "715018a6",
			"reverseItem(uint256)": "2756985c",
			"safeTransferFrom(address,address,uint256)": "42842e0e",
			"safeTransferFrom(address,address,uint256,bytes)": "b88d4fde",
			"setApprovalForAll(address,bool)": "a22cb465",
			"stakingPeriod()": "c03d5b47",
			"supportsInterface(bytes4)": "01ffc9a7",
			"symbol()": "95d89b41",
			"title2Rank(uint256)": "f4fd44f1",
			"tokenURI(uint256)": "c87b56dd",
			"totalSupply()": "18160ddd",
			"transferFrom(address,address,uint256)": "23b872dd",
			"transferOwnership(address)": "f2fde38b",
			"withdrawMilitaryFromTitle(uint256,uint32,uint8)": "073077ec"
		}
	},
	"abi": [
		{
			"inputs": [
				{
					"internalType": "contract KingdomSeedCoin",
					"name": "_kgdsc",
					"type": "address"
				},
				{
					"internalType": "contract KingdomAttackCoin",
					"name": "_kgdat",
					"type": "address"
				},
				{
					"internalType": "contract KingdomDefenseCoin",
					"name": "_kgddf",
					"type": "address"
				}
			],
			"stateMutability": "nonpayable",
			"type": "constructor"
		},
		{
			"anonymous": false,
			"inputs": [
				{
					"indexed": true,
					"internalType": "address",
					"name": "owner",
					"type": "address"
				},
				{
					"indexed": true,
					"internalType": "address",
					"name": "approved",
					"type": "address"
				},
				{
					"indexed": true,
					"internalType": "uint256",
					"name": "tokenId",
					"type": "uint256"
				}
			],
			"name": "Approval",
			"type": "event"
		},
		{
			"anonymous": false,
			"inputs": [
				{
					"indexed": true,
					"internalType": "address",
					"name": "owner",
					"type": "address"
				},
				{
					"indexed": true,
					"internalType": "address",
					"name": "operator",
					"type": "address"
				},
				{
					"indexed": false,
					"internalType": "bool",
					"name": "approved",
					"type": "bool"
				}
			],
			"name": "ApprovalForAll",
			"type": "event"
		},
		{
			"anonymous": false,
			"inputs": [
				{
					"indexed": false,
					"internalType": "address",
					"name": "attacker",
					"type": "address"
				},
				{
					"indexed": false,
					"internalType": "address",
					"name": "defender",
					"type": "address"
				},
				{
					"indexed": false,
					"internalType": "uint256",
					"name": "attacker_id",
					"type": "uint256"
				},
				{
					"indexed": false,
					"internalType": "uint256",
					"name": "defender_id",
					"type": "uint256"
				},
				{
					"indexed": false,
					"internalType": "uint256",
					"name": "attackPointsBefore",
					"type": "uint256"
				},
				{
					"indexed": false,
					"internalType": "uint256",
					"name": "defensePointsBefore",
					"type": "uint256"
				},
				{
					"indexed": false,
					"internalType": "uint256",
					"name": "deadAttackers",
					"type": "uint256"
				},
				{
					"indexed": false,
					"internalType": "uint256",
					"name": "deadDefenders",
					"type": "uint256"
				},
				{
					"indexed": false,
					"internalType": "bool",
					"name": "won",
					"type": "bool"
				}
			],
			"name": "Attack",
			"type": "event"
		},
		{
			"anonymous": false,
			"inputs": [
				{
					"indexed": true,
					"internalType": "address",
					"name": "_to",
					"type": "address"
				},
				{
					"indexed": false,
					"internalType": "uint256",
					"name": "_amount",
					"type": "uint256"
				}
			],
			"name": "HarvestAttackPoints",
			"type": "event"
		},
		{
			"anonymous": false,
			"inputs": [
				{
					"indexed": true,
					"internalType": "address",
					"name": "_to",
					"type": "address"
				},
				{
					"indexed": false,
					"internalType": "uint256",
					"name": "_amount",
					"type": "uint256"
				}
			],
			"name": "HarvestDefensePoints",
			"type": "event"
		},
		{
			"anonymous": false,
			"inputs": [
				{
					"indexed": true,
					"internalType": "address",
					"name": "_to",
					"type": "address"
				},
				{
					"indexed": false,
					"internalType": "uint256",
					"name": "_amount",
					"type": "uint256"
				},
				{
					"indexed": false,
					"internalType": "uint256",
					"name": "_beforeBurn",
					"type": "uint256"
				}
			],
			"name": "HarvestRemainingSeedCoins",
			"type": "event"
		},
		{
			"anonymous": false,
			"inputs": [
				{
					"indexed": false,
					"internalType": "uint256",
					"name": "error",
					"type": "uint256"
				}
			],
			"name": "Log",
			"type": "event"
		},
		{
			"anonymous": false,
			"inputs": [
				{
					"indexed": true,
					"internalType": "address",
					"name": "previousOwner",
					"type": "address"
				},
				{
					"indexed": true,
					"internalType": "address",
					"name": "newOwner",
					"type": "address"
				}
			],
			"name": "OwnershipTransferred",
			"type": "event"
		},
		{
			"anonymous": false,
			"inputs": [
				{
					"indexed": false,
					"internalType": "address",
					"name": "attacker",
					"type": "address"
				},
				{
					"indexed": false,
					"internalType": "address",
					"name": "defender",
					"type": "address"
				},
				{
					"indexed": false,
					"internalType": "uint256",
					"name": "new_attacker_id",
					"type": "uint256"
				},
				{
					"indexed": false,
					"internalType": "uint256",
					"name": "new_defender_id",
					"type": "uint256"
				}
			],
			"name": "Sacked",
			"type": "event"
		},
		{
			"anonymous": false,
			"inputs": [
				{
					"indexed": true,
					"internalType": "address",
					"name": "from",
					"type": "address"
				},
				{
					"indexed": true,
					"internalType": "address",
					"name": "to",
					"type": "address"
				},
				{
					"indexed": true,
					"internalType": "uint256",
					"name": "tokenId",
					"type": "uint256"
				}
			],
			"name": "Transfer",
			"type": "event"
		},
		{
			"anonymous": false,
			"inputs": [
				{
					"indexed": true,
					"internalType": "address",
					"name": "_from",
					"type": "address"
				},
				{
					"indexed": false,
					"internalType": "uint256",
					"name": "_amount",
					"type": "uint256"
				}
			],
			"name": "enterStakingAttackPoints",
			"type": "event"
		},
		{
			"anonymous": false,
			"inputs": [
				{
					"indexed": true,
					"internalType": "address",
					"name": "_from",
					"type": "address"
				},
				{
					"indexed": false,
					"internalType": "uint256",
					"name": "_amount",
					"type": "uint256"
				}
			],
			"name": "enterStakingDefensePoints",
			"type": "event"
		},
		{
			"inputs": [
				{
					"internalType": "address",
					"name": "",
					"type": "address"
				},
				{
					"internalType": "uint256",
					"name": "",
					"type": "uint256"
				}
			],
			"name": "address2ids",
			"outputs": [
				{
					"internalType": "uint256",
					"name": "",
					"type": "uint256"
				}
			],
			"stateMutability": "view",
			"type": "function"
		},
		{
			"inputs": [
				{
					"internalType": "address",
					"name": "to",
					"type": "address"
				},
				{
					"internalType": "uint256",
					"name": "tokenId",
					"type": "uint256"
				}
			],
			"name": "approve",
			"outputs": [],
			"stateMutability": "nonpayable",
			"type": "function"
		},
		{
			"inputs": [
				{
					"internalType": "uint256",
					"name": "nrCoins",
					"type": "uint256"
				},
				{
					"internalType": "uint32",
					"name": "titleId",
					"type": "uint32"
				},
				{
					"internalType": "uint256",
					"name": "coinType",
					"type": "uint256"
				}
			],
			"name": "assignMilitaryToTitle",
			"outputs": [],
			"stateMutability": "nonpayable",
			"type": "function"
		},
		{
			"inputs": [
				{
					"internalType": "uint256",
					"name": "titleId",
					"type": "uint256"
				}
			],
			"name": "attackBoss",
			"outputs": [],
			"stateMutability": "nonpayable",
			"type": "function"
		},
		{
			"inputs": [],
			"name": "attackCooldown",
			"outputs": [
				{
					"internalType": "uint256",
					"name": "",
					"type": "uint256"
				}
			],
			"stateMutability": "view",
			"type": "function"
		},
		{
			"inputs": [
				{
					"internalType": "address",
					"name": "player",
					"type": "address"
				}
			],
			"name": "awardItem",
			"outputs": [
				{
					"internalType": "uint256",
					"name": "",
					"type": "uint256"
				}
			],
			"stateMutability": "nonpayable",
			"type": "function"
		},
		{
			"inputs": [],
			"name": "balanceLastMonth_kgdat",
			"outputs": [
				{
					"internalType": "uint256",
					"name": "",
					"type": "uint256"
				}
			],
			"stateMutability": "view",
			"type": "function"
		},
		{
			"inputs": [],
			"name": "balanceLastMonth_kgddf",
			"outputs": [
				{
					"internalType": "uint256",
					"name": "",
					"type": "uint256"
				}
			],
			"stateMutability": "view",
			"type": "function"
		},
		{
			"inputs": [],
			"name": "balanceLastMonth_kgdsc",
			"outputs": [
				{
					"internalType": "uint256",
					"name": "",
					"type": "uint256"
				}
			],
			"stateMutability": "view",
			"type": "function"
		},
		{
			"inputs": [
				{
					"internalType": "address",
					"name": "owner",
					"type": "address"
				}
			],
			"name": "balanceOf",
			"outputs": [
				{
					"internalType": "uint256",
					"name": "",
					"type": "uint256"
				}
			],
			"stateMutability": "view",
			"type": "function"
		},
		{
			"inputs": [],
			"name": "baseUrl",
			"outputs": [
				{
					"internalType": "string",
					"name": "",
					"type": "string"
				}
			],
			"stateMutability": "view",
			"type": "function"
		},
		{
			"inputs": [],
			"name": "buyForETH",
			"outputs": [],
			"stateMutability": "payable",
			"type": "function"
		},
		{
			"inputs": [],
			"name": "currentPosition",
			"outputs": [
				{
					"internalType": "uint256",
					"name": "",
					"type": "uint256"
				}
			],
			"stateMutability": "view",
			"type": "function"
		},
		{
			"inputs": [],
			"name": "exchangeRate",
			"outputs": [
				{
					"internalType": "uint8",
					"name": "",
					"type": "uint8"
				}
			],
			"stateMutability": "view",
			"type": "function"
		},
		{
			"inputs": [],
			"name": "exchangeRate_Attackpoints",
			"outputs": [
				{
					"internalType": "uint8",
					"name": "",
					"type": "uint8"
				}
			],
			"stateMutability": "view",
			"type": "function"
		},
		{
			"inputs": [],
			"name": "exchangeRate_Burnpct",
			"outputs": [
				{
					"internalType": "uint8",
					"name": "",
					"type": "uint8"
				}
			],
			"stateMutability": "view",
			"type": "function"
		},
		{
			"inputs": [],
			"name": "exchangeRate_Defensepoints",
			"outputs": [
				{
					"internalType": "uint8",
					"name": "",
					"type": "uint8"
				}
			],
			"stateMutability": "view",
			"type": "function"
		},
		{
			"inputs": [
				{
					"internalType": "uint256",
					"name": "tokenId",
					"type": "uint256"
				}
			],
			"name": "getApproved",
			"outputs": [
				{
					"internalType": "address",
					"name": "",
					"type": "address"
				}
			],
			"stateMutability": "view",
			"type": "function"
		},
		{
			"inputs": [
				{
					"internalType": "uint256",
					"name": "playerId",
					"type": "uint256"
				}
			],
			"name": "getBossId",
			"outputs": [
				{
					"internalType": "uint256",
					"name": "bossId",
					"type": "uint256"
				}
			],
			"stateMutability": "view",
			"type": "function"
		},
		{
			"inputs": [
				{
					"internalType": "uint256",
					"name": "id",
					"type": "uint256"
				}
			],
			"name": "getBossRank",
			"outputs": [
				{
					"internalType": "uint256",
					"name": "bossrank",
					"type": "uint256"
				}
			],
			"stateMutability": "view",
			"type": "function"
		},
		{
			"inputs": [],
			"name": "getCurrentStakes",
			"outputs": [
				{
					"internalType": "uint256[3]",
					"name": "",
					"type": "uint256[3]"
				}
			],
			"stateMutability": "view",
			"type": "function"
		},
		{
			"inputs": [
				{
					"internalType": "uint256",
					"name": "_rank",
					"type": "uint256"
				}
			],
			"name": "getIdOfRank",
			"outputs": [
				{
					"internalType": "uint256",
					"name": "id",
					"type": "uint256"
				}
			],
			"stateMutability": "view",
			"type": "function"
		},
		{
			"inputs": [
				{
					"internalType": "address",
					"name": "_own",
					"type": "address"
				}
			],
			"name": "getIdsOfAddress",
			"outputs": [
				{
					"internalType": "uint256[]",
					"name": "ownedIds",
					"type": "uint256[]"
				}
			],
			"stateMutability": "view",
			"type": "function"
		},
		{
			"inputs": [
				{
					"internalType": "uint256",
					"name": "_id",
					"type": "uint256"
				}
			],
			"name": "getRankOfId",
			"outputs": [
				{
					"internalType": "uint256",
					"name": "id",
					"type": "uint256"
				}
			],
			"stateMutability": "view",
			"type": "function"
		},
		{
			"inputs": [
				{
					"internalType": "address",
					"name": "_own",
					"type": "address"
				}
			],
			"name": "getRanksOfAddress",
			"outputs": [
				{
					"internalType": "uint256[]",
					"name": "",
					"type": "uint256[]"
				}
			],
			"stateMutability": "view",
			"type": "function"
		},
		{
			"inputs": [
				{
					"internalType": "uint256",
					"name": "id",
					"type": "uint256"
				}
			],
			"name": "getServants",
			"outputs": [
				{
					"internalType": "uint256",
					"name": "left",
					"type": "uint256"
				},
				{
					"internalType": "uint256",
					"name": "right",
					"type": "uint256"
				}
			],
			"stateMutability": "view",
			"type": "function"
		},
		{
			"inputs": [],
			"name": "getTimeUntilStakingDone",
			"outputs": [
				{
					"internalType": "uint256[3]",
					"name": "timeuntildone",
					"type": "uint256[3]"
				}
			],
			"stateMutability": "view",
			"type": "function"
		},
		{
			"inputs": [
				{
					"internalType": "uint256",
					"name": "titleId",
					"type": "uint256"
				}
			],
			"name": "getTitleStats",
			"outputs": [
				{
					"internalType": "uint256",
					"name": "attackPoints",
					"type": "uint256"
				},
				{
					"internalType": "uint256",
					"name": "defensePoints",
					"type": "uint256"
				},
				{
					"internalType": "bool",
					"name": "ready4attack",
					"type": "bool"
				},
				{
					"internalType": "uint256",
					"name": "attackMultiplier",
					"type": "uint256"
				},
				{
					"internalType": "uint256",
					"name": "defenseMultiplier",
					"type": "uint256"
				},
				{
					"internalType": "uint256",
					"name": "moneyMultiplier",
					"type": "uint256"
				}
			],
			"stateMutability": "view",
			"type": "function"
		},
		{
			"inputs": [],
			"name": "harvestAll",
			"outputs": [
				{
					"internalType": "bool",
					"name": "success",
					"type": "bool"
				}
			],
			"stateMutability": "nonpayable",
			"type": "function"
		},
		{
			"inputs": [
				{
					"internalType": "address",
					"name": "owner",
					"type": "address"
				},
				{
					"internalType": "address",
					"name": "operator",
					"type": "address"
				}
			],
			"name": "isApprovedForAll",
			"outputs": [
				{
					"internalType": "bool",
					"name": "",
					"type": "bool"
				}
			],
			"stateMutability": "view",
			"type": "function"
		},
		{
			"inputs": [],
			"name": "justSendETH",
			"outputs": [
				{
					"internalType": "uint256",
					"name": "",
					"type": "uint256"
				}
			],
			"stateMutability": "payable",
			"type": "function"
		},
		{
			"inputs": [],
			"name": "kgdat",
			"outputs": [
				{
					"internalType": "contract KingdomAttackCoin",
					"name": "",
					"type": "address"
				}
			],
			"stateMutability": "view",
			"type": "function"
		},
		{
			"inputs": [],
			"name": "kgddf",
			"outputs": [
				{
					"internalType": "contract KingdomDefenseCoin",
					"name": "",
					"type": "address"
				}
			],
			"stateMutability": "view",
			"type": "function"
		},
		{
			"inputs": [],
			"name": "kgdsc",
			"outputs": [
				{
					"internalType": "contract KingdomSeedCoin",
					"name": "",
					"type": "address"
				}
			],
			"stateMutability": "view",
			"type": "function"
		},
		{
			"inputs": [
				{
					"internalType": "uint256",
					"name": "",
					"type": "uint256"
				}
			],
			"name": "kingdomtitles",
			"outputs": [
				{
					"internalType": "uint256",
					"name": "attackPoints",
					"type": "uint256"
				},
				{
					"internalType": "uint256",
					"name": "defensePoints",
					"type": "uint256"
				},
				{
					"internalType": "uint256",
					"name": "readyTimeAttack",
					"type": "uint256"
				},
				{
					"internalType": "uint256",
					"name": "readyTimeStake",
					"type": "uint256"
				},
				{
					"internalType": "uint256",
					"name": "attackMultiplier",
					"type": "uint256"
				},
				{
					"internalType": "uint256",
					"name": "defenseMultiplier",
					"type": "uint256"
				},
				{
					"internalType": "uint256",
					"name": "moneyMultiplier",
					"type": "uint256"
				}
			],
			"stateMutability": "view",
			"type": "function"
		},
		{
			"inputs": [],
			"name": "name",
			"outputs": [
				{
					"internalType": "string",
					"name": "",
					"type": "string"
				}
			],
			"stateMutability": "view",
			"type": "function"
		},
		{
			"inputs": [],
			"name": "owner",
			"outputs": [
				{
					"internalType": "address",
					"name": "",
					"type": "address"
				}
			],
			"stateMutability": "view",
			"type": "function"
		},
		{
			"inputs": [
				{
					"internalType": "uint256",
					"name": "tokenId",
					"type": "uint256"
				}
			],
			"name": "ownerOf",
			"outputs": [
				{
					"internalType": "address",
					"name": "",
					"type": "address"
				}
			],
			"stateMutability": "view",
			"type": "function"
		},
		{
			"inputs": [],
			"name": "payOutDividends",
			"outputs": [],
			"stateMutability": "nonpayable",
			"type": "function"
		},
		{
			"inputs": [
				{
					"internalType": "uint256",
					"name": "nrSeedCoins",
					"type": "uint256"
				},
				{
					"internalType": "uint8",
					"name": "targetCoin",
					"type": "uint8"
				}
			],
			"name": "plantSeeds",
			"outputs": [],
			"stateMutability": "nonpayable",
			"type": "function"
		},
		{
			"inputs": [],
			"name": "readyTimeStakeCooldown",
			"outputs": [
				{
					"internalType": "uint256",
					"name": "",
					"type": "uint256"
				}
			],
			"stateMutability": "view",
			"type": "function"
		},
		{
			"inputs": [],
			"name": "renounceOwnership",
			"outputs": [],
			"stateMutability": "nonpayable",
			"type": "function"
		},
		{
			"inputs": [
				{
					"internalType": "uint256",
					"name": "itemId",
					"type": "uint256"
				}
			],
			"name": "reverseItem",
			"outputs": [
				{
					"internalType": "bool",
					"name": "",
					"type": "bool"
				}
			],
			"stateMutability": "nonpayable",
			"type": "function"
		},
		{
			"inputs": [
				{
					"internalType": "address",
					"name": "from",
					"type": "address"
				},
				{
					"internalType": "address",
					"name": "to",
					"type": "address"
				},
				{
					"internalType": "uint256",
					"name": "tokenId",
					"type": "uint256"
				}
			],
			"name": "safeTransferFrom",
			"outputs": [],
			"stateMutability": "nonpayable",
			"type": "function"
		},
		{
			"inputs": [
				{
					"internalType": "address",
					"name": "from",
					"type": "address"
				},
				{
					"internalType": "address",
					"name": "to",
					"type": "address"
				},
				{
					"internalType": "uint256",
					"name": "tokenId",
					"type": "uint256"
				},
				{
					"internalType": "bytes",
					"name": "_data",
					"type": "bytes"
				}
			],
			"name": "safeTransferFrom",
			"outputs": [],
			"stateMutability": "nonpayable",
			"type": "function"
		},
		{
			"inputs": [
				{
					"internalType": "address",
					"name": "operator",
					"type": "address"
				},
				{
					"internalType": "bool",
					"name": "approved",
					"type": "bool"
				}
			],
			"name": "setApprovalForAll",
			"outputs": [],
			"stateMutability": "nonpayable",
			"type": "function"
		},
		{
			"inputs": [],
			"name": "stakingPeriod",
			"outputs": [
				{
					"internalType": "uint256",
					"name": "",
					"type": "uint256"
				}
			],
			"stateMutability": "view",
			"type": "function"
		},
		{
			"inputs": [
				{
					"internalType": "bytes4",
					"name": "interfaceId",
					"type": "bytes4"
				}
			],
			"name": "supportsInterface",
			"outputs": [
				{
					"internalType": "bool",
					"name": "",
					"type": "bool"
				}
			],
			"stateMutability": "view",
			"type": "function"
		},
		{
			"inputs": [],
			"name": "symbol",
			"outputs": [
				{
					"internalType": "string",
					"name": "",
					"type": "string"
				}
			],
			"stateMutability": "view",
			"type": "function"
		},
		{
			"inputs": [
				{
					"internalType": "uint256",
					"name": "",
					"type": "uint256"
				}
			],
			"name": "title2Rank",
			"outputs": [
				{
					"internalType": "uint256",
					"name": "",
					"type": "uint256"
				}
			],
			"stateMutability": "view",
			"type": "function"
		},
		{
			"inputs": [
				{
					"internalType": "uint256",
					"name": "tokenId",
					"type": "uint256"
				}
			],
			"name": "tokenURI",
			"outputs": [
				{
					"internalType": "string",
					"name": "",
					"type": "string"
				}
			],
			"stateMutability": "view",
			"type": "function"
		},
		{
			"inputs": [],
			"name": "totalSupply",
			"outputs": [
				{
					"internalType": "uint16",
					"name": "",
					"type": "uint16"
				}
			],
			"stateMutability": "view",
			"type": "function"
		},
		{
			"inputs": [
				{
					"internalType": "address",
					"name": "from",
					"type": "address"
				},
				{
					"internalType": "address",
					"name": "to",
					"type": "address"
				},
				{
					"internalType": "uint256",
					"name": "tokenId",
					"type": "uint256"
				}
			],
			"name": "transferFrom",
			"outputs": [],
			"stateMutability": "nonpayable",
			"type": "function"
		},
		{
			"inputs": [
				{
					"internalType": "address",
					"name": "newOwner",
					"type": "address"
				}
			],
			"name": "transferOwnership",
			"outputs": [],
			"stateMutability": "nonpayable",
			"type": "function"
		},
		{
			"inputs": [
				{
					"internalType": "uint256",
					"name": "nrCoins",
					"type": "uint256"
				},
				{
					"internalType": "uint32",
					"name": "titleId",
					"type": "uint32"
				},
				{
					"internalType": "uint8",
					"name": "coinType",
					"type": "uint8"
				}
			],
			"name": "withdrawMilitaryFromTitle",
			"outputs": [],
			"stateMutability": "nonpayable",
			"type": "function"
		}
	]
}